{
  "contracts/SaarthiLogic.sol": {
    "Saarthi": {
      "abi": [
        {
          "inputs": [],
          "stateMutability": "nonpayable",
          "type": "constructor"
        },
        {
          "anonymous": false,
          "inputs": [
            {
              "indexed": true,
              "internalType": "uint256",
              "name": "taskID",
              "type": "uint256"
            },
            {
              "indexed": false,
              "internalType": "bytes32",
              "name": "_modelHash",
              "type": "bytes32"
            },
            {
              "indexed": false,
              "internalType": "uint256",
              "name": "_time",
              "type": "uint256"
            }
          ],
          "name": "modelUpdated",
          "type": "event"
        },
        {
          "anonymous": false,
          "inputs": [
            {
              "indexed": true,
              "internalType": "address",
              "name": "_from",
              "type": "address"
            },
            {
              "indexed": true,
              "internalType": "address",
              "name": "_to",
              "type": "address"
            },
            {
              "indexed": false,
              "internalType": "bool",
              "name": "_finalState",
              "type": "bool"
            }
          ],
          "name": "newApproval",
          "type": "event"
        },
        {
          "anonymous": false,
          "inputs": [
            {
              "indexed": true,
              "internalType": "address",
              "name": "_campaigner",
              "type": "address"
            },
            {
              "indexed": false,
              "internalType": "bytes32",
              "name": "_campaignData",
              "type": "bytes32"
            },
            {
              "indexed": false,
              "internalType": "uint256",
              "name": "_createdAt",
              "type": "uint256"
            }
          ],
          "name": "newCampaign",
          "type": "event"
        },
        {
          "anonymous": false,
          "inputs": [
            {
              "indexed": true,
              "internalType": "address",
              "name": "_campaigner",
              "type": "address"
            },
            {
              "indexed": true,
              "internalType": "address",
              "name": "_from",
              "type": "address"
            },
            {
              "indexed": false,
              "internalType": "uint256",
              "name": "amount",
              "type": "uint256"
            }
          ],
          "name": "newCampaignDonation",
          "type": "event"
        },
        {
          "anonymous": false,
          "inputs": [
            {
              "indexed": false,
              "internalType": "uint256",
              "name": "_fundIndex",
              "type": "uint256"
            },
            {
              "indexed": true,
              "internalType": "bytes32",
              "name": "_orgName",
              "type": "bytes32"
            },
            {
              "indexed": false,
              "internalType": "bytes32",
              "name": "_fundName",
              "type": "bytes32"
            }
          ],
          "name": "newFund",
          "type": "event"
        },
        {
          "anonymous": false,
          "inputs": [
            {
              "indexed": false,
              "internalType": "uint256",
              "name": "_fundIndex",
              "type": "uint256"
            },
            {
              "indexed": true,
              "internalType": "address",
              "name": "_sender",
              "type": "address"
            },
            {
              "indexed": true,
              "internalType": "address",
              "name": "_receiver",
              "type": "address"
            },
            {
              "indexed": false,
              "internalType": "uint256",
              "name": "_amount",
              "type": "uint256"
            }
          ],
          "name": "newFundDonation",
          "type": "event"
        },
        {
          "anonymous": false,
          "inputs": [
            {
              "indexed": true,
              "internalType": "uint256",
              "name": "_index",
              "type": "uint256"
            },
            {
              "indexed": true,
              "internalType": "address",
              "name": "_reporter",
              "type": "address"
            },
            {
              "indexed": true,
              "internalType": "bytes32",
              "name": "_location",
              "type": "bytes32"
            },
            {
              "indexed": false,
              "internalType": "bytes32",
              "name": "_file",
              "type": "bytes32"
            },
            {
              "indexed": false,
              "internalType": "string",
              "name": "_details",
              "type": "string"
            },
            {
              "indexed": false,
              "internalType": "uint256",
              "name": "_time",
              "type": "uint256"
            }
          ],
          "name": "newReport",
          "type": "event"
        },
        {
          "anonymous": false,
          "inputs": [
            {
              "indexed": true,
              "internalType": "uint256",
              "name": "taskID",
              "type": "uint256"
            },
            {
              "indexed": true,
              "internalType": "address",
              "name": "_user",
              "type": "address"
            },
            {
              "indexed": false,
              "internalType": "bytes32",
              "name": "_modelHash",
              "type": "bytes32"
            },
            {
              "indexed": false,
              "internalType": "uint256",
              "name": "_amt",
              "type": "uint256"
            },
            {
              "indexed": false,
              "internalType": "uint256",
              "name": "_time",
              "type": "uint256"
            }
          ],
          "name": "newTaskCreated",
          "type": "event"
        },
        {
          "inputs": [
            {
              "internalType": "uint256",
              "name": "",
              "type": "uint256"
            }
          ],
          "name": "Campaigns",
          "outputs": [
            {
              "internalType": "address",
              "name": "",
              "type": "address"
            }
          ],
          "stateMutability": "view",
          "type": "function"
        },
        {
          "inputs": [
            {
              "internalType": "uint256",
              "name": "",
              "type": "uint256"
            }
          ],
          "name": "Funds",
          "outputs": [
            {
              "internalType": "address payable",
              "name": "",
              "type": "address"
            }
          ],
          "stateMutability": "view",
          "type": "function"
        },
        {
          "inputs": [
            {
              "internalType": "uint256",
              "name": "",
              "type": "uint256"
            }
          ],
          "name": "SaarthiTasks",
          "outputs": [
            {
              "internalType": "uint256",
              "name": "taskID",
              "type": "uint256"
            },
            {
              "internalType": "uint256",
              "name": "currentRound",
              "type": "uint256"
            },
            {
              "internalType": "uint256",
              "name": "totalRounds",
              "type": "uint256"
            },
            {
              "internalType": "uint256",
              "name": "cost",
              "type": "uint256"
            }
          ],
          "stateMutability": "view",
          "type": "function"
        },
        {
          "inputs": [
            {
              "internalType": "address",
              "name": "",
              "type": "address"
            },
            {
              "internalType": "uint256",
              "name": "",
              "type": "uint256"
            }
          ],
          "name": "UserTaskIDs",
          "outputs": [
            {
              "internalType": "uint256",
              "name": "",
              "type": "uint256"
            }
          ],
          "stateMutability": "view",
          "type": "function"
        },
        {
          "inputs": [],
          "name": "activeCampaignCnt",
          "outputs": [
            {
              "internalType": "uint256",
              "name": "",
              "type": "uint256"
            }
          ],
          "stateMutability": "view",
          "type": "function"
        },
        {
          "inputs": [
            {
              "internalType": "address",
              "name": "",
              "type": "address"
            },
            {
              "internalType": "address",
              "name": "",
              "type": "address"
            }
          ],
          "name": "approval",
          "outputs": [
            {
              "internalType": "bool",
              "name": "",
              "type": "bool"
            }
          ],
          "stateMutability": "view",
          "type": "function"
        },
        {
          "inputs": [
            {
              "internalType": "address",
              "name": "",
              "type": "address"
            }
          ],
          "name": "billAmounts",
          "outputs": [
            {
              "internalType": "uint256",
              "name": "",
              "type": "uint256"
            }
          ],
          "stateMutability": "view",
          "type": "function"
        },
        {
          "inputs": [
            {
              "internalType": "address",
              "name": "_user",
              "type": "address"
            },
            {
              "internalType": "uint256",
              "name": "_amt",
              "type": "uint256"
            }
          ],
          "name": "billUser",
          "outputs": [],
          "stateMutability": "nonpayable",
          "type": "function"
        },
        {
          "inputs": [
            {
              "internalType": "bytes32",
              "name": "c__0x5a755f78",
              "type": "bytes32"
            }
          ],
          "name": "c_0x5a755f78",
          "outputs": [],
          "stateMutability": "pure",
          "type": "function"
        },
        {
          "inputs": [
            {
              "internalType": "bytes32",
              "name": "c__0xd94ba50d",
              "type": "bytes32"
            }
          ],
          "name": "c_0xd94ba50d",
          "outputs": [],
          "stateMutability": "pure",
          "type": "function"
        },
        {
          "inputs": [
            {
              "internalType": "address",
              "name": "",
              "type": "address"
            }
          ],
          "name": "campaignEnabled",
          "outputs": [
            {
              "internalType": "bool",
              "name": "",
              "type": "bool"
            }
          ],
          "stateMutability": "view",
          "type": "function"
        },
        {
          "inputs": [],
          "name": "coordinatorAddress",
          "outputs": [
            {
              "internalType": "address",
              "name": "",
              "type": "address"
            }
          ],
          "stateMutability": "view",
          "type": "function"
        },
        {
          "inputs": [
            {
              "internalType": "bytes32",
              "name": "_orgName",
              "type": "bytes32"
            },
            {
              "internalType": "bytes32",
              "name": "_fundName",
              "type": "bytes32"
            },
            {
              "internalType": "address payable",
              "name": "_orgAdress",
              "type": "address"
            }
          ],
          "name": "createFund",
          "outputs": [],
          "stateMutability": "nonpayable",
          "type": "function"
        },
        {
          "inputs": [
            {
              "internalType": "bytes32",
              "name": "_modelHash",
              "type": "bytes32"
            },
            {
              "internalType": "uint256",
              "name": "_rounds",
              "type": "uint256"
            }
          ],
          "name": "createTask",
          "outputs": [],
          "stateMutability": "payable",
          "type": "function"
        },
        {
          "inputs": [
            {
              "internalType": "address",
              "name": "_user",
              "type": "address"
            }
          ],
          "name": "donateToCampaign",
          "outputs": [],
          "stateMutability": "payable",
          "type": "function"
        },
        {
          "inputs": [
            {
              "internalType": "uint256",
              "name": "_fundIndex",
              "type": "uint256"
            }
          ],
          "name": "donateToFund",
          "outputs": [],
          "stateMutability": "payable",
          "type": "function"
        },
        {
          "inputs": [
            {
              "internalType": "bytes32",
              "name": "_location",
              "type": "bytes32"
            },
            {
              "internalType": "bytes32",
              "name": "_file",
              "type": "bytes32"
            },
            {
              "internalType": "string",
              "name": "_details",
              "type": "string"
            }
          ],
          "name": "fileReport",
          "outputs": [],
          "stateMutability": "nonpayable",
          "type": "function"
        },
        {
          "inputs": [],
          "name": "fundCnt",
          "outputs": [
            {
              "internalType": "uint256",
              "name": "",
              "type": "uint256"
            }
          ],
          "stateMutability": "view",
          "type": "function"
        },
        {
          "inputs": [
            {
              "internalType": "address",
              "name": "",
              "type": "address"
            }
          ],
          "name": "hospitals",
          "outputs": [
            {
              "internalType": "bool",
              "name": "",
              "type": "bool"
            }
          ],
          "stateMutability": "view",
          "type": "function"
        },
        {
          "inputs": [],
          "name": "nextTaskID",
          "outputs": [
            {
              "internalType": "uint256",
              "name": "",
              "type": "uint256"
            }
          ],
          "stateMutability": "view",
          "type": "function"
        },
        {
          "inputs": [],
          "name": "owner",
          "outputs": [
            {
              "internalType": "address",
              "name": "",
              "type": "address"
            }
          ],
          "stateMutability": "view",
          "type": "function"
        },
        {
          "inputs": [],
          "name": "paused",
          "outputs": [
            {
              "internalType": "bool",
              "name": "",
              "type": "bool"
            }
          ],
          "stateMutability": "view",
          "type": "function"
        },
        {
          "inputs": [],
          "name": "reportCnt",
          "outputs": [
            {
              "internalType": "uint256",
              "name": "",
              "type": "uint256"
            }
          ],
          "stateMutability": "view",
          "type": "function"
        },
        {
          "inputs": [
            {
              "internalType": "bytes32",
              "name": "_campaignData",
              "type": "bytes32"
            }
          ],
          "name": "startCampaign",
          "outputs": [],
          "stateMutability": "nonpayable",
          "type": "function"
        },
        {
          "inputs": [],
          "name": "stopCampaign",
          "outputs": [],
          "stateMutability": "nonpayable",
          "type": "function"
        },
        {
          "inputs": [
            {
              "internalType": "address",
              "name": "_address",
              "type": "address"
            }
          ],
          "name": "toggleAccessToAddress",
          "outputs": [],
          "stateMutability": "nonpayable",
          "type": "function"
        },
        {
          "inputs": [
            {
              "internalType": "address",
              "name": "_address",
              "type": "address"
            }
          ],
          "name": "toggleHospital",
          "outputs": [],
          "stateMutability": "nonpayable",
          "type": "function"
        },
        {
          "inputs": [],
          "name": "togglePause",
          "outputs": [],
          "stateMutability": "nonpayable",
          "type": "function"
        },
        {
          "inputs": [],
          "name": "totalDonationAmount",
          "outputs": [
            {
              "internalType": "uint256",
              "name": "",
              "type": "uint256"
            }
          ],
          "stateMutability": "view",
          "type": "function"
        },
        {
          "inputs": [],
          "name": "totalDonationCnt",
          "outputs": [
            {
              "internalType": "uint256",
              "name": "",
              "type": "uint256"
            }
          ],
          "stateMutability": "view",
          "type": "function"
        },
        {
          "inputs": [
            {
              "internalType": "uint256",
              "name": "_taskID",
              "type": "uint256"
            },
            {
              "internalType": "bytes32",
              "name": "_modelHash",
              "type": "bytes32"
            },
            {
              "internalType": "address payable",
              "name": "computer",
              "type": "address"
            }
          ],
          "name": "updateModelForTask",
          "outputs": [],
          "stateMutability": "nonpayable",
          "type": "function"
        },
        {
          "inputs": [
            {
              "internalType": "address",
              "name": "_newOwner",
              "type": "address"
            }
          ],
          "name": "updateOwner",
          "outputs": [],
          "stateMutability": "nonpayable",
          "type": "function"
        }
      ],
      "evm": {
        "bytecode": {
          "linkReferences": {},
          "object": "60806040526000600160146101000a81548160ff021916908315150217905550600160025560006009556000600b556000600c556000600d556000600f553480156200004a57600080fd5b506200007f7fc86984b1b8e53e66211a0270b422598de79395a2562ff38539b354c52fb6f04d60001b620001d660201b60201c565b620000b37f6d4e710fb0c9a29521bf53fd3cebe477c04dfa07dff73d9508a0fa56aa1926cb60001b620001d660201b60201c565b620000e77f31b985be2fbdfcb0a735912088758a5bfcde7204df761df6613283c9bcb92a1e60001b620001d660201b60201c565b336000806101000a81548173ffffffffffffffffffffffffffffffffffffffff021916908373ffffffffffffffffffffffffffffffffffffffff1602179055506200015b7f7be5c16d25c389dac3243d1d694854dc5c150ff361ea2c5ef79971f492406e0c60001b620001d660201b60201c565b6200018f7f170125157263eb0f540ffb8f373261cff912c45d3a05f39cb75931e22550863e60001b620001d660201b60201c565b33600160006101000a81548173ffffffffffffffffffffffffffffffffffffffff021916908373ffffffffffffffffffffffffffffffffffffffff160217905550620001d9565b50565b6148de80620001e96000396000f3fe6080604052600436106101e35760003560e01c806382003b3111610102578063cd5e548311610095578063ec27035311610064578063ec270353146106a6578063eee9b99e146106cf578063f093cf801461070c578063f1fcc8e914610749576101e3565b8063cd5e5483146105e8578063e1270b6e14610613578063e1c7dbe314610650578063e3f2d24f1461067b576101e3565b8063b063795c116100d1578063b063795c14610540578063c06a260d1461056b578063c4ae316814610594578063c4d8fea7146105ab576101e3565b806382003b3114610484578063880cdc31146104af5780638da5cb5b146104d85780639ff6071114610503576101e3565b80634e1dd1a41161017a5780636946c5e9116101495780636946c5e9146103e65780636fbb5f62146104235780637c6abc821461043f5780637d4f6e7e1461045b576101e3565b80634e1dd1a4146103275780635af09fe2146103505780635c975abb1461037b5780636092a502146103a6576101e3565b806317849646116101b6578063178496461461026d57806322af0c0b146102985780634013be10146102c1578063483d6752146102fe576101e3565b8063022decd9146101e85780630d3bb50f1461021157806311cd13ac1461023a57806316f1bc2214610256575b600080fd5b3480156101f457600080fd5b5061020f600480360381019061020a9190613edc565b610772565b005b34801561021d57600080fd5b5061023860048036038101906102339190613f41565b610b29565b005b610254600480360381019061024f9190614033565b610ebf565b005b34801561026257600080fd5b5061026b6113dd565b005b34801561027957600080fd5b5061028261175c565b60405161028f919061451e565b60405180910390f35b3480156102a457600080fd5b506102bf60048036038101906102ba919061405c565b611762565b005b3480156102cd57600080fd5b506102e860048036038101906102e39190614033565b611f4b565b6040516102f5919061432f565b60405180910390f35b34801561030a57600080fd5b5061032560048036038101906103209190613f18565b611f8a565b005b34801561033357600080fd5b5061034e60048036038101906103499190613e77565b611f8d565b005b34801561035c57600080fd5b50610365612278565b604051610372919061451e565b60405180910390f35b34801561038757600080fd5b5061039061227e565b60405161039d9190614365565b60405180910390f35b3480156103b257600080fd5b506103cd60048036038101906103c89190614033565b612291565b6040516103dd949392919061458b565b60405180910390f35b3480156103f257600080fd5b5061040d60048036038101906104089190613edc565b6122c1565b60405161041a919061451e565b60405180910390f35b61043d60048036038101906104389190613ff7565b6122f2565b005b61045960048036038101906104549190613e77565b612912565b005b34801561046757600080fd5b50610482600480360381019061047d9190613f18565b612d3e565b005b34801561049057600080fd5b50610499612d41565b6040516104a6919061432f565b60405180910390f35b3480156104bb57600080fd5b506104d660048036038101906104d19190613e77565b612d67565b005b3480156104e457600080fd5b506104ed612f6c565b6040516104fa919061432f565b60405180910390f35b34801561050f57600080fd5b5061052a60048036038101906105259190613e77565b612f90565b6040516105379190614365565b60405180910390f35b34801561054c57600080fd5b50610555612fb0565b604051610562919061451e565b60405180910390f35b34801561057757600080fd5b50610592600480360381019061058d9190613f18565b612fb6565b005b3480156105a057600080fd5b506105a9613417565b005b3480156105b757600080fd5b506105d260048036038101906105cd9190613e77565b613605565b6040516105df919061451e565b60405180910390f35b3480156105f457600080fd5b506105fd61361d565b60405161060a919061451e565b60405180910390f35b34801561061f57600080fd5b5061063a60048036038101906106359190613ea0565b613623565b6040516106479190614365565b60405180910390f35b34801561065c57600080fd5b50610665613652565b604051610672919061451e565b60405180910390f35b34801561068757600080fd5b50610690613658565b60405161069d919061451e565b60405180910390f35b3480156106b257600080fd5b506106cd60048036038101906106c89190613e77565b61365e565b005b3480156106db57600080fd5b506106f660048036038101906106f19190614033565b613a25565b604051610703919061434a565b60405180910390f35b34801561071857600080fd5b50610733600480360381019061072e9190613e77565b613a58565b6040516107409190614365565b60405180910390f35b34801561075557600080fd5b50610770600480360381019061076b9190613f90565b613a78565b005b61079e7f25bceb0000ec0f6cc3ba12e9b960752052e976c2df5d788f37b5da7dac78f1ca60001b612d3e565b6107ca7ff9242be87869c018f060c6845ef371801c93c15c947910455aa32940d28029b760001b612d3e565b6107f67f37b9b08b863ad2d19ed93c126c21428097aae2aff6e33660bfe4599137ed24ef60001b612d3e565b6108227f92fd2b57115e28088b39a9ffdf4f10212dc0201efa5e981462be29694deff2e160001b612d3e565b60001515600160149054906101000a900460ff16151514610878576040517f08c379a000000000000000000000000000000000000000000000000000000000815260040161086f906144be565b60405180910390fd5b6108a47feffd08acf2af4addeb09c1c6be3280088a0c1a6b5ee25ca86204f2098bd39a3260001b612d3e565b6108d07f10ed6cc5a42744d6773dba7086afe3d413c27bbddd280f23e4e549e0d052ca3a60001b612d3e565b6108fc7f550e4a70f803a1d82127adc256d13b57a27ff8b5fdcf74eb0bf75491fda78a9e60001b612d3e565b6109287f707297efd293ae437c226e9e10a6ca218ce96ed63ae651ea923335b7fff81fcc60001b612d3e565b6109547feeaabe8abd0a9d7083c814bb25326dd07a38e5c31a315db50f0102dccfe47de660001b612d3e565b6109807f117062ef6dbdaf620c39fd9bb29c2171e1ec93f178dc56b69959b75f666408fa60001b612d3e565b60011515600560003373ffffffffffffffffffffffffffffffffffffffff1673ffffffffffffffffffffffffffffffffffffffff16815260200190815260200160002060009054906101000a900460ff16151514610a13576040517f08c379a0000000000000000000000000000000000000000000000000000000008152600401610a0a9061445e565b60405180910390fd5b610a3f7f1460deadaaa29254f08c399c6eac0123b1f915e3622dd53640a08a7c9fcfb80260001b612d3e565b610a6b7f7de6a78122c6579da8de5a50608b24ff2600ccc9eb0736f0ec0d66ff6fdfa4da60001b612d3e565b610a977fd6ac3d63c8dd93b46d07e2c8832a9edefdefb40f1ad9fbdcdfb43ec75006ea6860001b612d3e565b80600660008473ffffffffffffffffffffffffffffffffffffffff1673ffffffffffffffffffffffffffffffffffffffff16815260200190815260200160002054610ae2919061464d565b600660008473ffffffffffffffffffffffffffffffffffffffff1673ffffffffffffffffffffffffffffffffffffffff168152602001908152602001600020819055505050565b610b557f25bceb0000ec0f6cc3ba12e9b960752052e976c2df5d788f37b5da7dac78f1ca60001b612d3e565b610b817ff9242be87869c018f060c6845ef371801c93c15c947910455aa32940d28029b760001b612d3e565b610bad7f37b9b08b863ad2d19ed93c126c21428097aae2aff6e33660bfe4599137ed24ef60001b612d3e565b610bd97f92fd2b57115e28088b39a9ffdf4f10212dc0201efa5e981462be29694deff2e160001b612d3e565b60001515600160149054906101000a900460ff16151514610c2f576040517f08c379a0000000000000000000000000000000000000000000000000000000008152600401610c26906144be565b60405180910390fd5b610c5b7feffd08acf2af4addeb09c1c6be3280088a0c1a6b5ee25ca86204f2098bd39a3260001b612d3e565b610c877f10ed6cc5a42744d6773dba7086afe3d413c27bbddd280f23e4e549e0d052ca3a60001b612d3e565b610cb37fb87205c1aec7b6c758dc6bc5b2cfd40feea1b4e685f210ebe3b7d2e906668e4060001b612d3e565b610cdf7f52d2ff6dd0fddb5e84e6f475ad8c4e7e16cd054decba71592da158b907d6823660001b612d3e565b610d0b7f7114d800ae2dc009140607fa28d8c9611c15e102535ca990b4d95d1dec2a161760001b612d3e565b60006001600b54610d1c919061464d565b9050610d4a7f44eff928658353c04535945d7e88b78c31cf2a4eb3fb7595fe1e884bcbbfcf4060001b612d3e565b610d767fba367887562de99f6481541c728423701537f776ec8752d02429c9c81ae5940860001b612d3e565b81600e600083815260200190815260200160002060006101000a81548173ffffffffffffffffffffffffffffffffffffffff021916908373ffffffffffffffffffffffffffffffffffffffff160217905550610df47fda2f444d9d518ec474f2949ad203f26b4ab702a489683150973f66bb8a68577f60001b612d3e565b610e207f330919efa870947e76cc1296112abb295fa7f27b4888a771fcc15097dd35008660001b612d3e565b80600b81905550610e537f4bcf61ec1ff091226f665746865548fb2f2700dd17a0f765f45452543d6c17da60001b612d3e565b610e7f7f0e789b83ca8826b0ff47436b05317c00532f76d340944e756e1c4040338b7b2a60001b612d3e565b837fb99663894dc2a2c66382f63932042aa530244fe0af348b833f4cddea9cfbeb718285604051610eb1929190614539565b60405180910390a250505050565b610eeb7f25bceb0000ec0f6cc3ba12e9b960752052e976c2df5d788f37b5da7dac78f1ca60001b612d3e565b610f177ff9242be87869c018f060c6845ef371801c93c15c947910455aa32940d28029b760001b612d3e565b610f437f37b9b08b863ad2d19ed93c126c21428097aae2aff6e33660bfe4599137ed24ef60001b612d3e565b610f6f7f92fd2b57115e28088b39a9ffdf4f10212dc0201efa5e981462be29694deff2e160001b612d3e565b60001515600160149054906101000a900460ff16151514610fc5576040517f08c379a0000000000000000000000000000000000000000000000000000000008152600401610fbc906144be565b60405180910390fd5b610ff17feffd08acf2af4addeb09c1c6be3280088a0c1a6b5ee25ca86204f2098bd39a3260001b612d3e565b61101d7f10ed6cc5a42744d6773dba7086afe3d413c27bbddd280f23e4e549e0d052ca3a60001b612d3e565b6110497f8961bfeff3ab83dd46f0e157ac781e643ae326effd36c28a9ba575392ccc4aca60001b612d3e565b6110757fb7864230e5a1289a94d6ab24fae76290160eb9af516f0bf1e5f90aeec0a65cd160001b612d3e565b6110a17f321c69070ed0a0fb3b919728cc86e3456b0719b8bac5aea0a259a24f330017ac60001b612d3e565b6110cd7fef0fc60f8b7413d5fd3e1202a2b1644b02ba6d0929866dfff6c1177cb8e9481360001b612d3e565b600b54811115611112576040517f08c379a00000000000000000000000000000000000000000000000000000000081526004016111099061447e565b60405180910390fd5b61113e7f8f4bf2af1c7e476fc9c68f3281de079645a52373723d419804dc596eb05464a460001b612d3e565b61116a7f86f8072cc0b4c2e00c5de41bf37593553f402b39c64a66aa01c9c7cf41bdb53c60001b612d3e565b6111967fc793c3a0c1f37fabbc9a2ce2cf8c59a29949edc0aae3eefa286a07a1c9ba710a60001b612d3e565b34600c546111a4919061464d565b600c819055506111d67f65514153c57fbbe0c394816483ba8668667488d1c6fb4059e36c1a22bb32b44d60001b612d3e565b6112027f6a992ddb19afd88d8c6b485cdf05fcd9c37f86c00c5d0c117e155463efed009a60001b612d3e565b6001600d54611211919061464d565b600d819055506112437fc65bb986c0e0194fff5a701c40436b729c170798641914a8090aaac9f28e823e60001b612d3e565b61126e7e2ad6b26d2f6965486a50ead82ac64634fe01d9e1625f5e32478d32b9b2015f60001b612d3e565b600e600082815260200190815260200160002060009054906101000a900473ffffffffffffffffffffffffffffffffffffffff1673ffffffffffffffffffffffffffffffffffffffff166108fc349081150290604051600060405180830381858888f193505050501580156112e7573d6000803e3d6000fd5b506113147fce6852dfcecb651a0e0adf5a761d6b0860ee9c197a6498da2a3cc115abd8b24f60001b612d3e565b6113407fb55415af75bd12ec289543e68e0af15ff6a1381e3c8c2d706257bd61760d586e60001b612d3e565b600e600082815260200190815260200160002060009054906101000a900473ffffffffffffffffffffffffffffffffffffffff1673ffffffffffffffffffffffffffffffffffffffff163373ffffffffffffffffffffffffffffffffffffffff167f2317347462a70f36eb7bac6fb953aca2cd01eb3bcdf5f359babe909811eaed6783346040516113d2929190614562565b60405180910390a350565b6114097f25bceb0000ec0f6cc3ba12e9b960752052e976c2df5d788f37b5da7dac78f1ca60001b612d3e565b6114357ff9242be87869c018f060c6845ef371801c93c15c947910455aa32940d28029b760001b612d3e565b6114617f37b9b08b863ad2d19ed93c126c21428097aae2aff6e33660bfe4599137ed24ef60001b612d3e565b61148d7f92fd2b57115e28088b39a9ffdf4f10212dc0201efa5e981462be29694deff2e160001b612d3e565b60001515600160149054906101000a900460ff161515146114e3576040517f08c379a00000000000000000000000000000000000000000000000000000000081526004016114da906144be565b60405180910390fd5b61150f7feffd08acf2af4addeb09c1c6be3280088a0c1a6b5ee25ca86204f2098bd39a3260001b612d3e565b61153b7f10ed6cc5a42744d6773dba7086afe3d413c27bbddd280f23e4e549e0d052ca3a60001b612d3e565b6115677f44575a529f7379cb0b6d837abb75113d9b2df896e884e6b26a6d5d3379a65a2860001b612d3e565b6115937fddd54921b90d128d8e9772173295fd8b7731a727d65f6d6b118f388b66a5312860001b612d3e565b6115bf7fd09a8485a1ac51742f27888af67fd0399a138f560b5360450291791a13730bc260001b612d3e565b6115eb7fb50ab9890355e983cec94e7fd2832eb1fc7587fcf2783ac4810e6a50c969646260001b612d3e565b60011515600a60003373ffffffffffffffffffffffffffffffffffffffff1673ffffffffffffffffffffffffffffffffffffffff16815260200190815260200160002060009054906101000a900460ff1615151461167e576040517f08c379a00000000000000000000000000000000000000000000000000000000081526004016116759061443e565b60405180910390fd5b6116aa7f854170f12af2c81678697f31a9ece4c831e1fcb4fe7cd3d319eccbdc7172487c60001b612d3e565b6116d67f89a348c320747584114752f9e01158c3caf5c679e05839daf57a3bd745afce2360001b612d3e565b6117027f9eca7652a821432ff7622657764d46ffa2508ca811b4cbd9988a7f163ef0856760001b612d3e565b6000600a60003373ffffffffffffffffffffffffffffffffffffffff1673ffffffffffffffffffffffffffffffffffffffff16815260200190815260200160002060006101000a81548160ff021916908315150217905550565b600c5481565b61178e7f25bceb0000ec0f6cc3ba12e9b960752052e976c2df5d788f37b5da7dac78f1ca60001b612d3e565b6117ba7ff9242be87869c018f060c6845ef371801c93c15c947910455aa32940d28029b760001b612d3e565b6117e67f37b9b08b863ad2d19ed93c126c21428097aae2aff6e33660bfe4599137ed24ef60001b612d3e565b6118127f92fd2b57115e28088b39a9ffdf4f10212dc0201efa5e981462be29694deff2e160001b612d3e565b60001515600160149054906101000a900460ff16151514611868576040517f08c379a000000000000000000000000000000000000000000000000000000000815260040161185f906144be565b60405180910390fd5b6118947feffd08acf2af4addeb09c1c6be3280088a0c1a6b5ee25ca86204f2098bd39a3260001b612d3e565b6118c07f10ed6cc5a42744d6773dba7086afe3d413c27bbddd280f23e4e549e0d052ca3a60001b612d3e565b6118ec7faec56adf583223e00e48071aaf0b0b0335a4a7e6bcf218d90aa2d84715c60a7960001b612d3e565b6119187f6743f223adabd212d89ebaf8eae371d1a4a95f900921cb0843044e7873a79ab260001b612d3e565b6119447f60f113e5aec0b22df154ead65aea6029d1f125521f9e558c7ecf3287418051c160001b612d3e565b6119707fa7df47b36306bdb1933bc49155e594ef8e2b9fe2cd231284e081a65a652214b160001b612d3e565b600160009054906101000a900473ffffffffffffffffffffffffffffffffffffffff1673ffffffffffffffffffffffffffffffffffffffff163373ffffffffffffffffffffffffffffffffffffffff1614611a00576040517f08c379a00000000000000000000000000000000000000000000000000000000081526004016119f7906144de565b60405180910390fd5b611a2c7f744a403c168d930e154f812d77dcac46fe0a5b2da4d12f3d6727267198b4cc2760001b612d3e565b611a587fdf78c09317c6a8950463a736cc0b2fbcbf18ee4a6b501118d0c835b0128982b860001b612d3e565b611a847fc7929b6f44e2616a64d474a0f8fdd4de91866993a2586973dcfe64e9b785b75860001b612d3e565b611ab07f6261ab6d2b7232632336a49255556ea152be0c6426c0d5428c4d13dd520ba0a860001b612d3e565b600254831115611af5576040517f08c379a0000000000000000000000000000000000000000000000000000000008152600401611aec9061449e565b60405180910390fd5b611b217f38fa1fe3c37de019bd266468e53a6c1c5558142d586e8775210ffae4f3dacb8460001b612d3e565b611b4d7f513dd71d25ee3b37df954fd585b36e4d6b4c4bc870c1e37bc91e7e7e5a3f4ffb60001b612d3e565b611b797f3b2300ff945c2b6a12653050f6e84b7ac2ba8628f782f5baaf2666703e7eeb2260001b612d3e565b600060016003600086815260200190815260200160002060010154611b9e919061464d565b9050611bcc7f20f51c416b9a9cfd0368f54b530c145174db84e67a41848a269f9668b3f0c0ad60001b612d3e565b611bf87f3aeeab8addcd3e60e2bc9de9b586ad86d9720c19afb53e075c408463fc6e2bd660001b612d3e565b611c247f6e43f8d0037fd6aad10ca0ed9c25d23cf8a3540b49e3476d37dc960099b0293260001b612d3e565b6003600085815260200190815260200160002060020154811115611c7d576040517f08c379a0000000000000000000000000000000000000000000000000000000008152600401611c749061441e565b60405180910390fd5b611ca97f3fde2b304bf98eeb32b5860944a3777d558a33dfb49ce537b2ef8907084b4e4660001b612d3e565b611cd57fd8ef95f1b40969a6b46386e0cd1a76688c514e2f66cde18e8d88726b081cbe1760001b612d3e565b611d017f320a73062f57580320488212a3ef5c4cf069f2108e1b86fa198c758f8b92995e60001b612d3e565b806003600086815260200190815260200160002060010181905550611d487f2096f7316c2fc3298b471083f2e3593395e6b8068596639506a06385439bd77160001b612d3e565b611d747fb5c6da5e232ee3e9ffbcdbef516b1b3661693d69ab5ae619568e7312fc0b174360001b612d3e565b8260036000868152602001908152602001600020600401600183611d9891906146d4565b81548110611dcf577f4e487b7100000000000000000000000000000000000000000000000000000000600052603260045260246000fd5b9060005260206000200181905550611e097ff828ae879820be38d7b5651db8f77205522947887c6f9e8f912a96655d1cb5f060001b612d3e565b611e357f26b5265b39a977a9a20b3a1e5df1319b72cd7bcbfc66f45a4be0592c3c18422760001b612d3e565b8173ffffffffffffffffffffffffffffffffffffffff166108fc60036000878152602001908152602001600020600201546003600088815260200190815260200160002060030154611e8791906146a3565b9081150290604051600060405180830381858888f19350505050158015611eb2573d6000803e3d6000fd5b50611edf7fd79ea959dc358a0897589f9293898b9b4d885cab9bf8f3568386386dcaba4ce560001b612d3e565b611f0b7f35010d5a11340c8aa38cbb2bda0b81d4504562f7261316df6404daf92ff3de0c60001b612d3e565b837fe1d58799a6d1cef7a4a5e546e03e11850ef52264511394d1a1f9d8ac73fc5e4c8442604051611f3d9291906143be565b60405180910390a250505050565b60088181548110611f5b57600080fd5b906000526020600020016000915054906101000a900473ffffffffffffffffffffffffffffffffffffffff1681565b50565b611fb97f332cd9ee8299b1338e37a59115697b21c6465137a328fb663fd35833237ec51260001b612d3e565b611fe57fd9fae4bf806fc1f49e40c5a106ec6b96eb7874d579976eefa1f47f55e6defca660001b612d3e565b6120117fff92682983311243261b5bf03ed80a709e6ee4890ee79eed48d3797e5aaea74260001b612d3e565b600760003373ffffffffffffffffffffffffffffffffffffffff1673ffffffffffffffffffffffffffffffffffffffff16815260200190815260200160002060008273ffffffffffffffffffffffffffffffffffffffff1673ffffffffffffffffffffffffffffffffffffffff16815260200190815260200160002060009054906101000a900460ff1615600760003373ffffffffffffffffffffffffffffffffffffffff1673ffffffffffffffffffffffffffffffffffffffff16815260200190815260200160002060008373ffffffffffffffffffffffffffffffffffffffff1673ffffffffffffffffffffffffffffffffffffffff16815260200190815260200160002060006101000a81548160ff02191690831515021790555061215b7f725c3b736548e2a70110790f6d814a53ee8f25df695cf23baaabfcc8048d6e9a60001b612d3e565b6121877f6498aac7b42a92d5c8750d6117d7f3fb3e5b6edb14fa8fe428e79f4699c49df960001b612d3e565b8073ffffffffffffffffffffffffffffffffffffffff163373ffffffffffffffffffffffffffffffffffffffff167fad77d1d38ed980518f1c26c8cd8fe0cc39ba4e9092e1b5f69f0bd23ff1de97fb600760003373ffffffffffffffffffffffffffffffffffffffff1673ffffffffffffffffffffffffffffffffffffffff16815260200190815260200160002060008573ffffffffffffffffffffffffffffffffffffffff1673ffffffffffffffffffffffffffffffffffffffff16815260200190815260200160002060009054906101000a900460ff1660405161226d9190614365565b60405180910390a350565b60025481565b600160149054906101000a900460ff1681565b60036020528060005260406000206000915090508060000154908060010154908060020154908060030154905084565b600460205281600052604060002081815481106122dd57600080fd5b90600052602060002001600091509150505481565b61231e7f25bceb0000ec0f6cc3ba12e9b960752052e976c2df5d788f37b5da7dac78f1ca60001b612d3e565b61234a7ff9242be87869c018f060c6845ef371801c93c15c947910455aa32940d28029b760001b612d3e565b6123767f37b9b08b863ad2d19ed93c126c21428097aae2aff6e33660bfe4599137ed24ef60001b612d3e565b6123a27f92fd2b57115e28088b39a9ffdf4f10212dc0201efa5e981462be29694deff2e160001b612d3e565b60001515600160149054906101000a900460ff161515146123f8576040517f08c379a00000000000000000000000000000000000000000000000000000000081526004016123ef906144be565b60405180910390fd5b6124247feffd08acf2af4addeb09c1c6be3280088a0c1a6b5ee25ca86204f2098bd39a3260001b612d3e565b6124507f10ed6cc5a42744d6773dba7086afe3d413c27bbddd280f23e4e549e0d052ca3a60001b612d3e565b61247c7f0caf3fd6f78b67dfe9f683d37ea261ab5f2731513b179cf5236409c1963d15f760001b612d3e565b6124a87f36f4ece00d0004594a9d05c3a8aceed9112599e565cf1fc64156a42317fcbb8b60001b612d3e565b6124d47f6407fae6f18701b7685927460f10e6ea1ebb1d86b80e45cd830622e200a86dac60001b612d3e565b6124dc613d22565b6125087f70366277dcf4c39c1cfc8624fed10a02b9d0f1c2f4c8d2b5aaf9835db25298cb60001b612d3e565b6125347ff3f39720a6066751524ca15dbe085ff30a7e527c30732a39a3253f57720a86a660001b612d3e565b6040518060a001604052806002548152602001600181526020018381526020013481526020018367ffffffffffffffff81111561259a577f4e487b7100000000000000000000000000000000000000000000000000000000600052604160045260246000fd5b6040519080825280602002602001820160405280156125c85781602001602082028036833780820191505090505b5081525090506125fa7fbb45acfef6a158cc3ac11cdcc23b528957089bc93f5520681ef28dd66147fe2560001b612d3e565b6126267f67480a047348cdf3c273e9873823ad1bf680c6fd7d9affacf724dec2601ba4fa60001b612d3e565b828160800151600081518110612665577f4e487b7100000000000000000000000000000000000000000000000000000000600052603260045260246000fd5b60200260200101818152505061269d7fab60b80a15530eef71354b3148762a49736b32c60ec2fc912283bbfbfc40916160001b612d3e565b6126c97fbd1e3fa90c9a049e049da57d42c3d325e46a52e8937001e908cfb7ae15e1049c60001b612d3e565b80600360006002548152602001908152602001600020600082015181600001556020820151816001015560408201518160020155606082015181600301556080820151816004019080519060200190612723929190613d51565b509050506127537f559377b329f04088b1f7d6435c0122fec35602daa797f728fa50914f9d303dc160001b612d3e565b61277f7f307b99cd90ca4dbba4544a280bab45bab27213618bd0d303d90f0adbf5f427c360001b612d3e565b600460003373ffffffffffffffffffffffffffffffffffffffff1673ffffffffffffffffffffffffffffffffffffffff16815260200190815260200160002060025490806001815401808255809150506001900390600052602060002001600090919091909150556128137f7baa32f7ac942769cc34efc031d7b92e8a94208030ba16d90f3736a4968503af60001b612d3e565b61283f7fc162ddd6514cd977674e90c79fd99a1365ac19088a5dc8d6a9bd72edce0deaa760001b612d3e565b600160025461284e919061464d565b6002819055506128807f23652d651088b08f5f5bcf185f61fe9ae59150c7fb41e970bb2e327fb2c0882160001b612d3e565b6128ac7fc9f985855fd93c7b16833cf6cf4d2434fc5769d6ea23799a47fd2d0b65f0a96760001b612d3e565b3373ffffffffffffffffffffffffffffffffffffffff1660016002546128d291906146d4565b7fc4dd427940f2b7acf9630ef20ca65879526cfc7a3869483461942027043545f7853442604051612905939291906143e7565b60405180910390a3505050565b61293e7f25bceb0000ec0f6cc3ba12e9b960752052e976c2df5d788f37b5da7dac78f1ca60001b612d3e565b61296a7ff9242be87869c018f060c6845ef371801c93c15c947910455aa32940d28029b760001b612d3e565b6129967f37b9b08b863ad2d19ed93c126c21428097aae2aff6e33660bfe4599137ed24ef60001b612d3e565b6129c27f92fd2b57115e28088b39a9ffdf4f10212dc0201efa5e981462be29694deff2e160001b612d3e565b60001515600160149054906101000a900460ff16151514612a18576040517f08c379a0000000000000000000000000000000000000000000000000000000008152600401612a0f906144be565b60405180910390fd5b612a447feffd08acf2af4addeb09c1c6be3280088a0c1a6b5ee25ca86204f2098bd39a3260001b612d3e565b612a707f10ed6cc5a42744d6773dba7086afe3d413c27bbddd280f23e4e549e0d052ca3a60001b612d3e565b612a9c7fc1cc2d053219e4d997ffd9e7952986053813fc8de79620f074df5c20c661257860001b612d3e565b612ac87f076fa70b34819bea51dde33224d5048dc202b54799ec22499b54baa6e720525960001b612d3e565b612af47ff4b67e29d88e0897aacfda6af315ee8ea48502eb43d84fb5b7843a12d4151ba060001b612d3e565b612b207f1da9c0e1849d26cdad44eb672d910e68dd139ca1e55dd51fc6e04f4db16278d660001b612d3e565b60011515600a60008373ffffffffffffffffffffffffffffffffffffffff1673ffffffffffffffffffffffffffffffffffffffff16815260200190815260200160002060009054906101000a900460ff16151514612bb3576040517f08c379a0000000000000000000000000000000000000000000000000000000008152600401612baa9061443e565b60405180910390fd5b612bdf7f15c66be2ae7a633a0cecb1c3b6f57d17f1988462fd6a277abe114e7592782ba960001b612d3e565b612c0b7fcad276b0c5467f2cbefe46140873d4ccffe3d2a3c2f31e12af6933ca747678b560001b612d3e565b612c377fa365b5edd6a0c09be4a4f12d0a40f6f2231b23c39761e07d2f0ed7506e800b6160001b612d3e565b8073ffffffffffffffffffffffffffffffffffffffff166108fc349081150290604051600060405180830381858888f19350505050158015612c7d573d6000803e3d6000fd5b50612caa7f7b16430157a0d0b3ee70879d1b2048f564b7fbcb56b628b48e3daa5010a623b260001b612d3e565b612cd67f7cebb1bc77b46ac247053adf510db93bfc4bf9011d4eaf81d3d92784402a97a360001b612d3e565b3373ffffffffffffffffffffffffffffffffffffffff168173ffffffffffffffffffffffffffffffffffffffff167f1d3ff44814877759fdcdec2bace42d6e7e7c1b84ca040ba5d3b4ef988ffd908e34604051612d33919061451e565b60405180910390a350565b50565b600160009054906101000a900473ffffffffffffffffffffffffffffffffffffffff1681565b612d937f73b87411d898756ce83276aacb6190ecdfa3966e4a1ba1ea683ed795bd9571ef60001b612d3e565b612dbf7f178660a7d420860aea6c31230b57e48b7f55e0a076a7b57b88ed031bf76aaa5d60001b612d3e565b612deb7fa363141c3b512e67d9766dac84344d61593d73da5fcf021c5797e16ccea2f99b60001b612d3e565b612e177f030c337f673faec957511e5619aa4893e60cf78b2515ce92cbb4efdabc62193560001b612d3e565b60008054906101000a900473ffffffffffffffffffffffffffffffffffffffff1673ffffffffffffffffffffffffffffffffffffffff163373ffffffffffffffffffffffffffffffffffffffff1614612ea5576040517f08c379a0000000000000000000000000000000000000000000000000000000008152600401612e9c906144fe565b60405180910390fd5b612ed17f1bbe933e241edd4d32b78fc1f6ba499a0fa961ad3775bbb88d1ce494ab0983a160001b612d3e565b612efd7f794a5946a0c20463025cc3f64580460c069e89c9dfcc9f7de95e87e08296140460001b612d3e565b612f297f0a68241e49d96ff49a50663ce6e3e834a3a3df95a58e7c07fbd042891da53f0660001b612d3e565b806000806101000a81548173ffffffffffffffffffffffffffffffffffffffff021916908373ffffffffffffffffffffffffffffffffffffffff16021790555050565b60008054906101000a900473ffffffffffffffffffffffffffffffffffffffff1681565b600a6020528060005260406000206000915054906101000a900460ff1681565b60095481565b612fe27f25bceb0000ec0f6cc3ba12e9b960752052e976c2df5d788f37b5da7dac78f1ca60001b612d3e565b61300e7ff9242be87869c018f060c6845ef371801c93c15c947910455aa32940d28029b760001b612d3e565b61303a7f37b9b08b863ad2d19ed93c126c21428097aae2aff6e33660bfe4599137ed24ef60001b612d3e565b6130667f92fd2b57115e28088b39a9ffdf4f10212dc0201efa5e981462be29694deff2e160001b612d3e565b60001515600160149054906101000a900460ff161515146130bc576040517f08c379a00000000000000000000000000000000000000000000000000000000081526004016130b3906144be565b60405180910390fd5b6130e87feffd08acf2af4addeb09c1c6be3280088a0c1a6b5ee25ca86204f2098bd39a3260001b612d3e565b6131147f10ed6cc5a42744d6773dba7086afe3d413c27bbddd280f23e4e549e0d052ca3a60001b612d3e565b6131407f823aec777c9dfd372a53b1b48c4b8d3f312f1c7ae2c6c657c9c67bf5a37213ab60001b612d3e565b61316c7fb8eadccf24dfa952f685f33d4319026b0a70cfaed37663bd7778dc261716204f60001b612d3e565b6131987f3fd4e04e5117b1aa53a49a86aef38bb26773aeaf400a8eca28c0799149132b2360001b612d3e565b60001515600a60003373ffffffffffffffffffffffffffffffffffffffff1673ffffffffffffffffffffffffffffffffffffffff16815260200190815260200160002060009054906101000a900460ff161515141561333f5761321d7f2d64f8f354ea36d19694283144b8d1e3805e80dada3e65bf487a7164371da45860001b612d3e565b6132497f12378c183e303754ba4b0f9047775d59a87c60b42466bd24312866827982671460001b612d3e565b6132757f25db13e3232fe2481d122944d5722014264404471f93dd95b2056b63841b8d4560001b612d3e565b6001600a60003373ffffffffffffffffffffffffffffffffffffffff1673ffffffffffffffffffffffffffffffffffffffff16815260200190815260200160002060006101000a81548160ff0219169083151502179055506132f97fd1531c1ae183378e4d023e80734569a014b68585e1c0520c16565cd23b2f8e6860001b612d3e565b6133257f8ec277065f04151ae832866d3810ba68ca30ce63e553b796398ef9abb5317ca060001b612d3e565b6001600954613334919061464d565b60098190555061336c565b61336b7f57995697c3dc42aef29a9162a9fac546a4cad49d96542e3cd7a5ac492d46021f60001b612d3e565b5b6133987f6482a7e79f0795bc9f7e9bbb5475a86e1e2d3fedf018b52e9e2396d1bc5c42b260001b612d3e565b6133c47ff426143e37ec373dbb2ae4193d7e30e3e2cf93c3ad1e06ace2105172f5d0b1c860001b612d3e565b3373ffffffffffffffffffffffffffffffffffffffff167f070ebb08109e8151dd49dec1ba08cec18082514f31659837d36c851b908860ce824260405161340c9291906143be565b60405180910390a250565b6134437f1b2e57ecb3cd0813c0e7d6e459060ae0c11ab3bf6ae80cc23371ea0fdfc33b6360001b612d3e565b61346f7fc6ec0ced80f4b9f82fbf7aa2d5163ee71dc18a4ddb85c93019cb323f82414d0f60001b612d3e565b61349b7f1c72cf469a5a60c4e25e631e0bb1665aecf7cc1491069910d71c1936c18028a860001b612d3e565b6134c77f91f522b4e31aca990a6edb08695af247245c3e925ba492e5cfc041cbb8aa49df60001b612d3e565b60008054906101000a900473ffffffffffffffffffffffffffffffffffffffff1673ffffffffffffffffffffffffffffffffffffffff163373ffffffffffffffffffffffffffffffffffffffff1614613555576040517f08c379a000000000000000000000000000000000000000000000000000000000815260040161354c906144fe565b60405180910390fd5b6135817fa8b693d17d9168516a02f18660b6d196eede195e846caf05dd82a339fe013eee60001b612d3e565b6135ad7f567ab75557d01c21e01e50acd79b71c696546da0e650a9237e498a629a920c1c60001b612d3e565b6135d97f8d7c08000814e20507348ac511d8d00b54cc406abe61accb2cf406953e86691e60001b612d3e565b600160149054906101000a900460ff1615600160146101000a81548160ff021916908315150217905550565b60066020528060005260406000206000915090505481565b600b5481565b60076020528160005260406000206020528060005260406000206000915091509054906101000a900460ff1681565b600d5481565b600f5481565b61368a7f25bceb0000ec0f6cc3ba12e9b960752052e976c2df5d788f37b5da7dac78f1ca60001b612d3e565b6136b67ff9242be87869c018f060c6845ef371801c93c15c947910455aa32940d28029b760001b612d3e565b6136e27f37b9b08b863ad2d19ed93c126c21428097aae2aff6e33660bfe4599137ed24ef60001b612d3e565b61370e7f92fd2b57115e28088b39a9ffdf4f10212dc0201efa5e981462be29694deff2e160001b612d3e565b60001515600160149054906101000a900460ff16151514613764576040517f08c379a000000000000000000000000000000000000000000000000000000000815260040161375b906144be565b60405180910390fd5b6137907feffd08acf2af4addeb09c1c6be3280088a0c1a6b5ee25ca86204f2098bd39a3260001b612d3e565b6137bc7f10ed6cc5a42744d6773dba7086afe3d413c27bbddd280f23e4e549e0d052ca3a60001b612d3e565b6137e87ff92df508b16961db40fa38d9008727a83ecfa34d5f0eb4002c74b32cc5f9c4d960001b612d3e565b6138147f9c0031c968a951f2f1b44cc354c1adc0012d66ae9f628802ed6dd4f777716d8160001b612d3e565b6138407ff3af68d72988d2634c52e1119f0f777cc5e9b3e161c03d949e6ce43a4819f24960001b612d3e565b61386c7f79483aa373fddeb61bf3ed88cd07e6afb3a11496ee1ec72208f3a5636c1637a860001b612d3e565b60008054906101000a900473ffffffffffffffffffffffffffffffffffffffff1673ffffffffffffffffffffffffffffffffffffffff163373ffffffffffffffffffffffffffffffffffffffff16146138fa576040517f08c379a00000000000000000000000000000000000000000000000000000000081526004016138f1906144fe565b60405180910390fd5b6139267f0f3f07ad673c228515afa61d3fe3a2a0c5455657f7eacf4715729317755c991a60001b612d3e565b6139527fb03f973de0257537846855f0fde881a067344258fcdc6d98ffc05e7d5b97f29960001b612d3e565b61397e7fceda98d3c715ebd634b21261585e952d9ac234bddd2e5054fb2dbe895af186f660001b612d3e565b600560008273ffffffffffffffffffffffffffffffffffffffff1673ffffffffffffffffffffffffffffffffffffffff16815260200190815260200160002060009054906101000a900460ff1615600560008373ffffffffffffffffffffffffffffffffffffffff1673ffffffffffffffffffffffffffffffffffffffff16815260200190815260200160002060006101000a81548160ff02191690831515021790555050565b600e6020528060005260406000206000915054906101000a900473ffffffffffffffffffffffffffffffffffffffff1681565b60056020528060005260406000206000915054906101000a900460ff1681565b613aa47f25bceb0000ec0f6cc3ba12e9b960752052e976c2df5d788f37b5da7dac78f1ca60001b612d3e565b613ad07ff9242be87869c018f060c6845ef371801c93c15c947910455aa32940d28029b760001b612d3e565b613afc7f37b9b08b863ad2d19ed93c126c21428097aae2aff6e33660bfe4599137ed24ef60001b612d3e565b613b287f92fd2b57115e28088b39a9ffdf4f10212dc0201efa5e981462be29694deff2e160001b612d3e565b60001515600160149054906101000a900460ff16151514613b7e576040517f08c379a0000000000000000000000000000000000000000000000000000000008152600401613b75906144be565b60405180910390fd5b613baa7feffd08acf2af4addeb09c1c6be3280088a0c1a6b5ee25ca86204f2098bd39a3260001b612d3e565b613bd67f10ed6cc5a42744d6773dba7086afe3d413c27bbddd280f23e4e549e0d052ca3a60001b612d3e565b613c027f71707749359c43111496f7ff3fa0ecbaaa43094b86276d5efb835ea1e34c168a60001b612d3e565b613c2e7f81c58cbb21b661bd3bf801ecc912b4152f3e006accc1c755f1adbaad67fec25160001b612d3e565b613c5a7fbb6f0fcd0394961b052216de9e2b8326cbc6f747a04881fd1f3ec572d86c16bb60001b612d3e565b823373ffffffffffffffffffffffffffffffffffffffff16600f547f3e1acfd5f2181de07799d35be451dbddfd093425b11baa4b85098d8f871e90a1858542604051613ca893929190614380565b60405180910390a4613cdc7f867a492174116cd63de825e10278c66179d71383530ab923ec5a1ddd7c28a97860001b612d3e565b613d087f224f301a2bbb6135da473d840e81984e45b6e054be3b4b1f0a237da34cb049d860001b612d3e565b6001600f54613d17919061464d565b600f81905550505050565b6040518060a0016040528060008152602001600081526020016000815260200160008152602001606081525090565b828054828255906000526020600020908101928215613d8d579160200282015b82811115613d8c578251825591602001919060010190613d71565b5b509050613d9a9190613d9e565b5090565b5b80821115613db7576000816000905550600101613d9f565b5090565b6000613dce613dc984614601565b6145d0565b905082815260208101848484011115613de657600080fd5b613df184828561476c565b509392505050565b600081359050613e088161484c565b92915050565b600081359050613e1d81614863565b92915050565b600081359050613e328161487a565b92915050565b600082601f830112613e4957600080fd5b8135613e59848260208601613dbb565b91505092915050565b600081359050613e7181614891565b92915050565b600060208284031215613e8957600080fd5b6000613e9784828501613df9565b91505092915050565b60008060408385031215613eb357600080fd5b6000613ec185828601613df9565b9250506020613ed285828601613df9565b9150509250929050565b60008060408385031215613eef57600080fd5b6000613efd85828601613df9565b9250506020613f0e85828601613e62565b9150509250929050565b600060208284031215613f2a57600080fd5b6000613f3884828501613e23565b91505092915050565b600080600060608486031215613f5657600080fd5b6000613f6486828701613e23565b9350506020613f7586828701613e23565b9250506040613f8686828701613e0e565b9150509250925092565b600080600060608486031215613fa557600080fd5b6000613fb386828701613e23565b9350506020613fc486828701613e23565b925050604084013567ffffffffffffffff811115613fe157600080fd5b613fed86828701613e38565b9150509250925092565b6000806040838503121561400a57600080fd5b600061401885828601613e23565b925050602061402985828601613e62565b9150509250929050565b60006020828403121561404557600080fd5b600061405384828501613e62565b91505092915050565b60008060006060848603121561407157600080fd5b600061407f86828701613e62565b935050602061409086828701613e23565b92505060406140a186828701613e0e565b9150509250925092565b6140b48161471a565b82525050565b6140c381614708565b82525050565b6140d28161472c565b82525050565b6140e181614738565b82525050565b60006140f282614631565b6140fc818561463c565b935061410c81856020860161477b565b6141158161483b565b840191505092915050565b600061412d60148361463c565b91507f416c6c20526f756e647320436f6d706c657465640000000000000000000000006000830152602082019050919050565b600061416d60178361463c565b91507f55736572206973206e6f742043616d706169676e696e670000000000000000006000830152602082019050919050565b60006141ad60168361463c565b91507f556e617574686f72697a656420486f7374706974616c000000000000000000006000830152602082019050919050565b60006141ed600f8361463c565b91507f496e76616c69642046756e6420494400000000000000000000000000000000006000830152602082019050919050565b600061422d600f8361463c565b91507f496e76616c6964205461736b20494400000000000000000000000000000000006000830152602082019050919050565b600061426d60128361463c565b91507f436f6e74726163742069732050617573656400000000000000000000000000006000830152602082019050919050565b60006142ad601d8361463c565b91507f596f7520617265206e6f742074686520636f6f7264696e61746f7220210000006000830152602082019050919050565b60006142ed600a8361463c565b91507f4f6e6c79204f776e6572000000000000000000000000000000000000000000006000830152602082019050919050565b61432981614762565b82525050565b600060208201905061434460008301846140ba565b92915050565b600060208201905061435f60008301846140ab565b92915050565b600060208201905061437a60008301846140c9565b92915050565b600060608201905061439560008301866140d8565b81810360208301526143a781856140e7565b90506143b66040830184614320565b949350505050565b60006040820190506143d360008301856140d8565b6143e06020830184614320565b9392505050565b60006060820190506143fc60008301866140d8565b6144096020830185614320565b6144166040830184614320565b949350505050565b6000602082019050818103600083015261443781614120565b9050919050565b6000602082019050818103600083015261445781614160565b9050919050565b60006020820190508181036000830152614477816141a0565b9050919050565b60006020820190508181036000830152614497816141e0565b9050919050565b600060208201905081810360008301526144b781614220565b9050919050565b600060208201905081810360008301526144d781614260565b9050919050565b600060208201905081810360008301526144f7816142a0565b9050919050565b60006020820190508181036000830152614517816142e0565b9050919050565b60006020820190506145336000830184614320565b92915050565b600060408201905061454e6000830185614320565b61455b60208301846140d8565b9392505050565b60006040820190506145776000830185614320565b6145846020830184614320565b9392505050565b60006080820190506145a06000830187614320565b6145ad6020830186614320565b6145ba6040830185614320565b6145c76060830184614320565b95945050505050565b6000604051905081810181811067ffffffffffffffff821117156145f7576145f661480c565b5b8060405250919050565b600067ffffffffffffffff82111561461c5761461b61480c565b5b601f19601f8301169050602081019050919050565b600081519050919050565b600082825260208201905092915050565b600061465882614762565b915061466383614762565b9250827fffffffffffffffffffffffffffffffffffffffffffffffffffffffffffffffff03821115614698576146976147ae565b5b828201905092915050565b60006146ae82614762565b91506146b983614762565b9250826146c9576146c86147dd565b5b828204905092915050565b60006146df82614762565b91506146ea83614762565b9250828210156146fd576146fc6147ae565b5b828203905092915050565b600061471382614742565b9050919050565b600061472582614742565b9050919050565b60008115159050919050565b6000819050919050565b600073ffffffffffffffffffffffffffffffffffffffff82169050919050565b6000819050919050565b82818337600083830152505050565b60005b8381101561479957808201518184015260208101905061477e565b838111156147a8576000848401525b50505050565b7f4e487b7100000000000000000000000000000000000000000000000000000000600052601160045260246000fd5b7f4e487b7100000000000000000000000000000000000000000000000000000000600052601260045260246000fd5b7f4e487b7100000000000000000000000000000000000000000000000000000000600052604160045260246000fd5b6000601f19601f8301169050919050565b61485581614708565b811461486057600080fd5b50565b61486c8161471a565b811461487757600080fd5b50565b61488381614738565b811461488e57600080fd5b50565b61489a81614762565b81146148a557600080fd5b5056fea2646970667358221220a29771909b8387d1593cb551f5fe143171e3aace7081c6690dfb20497f4d5c1264736f6c63430008000033",
          "opcodes": "PUSH1 0x80 PUSH1 0x40 MSTORE PUSH1 0x0 PUSH1 0x1 PUSH1 0x14 PUSH2 0x100 EXP DUP2 SLOAD DUP2 PUSH1 0xFF MUL NOT AND SWAP1 DUP4 ISZERO ISZERO MUL OR SWAP1 SSTORE POP PUSH1 0x1 PUSH1 0x2 SSTORE PUSH1 0x0 PUSH1 0x9 SSTORE PUSH1 0x0 PUSH1 0xB SSTORE PUSH1 0x0 PUSH1 0xC SSTORE PUSH1 0x0 PUSH1 0xD SSTORE PUSH1 0x0 PUSH1 0xF SSTORE CALLVALUE DUP1 ISZERO PUSH3 0x4A JUMPI PUSH1 0x0 DUP1 REVERT JUMPDEST POP PUSH3 0x7F PUSH32 0xC86984B1B8E53E66211A0270B422598DE79395A2562FF38539B354C52FB6F04D PUSH1 0x0 SHL PUSH3 0x1D6 PUSH1 0x20 SHL PUSH1 0x20 SHR JUMP JUMPDEST PUSH3 0xB3 PUSH32 0x6D4E710FB0C9A29521BF53FD3CEBE477C04DFA07DFF73D9508A0FA56AA1926CB PUSH1 0x0 SHL PUSH3 0x1D6 PUSH1 0x20 SHL PUSH1 0x20 SHR JUMP JUMPDEST PUSH3 0xE7 PUSH32 0x31B985BE2FBDFCB0A735912088758A5BFCDE7204DF761DF6613283C9BCB92A1E PUSH1 0x0 SHL PUSH3 0x1D6 PUSH1 0x20 SHL PUSH1 0x20 SHR JUMP JUMPDEST CALLER PUSH1 0x0 DUP1 PUSH2 0x100 EXP DUP2 SLOAD DUP2 PUSH20 0xFFFFFFFFFFFFFFFFFFFFFFFFFFFFFFFFFFFFFFFF MUL NOT AND SWAP1 DUP4 PUSH20 0xFFFFFFFFFFFFFFFFFFFFFFFFFFFFFFFFFFFFFFFF AND MUL OR SWAP1 SSTORE POP PUSH3 0x15B PUSH32 0x7BE5C16D25C389DAC3243D1D694854DC5C150FF361EA2C5EF79971F492406E0C PUSH1 0x0 SHL PUSH3 0x1D6 PUSH1 0x20 SHL PUSH1 0x20 SHR JUMP JUMPDEST PUSH3 0x18F PUSH32 0x170125157263EB0F540FFB8F373261CFF912C45D3A05F39CB75931E22550863E PUSH1 0x0 SHL PUSH3 0x1D6 PUSH1 0x20 SHL PUSH1 0x20 SHR JUMP JUMPDEST CALLER PUSH1 0x1 PUSH1 0x0 PUSH2 0x100 EXP DUP2 SLOAD DUP2 PUSH20 0xFFFFFFFFFFFFFFFFFFFFFFFFFFFFFFFFFFFFFFFF MUL NOT AND SWAP1 DUP4 PUSH20 0xFFFFFFFFFFFFFFFFFFFFFFFFFFFFFFFFFFFFFFFF AND MUL OR SWAP1 SSTORE POP PUSH3 0x1D9 JUMP JUMPDEST POP JUMP JUMPDEST PUSH2 0x48DE DUP1 PUSH3 0x1E9 PUSH1 0x0 CODECOPY PUSH1 0x0 RETURN INVALID PUSH1 0x80 PUSH1 0x40 MSTORE PUSH1 0x4 CALLDATASIZE LT PUSH2 0x1E3 JUMPI PUSH1 0x0 CALLDATALOAD PUSH1 0xE0 SHR DUP1 PUSH4 0x82003B31 GT PUSH2 0x102 JUMPI DUP1 PUSH4 0xCD5E5483 GT PUSH2 0x95 JUMPI DUP1 PUSH4 0xEC270353 GT PUSH2 0x64 JUMPI DUP1 PUSH4 0xEC270353 EQ PUSH2 0x6A6 JUMPI DUP1 PUSH4 0xEEE9B99E EQ PUSH2 0x6CF JUMPI DUP1 PUSH4 0xF093CF80 EQ PUSH2 0x70C JUMPI DUP1 PUSH4 0xF1FCC8E9 EQ PUSH2 0x749 JUMPI PUSH2 0x1E3 JUMP JUMPDEST DUP1 PUSH4 0xCD5E5483 EQ PUSH2 0x5E8 JUMPI DUP1 PUSH4 0xE1270B6E EQ PUSH2 0x613 JUMPI DUP1 PUSH4 0xE1C7DBE3 EQ PUSH2 0x650 JUMPI DUP1 PUSH4 0xE3F2D24F EQ PUSH2 0x67B JUMPI PUSH2 0x1E3 JUMP JUMPDEST DUP1 PUSH4 0xB063795C GT PUSH2 0xD1 JUMPI DUP1 PUSH4 0xB063795C EQ PUSH2 0x540 JUMPI DUP1 PUSH4 0xC06A260D EQ PUSH2 0x56B JUMPI DUP1 PUSH4 0xC4AE3168 EQ PUSH2 0x594 JUMPI DUP1 PUSH4 0xC4D8FEA7 EQ PUSH2 0x5AB JUMPI PUSH2 0x1E3 JUMP JUMPDEST DUP1 PUSH4 0x82003B31 EQ PUSH2 0x484 JUMPI DUP1 PUSH4 0x880CDC31 EQ PUSH2 0x4AF JUMPI DUP1 PUSH4 0x8DA5CB5B EQ PUSH2 0x4D8 JUMPI DUP1 PUSH4 0x9FF60711 EQ PUSH2 0x503 JUMPI PUSH2 0x1E3 JUMP JUMPDEST DUP1 PUSH4 0x4E1DD1A4 GT PUSH2 0x17A JUMPI DUP1 PUSH4 0x6946C5E9 GT PUSH2 0x149 JUMPI DUP1 PUSH4 0x6946C5E9 EQ PUSH2 0x3E6 JUMPI DUP1 PUSH4 0x6FBB5F62 EQ PUSH2 0x423 JUMPI DUP1 PUSH4 0x7C6ABC82 EQ PUSH2 0x43F JUMPI DUP1 PUSH4 0x7D4F6E7E EQ PUSH2 0x45B JUMPI PUSH2 0x1E3 JUMP JUMPDEST DUP1 PUSH4 0x4E1DD1A4 EQ PUSH2 0x327 JUMPI DUP1 PUSH4 0x5AF09FE2 EQ PUSH2 0x350 JUMPI DUP1 PUSH4 0x5C975ABB EQ PUSH2 0x37B JUMPI DUP1 PUSH4 0x6092A502 EQ PUSH2 0x3A6 JUMPI PUSH2 0x1E3 JUMP JUMPDEST DUP1 PUSH4 0x17849646 GT PUSH2 0x1B6 JUMPI DUP1 PUSH4 0x17849646 EQ PUSH2 0x26D JUMPI DUP1 PUSH4 0x22AF0C0B EQ PUSH2 0x298 JUMPI DUP1 PUSH4 0x4013BE10 EQ PUSH2 0x2C1 JUMPI DUP1 PUSH4 0x483D6752 EQ PUSH2 0x2FE JUMPI PUSH2 0x1E3 JUMP JUMPDEST DUP1 PUSH4 0x22DECD9 EQ PUSH2 0x1E8 JUMPI DUP1 PUSH4 0xD3BB50F EQ PUSH2 0x211 JUMPI DUP1 PUSH4 0x11CD13AC EQ PUSH2 0x23A JUMPI DUP1 PUSH4 0x16F1BC22 EQ PUSH2 0x256 JUMPI JUMPDEST PUSH1 0x0 DUP1 REVERT JUMPDEST CALLVALUE DUP1 ISZERO PUSH2 0x1F4 JUMPI PUSH1 0x0 DUP1 REVERT JUMPDEST POP PUSH2 0x20F PUSH1 0x4 DUP1 CALLDATASIZE SUB DUP2 ADD SWAP1 PUSH2 0x20A SWAP2 SWAP1 PUSH2 0x3EDC JUMP JUMPDEST PUSH2 0x772 JUMP JUMPDEST STOP JUMPDEST CALLVALUE DUP1 ISZERO PUSH2 0x21D JUMPI PUSH1 0x0 DUP1 REVERT JUMPDEST POP PUSH2 0x238 PUSH1 0x4 DUP1 CALLDATASIZE SUB DUP2 ADD SWAP1 PUSH2 0x233 SWAP2 SWAP1 PUSH2 0x3F41 JUMP JUMPDEST PUSH2 0xB29 JUMP JUMPDEST STOP JUMPDEST PUSH2 0x254 PUSH1 0x4 DUP1 CALLDATASIZE SUB DUP2 ADD SWAP1 PUSH2 0x24F SWAP2 SWAP1 PUSH2 0x4033 JUMP JUMPDEST PUSH2 0xEBF JUMP JUMPDEST STOP JUMPDEST CALLVALUE DUP1 ISZERO PUSH2 0x262 JUMPI PUSH1 0x0 DUP1 REVERT JUMPDEST POP PUSH2 0x26B PUSH2 0x13DD JUMP JUMPDEST STOP JUMPDEST CALLVALUE DUP1 ISZERO PUSH2 0x279 JUMPI PUSH1 0x0 DUP1 REVERT JUMPDEST POP PUSH2 0x282 PUSH2 0x175C JUMP JUMPDEST PUSH1 0x40 MLOAD PUSH2 0x28F SWAP2 SWAP1 PUSH2 0x451E JUMP JUMPDEST PUSH1 0x40 MLOAD DUP1 SWAP2 SUB SWAP1 RETURN JUMPDEST CALLVALUE DUP1 ISZERO PUSH2 0x2A4 JUMPI PUSH1 0x0 DUP1 REVERT JUMPDEST POP PUSH2 0x2BF PUSH1 0x4 DUP1 CALLDATASIZE SUB DUP2 ADD SWAP1 PUSH2 0x2BA SWAP2 SWAP1 PUSH2 0x405C JUMP JUMPDEST PUSH2 0x1762 JUMP JUMPDEST STOP JUMPDEST CALLVALUE DUP1 ISZERO PUSH2 0x2CD JUMPI PUSH1 0x0 DUP1 REVERT JUMPDEST POP PUSH2 0x2E8 PUSH1 0x4 DUP1 CALLDATASIZE SUB DUP2 ADD SWAP1 PUSH2 0x2E3 SWAP2 SWAP1 PUSH2 0x4033 JUMP JUMPDEST PUSH2 0x1F4B JUMP JUMPDEST PUSH1 0x40 MLOAD PUSH2 0x2F5 SWAP2 SWAP1 PUSH2 0x432F JUMP JUMPDEST PUSH1 0x40 MLOAD DUP1 SWAP2 SUB SWAP1 RETURN JUMPDEST CALLVALUE DUP1 ISZERO PUSH2 0x30A JUMPI PUSH1 0x0 DUP1 REVERT JUMPDEST POP PUSH2 0x325 PUSH1 0x4 DUP1 CALLDATASIZE SUB DUP2 ADD SWAP1 PUSH2 0x320 SWAP2 SWAP1 PUSH2 0x3F18 JUMP JUMPDEST PUSH2 0x1F8A JUMP JUMPDEST STOP JUMPDEST CALLVALUE DUP1 ISZERO PUSH2 0x333 JUMPI PUSH1 0x0 DUP1 REVERT JUMPDEST POP PUSH2 0x34E PUSH1 0x4 DUP1 CALLDATASIZE SUB DUP2 ADD SWAP1 PUSH2 0x349 SWAP2 SWAP1 PUSH2 0x3E77 JUMP JUMPDEST PUSH2 0x1F8D JUMP JUMPDEST STOP JUMPDEST CALLVALUE DUP1 ISZERO PUSH2 0x35C JUMPI PUSH1 0x0 DUP1 REVERT JUMPDEST POP PUSH2 0x365 PUSH2 0x2278 JUMP JUMPDEST PUSH1 0x40 MLOAD PUSH2 0x372 SWAP2 SWAP1 PUSH2 0x451E JUMP JUMPDEST PUSH1 0x40 MLOAD DUP1 SWAP2 SUB SWAP1 RETURN JUMPDEST CALLVALUE DUP1 ISZERO PUSH2 0x387 JUMPI PUSH1 0x0 DUP1 REVERT JUMPDEST POP PUSH2 0x390 PUSH2 0x227E JUMP JUMPDEST PUSH1 0x40 MLOAD PUSH2 0x39D SWAP2 SWAP1 PUSH2 0x4365 JUMP JUMPDEST PUSH1 0x40 MLOAD DUP1 SWAP2 SUB SWAP1 RETURN JUMPDEST CALLVALUE DUP1 ISZERO PUSH2 0x3B2 JUMPI PUSH1 0x0 DUP1 REVERT JUMPDEST POP PUSH2 0x3CD PUSH1 0x4 DUP1 CALLDATASIZE SUB DUP2 ADD SWAP1 PUSH2 0x3C8 SWAP2 SWAP1 PUSH2 0x4033 JUMP JUMPDEST PUSH2 0x2291 JUMP JUMPDEST PUSH1 0x40 MLOAD PUSH2 0x3DD SWAP5 SWAP4 SWAP3 SWAP2 SWAP1 PUSH2 0x458B JUMP JUMPDEST PUSH1 0x40 MLOAD DUP1 SWAP2 SUB SWAP1 RETURN JUMPDEST CALLVALUE DUP1 ISZERO PUSH2 0x3F2 JUMPI PUSH1 0x0 DUP1 REVERT JUMPDEST POP PUSH2 0x40D PUSH1 0x4 DUP1 CALLDATASIZE SUB DUP2 ADD SWAP1 PUSH2 0x408 SWAP2 SWAP1 PUSH2 0x3EDC JUMP JUMPDEST PUSH2 0x22C1 JUMP JUMPDEST PUSH1 0x40 MLOAD PUSH2 0x41A SWAP2 SWAP1 PUSH2 0x451E JUMP JUMPDEST PUSH1 0x40 MLOAD DUP1 SWAP2 SUB SWAP1 RETURN JUMPDEST PUSH2 0x43D PUSH1 0x4 DUP1 CALLDATASIZE SUB DUP2 ADD SWAP1 PUSH2 0x438 SWAP2 SWAP1 PUSH2 0x3FF7 JUMP JUMPDEST PUSH2 0x22F2 JUMP JUMPDEST STOP JUMPDEST PUSH2 0x459 PUSH1 0x4 DUP1 CALLDATASIZE SUB DUP2 ADD SWAP1 PUSH2 0x454 SWAP2 SWAP1 PUSH2 0x3E77 JUMP JUMPDEST PUSH2 0x2912 JUMP JUMPDEST STOP JUMPDEST CALLVALUE DUP1 ISZERO PUSH2 0x467 JUMPI PUSH1 0x0 DUP1 REVERT JUMPDEST POP PUSH2 0x482 PUSH1 0x4 DUP1 CALLDATASIZE SUB DUP2 ADD SWAP1 PUSH2 0x47D SWAP2 SWAP1 PUSH2 0x3F18 JUMP JUMPDEST PUSH2 0x2D3E JUMP JUMPDEST STOP JUMPDEST CALLVALUE DUP1 ISZERO PUSH2 0x490 JUMPI PUSH1 0x0 DUP1 REVERT JUMPDEST POP PUSH2 0x499 PUSH2 0x2D41 JUMP JUMPDEST PUSH1 0x40 MLOAD PUSH2 0x4A6 SWAP2 SWAP1 PUSH2 0x432F JUMP JUMPDEST PUSH1 0x40 MLOAD DUP1 SWAP2 SUB SWAP1 RETURN JUMPDEST CALLVALUE DUP1 ISZERO PUSH2 0x4BB JUMPI PUSH1 0x0 DUP1 REVERT JUMPDEST POP PUSH2 0x4D6 PUSH1 0x4 DUP1 CALLDATASIZE SUB DUP2 ADD SWAP1 PUSH2 0x4D1 SWAP2 SWAP1 PUSH2 0x3E77 JUMP JUMPDEST PUSH2 0x2D67 JUMP JUMPDEST STOP JUMPDEST CALLVALUE DUP1 ISZERO PUSH2 0x4E4 JUMPI PUSH1 0x0 DUP1 REVERT JUMPDEST POP PUSH2 0x4ED PUSH2 0x2F6C JUMP JUMPDEST PUSH1 0x40 MLOAD PUSH2 0x4FA SWAP2 SWAP1 PUSH2 0x432F JUMP JUMPDEST PUSH1 0x40 MLOAD DUP1 SWAP2 SUB SWAP1 RETURN JUMPDEST CALLVALUE DUP1 ISZERO PUSH2 0x50F JUMPI PUSH1 0x0 DUP1 REVERT JUMPDEST POP PUSH2 0x52A PUSH1 0x4 DUP1 CALLDATASIZE SUB DUP2 ADD SWAP1 PUSH2 0x525 SWAP2 SWAP1 PUSH2 0x3E77 JUMP JUMPDEST PUSH2 0x2F90 JUMP JUMPDEST PUSH1 0x40 MLOAD PUSH2 0x537 SWAP2 SWAP1 PUSH2 0x4365 JUMP JUMPDEST PUSH1 0x40 MLOAD DUP1 SWAP2 SUB SWAP1 RETURN JUMPDEST CALLVALUE DUP1 ISZERO PUSH2 0x54C JUMPI PUSH1 0x0 DUP1 REVERT JUMPDEST POP PUSH2 0x555 PUSH2 0x2FB0 JUMP JUMPDEST PUSH1 0x40 MLOAD PUSH2 0x562 SWAP2 SWAP1 PUSH2 0x451E JUMP JUMPDEST PUSH1 0x40 MLOAD DUP1 SWAP2 SUB SWAP1 RETURN JUMPDEST CALLVALUE DUP1 ISZERO PUSH2 0x577 JUMPI PUSH1 0x0 DUP1 REVERT JUMPDEST POP PUSH2 0x592 PUSH1 0x4 DUP1 CALLDATASIZE SUB DUP2 ADD SWAP1 PUSH2 0x58D SWAP2 SWAP1 PUSH2 0x3F18 JUMP JUMPDEST PUSH2 0x2FB6 JUMP JUMPDEST STOP JUMPDEST CALLVALUE DUP1 ISZERO PUSH2 0x5A0 JUMPI PUSH1 0x0 DUP1 REVERT JUMPDEST POP PUSH2 0x5A9 PUSH2 0x3417 JUMP JUMPDEST STOP JUMPDEST CALLVALUE DUP1 ISZERO PUSH2 0x5B7 JUMPI PUSH1 0x0 DUP1 REVERT JUMPDEST POP PUSH2 0x5D2 PUSH1 0x4 DUP1 CALLDATASIZE SUB DUP2 ADD SWAP1 PUSH2 0x5CD SWAP2 SWAP1 PUSH2 0x3E77 JUMP JUMPDEST PUSH2 0x3605 JUMP JUMPDEST PUSH1 0x40 MLOAD PUSH2 0x5DF SWAP2 SWAP1 PUSH2 0x451E JUMP JUMPDEST PUSH1 0x40 MLOAD DUP1 SWAP2 SUB SWAP1 RETURN JUMPDEST CALLVALUE DUP1 ISZERO PUSH2 0x5F4 JUMPI PUSH1 0x0 DUP1 REVERT JUMPDEST POP PUSH2 0x5FD PUSH2 0x361D JUMP JUMPDEST PUSH1 0x40 MLOAD PUSH2 0x60A SWAP2 SWAP1 PUSH2 0x451E JUMP JUMPDEST PUSH1 0x40 MLOAD DUP1 SWAP2 SUB SWAP1 RETURN JUMPDEST CALLVALUE DUP1 ISZERO PUSH2 0x61F JUMPI PUSH1 0x0 DUP1 REVERT JUMPDEST POP PUSH2 0x63A PUSH1 0x4 DUP1 CALLDATASIZE SUB DUP2 ADD SWAP1 PUSH2 0x635 SWAP2 SWAP1 PUSH2 0x3EA0 JUMP JUMPDEST PUSH2 0x3623 JUMP JUMPDEST PUSH1 0x40 MLOAD PUSH2 0x647 SWAP2 SWAP1 PUSH2 0x4365 JUMP JUMPDEST PUSH1 0x40 MLOAD DUP1 SWAP2 SUB SWAP1 RETURN JUMPDEST CALLVALUE DUP1 ISZERO PUSH2 0x65C JUMPI PUSH1 0x0 DUP1 REVERT JUMPDEST POP PUSH2 0x665 PUSH2 0x3652 JUMP JUMPDEST PUSH1 0x40 MLOAD PUSH2 0x672 SWAP2 SWAP1 PUSH2 0x451E JUMP JUMPDEST PUSH1 0x40 MLOAD DUP1 SWAP2 SUB SWAP1 RETURN JUMPDEST CALLVALUE DUP1 ISZERO PUSH2 0x687 JUMPI PUSH1 0x0 DUP1 REVERT JUMPDEST POP PUSH2 0x690 PUSH2 0x3658 JUMP JUMPDEST PUSH1 0x40 MLOAD PUSH2 0x69D SWAP2 SWAP1 PUSH2 0x451E JUMP JUMPDEST PUSH1 0x40 MLOAD DUP1 SWAP2 SUB SWAP1 RETURN JUMPDEST CALLVALUE DUP1 ISZERO PUSH2 0x6B2 JUMPI PUSH1 0x0 DUP1 REVERT JUMPDEST POP PUSH2 0x6CD PUSH1 0x4 DUP1 CALLDATASIZE SUB DUP2 ADD SWAP1 PUSH2 0x6C8 SWAP2 SWAP1 PUSH2 0x3E77 JUMP JUMPDEST PUSH2 0x365E JUMP JUMPDEST STOP JUMPDEST CALLVALUE DUP1 ISZERO PUSH2 0x6DB JUMPI PUSH1 0x0 DUP1 REVERT JUMPDEST POP PUSH2 0x6F6 PUSH1 0x4 DUP1 CALLDATASIZE SUB DUP2 ADD SWAP1 PUSH2 0x6F1 SWAP2 SWAP1 PUSH2 0x4033 JUMP JUMPDEST PUSH2 0x3A25 JUMP JUMPDEST PUSH1 0x40 MLOAD PUSH2 0x703 SWAP2 SWAP1 PUSH2 0x434A JUMP JUMPDEST PUSH1 0x40 MLOAD DUP1 SWAP2 SUB SWAP1 RETURN JUMPDEST CALLVALUE DUP1 ISZERO PUSH2 0x718 JUMPI PUSH1 0x0 DUP1 REVERT JUMPDEST POP PUSH2 0x733 PUSH1 0x4 DUP1 CALLDATASIZE SUB DUP2 ADD SWAP1 PUSH2 0x72E SWAP2 SWAP1 PUSH2 0x3E77 JUMP JUMPDEST PUSH2 0x3A58 JUMP JUMPDEST PUSH1 0x40 MLOAD PUSH2 0x740 SWAP2 SWAP1 PUSH2 0x4365 JUMP JUMPDEST PUSH1 0x40 MLOAD DUP1 SWAP2 SUB SWAP1 RETURN JUMPDEST CALLVALUE DUP1 ISZERO PUSH2 0x755 JUMPI PUSH1 0x0 DUP1 REVERT JUMPDEST POP PUSH2 0x770 PUSH1 0x4 DUP1 CALLDATASIZE SUB DUP2 ADD SWAP1 PUSH2 0x76B SWAP2 SWAP1 PUSH2 0x3F90 JUMP JUMPDEST PUSH2 0x3A78 JUMP JUMPDEST STOP JUMPDEST PUSH2 0x79E PUSH32 0x25BCEB0000EC0F6CC3BA12E9B960752052E976C2DF5D788F37B5DA7DAC78F1CA PUSH1 0x0 SHL PUSH2 0x2D3E JUMP JUMPDEST PUSH2 0x7CA PUSH32 0xF9242BE87869C018F060C6845EF371801C93C15C947910455AA32940D28029B7 PUSH1 0x0 SHL PUSH2 0x2D3E JUMP JUMPDEST PUSH2 0x7F6 PUSH32 0x37B9B08B863AD2D19ED93C126C21428097AAE2AFF6E33660BFE4599137ED24EF PUSH1 0x0 SHL PUSH2 0x2D3E JUMP JUMPDEST PUSH2 0x822 PUSH32 0x92FD2B57115E28088B39A9FFDF4F10212DC0201EFA5E981462BE29694DEFF2E1 PUSH1 0x0 SHL PUSH2 0x2D3E JUMP JUMPDEST PUSH1 0x0 ISZERO ISZERO PUSH1 0x1 PUSH1 0x14 SWAP1 SLOAD SWAP1 PUSH2 0x100 EXP SWAP1 DIV PUSH1 0xFF AND ISZERO ISZERO EQ PUSH2 0x878 JUMPI PUSH1 0x40 MLOAD PUSH32 0x8C379A000000000000000000000000000000000000000000000000000000000 DUP2 MSTORE PUSH1 0x4 ADD PUSH2 0x86F SWAP1 PUSH2 0x44BE JUMP JUMPDEST PUSH1 0x40 MLOAD DUP1 SWAP2 SUB SWAP1 REVERT JUMPDEST PUSH2 0x8A4 PUSH32 0xEFFD08ACF2AF4ADDEB09C1C6BE3280088A0C1A6B5EE25CA86204F2098BD39A32 PUSH1 0x0 SHL PUSH2 0x2D3E JUMP JUMPDEST PUSH2 0x8D0 PUSH32 0x10ED6CC5A42744D6773DBA7086AFE3D413C27BBDDD280F23E4E549E0D052CA3A PUSH1 0x0 SHL PUSH2 0x2D3E JUMP JUMPDEST PUSH2 0x8FC PUSH32 0x550E4A70F803A1D82127ADC256D13B57A27FF8B5FDCF74EB0BF75491FDA78A9E PUSH1 0x0 SHL PUSH2 0x2D3E JUMP JUMPDEST PUSH2 0x928 PUSH32 0x707297EFD293AE437C226E9E10A6CA218CE96ED63AE651EA923335B7FFF81FCC PUSH1 0x0 SHL PUSH2 0x2D3E JUMP JUMPDEST PUSH2 0x954 PUSH32 0xEEAABE8ABD0A9D7083C814BB25326DD07A38E5C31A315DB50F0102DCCFE47DE6 PUSH1 0x0 SHL PUSH2 0x2D3E JUMP JUMPDEST PUSH2 0x980 PUSH32 0x117062EF6DBDAF620C39FD9BB29C2171E1EC93F178DC56B69959B75F666408FA PUSH1 0x0 SHL PUSH2 0x2D3E JUMP JUMPDEST PUSH1 0x1 ISZERO ISZERO PUSH1 0x5 PUSH1 0x0 CALLER PUSH20 0xFFFFFFFFFFFFFFFFFFFFFFFFFFFFFFFFFFFFFFFF AND PUSH20 0xFFFFFFFFFFFFFFFFFFFFFFFFFFFFFFFFFFFFFFFF AND DUP2 MSTORE PUSH1 0x20 ADD SWAP1 DUP2 MSTORE PUSH1 0x20 ADD PUSH1 0x0 KECCAK256 PUSH1 0x0 SWAP1 SLOAD SWAP1 PUSH2 0x100 EXP SWAP1 DIV PUSH1 0xFF AND ISZERO ISZERO EQ PUSH2 0xA13 JUMPI PUSH1 0x40 MLOAD PUSH32 0x8C379A000000000000000000000000000000000000000000000000000000000 DUP2 MSTORE PUSH1 0x4 ADD PUSH2 0xA0A SWAP1 PUSH2 0x445E JUMP JUMPDEST PUSH1 0x40 MLOAD DUP1 SWAP2 SUB SWAP1 REVERT JUMPDEST PUSH2 0xA3F PUSH32 0x1460DEADAAA29254F08C399C6EAC0123B1F915E3622DD53640A08A7C9FCFB802 PUSH1 0x0 SHL PUSH2 0x2D3E JUMP JUMPDEST PUSH2 0xA6B PUSH32 0x7DE6A78122C6579DA8DE5A50608B24FF2600CCC9EB0736F0EC0D66FF6FDFA4DA PUSH1 0x0 SHL PUSH2 0x2D3E JUMP JUMPDEST PUSH2 0xA97 PUSH32 0xD6AC3D63C8DD93B46D07E2C8832A9EDEFDEFB40F1AD9FBDCDFB43EC75006EA68 PUSH1 0x0 SHL PUSH2 0x2D3E JUMP JUMPDEST DUP1 PUSH1 0x6 PUSH1 0x0 DUP5 PUSH20 0xFFFFFFFFFFFFFFFFFFFFFFFFFFFFFFFFFFFFFFFF AND PUSH20 0xFFFFFFFFFFFFFFFFFFFFFFFFFFFFFFFFFFFFFFFF AND DUP2 MSTORE PUSH1 0x20 ADD SWAP1 DUP2 MSTORE PUSH1 0x20 ADD PUSH1 0x0 KECCAK256 SLOAD PUSH2 0xAE2 SWAP2 SWAP1 PUSH2 0x464D JUMP JUMPDEST PUSH1 0x6 PUSH1 0x0 DUP5 PUSH20 0xFFFFFFFFFFFFFFFFFFFFFFFFFFFFFFFFFFFFFFFF AND PUSH20 0xFFFFFFFFFFFFFFFFFFFFFFFFFFFFFFFFFFFFFFFF AND DUP2 MSTORE PUSH1 0x20 ADD SWAP1 DUP2 MSTORE PUSH1 0x20 ADD PUSH1 0x0 KECCAK256 DUP2 SWAP1 SSTORE POP POP POP JUMP JUMPDEST PUSH2 0xB55 PUSH32 0x25BCEB0000EC0F6CC3BA12E9B960752052E976C2DF5D788F37B5DA7DAC78F1CA PUSH1 0x0 SHL PUSH2 0x2D3E JUMP JUMPDEST PUSH2 0xB81 PUSH32 0xF9242BE87869C018F060C6845EF371801C93C15C947910455AA32940D28029B7 PUSH1 0x0 SHL PUSH2 0x2D3E JUMP JUMPDEST PUSH2 0xBAD PUSH32 0x37B9B08B863AD2D19ED93C126C21428097AAE2AFF6E33660BFE4599137ED24EF PUSH1 0x0 SHL PUSH2 0x2D3E JUMP JUMPDEST PUSH2 0xBD9 PUSH32 0x92FD2B57115E28088B39A9FFDF4F10212DC0201EFA5E981462BE29694DEFF2E1 PUSH1 0x0 SHL PUSH2 0x2D3E JUMP JUMPDEST PUSH1 0x0 ISZERO ISZERO PUSH1 0x1 PUSH1 0x14 SWAP1 SLOAD SWAP1 PUSH2 0x100 EXP SWAP1 DIV PUSH1 0xFF AND ISZERO ISZERO EQ PUSH2 0xC2F JUMPI PUSH1 0x40 MLOAD PUSH32 0x8C379A000000000000000000000000000000000000000000000000000000000 DUP2 MSTORE PUSH1 0x4 ADD PUSH2 0xC26 SWAP1 PUSH2 0x44BE JUMP JUMPDEST PUSH1 0x40 MLOAD DUP1 SWAP2 SUB SWAP1 REVERT JUMPDEST PUSH2 0xC5B PUSH32 0xEFFD08ACF2AF4ADDEB09C1C6BE3280088A0C1A6B5EE25CA86204F2098BD39A32 PUSH1 0x0 SHL PUSH2 0x2D3E JUMP JUMPDEST PUSH2 0xC87 PUSH32 0x10ED6CC5A42744D6773DBA7086AFE3D413C27BBDDD280F23E4E549E0D052CA3A PUSH1 0x0 SHL PUSH2 0x2D3E JUMP JUMPDEST PUSH2 0xCB3 PUSH32 0xB87205C1AEC7B6C758DC6BC5B2CFD40FEEA1B4E685F210EBE3B7D2E906668E40 PUSH1 0x0 SHL PUSH2 0x2D3E JUMP JUMPDEST PUSH2 0xCDF PUSH32 0x52D2FF6DD0FDDB5E84E6F475AD8C4E7E16CD054DECBA71592DA158B907D68236 PUSH1 0x0 SHL PUSH2 0x2D3E JUMP JUMPDEST PUSH2 0xD0B PUSH32 0x7114D800AE2DC009140607FA28D8C9611C15E102535CA990B4D95D1DEC2A1617 PUSH1 0x0 SHL PUSH2 0x2D3E JUMP JUMPDEST PUSH1 0x0 PUSH1 0x1 PUSH1 0xB SLOAD PUSH2 0xD1C SWAP2 SWAP1 PUSH2 0x464D JUMP JUMPDEST SWAP1 POP PUSH2 0xD4A PUSH32 0x44EFF928658353C04535945D7E88B78C31CF2A4EB3FB7595FE1E884BCBBFCF40 PUSH1 0x0 SHL PUSH2 0x2D3E JUMP JUMPDEST PUSH2 0xD76 PUSH32 0xBA367887562DE99F6481541C728423701537F776EC8752D02429C9C81AE59408 PUSH1 0x0 SHL PUSH2 0x2D3E JUMP JUMPDEST DUP2 PUSH1 0xE PUSH1 0x0 DUP4 DUP2 MSTORE PUSH1 0x20 ADD SWAP1 DUP2 MSTORE PUSH1 0x20 ADD PUSH1 0x0 KECCAK256 PUSH1 0x0 PUSH2 0x100 EXP DUP2 SLOAD DUP2 PUSH20 0xFFFFFFFFFFFFFFFFFFFFFFFFFFFFFFFFFFFFFFFF MUL NOT AND SWAP1 DUP4 PUSH20 0xFFFFFFFFFFFFFFFFFFFFFFFFFFFFFFFFFFFFFFFF AND MUL OR SWAP1 SSTORE POP PUSH2 0xDF4 PUSH32 0xDA2F444D9D518EC474F2949AD203F26B4AB702A489683150973F66BB8A68577F PUSH1 0x0 SHL PUSH2 0x2D3E JUMP JUMPDEST PUSH2 0xE20 PUSH32 0x330919EFA870947E76CC1296112ABB295FA7F27B4888A771FCC15097DD350086 PUSH1 0x0 SHL PUSH2 0x2D3E JUMP JUMPDEST DUP1 PUSH1 0xB DUP2 SWAP1 SSTORE POP PUSH2 0xE53 PUSH32 0x4BCF61EC1FF091226F665746865548FB2F2700DD17A0F765F45452543D6C17DA PUSH1 0x0 SHL PUSH2 0x2D3E JUMP JUMPDEST PUSH2 0xE7F PUSH32 0xE789B83CA8826B0FF47436B05317C00532F76D340944E756E1C4040338B7B2A PUSH1 0x0 SHL PUSH2 0x2D3E JUMP JUMPDEST DUP4 PUSH32 0xB99663894DC2A2C66382F63932042AA530244FE0AF348B833F4CDDEA9CFBEB71 DUP3 DUP6 PUSH1 0x40 MLOAD PUSH2 0xEB1 SWAP3 SWAP2 SWAP1 PUSH2 0x4539 JUMP JUMPDEST PUSH1 0x40 MLOAD DUP1 SWAP2 SUB SWAP1 LOG2 POP POP POP POP JUMP JUMPDEST PUSH2 0xEEB PUSH32 0x25BCEB0000EC0F6CC3BA12E9B960752052E976C2DF5D788F37B5DA7DAC78F1CA PUSH1 0x0 SHL PUSH2 0x2D3E JUMP JUMPDEST PUSH2 0xF17 PUSH32 0xF9242BE87869C018F060C6845EF371801C93C15C947910455AA32940D28029B7 PUSH1 0x0 SHL PUSH2 0x2D3E JUMP JUMPDEST PUSH2 0xF43 PUSH32 0x37B9B08B863AD2D19ED93C126C21428097AAE2AFF6E33660BFE4599137ED24EF PUSH1 0x0 SHL PUSH2 0x2D3E JUMP JUMPDEST PUSH2 0xF6F PUSH32 0x92FD2B57115E28088B39A9FFDF4F10212DC0201EFA5E981462BE29694DEFF2E1 PUSH1 0x0 SHL PUSH2 0x2D3E JUMP JUMPDEST PUSH1 0x0 ISZERO ISZERO PUSH1 0x1 PUSH1 0x14 SWAP1 SLOAD SWAP1 PUSH2 0x100 EXP SWAP1 DIV PUSH1 0xFF AND ISZERO ISZERO EQ PUSH2 0xFC5 JUMPI PUSH1 0x40 MLOAD PUSH32 0x8C379A000000000000000000000000000000000000000000000000000000000 DUP2 MSTORE PUSH1 0x4 ADD PUSH2 0xFBC SWAP1 PUSH2 0x44BE JUMP JUMPDEST PUSH1 0x40 MLOAD DUP1 SWAP2 SUB SWAP1 REVERT JUMPDEST PUSH2 0xFF1 PUSH32 0xEFFD08ACF2AF4ADDEB09C1C6BE3280088A0C1A6B5EE25CA86204F2098BD39A32 PUSH1 0x0 SHL PUSH2 0x2D3E JUMP JUMPDEST PUSH2 0x101D PUSH32 0x10ED6CC5A42744D6773DBA7086AFE3D413C27BBDDD280F23E4E549E0D052CA3A PUSH1 0x0 SHL PUSH2 0x2D3E JUMP JUMPDEST PUSH2 0x1049 PUSH32 0x8961BFEFF3AB83DD46F0E157AC781E643AE326EFFD36C28A9BA575392CCC4ACA PUSH1 0x0 SHL PUSH2 0x2D3E JUMP JUMPDEST PUSH2 0x1075 PUSH32 0xB7864230E5A1289A94D6AB24FAE76290160EB9AF516F0BF1E5F90AEEC0A65CD1 PUSH1 0x0 SHL PUSH2 0x2D3E JUMP JUMPDEST PUSH2 0x10A1 PUSH32 0x321C69070ED0A0FB3B919728CC86E3456B0719B8BAC5AEA0A259A24F330017AC PUSH1 0x0 SHL PUSH2 0x2D3E JUMP JUMPDEST PUSH2 0x10CD PUSH32 0xEF0FC60F8B7413D5FD3E1202A2B1644B02BA6D0929866DFFF6C1177CB8E94813 PUSH1 0x0 SHL PUSH2 0x2D3E JUMP JUMPDEST PUSH1 0xB SLOAD DUP2 GT ISZERO PUSH2 0x1112 JUMPI PUSH1 0x40 MLOAD PUSH32 0x8C379A000000000000000000000000000000000000000000000000000000000 DUP2 MSTORE PUSH1 0x4 ADD PUSH2 0x1109 SWAP1 PUSH2 0x447E JUMP JUMPDEST PUSH1 0x40 MLOAD DUP1 SWAP2 SUB SWAP1 REVERT JUMPDEST PUSH2 0x113E PUSH32 0x8F4BF2AF1C7E476FC9C68F3281DE079645A52373723D419804DC596EB05464A4 PUSH1 0x0 SHL PUSH2 0x2D3E JUMP JUMPDEST PUSH2 0x116A PUSH32 0x86F8072CC0B4C2E00C5DE41BF37593553F402B39C64A66AA01C9C7CF41BDB53C PUSH1 0x0 SHL PUSH2 0x2D3E JUMP JUMPDEST PUSH2 0x1196 PUSH32 0xC793C3A0C1F37FABBC9A2CE2CF8C59A29949EDC0AAE3EEFA286A07A1C9BA710A PUSH1 0x0 SHL PUSH2 0x2D3E JUMP JUMPDEST CALLVALUE PUSH1 0xC SLOAD PUSH2 0x11A4 SWAP2 SWAP1 PUSH2 0x464D JUMP JUMPDEST PUSH1 0xC DUP2 SWAP1 SSTORE POP PUSH2 0x11D6 PUSH32 0x65514153C57FBBE0C394816483BA8668667488D1C6FB4059E36C1A22BB32B44D PUSH1 0x0 SHL PUSH2 0x2D3E JUMP JUMPDEST PUSH2 0x1202 PUSH32 0x6A992DDB19AFD88D8C6B485CDF05FCD9C37F86C00C5D0C117E155463EFED009A PUSH1 0x0 SHL PUSH2 0x2D3E JUMP JUMPDEST PUSH1 0x1 PUSH1 0xD SLOAD PUSH2 0x1211 SWAP2 SWAP1 PUSH2 0x464D JUMP JUMPDEST PUSH1 0xD DUP2 SWAP1 SSTORE POP PUSH2 0x1243 PUSH32 0xC65BB986C0E0194FFF5A701C40436B729C170798641914A8090AAAC9F28E823E PUSH1 0x0 SHL PUSH2 0x2D3E JUMP JUMPDEST PUSH2 0x126E PUSH31 0x2AD6B26D2F6965486A50EAD82AC64634FE01D9E1625F5E32478D32B9B2015F PUSH1 0x0 SHL PUSH2 0x2D3E JUMP JUMPDEST PUSH1 0xE PUSH1 0x0 DUP3 DUP2 MSTORE PUSH1 0x20 ADD SWAP1 DUP2 MSTORE PUSH1 0x20 ADD PUSH1 0x0 KECCAK256 PUSH1 0x0 SWAP1 SLOAD SWAP1 PUSH2 0x100 EXP SWAP1 DIV PUSH20 0xFFFFFFFFFFFFFFFFFFFFFFFFFFFFFFFFFFFFFFFF AND PUSH20 0xFFFFFFFFFFFFFFFFFFFFFFFFFFFFFFFFFFFFFFFF AND PUSH2 0x8FC CALLVALUE SWAP1 DUP2 ISZERO MUL SWAP1 PUSH1 0x40 MLOAD PUSH1 0x0 PUSH1 0x40 MLOAD DUP1 DUP4 SUB DUP2 DUP6 DUP9 DUP9 CALL SWAP4 POP POP POP POP ISZERO DUP1 ISZERO PUSH2 0x12E7 JUMPI RETURNDATASIZE PUSH1 0x0 DUP1 RETURNDATACOPY RETURNDATASIZE PUSH1 0x0 REVERT JUMPDEST POP PUSH2 0x1314 PUSH32 0xCE6852DFCECB651A0E0ADF5A761D6B0860EE9C197A6498DA2A3CC115ABD8B24F PUSH1 0x0 SHL PUSH2 0x2D3E JUMP JUMPDEST PUSH2 0x1340 PUSH32 0xB55415AF75BD12EC289543E68E0AF15FF6A1381E3C8C2D706257BD61760D586E PUSH1 0x0 SHL PUSH2 0x2D3E JUMP JUMPDEST PUSH1 0xE PUSH1 0x0 DUP3 DUP2 MSTORE PUSH1 0x20 ADD SWAP1 DUP2 MSTORE PUSH1 0x20 ADD PUSH1 0x0 KECCAK256 PUSH1 0x0 SWAP1 SLOAD SWAP1 PUSH2 0x100 EXP SWAP1 DIV PUSH20 0xFFFFFFFFFFFFFFFFFFFFFFFFFFFFFFFFFFFFFFFF AND PUSH20 0xFFFFFFFFFFFFFFFFFFFFFFFFFFFFFFFFFFFFFFFF AND CALLER PUSH20 0xFFFFFFFFFFFFFFFFFFFFFFFFFFFFFFFFFFFFFFFF AND PUSH32 0x2317347462A70F36EB7BAC6FB953ACA2CD01EB3BCDF5F359BABE909811EAED67 DUP4 CALLVALUE PUSH1 0x40 MLOAD PUSH2 0x13D2 SWAP3 SWAP2 SWAP1 PUSH2 0x4562 JUMP JUMPDEST PUSH1 0x40 MLOAD DUP1 SWAP2 SUB SWAP1 LOG3 POP JUMP JUMPDEST PUSH2 0x1409 PUSH32 0x25BCEB0000EC0F6CC3BA12E9B960752052E976C2DF5D788F37B5DA7DAC78F1CA PUSH1 0x0 SHL PUSH2 0x2D3E JUMP JUMPDEST PUSH2 0x1435 PUSH32 0xF9242BE87869C018F060C6845EF371801C93C15C947910455AA32940D28029B7 PUSH1 0x0 SHL PUSH2 0x2D3E JUMP JUMPDEST PUSH2 0x1461 PUSH32 0x37B9B08B863AD2D19ED93C126C21428097AAE2AFF6E33660BFE4599137ED24EF PUSH1 0x0 SHL PUSH2 0x2D3E JUMP JUMPDEST PUSH2 0x148D PUSH32 0x92FD2B57115E28088B39A9FFDF4F10212DC0201EFA5E981462BE29694DEFF2E1 PUSH1 0x0 SHL PUSH2 0x2D3E JUMP JUMPDEST PUSH1 0x0 ISZERO ISZERO PUSH1 0x1 PUSH1 0x14 SWAP1 SLOAD SWAP1 PUSH2 0x100 EXP SWAP1 DIV PUSH1 0xFF AND ISZERO ISZERO EQ PUSH2 0x14E3 JUMPI PUSH1 0x40 MLOAD PUSH32 0x8C379A000000000000000000000000000000000000000000000000000000000 DUP2 MSTORE PUSH1 0x4 ADD PUSH2 0x14DA SWAP1 PUSH2 0x44BE JUMP JUMPDEST PUSH1 0x40 MLOAD DUP1 SWAP2 SUB SWAP1 REVERT JUMPDEST PUSH2 0x150F PUSH32 0xEFFD08ACF2AF4ADDEB09C1C6BE3280088A0C1A6B5EE25CA86204F2098BD39A32 PUSH1 0x0 SHL PUSH2 0x2D3E JUMP JUMPDEST PUSH2 0x153B PUSH32 0x10ED6CC5A42744D6773DBA7086AFE3D413C27BBDDD280F23E4E549E0D052CA3A PUSH1 0x0 SHL PUSH2 0x2D3E JUMP JUMPDEST PUSH2 0x1567 PUSH32 0x44575A529F7379CB0B6D837ABB75113D9B2DF896E884E6B26A6D5D3379A65A28 PUSH1 0x0 SHL PUSH2 0x2D3E JUMP JUMPDEST PUSH2 0x1593 PUSH32 0xDDD54921B90D128D8E9772173295FD8B7731A727D65F6D6B118F388B66A53128 PUSH1 0x0 SHL PUSH2 0x2D3E JUMP JUMPDEST PUSH2 0x15BF PUSH32 0xD09A8485A1AC51742F27888AF67FD0399A138F560B5360450291791A13730BC2 PUSH1 0x0 SHL PUSH2 0x2D3E JUMP JUMPDEST PUSH2 0x15EB PUSH32 0xB50AB9890355E983CEC94E7FD2832EB1FC7587FCF2783AC4810E6A50C9696462 PUSH1 0x0 SHL PUSH2 0x2D3E JUMP JUMPDEST PUSH1 0x1 ISZERO ISZERO PUSH1 0xA PUSH1 0x0 CALLER PUSH20 0xFFFFFFFFFFFFFFFFFFFFFFFFFFFFFFFFFFFFFFFF AND PUSH20 0xFFFFFFFFFFFFFFFFFFFFFFFFFFFFFFFFFFFFFFFF AND DUP2 MSTORE PUSH1 0x20 ADD SWAP1 DUP2 MSTORE PUSH1 0x20 ADD PUSH1 0x0 KECCAK256 PUSH1 0x0 SWAP1 SLOAD SWAP1 PUSH2 0x100 EXP SWAP1 DIV PUSH1 0xFF AND ISZERO ISZERO EQ PUSH2 0x167E JUMPI PUSH1 0x40 MLOAD PUSH32 0x8C379A000000000000000000000000000000000000000000000000000000000 DUP2 MSTORE PUSH1 0x4 ADD PUSH2 0x1675 SWAP1 PUSH2 0x443E JUMP JUMPDEST PUSH1 0x40 MLOAD DUP1 SWAP2 SUB SWAP1 REVERT JUMPDEST PUSH2 0x16AA PUSH32 0x854170F12AF2C81678697F31A9ECE4C831E1FCB4FE7CD3D319ECCBDC7172487C PUSH1 0x0 SHL PUSH2 0x2D3E JUMP JUMPDEST PUSH2 0x16D6 PUSH32 0x89A348C320747584114752F9E01158C3CAF5C679E05839DAF57A3BD745AFCE23 PUSH1 0x0 SHL PUSH2 0x2D3E JUMP JUMPDEST PUSH2 0x1702 PUSH32 0x9ECA7652A821432FF7622657764D46FFA2508CA811B4CBD9988A7F163EF08567 PUSH1 0x0 SHL PUSH2 0x2D3E JUMP JUMPDEST PUSH1 0x0 PUSH1 0xA PUSH1 0x0 CALLER PUSH20 0xFFFFFFFFFFFFFFFFFFFFFFFFFFFFFFFFFFFFFFFF AND PUSH20 0xFFFFFFFFFFFFFFFFFFFFFFFFFFFFFFFFFFFFFFFF AND DUP2 MSTORE PUSH1 0x20 ADD SWAP1 DUP2 MSTORE PUSH1 0x20 ADD PUSH1 0x0 KECCAK256 PUSH1 0x0 PUSH2 0x100 EXP DUP2 SLOAD DUP2 PUSH1 0xFF MUL NOT AND SWAP1 DUP4 ISZERO ISZERO MUL OR SWAP1 SSTORE POP JUMP JUMPDEST PUSH1 0xC SLOAD DUP2 JUMP JUMPDEST PUSH2 0x178E PUSH32 0x25BCEB0000EC0F6CC3BA12E9B960752052E976C2DF5D788F37B5DA7DAC78F1CA PUSH1 0x0 SHL PUSH2 0x2D3E JUMP JUMPDEST PUSH2 0x17BA PUSH32 0xF9242BE87869C018F060C6845EF371801C93C15C947910455AA32940D28029B7 PUSH1 0x0 SHL PUSH2 0x2D3E JUMP JUMPDEST PUSH2 0x17E6 PUSH32 0x37B9B08B863AD2D19ED93C126C21428097AAE2AFF6E33660BFE4599137ED24EF PUSH1 0x0 SHL PUSH2 0x2D3E JUMP JUMPDEST PUSH2 0x1812 PUSH32 0x92FD2B57115E28088B39A9FFDF4F10212DC0201EFA5E981462BE29694DEFF2E1 PUSH1 0x0 SHL PUSH2 0x2D3E JUMP JUMPDEST PUSH1 0x0 ISZERO ISZERO PUSH1 0x1 PUSH1 0x14 SWAP1 SLOAD SWAP1 PUSH2 0x100 EXP SWAP1 DIV PUSH1 0xFF AND ISZERO ISZERO EQ PUSH2 0x1868 JUMPI PUSH1 0x40 MLOAD PUSH32 0x8C379A000000000000000000000000000000000000000000000000000000000 DUP2 MSTORE PUSH1 0x4 ADD PUSH2 0x185F SWAP1 PUSH2 0x44BE JUMP JUMPDEST PUSH1 0x40 MLOAD DUP1 SWAP2 SUB SWAP1 REVERT JUMPDEST PUSH2 0x1894 PUSH32 0xEFFD08ACF2AF4ADDEB09C1C6BE3280088A0C1A6B5EE25CA86204F2098BD39A32 PUSH1 0x0 SHL PUSH2 0x2D3E JUMP JUMPDEST PUSH2 0x18C0 PUSH32 0x10ED6CC5A42744D6773DBA7086AFE3D413C27BBDDD280F23E4E549E0D052CA3A PUSH1 0x0 SHL PUSH2 0x2D3E JUMP JUMPDEST PUSH2 0x18EC PUSH32 0xAEC56ADF583223E00E48071AAF0B0B0335A4A7E6BCF218D90AA2D84715C60A79 PUSH1 0x0 SHL PUSH2 0x2D3E JUMP JUMPDEST PUSH2 0x1918 PUSH32 0x6743F223ADABD212D89EBAF8EAE371D1A4A95F900921CB0843044E7873A79AB2 PUSH1 0x0 SHL PUSH2 0x2D3E JUMP JUMPDEST PUSH2 0x1944 PUSH32 0x60F113E5AEC0B22DF154EAD65AEA6029D1F125521F9E558C7ECF3287418051C1 PUSH1 0x0 SHL PUSH2 0x2D3E JUMP JUMPDEST PUSH2 0x1970 PUSH32 0xA7DF47B36306BDB1933BC49155E594EF8E2B9FE2CD231284E081A65A652214B1 PUSH1 0x0 SHL PUSH2 0x2D3E JUMP JUMPDEST PUSH1 0x1 PUSH1 0x0 SWAP1 SLOAD SWAP1 PUSH2 0x100 EXP SWAP1 DIV PUSH20 0xFFFFFFFFFFFFFFFFFFFFFFFFFFFFFFFFFFFFFFFF AND PUSH20 0xFFFFFFFFFFFFFFFFFFFFFFFFFFFFFFFFFFFFFFFF AND CALLER PUSH20 0xFFFFFFFFFFFFFFFFFFFFFFFFFFFFFFFFFFFFFFFF AND EQ PUSH2 0x1A00 JUMPI PUSH1 0x40 MLOAD PUSH32 0x8C379A000000000000000000000000000000000000000000000000000000000 DUP2 MSTORE PUSH1 0x4 ADD PUSH2 0x19F7 SWAP1 PUSH2 0x44DE JUMP JUMPDEST PUSH1 0x40 MLOAD DUP1 SWAP2 SUB SWAP1 REVERT JUMPDEST PUSH2 0x1A2C PUSH32 0x744A403C168D930E154F812D77DCAC46FE0A5B2DA4D12F3D6727267198B4CC27 PUSH1 0x0 SHL PUSH2 0x2D3E JUMP JUMPDEST PUSH2 0x1A58 PUSH32 0xDF78C09317C6A8950463A736CC0B2FBCBF18EE4A6B501118D0C835B0128982B8 PUSH1 0x0 SHL PUSH2 0x2D3E JUMP JUMPDEST PUSH2 0x1A84 PUSH32 0xC7929B6F44E2616A64D474A0F8FDD4DE91866993A2586973DCFE64E9B785B758 PUSH1 0x0 SHL PUSH2 0x2D3E JUMP JUMPDEST PUSH2 0x1AB0 PUSH32 0x6261AB6D2B7232632336A49255556EA152BE0C6426C0D5428C4D13DD520BA0A8 PUSH1 0x0 SHL PUSH2 0x2D3E JUMP JUMPDEST PUSH1 0x2 SLOAD DUP4 GT ISZERO PUSH2 0x1AF5 JUMPI PUSH1 0x40 MLOAD PUSH32 0x8C379A000000000000000000000000000000000000000000000000000000000 DUP2 MSTORE PUSH1 0x4 ADD PUSH2 0x1AEC SWAP1 PUSH2 0x449E JUMP JUMPDEST PUSH1 0x40 MLOAD DUP1 SWAP2 SUB SWAP1 REVERT JUMPDEST PUSH2 0x1B21 PUSH32 0x38FA1FE3C37DE019BD266468E53A6C1C5558142D586E8775210FFAE4F3DACB84 PUSH1 0x0 SHL PUSH2 0x2D3E JUMP JUMPDEST PUSH2 0x1B4D PUSH32 0x513DD71D25EE3B37DF954FD585B36E4D6B4C4BC870C1E37BC91E7E7E5A3F4FFB PUSH1 0x0 SHL PUSH2 0x2D3E JUMP JUMPDEST PUSH2 0x1B79 PUSH32 0x3B2300FF945C2B6A12653050F6E84B7AC2BA8628F782F5BAAF2666703E7EEB22 PUSH1 0x0 SHL PUSH2 0x2D3E JUMP JUMPDEST PUSH1 0x0 PUSH1 0x1 PUSH1 0x3 PUSH1 0x0 DUP7 DUP2 MSTORE PUSH1 0x20 ADD SWAP1 DUP2 MSTORE PUSH1 0x20 ADD PUSH1 0x0 KECCAK256 PUSH1 0x1 ADD SLOAD PUSH2 0x1B9E SWAP2 SWAP1 PUSH2 0x464D JUMP JUMPDEST SWAP1 POP PUSH2 0x1BCC PUSH32 0x20F51C416B9A9CFD0368F54B530C145174DB84E67A41848A269F9668B3F0C0AD PUSH1 0x0 SHL PUSH2 0x2D3E JUMP JUMPDEST PUSH2 0x1BF8 PUSH32 0x3AEEAB8ADDCD3E60E2BC9DE9B586AD86D9720C19AFB53E075C408463FC6E2BD6 PUSH1 0x0 SHL PUSH2 0x2D3E JUMP JUMPDEST PUSH2 0x1C24 PUSH32 0x6E43F8D0037FD6AAD10CA0ED9C25D23CF8A3540B49E3476D37DC960099B02932 PUSH1 0x0 SHL PUSH2 0x2D3E JUMP JUMPDEST PUSH1 0x3 PUSH1 0x0 DUP6 DUP2 MSTORE PUSH1 0x20 ADD SWAP1 DUP2 MSTORE PUSH1 0x20 ADD PUSH1 0x0 KECCAK256 PUSH1 0x2 ADD SLOAD DUP2 GT ISZERO PUSH2 0x1C7D JUMPI PUSH1 0x40 MLOAD PUSH32 0x8C379A000000000000000000000000000000000000000000000000000000000 DUP2 MSTORE PUSH1 0x4 ADD PUSH2 0x1C74 SWAP1 PUSH2 0x441E JUMP JUMPDEST PUSH1 0x40 MLOAD DUP1 SWAP2 SUB SWAP1 REVERT JUMPDEST PUSH2 0x1CA9 PUSH32 0x3FDE2B304BF98EEB32B5860944A3777D558A33DFB49CE537B2EF8907084B4E46 PUSH1 0x0 SHL PUSH2 0x2D3E JUMP JUMPDEST PUSH2 0x1CD5 PUSH32 0xD8EF95F1B40969A6B46386E0CD1A76688C514E2F66CDE18E8D88726B081CBE17 PUSH1 0x0 SHL PUSH2 0x2D3E JUMP JUMPDEST PUSH2 0x1D01 PUSH32 0x320A73062F57580320488212A3EF5C4CF069F2108E1B86FA198C758F8B92995E PUSH1 0x0 SHL PUSH2 0x2D3E JUMP JUMPDEST DUP1 PUSH1 0x3 PUSH1 0x0 DUP7 DUP2 MSTORE PUSH1 0x20 ADD SWAP1 DUP2 MSTORE PUSH1 0x20 ADD PUSH1 0x0 KECCAK256 PUSH1 0x1 ADD DUP2 SWAP1 SSTORE POP PUSH2 0x1D48 PUSH32 0x2096F7316C2FC3298B471083F2E3593395E6B8068596639506A06385439BD771 PUSH1 0x0 SHL PUSH2 0x2D3E JUMP JUMPDEST PUSH2 0x1D74 PUSH32 0xB5C6DA5E232EE3E9FFBCDBEF516B1B3661693D69AB5AE619568E7312FC0B1743 PUSH1 0x0 SHL PUSH2 0x2D3E JUMP JUMPDEST DUP3 PUSH1 0x3 PUSH1 0x0 DUP7 DUP2 MSTORE PUSH1 0x20 ADD SWAP1 DUP2 MSTORE PUSH1 0x20 ADD PUSH1 0x0 KECCAK256 PUSH1 0x4 ADD PUSH1 0x1 DUP4 PUSH2 0x1D98 SWAP2 SWAP1 PUSH2 0x46D4 JUMP JUMPDEST DUP2 SLOAD DUP2 LT PUSH2 0x1DCF JUMPI PUSH32 0x4E487B7100000000000000000000000000000000000000000000000000000000 PUSH1 0x0 MSTORE PUSH1 0x32 PUSH1 0x4 MSTORE PUSH1 0x24 PUSH1 0x0 REVERT JUMPDEST SWAP1 PUSH1 0x0 MSTORE PUSH1 0x20 PUSH1 0x0 KECCAK256 ADD DUP2 SWAP1 SSTORE POP PUSH2 0x1E09 PUSH32 0xF828AE879820BE38D7B5651DB8F77205522947887C6F9E8F912A96655D1CB5F0 PUSH1 0x0 SHL PUSH2 0x2D3E JUMP JUMPDEST PUSH2 0x1E35 PUSH32 0x26B5265B39A977A9A20B3A1E5DF1319B72CD7BCBFC66F45A4BE0592C3C184227 PUSH1 0x0 SHL PUSH2 0x2D3E JUMP JUMPDEST DUP2 PUSH20 0xFFFFFFFFFFFFFFFFFFFFFFFFFFFFFFFFFFFFFFFF AND PUSH2 0x8FC PUSH1 0x3 PUSH1 0x0 DUP8 DUP2 MSTORE PUSH1 0x20 ADD SWAP1 DUP2 MSTORE PUSH1 0x20 ADD PUSH1 0x0 KECCAK256 PUSH1 0x2 ADD SLOAD PUSH1 0x3 PUSH1 0x0 DUP9 DUP2 MSTORE PUSH1 0x20 ADD SWAP1 DUP2 MSTORE PUSH1 0x20 ADD PUSH1 0x0 KECCAK256 PUSH1 0x3 ADD SLOAD PUSH2 0x1E87 SWAP2 SWAP1 PUSH2 0x46A3 JUMP JUMPDEST SWAP1 DUP2 ISZERO MUL SWAP1 PUSH1 0x40 MLOAD PUSH1 0x0 PUSH1 0x40 MLOAD DUP1 DUP4 SUB DUP2 DUP6 DUP9 DUP9 CALL SWAP4 POP POP POP POP ISZERO DUP1 ISZERO PUSH2 0x1EB2 JUMPI RETURNDATASIZE PUSH1 0x0 DUP1 RETURNDATACOPY RETURNDATASIZE PUSH1 0x0 REVERT JUMPDEST POP PUSH2 0x1EDF PUSH32 0xD79EA959DC358A0897589F9293898B9B4D885CAB9BF8F3568386386DCABA4CE5 PUSH1 0x0 SHL PUSH2 0x2D3E JUMP JUMPDEST PUSH2 0x1F0B PUSH32 0x35010D5A11340C8AA38CBB2BDA0B81D4504562F7261316DF6404DAF92FF3DE0C PUSH1 0x0 SHL PUSH2 0x2D3E JUMP JUMPDEST DUP4 PUSH32 0xE1D58799A6D1CEF7A4A5E546E03E11850EF52264511394D1A1F9D8AC73FC5E4C DUP5 TIMESTAMP PUSH1 0x40 MLOAD PUSH2 0x1F3D SWAP3 SWAP2 SWAP1 PUSH2 0x43BE JUMP JUMPDEST PUSH1 0x40 MLOAD DUP1 SWAP2 SUB SWAP1 LOG2 POP POP POP POP JUMP JUMPDEST PUSH1 0x8 DUP2 DUP2 SLOAD DUP2 LT PUSH2 0x1F5B JUMPI PUSH1 0x0 DUP1 REVERT JUMPDEST SWAP1 PUSH1 0x0 MSTORE PUSH1 0x20 PUSH1 0x0 KECCAK256 ADD PUSH1 0x0 SWAP2 POP SLOAD SWAP1 PUSH2 0x100 EXP SWAP1 DIV PUSH20 0xFFFFFFFFFFFFFFFFFFFFFFFFFFFFFFFFFFFFFFFF AND DUP2 JUMP JUMPDEST POP JUMP JUMPDEST PUSH2 0x1FB9 PUSH32 0x332CD9EE8299B1338E37A59115697B21C6465137A328FB663FD35833237EC512 PUSH1 0x0 SHL PUSH2 0x2D3E JUMP JUMPDEST PUSH2 0x1FE5 PUSH32 0xD9FAE4BF806FC1F49E40C5A106EC6B96EB7874D579976EEFA1F47F55E6DEFCA6 PUSH1 0x0 SHL PUSH2 0x2D3E JUMP JUMPDEST PUSH2 0x2011 PUSH32 0xFF92682983311243261B5BF03ED80A709E6EE4890EE79EED48D3797E5AAEA742 PUSH1 0x0 SHL PUSH2 0x2D3E JUMP JUMPDEST PUSH1 0x7 PUSH1 0x0 CALLER PUSH20 0xFFFFFFFFFFFFFFFFFFFFFFFFFFFFFFFFFFFFFFFF AND PUSH20 0xFFFFFFFFFFFFFFFFFFFFFFFFFFFFFFFFFFFFFFFF AND DUP2 MSTORE PUSH1 0x20 ADD SWAP1 DUP2 MSTORE PUSH1 0x20 ADD PUSH1 0x0 KECCAK256 PUSH1 0x0 DUP3 PUSH20 0xFFFFFFFFFFFFFFFFFFFFFFFFFFFFFFFFFFFFFFFF AND PUSH20 0xFFFFFFFFFFFFFFFFFFFFFFFFFFFFFFFFFFFFFFFF AND DUP2 MSTORE PUSH1 0x20 ADD SWAP1 DUP2 MSTORE PUSH1 0x20 ADD PUSH1 0x0 KECCAK256 PUSH1 0x0 SWAP1 SLOAD SWAP1 PUSH2 0x100 EXP SWAP1 DIV PUSH1 0xFF AND ISZERO PUSH1 0x7 PUSH1 0x0 CALLER PUSH20 0xFFFFFFFFFFFFFFFFFFFFFFFFFFFFFFFFFFFFFFFF AND PUSH20 0xFFFFFFFFFFFFFFFFFFFFFFFFFFFFFFFFFFFFFFFF AND DUP2 MSTORE PUSH1 0x20 ADD SWAP1 DUP2 MSTORE PUSH1 0x20 ADD PUSH1 0x0 KECCAK256 PUSH1 0x0 DUP4 PUSH20 0xFFFFFFFFFFFFFFFFFFFFFFFFFFFFFFFFFFFFFFFF AND PUSH20 0xFFFFFFFFFFFFFFFFFFFFFFFFFFFFFFFFFFFFFFFF AND DUP2 MSTORE PUSH1 0x20 ADD SWAP1 DUP2 MSTORE PUSH1 0x20 ADD PUSH1 0x0 KECCAK256 PUSH1 0x0 PUSH2 0x100 EXP DUP2 SLOAD DUP2 PUSH1 0xFF MUL NOT AND SWAP1 DUP4 ISZERO ISZERO MUL OR SWAP1 SSTORE POP PUSH2 0x215B PUSH32 0x725C3B736548E2A70110790F6D814A53EE8F25DF695CF23BAAABFCC8048D6E9A PUSH1 0x0 SHL PUSH2 0x2D3E JUMP JUMPDEST PUSH2 0x2187 PUSH32 0x6498AAC7B42A92D5C8750D6117D7F3FB3E5B6EDB14FA8FE428E79F4699C49DF9 PUSH1 0x0 SHL PUSH2 0x2D3E JUMP JUMPDEST DUP1 PUSH20 0xFFFFFFFFFFFFFFFFFFFFFFFFFFFFFFFFFFFFFFFF AND CALLER PUSH20 0xFFFFFFFFFFFFFFFFFFFFFFFFFFFFFFFFFFFFFFFF AND PUSH32 0xAD77D1D38ED980518F1C26C8CD8FE0CC39BA4E9092E1B5F69F0BD23FF1DE97FB PUSH1 0x7 PUSH1 0x0 CALLER PUSH20 0xFFFFFFFFFFFFFFFFFFFFFFFFFFFFFFFFFFFFFFFF AND PUSH20 0xFFFFFFFFFFFFFFFFFFFFFFFFFFFFFFFFFFFFFFFF AND DUP2 MSTORE PUSH1 0x20 ADD SWAP1 DUP2 MSTORE PUSH1 0x20 ADD PUSH1 0x0 KECCAK256 PUSH1 0x0 DUP6 PUSH20 0xFFFFFFFFFFFFFFFFFFFFFFFFFFFFFFFFFFFFFFFF AND PUSH20 0xFFFFFFFFFFFFFFFFFFFFFFFFFFFFFFFFFFFFFFFF AND DUP2 MSTORE PUSH1 0x20 ADD SWAP1 DUP2 MSTORE PUSH1 0x20 ADD PUSH1 0x0 KECCAK256 PUSH1 0x0 SWAP1 SLOAD SWAP1 PUSH2 0x100 EXP SWAP1 DIV PUSH1 0xFF AND PUSH1 0x40 MLOAD PUSH2 0x226D SWAP2 SWAP1 PUSH2 0x4365 JUMP JUMPDEST PUSH1 0x40 MLOAD DUP1 SWAP2 SUB SWAP1 LOG3 POP JUMP JUMPDEST PUSH1 0x2 SLOAD DUP2 JUMP JUMPDEST PUSH1 0x1 PUSH1 0x14 SWAP1 SLOAD SWAP1 PUSH2 0x100 EXP SWAP1 DIV PUSH1 0xFF AND DUP2 JUMP JUMPDEST PUSH1 0x3 PUSH1 0x20 MSTORE DUP1 PUSH1 0x0 MSTORE PUSH1 0x40 PUSH1 0x0 KECCAK256 PUSH1 0x0 SWAP2 POP SWAP1 POP DUP1 PUSH1 0x0 ADD SLOAD SWAP1 DUP1 PUSH1 0x1 ADD SLOAD SWAP1 DUP1 PUSH1 0x2 ADD SLOAD SWAP1 DUP1 PUSH1 0x3 ADD SLOAD SWAP1 POP DUP5 JUMP JUMPDEST PUSH1 0x4 PUSH1 0x20 MSTORE DUP2 PUSH1 0x0 MSTORE PUSH1 0x40 PUSH1 0x0 KECCAK256 DUP2 DUP2 SLOAD DUP2 LT PUSH2 0x22DD JUMPI PUSH1 0x0 DUP1 REVERT JUMPDEST SWAP1 PUSH1 0x0 MSTORE PUSH1 0x20 PUSH1 0x0 KECCAK256 ADD PUSH1 0x0 SWAP2 POP SWAP2 POP POP SLOAD DUP2 JUMP JUMPDEST PUSH2 0x231E PUSH32 0x25BCEB0000EC0F6CC3BA12E9B960752052E976C2DF5D788F37B5DA7DAC78F1CA PUSH1 0x0 SHL PUSH2 0x2D3E JUMP JUMPDEST PUSH2 0x234A PUSH32 0xF9242BE87869C018F060C6845EF371801C93C15C947910455AA32940D28029B7 PUSH1 0x0 SHL PUSH2 0x2D3E JUMP JUMPDEST PUSH2 0x2376 PUSH32 0x37B9B08B863AD2D19ED93C126C21428097AAE2AFF6E33660BFE4599137ED24EF PUSH1 0x0 SHL PUSH2 0x2D3E JUMP JUMPDEST PUSH2 0x23A2 PUSH32 0x92FD2B57115E28088B39A9FFDF4F10212DC0201EFA5E981462BE29694DEFF2E1 PUSH1 0x0 SHL PUSH2 0x2D3E JUMP JUMPDEST PUSH1 0x0 ISZERO ISZERO PUSH1 0x1 PUSH1 0x14 SWAP1 SLOAD SWAP1 PUSH2 0x100 EXP SWAP1 DIV PUSH1 0xFF AND ISZERO ISZERO EQ PUSH2 0x23F8 JUMPI PUSH1 0x40 MLOAD PUSH32 0x8C379A000000000000000000000000000000000000000000000000000000000 DUP2 MSTORE PUSH1 0x4 ADD PUSH2 0x23EF SWAP1 PUSH2 0x44BE JUMP JUMPDEST PUSH1 0x40 MLOAD DUP1 SWAP2 SUB SWAP1 REVERT JUMPDEST PUSH2 0x2424 PUSH32 0xEFFD08ACF2AF4ADDEB09C1C6BE3280088A0C1A6B5EE25CA86204F2098BD39A32 PUSH1 0x0 SHL PUSH2 0x2D3E JUMP JUMPDEST PUSH2 0x2450 PUSH32 0x10ED6CC5A42744D6773DBA7086AFE3D413C27BBDDD280F23E4E549E0D052CA3A PUSH1 0x0 SHL PUSH2 0x2D3E JUMP JUMPDEST PUSH2 0x247C PUSH32 0xCAF3FD6F78B67DFE9F683D37EA261AB5F2731513B179CF5236409C1963D15F7 PUSH1 0x0 SHL PUSH2 0x2D3E JUMP JUMPDEST PUSH2 0x24A8 PUSH32 0x36F4ECE00D0004594A9D05C3A8ACEED9112599E565CF1FC64156A42317FCBB8B PUSH1 0x0 SHL PUSH2 0x2D3E JUMP JUMPDEST PUSH2 0x24D4 PUSH32 0x6407FAE6F18701B7685927460F10E6EA1EBB1D86B80E45CD830622E200A86DAC PUSH1 0x0 SHL PUSH2 0x2D3E JUMP JUMPDEST PUSH2 0x24DC PUSH2 0x3D22 JUMP JUMPDEST PUSH2 0x2508 PUSH32 0x70366277DCF4C39C1CFC8624FED10A02B9D0F1C2F4C8D2B5AAF9835DB25298CB PUSH1 0x0 SHL PUSH2 0x2D3E JUMP JUMPDEST PUSH2 0x2534 PUSH32 0xF3F39720A6066751524CA15DBE085FF30A7E527C30732A39A3253F57720A86A6 PUSH1 0x0 SHL PUSH2 0x2D3E JUMP JUMPDEST PUSH1 0x40 MLOAD DUP1 PUSH1 0xA0 ADD PUSH1 0x40 MSTORE DUP1 PUSH1 0x2 SLOAD DUP2 MSTORE PUSH1 0x20 ADD PUSH1 0x1 DUP2 MSTORE PUSH1 0x20 ADD DUP4 DUP2 MSTORE PUSH1 0x20 ADD CALLVALUE DUP2 MSTORE PUSH1 0x20 ADD DUP4 PUSH8 0xFFFFFFFFFFFFFFFF DUP2 GT ISZERO PUSH2 0x259A JUMPI PUSH32 0x4E487B7100000000000000000000000000000000000000000000000000000000 PUSH1 0x0 MSTORE PUSH1 0x41 PUSH1 0x4 MSTORE PUSH1 0x24 PUSH1 0x0 REVERT JUMPDEST PUSH1 0x40 MLOAD SWAP1 DUP1 DUP3 MSTORE DUP1 PUSH1 0x20 MUL PUSH1 0x20 ADD DUP3 ADD PUSH1 0x40 MSTORE DUP1 ISZERO PUSH2 0x25C8 JUMPI DUP2 PUSH1 0x20 ADD PUSH1 0x20 DUP3 MUL DUP1 CALLDATASIZE DUP4 CALLDATACOPY DUP1 DUP3 ADD SWAP2 POP POP SWAP1 POP JUMPDEST POP DUP2 MSTORE POP SWAP1 POP PUSH2 0x25FA PUSH32 0xBB45ACFEF6A158CC3AC11CDCC23B528957089BC93F5520681EF28DD66147FE25 PUSH1 0x0 SHL PUSH2 0x2D3E JUMP JUMPDEST PUSH2 0x2626 PUSH32 0x67480A047348CDF3C273E9873823AD1BF680C6FD7D9AFFACF724DEC2601BA4FA PUSH1 0x0 SHL PUSH2 0x2D3E JUMP JUMPDEST DUP3 DUP2 PUSH1 0x80 ADD MLOAD PUSH1 0x0 DUP2 MLOAD DUP2 LT PUSH2 0x2665 JUMPI PUSH32 0x4E487B7100000000000000000000000000000000000000000000000000000000 PUSH1 0x0 MSTORE PUSH1 0x32 PUSH1 0x4 MSTORE PUSH1 0x24 PUSH1 0x0 REVERT JUMPDEST PUSH1 0x20 MUL PUSH1 0x20 ADD ADD DUP2 DUP2 MSTORE POP POP PUSH2 0x269D PUSH32 0xAB60B80A15530EEF71354B3148762A49736B32C60EC2FC912283BBFBFC409161 PUSH1 0x0 SHL PUSH2 0x2D3E JUMP JUMPDEST PUSH2 0x26C9 PUSH32 0xBD1E3FA90C9A049E049DA57D42C3D325E46A52E8937001E908CFB7AE15E1049C PUSH1 0x0 SHL PUSH2 0x2D3E JUMP JUMPDEST DUP1 PUSH1 0x3 PUSH1 0x0 PUSH1 0x2 SLOAD DUP2 MSTORE PUSH1 0x20 ADD SWAP1 DUP2 MSTORE PUSH1 0x20 ADD PUSH1 0x0 KECCAK256 PUSH1 0x0 DUP3 ADD MLOAD DUP2 PUSH1 0x0 ADD SSTORE PUSH1 0x20 DUP3 ADD MLOAD DUP2 PUSH1 0x1 ADD SSTORE PUSH1 0x40 DUP3 ADD MLOAD DUP2 PUSH1 0x2 ADD SSTORE PUSH1 0x60 DUP3 ADD MLOAD DUP2 PUSH1 0x3 ADD SSTORE PUSH1 0x80 DUP3 ADD MLOAD DUP2 PUSH1 0x4 ADD SWAP1 DUP1 MLOAD SWAP1 PUSH1 0x20 ADD SWAP1 PUSH2 0x2723 SWAP3 SWAP2 SWAP1 PUSH2 0x3D51 JUMP JUMPDEST POP SWAP1 POP POP PUSH2 0x2753 PUSH32 0x559377B329F04088B1F7D6435C0122FEC35602DAA797F728FA50914F9D303DC1 PUSH1 0x0 SHL PUSH2 0x2D3E JUMP JUMPDEST PUSH2 0x277F PUSH32 0x307B99CD90CA4DBBA4544A280BAB45BAB27213618BD0D303D90F0ADBF5F427C3 PUSH1 0x0 SHL PUSH2 0x2D3E JUMP JUMPDEST PUSH1 0x4 PUSH1 0x0 CALLER PUSH20 0xFFFFFFFFFFFFFFFFFFFFFFFFFFFFFFFFFFFFFFFF AND PUSH20 0xFFFFFFFFFFFFFFFFFFFFFFFFFFFFFFFFFFFFFFFF AND DUP2 MSTORE PUSH1 0x20 ADD SWAP1 DUP2 MSTORE PUSH1 0x20 ADD PUSH1 0x0 KECCAK256 PUSH1 0x2 SLOAD SWAP1 DUP1 PUSH1 0x1 DUP2 SLOAD ADD DUP1 DUP3 SSTORE DUP1 SWAP2 POP POP PUSH1 0x1 SWAP1 SUB SWAP1 PUSH1 0x0 MSTORE PUSH1 0x20 PUSH1 0x0 KECCAK256 ADD PUSH1 0x0 SWAP1 SWAP2 SWAP1 SWAP2 SWAP1 SWAP2 POP SSTORE PUSH2 0x2813 PUSH32 0x7BAA32F7AC942769CC34EFC031D7B92E8A94208030BA16D90F3736A4968503AF PUSH1 0x0 SHL PUSH2 0x2D3E JUMP JUMPDEST PUSH2 0x283F PUSH32 0xC162DDD6514CD977674E90C79FD99A1365AC19088A5DC8D6A9BD72EDCE0DEAA7 PUSH1 0x0 SHL PUSH2 0x2D3E JUMP JUMPDEST PUSH1 0x1 PUSH1 0x2 SLOAD PUSH2 0x284E SWAP2 SWAP1 PUSH2 0x464D JUMP JUMPDEST PUSH1 0x2 DUP2 SWAP1 SSTORE POP PUSH2 0x2880 PUSH32 0x23652D651088B08F5F5BCF185F61FE9AE59150C7FB41E970BB2E327FB2C08821 PUSH1 0x0 SHL PUSH2 0x2D3E JUMP JUMPDEST PUSH2 0x28AC PUSH32 0xC9F985855FD93C7B16833CF6CF4D2434FC5769D6EA23799A47FD2D0B65F0A967 PUSH1 0x0 SHL PUSH2 0x2D3E JUMP JUMPDEST CALLER PUSH20 0xFFFFFFFFFFFFFFFFFFFFFFFFFFFFFFFFFFFFFFFF AND PUSH1 0x1 PUSH1 0x2 SLOAD PUSH2 0x28D2 SWAP2 SWAP1 PUSH2 0x46D4 JUMP JUMPDEST PUSH32 0xC4DD427940F2B7ACF9630EF20CA65879526CFC7A3869483461942027043545F7 DUP6 CALLVALUE TIMESTAMP PUSH1 0x40 MLOAD PUSH2 0x2905 SWAP4 SWAP3 SWAP2 SWAP1 PUSH2 0x43E7 JUMP JUMPDEST PUSH1 0x40 MLOAD DUP1 SWAP2 SUB SWAP1 LOG3 POP POP POP JUMP JUMPDEST PUSH2 0x293E PUSH32 0x25BCEB0000EC0F6CC3BA12E9B960752052E976C2DF5D788F37B5DA7DAC78F1CA PUSH1 0x0 SHL PUSH2 0x2D3E JUMP JUMPDEST PUSH2 0x296A PUSH32 0xF9242BE87869C018F060C6845EF371801C93C15C947910455AA32940D28029B7 PUSH1 0x0 SHL PUSH2 0x2D3E JUMP JUMPDEST PUSH2 0x2996 PUSH32 0x37B9B08B863AD2D19ED93C126C21428097AAE2AFF6E33660BFE4599137ED24EF PUSH1 0x0 SHL PUSH2 0x2D3E JUMP JUMPDEST PUSH2 0x29C2 PUSH32 0x92FD2B57115E28088B39A9FFDF4F10212DC0201EFA5E981462BE29694DEFF2E1 PUSH1 0x0 SHL PUSH2 0x2D3E JUMP JUMPDEST PUSH1 0x0 ISZERO ISZERO PUSH1 0x1 PUSH1 0x14 SWAP1 SLOAD SWAP1 PUSH2 0x100 EXP SWAP1 DIV PUSH1 0xFF AND ISZERO ISZERO EQ PUSH2 0x2A18 JUMPI PUSH1 0x40 MLOAD PUSH32 0x8C379A000000000000000000000000000000000000000000000000000000000 DUP2 MSTORE PUSH1 0x4 ADD PUSH2 0x2A0F SWAP1 PUSH2 0x44BE JUMP JUMPDEST PUSH1 0x40 MLOAD DUP1 SWAP2 SUB SWAP1 REVERT JUMPDEST PUSH2 0x2A44 PUSH32 0xEFFD08ACF2AF4ADDEB09C1C6BE3280088A0C1A6B5EE25CA86204F2098BD39A32 PUSH1 0x0 SHL PUSH2 0x2D3E JUMP JUMPDEST PUSH2 0x2A70 PUSH32 0x10ED6CC5A42744D6773DBA7086AFE3D413C27BBDDD280F23E4E549E0D052CA3A PUSH1 0x0 SHL PUSH2 0x2D3E JUMP JUMPDEST PUSH2 0x2A9C PUSH32 0xC1CC2D053219E4D997FFD9E7952986053813FC8DE79620F074DF5C20C6612578 PUSH1 0x0 SHL PUSH2 0x2D3E JUMP JUMPDEST PUSH2 0x2AC8 PUSH32 0x76FA70B34819BEA51DDE33224D5048DC202B54799EC22499B54BAA6E7205259 PUSH1 0x0 SHL PUSH2 0x2D3E JUMP JUMPDEST PUSH2 0x2AF4 PUSH32 0xF4B67E29D88E0897AACFDA6AF315EE8EA48502EB43D84FB5B7843A12D4151BA0 PUSH1 0x0 SHL PUSH2 0x2D3E JUMP JUMPDEST PUSH2 0x2B20 PUSH32 0x1DA9C0E1849D26CDAD44EB672D910E68DD139CA1E55DD51FC6E04F4DB16278D6 PUSH1 0x0 SHL PUSH2 0x2D3E JUMP JUMPDEST PUSH1 0x1 ISZERO ISZERO PUSH1 0xA PUSH1 0x0 DUP4 PUSH20 0xFFFFFFFFFFFFFFFFFFFFFFFFFFFFFFFFFFFFFFFF AND PUSH20 0xFFFFFFFFFFFFFFFFFFFFFFFFFFFFFFFFFFFFFFFF AND DUP2 MSTORE PUSH1 0x20 ADD SWAP1 DUP2 MSTORE PUSH1 0x20 ADD PUSH1 0x0 KECCAK256 PUSH1 0x0 SWAP1 SLOAD SWAP1 PUSH2 0x100 EXP SWAP1 DIV PUSH1 0xFF AND ISZERO ISZERO EQ PUSH2 0x2BB3 JUMPI PUSH1 0x40 MLOAD PUSH32 0x8C379A000000000000000000000000000000000000000000000000000000000 DUP2 MSTORE PUSH1 0x4 ADD PUSH2 0x2BAA SWAP1 PUSH2 0x443E JUMP JUMPDEST PUSH1 0x40 MLOAD DUP1 SWAP2 SUB SWAP1 REVERT JUMPDEST PUSH2 0x2BDF PUSH32 0x15C66BE2AE7A633A0CECB1C3B6F57D17F1988462FD6A277ABE114E7592782BA9 PUSH1 0x0 SHL PUSH2 0x2D3E JUMP JUMPDEST PUSH2 0x2C0B PUSH32 0xCAD276B0C5467F2CBEFE46140873D4CCFFE3D2A3C2F31E12AF6933CA747678B5 PUSH1 0x0 SHL PUSH2 0x2D3E JUMP JUMPDEST PUSH2 0x2C37 PUSH32 0xA365B5EDD6A0C09BE4A4F12D0A40F6F2231B23C39761E07D2F0ED7506E800B61 PUSH1 0x0 SHL PUSH2 0x2D3E JUMP JUMPDEST DUP1 PUSH20 0xFFFFFFFFFFFFFFFFFFFFFFFFFFFFFFFFFFFFFFFF AND PUSH2 0x8FC CALLVALUE SWAP1 DUP2 ISZERO MUL SWAP1 PUSH1 0x40 MLOAD PUSH1 0x0 PUSH1 0x40 MLOAD DUP1 DUP4 SUB DUP2 DUP6 DUP9 DUP9 CALL SWAP4 POP POP POP POP ISZERO DUP1 ISZERO PUSH2 0x2C7D JUMPI RETURNDATASIZE PUSH1 0x0 DUP1 RETURNDATACOPY RETURNDATASIZE PUSH1 0x0 REVERT JUMPDEST POP PUSH2 0x2CAA PUSH32 0x7B16430157A0D0B3EE70879D1B2048F564B7FBCB56B628B48E3DAA5010A623B2 PUSH1 0x0 SHL PUSH2 0x2D3E JUMP JUMPDEST PUSH2 0x2CD6 PUSH32 0x7CEBB1BC77B46AC247053ADF510DB93BFC4BF9011D4EAF81D3D92784402A97A3 PUSH1 0x0 SHL PUSH2 0x2D3E JUMP JUMPDEST CALLER PUSH20 0xFFFFFFFFFFFFFFFFFFFFFFFFFFFFFFFFFFFFFFFF AND DUP2 PUSH20 0xFFFFFFFFFFFFFFFFFFFFFFFFFFFFFFFFFFFFFFFF AND PUSH32 0x1D3FF44814877759FDCDEC2BACE42D6E7E7C1B84CA040BA5D3B4EF988FFD908E CALLVALUE PUSH1 0x40 MLOAD PUSH2 0x2D33 SWAP2 SWAP1 PUSH2 0x451E JUMP JUMPDEST PUSH1 0x40 MLOAD DUP1 SWAP2 SUB SWAP1 LOG3 POP JUMP JUMPDEST POP JUMP JUMPDEST PUSH1 0x1 PUSH1 0x0 SWAP1 SLOAD SWAP1 PUSH2 0x100 EXP SWAP1 DIV PUSH20 0xFFFFFFFFFFFFFFFFFFFFFFFFFFFFFFFFFFFFFFFF AND DUP2 JUMP JUMPDEST PUSH2 0x2D93 PUSH32 0x73B87411D898756CE83276AACB6190ECDFA3966E4A1BA1EA683ED795BD9571EF PUSH1 0x0 SHL PUSH2 0x2D3E JUMP JUMPDEST PUSH2 0x2DBF PUSH32 0x178660A7D420860AEA6C31230B57E48B7F55E0A076A7B57B88ED031BF76AAA5D PUSH1 0x0 SHL PUSH2 0x2D3E JUMP JUMPDEST PUSH2 0x2DEB PUSH32 0xA363141C3B512E67D9766DAC84344D61593D73DA5FCF021C5797E16CCEA2F99B PUSH1 0x0 SHL PUSH2 0x2D3E JUMP JUMPDEST PUSH2 0x2E17 PUSH32 0x30C337F673FAEC957511E5619AA4893E60CF78B2515CE92CBB4EFDABC621935 PUSH1 0x0 SHL PUSH2 0x2D3E JUMP JUMPDEST PUSH1 0x0 DUP1 SLOAD SWAP1 PUSH2 0x100 EXP SWAP1 DIV PUSH20 0xFFFFFFFFFFFFFFFFFFFFFFFFFFFFFFFFFFFFFFFF AND PUSH20 0xFFFFFFFFFFFFFFFFFFFFFFFFFFFFFFFFFFFFFFFF AND CALLER PUSH20 0xFFFFFFFFFFFFFFFFFFFFFFFFFFFFFFFFFFFFFFFF AND EQ PUSH2 0x2EA5 JUMPI PUSH1 0x40 MLOAD PUSH32 0x8C379A000000000000000000000000000000000000000000000000000000000 DUP2 MSTORE PUSH1 0x4 ADD PUSH2 0x2E9C SWAP1 PUSH2 0x44FE JUMP JUMPDEST PUSH1 0x40 MLOAD DUP1 SWAP2 SUB SWAP1 REVERT JUMPDEST PUSH2 0x2ED1 PUSH32 0x1BBE933E241EDD4D32B78FC1F6BA499A0FA961AD3775BBB88D1CE494AB0983A1 PUSH1 0x0 SHL PUSH2 0x2D3E JUMP JUMPDEST PUSH2 0x2EFD PUSH32 0x794A5946A0C20463025CC3F64580460C069E89C9DFCC9F7DE95E87E082961404 PUSH1 0x0 SHL PUSH2 0x2D3E JUMP JUMPDEST PUSH2 0x2F29 PUSH32 0xA68241E49D96FF49A50663CE6E3E834A3A3DF95A58E7C07FBD042891DA53F06 PUSH1 0x0 SHL PUSH2 0x2D3E JUMP JUMPDEST DUP1 PUSH1 0x0 DUP1 PUSH2 0x100 EXP DUP2 SLOAD DUP2 PUSH20 0xFFFFFFFFFFFFFFFFFFFFFFFFFFFFFFFFFFFFFFFF MUL NOT AND SWAP1 DUP4 PUSH20 0xFFFFFFFFFFFFFFFFFFFFFFFFFFFFFFFFFFFFFFFF AND MUL OR SWAP1 SSTORE POP POP JUMP JUMPDEST PUSH1 0x0 DUP1 SLOAD SWAP1 PUSH2 0x100 EXP SWAP1 DIV PUSH20 0xFFFFFFFFFFFFFFFFFFFFFFFFFFFFFFFFFFFFFFFF AND DUP2 JUMP JUMPDEST PUSH1 0xA PUSH1 0x20 MSTORE DUP1 PUSH1 0x0 MSTORE PUSH1 0x40 PUSH1 0x0 KECCAK256 PUSH1 0x0 SWAP2 POP SLOAD SWAP1 PUSH2 0x100 EXP SWAP1 DIV PUSH1 0xFF AND DUP2 JUMP JUMPDEST PUSH1 0x9 SLOAD DUP2 JUMP JUMPDEST PUSH2 0x2FE2 PUSH32 0x25BCEB0000EC0F6CC3BA12E9B960752052E976C2DF5D788F37B5DA7DAC78F1CA PUSH1 0x0 SHL PUSH2 0x2D3E JUMP JUMPDEST PUSH2 0x300E PUSH32 0xF9242BE87869C018F060C6845EF371801C93C15C947910455AA32940D28029B7 PUSH1 0x0 SHL PUSH2 0x2D3E JUMP JUMPDEST PUSH2 0x303A PUSH32 0x37B9B08B863AD2D19ED93C126C21428097AAE2AFF6E33660BFE4599137ED24EF PUSH1 0x0 SHL PUSH2 0x2D3E JUMP JUMPDEST PUSH2 0x3066 PUSH32 0x92FD2B57115E28088B39A9FFDF4F10212DC0201EFA5E981462BE29694DEFF2E1 PUSH1 0x0 SHL PUSH2 0x2D3E JUMP JUMPDEST PUSH1 0x0 ISZERO ISZERO PUSH1 0x1 PUSH1 0x14 SWAP1 SLOAD SWAP1 PUSH2 0x100 EXP SWAP1 DIV PUSH1 0xFF AND ISZERO ISZERO EQ PUSH2 0x30BC JUMPI PUSH1 0x40 MLOAD PUSH32 0x8C379A000000000000000000000000000000000000000000000000000000000 DUP2 MSTORE PUSH1 0x4 ADD PUSH2 0x30B3 SWAP1 PUSH2 0x44BE JUMP JUMPDEST PUSH1 0x40 MLOAD DUP1 SWAP2 SUB SWAP1 REVERT JUMPDEST PUSH2 0x30E8 PUSH32 0xEFFD08ACF2AF4ADDEB09C1C6BE3280088A0C1A6B5EE25CA86204F2098BD39A32 PUSH1 0x0 SHL PUSH2 0x2D3E JUMP JUMPDEST PUSH2 0x3114 PUSH32 0x10ED6CC5A42744D6773DBA7086AFE3D413C27BBDDD280F23E4E549E0D052CA3A PUSH1 0x0 SHL PUSH2 0x2D3E JUMP JUMPDEST PUSH2 0x3140 PUSH32 0x823AEC777C9DFD372A53B1B48C4B8D3F312F1C7AE2C6C657C9C67BF5A37213AB PUSH1 0x0 SHL PUSH2 0x2D3E JUMP JUMPDEST PUSH2 0x316C PUSH32 0xB8EADCCF24DFA952F685F33D4319026B0A70CFAED37663BD7778DC261716204F PUSH1 0x0 SHL PUSH2 0x2D3E JUMP JUMPDEST PUSH2 0x3198 PUSH32 0x3FD4E04E5117B1AA53A49A86AEF38BB26773AEAF400A8ECA28C0799149132B23 PUSH1 0x0 SHL PUSH2 0x2D3E JUMP JUMPDEST PUSH1 0x0 ISZERO ISZERO PUSH1 0xA PUSH1 0x0 CALLER PUSH20 0xFFFFFFFFFFFFFFFFFFFFFFFFFFFFFFFFFFFFFFFF AND PUSH20 0xFFFFFFFFFFFFFFFFFFFFFFFFFFFFFFFFFFFFFFFF AND DUP2 MSTORE PUSH1 0x20 ADD SWAP1 DUP2 MSTORE PUSH1 0x20 ADD PUSH1 0x0 KECCAK256 PUSH1 0x0 SWAP1 SLOAD SWAP1 PUSH2 0x100 EXP SWAP1 DIV PUSH1 0xFF AND ISZERO ISZERO EQ ISZERO PUSH2 0x333F JUMPI PUSH2 0x321D PUSH32 0x2D64F8F354EA36D19694283144B8D1E3805E80DADA3E65BF487A7164371DA458 PUSH1 0x0 SHL PUSH2 0x2D3E JUMP JUMPDEST PUSH2 0x3249 PUSH32 0x12378C183E303754BA4B0F9047775D59A87C60B42466BD243128668279826714 PUSH1 0x0 SHL PUSH2 0x2D3E JUMP JUMPDEST PUSH2 0x3275 PUSH32 0x25DB13E3232FE2481D122944D5722014264404471F93DD95B2056B63841B8D45 PUSH1 0x0 SHL PUSH2 0x2D3E JUMP JUMPDEST PUSH1 0x1 PUSH1 0xA PUSH1 0x0 CALLER PUSH20 0xFFFFFFFFFFFFFFFFFFFFFFFFFFFFFFFFFFFFFFFF AND PUSH20 0xFFFFFFFFFFFFFFFFFFFFFFFFFFFFFFFFFFFFFFFF AND DUP2 MSTORE PUSH1 0x20 ADD SWAP1 DUP2 MSTORE PUSH1 0x20 ADD PUSH1 0x0 KECCAK256 PUSH1 0x0 PUSH2 0x100 EXP DUP2 SLOAD DUP2 PUSH1 0xFF MUL NOT AND SWAP1 DUP4 ISZERO ISZERO MUL OR SWAP1 SSTORE POP PUSH2 0x32F9 PUSH32 0xD1531C1AE183378E4D023E80734569A014B68585E1C0520C16565CD23B2F8E68 PUSH1 0x0 SHL PUSH2 0x2D3E JUMP JUMPDEST PUSH2 0x3325 PUSH32 0x8EC277065F04151AE832866D3810BA68CA30CE63E553B796398EF9ABB5317CA0 PUSH1 0x0 SHL PUSH2 0x2D3E JUMP JUMPDEST PUSH1 0x1 PUSH1 0x9 SLOAD PUSH2 0x3334 SWAP2 SWAP1 PUSH2 0x464D JUMP JUMPDEST PUSH1 0x9 DUP2 SWAP1 SSTORE POP PUSH2 0x336C JUMP JUMPDEST PUSH2 0x336B PUSH32 0x57995697C3DC42AEF29A9162A9FAC546A4CAD49D96542E3CD7A5AC492D46021F PUSH1 0x0 SHL PUSH2 0x2D3E JUMP JUMPDEST JUMPDEST PUSH2 0x3398 PUSH32 0x6482A7E79F0795BC9F7E9BBB5475A86E1E2D3FEDF018B52E9E2396D1BC5C42B2 PUSH1 0x0 SHL PUSH2 0x2D3E JUMP JUMPDEST PUSH2 0x33C4 PUSH32 0xF426143E37EC373DBB2AE4193D7E30E3E2CF93C3AD1E06ACE2105172F5D0B1C8 PUSH1 0x0 SHL PUSH2 0x2D3E JUMP JUMPDEST CALLER PUSH20 0xFFFFFFFFFFFFFFFFFFFFFFFFFFFFFFFFFFFFFFFF AND PUSH32 0x70EBB08109E8151DD49DEC1BA08CEC18082514F31659837D36C851B908860CE DUP3 TIMESTAMP PUSH1 0x40 MLOAD PUSH2 0x340C SWAP3 SWAP2 SWAP1 PUSH2 0x43BE JUMP JUMPDEST PUSH1 0x40 MLOAD DUP1 SWAP2 SUB SWAP1 LOG2 POP JUMP JUMPDEST PUSH2 0x3443 PUSH32 0x1B2E57ECB3CD0813C0E7D6E459060AE0C11AB3BF6AE80CC23371EA0FDFC33B63 PUSH1 0x0 SHL PUSH2 0x2D3E JUMP JUMPDEST PUSH2 0x346F PUSH32 0xC6EC0CED80F4B9F82FBF7AA2D5163EE71DC18A4DDB85C93019CB323F82414D0F PUSH1 0x0 SHL PUSH2 0x2D3E JUMP JUMPDEST PUSH2 0x349B PUSH32 0x1C72CF469A5A60C4E25E631E0BB1665AECF7CC1491069910D71C1936C18028A8 PUSH1 0x0 SHL PUSH2 0x2D3E JUMP JUMPDEST PUSH2 0x34C7 PUSH32 0x91F522B4E31ACA990A6EDB08695AF247245C3E925BA492E5CFC041CBB8AA49DF PUSH1 0x0 SHL PUSH2 0x2D3E JUMP JUMPDEST PUSH1 0x0 DUP1 SLOAD SWAP1 PUSH2 0x100 EXP SWAP1 DIV PUSH20 0xFFFFFFFFFFFFFFFFFFFFFFFFFFFFFFFFFFFFFFFF AND PUSH20 0xFFFFFFFFFFFFFFFFFFFFFFFFFFFFFFFFFFFFFFFF AND CALLER PUSH20 0xFFFFFFFFFFFFFFFFFFFFFFFFFFFFFFFFFFFFFFFF AND EQ PUSH2 0x3555 JUMPI PUSH1 0x40 MLOAD PUSH32 0x8C379A000000000000000000000000000000000000000000000000000000000 DUP2 MSTORE PUSH1 0x4 ADD PUSH2 0x354C SWAP1 PUSH2 0x44FE JUMP JUMPDEST PUSH1 0x40 MLOAD DUP1 SWAP2 SUB SWAP1 REVERT JUMPDEST PUSH2 0x3581 PUSH32 0xA8B693D17D9168516A02F18660B6D196EEDE195E846CAF05DD82A339FE013EEE PUSH1 0x0 SHL PUSH2 0x2D3E JUMP JUMPDEST PUSH2 0x35AD PUSH32 0x567AB75557D01C21E01E50ACD79B71C696546DA0E650A9237E498A629A920C1C PUSH1 0x0 SHL PUSH2 0x2D3E JUMP JUMPDEST PUSH2 0x35D9 PUSH32 0x8D7C08000814E20507348AC511D8D00B54CC406ABE61ACCB2CF406953E86691E PUSH1 0x0 SHL PUSH2 0x2D3E JUMP JUMPDEST PUSH1 0x1 PUSH1 0x14 SWAP1 SLOAD SWAP1 PUSH2 0x100 EXP SWAP1 DIV PUSH1 0xFF AND ISZERO PUSH1 0x1 PUSH1 0x14 PUSH2 0x100 EXP DUP2 SLOAD DUP2 PUSH1 0xFF MUL NOT AND SWAP1 DUP4 ISZERO ISZERO MUL OR SWAP1 SSTORE POP JUMP JUMPDEST PUSH1 0x6 PUSH1 0x20 MSTORE DUP1 PUSH1 0x0 MSTORE PUSH1 0x40 PUSH1 0x0 KECCAK256 PUSH1 0x0 SWAP2 POP SWAP1 POP SLOAD DUP2 JUMP JUMPDEST PUSH1 0xB SLOAD DUP2 JUMP JUMPDEST PUSH1 0x7 PUSH1 0x20 MSTORE DUP2 PUSH1 0x0 MSTORE PUSH1 0x40 PUSH1 0x0 KECCAK256 PUSH1 0x20 MSTORE DUP1 PUSH1 0x0 MSTORE PUSH1 0x40 PUSH1 0x0 KECCAK256 PUSH1 0x0 SWAP2 POP SWAP2 POP SWAP1 SLOAD SWAP1 PUSH2 0x100 EXP SWAP1 DIV PUSH1 0xFF AND DUP2 JUMP JUMPDEST PUSH1 0xD SLOAD DUP2 JUMP JUMPDEST PUSH1 0xF SLOAD DUP2 JUMP JUMPDEST PUSH2 0x368A PUSH32 0x25BCEB0000EC0F6CC3BA12E9B960752052E976C2DF5D788F37B5DA7DAC78F1CA PUSH1 0x0 SHL PUSH2 0x2D3E JUMP JUMPDEST PUSH2 0x36B6 PUSH32 0xF9242BE87869C018F060C6845EF371801C93C15C947910455AA32940D28029B7 PUSH1 0x0 SHL PUSH2 0x2D3E JUMP JUMPDEST PUSH2 0x36E2 PUSH32 0x37B9B08B863AD2D19ED93C126C21428097AAE2AFF6E33660BFE4599137ED24EF PUSH1 0x0 SHL PUSH2 0x2D3E JUMP JUMPDEST PUSH2 0x370E PUSH32 0x92FD2B57115E28088B39A9FFDF4F10212DC0201EFA5E981462BE29694DEFF2E1 PUSH1 0x0 SHL PUSH2 0x2D3E JUMP JUMPDEST PUSH1 0x0 ISZERO ISZERO PUSH1 0x1 PUSH1 0x14 SWAP1 SLOAD SWAP1 PUSH2 0x100 EXP SWAP1 DIV PUSH1 0xFF AND ISZERO ISZERO EQ PUSH2 0x3764 JUMPI PUSH1 0x40 MLOAD PUSH32 0x8C379A000000000000000000000000000000000000000000000000000000000 DUP2 MSTORE PUSH1 0x4 ADD PUSH2 0x375B SWAP1 PUSH2 0x44BE JUMP JUMPDEST PUSH1 0x40 MLOAD DUP1 SWAP2 SUB SWAP1 REVERT JUMPDEST PUSH2 0x3790 PUSH32 0xEFFD08ACF2AF4ADDEB09C1C6BE3280088A0C1A6B5EE25CA86204F2098BD39A32 PUSH1 0x0 SHL PUSH2 0x2D3E JUMP JUMPDEST PUSH2 0x37BC PUSH32 0x10ED6CC5A42744D6773DBA7086AFE3D413C27BBDDD280F23E4E549E0D052CA3A PUSH1 0x0 SHL PUSH2 0x2D3E JUMP JUMPDEST PUSH2 0x37E8 PUSH32 0xF92DF508B16961DB40FA38D9008727A83ECFA34D5F0EB4002C74B32CC5F9C4D9 PUSH1 0x0 SHL PUSH2 0x2D3E JUMP JUMPDEST PUSH2 0x3814 PUSH32 0x9C0031C968A951F2F1B44CC354C1ADC0012D66AE9F628802ED6DD4F777716D81 PUSH1 0x0 SHL PUSH2 0x2D3E JUMP JUMPDEST PUSH2 0x3840 PUSH32 0xF3AF68D72988D2634C52E1119F0F777CC5E9B3E161C03D949E6CE43A4819F249 PUSH1 0x0 SHL PUSH2 0x2D3E JUMP JUMPDEST PUSH2 0x386C PUSH32 0x79483AA373FDDEB61BF3ED88CD07E6AFB3A11496EE1EC72208F3A5636C1637A8 PUSH1 0x0 SHL PUSH2 0x2D3E JUMP JUMPDEST PUSH1 0x0 DUP1 SLOAD SWAP1 PUSH2 0x100 EXP SWAP1 DIV PUSH20 0xFFFFFFFFFFFFFFFFFFFFFFFFFFFFFFFFFFFFFFFF AND PUSH20 0xFFFFFFFFFFFFFFFFFFFFFFFFFFFFFFFFFFFFFFFF AND CALLER PUSH20 0xFFFFFFFFFFFFFFFFFFFFFFFFFFFFFFFFFFFFFFFF AND EQ PUSH2 0x38FA JUMPI PUSH1 0x40 MLOAD PUSH32 0x8C379A000000000000000000000000000000000000000000000000000000000 DUP2 MSTORE PUSH1 0x4 ADD PUSH2 0x38F1 SWAP1 PUSH2 0x44FE JUMP JUMPDEST PUSH1 0x40 MLOAD DUP1 SWAP2 SUB SWAP1 REVERT JUMPDEST PUSH2 0x3926 PUSH32 0xF3F07AD673C228515AFA61D3FE3A2A0C5455657F7EACF4715729317755C991A PUSH1 0x0 SHL PUSH2 0x2D3E JUMP JUMPDEST PUSH2 0x3952 PUSH32 0xB03F973DE0257537846855F0FDE881A067344258FCDC6D98FFC05E7D5B97F299 PUSH1 0x0 SHL PUSH2 0x2D3E JUMP JUMPDEST PUSH2 0x397E PUSH32 0xCEDA98D3C715EBD634B21261585E952D9AC234BDDD2E5054FB2DBE895AF186F6 PUSH1 0x0 SHL PUSH2 0x2D3E JUMP JUMPDEST PUSH1 0x5 PUSH1 0x0 DUP3 PUSH20 0xFFFFFFFFFFFFFFFFFFFFFFFFFFFFFFFFFFFFFFFF AND PUSH20 0xFFFFFFFFFFFFFFFFFFFFFFFFFFFFFFFFFFFFFFFF AND DUP2 MSTORE PUSH1 0x20 ADD SWAP1 DUP2 MSTORE PUSH1 0x20 ADD PUSH1 0x0 KECCAK256 PUSH1 0x0 SWAP1 SLOAD SWAP1 PUSH2 0x100 EXP SWAP1 DIV PUSH1 0xFF AND ISZERO PUSH1 0x5 PUSH1 0x0 DUP4 PUSH20 0xFFFFFFFFFFFFFFFFFFFFFFFFFFFFFFFFFFFFFFFF AND PUSH20 0xFFFFFFFFFFFFFFFFFFFFFFFFFFFFFFFFFFFFFFFF AND DUP2 MSTORE PUSH1 0x20 ADD SWAP1 DUP2 MSTORE PUSH1 0x20 ADD PUSH1 0x0 KECCAK256 PUSH1 0x0 PUSH2 0x100 EXP DUP2 SLOAD DUP2 PUSH1 0xFF MUL NOT AND SWAP1 DUP4 ISZERO ISZERO MUL OR SWAP1 SSTORE POP POP JUMP JUMPDEST PUSH1 0xE PUSH1 0x20 MSTORE DUP1 PUSH1 0x0 MSTORE PUSH1 0x40 PUSH1 0x0 KECCAK256 PUSH1 0x0 SWAP2 POP SLOAD SWAP1 PUSH2 0x100 EXP SWAP1 DIV PUSH20 0xFFFFFFFFFFFFFFFFFFFFFFFFFFFFFFFFFFFFFFFF AND DUP2 JUMP JUMPDEST PUSH1 0x5 PUSH1 0x20 MSTORE DUP1 PUSH1 0x0 MSTORE PUSH1 0x40 PUSH1 0x0 KECCAK256 PUSH1 0x0 SWAP2 POP SLOAD SWAP1 PUSH2 0x100 EXP SWAP1 DIV PUSH1 0xFF AND DUP2 JUMP JUMPDEST PUSH2 0x3AA4 PUSH32 0x25BCEB0000EC0F6CC3BA12E9B960752052E976C2DF5D788F37B5DA7DAC78F1CA PUSH1 0x0 SHL PUSH2 0x2D3E JUMP JUMPDEST PUSH2 0x3AD0 PUSH32 0xF9242BE87869C018F060C6845EF371801C93C15C947910455AA32940D28029B7 PUSH1 0x0 SHL PUSH2 0x2D3E JUMP JUMPDEST PUSH2 0x3AFC PUSH32 0x37B9B08B863AD2D19ED93C126C21428097AAE2AFF6E33660BFE4599137ED24EF PUSH1 0x0 SHL PUSH2 0x2D3E JUMP JUMPDEST PUSH2 0x3B28 PUSH32 0x92FD2B57115E28088B39A9FFDF4F10212DC0201EFA5E981462BE29694DEFF2E1 PUSH1 0x0 SHL PUSH2 0x2D3E JUMP JUMPDEST PUSH1 0x0 ISZERO ISZERO PUSH1 0x1 PUSH1 0x14 SWAP1 SLOAD SWAP1 PUSH2 0x100 EXP SWAP1 DIV PUSH1 0xFF AND ISZERO ISZERO EQ PUSH2 0x3B7E JUMPI PUSH1 0x40 MLOAD PUSH32 0x8C379A000000000000000000000000000000000000000000000000000000000 DUP2 MSTORE PUSH1 0x4 ADD PUSH2 0x3B75 SWAP1 PUSH2 0x44BE JUMP JUMPDEST PUSH1 0x40 MLOAD DUP1 SWAP2 SUB SWAP1 REVERT JUMPDEST PUSH2 0x3BAA PUSH32 0xEFFD08ACF2AF4ADDEB09C1C6BE3280088A0C1A6B5EE25CA86204F2098BD39A32 PUSH1 0x0 SHL PUSH2 0x2D3E JUMP JUMPDEST PUSH2 0x3BD6 PUSH32 0x10ED6CC5A42744D6773DBA7086AFE3D413C27BBDDD280F23E4E549E0D052CA3A PUSH1 0x0 SHL PUSH2 0x2D3E JUMP JUMPDEST PUSH2 0x3C02 PUSH32 0x71707749359C43111496F7FF3FA0ECBAAA43094B86276D5EFB835EA1E34C168A PUSH1 0x0 SHL PUSH2 0x2D3E JUMP JUMPDEST PUSH2 0x3C2E PUSH32 0x81C58CBB21B661BD3BF801ECC912B4152F3E006ACCC1C755F1ADBAAD67FEC251 PUSH1 0x0 SHL PUSH2 0x2D3E JUMP JUMPDEST PUSH2 0x3C5A PUSH32 0xBB6F0FCD0394961B052216DE9E2B8326CBC6F747A04881FD1F3EC572D86C16BB PUSH1 0x0 SHL PUSH2 0x2D3E JUMP JUMPDEST DUP3 CALLER PUSH20 0xFFFFFFFFFFFFFFFFFFFFFFFFFFFFFFFFFFFFFFFF AND PUSH1 0xF SLOAD PUSH32 0x3E1ACFD5F2181DE07799D35BE451DBDDFD093425B11BAA4B85098D8F871E90A1 DUP6 DUP6 TIMESTAMP PUSH1 0x40 MLOAD PUSH2 0x3CA8 SWAP4 SWAP3 SWAP2 SWAP1 PUSH2 0x4380 JUMP JUMPDEST PUSH1 0x40 MLOAD DUP1 SWAP2 SUB SWAP1 LOG4 PUSH2 0x3CDC PUSH32 0x867A492174116CD63DE825E10278C66179D71383530AB923EC5A1DDD7C28A978 PUSH1 0x0 SHL PUSH2 0x2D3E JUMP JUMPDEST PUSH2 0x3D08 PUSH32 0x224F301A2BBB6135DA473D840E81984E45B6E054BE3B4B1F0A237DA34CB049D8 PUSH1 0x0 SHL PUSH2 0x2D3E JUMP JUMPDEST PUSH1 0x1 PUSH1 0xF SLOAD PUSH2 0x3D17 SWAP2 SWAP1 PUSH2 0x464D JUMP JUMPDEST PUSH1 0xF DUP2 SWAP1 SSTORE POP POP POP POP JUMP JUMPDEST PUSH1 0x40 MLOAD DUP1 PUSH1 0xA0 ADD PUSH1 0x40 MSTORE DUP1 PUSH1 0x0 DUP2 MSTORE PUSH1 0x20 ADD PUSH1 0x0 DUP2 MSTORE PUSH1 0x20 ADD PUSH1 0x0 DUP2 MSTORE PUSH1 0x20 ADD PUSH1 0x0 DUP2 MSTORE PUSH1 0x20 ADD PUSH1 0x60 DUP2 MSTORE POP SWAP1 JUMP JUMPDEST DUP3 DUP1 SLOAD DUP3 DUP3 SSTORE SWAP1 PUSH1 0x0 MSTORE PUSH1 0x20 PUSH1 0x0 KECCAK256 SWAP1 DUP2 ADD SWAP3 DUP3 ISZERO PUSH2 0x3D8D JUMPI SWAP2 PUSH1 0x20 MUL DUP3 ADD JUMPDEST DUP3 DUP2 GT ISZERO PUSH2 0x3D8C JUMPI DUP3 MLOAD DUP3 SSTORE SWAP2 PUSH1 0x20 ADD SWAP2 SWAP1 PUSH1 0x1 ADD SWAP1 PUSH2 0x3D71 JUMP JUMPDEST JUMPDEST POP SWAP1 POP PUSH2 0x3D9A SWAP2 SWAP1 PUSH2 0x3D9E JUMP JUMPDEST POP SWAP1 JUMP JUMPDEST JUMPDEST DUP1 DUP3 GT ISZERO PUSH2 0x3DB7 JUMPI PUSH1 0x0 DUP2 PUSH1 0x0 SWAP1 SSTORE POP PUSH1 0x1 ADD PUSH2 0x3D9F JUMP JUMPDEST POP SWAP1 JUMP JUMPDEST PUSH1 0x0 PUSH2 0x3DCE PUSH2 0x3DC9 DUP5 PUSH2 0x4601 JUMP JUMPDEST PUSH2 0x45D0 JUMP JUMPDEST SWAP1 POP DUP3 DUP2 MSTORE PUSH1 0x20 DUP2 ADD DUP5 DUP5 DUP5 ADD GT ISZERO PUSH2 0x3DE6 JUMPI PUSH1 0x0 DUP1 REVERT JUMPDEST PUSH2 0x3DF1 DUP5 DUP3 DUP6 PUSH2 0x476C JUMP JUMPDEST POP SWAP4 SWAP3 POP POP POP JUMP JUMPDEST PUSH1 0x0 DUP2 CALLDATALOAD SWAP1 POP PUSH2 0x3E08 DUP2 PUSH2 0x484C JUMP JUMPDEST SWAP3 SWAP2 POP POP JUMP JUMPDEST PUSH1 0x0 DUP2 CALLDATALOAD SWAP1 POP PUSH2 0x3E1D DUP2 PUSH2 0x4863 JUMP JUMPDEST SWAP3 SWAP2 POP POP JUMP JUMPDEST PUSH1 0x0 DUP2 CALLDATALOAD SWAP1 POP PUSH2 0x3E32 DUP2 PUSH2 0x487A JUMP JUMPDEST SWAP3 SWAP2 POP POP JUMP JUMPDEST PUSH1 0x0 DUP3 PUSH1 0x1F DUP4 ADD SLT PUSH2 0x3E49 JUMPI PUSH1 0x0 DUP1 REVERT JUMPDEST DUP2 CALLDATALOAD PUSH2 0x3E59 DUP5 DUP3 PUSH1 0x20 DUP7 ADD PUSH2 0x3DBB JUMP JUMPDEST SWAP2 POP POP SWAP3 SWAP2 POP POP JUMP JUMPDEST PUSH1 0x0 DUP2 CALLDATALOAD SWAP1 POP PUSH2 0x3E71 DUP2 PUSH2 0x4891 JUMP JUMPDEST SWAP3 SWAP2 POP POP JUMP JUMPDEST PUSH1 0x0 PUSH1 0x20 DUP3 DUP5 SUB SLT ISZERO PUSH2 0x3E89 JUMPI PUSH1 0x0 DUP1 REVERT JUMPDEST PUSH1 0x0 PUSH2 0x3E97 DUP5 DUP3 DUP6 ADD PUSH2 0x3DF9 JUMP JUMPDEST SWAP2 POP POP SWAP3 SWAP2 POP POP JUMP JUMPDEST PUSH1 0x0 DUP1 PUSH1 0x40 DUP4 DUP6 SUB SLT ISZERO PUSH2 0x3EB3 JUMPI PUSH1 0x0 DUP1 REVERT JUMPDEST PUSH1 0x0 PUSH2 0x3EC1 DUP6 DUP3 DUP7 ADD PUSH2 0x3DF9 JUMP JUMPDEST SWAP3 POP POP PUSH1 0x20 PUSH2 0x3ED2 DUP6 DUP3 DUP7 ADD PUSH2 0x3DF9 JUMP JUMPDEST SWAP2 POP POP SWAP3 POP SWAP3 SWAP1 POP JUMP JUMPDEST PUSH1 0x0 DUP1 PUSH1 0x40 DUP4 DUP6 SUB SLT ISZERO PUSH2 0x3EEF JUMPI PUSH1 0x0 DUP1 REVERT JUMPDEST PUSH1 0x0 PUSH2 0x3EFD DUP6 DUP3 DUP7 ADD PUSH2 0x3DF9 JUMP JUMPDEST SWAP3 POP POP PUSH1 0x20 PUSH2 0x3F0E DUP6 DUP3 DUP7 ADD PUSH2 0x3E62 JUMP JUMPDEST SWAP2 POP POP SWAP3 POP SWAP3 SWAP1 POP JUMP JUMPDEST PUSH1 0x0 PUSH1 0x20 DUP3 DUP5 SUB SLT ISZERO PUSH2 0x3F2A JUMPI PUSH1 0x0 DUP1 REVERT JUMPDEST PUSH1 0x0 PUSH2 0x3F38 DUP5 DUP3 DUP6 ADD PUSH2 0x3E23 JUMP JUMPDEST SWAP2 POP POP SWAP3 SWAP2 POP POP JUMP JUMPDEST PUSH1 0x0 DUP1 PUSH1 0x0 PUSH1 0x60 DUP5 DUP7 SUB SLT ISZERO PUSH2 0x3F56 JUMPI PUSH1 0x0 DUP1 REVERT JUMPDEST PUSH1 0x0 PUSH2 0x3F64 DUP7 DUP3 DUP8 ADD PUSH2 0x3E23 JUMP JUMPDEST SWAP4 POP POP PUSH1 0x20 PUSH2 0x3F75 DUP7 DUP3 DUP8 ADD PUSH2 0x3E23 JUMP JUMPDEST SWAP3 POP POP PUSH1 0x40 PUSH2 0x3F86 DUP7 DUP3 DUP8 ADD PUSH2 0x3E0E JUMP JUMPDEST SWAP2 POP POP SWAP3 POP SWAP3 POP SWAP3 JUMP JUMPDEST PUSH1 0x0 DUP1 PUSH1 0x0 PUSH1 0x60 DUP5 DUP7 SUB SLT ISZERO PUSH2 0x3FA5 JUMPI PUSH1 0x0 DUP1 REVERT JUMPDEST PUSH1 0x0 PUSH2 0x3FB3 DUP7 DUP3 DUP8 ADD PUSH2 0x3E23 JUMP JUMPDEST SWAP4 POP POP PUSH1 0x20 PUSH2 0x3FC4 DUP7 DUP3 DUP8 ADD PUSH2 0x3E23 JUMP JUMPDEST SWAP3 POP POP PUSH1 0x40 DUP5 ADD CALLDATALOAD PUSH8 0xFFFFFFFFFFFFFFFF DUP2 GT ISZERO PUSH2 0x3FE1 JUMPI PUSH1 0x0 DUP1 REVERT JUMPDEST PUSH2 0x3FED DUP7 DUP3 DUP8 ADD PUSH2 0x3E38 JUMP JUMPDEST SWAP2 POP POP SWAP3 POP SWAP3 POP SWAP3 JUMP JUMPDEST PUSH1 0x0 DUP1 PUSH1 0x40 DUP4 DUP6 SUB SLT ISZERO PUSH2 0x400A JUMPI PUSH1 0x0 DUP1 REVERT JUMPDEST PUSH1 0x0 PUSH2 0x4018 DUP6 DUP3 DUP7 ADD PUSH2 0x3E23 JUMP JUMPDEST SWAP3 POP POP PUSH1 0x20 PUSH2 0x4029 DUP6 DUP3 DUP7 ADD PUSH2 0x3E62 JUMP JUMPDEST SWAP2 POP POP SWAP3 POP SWAP3 SWAP1 POP JUMP JUMPDEST PUSH1 0x0 PUSH1 0x20 DUP3 DUP5 SUB SLT ISZERO PUSH2 0x4045 JUMPI PUSH1 0x0 DUP1 REVERT JUMPDEST PUSH1 0x0 PUSH2 0x4053 DUP5 DUP3 DUP6 ADD PUSH2 0x3E62 JUMP JUMPDEST SWAP2 POP POP SWAP3 SWAP2 POP POP JUMP JUMPDEST PUSH1 0x0 DUP1 PUSH1 0x0 PUSH1 0x60 DUP5 DUP7 SUB SLT ISZERO PUSH2 0x4071 JUMPI PUSH1 0x0 DUP1 REVERT JUMPDEST PUSH1 0x0 PUSH2 0x407F DUP7 DUP3 DUP8 ADD PUSH2 0x3E62 JUMP JUMPDEST SWAP4 POP POP PUSH1 0x20 PUSH2 0x4090 DUP7 DUP3 DUP8 ADD PUSH2 0x3E23 JUMP JUMPDEST SWAP3 POP POP PUSH1 0x40 PUSH2 0x40A1 DUP7 DUP3 DUP8 ADD PUSH2 0x3E0E JUMP JUMPDEST SWAP2 POP POP SWAP3 POP SWAP3 POP SWAP3 JUMP JUMPDEST PUSH2 0x40B4 DUP2 PUSH2 0x471A JUMP JUMPDEST DUP3 MSTORE POP POP JUMP JUMPDEST PUSH2 0x40C3 DUP2 PUSH2 0x4708 JUMP JUMPDEST DUP3 MSTORE POP POP JUMP JUMPDEST PUSH2 0x40D2 DUP2 PUSH2 0x472C JUMP JUMPDEST DUP3 MSTORE POP POP JUMP JUMPDEST PUSH2 0x40E1 DUP2 PUSH2 0x4738 JUMP JUMPDEST DUP3 MSTORE POP POP JUMP JUMPDEST PUSH1 0x0 PUSH2 0x40F2 DUP3 PUSH2 0x4631 JUMP JUMPDEST PUSH2 0x40FC DUP2 DUP6 PUSH2 0x463C JUMP JUMPDEST SWAP4 POP PUSH2 0x410C DUP2 DUP6 PUSH1 0x20 DUP7 ADD PUSH2 0x477B JUMP JUMPDEST PUSH2 0x4115 DUP2 PUSH2 0x483B JUMP JUMPDEST DUP5 ADD SWAP2 POP POP SWAP3 SWAP2 POP POP JUMP JUMPDEST PUSH1 0x0 PUSH2 0x412D PUSH1 0x14 DUP4 PUSH2 0x463C JUMP JUMPDEST SWAP2 POP PUSH32 0x416C6C20526F756E647320436F6D706C65746564000000000000000000000000 PUSH1 0x0 DUP4 ADD MSTORE PUSH1 0x20 DUP3 ADD SWAP1 POP SWAP2 SWAP1 POP JUMP JUMPDEST PUSH1 0x0 PUSH2 0x416D PUSH1 0x17 DUP4 PUSH2 0x463C JUMP JUMPDEST SWAP2 POP PUSH32 0x55736572206973206E6F742043616D706169676E696E67000000000000000000 PUSH1 0x0 DUP4 ADD MSTORE PUSH1 0x20 DUP3 ADD SWAP1 POP SWAP2 SWAP1 POP JUMP JUMPDEST PUSH1 0x0 PUSH2 0x41AD PUSH1 0x16 DUP4 PUSH2 0x463C JUMP JUMPDEST SWAP2 POP PUSH32 0x556E617574686F72697A656420486F7374706974616C00000000000000000000 PUSH1 0x0 DUP4 ADD MSTORE PUSH1 0x20 DUP3 ADD SWAP1 POP SWAP2 SWAP1 POP JUMP JUMPDEST PUSH1 0x0 PUSH2 0x41ED PUSH1 0xF DUP4 PUSH2 0x463C JUMP JUMPDEST SWAP2 POP PUSH32 0x496E76616C69642046756E642049440000000000000000000000000000000000 PUSH1 0x0 DUP4 ADD MSTORE PUSH1 0x20 DUP3 ADD SWAP1 POP SWAP2 SWAP1 POP JUMP JUMPDEST PUSH1 0x0 PUSH2 0x422D PUSH1 0xF DUP4 PUSH2 0x463C JUMP JUMPDEST SWAP2 POP PUSH32 0x496E76616C6964205461736B2049440000000000000000000000000000000000 PUSH1 0x0 DUP4 ADD MSTORE PUSH1 0x20 DUP3 ADD SWAP1 POP SWAP2 SWAP1 POP JUMP JUMPDEST PUSH1 0x0 PUSH2 0x426D PUSH1 0x12 DUP4 PUSH2 0x463C JUMP JUMPDEST SWAP2 POP PUSH32 0x436F6E7472616374206973205061757365640000000000000000000000000000 PUSH1 0x0 DUP4 ADD MSTORE PUSH1 0x20 DUP3 ADD SWAP1 POP SWAP2 SWAP1 POP JUMP JUMPDEST PUSH1 0x0 PUSH2 0x42AD PUSH1 0x1D DUP4 PUSH2 0x463C JUMP JUMPDEST SWAP2 POP PUSH32 0x596F7520617265206E6F742074686520636F6F7264696E61746F722021000000 PUSH1 0x0 DUP4 ADD MSTORE PUSH1 0x20 DUP3 ADD SWAP1 POP SWAP2 SWAP1 POP JUMP JUMPDEST PUSH1 0x0 PUSH2 0x42ED PUSH1 0xA DUP4 PUSH2 0x463C JUMP JUMPDEST SWAP2 POP PUSH32 0x4F6E6C79204F776E657200000000000000000000000000000000000000000000 PUSH1 0x0 DUP4 ADD MSTORE PUSH1 0x20 DUP3 ADD SWAP1 POP SWAP2 SWAP1 POP JUMP JUMPDEST PUSH2 0x4329 DUP2 PUSH2 0x4762 JUMP JUMPDEST DUP3 MSTORE POP POP JUMP JUMPDEST PUSH1 0x0 PUSH1 0x20 DUP3 ADD SWAP1 POP PUSH2 0x4344 PUSH1 0x0 DUP4 ADD DUP5 PUSH2 0x40BA JUMP JUMPDEST SWAP3 SWAP2 POP POP JUMP JUMPDEST PUSH1 0x0 PUSH1 0x20 DUP3 ADD SWAP1 POP PUSH2 0x435F PUSH1 0x0 DUP4 ADD DUP5 PUSH2 0x40AB JUMP JUMPDEST SWAP3 SWAP2 POP POP JUMP JUMPDEST PUSH1 0x0 PUSH1 0x20 DUP3 ADD SWAP1 POP PUSH2 0x437A PUSH1 0x0 DUP4 ADD DUP5 PUSH2 0x40C9 JUMP JUMPDEST SWAP3 SWAP2 POP POP JUMP JUMPDEST PUSH1 0x0 PUSH1 0x60 DUP3 ADD SWAP1 POP PUSH2 0x4395 PUSH1 0x0 DUP4 ADD DUP7 PUSH2 0x40D8 JUMP JUMPDEST DUP2 DUP2 SUB PUSH1 0x20 DUP4 ADD MSTORE PUSH2 0x43A7 DUP2 DUP6 PUSH2 0x40E7 JUMP JUMPDEST SWAP1 POP PUSH2 0x43B6 PUSH1 0x40 DUP4 ADD DUP5 PUSH2 0x4320 JUMP JUMPDEST SWAP5 SWAP4 POP POP POP POP JUMP JUMPDEST PUSH1 0x0 PUSH1 0x40 DUP3 ADD SWAP1 POP PUSH2 0x43D3 PUSH1 0x0 DUP4 ADD DUP6 PUSH2 0x40D8 JUMP JUMPDEST PUSH2 0x43E0 PUSH1 0x20 DUP4 ADD DUP5 PUSH2 0x4320 JUMP JUMPDEST SWAP4 SWAP3 POP POP POP JUMP JUMPDEST PUSH1 0x0 PUSH1 0x60 DUP3 ADD SWAP1 POP PUSH2 0x43FC PUSH1 0x0 DUP4 ADD DUP7 PUSH2 0x40D8 JUMP JUMPDEST PUSH2 0x4409 PUSH1 0x20 DUP4 ADD DUP6 PUSH2 0x4320 JUMP JUMPDEST PUSH2 0x4416 PUSH1 0x40 DUP4 ADD DUP5 PUSH2 0x4320 JUMP JUMPDEST SWAP5 SWAP4 POP POP POP POP JUMP JUMPDEST PUSH1 0x0 PUSH1 0x20 DUP3 ADD SWAP1 POP DUP2 DUP2 SUB PUSH1 0x0 DUP4 ADD MSTORE PUSH2 0x4437 DUP2 PUSH2 0x4120 JUMP JUMPDEST SWAP1 POP SWAP2 SWAP1 POP JUMP JUMPDEST PUSH1 0x0 PUSH1 0x20 DUP3 ADD SWAP1 POP DUP2 DUP2 SUB PUSH1 0x0 DUP4 ADD MSTORE PUSH2 0x4457 DUP2 PUSH2 0x4160 JUMP JUMPDEST SWAP1 POP SWAP2 SWAP1 POP JUMP JUMPDEST PUSH1 0x0 PUSH1 0x20 DUP3 ADD SWAP1 POP DUP2 DUP2 SUB PUSH1 0x0 DUP4 ADD MSTORE PUSH2 0x4477 DUP2 PUSH2 0x41A0 JUMP JUMPDEST SWAP1 POP SWAP2 SWAP1 POP JUMP JUMPDEST PUSH1 0x0 PUSH1 0x20 DUP3 ADD SWAP1 POP DUP2 DUP2 SUB PUSH1 0x0 DUP4 ADD MSTORE PUSH2 0x4497 DUP2 PUSH2 0x41E0 JUMP JUMPDEST SWAP1 POP SWAP2 SWAP1 POP JUMP JUMPDEST PUSH1 0x0 PUSH1 0x20 DUP3 ADD SWAP1 POP DUP2 DUP2 SUB PUSH1 0x0 DUP4 ADD MSTORE PUSH2 0x44B7 DUP2 PUSH2 0x4220 JUMP JUMPDEST SWAP1 POP SWAP2 SWAP1 POP JUMP JUMPDEST PUSH1 0x0 PUSH1 0x20 DUP3 ADD SWAP1 POP DUP2 DUP2 SUB PUSH1 0x0 DUP4 ADD MSTORE PUSH2 0x44D7 DUP2 PUSH2 0x4260 JUMP JUMPDEST SWAP1 POP SWAP2 SWAP1 POP JUMP JUMPDEST PUSH1 0x0 PUSH1 0x20 DUP3 ADD SWAP1 POP DUP2 DUP2 SUB PUSH1 0x0 DUP4 ADD MSTORE PUSH2 0x44F7 DUP2 PUSH2 0x42A0 JUMP JUMPDEST SWAP1 POP SWAP2 SWAP1 POP JUMP JUMPDEST PUSH1 0x0 PUSH1 0x20 DUP3 ADD SWAP1 POP DUP2 DUP2 SUB PUSH1 0x0 DUP4 ADD MSTORE PUSH2 0x4517 DUP2 PUSH2 0x42E0 JUMP JUMPDEST SWAP1 POP SWAP2 SWAP1 POP JUMP JUMPDEST PUSH1 0x0 PUSH1 0x20 DUP3 ADD SWAP1 POP PUSH2 0x4533 PUSH1 0x0 DUP4 ADD DUP5 PUSH2 0x4320 JUMP JUMPDEST SWAP3 SWAP2 POP POP JUMP JUMPDEST PUSH1 0x0 PUSH1 0x40 DUP3 ADD SWAP1 POP PUSH2 0x454E PUSH1 0x0 DUP4 ADD DUP6 PUSH2 0x4320 JUMP JUMPDEST PUSH2 0x455B PUSH1 0x20 DUP4 ADD DUP5 PUSH2 0x40D8 JUMP JUMPDEST SWAP4 SWAP3 POP POP POP JUMP JUMPDEST PUSH1 0x0 PUSH1 0x40 DUP3 ADD SWAP1 POP PUSH2 0x4577 PUSH1 0x0 DUP4 ADD DUP6 PUSH2 0x4320 JUMP JUMPDEST PUSH2 0x4584 PUSH1 0x20 DUP4 ADD DUP5 PUSH2 0x4320 JUMP JUMPDEST SWAP4 SWAP3 POP POP POP JUMP JUMPDEST PUSH1 0x0 PUSH1 0x80 DUP3 ADD SWAP1 POP PUSH2 0x45A0 PUSH1 0x0 DUP4 ADD DUP8 PUSH2 0x4320 JUMP JUMPDEST PUSH2 0x45AD PUSH1 0x20 DUP4 ADD DUP7 PUSH2 0x4320 JUMP JUMPDEST PUSH2 0x45BA PUSH1 0x40 DUP4 ADD DUP6 PUSH2 0x4320 JUMP JUMPDEST PUSH2 0x45C7 PUSH1 0x60 DUP4 ADD DUP5 PUSH2 0x4320 JUMP JUMPDEST SWAP6 SWAP5 POP POP POP POP POP JUMP JUMPDEST PUSH1 0x0 PUSH1 0x40 MLOAD SWAP1 POP DUP2 DUP2 ADD DUP2 DUP2 LT PUSH8 0xFFFFFFFFFFFFFFFF DUP3 GT OR ISZERO PUSH2 0x45F7 JUMPI PUSH2 0x45F6 PUSH2 0x480C JUMP JUMPDEST JUMPDEST DUP1 PUSH1 0x40 MSTORE POP SWAP2 SWAP1 POP JUMP JUMPDEST PUSH1 0x0 PUSH8 0xFFFFFFFFFFFFFFFF DUP3 GT ISZERO PUSH2 0x461C JUMPI PUSH2 0x461B PUSH2 0x480C JUMP JUMPDEST JUMPDEST PUSH1 0x1F NOT PUSH1 0x1F DUP4 ADD AND SWAP1 POP PUSH1 0x20 DUP2 ADD SWAP1 POP SWAP2 SWAP1 POP JUMP JUMPDEST PUSH1 0x0 DUP2 MLOAD SWAP1 POP SWAP2 SWAP1 POP JUMP JUMPDEST PUSH1 0x0 DUP3 DUP3 MSTORE PUSH1 0x20 DUP3 ADD SWAP1 POP SWAP3 SWAP2 POP POP JUMP JUMPDEST PUSH1 0x0 PUSH2 0x4658 DUP3 PUSH2 0x4762 JUMP JUMPDEST SWAP2 POP PUSH2 0x4663 DUP4 PUSH2 0x4762 JUMP JUMPDEST SWAP3 POP DUP3 PUSH32 0xFFFFFFFFFFFFFFFFFFFFFFFFFFFFFFFFFFFFFFFFFFFFFFFFFFFFFFFFFFFFFFFF SUB DUP3 GT ISZERO PUSH2 0x4698 JUMPI PUSH2 0x4697 PUSH2 0x47AE JUMP JUMPDEST JUMPDEST DUP3 DUP3 ADD SWAP1 POP SWAP3 SWAP2 POP POP JUMP JUMPDEST PUSH1 0x0 PUSH2 0x46AE DUP3 PUSH2 0x4762 JUMP JUMPDEST SWAP2 POP PUSH2 0x46B9 DUP4 PUSH2 0x4762 JUMP JUMPDEST SWAP3 POP DUP3 PUSH2 0x46C9 JUMPI PUSH2 0x46C8 PUSH2 0x47DD JUMP JUMPDEST JUMPDEST DUP3 DUP3 DIV SWAP1 POP SWAP3 SWAP2 POP POP JUMP JUMPDEST PUSH1 0x0 PUSH2 0x46DF DUP3 PUSH2 0x4762 JUMP JUMPDEST SWAP2 POP PUSH2 0x46EA DUP4 PUSH2 0x4762 JUMP JUMPDEST SWAP3 POP DUP3 DUP3 LT ISZERO PUSH2 0x46FD JUMPI PUSH2 0x46FC PUSH2 0x47AE JUMP JUMPDEST JUMPDEST DUP3 DUP3 SUB SWAP1 POP SWAP3 SWAP2 POP POP JUMP JUMPDEST PUSH1 0x0 PUSH2 0x4713 DUP3 PUSH2 0x4742 JUMP JUMPDEST SWAP1 POP SWAP2 SWAP1 POP JUMP JUMPDEST PUSH1 0x0 PUSH2 0x4725 DUP3 PUSH2 0x4742 JUMP JUMPDEST SWAP1 POP SWAP2 SWAP1 POP JUMP JUMPDEST PUSH1 0x0 DUP2 ISZERO ISZERO SWAP1 POP SWAP2 SWAP1 POP JUMP JUMPDEST PUSH1 0x0 DUP2 SWAP1 POP SWAP2 SWAP1 POP JUMP JUMPDEST PUSH1 0x0 PUSH20 0xFFFFFFFFFFFFFFFFFFFFFFFFFFFFFFFFFFFFFFFF DUP3 AND SWAP1 POP SWAP2 SWAP1 POP JUMP JUMPDEST PUSH1 0x0 DUP2 SWAP1 POP SWAP2 SWAP1 POP JUMP JUMPDEST DUP3 DUP2 DUP4 CALLDATACOPY PUSH1 0x0 DUP4 DUP4 ADD MSTORE POP POP POP JUMP JUMPDEST PUSH1 0x0 JUMPDEST DUP4 DUP2 LT ISZERO PUSH2 0x4799 JUMPI DUP1 DUP3 ADD MLOAD DUP2 DUP5 ADD MSTORE PUSH1 0x20 DUP2 ADD SWAP1 POP PUSH2 0x477E JUMP JUMPDEST DUP4 DUP2 GT ISZERO PUSH2 0x47A8 JUMPI PUSH1 0x0 DUP5 DUP5 ADD MSTORE JUMPDEST POP POP POP POP JUMP JUMPDEST PUSH32 0x4E487B7100000000000000000000000000000000000000000000000000000000 PUSH1 0x0 MSTORE PUSH1 0x11 PUSH1 0x4 MSTORE PUSH1 0x24 PUSH1 0x0 REVERT JUMPDEST PUSH32 0x4E487B7100000000000000000000000000000000000000000000000000000000 PUSH1 0x0 MSTORE PUSH1 0x12 PUSH1 0x4 MSTORE PUSH1 0x24 PUSH1 0x0 REVERT JUMPDEST PUSH32 0x4E487B7100000000000000000000000000000000000000000000000000000000 PUSH1 0x0 MSTORE PUSH1 0x41 PUSH1 0x4 MSTORE PUSH1 0x24 PUSH1 0x0 REVERT JUMPDEST PUSH1 0x0 PUSH1 0x1F NOT PUSH1 0x1F DUP4 ADD AND SWAP1 POP SWAP2 SWAP1 POP JUMP JUMPDEST PUSH2 0x4855 DUP2 PUSH2 0x4708 JUMP JUMPDEST DUP2 EQ PUSH2 0x4860 JUMPI PUSH1 0x0 DUP1 REVERT JUMPDEST POP JUMP JUMPDEST PUSH2 0x486C DUP2 PUSH2 0x471A JUMP JUMPDEST DUP2 EQ PUSH2 0x4877 JUMPI PUSH1 0x0 DUP1 REVERT JUMPDEST POP JUMP JUMPDEST PUSH2 0x4883 DUP2 PUSH2 0x4738 JUMP JUMPDEST DUP2 EQ PUSH2 0x488E JUMPI PUSH1 0x0 DUP1 REVERT JUMPDEST POP JUMP JUMPDEST PUSH2 0x489A DUP2 PUSH2 0x4762 JUMP JUMPDEST DUP2 EQ PUSH2 0x48A5 JUMPI PUSH1 0x0 DUP1 REVERT JUMPDEST POP JUMP INVALID LOG2 PUSH5 0x6970667358 0x22 SLT KECCAK256 LOG2 SWAP8 PUSH18 0x909B8387D1593CB551F5FE143171E3AACE70 DUP2 0xC6 PUSH10 0xDFB20497F4D5C126473 PUSH16 0x6C634300080000330000000000000000 "
        },
        "methodIdentifiers": {
          "Campaigns(uint256)": "4013be10",
          "Funds(uint256)": "eee9b99e",
          "SaarthiTasks(uint256)": "6092a502",
          "UserTaskIDs(address,uint256)": "6946c5e9",
          "activeCampaignCnt()": "b063795c",
          "approval(address,address)": "e1270b6e",
          "billAmounts(address)": "c4d8fea7",
          "billUser(address,uint256)": "022decd9",
          "c_0x5a755f78(bytes32)": "7d4f6e7e",
          "c_0xd94ba50d(bytes32)": "483d6752",
          "campaignEnabled(address)": "9ff60711",
          "coordinatorAddress()": "82003b31",
          "createFund(bytes32,bytes32,address)": "0d3bb50f",
          "createTask(bytes32,uint256)": "6fbb5f62",
          "donateToCampaign(address)": "7c6abc82",
          "donateToFund(uint256)": "11cd13ac",
          "fileReport(bytes32,bytes32,string)": "f1fcc8e9",
          "fundCnt()": "cd5e5483",
          "hospitals(address)": "f093cf80",
          "nextTaskID()": "5af09fe2",
          "owner()": "8da5cb5b",
          "paused()": "5c975abb",
          "reportCnt()": "e3f2d24f",
          "startCampaign(bytes32)": "c06a260d",
          "stopCampaign()": "16f1bc22",
          "toggleAccessToAddress(address)": "4e1dd1a4",
          "toggleHospital(address)": "ec270353",
          "togglePause()": "c4ae3168",
          "totalDonationAmount()": "17849646",
          "totalDonationCnt()": "e1c7dbe3",
          "updateModelForTask(uint256,bytes32,address)": "22af0c0b",
          "updateOwner(address)": "880cdc31"
        }
      }
    }
  }
}