{
  "contracts/Saarthi.sol": {
    "Saarthi": {
      "abi": [
        {
          "inputs": [],
          "stateMutability": "nonpayable",
          "type": "constructor"
        },
        {
          "anonymous": false,
          "inputs": [
            {
              "indexed": true,
              "internalType": "uint256",
              "name": "taskID",
              "type": "uint256"
            },
            {
              "indexed": false,
              "internalType": "string",
              "name": "_modelHash",
              "type": "string"
            },
            {
              "indexed": false,
              "internalType": "uint256",
              "name": "_time",
              "type": "uint256"
            }
          ],
          "name": "modelUpdated",
          "type": "event"
        },
        {
          "anonymous": false,
          "inputs": [
            {
              "indexed": true,
              "internalType": "address",
              "name": "_from",
              "type": "address"
            },
            {
              "indexed": true,
              "internalType": "address",
              "name": "_to",
              "type": "address"
            },
            {
              "indexed": false,
              "internalType": "bool",
              "name": "_finalState",
              "type": "bool"
            }
          ],
          "name": "newApproval",
          "type": "event"
        },
        {
          "anonymous": false,
          "inputs": [
            {
              "indexed": true,
              "internalType": "address",
              "name": "_campaigner",
              "type": "address"
            },
            {
              "indexed": false,
              "internalType": "bytes32",
              "name": "_campaignData",
              "type": "bytes32"
            },
            {
              "indexed": false,
              "internalType": "uint256",
              "name": "_createdAt",
              "type": "uint256"
            }
          ],
          "name": "newCampaign",
          "type": "event"
        },
        {
          "anonymous": false,
          "inputs": [
            {
              "indexed": true,
              "internalType": "address",
              "name": "_campaigner",
              "type": "address"
            },
            {
              "indexed": true,
              "internalType": "address",
              "name": "_from",
              "type": "address"
            },
            {
              "indexed": false,
              "internalType": "uint256",
              "name": "amount",
              "type": "uint256"
            }
          ],
          "name": "newCampaignDonation",
          "type": "event"
        },
        {
          "anonymous": false,
          "inputs": [
            {
              "indexed": false,
              "internalType": "uint256",
              "name": "_fundIndex",
              "type": "uint256"
            },
            {
              "indexed": true,
              "internalType": "bytes32",
              "name": "_orgName",
              "type": "bytes32"
            },
            {
              "indexed": false,
              "internalType": "bytes32",
              "name": "_fundName",
              "type": "bytes32"
            }
          ],
          "name": "newFund",
          "type": "event"
        },
        {
          "anonymous": false,
          "inputs": [
            {
              "indexed": false,
              "internalType": "uint256",
              "name": "_fundIndex",
              "type": "uint256"
            },
            {
              "indexed": true,
              "internalType": "address",
              "name": "_sender",
              "type": "address"
            },
            {
              "indexed": true,
              "internalType": "address",
              "name": "_receiver",
              "type": "address"
            },
            {
              "indexed": false,
              "internalType": "uint256",
              "name": "_amount",
              "type": "uint256"
            }
          ],
          "name": "newFundDonation",
          "type": "event"
        },
        {
          "anonymous": false,
          "inputs": [
            {
              "indexed": true,
              "internalType": "uint256",
              "name": "_index",
              "type": "uint256"
            },
            {
              "indexed": true,
              "internalType": "address",
              "name": "_reporter",
              "type": "address"
            },
            {
              "indexed": true,
              "internalType": "bytes32",
              "name": "_location",
              "type": "bytes32"
            },
            {
              "indexed": false,
              "internalType": "bytes32",
              "name": "_file",
              "type": "bytes32"
            },
            {
              "indexed": false,
              "internalType": "string",
              "name": "_details",
              "type": "string"
            },
            {
              "indexed": false,
              "internalType": "uint256",
              "name": "_time",
              "type": "uint256"
            }
          ],
          "name": "newReport",
          "type": "event"
        },
        {
          "anonymous": false,
          "inputs": [
            {
              "indexed": true,
              "internalType": "uint256",
              "name": "taskID",
              "type": "uint256"
            },
            {
              "indexed": true,
              "internalType": "address",
              "name": "_user",
              "type": "address"
            },
            {
              "indexed": false,
              "internalType": "string",
              "name": "_modelHash",
              "type": "string"
            },
            {
              "indexed": false,
              "internalType": "uint256",
              "name": "_amt",
              "type": "uint256"
            },
            {
              "indexed": false,
              "internalType": "uint256",
              "name": "_time",
              "type": "uint256"
            }
          ],
          "name": "newTaskCreated",
          "type": "event"
        },
        {
          "inputs": [
            {
              "internalType": "uint256",
              "name": "",
              "type": "uint256"
            }
          ],
          "name": "Campaigns",
          "outputs": [
            {
              "internalType": "address",
              "name": "",
              "type": "address"
            }
          ],
          "stateMutability": "view",
          "type": "function"
        },
        {
          "inputs": [
            {
              "internalType": "uint256",
              "name": "",
              "type": "uint256"
            }
          ],
          "name": "Funds",
          "outputs": [
            {
              "internalType": "address payable",
              "name": "",
              "type": "address"
            }
          ],
          "stateMutability": "view",
          "type": "function"
        },
        {
          "inputs": [
            {
              "internalType": "uint256",
              "name": "",
              "type": "uint256"
            }
          ],
          "name": "SaarthiTasks",
          "outputs": [
            {
              "internalType": "uint256",
              "name": "taskID",
              "type": "uint256"
            },
            {
              "internalType": "uint256",
              "name": "currentRound",
              "type": "uint256"
            },
            {
              "internalType": "uint256",
              "name": "totalRounds",
              "type": "uint256"
            },
            {
              "internalType": "uint256",
              "name": "cost",
              "type": "uint256"
            }
          ],
          "stateMutability": "view",
          "type": "function"
        },
        {
          "inputs": [],
          "name": "UserCnt",
          "outputs": [
            {
              "internalType": "uint256",
              "name": "",
              "type": "uint256"
            }
          ],
          "stateMutability": "view",
          "type": "function"
        },
        {
          "inputs": [
            {
              "internalType": "address",
              "name": "",
              "type": "address"
            },
            {
              "internalType": "uint256",
              "name": "",
              "type": "uint256"
            }
          ],
          "name": "UserTaskIDs",
          "outputs": [
            {
              "internalType": "uint256",
              "name": "",
              "type": "uint256"
            }
          ],
          "stateMutability": "view",
          "type": "function"
        },
        {
          "inputs": [
            {
              "internalType": "address",
              "name": "",
              "type": "address"
            }
          ],
          "name": "Users",
          "outputs": [
            {
              "internalType": "address payable",
              "name": "userAddress",
              "type": "address"
            },
            {
              "internalType": "uint256",
              "name": "billAmount",
              "type": "uint256"
            }
          ],
          "stateMutability": "view",
          "type": "function"
        },
        {
          "inputs": [],
          "name": "activeCampaignCnt",
          "outputs": [
            {
              "internalType": "uint256",
              "name": "",
              "type": "uint256"
            }
          ],
          "stateMutability": "view",
          "type": "function"
        },
        {
          "inputs": [],
          "name": "addUser",
          "outputs": [],
          "stateMutability": "nonpayable",
          "type": "function"
        },
        {
          "inputs": [
            {
              "internalType": "address",
              "name": "",
              "type": "address"
            },
            {
              "internalType": "address",
              "name": "",
              "type": "address"
            }
          ],
          "name": "approval",
          "outputs": [
            {
              "internalType": "bool",
              "name": "",
              "type": "bool"
            }
          ],
          "stateMutability": "view",
          "type": "function"
        },
        {
          "inputs": [
            {
              "internalType": "uint256",
              "name": "_amt",
              "type": "uint256"
            }
          ],
          "name": "billUser",
          "outputs": [],
          "stateMutability": "nonpayable",
          "type": "function"
        },
        {
          "inputs": [
            {
              "internalType": "bytes32",
              "name": "c__0x45b75de4",
              "type": "bytes32"
            }
          ],
          "name": "c_0x45b75de4",
          "outputs": [],
          "stateMutability": "pure",
          "type": "function"
        },
        {
          "inputs": [
            {
              "internalType": "address",
              "name": "",
              "type": "address"
            }
          ],
          "name": "campaignEnabled",
          "outputs": [
            {
              "internalType": "bool",
              "name": "",
              "type": "bool"
            }
          ],
          "stateMutability": "view",
          "type": "function"
        },
        {
          "inputs": [
            {
              "internalType": "bytes32",
              "name": "_orgName",
              "type": "bytes32"
            },
            {
              "internalType": "bytes32",
              "name": "_fundName",
              "type": "bytes32"
            },
            {
              "internalType": "address payable",
              "name": "_orgAdress",
              "type": "address"
            }
          ],
          "name": "createFund",
          "outputs": [],
          "stateMutability": "nonpayable",
          "type": "function"
        },
        {
          "inputs": [
            {
              "internalType": "string",
              "name": "_modelHash",
              "type": "string"
            },
            {
              "internalType": "uint256",
              "name": "_rounds",
              "type": "uint256"
            }
          ],
          "name": "createTask",
          "outputs": [],
          "stateMutability": "payable",
          "type": "function"
        },
        {
          "inputs": [
            {
              "internalType": "address",
              "name": "_user",
              "type": "address"
            }
          ],
          "name": "donateToCampaign",
          "outputs": [],
          "stateMutability": "payable",
          "type": "function"
        },
        {
          "inputs": [
            {
              "internalType": "uint256",
              "name": "_fundIndex",
              "type": "uint256"
            }
          ],
          "name": "donateToFund",
          "outputs": [],
          "stateMutability": "payable",
          "type": "function"
        },
        {
          "inputs": [
            {
              "internalType": "bytes32",
              "name": "_location",
              "type": "bytes32"
            },
            {
              "internalType": "bytes32",
              "name": "_file",
              "type": "bytes32"
            },
            {
              "internalType": "string",
              "name": "_details",
              "type": "string"
            }
          ],
          "name": "fileReport",
          "outputs": [],
          "stateMutability": "nonpayable",
          "type": "function"
        },
        {
          "inputs": [],
          "name": "fundCnt",
          "outputs": [
            {
              "internalType": "uint256",
              "name": "",
              "type": "uint256"
            }
          ],
          "stateMutability": "view",
          "type": "function"
        },
        {
          "inputs": [],
          "name": "getTaskCount",
          "outputs": [
            {
              "internalType": "uint256",
              "name": "",
              "type": "uint256"
            }
          ],
          "stateMutability": "view",
          "type": "function"
        },
        {
          "inputs": [],
          "name": "getTasksOfUser",
          "outputs": [
            {
              "internalType": "uint256[]",
              "name": "",
              "type": "uint256[]"
            }
          ],
          "stateMutability": "view",
          "type": "function"
        },
        {
          "inputs": [],
          "name": "paused",
          "outputs": [
            {
              "internalType": "bool",
              "name": "",
              "type": "bool"
            }
          ],
          "stateMutability": "view",
          "type": "function"
        },
        {
          "inputs": [],
          "name": "reportCnt",
          "outputs": [
            {
              "internalType": "uint256",
              "name": "",
              "type": "uint256"
            }
          ],
          "stateMutability": "view",
          "type": "function"
        },
        {
          "inputs": [
            {
              "internalType": "bytes32",
              "name": "_campaignData",
              "type": "bytes32"
            }
          ],
          "name": "startCampaign",
          "outputs": [],
          "stateMutability": "nonpayable",
          "type": "function"
        },
        {
          "inputs": [],
          "name": "stopCampaign",
          "outputs": [],
          "stateMutability": "nonpayable",
          "type": "function"
        },
        {
          "inputs": [
            {
              "internalType": "address",
              "name": "_address",
              "type": "address"
            }
          ],
          "name": "toggleAccessToAddress",
          "outputs": [],
          "stateMutability": "nonpayable",
          "type": "function"
        },
        {
          "inputs": [],
          "name": "togglePause",
          "outputs": [],
          "stateMutability": "nonpayable",
          "type": "function"
        },
        {
          "inputs": [],
          "name": "totalDonationAmount",
          "outputs": [
            {
              "internalType": "uint256",
              "name": "",
              "type": "uint256"
            }
          ],
          "stateMutability": "view",
          "type": "function"
        },
        {
          "inputs": [],
          "name": "totalDonationCnt",
          "outputs": [
            {
              "internalType": "uint256",
              "name": "",
              "type": "uint256"
            }
          ],
          "stateMutability": "view",
          "type": "function"
        },
        {
          "inputs": [
            {
              "internalType": "uint256",
              "name": "_taskID",
              "type": "uint256"
            },
            {
              "internalType": "string",
              "name": "_modelHash",
              "type": "string"
            },
            {
              "internalType": "address payable",
              "name": "computer",
              "type": "address"
            }
          ],
          "name": "updateModelForTask",
          "outputs": [],
          "stateMutability": "nonpayable",
          "type": "function"
        },
        {
          "inputs": [
            {
              "internalType": "address",
              "name": "_newOwner",
              "type": "address"
            }
          ],
          "name": "updateOwner",
          "outputs": [],
          "stateMutability": "nonpayable",
          "type": "function"
        }
      ],
      "evm": {
        "bytecode": {
          "linkReferences": {},
          "object": "608060405273beb71662ff9c08afef3866f85a6591d4aebe6e4e600160006101000a81548173ffffffffffffffffffffffffffffffffffffffff021916908373ffffffffffffffffffffffffffffffffffffffff1602179055506000600160146101000a81548160ff0219169083151502179055506001600255600060065560006009556000600b556000600c556000600d556000600f55348015620000a457600080fd5b50620000d97f351148545eec8ed71e6eabd40d456a1efe35c81319a7803d48b6f788f3f9588a60001b6200018760201b60201c565b6200010d7fbd49278397d4cd90c4ff13165067722146d6a66b33698c5c2054a787bbbb579f60001b6200018760201b60201c565b620001417fc07c4a25027e9a0929799bf6e3033c90f8db400b66e3e91aa36ef239b3d53c6460001b6200018760201b60201c565b336000806101000a81548173ffffffffffffffffffffffffffffffffffffffff021916908373ffffffffffffffffffffffffffffffffffffffff1602179055506200018a565b50565b6158bc806200019a6000396000f3fe6080604052600436106101cd5760003560e01c806399b956a0116100f7578063d6857f1511610095578063e3f2d24f11610064578063e3f2d24f1461062b578063eee9b99e14610656578063f1fcc8e914610693578063f819d88a146106bc576101cd565b8063d6857f151461056f578063df8fc3fd14610598578063e1270b6e146105c3578063e1c7dbe314610600576101cd565b8063c06a260d116100d1578063c06a260d146104d9578063c17a340e14610502578063c4ae31681461052d578063cd5e548314610544576101cd565b806399b956a0146104335780639ff6071114610471578063b063795c146104ae576101cd565b80634e1dd1a41161016f57806375a269a51161013e57806375a269a51461039a5780637c6abc82146103c3578063880cdc31146103df578063974cf54614610408576101cd565b80634e1dd1a4146102c95780635c975abb146102f25780636092a5021461031d5780636946c5e91461035d576101cd565b806316f1bc22116101ab57806316f1bc2214610233578063178496461461024a5780634013be1014610275578063455c928c146102b2576101cd565b806304fe2b34146101d25780630d3bb50f146101ee57806311cd13ac14610217575b600080fd5b6101ec60048036038101906101e79190614c9c565b6106e5565b005b3480156101fa57600080fd5b5061021560048036038101906102109190614be6565b610e55565b005b610231600480360381019061022c9190614cf0565b6111eb565b005b34801561023f57600080fd5b5061024861170a565b005b34801561025657600080fd5b5061025f611a89565b60405161026c9190615462565b60405180910390f35b34801561028157600080fd5b5061029c60048036038101906102979190614cf0565b611a8f565b6040516102a9919061516f565b60405180910390f35b3480156102be57600080fd5b506102c7611ace565b005b3480156102d557600080fd5b506102f060048036038101906102eb9190614b1c565b611fc4565b005b3480156102fe57600080fd5b506103076122af565b60405161031491906151f0565b60405180910390f35b34801561032957600080fd5b50610344600480360381019061033f9190614cf0565b6122c2565b60405161035494939291906154cf565b60405180910390f35b34801561036957600080fd5b50610384600480360381019061037f9190614b81565b6122f2565b6040516103919190615462565b60405180910390f35b3480156103a657600080fd5b506103c160048036038101906103bc9190614d19565b612323565b005b6103dd60048036038101906103d89190614b1c565b612b31565b005b3480156103eb57600080fd5b5061040660048036038101906104019190614b1c565b612fbf565b005b34801561041457600080fd5b5061041d6131c4565b60405161042a9190615462565b60405180910390f35b34801561043f57600080fd5b5061045a60048036038101906104559190614b1c565b6131ca565b6040516104689291906151a5565b60405180910390f35b34801561047d57600080fd5b5061049860048036038101906104939190614b1c565b61320e565b6040516104a591906151f0565b60405180910390f35b3480156104ba57600080fd5b506104c361322e565b6040516104d09190615462565b60405180910390f35b3480156104e557600080fd5b5061050060048036038101906104fb9190614bbd565b613234565b005b34801561050e57600080fd5b50610517613695565b6040516105249190615462565b60405180910390f35b34801561053957600080fd5b50610542613736565b005b34801561055057600080fd5b50610559613924565b6040516105669190615462565b60405180910390f35b34801561057b57600080fd5b5061059660048036038101906105919190614cf0565b61392a565b005b3480156105a457600080fd5b506105ad613d2c565b6040516105ba91906151ce565b60405180910390f35b3480156105cf57600080fd5b506105ea60048036038101906105e59190614b45565b613e45565b6040516105f791906151f0565b60405180910390f35b34801561060c57600080fd5b50610615613e74565b6040516106229190615462565b60405180910390f35b34801561063757600080fd5b50610640613e7a565b60405161064d9190615462565b60405180910390f35b34801561066257600080fd5b5061067d60048036038101906106789190614cf0565b613e80565b60405161068a919061518a565b60405180910390f35b34801561069f57600080fd5b506106ba60048036038101906106b59190614c35565b613eb3565b005b3480156106c857600080fd5b506106e360048036038101906106de9190614bbd565b61415d565b005b6107117fc71f195b146e0b4ea55644e46f58d5fc06416efd624b761f5d11b9fe63ff174d60001b61415d565b61073d7ffb3d9b9aed05128ab75fdbadeb1e8b79c2f4228afdad39231d0058241945880c60001b61415d565b6107697fa72e17ceb34f7ce02f2c2e6d5ce17b97fe2ba669cbc5f6f1943a9690a92d7e3260001b61415d565b6107957f53c4bf237e5a22b55c98de33b05a209ef38536da15e7b03f927f0ca548a20c3860001b61415d565b60001515600160149054906101000a900460ff161515146107eb576040517f08c379a00000000000000000000000000000000000000000000000000000000081526004016107e290615402565b60405180910390fd5b6108177f268f2c1e10f709c9ac1a4d344641c89e7e1e6b000443ae380e606ea8d91cff0160001b61415d565b6108437f790450d6aa1298d299fb2a250f89418fc335666b0ffa263278877692c9cd84ef60001b61415d565b61086f7f267b680800bfff5b5fe6f94455f17bd5159c6a7bc23553d41d8997c53e73e71260001b61415d565b61089b7f0312673af3c021e0986d49634a04db17fb1630f55126497c16852c3bb05fbacc60001b61415d565b6108c77fd0f37709ae85fb67e9dd78b6e5ac6808fa19c9f6b2a903cba1af63390bd3ed9c60001b61415d565b6108f37f64e3d7f5b2c644a8a221fd90585f8cb60dba87eb8782b3703ded3fc5aa94fb7e60001b61415d565b600a8110610936576040517f08c379a000000000000000000000000000000000000000000000000000000000815260040161092d90615382565b60405180910390fd5b6109627ff6df036e17e1e1b7ccc27fe0f65ce06ac883be7ef0e408b7f0ea34d41149aa1a60001b61415d565b61098e7fe0423c28e980c32cdfaa9c8608448570e60172042276d26bb7ae78865fd104f760001b61415d565b6109ba7f4b5fdfef9445c386c20ce288808122f07c8dd585a9f6e8b03f5f5444ec922dfe60001b61415d565b60003490506109eb7fa113121580226ef9580cf693346293383fa8fdc5d19b5836b1e817ffb28ea02360001b61415d565b610a177fc09528265bb049e56a60f675aa96a87ac4824f75319d798ec12707c53e99835b60001b61415d565b610a1f6148ca565b610a4b7f3ebe39eaaaa21223096ddd348f48591a44ec0e9f7f79b75eb57065eee8b01b9560001b61415d565b610a777f5176396825a81a13f6691020ad56e04e47812afffaf19c7203db81aafc11e36e60001b61415d565b6040518060a001604052806002548152602001600181526020018481526020018381526020018467ffffffffffffffff811115610add577f4e487b7100000000000000000000000000000000000000000000000000000000600052604160045260246000fd5b604051908082528060200260200182016040528015610b1057816020015b6060815260200190600190039081610afb5790505b508152509050610b427f506ca2feabaed101084df40cc14d8c8eca67090ec907a58248ba5d4bc2dccb8960001b61415d565b610b6e7f908cff76bb3182a4f2bef38c4ad871922327012bfeafab89fce0dc6d41f34d8c60001b61415d565b838160800151600081518110610bad577f4e487b7100000000000000000000000000000000000000000000000000000000600052603260045260246000fd5b6020026020010181905250610be47f9450348719cd1bfda4806a9bfde516f7d450a5c3deac228a6e99c7f66dce278660001b61415d565b610c107f8ed4675a215a81cef45a214cb9282791912d13bceff3f9a8de6235d6de5add1960001b61415d565b80600360006002548152602001908152602001600020600082015181600001556020820151816001015560408201518160020155606082015181600301556080820151816004019080519060200190610c6a9291906148f9565b50905050610c9a7febd934e72cc1964f5e7f94a5b07879566148d19050f6c68dcc73df75e25563ab60001b61415d565b610cc67f9dbf6e85ef32325055c96b5c27910ff72e9a2ce7e64ac1815644d307271ee56e60001b61415d565b600460003373ffffffffffffffffffffffffffffffffffffffff1673ffffffffffffffffffffffffffffffffffffffff1681526020019081526020016000206002549080600181540180825580915050600190039060005260206000200160009091909190915055610d5a7fdf28b0f54dd1ca9e11ad454dfa9d8f41e7c66a73e54b38cba7f93c681721b67e60001b61415d565b610d867f6a6551005aab060a3684f2f981155dc6899477a811ddff767c4c4bc7e713cf2960001b61415d565b3373ffffffffffffffffffffffffffffffffffffffff166002547fceb55fb99742a0d2305c686897f79e89483a9725c0f5493808c9a4787f2a875a868542604051610dd3939291906152c4565b60405180910390a3610e077f2f689551beaa90fbbc25fc528d0fb4d53773cf416ed2b863128a23f051b31e6f60001b61415d565b610e337fc9fbc0a3295a79f9879db01a9dd47579ffb820a355e72805cb826907b88142dc60001b61415d565b610e49600160025461416090919063ffffffff16565b60028190555050505050565b610e817fc71f195b146e0b4ea55644e46f58d5fc06416efd624b761f5d11b9fe63ff174d60001b61415d565b610ead7ffb3d9b9aed05128ab75fdbadeb1e8b79c2f4228afdad39231d0058241945880c60001b61415d565b610ed97fa72e17ceb34f7ce02f2c2e6d5ce17b97fe2ba669cbc5f6f1943a9690a92d7e3260001b61415d565b610f057f53c4bf237e5a22b55c98de33b05a209ef38536da15e7b03f927f0ca548a20c3860001b61415d565b60001515600160149054906101000a900460ff16151514610f5b576040517f08c379a0000000000000000000000000000000000000000000000000000000008152600401610f5290615402565b60405180910390fd5b610f877f268f2c1e10f709c9ac1a4d344641c89e7e1e6b000443ae380e606ea8d91cff0160001b61415d565b610fb37f790450d6aa1298d299fb2a250f89418fc335666b0ffa263278877692c9cd84ef60001b61415d565b610fdf7f7956248bdcc80c0286fb37f42a52df0a73c538ad1bef7454125f46e87fe55b2260001b61415d565b61100b7f8d6295d57a0945cffaaaeca2d276477a87b72591612799e1ed277dbec0c04abe60001b61415d565b6110377f596b8bb235069f6510d957c61d653c8a7047b4c2f839f81ae27c5df74e1969f060001b61415d565b60006001600b5461104891906155ca565b90506110767f338ce0a691d96627eb75917dc70896c0381041351dcc21da02d15559d499002060001b61415d565b6110a27f146518baf36f407501be27c16605a9c57fb72d2039d192b6d1f8aeed46ebffed60001b61415d565b81600e600083815260200190815260200160002060006101000a81548173ffffffffffffffffffffffffffffffffffffffff021916908373ffffffffffffffffffffffffffffffffffffffff1602179055506111207f075e18aafe576863c00037b08a73b26df156f9ccc8a26836435a7fececa0860560001b61415d565b61114c7f17ecbe84297ddd637a4a0b0c11edc019acc48115647f9bce44beb05737d9963d60001b61415d565b80600b8190555061117f7f9da2e85d2780696654bfb6fb986b94afcf7bf054b901d90825fca8b4a108f44760001b61415d565b6111ab7f245f6f7ec6ad7ef51f8f1f1005ce79cd94785ea3054c252d7768b8a6904c9a8660001b61415d565b837fb99663894dc2a2c66382f63932042aa530244fe0af348b833f4cddea9cfbeb7182856040516111dd92919061547d565b60405180910390a250505050565b6112177fc71f195b146e0b4ea55644e46f58d5fc06416efd624b761f5d11b9fe63ff174d60001b61415d565b6112437ffb3d9b9aed05128ab75fdbadeb1e8b79c2f4228afdad39231d0058241945880c60001b61415d565b61126f7fa72e17ceb34f7ce02f2c2e6d5ce17b97fe2ba669cbc5f6f1943a9690a92d7e3260001b61415d565b61129b7f53c4bf237e5a22b55c98de33b05a209ef38536da15e7b03f927f0ca548a20c3860001b61415d565b60001515600160149054906101000a900460ff161515146112f1576040517f08c379a00000000000000000000000000000000000000000000000000000000081526004016112e890615402565b60405180910390fd5b61131d7f268f2c1e10f709c9ac1a4d344641c89e7e1e6b000443ae380e606ea8d91cff0160001b61415d565b6113497f790450d6aa1298d299fb2a250f89418fc335666b0ffa263278877692c9cd84ef60001b61415d565b6113757f03a044d0c06654562b1876887887bc8159556895ec7d54a976896be63b21433b60001b61415d565b6113a17fdaa7b6d52f2f08d030bf3049cc63cd357f37931bb0678801fac96d56e49f343260001b61415d565b6113cd7f284b5fd88f2382328607880db900eaf51c03a874cfbf5da52cb72814a617bcdb60001b61415d565b6113f97f1b140688d17bca23ef53d321c11d52a0114c95594b893a76dbc022f34bb81c4660001b61415d565b600b5481111561143e576040517f08c379a0000000000000000000000000000000000000000000000000000000008152600401611435906153a2565b60405180910390fd5b61146a7f5bd603ea7567a274f4909535343200366c204edbcea7324a2234d5afba3c4fcc60001b61415d565b6114967ff347a8156a442153ae395546cf3ef5964357ca70352e8181054e5543dcff6d6860001b61415d565b6114c27f9184fbf70bca49c397d6b0c30280a2b35a1234e6db0892ba0f6d21c3c906ebda60001b61415d565b34600c546114d091906155ca565b600c819055506115027f87ceea1a5aacd009ee3051fc015b7f0f1c83e3c689b69b30d73d3a8d11df1e9660001b61415d565b61152e7f494e895c9a01e4a87f79f47c872bc44c93f1b9e9cf8bc3684e681c24b17a72b760001b61415d565b6001600d5461153d91906155ca565b600d8190555061156f7f45146c14678961bfba1baf0c0d1201a4146b59db04ea394ed825fe813e94deaa60001b61415d565b61159b7f14c8000fb69aa7df615e5d1549ad38af7446d769e0f1e5d9002fe109eba25a7660001b61415d565b600e600082815260200190815260200160002060009054906101000a900473ffffffffffffffffffffffffffffffffffffffff1673ffffffffffffffffffffffffffffffffffffffff166108fc349081150290604051600060405180830381858888f19350505050158015611614573d6000803e3d6000fd5b506116417f7b2dab6e6055508de1fccad943f96a0a8014507adab780b9161c393c5ef732aa60001b61415d565b61166d7fe3fa295495ab2128e71578f5a8a141621482aad80afa89a59fec38693e0a933260001b61415d565b600e600082815260200190815260200160002060009054906101000a900473ffffffffffffffffffffffffffffffffffffffff1673ffffffffffffffffffffffffffffffffffffffff163373ffffffffffffffffffffffffffffffffffffffff167f2317347462a70f36eb7bac6fb953aca2cd01eb3bcdf5f359babe909811eaed6783346040516116ff9291906154a6565b60405180910390a350565b6117367fc71f195b146e0b4ea55644e46f58d5fc06416efd624b761f5d11b9fe63ff174d60001b61415d565b6117627ffb3d9b9aed05128ab75fdbadeb1e8b79c2f4228afdad39231d0058241945880c60001b61415d565b61178e7fa72e17ceb34f7ce02f2c2e6d5ce17b97fe2ba669cbc5f6f1943a9690a92d7e3260001b61415d565b6117ba7f53c4bf237e5a22b55c98de33b05a209ef38536da15e7b03f927f0ca548a20c3860001b61415d565b60001515600160149054906101000a900460ff16151514611810576040517f08c379a000000000000000000000000000000000000000000000000000000000815260040161180790615402565b60405180910390fd5b61183c7f268f2c1e10f709c9ac1a4d344641c89e7e1e6b000443ae380e606ea8d91cff0160001b61415d565b6118687f790450d6aa1298d299fb2a250f89418fc335666b0ffa263278877692c9cd84ef60001b61415d565b6118947febf56a36298d859367a24d367ed16c571f26a64fa1edc689a80e2bfe5eb87fb560001b61415d565b6118c07fe0b3bacb52e8ef23ae33fad1c81d962e07758d1e708402d929ec1441a7c41d6d60001b61415d565b6118ec7fc9b57e5e6dc77b050857626fb07b9785d40e5c768fefc4928c77c03f2155e1b560001b61415d565b6119187fb8cf42bc2f5b6d48744c9c321d44544142a94a1c677044dacab053f5d83f123e60001b61415d565b60011515600a60003373ffffffffffffffffffffffffffffffffffffffff1673ffffffffffffffffffffffffffffffffffffffff16815260200190815260200160002060009054906101000a900460ff161515146119ab576040517f08c379a00000000000000000000000000000000000000000000000000000000081526004016119a290615362565b60405180910390fd5b6119d77f2382a1b4230db00b66ff8d9ab9c6bd09072489cee079970522afad059dab976060001b61415d565b611a037f5227590e610ef959b968837663e88fe489fa58baeabb33cac0e3dcfcd5c2cc8660001b61415d565b611a2f7ff50f1dcb8158963f4a6905d46a792f559c567d51e0d340892c039c0f65c04c5c60001b61415d565b6000600a60003373ffffffffffffffffffffffffffffffffffffffff1673ffffffffffffffffffffffffffffffffffffffff16815260200190815260200160002060006101000a81548160ff021916908315150217905550565b600c5481565b60088181548110611a9f57600080fd5b906000526020600020016000915054906101000a900473ffffffffffffffffffffffffffffffffffffffff1681565b611afa7fc71f195b146e0b4ea55644e46f58d5fc06416efd624b761f5d11b9fe63ff174d60001b61415d565b611b267ffb3d9b9aed05128ab75fdbadeb1e8b79c2f4228afdad39231d0058241945880c60001b61415d565b611b527fa72e17ceb34f7ce02f2c2e6d5ce17b97fe2ba669cbc5f6f1943a9690a92d7e3260001b61415d565b611b7e7f53c4bf237e5a22b55c98de33b05a209ef38536da15e7b03f927f0ca548a20c3860001b61415d565b60001515600160149054906101000a900460ff16151514611bd4576040517f08c379a0000000000000000000000000000000000000000000000000000000008152600401611bcb90615402565b60405180910390fd5b611c007f268f2c1e10f709c9ac1a4d344641c89e7e1e6b000443ae380e606ea8d91cff0160001b61415d565b611c2c7f790450d6aa1298d299fb2a250f89418fc335666b0ffa263278877692c9cd84ef60001b61415d565b611c587f25582ba627805aedc55a3a6d9f0c02fe054899c5daee60dada145e17f922c34660001b61415d565b611c847f482b108bbe890af997b9e0873b576b107148169ab57f3360d4f8501562ef72c160001b61415d565b611cb07f0e6f16cd767bf2ec6f228434ec4045400a58e1998c49cac9dbb5d18dab2d456160001b61415d565b611cdc7f205fa39a1037141ca04ed454d7016cdc5db68ae49ac1b35bad2e577616b9650360001b61415d565b600073ffffffffffffffffffffffffffffffffffffffff16600560003373ffffffffffffffffffffffffffffffffffffffff1673ffffffffffffffffffffffffffffffffffffffff16815260200190815260200160002060000160009054906101000a900473ffffffffffffffffffffffffffffffffffffffff1673ffffffffffffffffffffffffffffffffffffffff1614611dad576040517f08c379a0000000000000000000000000000000000000000000000000000000008152600401611da4906153e2565b60405180910390fd5b611dd97fb2a0a7c82ba4392bcc94b9dba37bdae0b3dcfafbb6e37bbdda76c1c4acdf11ab60001b61415d565b611e057f245f789c8d15cbe5b17279d76edd7d9d04811d4de8b531b952ab7198fbb70e6d60001b61415d565b611e317f3cb702236bcfcddb131636dbde437cd7c0a8b86d5c27e2f55159bea67ae4ef7060001b61415d565b600060405180604001604052803373ffffffffffffffffffffffffffffffffffffffff16815260200160008152509050611e8d7fa09822104d853c16e67c3dcf43a8ef3e4d06ba2866a79483332a8a10efcdf21a60001b61415d565b611eb97fe3508fc9a3bc3b715ab4d25858301031420c7b740bce657b8ba0e0f8e7e7f1d260001b61415d565b80600560003373ffffffffffffffffffffffffffffffffffffffff1673ffffffffffffffffffffffffffffffffffffffff16815260200190815260200160002060008201518160000160006101000a81548173ffffffffffffffffffffffffffffffffffffffff021916908373ffffffffffffffffffffffffffffffffffffffff16021790555060208201518160010155905050611f797f99bab1ca48017e0b3612d64e651634e37e5f70a4ab3c21b4e3a81f9e01902f4c60001b61415d565b611fa57fa970eff358020bab5a5b0437aff0748545ba216af61e39da6e76dcbce911520f60001b61415d565b611fbb600160065461416090919063ffffffff16565b60068190555050565b611ff07f61a13786217982c88a501c936643e3ac4b386eebc0535fe48bd536045f140efe60001b61415d565b61201c7f75477101b0d1d35c773f51106c03bc06574132a73542ecb25d33cc55e52c544f60001b61415d565b6120487f6071302b2a8ccc3d58a69f8fe7922fb7b0d01985ae4c053ede62dcb4e058f7c360001b61415d565b600760003373ffffffffffffffffffffffffffffffffffffffff1673ffffffffffffffffffffffffffffffffffffffff16815260200190815260200160002060008273ffffffffffffffffffffffffffffffffffffffff1673ffffffffffffffffffffffffffffffffffffffff16815260200190815260200160002060009054906101000a900460ff1615600760003373ffffffffffffffffffffffffffffffffffffffff1673ffffffffffffffffffffffffffffffffffffffff16815260200190815260200160002060008373ffffffffffffffffffffffffffffffffffffffff1673ffffffffffffffffffffffffffffffffffffffff16815260200190815260200160002060006101000a81548160ff0219169083151502179055506121927ffdbbda053875e912f898c2033dc8b8e1e5a8a041500e2376c9c7f8bf3be60d8060001b61415d565b6121be7f1a814a99a2cd17a5bd6a03ef6475b2b039a2fd3fe23c9baad88629e5a81aa78160001b61415d565b8073ffffffffffffffffffffffffffffffffffffffff163373ffffffffffffffffffffffffffffffffffffffff167fad77d1d38ed980518f1c26c8cd8fe0cc39ba4e9092e1b5f69f0bd23ff1de97fb600760003373ffffffffffffffffffffffffffffffffffffffff1673ffffffffffffffffffffffffffffffffffffffff16815260200190815260200160002060008573ffffffffffffffffffffffffffffffffffffffff1673ffffffffffffffffffffffffffffffffffffffff16815260200190815260200160002060009054906101000a900460ff166040516122a491906151f0565b60405180910390a350565b600160149054906101000a900460ff1681565b60036020528060005260406000206000915090508060000154908060010154908060020154908060030154905084565b6004602052816000526040600020818154811061230e57600080fd5b90600052602060002001600091509150505481565b61234f7fc71f195b146e0b4ea55644e46f58d5fc06416efd624b761f5d11b9fe63ff174d60001b61415d565b61237b7ffb3d9b9aed05128ab75fdbadeb1e8b79c2f4228afdad39231d0058241945880c60001b61415d565b6123a77fa72e17ceb34f7ce02f2c2e6d5ce17b97fe2ba669cbc5f6f1943a9690a92d7e3260001b61415d565b6123d37f53c4bf237e5a22b55c98de33b05a209ef38536da15e7b03f927f0ca548a20c3860001b61415d565b60001515600160149054906101000a900460ff16151514612429576040517f08c379a000000000000000000000000000000000000000000000000000000000815260040161242090615402565b60405180910390fd5b6124557f268f2c1e10f709c9ac1a4d344641c89e7e1e6b000443ae380e606ea8d91cff0160001b61415d565b6124817f790450d6aa1298d299fb2a250f89418fc335666b0ffa263278877692c9cd84ef60001b61415d565b6124ad7f1371d1076b9b1e60ae9eb08ecb1e8495de1fec883498b29ec8771a7eb2f727ec60001b61415d565b6124d97f2f06c43f04f932d26f063c8a8794fa6309ae9e7c6840cb023411f45b83544ace60001b61415d565b6125057fb247728a9de89f23937117ec692a63f6bb9fc5610c7bc357c10dac348c0d0b9260001b61415d565b6125317f153c5d6685a1137c4ccd3c28107eaac4d097e459fed44e6afb7cacf7eafa10d860001b61415d565b600160009054906101000a900473ffffffffffffffffffffffffffffffffffffffff1673ffffffffffffffffffffffffffffffffffffffff163373ffffffffffffffffffffffffffffffffffffffff16146125c1576040517f08c379a00000000000000000000000000000000000000000000000000000000081526004016125b890615422565b60405180910390fd5b6125ed7f3efaaad9b26819f03b547685cf602ea71c70d85d06f6f687955a944bdd9674c360001b61415d565b6126197f2726c645549d562ab056ad44b6db50011e6fbd8e3f35d7de5867e2546961cf8860001b61415d565b6126457fb12be0ac61572e0ce39cb9070223785b3434962a57ffe0dc10581df021f1bf5c60001b61415d565b6126717f14e21cb0cf653a95e255b79e967e23866db07fb960db42848cc0daf40462121c60001b61415d565b6002548311156126b6576040517f08c379a00000000000000000000000000000000000000000000000000000000081526004016126ad906153c2565b60405180910390fd5b6126e27f8923f462e764a838261f2207f1a170463365da748c29f639e9162c3d7cd3338d60001b61415d565b61270e7f2f46e1e9267bee9898dbe4dc6b8a50d2d751434a578b6f5d4d1f1f8ceebc8f3660001b61415d565b61273a7fda710d8446a33e7d0f99d893efc6df63cb02207598d53355f4a38b6151ffa36660001b61415d565b60006127666001600360008781526020019081526020016000206001015461416090919063ffffffff16565b90506127947f32609f8aa7b29995f0b6d72241ebf1c757607f9afc410016061edaf18e16b0a660001b61415d565b6127c07f74094790ffedb54bb7924177d2fdbe0eb049e862bad598c412658bed8660172460001b61415d565b6127ec7fc1502852cf29d07628589acf0aad50c29d5526627327ae55d3e488d7bd0112d860001b61415d565b6003600085815260200190815260200160002060020154811115612845576040517f08c379a000000000000000000000000000000000000000000000000000000000815260040161283c90615302565b60405180910390fd5b6128717f684ca994a5f639fb5e7c38a2da1821169329c58d0f8abc315458a4ca457c016360001b61415d565b61289d7f6e97a0663889d32d1a9b3da52116ddc4c96c2b01f1136efa8ae9b6a140518af860001b61415d565b6128c97fab542b2b744deaf013231f498034359384741b906f8aebd533f0d16c5926c6ee60001b61415d565b8060036000868152602001908152602001600020600101819055506129107f13b5f38f60efaf09022c1aa201f8b084418ad2c397df5cb87c35be2e5add198160001b61415d565b61293c7fe1318c1c25fd5c7a5166aa558bd4021b018d5f416ec2f0e6592ff0dbca9875fc60001b61415d565b826003600086815260200190815260200160002060040161296760018461434b90919063ffffffff16565b8154811061299e577f4e487b7100000000000000000000000000000000000000000000000000000000600052603260045260246000fd5b9060005260206000200190805190602001906129bb929190614959565b506129e87f0f0c2cf026ef0539a66d25d49c836d4aa44a6b578d60497d21bdbe2a8f8c0d3a60001b61415d565b612a147f3466cb0c889771c198fcd42e640646889b0dd5508b7a0bca719c458dead56fcd60001b61415d565b8173ffffffffffffffffffffffffffffffffffffffff166108fc612a6d6003600088815260200190815260200160002060020154600360008981526020019081526020016000206003015461441990919063ffffffff16565b9081150290604051600060405180830381858888f19350505050158015612a98573d6000803e3d6000fd5b50612ac57f4fa8d0dfa506ec8887c1bb800dd5b8db9605adb6e299d2325e594f72f2a0ce1a60001b61415d565b612af17f900b499cefad2e4779865327ca8462b08792345ae75b40fd92f90d37f1abffc760001b61415d565b837fb8b9b7420ce876fd147a9284d5eed5f709fc3faafb9e8cdf3c6ece72e002e8c78442604051612b23929190615294565b60405180910390a250505050565b612b5d7fc71f195b146e0b4ea55644e46f58d5fc06416efd624b761f5d11b9fe63ff174d60001b61415d565b612b897ffb3d9b9aed05128ab75fdbadeb1e8b79c2f4228afdad39231d0058241945880c60001b61415d565b612bb57fa72e17ceb34f7ce02f2c2e6d5ce17b97fe2ba669cbc5f6f1943a9690a92d7e3260001b61415d565b612be17f53c4bf237e5a22b55c98de33b05a209ef38536da15e7b03f927f0ca548a20c3860001b61415d565b60001515600160149054906101000a900460ff16151514612c37576040517f08c379a0000000000000000000000000000000000000000000000000000000008152600401612c2e90615402565b60405180910390fd5b612c637f268f2c1e10f709c9ac1a4d344641c89e7e1e6b000443ae380e606ea8d91cff0160001b61415d565b612c8f7f790450d6aa1298d299fb2a250f89418fc335666b0ffa263278877692c9cd84ef60001b61415d565b612cbb7f2181d09900d58dc62529e6b2eb3b3acf033550de3caf700d7bdb81c2c974b24a60001b61415d565b612ce77fcb1bad3df8116447e0e90d081d01a284a3d79afec4452d1fd854803394fa5c6960001b61415d565b612d137f391b3138f561933aaceb12c1f39e842e09dddb38fc678aa95bbbefac4c0bd07760001b61415d565b612d3f7f07ccc9c27d5e27d451e7076248ec317913cbc28eacc1ff2177167464d3a5993860001b61415d565b60011515600a60008373ffffffffffffffffffffffffffffffffffffffff1673ffffffffffffffffffffffffffffffffffffffff16815260200190815260200160002060009054906101000a900460ff16151514612dd2576040517f08c379a0000000000000000000000000000000000000000000000000000000008152600401612dc990615362565b60405180910390fd5b612dfe7fa17a2405735831e36f38ddadb81e6ecf068db410344cb57e536ae14821a2809660001b61415d565b612e2a7f318af0ed1a7c8ea345be3892941a902623a72ba80480729a0f37dfda6591afd060001b61415d565b612e567f15275d64a3c6d837216c9200a326693f355d86b5944603521ff0b56c6e1fac0460001b61415d565b600560003373ffffffffffffffffffffffffffffffffffffffff1673ffffffffffffffffffffffffffffffffffffffff16815260200190815260200160002060000160009054906101000a900473ffffffffffffffffffffffffffffffffffffffff1673ffffffffffffffffffffffffffffffffffffffff166108fc349081150290604051600060405180830381858888f19350505050158015612efe573d6000803e3d6000fd5b50612f2b7fd7fa872ea526eff1a59ee8b3585038ca149f347fe8c479402bc3c5f9959006cf60001b61415d565b612f577f72f97ed46b211ea7d8be0573561555660921894de4ac27391c0fa5e712e34be960001b61415d565b3373ffffffffffffffffffffffffffffffffffffffff168173ffffffffffffffffffffffffffffffffffffffff167f1d3ff44814877759fdcdec2bace42d6e7e7c1b84ca040ba5d3b4ef988ffd908e34604051612fb49190615462565b60405180910390a350565b612feb7f0fee3e5de9495bb74d9c5958178104516b9d1bcc792b3bb98600249caa81d70860001b61415d565b6130177f5903c40f8b294cc86f9cfd6f514045c38b95288364ebde207b8091549bdc7d4c60001b61415d565b6130437ffaa00da45e366c9e8331926740019d8a652b39976954162c68a0d4b32a35928860001b61415d565b61306f7ff55fb2e6ee54e7e14ad70e3ffbee732cde80fc7158c13301ffebd9cef3967e1a60001b61415d565b60008054906101000a900473ffffffffffffffffffffffffffffffffffffffff1673ffffffffffffffffffffffffffffffffffffffff163373ffffffffffffffffffffffffffffffffffffffff16146130fd576040517f08c379a00000000000000000000000000000000000000000000000000000000081526004016130f490615442565b60405180910390fd5b6131297fd40f7952e63acb9b8f42166db3b4d3b6b19a79b2effb733944da172dc74b35ea60001b61415d565b6131557fc300045696be0c95e5103e1f1eed4fbdc1a2579679cef3e531b18e87abce05d260001b61415d565b6131817fb8eef1f4cde30854d084b0504cf5120c0149a577ebf732e0b74fbe1a48b7b9a760001b61415d565b806000806101000a81548173ffffffffffffffffffffffffffffffffffffffff021916908373ffffffffffffffffffffffffffffffffffffffff16021790555050565b60065481565b60056020528060005260406000206000915090508060000160009054906101000a900473ffffffffffffffffffffffffffffffffffffffff16908060010154905082565b600a6020528060005260406000206000915054906101000a900460ff1681565b60095481565b6132607fc71f195b146e0b4ea55644e46f58d5fc06416efd624b761f5d11b9fe63ff174d60001b61415d565b61328c7ffb3d9b9aed05128ab75fdbadeb1e8b79c2f4228afdad39231d0058241945880c60001b61415d565b6132b87fa72e17ceb34f7ce02f2c2e6d5ce17b97fe2ba669cbc5f6f1943a9690a92d7e3260001b61415d565b6132e47f53c4bf237e5a22b55c98de33b05a209ef38536da15e7b03f927f0ca548a20c3860001b61415d565b60001515600160149054906101000a900460ff1615151461333a576040517f08c379a000000000000000000000000000000000000000000000000000000000815260040161333190615402565b60405180910390fd5b6133667f268f2c1e10f709c9ac1a4d344641c89e7e1e6b000443ae380e606ea8d91cff0160001b61415d565b6133927f790450d6aa1298d299fb2a250f89418fc335666b0ffa263278877692c9cd84ef60001b61415d565b6133be7f8419d955cf417bf7d42193c589580130ef55beb1fbfbca67398141b896c6653260001b61415d565b6133ea7faa45742862f510ef09632f6b6d62f48e3b4bd9188e05fadf01c8cca1a1cce13d60001b61415d565b6134167f6d1ac415865119095b559cb9a0ae456bcdabd26d80cce1b472e98a5d0bd6440260001b61415d565b60001515600a60003373ffffffffffffffffffffffffffffffffffffffff1673ffffffffffffffffffffffffffffffffffffffff16815260200190815260200160002060009054906101000a900460ff16151514156135bd5761349b7f97ad15f85e8fdab41edcf799a2446973506c31f01a7837ae9b9515b1028c52f960001b61415d565b6134c77f529b5c3a556d6a2fc0262597dc861d7ab57cd8f6dbdf2ac370ff9f645b21ccba60001b61415d565b6134f37f37dcbf08b2640f199c5a0ffbba9346fd136a1aa199760df5013b9052dd14ed1160001b61415d565b6001600a60003373ffffffffffffffffffffffffffffffffffffffff1673ffffffffffffffffffffffffffffffffffffffff16815260200190815260200160002060006101000a81548160ff0219169083151502179055506135777f157d1acd1eed00778c7429b0617de70b6abffe87ec9ff53391c1e963f5ff54b760001b61415d565b6135a37ff8b3fb0058864120677cca0424dab8b9c2922cae142f4bb5684911a97c0b69ca60001b61415d565b60016009546135b291906155ca565b6009819055506135ea565b6135e97f6aeb4c264bebe60f1253aa01b9dd79d51424071ab257b7749c3f2cd5e0a42d3a60001b61415d565b5b6136167feb3dd82a6e0ddd2030e1ad75f0a5a6dfa8e94b80a9bb986911e065f773434bfc60001b61415d565b6136427fd8f76a59bc805f3970cd3115fba0cb54ad172547a8af2c6cbc8fc99c6c0a7cae60001b61415d565b3373ffffffffffffffffffffffffffffffffffffffff167f070ebb08109e8151dd49dec1ba08cec18082514f31659837d36c851b908860ce824260405161368a929190615249565b60405180910390a250565b60006136c37fd83473adaf58935b598bd2198376b2375125ef326cb9e70975d3aad1e3278abd60001b61415d565b6136ef7fb79c8aed8a8dfc570575d534b9ef68cecafd4e55d3a6889750a02bd55ae17f8860001b61415d565b61371b7f9176d896f46b3049a20442bd32522701b77402a65cc1b740014cfdf24da9925e60001b61415d565b613731600160025461434b90919063ffffffff16565b905090565b6137627f8e381a2146a8e9d281e81c8a26de2ee9cda812b387ab8e20cb8c2f0459ae791160001b61415d565b61378e7f0a8302e7efb75282e8970e4c21e31e0f8786b9b1a5e3bf86fb7cbc8a366abb7f60001b61415d565b6137ba7fe2f7d537aacfb828b028d402e22cedfd3c34c877075f397f27f98d90333c77b360001b61415d565b6137e67f38e8fe15f18d453b0885191849c88e55790286d073131058117dfa01f57ae28060001b61415d565b60008054906101000a900473ffffffffffffffffffffffffffffffffffffffff1673ffffffffffffffffffffffffffffffffffffffff163373ffffffffffffffffffffffffffffffffffffffff1614613874576040517f08c379a000000000000000000000000000000000000000000000000000000000815260040161386b90615442565b60405180910390fd5b6138a07ff21cbb9bed72b9426862f7c9124c69b76bbb852f05c676e63225cb10aa41a7ba60001b61415d565b6138cc7f24e8a29091ae93c8252500093d5cc574300a771350d349ccfb4b8bb29ddf244b60001b61415d565b6138f87f900adc877284a8ad8b0eca708d5eefce074e7131e02720d1004d0d1cc75c632e60001b61415d565b600160149054906101000a900460ff1615600160146101000a81548160ff021916908315150217905550565b600b5481565b6139567fc71f195b146e0b4ea55644e46f58d5fc06416efd624b761f5d11b9fe63ff174d60001b61415d565b6139827ffb3d9b9aed05128ab75fdbadeb1e8b79c2f4228afdad39231d0058241945880c60001b61415d565b6139ae7fa72e17ceb34f7ce02f2c2e6d5ce17b97fe2ba669cbc5f6f1943a9690a92d7e3260001b61415d565b6139da7f53c4bf237e5a22b55c98de33b05a209ef38536da15e7b03f927f0ca548a20c3860001b61415d565b60001515600160149054906101000a900460ff16151514613a30576040517f08c379a0000000000000000000000000000000000000000000000000000000008152600401613a2790615402565b60405180910390fd5b613a5c7f268f2c1e10f709c9ac1a4d344641c89e7e1e6b000443ae380e606ea8d91cff0160001b61415d565b613a887f790450d6aa1298d299fb2a250f89418fc335666b0ffa263278877692c9cd84ef60001b61415d565b613ab47f7884c0536b6de464cd2df5114ca1e7fa44811b9411ec8cf0530c5d1f0ba39aea60001b61415d565b613ae07f75e12f58ab3aded0c8d4f3c9b1f9b475bb4628afbf6684203cec2da39e6b3b1560001b61415d565b613b0c7f9668363c521a760c76e5a87a0313707804771db8307ef5eefc8a47b1924ecd7b60001b61415d565b613b387fdf7e18476e5ea5aac99ca3c7bccc54fedb531e56fd039ff6cc69f2954d13e73660001b61415d565b600073ffffffffffffffffffffffffffffffffffffffff16600560003373ffffffffffffffffffffffffffffffffffffffff1673ffffffffffffffffffffffffffffffffffffffff16815260200190815260200160002060000160009054906101000a900473ffffffffffffffffffffffffffffffffffffffff1673ffffffffffffffffffffffffffffffffffffffff161415613c0a576040517f08c379a0000000000000000000000000000000000000000000000000000000008152600401613c0190615342565b60405180910390fd5b613c367fc03e87bb2099c16cc807d36447d1135ddda75c6bb707ed393cc0e25a42a228f060001b61415d565b613c627f3c65e6088aaae5b7ebca52a1b70a3d3260efb1a82a7afb46c98a02abf5666d2e60001b61415d565b613c8e7f594ee1b618b56b08296406302a2c071f09774c7982baf38cdffc1bc8a22cf6e160001b61415d565b613ce381600560003373ffffffffffffffffffffffffffffffffffffffff1673ffffffffffffffffffffffffffffffffffffffff1681526020019081526020016000206001015461416090919063ffffffff16565b600560003373ffffffffffffffffffffffffffffffffffffffff1673ffffffffffffffffffffffffffffffffffffffff1681526020019081526020016000206001018190555050565b6060613d5a7f36ea9ac53f155d2c839353aa8fc3f78bb317035daa41f061e646c19fff0ebcd660001b61415d565b613d867f3c37a9d6680f7dd04d404287737b71a8a008b273f5d9354424507b56045fbceb60001b61415d565b613db27fed125bf2a5ab857fdbcbabf4859328b26bbf20e8705ab804b399d3fb89bcb22260001b61415d565b600460003373ffffffffffffffffffffffffffffffffffffffff1673ffffffffffffffffffffffffffffffffffffffff168152602001908152602001600020805480602002602001604051908101604052809291908181526020018280548015613e3b57602002820191906000526020600020905b815481526020019060010190808311613e27575b5050505050905090565b60076020528160005260406000206020528060005260406000206000915091509054906101000a900460ff1681565b600d5481565b600f5481565b600e6020528060005260406000206000915054906101000a900473ffffffffffffffffffffffffffffffffffffffff1681565b613edf7fc71f195b146e0b4ea55644e46f58d5fc06416efd624b761f5d11b9fe63ff174d60001b61415d565b613f0b7ffb3d9b9aed05128ab75fdbadeb1e8b79c2f4228afdad39231d0058241945880c60001b61415d565b613f377fa72e17ceb34f7ce02f2c2e6d5ce17b97fe2ba669cbc5f6f1943a9690a92d7e3260001b61415d565b613f637f53c4bf237e5a22b55c98de33b05a209ef38536da15e7b03f927f0ca548a20c3860001b61415d565b60001515600160149054906101000a900460ff16151514613fb9576040517f08c379a0000000000000000000000000000000000000000000000000000000008152600401613fb090615402565b60405180910390fd5b613fe57f268f2c1e10f709c9ac1a4d344641c89e7e1e6b000443ae380e606ea8d91cff0160001b61415d565b6140117f790450d6aa1298d299fb2a250f89418fc335666b0ffa263278877692c9cd84ef60001b61415d565b61403d7f9f9ee82fe2419f7be8fe8f36b38dfd6d865412ebba96dadefce1488a8439844560001b61415d565b6140697fb0ca1bc4965b6f0807b7a2a325888204b8a1cc92bc2302c1fc8dbe9f8ea1783260001b61415d565b6140957f8ddc76987c5469c8ec8ded69bab3ce886bce590168f8ed74530e52254d44c68e60001b61415d565b823373ffffffffffffffffffffffffffffffffffffffff16600f547f3e1acfd5f2181de07799d35be451dbddfd093425b11baa4b85098d8f871e90a18585426040516140e39392919061520b565b60405180910390a46141177f4d959a2c1c785d572dd66855cbb5107b34015f72d9e1bd5a91b74e6eb573486560001b61415d565b6141437f0186d09906748b581b28df7ff9b33f0862204198c386ef367836df19d4c143ac60001b61415d565b6001600f5461415291906155ca565b600f81905550505050565b50565b600061418e7f218d62709b17e0ca0baed46495b428ebb8c198fa71f0312dbd02d9c007ef082e60001b6144e7565b6141ba7f1ed4d68beeb0abe30ae339330f3a5beb5bd83af99cb57c10ee65afd99ef90afa60001b6144e7565b6141e67fd34cae2bb4447a295976f225d447c691ec9ae876f38eff24d44892bd2a6843b760001b6144e7565b600082846141f491906155ca565b90506142227fa0175b8e9ecc81d48e6903e0c2203f1b037214b9d5482f4ad8bb9167ca63fe0460001b6144e7565b61424e7fa84f6e76d1624dab407577e5687d350f536070e0c67299ab82909214ee4c410d60001b6144e7565b61427a7f2953137a1acfe4407c68f225209162d1722ff40a5cbf0c975466f2e55c0deadd60001b6144e7565b838110156142bd576040517f08c379a00000000000000000000000000000000000000000000000000000000081526004016142b490615322565b60405180910390fd5b6142e97fc329ec6690583048b5cf461ae60426bd75a154f5d4aff34992c7fe6fbf5b410f60001b6144e7565b6143157f2d2be2dd26f59bf0b9c72e77d9087e92064ba727bb44f1ec697eae1ae0c32cea60001b6144e7565b6143417ff416ba67bd2c03d862ffc1b6332e62792cd9adc60443f62b4849c232d48152a760001b6144e7565b8091505092915050565b60006143797fe543c8e9ac153123df5f8785b44b8d1cebf62d3fc2a9f81c9dd5044ef7bf085460001b6144e7565b6143a57f61e824cb769e46211713df43a418324a89195cde8de699dba1262c4a993abdf760001b6144e7565b6143d17feca73675ff668d5114b02b759f83882f46494b51d09a28c0a95a4c033a6de52160001b6144e7565b61441183836040518060400160405280601e81526020017f536166654d6174683a207375627472616374696f6e206f766572666c6f7700008152506144ea565b905092915050565b60006144477fdbcc488ce83b5cbe7ec265983e225560b0d6767c5b55ae11aa479b306c73429d60001b6144e7565b6144737fdab171532eccd6151d071a03980d706a318a03d9df46c68bd53b23dfe0c395e860001b6144e7565b61449f7f01ae0f236aa2d0a3c94267859c671590856aa048cca797a53a8161aede9b138f60001b6144e7565b6144df83836040518060400160405280601a81526020017f536166654d6174683a206469766973696f6e206279207a65726f0000000000008152506146da565b905092915050565b50565b60006145187f1fbdee388bc94f7ea907cf86ed65659c4c0861b2f93ff35121373fbfb52d274c60001b6144e7565b6145447f1c9c8bce1f025f339bc1810ab2e3f83aab56bee51ce9509f4817c83ba73e3dd660001b6144e7565b6145707ff21b6312534b469447b32ba6f6dd02e5cfb9598f9162e54db5c209b522660b3d60001b6144e7565b61459c7fb6e8615a86e461dc7e295e53342fd6227f30932a37a41a0642c11b06f732cc8360001b6144e7565b8383111582906145e2576040517f08c379a00000000000000000000000000000000000000000000000000000000081526004016145d99190615272565b60405180910390fd5b5061460f7f60d2adb5fcf0a3d7bb239756df863a358684808efbbd094c875c474bf3182a6060001b6144e7565b61463b7f1ebc1335fc499d6cfe42183ce8c517294d1483b3eac6f023b43cd75afdc10fb460001b6144e7565b6146677f6013dec7bf92022588b386694c0fee4112cc6d9b9e752e5446c5d20c9ee19b5260001b6144e7565b600083856146759190615651565b90506146a37f2c5ff1ab89506049aa8c305b2e51bd302a6c341949b2ebeda9884a4b960f378860001b6144e7565b6146cf7fa0384b50a5d38e95ca16054e41fbc6a2b6a512051d479c02ce27a0cc70020aae60001b6144e7565b809150509392505050565b60006147087f10f0fc3b7fedc8cd8e35a9ad986a3106fc26556afd4b144e55e0335caeecae7a60001b6144e7565b6147347f3cbaf572a64fcabffe35bd89e41d1be291ec7cf1b22daef09230cf69b78cb5f860001b6144e7565b6147607fb19eaebbdd4e4003785eac5e00496f77f66114f1fe39dc76d1900b416fc2687960001b6144e7565b61478c7f3f1327f74afbc11ffc308eca19c96a62eced0c36708fec2e8a91e78b4a9437f160001b6144e7565b6000831182906147d2576040517f08c379a00000000000000000000000000000000000000000000000000000000081526004016147c99190615272565b60405180910390fd5b506147ff7f9709ea1cdebe77d02d2f74da0f0d3b784143dfa4f54d4efdb2c23e2fc3029b6360001b6144e7565b61482b7ffab9f000f1aab485df335837e7f839051ce6aa81445d7360a3c0848dea130eae60001b6144e7565b6148577f8b59ac7bd7cec3f5df0a4633161683d3e6dad43a0186693cd37272305933ea7460001b6144e7565b600083856148659190615620565b90506148937f5a5ca35639b76839f03e74809694bfc0735bfa5e9b1f9b13a4e52334acb47ee860001b6144e7565b6148bf7fe3d972f88e54e0121e68bfb67f0055bb6892665767a8ff4b7889c3a2a46da62e60001b6144e7565b809150509392505050565b6040518060a0016040528060008152602001600081526020016000815260200160008152602001606081525090565b828054828255906000526020600020908101928215614948579160200282015b82811115614947578251829080519060200190614937929190614959565b5091602001919060010190614919565b5b50905061495591906149df565b5090565b8280546149659061572b565b90600052602060002090601f01602090048101928261498757600085556149ce565b82601f106149a057805160ff19168380011785556149ce565b828001600101855582156149ce579182015b828111156149cd5782518255916020019190600101906149b2565b5b5090506149db9190614a03565b5090565b5b808211156149ff57600081816149f69190614a20565b506001016149e0565b5090565b5b80821115614a1c576000816000905550600101614a04565b5090565b508054614a2c9061572b565b6000825580601f10614a3e5750614a5d565b601f016020900490600052602060002090810190614a5c9190614a03565b5b50565b6000614a73614a6e84615545565b615514565b905082815260208101848484011115614a8b57600080fd5b614a968482856156e9565b509392505050565b600081359050614aad8161582a565b92915050565b600081359050614ac281615841565b92915050565b600081359050614ad781615858565b92915050565b600082601f830112614aee57600080fd5b8135614afe848260208601614a60565b91505092915050565b600081359050614b168161586f565b92915050565b600060208284031215614b2e57600080fd5b6000614b3c84828501614a9e565b91505092915050565b60008060408385031215614b5857600080fd5b6000614b6685828601614a9e565b9250506020614b7785828601614a9e565b9150509250929050565b60008060408385031215614b9457600080fd5b6000614ba285828601614a9e565b9250506020614bb385828601614b07565b9150509250929050565b600060208284031215614bcf57600080fd5b6000614bdd84828501614ac8565b91505092915050565b600080600060608486031215614bfb57600080fd5b6000614c0986828701614ac8565b9350506020614c1a86828701614ac8565b9250506040614c2b86828701614ab3565b9150509250925092565b600080600060608486031215614c4a57600080fd5b6000614c5886828701614ac8565b9350506020614c6986828701614ac8565b925050604084013567ffffffffffffffff811115614c8657600080fd5b614c9286828701614add565b9150509250925092565b60008060408385031215614caf57600080fd5b600083013567ffffffffffffffff811115614cc957600080fd5b614cd585828601614add565b9250506020614ce685828601614b07565b9150509250929050565b600060208284031215614d0257600080fd5b6000614d1084828501614b07565b91505092915050565b600080600060608486031215614d2e57600080fd5b6000614d3c86828701614b07565b935050602084013567ffffffffffffffff811115614d5957600080fd5b614d6586828701614add565b9250506040614d7686828701614ab3565b9150509250925092565b6000614d8c8383615151565b60208301905092915050565b614da181615697565b82525050565b614db081615685565b82525050565b6000614dc182615585565b614dcb81856155a8565b9350614dd683615575565b8060005b83811015614e07578151614dee8882614d80565b9750614df98361559b565b925050600181019050614dda565b5085935050505092915050565b614e1d816156a9565b82525050565b614e2c816156b5565b82525050565b6000614e3d82615590565b614e4781856155b9565b9350614e578185602086016156f8565b614e6081615819565b840191505092915050565b6000614e786014836155b9565b91507f416c6c20526f756e647320436f6d706c657465640000000000000000000000006000830152602082019050919050565b6000614eb8601b836155b9565b91507f536166654d6174683a206164646974696f6e206f766572666c6f7700000000006000830152602082019050919050565b6000614ef8600c836155b9565b91507f496e76616c6964205573657200000000000000000000000000000000000000006000830152602082019050919050565b6000614f386017836155b9565b91507f55736572206973206e6f742043616d706169676e696e670000000000000000006000830152602082019050919050565b6000614f786027836155b9565b91507f4e756d626572206f6620526f756e64732073686f756c64206265206c6573732060008301527f7468616e203130000000000000000000000000000000000000000000000000006020830152604082019050919050565b6000614fde600f836155b9565b91507f496e76616c69642046756e6420494400000000000000000000000000000000006000830152602082019050919050565b600061501e600f836155b9565b91507f496e76616c6964205461736b20494400000000000000000000000000000000006000830152602082019050919050565b600061505e6017836155b9565b91507f5573657220416c726561647920526567697374657265640000000000000000006000830152602082019050919050565b600061509e6012836155b9565b91507f436f6e74726163742069732050617573656400000000000000000000000000006000830152602082019050919050565b60006150de601d836155b9565b91507f596f7520617265206e6f742074686520636f6f7264696e61746f7220210000006000830152602082019050919050565b600061511e600a836155b9565b91507f4f6e6c79204f776e6572000000000000000000000000000000000000000000006000830152602082019050919050565b61515a816156df565b82525050565b615169816156df565b82525050565b60006020820190506151846000830184614da7565b92915050565b600060208201905061519f6000830184614d98565b92915050565b60006040820190506151ba6000830185614d98565b6151c76020830184615160565b9392505050565b600060208201905081810360008301526151e88184614db6565b905092915050565b60006020820190506152056000830184614e14565b92915050565b60006060820190506152206000830186614e23565b81810360208301526152328185614e32565b90506152416040830184615160565b949350505050565b600060408201905061525e6000830185614e23565b61526b6020830184615160565b9392505050565b6000602082019050818103600083015261528c8184614e32565b905092915050565b600060408201905081810360008301526152ae8185614e32565b90506152bd6020830184615160565b9392505050565b600060608201905081810360008301526152de8186614e32565b90506152ed6020830185615160565b6152fa6040830184615160565b949350505050565b6000602082019050818103600083015261531b81614e6b565b9050919050565b6000602082019050818103600083015261533b81614eab565b9050919050565b6000602082019050818103600083015261535b81614eeb565b9050919050565b6000602082019050818103600083015261537b81614f2b565b9050919050565b6000602082019050818103600083015261539b81614f6b565b9050919050565b600060208201905081810360008301526153bb81614fd1565b9050919050565b600060208201905081810360008301526153db81615011565b9050919050565b600060208201905081810360008301526153fb81615051565b9050919050565b6000602082019050818103600083015261541b81615091565b9050919050565b6000602082019050818103600083015261543b816150d1565b9050919050565b6000602082019050818103600083015261545b81615111565b9050919050565b60006020820190506154776000830184615160565b92915050565b60006040820190506154926000830185615160565b61549f6020830184614e23565b9392505050565b60006040820190506154bb6000830185615160565b6154c86020830184615160565b9392505050565b60006080820190506154e46000830187615160565b6154f16020830186615160565b6154fe6040830185615160565b61550b6060830184615160565b95945050505050565b6000604051905081810181811067ffffffffffffffff8211171561553b5761553a6157ea565b5b8060405250919050565b600067ffffffffffffffff8211156155605761555f6157ea565b5b601f19601f8301169050602081019050919050565b6000819050602082019050919050565b600081519050919050565b600081519050919050565b6000602082019050919050565b600082825260208201905092915050565b600082825260208201905092915050565b60006155d5826156df565b91506155e0836156df565b9250827fffffffffffffffffffffffffffffffffffffffffffffffffffffffffffffffff038211156156155761561461575d565b5b828201905092915050565b600061562b826156df565b9150615636836156df565b9250826156465761564561578c565b5b828204905092915050565b600061565c826156df565b9150615667836156df565b92508282101561567a5761567961575d565b5b828203905092915050565b6000615690826156bf565b9050919050565b60006156a2826156bf565b9050919050565b60008115159050919050565b6000819050919050565b600073ffffffffffffffffffffffffffffffffffffffff82169050919050565b6000819050919050565b82818337600083830152505050565b60005b838110156157165780820151818401526020810190506156fb565b83811115615725576000848401525b50505050565b6000600282049050600182168061574357607f821691505b60208210811415615757576157566157bb565b5b50919050565b7f4e487b7100000000000000000000000000000000000000000000000000000000600052601160045260246000fd5b7f4e487b7100000000000000000000000000000000000000000000000000000000600052601260045260246000fd5b7f4e487b7100000000000000000000000000000000000000000000000000000000600052602260045260246000fd5b7f4e487b7100000000000000000000000000000000000000000000000000000000600052604160045260246000fd5b6000601f19601f8301169050919050565b61583381615685565b811461583e57600080fd5b50565b61584a81615697565b811461585557600080fd5b50565b615861816156b5565b811461586c57600080fd5b50565b615878816156df565b811461588357600080fd5b5056fea2646970667358221220386f6b565a3558338bc0a488ed185a269629ad0ea95a3c46348cf0dcfbf3779664736f6c63430008000033",
          "opcodes": "PUSH1 0x80 PUSH1 0x40 MSTORE PUSH20 0xBEB71662FF9C08AFEF3866F85A6591D4AEBE6E4E PUSH1 0x1 PUSH1 0x0 PUSH2 0x100 EXP DUP2 SLOAD DUP2 PUSH20 0xFFFFFFFFFFFFFFFFFFFFFFFFFFFFFFFFFFFFFFFF MUL NOT AND SWAP1 DUP4 PUSH20 0xFFFFFFFFFFFFFFFFFFFFFFFFFFFFFFFFFFFFFFFF AND MUL OR SWAP1 SSTORE POP PUSH1 0x0 PUSH1 0x1 PUSH1 0x14 PUSH2 0x100 EXP DUP2 SLOAD DUP2 PUSH1 0xFF MUL NOT AND SWAP1 DUP4 ISZERO ISZERO MUL OR SWAP1 SSTORE POP PUSH1 0x1 PUSH1 0x2 SSTORE PUSH1 0x0 PUSH1 0x6 SSTORE PUSH1 0x0 PUSH1 0x9 SSTORE PUSH1 0x0 PUSH1 0xB SSTORE PUSH1 0x0 PUSH1 0xC SSTORE PUSH1 0x0 PUSH1 0xD SSTORE PUSH1 0x0 PUSH1 0xF SSTORE CALLVALUE DUP1 ISZERO PUSH3 0xA4 JUMPI PUSH1 0x0 DUP1 REVERT JUMPDEST POP PUSH3 0xD9 PUSH32 0x351148545EEC8ED71E6EABD40D456A1EFE35C81319A7803D48B6F788F3F9588A PUSH1 0x0 SHL PUSH3 0x187 PUSH1 0x20 SHL PUSH1 0x20 SHR JUMP JUMPDEST PUSH3 0x10D PUSH32 0xBD49278397D4CD90C4FF13165067722146D6A66B33698C5C2054A787BBBB579F PUSH1 0x0 SHL PUSH3 0x187 PUSH1 0x20 SHL PUSH1 0x20 SHR JUMP JUMPDEST PUSH3 0x141 PUSH32 0xC07C4A25027E9A0929799BF6E3033C90F8DB400B66E3E91AA36EF239B3D53C64 PUSH1 0x0 SHL PUSH3 0x187 PUSH1 0x20 SHL PUSH1 0x20 SHR JUMP JUMPDEST CALLER PUSH1 0x0 DUP1 PUSH2 0x100 EXP DUP2 SLOAD DUP2 PUSH20 0xFFFFFFFFFFFFFFFFFFFFFFFFFFFFFFFFFFFFFFFF MUL NOT AND SWAP1 DUP4 PUSH20 0xFFFFFFFFFFFFFFFFFFFFFFFFFFFFFFFFFFFFFFFF AND MUL OR SWAP1 SSTORE POP PUSH3 0x18A JUMP JUMPDEST POP JUMP JUMPDEST PUSH2 0x58BC DUP1 PUSH3 0x19A PUSH1 0x0 CODECOPY PUSH1 0x0 RETURN INVALID PUSH1 0x80 PUSH1 0x40 MSTORE PUSH1 0x4 CALLDATASIZE LT PUSH2 0x1CD JUMPI PUSH1 0x0 CALLDATALOAD PUSH1 0xE0 SHR DUP1 PUSH4 0x99B956A0 GT PUSH2 0xF7 JUMPI DUP1 PUSH4 0xD6857F15 GT PUSH2 0x95 JUMPI DUP1 PUSH4 0xE3F2D24F GT PUSH2 0x64 JUMPI DUP1 PUSH4 0xE3F2D24F EQ PUSH2 0x62B JUMPI DUP1 PUSH4 0xEEE9B99E EQ PUSH2 0x656 JUMPI DUP1 PUSH4 0xF1FCC8E9 EQ PUSH2 0x693 JUMPI DUP1 PUSH4 0xF819D88A EQ PUSH2 0x6BC JUMPI PUSH2 0x1CD JUMP JUMPDEST DUP1 PUSH4 0xD6857F15 EQ PUSH2 0x56F JUMPI DUP1 PUSH4 0xDF8FC3FD EQ PUSH2 0x598 JUMPI DUP1 PUSH4 0xE1270B6E EQ PUSH2 0x5C3 JUMPI DUP1 PUSH4 0xE1C7DBE3 EQ PUSH2 0x600 JUMPI PUSH2 0x1CD JUMP JUMPDEST DUP1 PUSH4 0xC06A260D GT PUSH2 0xD1 JUMPI DUP1 PUSH4 0xC06A260D EQ PUSH2 0x4D9 JUMPI DUP1 PUSH4 0xC17A340E EQ PUSH2 0x502 JUMPI DUP1 PUSH4 0xC4AE3168 EQ PUSH2 0x52D JUMPI DUP1 PUSH4 0xCD5E5483 EQ PUSH2 0x544 JUMPI PUSH2 0x1CD JUMP JUMPDEST DUP1 PUSH4 0x99B956A0 EQ PUSH2 0x433 JUMPI DUP1 PUSH4 0x9FF60711 EQ PUSH2 0x471 JUMPI DUP1 PUSH4 0xB063795C EQ PUSH2 0x4AE JUMPI PUSH2 0x1CD JUMP JUMPDEST DUP1 PUSH4 0x4E1DD1A4 GT PUSH2 0x16F JUMPI DUP1 PUSH4 0x75A269A5 GT PUSH2 0x13E JUMPI DUP1 PUSH4 0x75A269A5 EQ PUSH2 0x39A JUMPI DUP1 PUSH4 0x7C6ABC82 EQ PUSH2 0x3C3 JUMPI DUP1 PUSH4 0x880CDC31 EQ PUSH2 0x3DF JUMPI DUP1 PUSH4 0x974CF546 EQ PUSH2 0x408 JUMPI PUSH2 0x1CD JUMP JUMPDEST DUP1 PUSH4 0x4E1DD1A4 EQ PUSH2 0x2C9 JUMPI DUP1 PUSH4 0x5C975ABB EQ PUSH2 0x2F2 JUMPI DUP1 PUSH4 0x6092A502 EQ PUSH2 0x31D JUMPI DUP1 PUSH4 0x6946C5E9 EQ PUSH2 0x35D JUMPI PUSH2 0x1CD JUMP JUMPDEST DUP1 PUSH4 0x16F1BC22 GT PUSH2 0x1AB JUMPI DUP1 PUSH4 0x16F1BC22 EQ PUSH2 0x233 JUMPI DUP1 PUSH4 0x17849646 EQ PUSH2 0x24A JUMPI DUP1 PUSH4 0x4013BE10 EQ PUSH2 0x275 JUMPI DUP1 PUSH4 0x455C928C EQ PUSH2 0x2B2 JUMPI PUSH2 0x1CD JUMP JUMPDEST DUP1 PUSH4 0x4FE2B34 EQ PUSH2 0x1D2 JUMPI DUP1 PUSH4 0xD3BB50F EQ PUSH2 0x1EE JUMPI DUP1 PUSH4 0x11CD13AC EQ PUSH2 0x217 JUMPI JUMPDEST PUSH1 0x0 DUP1 REVERT JUMPDEST PUSH2 0x1EC PUSH1 0x4 DUP1 CALLDATASIZE SUB DUP2 ADD SWAP1 PUSH2 0x1E7 SWAP2 SWAP1 PUSH2 0x4C9C JUMP JUMPDEST PUSH2 0x6E5 JUMP JUMPDEST STOP JUMPDEST CALLVALUE DUP1 ISZERO PUSH2 0x1FA JUMPI PUSH1 0x0 DUP1 REVERT JUMPDEST POP PUSH2 0x215 PUSH1 0x4 DUP1 CALLDATASIZE SUB DUP2 ADD SWAP1 PUSH2 0x210 SWAP2 SWAP1 PUSH2 0x4BE6 JUMP JUMPDEST PUSH2 0xE55 JUMP JUMPDEST STOP JUMPDEST PUSH2 0x231 PUSH1 0x4 DUP1 CALLDATASIZE SUB DUP2 ADD SWAP1 PUSH2 0x22C SWAP2 SWAP1 PUSH2 0x4CF0 JUMP JUMPDEST PUSH2 0x11EB JUMP JUMPDEST STOP JUMPDEST CALLVALUE DUP1 ISZERO PUSH2 0x23F JUMPI PUSH1 0x0 DUP1 REVERT JUMPDEST POP PUSH2 0x248 PUSH2 0x170A JUMP JUMPDEST STOP JUMPDEST CALLVALUE DUP1 ISZERO PUSH2 0x256 JUMPI PUSH1 0x0 DUP1 REVERT JUMPDEST POP PUSH2 0x25F PUSH2 0x1A89 JUMP JUMPDEST PUSH1 0x40 MLOAD PUSH2 0x26C SWAP2 SWAP1 PUSH2 0x5462 JUMP JUMPDEST PUSH1 0x40 MLOAD DUP1 SWAP2 SUB SWAP1 RETURN JUMPDEST CALLVALUE DUP1 ISZERO PUSH2 0x281 JUMPI PUSH1 0x0 DUP1 REVERT JUMPDEST POP PUSH2 0x29C PUSH1 0x4 DUP1 CALLDATASIZE SUB DUP2 ADD SWAP1 PUSH2 0x297 SWAP2 SWAP1 PUSH2 0x4CF0 JUMP JUMPDEST PUSH2 0x1A8F JUMP JUMPDEST PUSH1 0x40 MLOAD PUSH2 0x2A9 SWAP2 SWAP1 PUSH2 0x516F JUMP JUMPDEST PUSH1 0x40 MLOAD DUP1 SWAP2 SUB SWAP1 RETURN JUMPDEST CALLVALUE DUP1 ISZERO PUSH2 0x2BE JUMPI PUSH1 0x0 DUP1 REVERT JUMPDEST POP PUSH2 0x2C7 PUSH2 0x1ACE JUMP JUMPDEST STOP JUMPDEST CALLVALUE DUP1 ISZERO PUSH2 0x2D5 JUMPI PUSH1 0x0 DUP1 REVERT JUMPDEST POP PUSH2 0x2F0 PUSH1 0x4 DUP1 CALLDATASIZE SUB DUP2 ADD SWAP1 PUSH2 0x2EB SWAP2 SWAP1 PUSH2 0x4B1C JUMP JUMPDEST PUSH2 0x1FC4 JUMP JUMPDEST STOP JUMPDEST CALLVALUE DUP1 ISZERO PUSH2 0x2FE JUMPI PUSH1 0x0 DUP1 REVERT JUMPDEST POP PUSH2 0x307 PUSH2 0x22AF JUMP JUMPDEST PUSH1 0x40 MLOAD PUSH2 0x314 SWAP2 SWAP1 PUSH2 0x51F0 JUMP JUMPDEST PUSH1 0x40 MLOAD DUP1 SWAP2 SUB SWAP1 RETURN JUMPDEST CALLVALUE DUP1 ISZERO PUSH2 0x329 JUMPI PUSH1 0x0 DUP1 REVERT JUMPDEST POP PUSH2 0x344 PUSH1 0x4 DUP1 CALLDATASIZE SUB DUP2 ADD SWAP1 PUSH2 0x33F SWAP2 SWAP1 PUSH2 0x4CF0 JUMP JUMPDEST PUSH2 0x22C2 JUMP JUMPDEST PUSH1 0x40 MLOAD PUSH2 0x354 SWAP5 SWAP4 SWAP3 SWAP2 SWAP1 PUSH2 0x54CF JUMP JUMPDEST PUSH1 0x40 MLOAD DUP1 SWAP2 SUB SWAP1 RETURN JUMPDEST CALLVALUE DUP1 ISZERO PUSH2 0x369 JUMPI PUSH1 0x0 DUP1 REVERT JUMPDEST POP PUSH2 0x384 PUSH1 0x4 DUP1 CALLDATASIZE SUB DUP2 ADD SWAP1 PUSH2 0x37F SWAP2 SWAP1 PUSH2 0x4B81 JUMP JUMPDEST PUSH2 0x22F2 JUMP JUMPDEST PUSH1 0x40 MLOAD PUSH2 0x391 SWAP2 SWAP1 PUSH2 0x5462 JUMP JUMPDEST PUSH1 0x40 MLOAD DUP1 SWAP2 SUB SWAP1 RETURN JUMPDEST CALLVALUE DUP1 ISZERO PUSH2 0x3A6 JUMPI PUSH1 0x0 DUP1 REVERT JUMPDEST POP PUSH2 0x3C1 PUSH1 0x4 DUP1 CALLDATASIZE SUB DUP2 ADD SWAP1 PUSH2 0x3BC SWAP2 SWAP1 PUSH2 0x4D19 JUMP JUMPDEST PUSH2 0x2323 JUMP JUMPDEST STOP JUMPDEST PUSH2 0x3DD PUSH1 0x4 DUP1 CALLDATASIZE SUB DUP2 ADD SWAP1 PUSH2 0x3D8 SWAP2 SWAP1 PUSH2 0x4B1C JUMP JUMPDEST PUSH2 0x2B31 JUMP JUMPDEST STOP JUMPDEST CALLVALUE DUP1 ISZERO PUSH2 0x3EB JUMPI PUSH1 0x0 DUP1 REVERT JUMPDEST POP PUSH2 0x406 PUSH1 0x4 DUP1 CALLDATASIZE SUB DUP2 ADD SWAP1 PUSH2 0x401 SWAP2 SWAP1 PUSH2 0x4B1C JUMP JUMPDEST PUSH2 0x2FBF JUMP JUMPDEST STOP JUMPDEST CALLVALUE DUP1 ISZERO PUSH2 0x414 JUMPI PUSH1 0x0 DUP1 REVERT JUMPDEST POP PUSH2 0x41D PUSH2 0x31C4 JUMP JUMPDEST PUSH1 0x40 MLOAD PUSH2 0x42A SWAP2 SWAP1 PUSH2 0x5462 JUMP JUMPDEST PUSH1 0x40 MLOAD DUP1 SWAP2 SUB SWAP1 RETURN JUMPDEST CALLVALUE DUP1 ISZERO PUSH2 0x43F JUMPI PUSH1 0x0 DUP1 REVERT JUMPDEST POP PUSH2 0x45A PUSH1 0x4 DUP1 CALLDATASIZE SUB DUP2 ADD SWAP1 PUSH2 0x455 SWAP2 SWAP1 PUSH2 0x4B1C JUMP JUMPDEST PUSH2 0x31CA JUMP JUMPDEST PUSH1 0x40 MLOAD PUSH2 0x468 SWAP3 SWAP2 SWAP1 PUSH2 0x51A5 JUMP JUMPDEST PUSH1 0x40 MLOAD DUP1 SWAP2 SUB SWAP1 RETURN JUMPDEST CALLVALUE DUP1 ISZERO PUSH2 0x47D JUMPI PUSH1 0x0 DUP1 REVERT JUMPDEST POP PUSH2 0x498 PUSH1 0x4 DUP1 CALLDATASIZE SUB DUP2 ADD SWAP1 PUSH2 0x493 SWAP2 SWAP1 PUSH2 0x4B1C JUMP JUMPDEST PUSH2 0x320E JUMP JUMPDEST PUSH1 0x40 MLOAD PUSH2 0x4A5 SWAP2 SWAP1 PUSH2 0x51F0 JUMP JUMPDEST PUSH1 0x40 MLOAD DUP1 SWAP2 SUB SWAP1 RETURN JUMPDEST CALLVALUE DUP1 ISZERO PUSH2 0x4BA JUMPI PUSH1 0x0 DUP1 REVERT JUMPDEST POP PUSH2 0x4C3 PUSH2 0x322E JUMP JUMPDEST PUSH1 0x40 MLOAD PUSH2 0x4D0 SWAP2 SWAP1 PUSH2 0x5462 JUMP JUMPDEST PUSH1 0x40 MLOAD DUP1 SWAP2 SUB SWAP1 RETURN JUMPDEST CALLVALUE DUP1 ISZERO PUSH2 0x4E5 JUMPI PUSH1 0x0 DUP1 REVERT JUMPDEST POP PUSH2 0x500 PUSH1 0x4 DUP1 CALLDATASIZE SUB DUP2 ADD SWAP1 PUSH2 0x4FB SWAP2 SWAP1 PUSH2 0x4BBD JUMP JUMPDEST PUSH2 0x3234 JUMP JUMPDEST STOP JUMPDEST CALLVALUE DUP1 ISZERO PUSH2 0x50E JUMPI PUSH1 0x0 DUP1 REVERT JUMPDEST POP PUSH2 0x517 PUSH2 0x3695 JUMP JUMPDEST PUSH1 0x40 MLOAD PUSH2 0x524 SWAP2 SWAP1 PUSH2 0x5462 JUMP JUMPDEST PUSH1 0x40 MLOAD DUP1 SWAP2 SUB SWAP1 RETURN JUMPDEST CALLVALUE DUP1 ISZERO PUSH2 0x539 JUMPI PUSH1 0x0 DUP1 REVERT JUMPDEST POP PUSH2 0x542 PUSH2 0x3736 JUMP JUMPDEST STOP JUMPDEST CALLVALUE DUP1 ISZERO PUSH2 0x550 JUMPI PUSH1 0x0 DUP1 REVERT JUMPDEST POP PUSH2 0x559 PUSH2 0x3924 JUMP JUMPDEST PUSH1 0x40 MLOAD PUSH2 0x566 SWAP2 SWAP1 PUSH2 0x5462 JUMP JUMPDEST PUSH1 0x40 MLOAD DUP1 SWAP2 SUB SWAP1 RETURN JUMPDEST CALLVALUE DUP1 ISZERO PUSH2 0x57B JUMPI PUSH1 0x0 DUP1 REVERT JUMPDEST POP PUSH2 0x596 PUSH1 0x4 DUP1 CALLDATASIZE SUB DUP2 ADD SWAP1 PUSH2 0x591 SWAP2 SWAP1 PUSH2 0x4CF0 JUMP JUMPDEST PUSH2 0x392A JUMP JUMPDEST STOP JUMPDEST CALLVALUE DUP1 ISZERO PUSH2 0x5A4 JUMPI PUSH1 0x0 DUP1 REVERT JUMPDEST POP PUSH2 0x5AD PUSH2 0x3D2C JUMP JUMPDEST PUSH1 0x40 MLOAD PUSH2 0x5BA SWAP2 SWAP1 PUSH2 0x51CE JUMP JUMPDEST PUSH1 0x40 MLOAD DUP1 SWAP2 SUB SWAP1 RETURN JUMPDEST CALLVALUE DUP1 ISZERO PUSH2 0x5CF JUMPI PUSH1 0x0 DUP1 REVERT JUMPDEST POP PUSH2 0x5EA PUSH1 0x4 DUP1 CALLDATASIZE SUB DUP2 ADD SWAP1 PUSH2 0x5E5 SWAP2 SWAP1 PUSH2 0x4B45 JUMP JUMPDEST PUSH2 0x3E45 JUMP JUMPDEST PUSH1 0x40 MLOAD PUSH2 0x5F7 SWAP2 SWAP1 PUSH2 0x51F0 JUMP JUMPDEST PUSH1 0x40 MLOAD DUP1 SWAP2 SUB SWAP1 RETURN JUMPDEST CALLVALUE DUP1 ISZERO PUSH2 0x60C JUMPI PUSH1 0x0 DUP1 REVERT JUMPDEST POP PUSH2 0x615 PUSH2 0x3E74 JUMP JUMPDEST PUSH1 0x40 MLOAD PUSH2 0x622 SWAP2 SWAP1 PUSH2 0x5462 JUMP JUMPDEST PUSH1 0x40 MLOAD DUP1 SWAP2 SUB SWAP1 RETURN JUMPDEST CALLVALUE DUP1 ISZERO PUSH2 0x637 JUMPI PUSH1 0x0 DUP1 REVERT JUMPDEST POP PUSH2 0x640 PUSH2 0x3E7A JUMP JUMPDEST PUSH1 0x40 MLOAD PUSH2 0x64D SWAP2 SWAP1 PUSH2 0x5462 JUMP JUMPDEST PUSH1 0x40 MLOAD DUP1 SWAP2 SUB SWAP1 RETURN JUMPDEST CALLVALUE DUP1 ISZERO PUSH2 0x662 JUMPI PUSH1 0x0 DUP1 REVERT JUMPDEST POP PUSH2 0x67D PUSH1 0x4 DUP1 CALLDATASIZE SUB DUP2 ADD SWAP1 PUSH2 0x678 SWAP2 SWAP1 PUSH2 0x4CF0 JUMP JUMPDEST PUSH2 0x3E80 JUMP JUMPDEST PUSH1 0x40 MLOAD PUSH2 0x68A SWAP2 SWAP1 PUSH2 0x518A JUMP JUMPDEST PUSH1 0x40 MLOAD DUP1 SWAP2 SUB SWAP1 RETURN JUMPDEST CALLVALUE DUP1 ISZERO PUSH2 0x69F JUMPI PUSH1 0x0 DUP1 REVERT JUMPDEST POP PUSH2 0x6BA PUSH1 0x4 DUP1 CALLDATASIZE SUB DUP2 ADD SWAP1 PUSH2 0x6B5 SWAP2 SWAP1 PUSH2 0x4C35 JUMP JUMPDEST PUSH2 0x3EB3 JUMP JUMPDEST STOP JUMPDEST CALLVALUE DUP1 ISZERO PUSH2 0x6C8 JUMPI PUSH1 0x0 DUP1 REVERT JUMPDEST POP PUSH2 0x6E3 PUSH1 0x4 DUP1 CALLDATASIZE SUB DUP2 ADD SWAP1 PUSH2 0x6DE SWAP2 SWAP1 PUSH2 0x4BBD JUMP JUMPDEST PUSH2 0x415D JUMP JUMPDEST STOP JUMPDEST PUSH2 0x711 PUSH32 0xC71F195B146E0B4EA55644E46F58D5FC06416EFD624B761F5D11B9FE63FF174D PUSH1 0x0 SHL PUSH2 0x415D JUMP JUMPDEST PUSH2 0x73D PUSH32 0xFB3D9B9AED05128AB75FDBADEB1E8B79C2F4228AFDAD39231D0058241945880C PUSH1 0x0 SHL PUSH2 0x415D JUMP JUMPDEST PUSH2 0x769 PUSH32 0xA72E17CEB34F7CE02F2C2E6D5CE17B97FE2BA669CBC5F6F1943A9690A92D7E32 PUSH1 0x0 SHL PUSH2 0x415D JUMP JUMPDEST PUSH2 0x795 PUSH32 0x53C4BF237E5A22B55C98DE33B05A209EF38536DA15E7B03F927F0CA548A20C38 PUSH1 0x0 SHL PUSH2 0x415D JUMP JUMPDEST PUSH1 0x0 ISZERO ISZERO PUSH1 0x1 PUSH1 0x14 SWAP1 SLOAD SWAP1 PUSH2 0x100 EXP SWAP1 DIV PUSH1 0xFF AND ISZERO ISZERO EQ PUSH2 0x7EB JUMPI PUSH1 0x40 MLOAD PUSH32 0x8C379A000000000000000000000000000000000000000000000000000000000 DUP2 MSTORE PUSH1 0x4 ADD PUSH2 0x7E2 SWAP1 PUSH2 0x5402 JUMP JUMPDEST PUSH1 0x40 MLOAD DUP1 SWAP2 SUB SWAP1 REVERT JUMPDEST PUSH2 0x817 PUSH32 0x268F2C1E10F709C9AC1A4D344641C89E7E1E6B000443AE380E606EA8D91CFF01 PUSH1 0x0 SHL PUSH2 0x415D JUMP JUMPDEST PUSH2 0x843 PUSH32 0x790450D6AA1298D299FB2A250F89418FC335666B0FFA263278877692C9CD84EF PUSH1 0x0 SHL PUSH2 0x415D JUMP JUMPDEST PUSH2 0x86F PUSH32 0x267B680800BFFF5B5FE6F94455F17BD5159C6A7BC23553D41D8997C53E73E712 PUSH1 0x0 SHL PUSH2 0x415D JUMP JUMPDEST PUSH2 0x89B PUSH32 0x312673AF3C021E0986D49634A04DB17FB1630F55126497C16852C3BB05FBACC PUSH1 0x0 SHL PUSH2 0x415D JUMP JUMPDEST PUSH2 0x8C7 PUSH32 0xD0F37709AE85FB67E9DD78B6E5AC6808FA19C9F6B2A903CBA1AF63390BD3ED9C PUSH1 0x0 SHL PUSH2 0x415D JUMP JUMPDEST PUSH2 0x8F3 PUSH32 0x64E3D7F5B2C644A8A221FD90585F8CB60DBA87EB8782B3703DED3FC5AA94FB7E PUSH1 0x0 SHL PUSH2 0x415D JUMP JUMPDEST PUSH1 0xA DUP2 LT PUSH2 0x936 JUMPI PUSH1 0x40 MLOAD PUSH32 0x8C379A000000000000000000000000000000000000000000000000000000000 DUP2 MSTORE PUSH1 0x4 ADD PUSH2 0x92D SWAP1 PUSH2 0x5382 JUMP JUMPDEST PUSH1 0x40 MLOAD DUP1 SWAP2 SUB SWAP1 REVERT JUMPDEST PUSH2 0x962 PUSH32 0xF6DF036E17E1E1B7CCC27FE0F65CE06AC883BE7EF0E408B7F0EA34D41149AA1A PUSH1 0x0 SHL PUSH2 0x415D JUMP JUMPDEST PUSH2 0x98E PUSH32 0xE0423C28E980C32CDFAA9C8608448570E60172042276D26BB7AE78865FD104F7 PUSH1 0x0 SHL PUSH2 0x415D JUMP JUMPDEST PUSH2 0x9BA PUSH32 0x4B5FDFEF9445C386C20CE288808122F07C8DD585A9F6E8B03F5F5444EC922DFE PUSH1 0x0 SHL PUSH2 0x415D JUMP JUMPDEST PUSH1 0x0 CALLVALUE SWAP1 POP PUSH2 0x9EB PUSH32 0xA113121580226EF9580CF693346293383FA8FDC5D19B5836B1E817FFB28EA023 PUSH1 0x0 SHL PUSH2 0x415D JUMP JUMPDEST PUSH2 0xA17 PUSH32 0xC09528265BB049E56A60F675AA96A87AC4824F75319D798EC12707C53E99835B PUSH1 0x0 SHL PUSH2 0x415D JUMP JUMPDEST PUSH2 0xA1F PUSH2 0x48CA JUMP JUMPDEST PUSH2 0xA4B PUSH32 0x3EBE39EAAAA21223096DDD348F48591A44EC0E9F7F79B75EB57065EEE8B01B95 PUSH1 0x0 SHL PUSH2 0x415D JUMP JUMPDEST PUSH2 0xA77 PUSH32 0x5176396825A81A13F6691020AD56E04E47812AFFFAF19C7203DB81AAFC11E36E PUSH1 0x0 SHL PUSH2 0x415D JUMP JUMPDEST PUSH1 0x40 MLOAD DUP1 PUSH1 0xA0 ADD PUSH1 0x40 MSTORE DUP1 PUSH1 0x2 SLOAD DUP2 MSTORE PUSH1 0x20 ADD PUSH1 0x1 DUP2 MSTORE PUSH1 0x20 ADD DUP5 DUP2 MSTORE PUSH1 0x20 ADD DUP4 DUP2 MSTORE PUSH1 0x20 ADD DUP5 PUSH8 0xFFFFFFFFFFFFFFFF DUP2 GT ISZERO PUSH2 0xADD JUMPI PUSH32 0x4E487B7100000000000000000000000000000000000000000000000000000000 PUSH1 0x0 MSTORE PUSH1 0x41 PUSH1 0x4 MSTORE PUSH1 0x24 PUSH1 0x0 REVERT JUMPDEST PUSH1 0x40 MLOAD SWAP1 DUP1 DUP3 MSTORE DUP1 PUSH1 0x20 MUL PUSH1 0x20 ADD DUP3 ADD PUSH1 0x40 MSTORE DUP1 ISZERO PUSH2 0xB10 JUMPI DUP2 PUSH1 0x20 ADD JUMPDEST PUSH1 0x60 DUP2 MSTORE PUSH1 0x20 ADD SWAP1 PUSH1 0x1 SWAP1 SUB SWAP1 DUP2 PUSH2 0xAFB JUMPI SWAP1 POP JUMPDEST POP DUP2 MSTORE POP SWAP1 POP PUSH2 0xB42 PUSH32 0x506CA2FEABAED101084DF40CC14D8C8ECA67090EC907A58248BA5D4BC2DCCB89 PUSH1 0x0 SHL PUSH2 0x415D JUMP JUMPDEST PUSH2 0xB6E PUSH32 0x908CFF76BB3182A4F2BEF38C4AD871922327012BFEAFAB89FCE0DC6D41F34D8C PUSH1 0x0 SHL PUSH2 0x415D JUMP JUMPDEST DUP4 DUP2 PUSH1 0x80 ADD MLOAD PUSH1 0x0 DUP2 MLOAD DUP2 LT PUSH2 0xBAD JUMPI PUSH32 0x4E487B7100000000000000000000000000000000000000000000000000000000 PUSH1 0x0 MSTORE PUSH1 0x32 PUSH1 0x4 MSTORE PUSH1 0x24 PUSH1 0x0 REVERT JUMPDEST PUSH1 0x20 MUL PUSH1 0x20 ADD ADD DUP2 SWAP1 MSTORE POP PUSH2 0xBE4 PUSH32 0x9450348719CD1BFDA4806A9BFDE516F7D450A5C3DEAC228A6E99C7F66DCE2786 PUSH1 0x0 SHL PUSH2 0x415D JUMP JUMPDEST PUSH2 0xC10 PUSH32 0x8ED4675A215A81CEF45A214CB9282791912D13BCEFF3F9A8DE6235D6DE5ADD19 PUSH1 0x0 SHL PUSH2 0x415D JUMP JUMPDEST DUP1 PUSH1 0x3 PUSH1 0x0 PUSH1 0x2 SLOAD DUP2 MSTORE PUSH1 0x20 ADD SWAP1 DUP2 MSTORE PUSH1 0x20 ADD PUSH1 0x0 KECCAK256 PUSH1 0x0 DUP3 ADD MLOAD DUP2 PUSH1 0x0 ADD SSTORE PUSH1 0x20 DUP3 ADD MLOAD DUP2 PUSH1 0x1 ADD SSTORE PUSH1 0x40 DUP3 ADD MLOAD DUP2 PUSH1 0x2 ADD SSTORE PUSH1 0x60 DUP3 ADD MLOAD DUP2 PUSH1 0x3 ADD SSTORE PUSH1 0x80 DUP3 ADD MLOAD DUP2 PUSH1 0x4 ADD SWAP1 DUP1 MLOAD SWAP1 PUSH1 0x20 ADD SWAP1 PUSH2 0xC6A SWAP3 SWAP2 SWAP1 PUSH2 0x48F9 JUMP JUMPDEST POP SWAP1 POP POP PUSH2 0xC9A PUSH32 0xEBD934E72CC1964F5E7F94A5B07879566148D19050F6C68DCC73DF75E25563AB PUSH1 0x0 SHL PUSH2 0x415D JUMP JUMPDEST PUSH2 0xCC6 PUSH32 0x9DBF6E85EF32325055C96B5C27910FF72E9A2CE7E64AC1815644D307271EE56E PUSH1 0x0 SHL PUSH2 0x415D JUMP JUMPDEST PUSH1 0x4 PUSH1 0x0 CALLER PUSH20 0xFFFFFFFFFFFFFFFFFFFFFFFFFFFFFFFFFFFFFFFF AND PUSH20 0xFFFFFFFFFFFFFFFFFFFFFFFFFFFFFFFFFFFFFFFF AND DUP2 MSTORE PUSH1 0x20 ADD SWAP1 DUP2 MSTORE PUSH1 0x20 ADD PUSH1 0x0 KECCAK256 PUSH1 0x2 SLOAD SWAP1 DUP1 PUSH1 0x1 DUP2 SLOAD ADD DUP1 DUP3 SSTORE DUP1 SWAP2 POP POP PUSH1 0x1 SWAP1 SUB SWAP1 PUSH1 0x0 MSTORE PUSH1 0x20 PUSH1 0x0 KECCAK256 ADD PUSH1 0x0 SWAP1 SWAP2 SWAP1 SWAP2 SWAP1 SWAP2 POP SSTORE PUSH2 0xD5A PUSH32 0xDF28B0F54DD1CA9E11AD454DFA9D8F41E7C66A73E54B38CBA7F93C681721B67E PUSH1 0x0 SHL PUSH2 0x415D JUMP JUMPDEST PUSH2 0xD86 PUSH32 0x6A6551005AAB060A3684F2F981155DC6899477A811DDFF767C4C4BC7E713CF29 PUSH1 0x0 SHL PUSH2 0x415D JUMP JUMPDEST CALLER PUSH20 0xFFFFFFFFFFFFFFFFFFFFFFFFFFFFFFFFFFFFFFFF AND PUSH1 0x2 SLOAD PUSH32 0xCEB55FB99742A0D2305C686897F79E89483A9725C0F5493808C9A4787F2A875A DUP7 DUP6 TIMESTAMP PUSH1 0x40 MLOAD PUSH2 0xDD3 SWAP4 SWAP3 SWAP2 SWAP1 PUSH2 0x52C4 JUMP JUMPDEST PUSH1 0x40 MLOAD DUP1 SWAP2 SUB SWAP1 LOG3 PUSH2 0xE07 PUSH32 0x2F689551BEAA90FBBC25FC528D0FB4D53773CF416ED2B863128A23F051B31E6F PUSH1 0x0 SHL PUSH2 0x415D JUMP JUMPDEST PUSH2 0xE33 PUSH32 0xC9FBC0A3295A79F9879DB01A9DD47579FFB820A355E72805CB826907B88142DC PUSH1 0x0 SHL PUSH2 0x415D JUMP JUMPDEST PUSH2 0xE49 PUSH1 0x1 PUSH1 0x2 SLOAD PUSH2 0x4160 SWAP1 SWAP2 SWAP1 PUSH4 0xFFFFFFFF AND JUMP JUMPDEST PUSH1 0x2 DUP2 SWAP1 SSTORE POP POP POP POP POP JUMP JUMPDEST PUSH2 0xE81 PUSH32 0xC71F195B146E0B4EA55644E46F58D5FC06416EFD624B761F5D11B9FE63FF174D PUSH1 0x0 SHL PUSH2 0x415D JUMP JUMPDEST PUSH2 0xEAD PUSH32 0xFB3D9B9AED05128AB75FDBADEB1E8B79C2F4228AFDAD39231D0058241945880C PUSH1 0x0 SHL PUSH2 0x415D JUMP JUMPDEST PUSH2 0xED9 PUSH32 0xA72E17CEB34F7CE02F2C2E6D5CE17B97FE2BA669CBC5F6F1943A9690A92D7E32 PUSH1 0x0 SHL PUSH2 0x415D JUMP JUMPDEST PUSH2 0xF05 PUSH32 0x53C4BF237E5A22B55C98DE33B05A209EF38536DA15E7B03F927F0CA548A20C38 PUSH1 0x0 SHL PUSH2 0x415D JUMP JUMPDEST PUSH1 0x0 ISZERO ISZERO PUSH1 0x1 PUSH1 0x14 SWAP1 SLOAD SWAP1 PUSH2 0x100 EXP SWAP1 DIV PUSH1 0xFF AND ISZERO ISZERO EQ PUSH2 0xF5B JUMPI PUSH1 0x40 MLOAD PUSH32 0x8C379A000000000000000000000000000000000000000000000000000000000 DUP2 MSTORE PUSH1 0x4 ADD PUSH2 0xF52 SWAP1 PUSH2 0x5402 JUMP JUMPDEST PUSH1 0x40 MLOAD DUP1 SWAP2 SUB SWAP1 REVERT JUMPDEST PUSH2 0xF87 PUSH32 0x268F2C1E10F709C9AC1A4D344641C89E7E1E6B000443AE380E606EA8D91CFF01 PUSH1 0x0 SHL PUSH2 0x415D JUMP JUMPDEST PUSH2 0xFB3 PUSH32 0x790450D6AA1298D299FB2A250F89418FC335666B0FFA263278877692C9CD84EF PUSH1 0x0 SHL PUSH2 0x415D JUMP JUMPDEST PUSH2 0xFDF PUSH32 0x7956248BDCC80C0286FB37F42A52DF0A73C538AD1BEF7454125F46E87FE55B22 PUSH1 0x0 SHL PUSH2 0x415D JUMP JUMPDEST PUSH2 0x100B PUSH32 0x8D6295D57A0945CFFAAAECA2D276477A87B72591612799E1ED277DBEC0C04ABE PUSH1 0x0 SHL PUSH2 0x415D JUMP JUMPDEST PUSH2 0x1037 PUSH32 0x596B8BB235069F6510D957C61D653C8A7047B4C2F839F81AE27C5DF74E1969F0 PUSH1 0x0 SHL PUSH2 0x415D JUMP JUMPDEST PUSH1 0x0 PUSH1 0x1 PUSH1 0xB SLOAD PUSH2 0x1048 SWAP2 SWAP1 PUSH2 0x55CA JUMP JUMPDEST SWAP1 POP PUSH2 0x1076 PUSH32 0x338CE0A691D96627EB75917DC70896C0381041351DCC21DA02D15559D4990020 PUSH1 0x0 SHL PUSH2 0x415D JUMP JUMPDEST PUSH2 0x10A2 PUSH32 0x146518BAF36F407501BE27C16605A9C57FB72D2039D192B6D1F8AEED46EBFFED PUSH1 0x0 SHL PUSH2 0x415D JUMP JUMPDEST DUP2 PUSH1 0xE PUSH1 0x0 DUP4 DUP2 MSTORE PUSH1 0x20 ADD SWAP1 DUP2 MSTORE PUSH1 0x20 ADD PUSH1 0x0 KECCAK256 PUSH1 0x0 PUSH2 0x100 EXP DUP2 SLOAD DUP2 PUSH20 0xFFFFFFFFFFFFFFFFFFFFFFFFFFFFFFFFFFFFFFFF MUL NOT AND SWAP1 DUP4 PUSH20 0xFFFFFFFFFFFFFFFFFFFFFFFFFFFFFFFFFFFFFFFF AND MUL OR SWAP1 SSTORE POP PUSH2 0x1120 PUSH32 0x75E18AAFE576863C00037B08A73B26DF156F9CCC8A26836435A7FECECA08605 PUSH1 0x0 SHL PUSH2 0x415D JUMP JUMPDEST PUSH2 0x114C PUSH32 0x17ECBE84297DDD637A4A0B0C11EDC019ACC48115647F9BCE44BEB05737D9963D PUSH1 0x0 SHL PUSH2 0x415D JUMP JUMPDEST DUP1 PUSH1 0xB DUP2 SWAP1 SSTORE POP PUSH2 0x117F PUSH32 0x9DA2E85D2780696654BFB6FB986B94AFCF7BF054B901D90825FCA8B4A108F447 PUSH1 0x0 SHL PUSH2 0x415D JUMP JUMPDEST PUSH2 0x11AB PUSH32 0x245F6F7EC6AD7EF51F8F1F1005CE79CD94785EA3054C252D7768B8A6904C9A86 PUSH1 0x0 SHL PUSH2 0x415D JUMP JUMPDEST DUP4 PUSH32 0xB99663894DC2A2C66382F63932042AA530244FE0AF348B833F4CDDEA9CFBEB71 DUP3 DUP6 PUSH1 0x40 MLOAD PUSH2 0x11DD SWAP3 SWAP2 SWAP1 PUSH2 0x547D JUMP JUMPDEST PUSH1 0x40 MLOAD DUP1 SWAP2 SUB SWAP1 LOG2 POP POP POP POP JUMP JUMPDEST PUSH2 0x1217 PUSH32 0xC71F195B146E0B4EA55644E46F58D5FC06416EFD624B761F5D11B9FE63FF174D PUSH1 0x0 SHL PUSH2 0x415D JUMP JUMPDEST PUSH2 0x1243 PUSH32 0xFB3D9B9AED05128AB75FDBADEB1E8B79C2F4228AFDAD39231D0058241945880C PUSH1 0x0 SHL PUSH2 0x415D JUMP JUMPDEST PUSH2 0x126F PUSH32 0xA72E17CEB34F7CE02F2C2E6D5CE17B97FE2BA669CBC5F6F1943A9690A92D7E32 PUSH1 0x0 SHL PUSH2 0x415D JUMP JUMPDEST PUSH2 0x129B PUSH32 0x53C4BF237E5A22B55C98DE33B05A209EF38536DA15E7B03F927F0CA548A20C38 PUSH1 0x0 SHL PUSH2 0x415D JUMP JUMPDEST PUSH1 0x0 ISZERO ISZERO PUSH1 0x1 PUSH1 0x14 SWAP1 SLOAD SWAP1 PUSH2 0x100 EXP SWAP1 DIV PUSH1 0xFF AND ISZERO ISZERO EQ PUSH2 0x12F1 JUMPI PUSH1 0x40 MLOAD PUSH32 0x8C379A000000000000000000000000000000000000000000000000000000000 DUP2 MSTORE PUSH1 0x4 ADD PUSH2 0x12E8 SWAP1 PUSH2 0x5402 JUMP JUMPDEST PUSH1 0x40 MLOAD DUP1 SWAP2 SUB SWAP1 REVERT JUMPDEST PUSH2 0x131D PUSH32 0x268F2C1E10F709C9AC1A4D344641C89E7E1E6B000443AE380E606EA8D91CFF01 PUSH1 0x0 SHL PUSH2 0x415D JUMP JUMPDEST PUSH2 0x1349 PUSH32 0x790450D6AA1298D299FB2A250F89418FC335666B0FFA263278877692C9CD84EF PUSH1 0x0 SHL PUSH2 0x415D JUMP JUMPDEST PUSH2 0x1375 PUSH32 0x3A044D0C06654562B1876887887BC8159556895EC7D54A976896BE63B21433B PUSH1 0x0 SHL PUSH2 0x415D JUMP JUMPDEST PUSH2 0x13A1 PUSH32 0xDAA7B6D52F2F08D030BF3049CC63CD357F37931BB0678801FAC96D56E49F3432 PUSH1 0x0 SHL PUSH2 0x415D JUMP JUMPDEST PUSH2 0x13CD PUSH32 0x284B5FD88F2382328607880DB900EAF51C03A874CFBF5DA52CB72814A617BCDB PUSH1 0x0 SHL PUSH2 0x415D JUMP JUMPDEST PUSH2 0x13F9 PUSH32 0x1B140688D17BCA23EF53D321C11D52A0114C95594B893A76DBC022F34BB81C46 PUSH1 0x0 SHL PUSH2 0x415D JUMP JUMPDEST PUSH1 0xB SLOAD DUP2 GT ISZERO PUSH2 0x143E JUMPI PUSH1 0x40 MLOAD PUSH32 0x8C379A000000000000000000000000000000000000000000000000000000000 DUP2 MSTORE PUSH1 0x4 ADD PUSH2 0x1435 SWAP1 PUSH2 0x53A2 JUMP JUMPDEST PUSH1 0x40 MLOAD DUP1 SWAP2 SUB SWAP1 REVERT JUMPDEST PUSH2 0x146A PUSH32 0x5BD603EA7567A274F4909535343200366C204EDBCEA7324A2234D5AFBA3C4FCC PUSH1 0x0 SHL PUSH2 0x415D JUMP JUMPDEST PUSH2 0x1496 PUSH32 0xF347A8156A442153AE395546CF3EF5964357CA70352E8181054E5543DCFF6D68 PUSH1 0x0 SHL PUSH2 0x415D JUMP JUMPDEST PUSH2 0x14C2 PUSH32 0x9184FBF70BCA49C397D6B0C30280A2B35A1234E6DB0892BA0F6D21C3C906EBDA PUSH1 0x0 SHL PUSH2 0x415D JUMP JUMPDEST CALLVALUE PUSH1 0xC SLOAD PUSH2 0x14D0 SWAP2 SWAP1 PUSH2 0x55CA JUMP JUMPDEST PUSH1 0xC DUP2 SWAP1 SSTORE POP PUSH2 0x1502 PUSH32 0x87CEEA1A5AACD009EE3051FC015B7F0F1C83E3C689B69B30D73D3A8D11DF1E96 PUSH1 0x0 SHL PUSH2 0x415D JUMP JUMPDEST PUSH2 0x152E PUSH32 0x494E895C9A01E4A87F79F47C872BC44C93F1B9E9CF8BC3684E681C24B17A72B7 PUSH1 0x0 SHL PUSH2 0x415D JUMP JUMPDEST PUSH1 0x1 PUSH1 0xD SLOAD PUSH2 0x153D SWAP2 SWAP1 PUSH2 0x55CA JUMP JUMPDEST PUSH1 0xD DUP2 SWAP1 SSTORE POP PUSH2 0x156F PUSH32 0x45146C14678961BFBA1BAF0C0D1201A4146B59DB04EA394ED825FE813E94DEAA PUSH1 0x0 SHL PUSH2 0x415D JUMP JUMPDEST PUSH2 0x159B PUSH32 0x14C8000FB69AA7DF615E5D1549AD38AF7446D769E0F1E5D9002FE109EBA25A76 PUSH1 0x0 SHL PUSH2 0x415D JUMP JUMPDEST PUSH1 0xE PUSH1 0x0 DUP3 DUP2 MSTORE PUSH1 0x20 ADD SWAP1 DUP2 MSTORE PUSH1 0x20 ADD PUSH1 0x0 KECCAK256 PUSH1 0x0 SWAP1 SLOAD SWAP1 PUSH2 0x100 EXP SWAP1 DIV PUSH20 0xFFFFFFFFFFFFFFFFFFFFFFFFFFFFFFFFFFFFFFFF AND PUSH20 0xFFFFFFFFFFFFFFFFFFFFFFFFFFFFFFFFFFFFFFFF AND PUSH2 0x8FC CALLVALUE SWAP1 DUP2 ISZERO MUL SWAP1 PUSH1 0x40 MLOAD PUSH1 0x0 PUSH1 0x40 MLOAD DUP1 DUP4 SUB DUP2 DUP6 DUP9 DUP9 CALL SWAP4 POP POP POP POP ISZERO DUP1 ISZERO PUSH2 0x1614 JUMPI RETURNDATASIZE PUSH1 0x0 DUP1 RETURNDATACOPY RETURNDATASIZE PUSH1 0x0 REVERT JUMPDEST POP PUSH2 0x1641 PUSH32 0x7B2DAB6E6055508DE1FCCAD943F96A0A8014507ADAB780B9161C393C5EF732AA PUSH1 0x0 SHL PUSH2 0x415D JUMP JUMPDEST PUSH2 0x166D PUSH32 0xE3FA295495AB2128E71578F5A8A141621482AAD80AFA89A59FEC38693E0A9332 PUSH1 0x0 SHL PUSH2 0x415D JUMP JUMPDEST PUSH1 0xE PUSH1 0x0 DUP3 DUP2 MSTORE PUSH1 0x20 ADD SWAP1 DUP2 MSTORE PUSH1 0x20 ADD PUSH1 0x0 KECCAK256 PUSH1 0x0 SWAP1 SLOAD SWAP1 PUSH2 0x100 EXP SWAP1 DIV PUSH20 0xFFFFFFFFFFFFFFFFFFFFFFFFFFFFFFFFFFFFFFFF AND PUSH20 0xFFFFFFFFFFFFFFFFFFFFFFFFFFFFFFFFFFFFFFFF AND CALLER PUSH20 0xFFFFFFFFFFFFFFFFFFFFFFFFFFFFFFFFFFFFFFFF AND PUSH32 0x2317347462A70F36EB7BAC6FB953ACA2CD01EB3BCDF5F359BABE909811EAED67 DUP4 CALLVALUE PUSH1 0x40 MLOAD PUSH2 0x16FF SWAP3 SWAP2 SWAP1 PUSH2 0x54A6 JUMP JUMPDEST PUSH1 0x40 MLOAD DUP1 SWAP2 SUB SWAP1 LOG3 POP JUMP JUMPDEST PUSH2 0x1736 PUSH32 0xC71F195B146E0B4EA55644E46F58D5FC06416EFD624B761F5D11B9FE63FF174D PUSH1 0x0 SHL PUSH2 0x415D JUMP JUMPDEST PUSH2 0x1762 PUSH32 0xFB3D9B9AED05128AB75FDBADEB1E8B79C2F4228AFDAD39231D0058241945880C PUSH1 0x0 SHL PUSH2 0x415D JUMP JUMPDEST PUSH2 0x178E PUSH32 0xA72E17CEB34F7CE02F2C2E6D5CE17B97FE2BA669CBC5F6F1943A9690A92D7E32 PUSH1 0x0 SHL PUSH2 0x415D JUMP JUMPDEST PUSH2 0x17BA PUSH32 0x53C4BF237E5A22B55C98DE33B05A209EF38536DA15E7B03F927F0CA548A20C38 PUSH1 0x0 SHL PUSH2 0x415D JUMP JUMPDEST PUSH1 0x0 ISZERO ISZERO PUSH1 0x1 PUSH1 0x14 SWAP1 SLOAD SWAP1 PUSH2 0x100 EXP SWAP1 DIV PUSH1 0xFF AND ISZERO ISZERO EQ PUSH2 0x1810 JUMPI PUSH1 0x40 MLOAD PUSH32 0x8C379A000000000000000000000000000000000000000000000000000000000 DUP2 MSTORE PUSH1 0x4 ADD PUSH2 0x1807 SWAP1 PUSH2 0x5402 JUMP JUMPDEST PUSH1 0x40 MLOAD DUP1 SWAP2 SUB SWAP1 REVERT JUMPDEST PUSH2 0x183C PUSH32 0x268F2C1E10F709C9AC1A4D344641C89E7E1E6B000443AE380E606EA8D91CFF01 PUSH1 0x0 SHL PUSH2 0x415D JUMP JUMPDEST PUSH2 0x1868 PUSH32 0x790450D6AA1298D299FB2A250F89418FC335666B0FFA263278877692C9CD84EF PUSH1 0x0 SHL PUSH2 0x415D JUMP JUMPDEST PUSH2 0x1894 PUSH32 0xEBF56A36298D859367A24D367ED16C571F26A64FA1EDC689A80E2BFE5EB87FB5 PUSH1 0x0 SHL PUSH2 0x415D JUMP JUMPDEST PUSH2 0x18C0 PUSH32 0xE0B3BACB52E8EF23AE33FAD1C81D962E07758D1E708402D929EC1441A7C41D6D PUSH1 0x0 SHL PUSH2 0x415D JUMP JUMPDEST PUSH2 0x18EC PUSH32 0xC9B57E5E6DC77B050857626FB07B9785D40E5C768FEFC4928C77C03F2155E1B5 PUSH1 0x0 SHL PUSH2 0x415D JUMP JUMPDEST PUSH2 0x1918 PUSH32 0xB8CF42BC2F5B6D48744C9C321D44544142A94A1C677044DACAB053F5D83F123E PUSH1 0x0 SHL PUSH2 0x415D JUMP JUMPDEST PUSH1 0x1 ISZERO ISZERO PUSH1 0xA PUSH1 0x0 CALLER PUSH20 0xFFFFFFFFFFFFFFFFFFFFFFFFFFFFFFFFFFFFFFFF AND PUSH20 0xFFFFFFFFFFFFFFFFFFFFFFFFFFFFFFFFFFFFFFFF AND DUP2 MSTORE PUSH1 0x20 ADD SWAP1 DUP2 MSTORE PUSH1 0x20 ADD PUSH1 0x0 KECCAK256 PUSH1 0x0 SWAP1 SLOAD SWAP1 PUSH2 0x100 EXP SWAP1 DIV PUSH1 0xFF AND ISZERO ISZERO EQ PUSH2 0x19AB JUMPI PUSH1 0x40 MLOAD PUSH32 0x8C379A000000000000000000000000000000000000000000000000000000000 DUP2 MSTORE PUSH1 0x4 ADD PUSH2 0x19A2 SWAP1 PUSH2 0x5362 JUMP JUMPDEST PUSH1 0x40 MLOAD DUP1 SWAP2 SUB SWAP1 REVERT JUMPDEST PUSH2 0x19D7 PUSH32 0x2382A1B4230DB00B66FF8D9AB9C6BD09072489CEE079970522AFAD059DAB9760 PUSH1 0x0 SHL PUSH2 0x415D JUMP JUMPDEST PUSH2 0x1A03 PUSH32 0x5227590E610EF959B968837663E88FE489FA58BAEABB33CAC0E3DCFCD5C2CC86 PUSH1 0x0 SHL PUSH2 0x415D JUMP JUMPDEST PUSH2 0x1A2F PUSH32 0xF50F1DCB8158963F4A6905D46A792F559C567D51E0D340892C039C0F65C04C5C PUSH1 0x0 SHL PUSH2 0x415D JUMP JUMPDEST PUSH1 0x0 PUSH1 0xA PUSH1 0x0 CALLER PUSH20 0xFFFFFFFFFFFFFFFFFFFFFFFFFFFFFFFFFFFFFFFF AND PUSH20 0xFFFFFFFFFFFFFFFFFFFFFFFFFFFFFFFFFFFFFFFF AND DUP2 MSTORE PUSH1 0x20 ADD SWAP1 DUP2 MSTORE PUSH1 0x20 ADD PUSH1 0x0 KECCAK256 PUSH1 0x0 PUSH2 0x100 EXP DUP2 SLOAD DUP2 PUSH1 0xFF MUL NOT AND SWAP1 DUP4 ISZERO ISZERO MUL OR SWAP1 SSTORE POP JUMP JUMPDEST PUSH1 0xC SLOAD DUP2 JUMP JUMPDEST PUSH1 0x8 DUP2 DUP2 SLOAD DUP2 LT PUSH2 0x1A9F JUMPI PUSH1 0x0 DUP1 REVERT JUMPDEST SWAP1 PUSH1 0x0 MSTORE PUSH1 0x20 PUSH1 0x0 KECCAK256 ADD PUSH1 0x0 SWAP2 POP SLOAD SWAP1 PUSH2 0x100 EXP SWAP1 DIV PUSH20 0xFFFFFFFFFFFFFFFFFFFFFFFFFFFFFFFFFFFFFFFF AND DUP2 JUMP JUMPDEST PUSH2 0x1AFA PUSH32 0xC71F195B146E0B4EA55644E46F58D5FC06416EFD624B761F5D11B9FE63FF174D PUSH1 0x0 SHL PUSH2 0x415D JUMP JUMPDEST PUSH2 0x1B26 PUSH32 0xFB3D9B9AED05128AB75FDBADEB1E8B79C2F4228AFDAD39231D0058241945880C PUSH1 0x0 SHL PUSH2 0x415D JUMP JUMPDEST PUSH2 0x1B52 PUSH32 0xA72E17CEB34F7CE02F2C2E6D5CE17B97FE2BA669CBC5F6F1943A9690A92D7E32 PUSH1 0x0 SHL PUSH2 0x415D JUMP JUMPDEST PUSH2 0x1B7E PUSH32 0x53C4BF237E5A22B55C98DE33B05A209EF38536DA15E7B03F927F0CA548A20C38 PUSH1 0x0 SHL PUSH2 0x415D JUMP JUMPDEST PUSH1 0x0 ISZERO ISZERO PUSH1 0x1 PUSH1 0x14 SWAP1 SLOAD SWAP1 PUSH2 0x100 EXP SWAP1 DIV PUSH1 0xFF AND ISZERO ISZERO EQ PUSH2 0x1BD4 JUMPI PUSH1 0x40 MLOAD PUSH32 0x8C379A000000000000000000000000000000000000000000000000000000000 DUP2 MSTORE PUSH1 0x4 ADD PUSH2 0x1BCB SWAP1 PUSH2 0x5402 JUMP JUMPDEST PUSH1 0x40 MLOAD DUP1 SWAP2 SUB SWAP1 REVERT JUMPDEST PUSH2 0x1C00 PUSH32 0x268F2C1E10F709C9AC1A4D344641C89E7E1E6B000443AE380E606EA8D91CFF01 PUSH1 0x0 SHL PUSH2 0x415D JUMP JUMPDEST PUSH2 0x1C2C PUSH32 0x790450D6AA1298D299FB2A250F89418FC335666B0FFA263278877692C9CD84EF PUSH1 0x0 SHL PUSH2 0x415D JUMP JUMPDEST PUSH2 0x1C58 PUSH32 0x25582BA627805AEDC55A3A6D9F0C02FE054899C5DAEE60DADA145E17F922C346 PUSH1 0x0 SHL PUSH2 0x415D JUMP JUMPDEST PUSH2 0x1C84 PUSH32 0x482B108BBE890AF997B9E0873B576B107148169AB57F3360D4F8501562EF72C1 PUSH1 0x0 SHL PUSH2 0x415D JUMP JUMPDEST PUSH2 0x1CB0 PUSH32 0xE6F16CD767BF2EC6F228434EC4045400A58E1998C49CAC9DBB5D18DAB2D4561 PUSH1 0x0 SHL PUSH2 0x415D JUMP JUMPDEST PUSH2 0x1CDC PUSH32 0x205FA39A1037141CA04ED454D7016CDC5DB68AE49AC1B35BAD2E577616B96503 PUSH1 0x0 SHL PUSH2 0x415D JUMP JUMPDEST PUSH1 0x0 PUSH20 0xFFFFFFFFFFFFFFFFFFFFFFFFFFFFFFFFFFFFFFFF AND PUSH1 0x5 PUSH1 0x0 CALLER PUSH20 0xFFFFFFFFFFFFFFFFFFFFFFFFFFFFFFFFFFFFFFFF AND PUSH20 0xFFFFFFFFFFFFFFFFFFFFFFFFFFFFFFFFFFFFFFFF AND DUP2 MSTORE PUSH1 0x20 ADD SWAP1 DUP2 MSTORE PUSH1 0x20 ADD PUSH1 0x0 KECCAK256 PUSH1 0x0 ADD PUSH1 0x0 SWAP1 SLOAD SWAP1 PUSH2 0x100 EXP SWAP1 DIV PUSH20 0xFFFFFFFFFFFFFFFFFFFFFFFFFFFFFFFFFFFFFFFF AND PUSH20 0xFFFFFFFFFFFFFFFFFFFFFFFFFFFFFFFFFFFFFFFF AND EQ PUSH2 0x1DAD JUMPI PUSH1 0x40 MLOAD PUSH32 0x8C379A000000000000000000000000000000000000000000000000000000000 DUP2 MSTORE PUSH1 0x4 ADD PUSH2 0x1DA4 SWAP1 PUSH2 0x53E2 JUMP JUMPDEST PUSH1 0x40 MLOAD DUP1 SWAP2 SUB SWAP1 REVERT JUMPDEST PUSH2 0x1DD9 PUSH32 0xB2A0A7C82BA4392BCC94B9DBA37BDAE0B3DCFAFBB6E37BBDDA76C1C4ACDF11AB PUSH1 0x0 SHL PUSH2 0x415D JUMP JUMPDEST PUSH2 0x1E05 PUSH32 0x245F789C8D15CBE5B17279D76EDD7D9D04811D4DE8B531B952AB7198FBB70E6D PUSH1 0x0 SHL PUSH2 0x415D JUMP JUMPDEST PUSH2 0x1E31 PUSH32 0x3CB702236BCFCDDB131636DBDE437CD7C0A8B86D5C27E2F55159BEA67AE4EF70 PUSH1 0x0 SHL PUSH2 0x415D JUMP JUMPDEST PUSH1 0x0 PUSH1 0x40 MLOAD DUP1 PUSH1 0x40 ADD PUSH1 0x40 MSTORE DUP1 CALLER PUSH20 0xFFFFFFFFFFFFFFFFFFFFFFFFFFFFFFFFFFFFFFFF AND DUP2 MSTORE PUSH1 0x20 ADD PUSH1 0x0 DUP2 MSTORE POP SWAP1 POP PUSH2 0x1E8D PUSH32 0xA09822104D853C16E67C3DCF43A8EF3E4D06BA2866A79483332A8A10EFCDF21A PUSH1 0x0 SHL PUSH2 0x415D JUMP JUMPDEST PUSH2 0x1EB9 PUSH32 0xE3508FC9A3BC3B715AB4D25858301031420C7B740BCE657B8BA0E0F8E7E7F1D2 PUSH1 0x0 SHL PUSH2 0x415D JUMP JUMPDEST DUP1 PUSH1 0x5 PUSH1 0x0 CALLER PUSH20 0xFFFFFFFFFFFFFFFFFFFFFFFFFFFFFFFFFFFFFFFF AND PUSH20 0xFFFFFFFFFFFFFFFFFFFFFFFFFFFFFFFFFFFFFFFF AND DUP2 MSTORE PUSH1 0x20 ADD SWAP1 DUP2 MSTORE PUSH1 0x20 ADD PUSH1 0x0 KECCAK256 PUSH1 0x0 DUP3 ADD MLOAD DUP2 PUSH1 0x0 ADD PUSH1 0x0 PUSH2 0x100 EXP DUP2 SLOAD DUP2 PUSH20 0xFFFFFFFFFFFFFFFFFFFFFFFFFFFFFFFFFFFFFFFF MUL NOT AND SWAP1 DUP4 PUSH20 0xFFFFFFFFFFFFFFFFFFFFFFFFFFFFFFFFFFFFFFFF AND MUL OR SWAP1 SSTORE POP PUSH1 0x20 DUP3 ADD MLOAD DUP2 PUSH1 0x1 ADD SSTORE SWAP1 POP POP PUSH2 0x1F79 PUSH32 0x99BAB1CA48017E0B3612D64E651634E37E5F70A4AB3C21B4E3A81F9E01902F4C PUSH1 0x0 SHL PUSH2 0x415D JUMP JUMPDEST PUSH2 0x1FA5 PUSH32 0xA970EFF358020BAB5A5B0437AFF0748545BA216AF61E39DA6E76DCBCE911520F PUSH1 0x0 SHL PUSH2 0x415D JUMP JUMPDEST PUSH2 0x1FBB PUSH1 0x1 PUSH1 0x6 SLOAD PUSH2 0x4160 SWAP1 SWAP2 SWAP1 PUSH4 0xFFFFFFFF AND JUMP JUMPDEST PUSH1 0x6 DUP2 SWAP1 SSTORE POP POP JUMP JUMPDEST PUSH2 0x1FF0 PUSH32 0x61A13786217982C88A501C936643E3AC4B386EEBC0535FE48BD536045F140EFE PUSH1 0x0 SHL PUSH2 0x415D JUMP JUMPDEST PUSH2 0x201C PUSH32 0x75477101B0D1D35C773F51106C03BC06574132A73542ECB25D33CC55E52C544F PUSH1 0x0 SHL PUSH2 0x415D JUMP JUMPDEST PUSH2 0x2048 PUSH32 0x6071302B2A8CCC3D58A69F8FE7922FB7B0D01985AE4C053EDE62DCB4E058F7C3 PUSH1 0x0 SHL PUSH2 0x415D JUMP JUMPDEST PUSH1 0x7 PUSH1 0x0 CALLER PUSH20 0xFFFFFFFFFFFFFFFFFFFFFFFFFFFFFFFFFFFFFFFF AND PUSH20 0xFFFFFFFFFFFFFFFFFFFFFFFFFFFFFFFFFFFFFFFF AND DUP2 MSTORE PUSH1 0x20 ADD SWAP1 DUP2 MSTORE PUSH1 0x20 ADD PUSH1 0x0 KECCAK256 PUSH1 0x0 DUP3 PUSH20 0xFFFFFFFFFFFFFFFFFFFFFFFFFFFFFFFFFFFFFFFF AND PUSH20 0xFFFFFFFFFFFFFFFFFFFFFFFFFFFFFFFFFFFFFFFF AND DUP2 MSTORE PUSH1 0x20 ADD SWAP1 DUP2 MSTORE PUSH1 0x20 ADD PUSH1 0x0 KECCAK256 PUSH1 0x0 SWAP1 SLOAD SWAP1 PUSH2 0x100 EXP SWAP1 DIV PUSH1 0xFF AND ISZERO PUSH1 0x7 PUSH1 0x0 CALLER PUSH20 0xFFFFFFFFFFFFFFFFFFFFFFFFFFFFFFFFFFFFFFFF AND PUSH20 0xFFFFFFFFFFFFFFFFFFFFFFFFFFFFFFFFFFFFFFFF AND DUP2 MSTORE PUSH1 0x20 ADD SWAP1 DUP2 MSTORE PUSH1 0x20 ADD PUSH1 0x0 KECCAK256 PUSH1 0x0 DUP4 PUSH20 0xFFFFFFFFFFFFFFFFFFFFFFFFFFFFFFFFFFFFFFFF AND PUSH20 0xFFFFFFFFFFFFFFFFFFFFFFFFFFFFFFFFFFFFFFFF AND DUP2 MSTORE PUSH1 0x20 ADD SWAP1 DUP2 MSTORE PUSH1 0x20 ADD PUSH1 0x0 KECCAK256 PUSH1 0x0 PUSH2 0x100 EXP DUP2 SLOAD DUP2 PUSH1 0xFF MUL NOT AND SWAP1 DUP4 ISZERO ISZERO MUL OR SWAP1 SSTORE POP PUSH2 0x2192 PUSH32 0xFDBBDA053875E912F898C2033DC8B8E1E5A8A041500E2376C9C7F8BF3BE60D80 PUSH1 0x0 SHL PUSH2 0x415D JUMP JUMPDEST PUSH2 0x21BE PUSH32 0x1A814A99A2CD17A5BD6A03EF6475B2B039A2FD3FE23C9BAAD88629E5A81AA781 PUSH1 0x0 SHL PUSH2 0x415D JUMP JUMPDEST DUP1 PUSH20 0xFFFFFFFFFFFFFFFFFFFFFFFFFFFFFFFFFFFFFFFF AND CALLER PUSH20 0xFFFFFFFFFFFFFFFFFFFFFFFFFFFFFFFFFFFFFFFF AND PUSH32 0xAD77D1D38ED980518F1C26C8CD8FE0CC39BA4E9092E1B5F69F0BD23FF1DE97FB PUSH1 0x7 PUSH1 0x0 CALLER PUSH20 0xFFFFFFFFFFFFFFFFFFFFFFFFFFFFFFFFFFFFFFFF AND PUSH20 0xFFFFFFFFFFFFFFFFFFFFFFFFFFFFFFFFFFFFFFFF AND DUP2 MSTORE PUSH1 0x20 ADD SWAP1 DUP2 MSTORE PUSH1 0x20 ADD PUSH1 0x0 KECCAK256 PUSH1 0x0 DUP6 PUSH20 0xFFFFFFFFFFFFFFFFFFFFFFFFFFFFFFFFFFFFFFFF AND PUSH20 0xFFFFFFFFFFFFFFFFFFFFFFFFFFFFFFFFFFFFFFFF AND DUP2 MSTORE PUSH1 0x20 ADD SWAP1 DUP2 MSTORE PUSH1 0x20 ADD PUSH1 0x0 KECCAK256 PUSH1 0x0 SWAP1 SLOAD SWAP1 PUSH2 0x100 EXP SWAP1 DIV PUSH1 0xFF AND PUSH1 0x40 MLOAD PUSH2 0x22A4 SWAP2 SWAP1 PUSH2 0x51F0 JUMP JUMPDEST PUSH1 0x40 MLOAD DUP1 SWAP2 SUB SWAP1 LOG3 POP JUMP JUMPDEST PUSH1 0x1 PUSH1 0x14 SWAP1 SLOAD SWAP1 PUSH2 0x100 EXP SWAP1 DIV PUSH1 0xFF AND DUP2 JUMP JUMPDEST PUSH1 0x3 PUSH1 0x20 MSTORE DUP1 PUSH1 0x0 MSTORE PUSH1 0x40 PUSH1 0x0 KECCAK256 PUSH1 0x0 SWAP2 POP SWAP1 POP DUP1 PUSH1 0x0 ADD SLOAD SWAP1 DUP1 PUSH1 0x1 ADD SLOAD SWAP1 DUP1 PUSH1 0x2 ADD SLOAD SWAP1 DUP1 PUSH1 0x3 ADD SLOAD SWAP1 POP DUP5 JUMP JUMPDEST PUSH1 0x4 PUSH1 0x20 MSTORE DUP2 PUSH1 0x0 MSTORE PUSH1 0x40 PUSH1 0x0 KECCAK256 DUP2 DUP2 SLOAD DUP2 LT PUSH2 0x230E JUMPI PUSH1 0x0 DUP1 REVERT JUMPDEST SWAP1 PUSH1 0x0 MSTORE PUSH1 0x20 PUSH1 0x0 KECCAK256 ADD PUSH1 0x0 SWAP2 POP SWAP2 POP POP SLOAD DUP2 JUMP JUMPDEST PUSH2 0x234F PUSH32 0xC71F195B146E0B4EA55644E46F58D5FC06416EFD624B761F5D11B9FE63FF174D PUSH1 0x0 SHL PUSH2 0x415D JUMP JUMPDEST PUSH2 0x237B PUSH32 0xFB3D9B9AED05128AB75FDBADEB1E8B79C2F4228AFDAD39231D0058241945880C PUSH1 0x0 SHL PUSH2 0x415D JUMP JUMPDEST PUSH2 0x23A7 PUSH32 0xA72E17CEB34F7CE02F2C2E6D5CE17B97FE2BA669CBC5F6F1943A9690A92D7E32 PUSH1 0x0 SHL PUSH2 0x415D JUMP JUMPDEST PUSH2 0x23D3 PUSH32 0x53C4BF237E5A22B55C98DE33B05A209EF38536DA15E7B03F927F0CA548A20C38 PUSH1 0x0 SHL PUSH2 0x415D JUMP JUMPDEST PUSH1 0x0 ISZERO ISZERO PUSH1 0x1 PUSH1 0x14 SWAP1 SLOAD SWAP1 PUSH2 0x100 EXP SWAP1 DIV PUSH1 0xFF AND ISZERO ISZERO EQ PUSH2 0x2429 JUMPI PUSH1 0x40 MLOAD PUSH32 0x8C379A000000000000000000000000000000000000000000000000000000000 DUP2 MSTORE PUSH1 0x4 ADD PUSH2 0x2420 SWAP1 PUSH2 0x5402 JUMP JUMPDEST PUSH1 0x40 MLOAD DUP1 SWAP2 SUB SWAP1 REVERT JUMPDEST PUSH2 0x2455 PUSH32 0x268F2C1E10F709C9AC1A4D344641C89E7E1E6B000443AE380E606EA8D91CFF01 PUSH1 0x0 SHL PUSH2 0x415D JUMP JUMPDEST PUSH2 0x2481 PUSH32 0x790450D6AA1298D299FB2A250F89418FC335666B0FFA263278877692C9CD84EF PUSH1 0x0 SHL PUSH2 0x415D JUMP JUMPDEST PUSH2 0x24AD PUSH32 0x1371D1076B9B1E60AE9EB08ECB1E8495DE1FEC883498B29EC8771A7EB2F727EC PUSH1 0x0 SHL PUSH2 0x415D JUMP JUMPDEST PUSH2 0x24D9 PUSH32 0x2F06C43F04F932D26F063C8A8794FA6309AE9E7C6840CB023411F45B83544ACE PUSH1 0x0 SHL PUSH2 0x415D JUMP JUMPDEST PUSH2 0x2505 PUSH32 0xB247728A9DE89F23937117EC692A63F6BB9FC5610C7BC357C10DAC348C0D0B92 PUSH1 0x0 SHL PUSH2 0x415D JUMP JUMPDEST PUSH2 0x2531 PUSH32 0x153C5D6685A1137C4CCD3C28107EAAC4D097E459FED44E6AFB7CACF7EAFA10D8 PUSH1 0x0 SHL PUSH2 0x415D JUMP JUMPDEST PUSH1 0x1 PUSH1 0x0 SWAP1 SLOAD SWAP1 PUSH2 0x100 EXP SWAP1 DIV PUSH20 0xFFFFFFFFFFFFFFFFFFFFFFFFFFFFFFFFFFFFFFFF AND PUSH20 0xFFFFFFFFFFFFFFFFFFFFFFFFFFFFFFFFFFFFFFFF AND CALLER PUSH20 0xFFFFFFFFFFFFFFFFFFFFFFFFFFFFFFFFFFFFFFFF AND EQ PUSH2 0x25C1 JUMPI PUSH1 0x40 MLOAD PUSH32 0x8C379A000000000000000000000000000000000000000000000000000000000 DUP2 MSTORE PUSH1 0x4 ADD PUSH2 0x25B8 SWAP1 PUSH2 0x5422 JUMP JUMPDEST PUSH1 0x40 MLOAD DUP1 SWAP2 SUB SWAP1 REVERT JUMPDEST PUSH2 0x25ED PUSH32 0x3EFAAAD9B26819F03B547685CF602EA71C70D85D06F6F687955A944BDD9674C3 PUSH1 0x0 SHL PUSH2 0x415D JUMP JUMPDEST PUSH2 0x2619 PUSH32 0x2726C645549D562AB056AD44B6DB50011E6FBD8E3F35D7DE5867E2546961CF88 PUSH1 0x0 SHL PUSH2 0x415D JUMP JUMPDEST PUSH2 0x2645 PUSH32 0xB12BE0AC61572E0CE39CB9070223785B3434962A57FFE0DC10581DF021F1BF5C PUSH1 0x0 SHL PUSH2 0x415D JUMP JUMPDEST PUSH2 0x2671 PUSH32 0x14E21CB0CF653A95E255B79E967E23866DB07FB960DB42848CC0DAF40462121C PUSH1 0x0 SHL PUSH2 0x415D JUMP JUMPDEST PUSH1 0x2 SLOAD DUP4 GT ISZERO PUSH2 0x26B6 JUMPI PUSH1 0x40 MLOAD PUSH32 0x8C379A000000000000000000000000000000000000000000000000000000000 DUP2 MSTORE PUSH1 0x4 ADD PUSH2 0x26AD SWAP1 PUSH2 0x53C2 JUMP JUMPDEST PUSH1 0x40 MLOAD DUP1 SWAP2 SUB SWAP1 REVERT JUMPDEST PUSH2 0x26E2 PUSH32 0x8923F462E764A838261F2207F1A170463365DA748C29F639E9162C3D7CD3338D PUSH1 0x0 SHL PUSH2 0x415D JUMP JUMPDEST PUSH2 0x270E PUSH32 0x2F46E1E9267BEE9898DBE4DC6B8A50D2D751434A578B6F5D4D1F1F8CEEBC8F36 PUSH1 0x0 SHL PUSH2 0x415D JUMP JUMPDEST PUSH2 0x273A PUSH32 0xDA710D8446A33E7D0F99D893EFC6DF63CB02207598D53355F4A38B6151FFA366 PUSH1 0x0 SHL PUSH2 0x415D JUMP JUMPDEST PUSH1 0x0 PUSH2 0x2766 PUSH1 0x1 PUSH1 0x3 PUSH1 0x0 DUP8 DUP2 MSTORE PUSH1 0x20 ADD SWAP1 DUP2 MSTORE PUSH1 0x20 ADD PUSH1 0x0 KECCAK256 PUSH1 0x1 ADD SLOAD PUSH2 0x4160 SWAP1 SWAP2 SWAP1 PUSH4 0xFFFFFFFF AND JUMP JUMPDEST SWAP1 POP PUSH2 0x2794 PUSH32 0x32609F8AA7B29995F0B6D72241EBF1C757607F9AFC410016061EDAF18E16B0A6 PUSH1 0x0 SHL PUSH2 0x415D JUMP JUMPDEST PUSH2 0x27C0 PUSH32 0x74094790FFEDB54BB7924177D2FDBE0EB049E862BAD598C412658BED86601724 PUSH1 0x0 SHL PUSH2 0x415D JUMP JUMPDEST PUSH2 0x27EC PUSH32 0xC1502852CF29D07628589ACF0AAD50C29D5526627327AE55D3E488D7BD0112D8 PUSH1 0x0 SHL PUSH2 0x415D JUMP JUMPDEST PUSH1 0x3 PUSH1 0x0 DUP6 DUP2 MSTORE PUSH1 0x20 ADD SWAP1 DUP2 MSTORE PUSH1 0x20 ADD PUSH1 0x0 KECCAK256 PUSH1 0x2 ADD SLOAD DUP2 GT ISZERO PUSH2 0x2845 JUMPI PUSH1 0x40 MLOAD PUSH32 0x8C379A000000000000000000000000000000000000000000000000000000000 DUP2 MSTORE PUSH1 0x4 ADD PUSH2 0x283C SWAP1 PUSH2 0x5302 JUMP JUMPDEST PUSH1 0x40 MLOAD DUP1 SWAP2 SUB SWAP1 REVERT JUMPDEST PUSH2 0x2871 PUSH32 0x684CA994A5F639FB5E7C38A2DA1821169329C58D0F8ABC315458A4CA457C0163 PUSH1 0x0 SHL PUSH2 0x415D JUMP JUMPDEST PUSH2 0x289D PUSH32 0x6E97A0663889D32D1A9B3DA52116DDC4C96C2B01F1136EFA8AE9B6A140518AF8 PUSH1 0x0 SHL PUSH2 0x415D JUMP JUMPDEST PUSH2 0x28C9 PUSH32 0xAB542B2B744DEAF013231F498034359384741B906F8AEBD533F0D16C5926C6EE PUSH1 0x0 SHL PUSH2 0x415D JUMP JUMPDEST DUP1 PUSH1 0x3 PUSH1 0x0 DUP7 DUP2 MSTORE PUSH1 0x20 ADD SWAP1 DUP2 MSTORE PUSH1 0x20 ADD PUSH1 0x0 KECCAK256 PUSH1 0x1 ADD DUP2 SWAP1 SSTORE POP PUSH2 0x2910 PUSH32 0x13B5F38F60EFAF09022C1AA201F8B084418AD2C397DF5CB87C35BE2E5ADD1981 PUSH1 0x0 SHL PUSH2 0x415D JUMP JUMPDEST PUSH2 0x293C PUSH32 0xE1318C1C25FD5C7A5166AA558BD4021B018D5F416EC2F0E6592FF0DBCA9875FC PUSH1 0x0 SHL PUSH2 0x415D JUMP JUMPDEST DUP3 PUSH1 0x3 PUSH1 0x0 DUP7 DUP2 MSTORE PUSH1 0x20 ADD SWAP1 DUP2 MSTORE PUSH1 0x20 ADD PUSH1 0x0 KECCAK256 PUSH1 0x4 ADD PUSH2 0x2967 PUSH1 0x1 DUP5 PUSH2 0x434B SWAP1 SWAP2 SWAP1 PUSH4 0xFFFFFFFF AND JUMP JUMPDEST DUP2 SLOAD DUP2 LT PUSH2 0x299E JUMPI PUSH32 0x4E487B7100000000000000000000000000000000000000000000000000000000 PUSH1 0x0 MSTORE PUSH1 0x32 PUSH1 0x4 MSTORE PUSH1 0x24 PUSH1 0x0 REVERT JUMPDEST SWAP1 PUSH1 0x0 MSTORE PUSH1 0x20 PUSH1 0x0 KECCAK256 ADD SWAP1 DUP1 MLOAD SWAP1 PUSH1 0x20 ADD SWAP1 PUSH2 0x29BB SWAP3 SWAP2 SWAP1 PUSH2 0x4959 JUMP JUMPDEST POP PUSH2 0x29E8 PUSH32 0xF0C2CF026EF0539A66D25D49C836D4AA44A6B578D60497D21BDBE2A8F8C0D3A PUSH1 0x0 SHL PUSH2 0x415D JUMP JUMPDEST PUSH2 0x2A14 PUSH32 0x3466CB0C889771C198FCD42E640646889B0DD5508B7A0BCA719C458DEAD56FCD PUSH1 0x0 SHL PUSH2 0x415D JUMP JUMPDEST DUP2 PUSH20 0xFFFFFFFFFFFFFFFFFFFFFFFFFFFFFFFFFFFFFFFF AND PUSH2 0x8FC PUSH2 0x2A6D PUSH1 0x3 PUSH1 0x0 DUP9 DUP2 MSTORE PUSH1 0x20 ADD SWAP1 DUP2 MSTORE PUSH1 0x20 ADD PUSH1 0x0 KECCAK256 PUSH1 0x2 ADD SLOAD PUSH1 0x3 PUSH1 0x0 DUP10 DUP2 MSTORE PUSH1 0x20 ADD SWAP1 DUP2 MSTORE PUSH1 0x20 ADD PUSH1 0x0 KECCAK256 PUSH1 0x3 ADD SLOAD PUSH2 0x4419 SWAP1 SWAP2 SWAP1 PUSH4 0xFFFFFFFF AND JUMP JUMPDEST SWAP1 DUP2 ISZERO MUL SWAP1 PUSH1 0x40 MLOAD PUSH1 0x0 PUSH1 0x40 MLOAD DUP1 DUP4 SUB DUP2 DUP6 DUP9 DUP9 CALL SWAP4 POP POP POP POP ISZERO DUP1 ISZERO PUSH2 0x2A98 JUMPI RETURNDATASIZE PUSH1 0x0 DUP1 RETURNDATACOPY RETURNDATASIZE PUSH1 0x0 REVERT JUMPDEST POP PUSH2 0x2AC5 PUSH32 0x4FA8D0DFA506EC8887C1BB800DD5B8DB9605ADB6E299D2325E594F72F2A0CE1A PUSH1 0x0 SHL PUSH2 0x415D JUMP JUMPDEST PUSH2 0x2AF1 PUSH32 0x900B499CEFAD2E4779865327CA8462B08792345AE75B40FD92F90D37F1ABFFC7 PUSH1 0x0 SHL PUSH2 0x415D JUMP JUMPDEST DUP4 PUSH32 0xB8B9B7420CE876FD147A9284D5EED5F709FC3FAAFB9E8CDF3C6ECE72E002E8C7 DUP5 TIMESTAMP PUSH1 0x40 MLOAD PUSH2 0x2B23 SWAP3 SWAP2 SWAP1 PUSH2 0x5294 JUMP JUMPDEST PUSH1 0x40 MLOAD DUP1 SWAP2 SUB SWAP1 LOG2 POP POP POP POP JUMP JUMPDEST PUSH2 0x2B5D PUSH32 0xC71F195B146E0B4EA55644E46F58D5FC06416EFD624B761F5D11B9FE63FF174D PUSH1 0x0 SHL PUSH2 0x415D JUMP JUMPDEST PUSH2 0x2B89 PUSH32 0xFB3D9B9AED05128AB75FDBADEB1E8B79C2F4228AFDAD39231D0058241945880C PUSH1 0x0 SHL PUSH2 0x415D JUMP JUMPDEST PUSH2 0x2BB5 PUSH32 0xA72E17CEB34F7CE02F2C2E6D5CE17B97FE2BA669CBC5F6F1943A9690A92D7E32 PUSH1 0x0 SHL PUSH2 0x415D JUMP JUMPDEST PUSH2 0x2BE1 PUSH32 0x53C4BF237E5A22B55C98DE33B05A209EF38536DA15E7B03F927F0CA548A20C38 PUSH1 0x0 SHL PUSH2 0x415D JUMP JUMPDEST PUSH1 0x0 ISZERO ISZERO PUSH1 0x1 PUSH1 0x14 SWAP1 SLOAD SWAP1 PUSH2 0x100 EXP SWAP1 DIV PUSH1 0xFF AND ISZERO ISZERO EQ PUSH2 0x2C37 JUMPI PUSH1 0x40 MLOAD PUSH32 0x8C379A000000000000000000000000000000000000000000000000000000000 DUP2 MSTORE PUSH1 0x4 ADD PUSH2 0x2C2E SWAP1 PUSH2 0x5402 JUMP JUMPDEST PUSH1 0x40 MLOAD DUP1 SWAP2 SUB SWAP1 REVERT JUMPDEST PUSH2 0x2C63 PUSH32 0x268F2C1E10F709C9AC1A4D344641C89E7E1E6B000443AE380E606EA8D91CFF01 PUSH1 0x0 SHL PUSH2 0x415D JUMP JUMPDEST PUSH2 0x2C8F PUSH32 0x790450D6AA1298D299FB2A250F89418FC335666B0FFA263278877692C9CD84EF PUSH1 0x0 SHL PUSH2 0x415D JUMP JUMPDEST PUSH2 0x2CBB PUSH32 0x2181D09900D58DC62529E6B2EB3B3ACF033550DE3CAF700D7BDB81C2C974B24A PUSH1 0x0 SHL PUSH2 0x415D JUMP JUMPDEST PUSH2 0x2CE7 PUSH32 0xCB1BAD3DF8116447E0E90D081D01A284A3D79AFEC4452D1FD854803394FA5C69 PUSH1 0x0 SHL PUSH2 0x415D JUMP JUMPDEST PUSH2 0x2D13 PUSH32 0x391B3138F561933AACEB12C1F39E842E09DDDB38FC678AA95BBBEFAC4C0BD077 PUSH1 0x0 SHL PUSH2 0x415D JUMP JUMPDEST PUSH2 0x2D3F PUSH32 0x7CCC9C27D5E27D451E7076248EC317913CBC28EACC1FF2177167464D3A59938 PUSH1 0x0 SHL PUSH2 0x415D JUMP JUMPDEST PUSH1 0x1 ISZERO ISZERO PUSH1 0xA PUSH1 0x0 DUP4 PUSH20 0xFFFFFFFFFFFFFFFFFFFFFFFFFFFFFFFFFFFFFFFF AND PUSH20 0xFFFFFFFFFFFFFFFFFFFFFFFFFFFFFFFFFFFFFFFF AND DUP2 MSTORE PUSH1 0x20 ADD SWAP1 DUP2 MSTORE PUSH1 0x20 ADD PUSH1 0x0 KECCAK256 PUSH1 0x0 SWAP1 SLOAD SWAP1 PUSH2 0x100 EXP SWAP1 DIV PUSH1 0xFF AND ISZERO ISZERO EQ PUSH2 0x2DD2 JUMPI PUSH1 0x40 MLOAD PUSH32 0x8C379A000000000000000000000000000000000000000000000000000000000 DUP2 MSTORE PUSH1 0x4 ADD PUSH2 0x2DC9 SWAP1 PUSH2 0x5362 JUMP JUMPDEST PUSH1 0x40 MLOAD DUP1 SWAP2 SUB SWAP1 REVERT JUMPDEST PUSH2 0x2DFE PUSH32 0xA17A2405735831E36F38DDADB81E6ECF068DB410344CB57E536AE14821A28096 PUSH1 0x0 SHL PUSH2 0x415D JUMP JUMPDEST PUSH2 0x2E2A PUSH32 0x318AF0ED1A7C8EA345BE3892941A902623A72BA80480729A0F37DFDA6591AFD0 PUSH1 0x0 SHL PUSH2 0x415D JUMP JUMPDEST PUSH2 0x2E56 PUSH32 0x15275D64A3C6D837216C9200A326693F355D86B5944603521FF0B56C6E1FAC04 PUSH1 0x0 SHL PUSH2 0x415D JUMP JUMPDEST PUSH1 0x5 PUSH1 0x0 CALLER PUSH20 0xFFFFFFFFFFFFFFFFFFFFFFFFFFFFFFFFFFFFFFFF AND PUSH20 0xFFFFFFFFFFFFFFFFFFFFFFFFFFFFFFFFFFFFFFFF AND DUP2 MSTORE PUSH1 0x20 ADD SWAP1 DUP2 MSTORE PUSH1 0x20 ADD PUSH1 0x0 KECCAK256 PUSH1 0x0 ADD PUSH1 0x0 SWAP1 SLOAD SWAP1 PUSH2 0x100 EXP SWAP1 DIV PUSH20 0xFFFFFFFFFFFFFFFFFFFFFFFFFFFFFFFFFFFFFFFF AND PUSH20 0xFFFFFFFFFFFFFFFFFFFFFFFFFFFFFFFFFFFFFFFF AND PUSH2 0x8FC CALLVALUE SWAP1 DUP2 ISZERO MUL SWAP1 PUSH1 0x40 MLOAD PUSH1 0x0 PUSH1 0x40 MLOAD DUP1 DUP4 SUB DUP2 DUP6 DUP9 DUP9 CALL SWAP4 POP POP POP POP ISZERO DUP1 ISZERO PUSH2 0x2EFE JUMPI RETURNDATASIZE PUSH1 0x0 DUP1 RETURNDATACOPY RETURNDATASIZE PUSH1 0x0 REVERT JUMPDEST POP PUSH2 0x2F2B PUSH32 0xD7FA872EA526EFF1A59EE8B3585038CA149F347FE8C479402BC3C5F9959006CF PUSH1 0x0 SHL PUSH2 0x415D JUMP JUMPDEST PUSH2 0x2F57 PUSH32 0x72F97ED46B211EA7D8BE0573561555660921894DE4AC27391C0FA5E712E34BE9 PUSH1 0x0 SHL PUSH2 0x415D JUMP JUMPDEST CALLER PUSH20 0xFFFFFFFFFFFFFFFFFFFFFFFFFFFFFFFFFFFFFFFF AND DUP2 PUSH20 0xFFFFFFFFFFFFFFFFFFFFFFFFFFFFFFFFFFFFFFFF AND PUSH32 0x1D3FF44814877759FDCDEC2BACE42D6E7E7C1B84CA040BA5D3B4EF988FFD908E CALLVALUE PUSH1 0x40 MLOAD PUSH2 0x2FB4 SWAP2 SWAP1 PUSH2 0x5462 JUMP JUMPDEST PUSH1 0x40 MLOAD DUP1 SWAP2 SUB SWAP1 LOG3 POP JUMP JUMPDEST PUSH2 0x2FEB PUSH32 0xFEE3E5DE9495BB74D9C5958178104516B9D1BCC792B3BB98600249CAA81D708 PUSH1 0x0 SHL PUSH2 0x415D JUMP JUMPDEST PUSH2 0x3017 PUSH32 0x5903C40F8B294CC86F9CFD6F514045C38B95288364EBDE207B8091549BDC7D4C PUSH1 0x0 SHL PUSH2 0x415D JUMP JUMPDEST PUSH2 0x3043 PUSH32 0xFAA00DA45E366C9E8331926740019D8A652B39976954162C68A0D4B32A359288 PUSH1 0x0 SHL PUSH2 0x415D JUMP JUMPDEST PUSH2 0x306F PUSH32 0xF55FB2E6EE54E7E14AD70E3FFBEE732CDE80FC7158C13301FFEBD9CEF3967E1A PUSH1 0x0 SHL PUSH2 0x415D JUMP JUMPDEST PUSH1 0x0 DUP1 SLOAD SWAP1 PUSH2 0x100 EXP SWAP1 DIV PUSH20 0xFFFFFFFFFFFFFFFFFFFFFFFFFFFFFFFFFFFFFFFF AND PUSH20 0xFFFFFFFFFFFFFFFFFFFFFFFFFFFFFFFFFFFFFFFF AND CALLER PUSH20 0xFFFFFFFFFFFFFFFFFFFFFFFFFFFFFFFFFFFFFFFF AND EQ PUSH2 0x30FD JUMPI PUSH1 0x40 MLOAD PUSH32 0x8C379A000000000000000000000000000000000000000000000000000000000 DUP2 MSTORE PUSH1 0x4 ADD PUSH2 0x30F4 SWAP1 PUSH2 0x5442 JUMP JUMPDEST PUSH1 0x40 MLOAD DUP1 SWAP2 SUB SWAP1 REVERT JUMPDEST PUSH2 0x3129 PUSH32 0xD40F7952E63ACB9B8F42166DB3B4D3B6B19A79B2EFFB733944DA172DC74B35EA PUSH1 0x0 SHL PUSH2 0x415D JUMP JUMPDEST PUSH2 0x3155 PUSH32 0xC300045696BE0C95E5103E1F1EED4FBDC1A2579679CEF3E531B18E87ABCE05D2 PUSH1 0x0 SHL PUSH2 0x415D JUMP JUMPDEST PUSH2 0x3181 PUSH32 0xB8EEF1F4CDE30854D084B0504CF5120C0149A577EBF732E0B74FBE1A48B7B9A7 PUSH1 0x0 SHL PUSH2 0x415D JUMP JUMPDEST DUP1 PUSH1 0x0 DUP1 PUSH2 0x100 EXP DUP2 SLOAD DUP2 PUSH20 0xFFFFFFFFFFFFFFFFFFFFFFFFFFFFFFFFFFFFFFFF MUL NOT AND SWAP1 DUP4 PUSH20 0xFFFFFFFFFFFFFFFFFFFFFFFFFFFFFFFFFFFFFFFF AND MUL OR SWAP1 SSTORE POP POP JUMP JUMPDEST PUSH1 0x6 SLOAD DUP2 JUMP JUMPDEST PUSH1 0x5 PUSH1 0x20 MSTORE DUP1 PUSH1 0x0 MSTORE PUSH1 0x40 PUSH1 0x0 KECCAK256 PUSH1 0x0 SWAP2 POP SWAP1 POP DUP1 PUSH1 0x0 ADD PUSH1 0x0 SWAP1 SLOAD SWAP1 PUSH2 0x100 EXP SWAP1 DIV PUSH20 0xFFFFFFFFFFFFFFFFFFFFFFFFFFFFFFFFFFFFFFFF AND SWAP1 DUP1 PUSH1 0x1 ADD SLOAD SWAP1 POP DUP3 JUMP JUMPDEST PUSH1 0xA PUSH1 0x20 MSTORE DUP1 PUSH1 0x0 MSTORE PUSH1 0x40 PUSH1 0x0 KECCAK256 PUSH1 0x0 SWAP2 POP SLOAD SWAP1 PUSH2 0x100 EXP SWAP1 DIV PUSH1 0xFF AND DUP2 JUMP JUMPDEST PUSH1 0x9 SLOAD DUP2 JUMP JUMPDEST PUSH2 0x3260 PUSH32 0xC71F195B146E0B4EA55644E46F58D5FC06416EFD624B761F5D11B9FE63FF174D PUSH1 0x0 SHL PUSH2 0x415D JUMP JUMPDEST PUSH2 0x328C PUSH32 0xFB3D9B9AED05128AB75FDBADEB1E8B79C2F4228AFDAD39231D0058241945880C PUSH1 0x0 SHL PUSH2 0x415D JUMP JUMPDEST PUSH2 0x32B8 PUSH32 0xA72E17CEB34F7CE02F2C2E6D5CE17B97FE2BA669CBC5F6F1943A9690A92D7E32 PUSH1 0x0 SHL PUSH2 0x415D JUMP JUMPDEST PUSH2 0x32E4 PUSH32 0x53C4BF237E5A22B55C98DE33B05A209EF38536DA15E7B03F927F0CA548A20C38 PUSH1 0x0 SHL PUSH2 0x415D JUMP JUMPDEST PUSH1 0x0 ISZERO ISZERO PUSH1 0x1 PUSH1 0x14 SWAP1 SLOAD SWAP1 PUSH2 0x100 EXP SWAP1 DIV PUSH1 0xFF AND ISZERO ISZERO EQ PUSH2 0x333A JUMPI PUSH1 0x40 MLOAD PUSH32 0x8C379A000000000000000000000000000000000000000000000000000000000 DUP2 MSTORE PUSH1 0x4 ADD PUSH2 0x3331 SWAP1 PUSH2 0x5402 JUMP JUMPDEST PUSH1 0x40 MLOAD DUP1 SWAP2 SUB SWAP1 REVERT JUMPDEST PUSH2 0x3366 PUSH32 0x268F2C1E10F709C9AC1A4D344641C89E7E1E6B000443AE380E606EA8D91CFF01 PUSH1 0x0 SHL PUSH2 0x415D JUMP JUMPDEST PUSH2 0x3392 PUSH32 0x790450D6AA1298D299FB2A250F89418FC335666B0FFA263278877692C9CD84EF PUSH1 0x0 SHL PUSH2 0x415D JUMP JUMPDEST PUSH2 0x33BE PUSH32 0x8419D955CF417BF7D42193C589580130EF55BEB1FBFBCA67398141B896C66532 PUSH1 0x0 SHL PUSH2 0x415D JUMP JUMPDEST PUSH2 0x33EA PUSH32 0xAA45742862F510EF09632F6B6D62F48E3B4BD9188E05FADF01C8CCA1A1CCE13D PUSH1 0x0 SHL PUSH2 0x415D JUMP JUMPDEST PUSH2 0x3416 PUSH32 0x6D1AC415865119095B559CB9A0AE456BCDABD26D80CCE1B472E98A5D0BD64402 PUSH1 0x0 SHL PUSH2 0x415D JUMP JUMPDEST PUSH1 0x0 ISZERO ISZERO PUSH1 0xA PUSH1 0x0 CALLER PUSH20 0xFFFFFFFFFFFFFFFFFFFFFFFFFFFFFFFFFFFFFFFF AND PUSH20 0xFFFFFFFFFFFFFFFFFFFFFFFFFFFFFFFFFFFFFFFF AND DUP2 MSTORE PUSH1 0x20 ADD SWAP1 DUP2 MSTORE PUSH1 0x20 ADD PUSH1 0x0 KECCAK256 PUSH1 0x0 SWAP1 SLOAD SWAP1 PUSH2 0x100 EXP SWAP1 DIV PUSH1 0xFF AND ISZERO ISZERO EQ ISZERO PUSH2 0x35BD JUMPI PUSH2 0x349B PUSH32 0x97AD15F85E8FDAB41EDCF799A2446973506C31F01A7837AE9B9515B1028C52F9 PUSH1 0x0 SHL PUSH2 0x415D JUMP JUMPDEST PUSH2 0x34C7 PUSH32 0x529B5C3A556D6A2FC0262597DC861D7AB57CD8F6DBDF2AC370FF9F645B21CCBA PUSH1 0x0 SHL PUSH2 0x415D JUMP JUMPDEST PUSH2 0x34F3 PUSH32 0x37DCBF08B2640F199C5A0FFBBA9346FD136A1AA199760DF5013B9052DD14ED11 PUSH1 0x0 SHL PUSH2 0x415D JUMP JUMPDEST PUSH1 0x1 PUSH1 0xA PUSH1 0x0 CALLER PUSH20 0xFFFFFFFFFFFFFFFFFFFFFFFFFFFFFFFFFFFFFFFF AND PUSH20 0xFFFFFFFFFFFFFFFFFFFFFFFFFFFFFFFFFFFFFFFF AND DUP2 MSTORE PUSH1 0x20 ADD SWAP1 DUP2 MSTORE PUSH1 0x20 ADD PUSH1 0x0 KECCAK256 PUSH1 0x0 PUSH2 0x100 EXP DUP2 SLOAD DUP2 PUSH1 0xFF MUL NOT AND SWAP1 DUP4 ISZERO ISZERO MUL OR SWAP1 SSTORE POP PUSH2 0x3577 PUSH32 0x157D1ACD1EED00778C7429B0617DE70B6ABFFE87EC9FF53391C1E963F5FF54B7 PUSH1 0x0 SHL PUSH2 0x415D JUMP JUMPDEST PUSH2 0x35A3 PUSH32 0xF8B3FB0058864120677CCA0424DAB8B9C2922CAE142F4BB5684911A97C0B69CA PUSH1 0x0 SHL PUSH2 0x415D JUMP JUMPDEST PUSH1 0x1 PUSH1 0x9 SLOAD PUSH2 0x35B2 SWAP2 SWAP1 PUSH2 0x55CA JUMP JUMPDEST PUSH1 0x9 DUP2 SWAP1 SSTORE POP PUSH2 0x35EA JUMP JUMPDEST PUSH2 0x35E9 PUSH32 0x6AEB4C264BEBE60F1253AA01B9DD79D51424071AB257B7749C3F2CD5E0A42D3A PUSH1 0x0 SHL PUSH2 0x415D JUMP JUMPDEST JUMPDEST PUSH2 0x3616 PUSH32 0xEB3DD82A6E0DDD2030E1AD75F0A5A6DFA8E94B80A9BB986911E065F773434BFC PUSH1 0x0 SHL PUSH2 0x415D JUMP JUMPDEST PUSH2 0x3642 PUSH32 0xD8F76A59BC805F3970CD3115FBA0CB54AD172547A8AF2C6CBC8FC99C6C0A7CAE PUSH1 0x0 SHL PUSH2 0x415D JUMP JUMPDEST CALLER PUSH20 0xFFFFFFFFFFFFFFFFFFFFFFFFFFFFFFFFFFFFFFFF AND PUSH32 0x70EBB08109E8151DD49DEC1BA08CEC18082514F31659837D36C851B908860CE DUP3 TIMESTAMP PUSH1 0x40 MLOAD PUSH2 0x368A SWAP3 SWAP2 SWAP1 PUSH2 0x5249 JUMP JUMPDEST PUSH1 0x40 MLOAD DUP1 SWAP2 SUB SWAP1 LOG2 POP JUMP JUMPDEST PUSH1 0x0 PUSH2 0x36C3 PUSH32 0xD83473ADAF58935B598BD2198376B2375125EF326CB9E70975D3AAD1E3278ABD PUSH1 0x0 SHL PUSH2 0x415D JUMP JUMPDEST PUSH2 0x36EF PUSH32 0xB79C8AED8A8DFC570575D534B9EF68CECAFD4E55D3A6889750A02BD55AE17F88 PUSH1 0x0 SHL PUSH2 0x415D JUMP JUMPDEST PUSH2 0x371B PUSH32 0x9176D896F46B3049A20442BD32522701B77402A65CC1B740014CFDF24DA9925E PUSH1 0x0 SHL PUSH2 0x415D JUMP JUMPDEST PUSH2 0x3731 PUSH1 0x1 PUSH1 0x2 SLOAD PUSH2 0x434B SWAP1 SWAP2 SWAP1 PUSH4 0xFFFFFFFF AND JUMP JUMPDEST SWAP1 POP SWAP1 JUMP JUMPDEST PUSH2 0x3762 PUSH32 0x8E381A2146A8E9D281E81C8A26DE2EE9CDA812B387AB8E20CB8C2F0459AE7911 PUSH1 0x0 SHL PUSH2 0x415D JUMP JUMPDEST PUSH2 0x378E PUSH32 0xA8302E7EFB75282E8970E4C21E31E0F8786B9B1A5E3BF86FB7CBC8A366ABB7F PUSH1 0x0 SHL PUSH2 0x415D JUMP JUMPDEST PUSH2 0x37BA PUSH32 0xE2F7D537AACFB828B028D402E22CEDFD3C34C877075F397F27F98D90333C77B3 PUSH1 0x0 SHL PUSH2 0x415D JUMP JUMPDEST PUSH2 0x37E6 PUSH32 0x38E8FE15F18D453B0885191849C88E55790286D073131058117DFA01F57AE280 PUSH1 0x0 SHL PUSH2 0x415D JUMP JUMPDEST PUSH1 0x0 DUP1 SLOAD SWAP1 PUSH2 0x100 EXP SWAP1 DIV PUSH20 0xFFFFFFFFFFFFFFFFFFFFFFFFFFFFFFFFFFFFFFFF AND PUSH20 0xFFFFFFFFFFFFFFFFFFFFFFFFFFFFFFFFFFFFFFFF AND CALLER PUSH20 0xFFFFFFFFFFFFFFFFFFFFFFFFFFFFFFFFFFFFFFFF AND EQ PUSH2 0x3874 JUMPI PUSH1 0x40 MLOAD PUSH32 0x8C379A000000000000000000000000000000000000000000000000000000000 DUP2 MSTORE PUSH1 0x4 ADD PUSH2 0x386B SWAP1 PUSH2 0x5442 JUMP JUMPDEST PUSH1 0x40 MLOAD DUP1 SWAP2 SUB SWAP1 REVERT JUMPDEST PUSH2 0x38A0 PUSH32 0xF21CBB9BED72B9426862F7C9124C69B76BBB852F05C676E63225CB10AA41A7BA PUSH1 0x0 SHL PUSH2 0x415D JUMP JUMPDEST PUSH2 0x38CC PUSH32 0x24E8A29091AE93C8252500093D5CC574300A771350D349CCFB4B8BB29DDF244B PUSH1 0x0 SHL PUSH2 0x415D JUMP JUMPDEST PUSH2 0x38F8 PUSH32 0x900ADC877284A8AD8B0ECA708D5EEFCE074E7131E02720D1004D0D1CC75C632E PUSH1 0x0 SHL PUSH2 0x415D JUMP JUMPDEST PUSH1 0x1 PUSH1 0x14 SWAP1 SLOAD SWAP1 PUSH2 0x100 EXP SWAP1 DIV PUSH1 0xFF AND ISZERO PUSH1 0x1 PUSH1 0x14 PUSH2 0x100 EXP DUP2 SLOAD DUP2 PUSH1 0xFF MUL NOT AND SWAP1 DUP4 ISZERO ISZERO MUL OR SWAP1 SSTORE POP JUMP JUMPDEST PUSH1 0xB SLOAD DUP2 JUMP JUMPDEST PUSH2 0x3956 PUSH32 0xC71F195B146E0B4EA55644E46F58D5FC06416EFD624B761F5D11B9FE63FF174D PUSH1 0x0 SHL PUSH2 0x415D JUMP JUMPDEST PUSH2 0x3982 PUSH32 0xFB3D9B9AED05128AB75FDBADEB1E8B79C2F4228AFDAD39231D0058241945880C PUSH1 0x0 SHL PUSH2 0x415D JUMP JUMPDEST PUSH2 0x39AE PUSH32 0xA72E17CEB34F7CE02F2C2E6D5CE17B97FE2BA669CBC5F6F1943A9690A92D7E32 PUSH1 0x0 SHL PUSH2 0x415D JUMP JUMPDEST PUSH2 0x39DA PUSH32 0x53C4BF237E5A22B55C98DE33B05A209EF38536DA15E7B03F927F0CA548A20C38 PUSH1 0x0 SHL PUSH2 0x415D JUMP JUMPDEST PUSH1 0x0 ISZERO ISZERO PUSH1 0x1 PUSH1 0x14 SWAP1 SLOAD SWAP1 PUSH2 0x100 EXP SWAP1 DIV PUSH1 0xFF AND ISZERO ISZERO EQ PUSH2 0x3A30 JUMPI PUSH1 0x40 MLOAD PUSH32 0x8C379A000000000000000000000000000000000000000000000000000000000 DUP2 MSTORE PUSH1 0x4 ADD PUSH2 0x3A27 SWAP1 PUSH2 0x5402 JUMP JUMPDEST PUSH1 0x40 MLOAD DUP1 SWAP2 SUB SWAP1 REVERT JUMPDEST PUSH2 0x3A5C PUSH32 0x268F2C1E10F709C9AC1A4D344641C89E7E1E6B000443AE380E606EA8D91CFF01 PUSH1 0x0 SHL PUSH2 0x415D JUMP JUMPDEST PUSH2 0x3A88 PUSH32 0x790450D6AA1298D299FB2A250F89418FC335666B0FFA263278877692C9CD84EF PUSH1 0x0 SHL PUSH2 0x415D JUMP JUMPDEST PUSH2 0x3AB4 PUSH32 0x7884C0536B6DE464CD2DF5114CA1E7FA44811B9411EC8CF0530C5D1F0BA39AEA PUSH1 0x0 SHL PUSH2 0x415D JUMP JUMPDEST PUSH2 0x3AE0 PUSH32 0x75E12F58AB3ADED0C8D4F3C9B1F9B475BB4628AFBF6684203CEC2DA39E6B3B15 PUSH1 0x0 SHL PUSH2 0x415D JUMP JUMPDEST PUSH2 0x3B0C PUSH32 0x9668363C521A760C76E5A87A0313707804771DB8307EF5EEFC8A47B1924ECD7B PUSH1 0x0 SHL PUSH2 0x415D JUMP JUMPDEST PUSH2 0x3B38 PUSH32 0xDF7E18476E5EA5AAC99CA3C7BCCC54FEDB531E56FD039FF6CC69F2954D13E736 PUSH1 0x0 SHL PUSH2 0x415D JUMP JUMPDEST PUSH1 0x0 PUSH20 0xFFFFFFFFFFFFFFFFFFFFFFFFFFFFFFFFFFFFFFFF AND PUSH1 0x5 PUSH1 0x0 CALLER PUSH20 0xFFFFFFFFFFFFFFFFFFFFFFFFFFFFFFFFFFFFFFFF AND PUSH20 0xFFFFFFFFFFFFFFFFFFFFFFFFFFFFFFFFFFFFFFFF AND DUP2 MSTORE PUSH1 0x20 ADD SWAP1 DUP2 MSTORE PUSH1 0x20 ADD PUSH1 0x0 KECCAK256 PUSH1 0x0 ADD PUSH1 0x0 SWAP1 SLOAD SWAP1 PUSH2 0x100 EXP SWAP1 DIV PUSH20 0xFFFFFFFFFFFFFFFFFFFFFFFFFFFFFFFFFFFFFFFF AND PUSH20 0xFFFFFFFFFFFFFFFFFFFFFFFFFFFFFFFFFFFFFFFF AND EQ ISZERO PUSH2 0x3C0A JUMPI PUSH1 0x40 MLOAD PUSH32 0x8C379A000000000000000000000000000000000000000000000000000000000 DUP2 MSTORE PUSH1 0x4 ADD PUSH2 0x3C01 SWAP1 PUSH2 0x5342 JUMP JUMPDEST PUSH1 0x40 MLOAD DUP1 SWAP2 SUB SWAP1 REVERT JUMPDEST PUSH2 0x3C36 PUSH32 0xC03E87BB2099C16CC807D36447D1135DDDA75C6BB707ED393CC0E25A42A228F0 PUSH1 0x0 SHL PUSH2 0x415D JUMP JUMPDEST PUSH2 0x3C62 PUSH32 0x3C65E6088AAAE5B7EBCA52A1B70A3D3260EFB1A82A7AFB46C98A02ABF5666D2E PUSH1 0x0 SHL PUSH2 0x415D JUMP JUMPDEST PUSH2 0x3C8E PUSH32 0x594EE1B618B56B08296406302A2C071F09774C7982BAF38CDFFC1BC8A22CF6E1 PUSH1 0x0 SHL PUSH2 0x415D JUMP JUMPDEST PUSH2 0x3CE3 DUP2 PUSH1 0x5 PUSH1 0x0 CALLER PUSH20 0xFFFFFFFFFFFFFFFFFFFFFFFFFFFFFFFFFFFFFFFF AND PUSH20 0xFFFFFFFFFFFFFFFFFFFFFFFFFFFFFFFFFFFFFFFF AND DUP2 MSTORE PUSH1 0x20 ADD SWAP1 DUP2 MSTORE PUSH1 0x20 ADD PUSH1 0x0 KECCAK256 PUSH1 0x1 ADD SLOAD PUSH2 0x4160 SWAP1 SWAP2 SWAP1 PUSH4 0xFFFFFFFF AND JUMP JUMPDEST PUSH1 0x5 PUSH1 0x0 CALLER PUSH20 0xFFFFFFFFFFFFFFFFFFFFFFFFFFFFFFFFFFFFFFFF AND PUSH20 0xFFFFFFFFFFFFFFFFFFFFFFFFFFFFFFFFFFFFFFFF AND DUP2 MSTORE PUSH1 0x20 ADD SWAP1 DUP2 MSTORE PUSH1 0x20 ADD PUSH1 0x0 KECCAK256 PUSH1 0x1 ADD DUP2 SWAP1 SSTORE POP POP JUMP JUMPDEST PUSH1 0x60 PUSH2 0x3D5A PUSH32 0x36EA9AC53F155D2C839353AA8FC3F78BB317035DAA41F061E646C19FFF0EBCD6 PUSH1 0x0 SHL PUSH2 0x415D JUMP JUMPDEST PUSH2 0x3D86 PUSH32 0x3C37A9D6680F7DD04D404287737B71A8A008B273F5D9354424507B56045FBCEB PUSH1 0x0 SHL PUSH2 0x415D JUMP JUMPDEST PUSH2 0x3DB2 PUSH32 0xED125BF2A5AB857FDBCBABF4859328B26BBF20E8705AB804B399D3FB89BCB222 PUSH1 0x0 SHL PUSH2 0x415D JUMP JUMPDEST PUSH1 0x4 PUSH1 0x0 CALLER PUSH20 0xFFFFFFFFFFFFFFFFFFFFFFFFFFFFFFFFFFFFFFFF AND PUSH20 0xFFFFFFFFFFFFFFFFFFFFFFFFFFFFFFFFFFFFFFFF AND DUP2 MSTORE PUSH1 0x20 ADD SWAP1 DUP2 MSTORE PUSH1 0x20 ADD PUSH1 0x0 KECCAK256 DUP1 SLOAD DUP1 PUSH1 0x20 MUL PUSH1 0x20 ADD PUSH1 0x40 MLOAD SWAP1 DUP2 ADD PUSH1 0x40 MSTORE DUP1 SWAP3 SWAP2 SWAP1 DUP2 DUP2 MSTORE PUSH1 0x20 ADD DUP3 DUP1 SLOAD DUP1 ISZERO PUSH2 0x3E3B JUMPI PUSH1 0x20 MUL DUP3 ADD SWAP2 SWAP1 PUSH1 0x0 MSTORE PUSH1 0x20 PUSH1 0x0 KECCAK256 SWAP1 JUMPDEST DUP2 SLOAD DUP2 MSTORE PUSH1 0x20 ADD SWAP1 PUSH1 0x1 ADD SWAP1 DUP1 DUP4 GT PUSH2 0x3E27 JUMPI JUMPDEST POP POP POP POP POP SWAP1 POP SWAP1 JUMP JUMPDEST PUSH1 0x7 PUSH1 0x20 MSTORE DUP2 PUSH1 0x0 MSTORE PUSH1 0x40 PUSH1 0x0 KECCAK256 PUSH1 0x20 MSTORE DUP1 PUSH1 0x0 MSTORE PUSH1 0x40 PUSH1 0x0 KECCAK256 PUSH1 0x0 SWAP2 POP SWAP2 POP SWAP1 SLOAD SWAP1 PUSH2 0x100 EXP SWAP1 DIV PUSH1 0xFF AND DUP2 JUMP JUMPDEST PUSH1 0xD SLOAD DUP2 JUMP JUMPDEST PUSH1 0xF SLOAD DUP2 JUMP JUMPDEST PUSH1 0xE PUSH1 0x20 MSTORE DUP1 PUSH1 0x0 MSTORE PUSH1 0x40 PUSH1 0x0 KECCAK256 PUSH1 0x0 SWAP2 POP SLOAD SWAP1 PUSH2 0x100 EXP SWAP1 DIV PUSH20 0xFFFFFFFFFFFFFFFFFFFFFFFFFFFFFFFFFFFFFFFF AND DUP2 JUMP JUMPDEST PUSH2 0x3EDF PUSH32 0xC71F195B146E0B4EA55644E46F58D5FC06416EFD624B761F5D11B9FE63FF174D PUSH1 0x0 SHL PUSH2 0x415D JUMP JUMPDEST PUSH2 0x3F0B PUSH32 0xFB3D9B9AED05128AB75FDBADEB1E8B79C2F4228AFDAD39231D0058241945880C PUSH1 0x0 SHL PUSH2 0x415D JUMP JUMPDEST PUSH2 0x3F37 PUSH32 0xA72E17CEB34F7CE02F2C2E6D5CE17B97FE2BA669CBC5F6F1943A9690A92D7E32 PUSH1 0x0 SHL PUSH2 0x415D JUMP JUMPDEST PUSH2 0x3F63 PUSH32 0x53C4BF237E5A22B55C98DE33B05A209EF38536DA15E7B03F927F0CA548A20C38 PUSH1 0x0 SHL PUSH2 0x415D JUMP JUMPDEST PUSH1 0x0 ISZERO ISZERO PUSH1 0x1 PUSH1 0x14 SWAP1 SLOAD SWAP1 PUSH2 0x100 EXP SWAP1 DIV PUSH1 0xFF AND ISZERO ISZERO EQ PUSH2 0x3FB9 JUMPI PUSH1 0x40 MLOAD PUSH32 0x8C379A000000000000000000000000000000000000000000000000000000000 DUP2 MSTORE PUSH1 0x4 ADD PUSH2 0x3FB0 SWAP1 PUSH2 0x5402 JUMP JUMPDEST PUSH1 0x40 MLOAD DUP1 SWAP2 SUB SWAP1 REVERT JUMPDEST PUSH2 0x3FE5 PUSH32 0x268F2C1E10F709C9AC1A4D344641C89E7E1E6B000443AE380E606EA8D91CFF01 PUSH1 0x0 SHL PUSH2 0x415D JUMP JUMPDEST PUSH2 0x4011 PUSH32 0x790450D6AA1298D299FB2A250F89418FC335666B0FFA263278877692C9CD84EF PUSH1 0x0 SHL PUSH2 0x415D JUMP JUMPDEST PUSH2 0x403D PUSH32 0x9F9EE82FE2419F7BE8FE8F36B38DFD6D865412EBBA96DADEFCE1488A84398445 PUSH1 0x0 SHL PUSH2 0x415D JUMP JUMPDEST PUSH2 0x4069 PUSH32 0xB0CA1BC4965B6F0807B7A2A325888204B8A1CC92BC2302C1FC8DBE9F8EA17832 PUSH1 0x0 SHL PUSH2 0x415D JUMP JUMPDEST PUSH2 0x4095 PUSH32 0x8DDC76987C5469C8EC8DED69BAB3CE886BCE590168F8ED74530E52254D44C68E PUSH1 0x0 SHL PUSH2 0x415D JUMP JUMPDEST DUP3 CALLER PUSH20 0xFFFFFFFFFFFFFFFFFFFFFFFFFFFFFFFFFFFFFFFF AND PUSH1 0xF SLOAD PUSH32 0x3E1ACFD5F2181DE07799D35BE451DBDDFD093425B11BAA4B85098D8F871E90A1 DUP6 DUP6 TIMESTAMP PUSH1 0x40 MLOAD PUSH2 0x40E3 SWAP4 SWAP3 SWAP2 SWAP1 PUSH2 0x520B JUMP JUMPDEST PUSH1 0x40 MLOAD DUP1 SWAP2 SUB SWAP1 LOG4 PUSH2 0x4117 PUSH32 0x4D959A2C1C785D572DD66855CBB5107B34015F72D9E1BD5A91B74E6EB5734865 PUSH1 0x0 SHL PUSH2 0x415D JUMP JUMPDEST PUSH2 0x4143 PUSH32 0x186D09906748B581B28DF7FF9B33F0862204198C386EF367836DF19D4C143AC PUSH1 0x0 SHL PUSH2 0x415D JUMP JUMPDEST PUSH1 0x1 PUSH1 0xF SLOAD PUSH2 0x4152 SWAP2 SWAP1 PUSH2 0x55CA JUMP JUMPDEST PUSH1 0xF DUP2 SWAP1 SSTORE POP POP POP POP JUMP JUMPDEST POP JUMP JUMPDEST PUSH1 0x0 PUSH2 0x418E PUSH32 0x218D62709B17E0CA0BAED46495B428EBB8C198FA71F0312DBD02D9C007EF082E PUSH1 0x0 SHL PUSH2 0x44E7 JUMP JUMPDEST PUSH2 0x41BA PUSH32 0x1ED4D68BEEB0ABE30AE339330F3A5BEB5BD83AF99CB57C10EE65AFD99EF90AFA PUSH1 0x0 SHL PUSH2 0x44E7 JUMP JUMPDEST PUSH2 0x41E6 PUSH32 0xD34CAE2BB4447A295976F225D447C691EC9AE876F38EFF24D44892BD2A6843B7 PUSH1 0x0 SHL PUSH2 0x44E7 JUMP JUMPDEST PUSH1 0x0 DUP3 DUP5 PUSH2 0x41F4 SWAP2 SWAP1 PUSH2 0x55CA JUMP JUMPDEST SWAP1 POP PUSH2 0x4222 PUSH32 0xA0175B8E9ECC81D48E6903E0C2203F1B037214B9D5482F4AD8BB9167CA63FE04 PUSH1 0x0 SHL PUSH2 0x44E7 JUMP JUMPDEST PUSH2 0x424E PUSH32 0xA84F6E76D1624DAB407577E5687D350F536070E0C67299AB82909214EE4C410D PUSH1 0x0 SHL PUSH2 0x44E7 JUMP JUMPDEST PUSH2 0x427A PUSH32 0x2953137A1ACFE4407C68F225209162D1722FF40A5CBF0C975466F2E55C0DEADD PUSH1 0x0 SHL PUSH2 0x44E7 JUMP JUMPDEST DUP4 DUP2 LT ISZERO PUSH2 0x42BD JUMPI PUSH1 0x40 MLOAD PUSH32 0x8C379A000000000000000000000000000000000000000000000000000000000 DUP2 MSTORE PUSH1 0x4 ADD PUSH2 0x42B4 SWAP1 PUSH2 0x5322 JUMP JUMPDEST PUSH1 0x40 MLOAD DUP1 SWAP2 SUB SWAP1 REVERT JUMPDEST PUSH2 0x42E9 PUSH32 0xC329EC6690583048B5CF461AE60426BD75A154F5D4AFF34992C7FE6FBF5B410F PUSH1 0x0 SHL PUSH2 0x44E7 JUMP JUMPDEST PUSH2 0x4315 PUSH32 0x2D2BE2DD26F59BF0B9C72E77D9087E92064BA727BB44F1EC697EAE1AE0C32CEA PUSH1 0x0 SHL PUSH2 0x44E7 JUMP JUMPDEST PUSH2 0x4341 PUSH32 0xF416BA67BD2C03D862FFC1B6332E62792CD9ADC60443F62B4849C232D48152A7 PUSH1 0x0 SHL PUSH2 0x44E7 JUMP JUMPDEST DUP1 SWAP2 POP POP SWAP3 SWAP2 POP POP JUMP JUMPDEST PUSH1 0x0 PUSH2 0x4379 PUSH32 0xE543C8E9AC153123DF5F8785B44B8D1CEBF62D3FC2A9F81C9DD5044EF7BF0854 PUSH1 0x0 SHL PUSH2 0x44E7 JUMP JUMPDEST PUSH2 0x43A5 PUSH32 0x61E824CB769E46211713DF43A418324A89195CDE8DE699DBA1262C4A993ABDF7 PUSH1 0x0 SHL PUSH2 0x44E7 JUMP JUMPDEST PUSH2 0x43D1 PUSH32 0xECA73675FF668D5114B02B759F83882F46494B51D09A28C0A95A4C033A6DE521 PUSH1 0x0 SHL PUSH2 0x44E7 JUMP JUMPDEST PUSH2 0x4411 DUP4 DUP4 PUSH1 0x40 MLOAD DUP1 PUSH1 0x40 ADD PUSH1 0x40 MSTORE DUP1 PUSH1 0x1E DUP2 MSTORE PUSH1 0x20 ADD PUSH32 0x536166654D6174683A207375627472616374696F6E206F766572666C6F770000 DUP2 MSTORE POP PUSH2 0x44EA JUMP JUMPDEST SWAP1 POP SWAP3 SWAP2 POP POP JUMP JUMPDEST PUSH1 0x0 PUSH2 0x4447 PUSH32 0xDBCC488CE83B5CBE7EC265983E225560B0D6767C5B55AE11AA479B306C73429D PUSH1 0x0 SHL PUSH2 0x44E7 JUMP JUMPDEST PUSH2 0x4473 PUSH32 0xDAB171532ECCD6151D071A03980D706A318A03D9DF46C68BD53B23DFE0C395E8 PUSH1 0x0 SHL PUSH2 0x44E7 JUMP JUMPDEST PUSH2 0x449F PUSH32 0x1AE0F236AA2D0A3C94267859C671590856AA048CCA797A53A8161AEDE9B138F PUSH1 0x0 SHL PUSH2 0x44E7 JUMP JUMPDEST PUSH2 0x44DF DUP4 DUP4 PUSH1 0x40 MLOAD DUP1 PUSH1 0x40 ADD PUSH1 0x40 MSTORE DUP1 PUSH1 0x1A DUP2 MSTORE PUSH1 0x20 ADD PUSH32 0x536166654D6174683A206469766973696F6E206279207A65726F000000000000 DUP2 MSTORE POP PUSH2 0x46DA JUMP JUMPDEST SWAP1 POP SWAP3 SWAP2 POP POP JUMP JUMPDEST POP JUMP JUMPDEST PUSH1 0x0 PUSH2 0x4518 PUSH32 0x1FBDEE388BC94F7EA907CF86ED65659C4C0861B2F93FF35121373FBFB52D274C PUSH1 0x0 SHL PUSH2 0x44E7 JUMP JUMPDEST PUSH2 0x4544 PUSH32 0x1C9C8BCE1F025F339BC1810AB2E3F83AAB56BEE51CE9509F4817C83BA73E3DD6 PUSH1 0x0 SHL PUSH2 0x44E7 JUMP JUMPDEST PUSH2 0x4570 PUSH32 0xF21B6312534B469447B32BA6F6DD02E5CFB9598F9162E54DB5C209B522660B3D PUSH1 0x0 SHL PUSH2 0x44E7 JUMP JUMPDEST PUSH2 0x459C PUSH32 0xB6E8615A86E461DC7E295E53342FD6227F30932A37A41A0642C11B06F732CC83 PUSH1 0x0 SHL PUSH2 0x44E7 JUMP JUMPDEST DUP4 DUP4 GT ISZERO DUP3 SWAP1 PUSH2 0x45E2 JUMPI PUSH1 0x40 MLOAD PUSH32 0x8C379A000000000000000000000000000000000000000000000000000000000 DUP2 MSTORE PUSH1 0x4 ADD PUSH2 0x45D9 SWAP2 SWAP1 PUSH2 0x5272 JUMP JUMPDEST PUSH1 0x40 MLOAD DUP1 SWAP2 SUB SWAP1 REVERT JUMPDEST POP PUSH2 0x460F PUSH32 0x60D2ADB5FCF0A3D7BB239756DF863A358684808EFBBD094C875C474BF3182A60 PUSH1 0x0 SHL PUSH2 0x44E7 JUMP JUMPDEST PUSH2 0x463B PUSH32 0x1EBC1335FC499D6CFE42183CE8C517294D1483B3EAC6F023B43CD75AFDC10FB4 PUSH1 0x0 SHL PUSH2 0x44E7 JUMP JUMPDEST PUSH2 0x4667 PUSH32 0x6013DEC7BF92022588B386694C0FEE4112CC6D9B9E752E5446C5D20C9EE19B52 PUSH1 0x0 SHL PUSH2 0x44E7 JUMP JUMPDEST PUSH1 0x0 DUP4 DUP6 PUSH2 0x4675 SWAP2 SWAP1 PUSH2 0x5651 JUMP JUMPDEST SWAP1 POP PUSH2 0x46A3 PUSH32 0x2C5FF1AB89506049AA8C305B2E51BD302A6C341949B2EBEDA9884A4B960F3788 PUSH1 0x0 SHL PUSH2 0x44E7 JUMP JUMPDEST PUSH2 0x46CF PUSH32 0xA0384B50A5D38E95CA16054E41FBC6A2B6A512051D479C02CE27A0CC70020AAE PUSH1 0x0 SHL PUSH2 0x44E7 JUMP JUMPDEST DUP1 SWAP2 POP POP SWAP4 SWAP3 POP POP POP JUMP JUMPDEST PUSH1 0x0 PUSH2 0x4708 PUSH32 0x10F0FC3B7FEDC8CD8E35A9AD986A3106FC26556AFD4B144E55E0335CAEECAE7A PUSH1 0x0 SHL PUSH2 0x44E7 JUMP JUMPDEST PUSH2 0x4734 PUSH32 0x3CBAF572A64FCABFFE35BD89E41D1BE291EC7CF1B22DAEF09230CF69B78CB5F8 PUSH1 0x0 SHL PUSH2 0x44E7 JUMP JUMPDEST PUSH2 0x4760 PUSH32 0xB19EAEBBDD4E4003785EAC5E00496F77F66114F1FE39DC76D1900B416FC26879 PUSH1 0x0 SHL PUSH2 0x44E7 JUMP JUMPDEST PUSH2 0x478C PUSH32 0x3F1327F74AFBC11FFC308ECA19C96A62ECED0C36708FEC2E8A91E78B4A9437F1 PUSH1 0x0 SHL PUSH2 0x44E7 JUMP JUMPDEST PUSH1 0x0 DUP4 GT DUP3 SWAP1 PUSH2 0x47D2 JUMPI PUSH1 0x40 MLOAD PUSH32 0x8C379A000000000000000000000000000000000000000000000000000000000 DUP2 MSTORE PUSH1 0x4 ADD PUSH2 0x47C9 SWAP2 SWAP1 PUSH2 0x5272 JUMP JUMPDEST PUSH1 0x40 MLOAD DUP1 SWAP2 SUB SWAP1 REVERT JUMPDEST POP PUSH2 0x47FF PUSH32 0x9709EA1CDEBE77D02D2F74DA0F0D3B784143DFA4F54D4EFDB2C23E2FC3029B63 PUSH1 0x0 SHL PUSH2 0x44E7 JUMP JUMPDEST PUSH2 0x482B PUSH32 0xFAB9F000F1AAB485DF335837E7F839051CE6AA81445D7360A3C0848DEA130EAE PUSH1 0x0 SHL PUSH2 0x44E7 JUMP JUMPDEST PUSH2 0x4857 PUSH32 0x8B59AC7BD7CEC3F5DF0A4633161683D3E6DAD43A0186693CD37272305933EA74 PUSH1 0x0 SHL PUSH2 0x44E7 JUMP JUMPDEST PUSH1 0x0 DUP4 DUP6 PUSH2 0x4865 SWAP2 SWAP1 PUSH2 0x5620 JUMP JUMPDEST SWAP1 POP PUSH2 0x4893 PUSH32 0x5A5CA35639B76839F03E74809694BFC0735BFA5E9B1F9B13A4E52334ACB47EE8 PUSH1 0x0 SHL PUSH2 0x44E7 JUMP JUMPDEST PUSH2 0x48BF PUSH32 0xE3D972F88E54E0121E68BFB67F0055BB6892665767A8FF4B7889C3A2A46DA62E PUSH1 0x0 SHL PUSH2 0x44E7 JUMP JUMPDEST DUP1 SWAP2 POP POP SWAP4 SWAP3 POP POP POP JUMP JUMPDEST PUSH1 0x40 MLOAD DUP1 PUSH1 0xA0 ADD PUSH1 0x40 MSTORE DUP1 PUSH1 0x0 DUP2 MSTORE PUSH1 0x20 ADD PUSH1 0x0 DUP2 MSTORE PUSH1 0x20 ADD PUSH1 0x0 DUP2 MSTORE PUSH1 0x20 ADD PUSH1 0x0 DUP2 MSTORE PUSH1 0x20 ADD PUSH1 0x60 DUP2 MSTORE POP SWAP1 JUMP JUMPDEST DUP3 DUP1 SLOAD DUP3 DUP3 SSTORE SWAP1 PUSH1 0x0 MSTORE PUSH1 0x20 PUSH1 0x0 KECCAK256 SWAP1 DUP2 ADD SWAP3 DUP3 ISZERO PUSH2 0x4948 JUMPI SWAP2 PUSH1 0x20 MUL DUP3 ADD JUMPDEST DUP3 DUP2 GT ISZERO PUSH2 0x4947 JUMPI DUP3 MLOAD DUP3 SWAP1 DUP1 MLOAD SWAP1 PUSH1 0x20 ADD SWAP1 PUSH2 0x4937 SWAP3 SWAP2 SWAP1 PUSH2 0x4959 JUMP JUMPDEST POP SWAP2 PUSH1 0x20 ADD SWAP2 SWAP1 PUSH1 0x1 ADD SWAP1 PUSH2 0x4919 JUMP JUMPDEST JUMPDEST POP SWAP1 POP PUSH2 0x4955 SWAP2 SWAP1 PUSH2 0x49DF JUMP JUMPDEST POP SWAP1 JUMP JUMPDEST DUP3 DUP1 SLOAD PUSH2 0x4965 SWAP1 PUSH2 0x572B JUMP JUMPDEST SWAP1 PUSH1 0x0 MSTORE PUSH1 0x20 PUSH1 0x0 KECCAK256 SWAP1 PUSH1 0x1F ADD PUSH1 0x20 SWAP1 DIV DUP2 ADD SWAP3 DUP3 PUSH2 0x4987 JUMPI PUSH1 0x0 DUP6 SSTORE PUSH2 0x49CE JUMP JUMPDEST DUP3 PUSH1 0x1F LT PUSH2 0x49A0 JUMPI DUP1 MLOAD PUSH1 0xFF NOT AND DUP4 DUP1 ADD OR DUP6 SSTORE PUSH2 0x49CE JUMP JUMPDEST DUP3 DUP1 ADD PUSH1 0x1 ADD DUP6 SSTORE DUP3 ISZERO PUSH2 0x49CE JUMPI SWAP2 DUP3 ADD JUMPDEST DUP3 DUP2 GT ISZERO PUSH2 0x49CD JUMPI DUP3 MLOAD DUP3 SSTORE SWAP2 PUSH1 0x20 ADD SWAP2 SWAP1 PUSH1 0x1 ADD SWAP1 PUSH2 0x49B2 JUMP JUMPDEST JUMPDEST POP SWAP1 POP PUSH2 0x49DB SWAP2 SWAP1 PUSH2 0x4A03 JUMP JUMPDEST POP SWAP1 JUMP JUMPDEST JUMPDEST DUP1 DUP3 GT ISZERO PUSH2 0x49FF JUMPI PUSH1 0x0 DUP2 DUP2 PUSH2 0x49F6 SWAP2 SWAP1 PUSH2 0x4A20 JUMP JUMPDEST POP PUSH1 0x1 ADD PUSH2 0x49E0 JUMP JUMPDEST POP SWAP1 JUMP JUMPDEST JUMPDEST DUP1 DUP3 GT ISZERO PUSH2 0x4A1C JUMPI PUSH1 0x0 DUP2 PUSH1 0x0 SWAP1 SSTORE POP PUSH1 0x1 ADD PUSH2 0x4A04 JUMP JUMPDEST POP SWAP1 JUMP JUMPDEST POP DUP1 SLOAD PUSH2 0x4A2C SWAP1 PUSH2 0x572B JUMP JUMPDEST PUSH1 0x0 DUP3 SSTORE DUP1 PUSH1 0x1F LT PUSH2 0x4A3E JUMPI POP PUSH2 0x4A5D JUMP JUMPDEST PUSH1 0x1F ADD PUSH1 0x20 SWAP1 DIV SWAP1 PUSH1 0x0 MSTORE PUSH1 0x20 PUSH1 0x0 KECCAK256 SWAP1 DUP2 ADD SWAP1 PUSH2 0x4A5C SWAP2 SWAP1 PUSH2 0x4A03 JUMP JUMPDEST JUMPDEST POP JUMP JUMPDEST PUSH1 0x0 PUSH2 0x4A73 PUSH2 0x4A6E DUP5 PUSH2 0x5545 JUMP JUMPDEST PUSH2 0x5514 JUMP JUMPDEST SWAP1 POP DUP3 DUP2 MSTORE PUSH1 0x20 DUP2 ADD DUP5 DUP5 DUP5 ADD GT ISZERO PUSH2 0x4A8B JUMPI PUSH1 0x0 DUP1 REVERT JUMPDEST PUSH2 0x4A96 DUP5 DUP3 DUP6 PUSH2 0x56E9 JUMP JUMPDEST POP SWAP4 SWAP3 POP POP POP JUMP JUMPDEST PUSH1 0x0 DUP2 CALLDATALOAD SWAP1 POP PUSH2 0x4AAD DUP2 PUSH2 0x582A JUMP JUMPDEST SWAP3 SWAP2 POP POP JUMP JUMPDEST PUSH1 0x0 DUP2 CALLDATALOAD SWAP1 POP PUSH2 0x4AC2 DUP2 PUSH2 0x5841 JUMP JUMPDEST SWAP3 SWAP2 POP POP JUMP JUMPDEST PUSH1 0x0 DUP2 CALLDATALOAD SWAP1 POP PUSH2 0x4AD7 DUP2 PUSH2 0x5858 JUMP JUMPDEST SWAP3 SWAP2 POP POP JUMP JUMPDEST PUSH1 0x0 DUP3 PUSH1 0x1F DUP4 ADD SLT PUSH2 0x4AEE JUMPI PUSH1 0x0 DUP1 REVERT JUMPDEST DUP2 CALLDATALOAD PUSH2 0x4AFE DUP5 DUP3 PUSH1 0x20 DUP7 ADD PUSH2 0x4A60 JUMP JUMPDEST SWAP2 POP POP SWAP3 SWAP2 POP POP JUMP JUMPDEST PUSH1 0x0 DUP2 CALLDATALOAD SWAP1 POP PUSH2 0x4B16 DUP2 PUSH2 0x586F JUMP JUMPDEST SWAP3 SWAP2 POP POP JUMP JUMPDEST PUSH1 0x0 PUSH1 0x20 DUP3 DUP5 SUB SLT ISZERO PUSH2 0x4B2E JUMPI PUSH1 0x0 DUP1 REVERT JUMPDEST PUSH1 0x0 PUSH2 0x4B3C DUP5 DUP3 DUP6 ADD PUSH2 0x4A9E JUMP JUMPDEST SWAP2 POP POP SWAP3 SWAP2 POP POP JUMP JUMPDEST PUSH1 0x0 DUP1 PUSH1 0x40 DUP4 DUP6 SUB SLT ISZERO PUSH2 0x4B58 JUMPI PUSH1 0x0 DUP1 REVERT JUMPDEST PUSH1 0x0 PUSH2 0x4B66 DUP6 DUP3 DUP7 ADD PUSH2 0x4A9E JUMP JUMPDEST SWAP3 POP POP PUSH1 0x20 PUSH2 0x4B77 DUP6 DUP3 DUP7 ADD PUSH2 0x4A9E JUMP JUMPDEST SWAP2 POP POP SWAP3 POP SWAP3 SWAP1 POP JUMP JUMPDEST PUSH1 0x0 DUP1 PUSH1 0x40 DUP4 DUP6 SUB SLT ISZERO PUSH2 0x4B94 JUMPI PUSH1 0x0 DUP1 REVERT JUMPDEST PUSH1 0x0 PUSH2 0x4BA2 DUP6 DUP3 DUP7 ADD PUSH2 0x4A9E JUMP JUMPDEST SWAP3 POP POP PUSH1 0x20 PUSH2 0x4BB3 DUP6 DUP3 DUP7 ADD PUSH2 0x4B07 JUMP JUMPDEST SWAP2 POP POP SWAP3 POP SWAP3 SWAP1 POP JUMP JUMPDEST PUSH1 0x0 PUSH1 0x20 DUP3 DUP5 SUB SLT ISZERO PUSH2 0x4BCF JUMPI PUSH1 0x0 DUP1 REVERT JUMPDEST PUSH1 0x0 PUSH2 0x4BDD DUP5 DUP3 DUP6 ADD PUSH2 0x4AC8 JUMP JUMPDEST SWAP2 POP POP SWAP3 SWAP2 POP POP JUMP JUMPDEST PUSH1 0x0 DUP1 PUSH1 0x0 PUSH1 0x60 DUP5 DUP7 SUB SLT ISZERO PUSH2 0x4BFB JUMPI PUSH1 0x0 DUP1 REVERT JUMPDEST PUSH1 0x0 PUSH2 0x4C09 DUP7 DUP3 DUP8 ADD PUSH2 0x4AC8 JUMP JUMPDEST SWAP4 POP POP PUSH1 0x20 PUSH2 0x4C1A DUP7 DUP3 DUP8 ADD PUSH2 0x4AC8 JUMP JUMPDEST SWAP3 POP POP PUSH1 0x40 PUSH2 0x4C2B DUP7 DUP3 DUP8 ADD PUSH2 0x4AB3 JUMP JUMPDEST SWAP2 POP POP SWAP3 POP SWAP3 POP SWAP3 JUMP JUMPDEST PUSH1 0x0 DUP1 PUSH1 0x0 PUSH1 0x60 DUP5 DUP7 SUB SLT ISZERO PUSH2 0x4C4A JUMPI PUSH1 0x0 DUP1 REVERT JUMPDEST PUSH1 0x0 PUSH2 0x4C58 DUP7 DUP3 DUP8 ADD PUSH2 0x4AC8 JUMP JUMPDEST SWAP4 POP POP PUSH1 0x20 PUSH2 0x4C69 DUP7 DUP3 DUP8 ADD PUSH2 0x4AC8 JUMP JUMPDEST SWAP3 POP POP PUSH1 0x40 DUP5 ADD CALLDATALOAD PUSH8 0xFFFFFFFFFFFFFFFF DUP2 GT ISZERO PUSH2 0x4C86 JUMPI PUSH1 0x0 DUP1 REVERT JUMPDEST PUSH2 0x4C92 DUP7 DUP3 DUP8 ADD PUSH2 0x4ADD JUMP JUMPDEST SWAP2 POP POP SWAP3 POP SWAP3 POP SWAP3 JUMP JUMPDEST PUSH1 0x0 DUP1 PUSH1 0x40 DUP4 DUP6 SUB SLT ISZERO PUSH2 0x4CAF JUMPI PUSH1 0x0 DUP1 REVERT JUMPDEST PUSH1 0x0 DUP4 ADD CALLDATALOAD PUSH8 0xFFFFFFFFFFFFFFFF DUP2 GT ISZERO PUSH2 0x4CC9 JUMPI PUSH1 0x0 DUP1 REVERT JUMPDEST PUSH2 0x4CD5 DUP6 DUP3 DUP7 ADD PUSH2 0x4ADD JUMP JUMPDEST SWAP3 POP POP PUSH1 0x20 PUSH2 0x4CE6 DUP6 DUP3 DUP7 ADD PUSH2 0x4B07 JUMP JUMPDEST SWAP2 POP POP SWAP3 POP SWAP3 SWAP1 POP JUMP JUMPDEST PUSH1 0x0 PUSH1 0x20 DUP3 DUP5 SUB SLT ISZERO PUSH2 0x4D02 JUMPI PUSH1 0x0 DUP1 REVERT JUMPDEST PUSH1 0x0 PUSH2 0x4D10 DUP5 DUP3 DUP6 ADD PUSH2 0x4B07 JUMP JUMPDEST SWAP2 POP POP SWAP3 SWAP2 POP POP JUMP JUMPDEST PUSH1 0x0 DUP1 PUSH1 0x0 PUSH1 0x60 DUP5 DUP7 SUB SLT ISZERO PUSH2 0x4D2E JUMPI PUSH1 0x0 DUP1 REVERT JUMPDEST PUSH1 0x0 PUSH2 0x4D3C DUP7 DUP3 DUP8 ADD PUSH2 0x4B07 JUMP JUMPDEST SWAP4 POP POP PUSH1 0x20 DUP5 ADD CALLDATALOAD PUSH8 0xFFFFFFFFFFFFFFFF DUP2 GT ISZERO PUSH2 0x4D59 JUMPI PUSH1 0x0 DUP1 REVERT JUMPDEST PUSH2 0x4D65 DUP7 DUP3 DUP8 ADD PUSH2 0x4ADD JUMP JUMPDEST SWAP3 POP POP PUSH1 0x40 PUSH2 0x4D76 DUP7 DUP3 DUP8 ADD PUSH2 0x4AB3 JUMP JUMPDEST SWAP2 POP POP SWAP3 POP SWAP3 POP SWAP3 JUMP JUMPDEST PUSH1 0x0 PUSH2 0x4D8C DUP4 DUP4 PUSH2 0x5151 JUMP JUMPDEST PUSH1 0x20 DUP4 ADD SWAP1 POP SWAP3 SWAP2 POP POP JUMP JUMPDEST PUSH2 0x4DA1 DUP2 PUSH2 0x5697 JUMP JUMPDEST DUP3 MSTORE POP POP JUMP JUMPDEST PUSH2 0x4DB0 DUP2 PUSH2 0x5685 JUMP JUMPDEST DUP3 MSTORE POP POP JUMP JUMPDEST PUSH1 0x0 PUSH2 0x4DC1 DUP3 PUSH2 0x5585 JUMP JUMPDEST PUSH2 0x4DCB DUP2 DUP6 PUSH2 0x55A8 JUMP JUMPDEST SWAP4 POP PUSH2 0x4DD6 DUP4 PUSH2 0x5575 JUMP JUMPDEST DUP1 PUSH1 0x0 JUMPDEST DUP4 DUP2 LT ISZERO PUSH2 0x4E07 JUMPI DUP2 MLOAD PUSH2 0x4DEE DUP9 DUP3 PUSH2 0x4D80 JUMP JUMPDEST SWAP8 POP PUSH2 0x4DF9 DUP4 PUSH2 0x559B JUMP JUMPDEST SWAP3 POP POP PUSH1 0x1 DUP2 ADD SWAP1 POP PUSH2 0x4DDA JUMP JUMPDEST POP DUP6 SWAP4 POP POP POP POP SWAP3 SWAP2 POP POP JUMP JUMPDEST PUSH2 0x4E1D DUP2 PUSH2 0x56A9 JUMP JUMPDEST DUP3 MSTORE POP POP JUMP JUMPDEST PUSH2 0x4E2C DUP2 PUSH2 0x56B5 JUMP JUMPDEST DUP3 MSTORE POP POP JUMP JUMPDEST PUSH1 0x0 PUSH2 0x4E3D DUP3 PUSH2 0x5590 JUMP JUMPDEST PUSH2 0x4E47 DUP2 DUP6 PUSH2 0x55B9 JUMP JUMPDEST SWAP4 POP PUSH2 0x4E57 DUP2 DUP6 PUSH1 0x20 DUP7 ADD PUSH2 0x56F8 JUMP JUMPDEST PUSH2 0x4E60 DUP2 PUSH2 0x5819 JUMP JUMPDEST DUP5 ADD SWAP2 POP POP SWAP3 SWAP2 POP POP JUMP JUMPDEST PUSH1 0x0 PUSH2 0x4E78 PUSH1 0x14 DUP4 PUSH2 0x55B9 JUMP JUMPDEST SWAP2 POP PUSH32 0x416C6C20526F756E647320436F6D706C65746564000000000000000000000000 PUSH1 0x0 DUP4 ADD MSTORE PUSH1 0x20 DUP3 ADD SWAP1 POP SWAP2 SWAP1 POP JUMP JUMPDEST PUSH1 0x0 PUSH2 0x4EB8 PUSH1 0x1B DUP4 PUSH2 0x55B9 JUMP JUMPDEST SWAP2 POP PUSH32 0x536166654D6174683A206164646974696F6E206F766572666C6F770000000000 PUSH1 0x0 DUP4 ADD MSTORE PUSH1 0x20 DUP3 ADD SWAP1 POP SWAP2 SWAP1 POP JUMP JUMPDEST PUSH1 0x0 PUSH2 0x4EF8 PUSH1 0xC DUP4 PUSH2 0x55B9 JUMP JUMPDEST SWAP2 POP PUSH32 0x496E76616C696420557365720000000000000000000000000000000000000000 PUSH1 0x0 DUP4 ADD MSTORE PUSH1 0x20 DUP3 ADD SWAP1 POP SWAP2 SWAP1 POP JUMP JUMPDEST PUSH1 0x0 PUSH2 0x4F38 PUSH1 0x17 DUP4 PUSH2 0x55B9 JUMP JUMPDEST SWAP2 POP PUSH32 0x55736572206973206E6F742043616D706169676E696E67000000000000000000 PUSH1 0x0 DUP4 ADD MSTORE PUSH1 0x20 DUP3 ADD SWAP1 POP SWAP2 SWAP1 POP JUMP JUMPDEST PUSH1 0x0 PUSH2 0x4F78 PUSH1 0x27 DUP4 PUSH2 0x55B9 JUMP JUMPDEST SWAP2 POP PUSH32 0x4E756D626572206F6620526F756E64732073686F756C64206265206C65737320 PUSH1 0x0 DUP4 ADD MSTORE PUSH32 0x7468616E20313000000000000000000000000000000000000000000000000000 PUSH1 0x20 DUP4 ADD MSTORE PUSH1 0x40 DUP3 ADD SWAP1 POP SWAP2 SWAP1 POP JUMP JUMPDEST PUSH1 0x0 PUSH2 0x4FDE PUSH1 0xF DUP4 PUSH2 0x55B9 JUMP JUMPDEST SWAP2 POP PUSH32 0x496E76616C69642046756E642049440000000000000000000000000000000000 PUSH1 0x0 DUP4 ADD MSTORE PUSH1 0x20 DUP3 ADD SWAP1 POP SWAP2 SWAP1 POP JUMP JUMPDEST PUSH1 0x0 PUSH2 0x501E PUSH1 0xF DUP4 PUSH2 0x55B9 JUMP JUMPDEST SWAP2 POP PUSH32 0x496E76616C6964205461736B2049440000000000000000000000000000000000 PUSH1 0x0 DUP4 ADD MSTORE PUSH1 0x20 DUP3 ADD SWAP1 POP SWAP2 SWAP1 POP JUMP JUMPDEST PUSH1 0x0 PUSH2 0x505E PUSH1 0x17 DUP4 PUSH2 0x55B9 JUMP JUMPDEST SWAP2 POP PUSH32 0x5573657220416C72656164792052656769737465726564000000000000000000 PUSH1 0x0 DUP4 ADD MSTORE PUSH1 0x20 DUP3 ADD SWAP1 POP SWAP2 SWAP1 POP JUMP JUMPDEST PUSH1 0x0 PUSH2 0x509E PUSH1 0x12 DUP4 PUSH2 0x55B9 JUMP JUMPDEST SWAP2 POP PUSH32 0x436F6E7472616374206973205061757365640000000000000000000000000000 PUSH1 0x0 DUP4 ADD MSTORE PUSH1 0x20 DUP3 ADD SWAP1 POP SWAP2 SWAP1 POP JUMP JUMPDEST PUSH1 0x0 PUSH2 0x50DE PUSH1 0x1D DUP4 PUSH2 0x55B9 JUMP JUMPDEST SWAP2 POP PUSH32 0x596F7520617265206E6F742074686520636F6F7264696E61746F722021000000 PUSH1 0x0 DUP4 ADD MSTORE PUSH1 0x20 DUP3 ADD SWAP1 POP SWAP2 SWAP1 POP JUMP JUMPDEST PUSH1 0x0 PUSH2 0x511E PUSH1 0xA DUP4 PUSH2 0x55B9 JUMP JUMPDEST SWAP2 POP PUSH32 0x4F6E6C79204F776E657200000000000000000000000000000000000000000000 PUSH1 0x0 DUP4 ADD MSTORE PUSH1 0x20 DUP3 ADD SWAP1 POP SWAP2 SWAP1 POP JUMP JUMPDEST PUSH2 0x515A DUP2 PUSH2 0x56DF JUMP JUMPDEST DUP3 MSTORE POP POP JUMP JUMPDEST PUSH2 0x5169 DUP2 PUSH2 0x56DF JUMP JUMPDEST DUP3 MSTORE POP POP JUMP JUMPDEST PUSH1 0x0 PUSH1 0x20 DUP3 ADD SWAP1 POP PUSH2 0x5184 PUSH1 0x0 DUP4 ADD DUP5 PUSH2 0x4DA7 JUMP JUMPDEST SWAP3 SWAP2 POP POP JUMP JUMPDEST PUSH1 0x0 PUSH1 0x20 DUP3 ADD SWAP1 POP PUSH2 0x519F PUSH1 0x0 DUP4 ADD DUP5 PUSH2 0x4D98 JUMP JUMPDEST SWAP3 SWAP2 POP POP JUMP JUMPDEST PUSH1 0x0 PUSH1 0x40 DUP3 ADD SWAP1 POP PUSH2 0x51BA PUSH1 0x0 DUP4 ADD DUP6 PUSH2 0x4D98 JUMP JUMPDEST PUSH2 0x51C7 PUSH1 0x20 DUP4 ADD DUP5 PUSH2 0x5160 JUMP JUMPDEST SWAP4 SWAP3 POP POP POP JUMP JUMPDEST PUSH1 0x0 PUSH1 0x20 DUP3 ADD SWAP1 POP DUP2 DUP2 SUB PUSH1 0x0 DUP4 ADD MSTORE PUSH2 0x51E8 DUP2 DUP5 PUSH2 0x4DB6 JUMP JUMPDEST SWAP1 POP SWAP3 SWAP2 POP POP JUMP JUMPDEST PUSH1 0x0 PUSH1 0x20 DUP3 ADD SWAP1 POP PUSH2 0x5205 PUSH1 0x0 DUP4 ADD DUP5 PUSH2 0x4E14 JUMP JUMPDEST SWAP3 SWAP2 POP POP JUMP JUMPDEST PUSH1 0x0 PUSH1 0x60 DUP3 ADD SWAP1 POP PUSH2 0x5220 PUSH1 0x0 DUP4 ADD DUP7 PUSH2 0x4E23 JUMP JUMPDEST DUP2 DUP2 SUB PUSH1 0x20 DUP4 ADD MSTORE PUSH2 0x5232 DUP2 DUP6 PUSH2 0x4E32 JUMP JUMPDEST SWAP1 POP PUSH2 0x5241 PUSH1 0x40 DUP4 ADD DUP5 PUSH2 0x5160 JUMP JUMPDEST SWAP5 SWAP4 POP POP POP POP JUMP JUMPDEST PUSH1 0x0 PUSH1 0x40 DUP3 ADD SWAP1 POP PUSH2 0x525E PUSH1 0x0 DUP4 ADD DUP6 PUSH2 0x4E23 JUMP JUMPDEST PUSH2 0x526B PUSH1 0x20 DUP4 ADD DUP5 PUSH2 0x5160 JUMP JUMPDEST SWAP4 SWAP3 POP POP POP JUMP JUMPDEST PUSH1 0x0 PUSH1 0x20 DUP3 ADD SWAP1 POP DUP2 DUP2 SUB PUSH1 0x0 DUP4 ADD MSTORE PUSH2 0x528C DUP2 DUP5 PUSH2 0x4E32 JUMP JUMPDEST SWAP1 POP SWAP3 SWAP2 POP POP JUMP JUMPDEST PUSH1 0x0 PUSH1 0x40 DUP3 ADD SWAP1 POP DUP2 DUP2 SUB PUSH1 0x0 DUP4 ADD MSTORE PUSH2 0x52AE DUP2 DUP6 PUSH2 0x4E32 JUMP JUMPDEST SWAP1 POP PUSH2 0x52BD PUSH1 0x20 DUP4 ADD DUP5 PUSH2 0x5160 JUMP JUMPDEST SWAP4 SWAP3 POP POP POP JUMP JUMPDEST PUSH1 0x0 PUSH1 0x60 DUP3 ADD SWAP1 POP DUP2 DUP2 SUB PUSH1 0x0 DUP4 ADD MSTORE PUSH2 0x52DE DUP2 DUP7 PUSH2 0x4E32 JUMP JUMPDEST SWAP1 POP PUSH2 0x52ED PUSH1 0x20 DUP4 ADD DUP6 PUSH2 0x5160 JUMP JUMPDEST PUSH2 0x52FA PUSH1 0x40 DUP4 ADD DUP5 PUSH2 0x5160 JUMP JUMPDEST SWAP5 SWAP4 POP POP POP POP JUMP JUMPDEST PUSH1 0x0 PUSH1 0x20 DUP3 ADD SWAP1 POP DUP2 DUP2 SUB PUSH1 0x0 DUP4 ADD MSTORE PUSH2 0x531B DUP2 PUSH2 0x4E6B JUMP JUMPDEST SWAP1 POP SWAP2 SWAP1 POP JUMP JUMPDEST PUSH1 0x0 PUSH1 0x20 DUP3 ADD SWAP1 POP DUP2 DUP2 SUB PUSH1 0x0 DUP4 ADD MSTORE PUSH2 0x533B DUP2 PUSH2 0x4EAB JUMP JUMPDEST SWAP1 POP SWAP2 SWAP1 POP JUMP JUMPDEST PUSH1 0x0 PUSH1 0x20 DUP3 ADD SWAP1 POP DUP2 DUP2 SUB PUSH1 0x0 DUP4 ADD MSTORE PUSH2 0x535B DUP2 PUSH2 0x4EEB JUMP JUMPDEST SWAP1 POP SWAP2 SWAP1 POP JUMP JUMPDEST PUSH1 0x0 PUSH1 0x20 DUP3 ADD SWAP1 POP DUP2 DUP2 SUB PUSH1 0x0 DUP4 ADD MSTORE PUSH2 0x537B DUP2 PUSH2 0x4F2B JUMP JUMPDEST SWAP1 POP SWAP2 SWAP1 POP JUMP JUMPDEST PUSH1 0x0 PUSH1 0x20 DUP3 ADD SWAP1 POP DUP2 DUP2 SUB PUSH1 0x0 DUP4 ADD MSTORE PUSH2 0x539B DUP2 PUSH2 0x4F6B JUMP JUMPDEST SWAP1 POP SWAP2 SWAP1 POP JUMP JUMPDEST PUSH1 0x0 PUSH1 0x20 DUP3 ADD SWAP1 POP DUP2 DUP2 SUB PUSH1 0x0 DUP4 ADD MSTORE PUSH2 0x53BB DUP2 PUSH2 0x4FD1 JUMP JUMPDEST SWAP1 POP SWAP2 SWAP1 POP JUMP JUMPDEST PUSH1 0x0 PUSH1 0x20 DUP3 ADD SWAP1 POP DUP2 DUP2 SUB PUSH1 0x0 DUP4 ADD MSTORE PUSH2 0x53DB DUP2 PUSH2 0x5011 JUMP JUMPDEST SWAP1 POP SWAP2 SWAP1 POP JUMP JUMPDEST PUSH1 0x0 PUSH1 0x20 DUP3 ADD SWAP1 POP DUP2 DUP2 SUB PUSH1 0x0 DUP4 ADD MSTORE PUSH2 0x53FB DUP2 PUSH2 0x5051 JUMP JUMPDEST SWAP1 POP SWAP2 SWAP1 POP JUMP JUMPDEST PUSH1 0x0 PUSH1 0x20 DUP3 ADD SWAP1 POP DUP2 DUP2 SUB PUSH1 0x0 DUP4 ADD MSTORE PUSH2 0x541B DUP2 PUSH2 0x5091 JUMP JUMPDEST SWAP1 POP SWAP2 SWAP1 POP JUMP JUMPDEST PUSH1 0x0 PUSH1 0x20 DUP3 ADD SWAP1 POP DUP2 DUP2 SUB PUSH1 0x0 DUP4 ADD MSTORE PUSH2 0x543B DUP2 PUSH2 0x50D1 JUMP JUMPDEST SWAP1 POP SWAP2 SWAP1 POP JUMP JUMPDEST PUSH1 0x0 PUSH1 0x20 DUP3 ADD SWAP1 POP DUP2 DUP2 SUB PUSH1 0x0 DUP4 ADD MSTORE PUSH2 0x545B DUP2 PUSH2 0x5111 JUMP JUMPDEST SWAP1 POP SWAP2 SWAP1 POP JUMP JUMPDEST PUSH1 0x0 PUSH1 0x20 DUP3 ADD SWAP1 POP PUSH2 0x5477 PUSH1 0x0 DUP4 ADD DUP5 PUSH2 0x5160 JUMP JUMPDEST SWAP3 SWAP2 POP POP JUMP JUMPDEST PUSH1 0x0 PUSH1 0x40 DUP3 ADD SWAP1 POP PUSH2 0x5492 PUSH1 0x0 DUP4 ADD DUP6 PUSH2 0x5160 JUMP JUMPDEST PUSH2 0x549F PUSH1 0x20 DUP4 ADD DUP5 PUSH2 0x4E23 JUMP JUMPDEST SWAP4 SWAP3 POP POP POP JUMP JUMPDEST PUSH1 0x0 PUSH1 0x40 DUP3 ADD SWAP1 POP PUSH2 0x54BB PUSH1 0x0 DUP4 ADD DUP6 PUSH2 0x5160 JUMP JUMPDEST PUSH2 0x54C8 PUSH1 0x20 DUP4 ADD DUP5 PUSH2 0x5160 JUMP JUMPDEST SWAP4 SWAP3 POP POP POP JUMP JUMPDEST PUSH1 0x0 PUSH1 0x80 DUP3 ADD SWAP1 POP PUSH2 0x54E4 PUSH1 0x0 DUP4 ADD DUP8 PUSH2 0x5160 JUMP JUMPDEST PUSH2 0x54F1 PUSH1 0x20 DUP4 ADD DUP7 PUSH2 0x5160 JUMP JUMPDEST PUSH2 0x54FE PUSH1 0x40 DUP4 ADD DUP6 PUSH2 0x5160 JUMP JUMPDEST PUSH2 0x550B PUSH1 0x60 DUP4 ADD DUP5 PUSH2 0x5160 JUMP JUMPDEST SWAP6 SWAP5 POP POP POP POP POP JUMP JUMPDEST PUSH1 0x0 PUSH1 0x40 MLOAD SWAP1 POP DUP2 DUP2 ADD DUP2 DUP2 LT PUSH8 0xFFFFFFFFFFFFFFFF DUP3 GT OR ISZERO PUSH2 0x553B JUMPI PUSH2 0x553A PUSH2 0x57EA JUMP JUMPDEST JUMPDEST DUP1 PUSH1 0x40 MSTORE POP SWAP2 SWAP1 POP JUMP JUMPDEST PUSH1 0x0 PUSH8 0xFFFFFFFFFFFFFFFF DUP3 GT ISZERO PUSH2 0x5560 JUMPI PUSH2 0x555F PUSH2 0x57EA JUMP JUMPDEST JUMPDEST PUSH1 0x1F NOT PUSH1 0x1F DUP4 ADD AND SWAP1 POP PUSH1 0x20 DUP2 ADD SWAP1 POP SWAP2 SWAP1 POP JUMP JUMPDEST PUSH1 0x0 DUP2 SWAP1 POP PUSH1 0x20 DUP3 ADD SWAP1 POP SWAP2 SWAP1 POP JUMP JUMPDEST PUSH1 0x0 DUP2 MLOAD SWAP1 POP SWAP2 SWAP1 POP JUMP JUMPDEST PUSH1 0x0 DUP2 MLOAD SWAP1 POP SWAP2 SWAP1 POP JUMP JUMPDEST PUSH1 0x0 PUSH1 0x20 DUP3 ADD SWAP1 POP SWAP2 SWAP1 POP JUMP JUMPDEST PUSH1 0x0 DUP3 DUP3 MSTORE PUSH1 0x20 DUP3 ADD SWAP1 POP SWAP3 SWAP2 POP POP JUMP JUMPDEST PUSH1 0x0 DUP3 DUP3 MSTORE PUSH1 0x20 DUP3 ADD SWAP1 POP SWAP3 SWAP2 POP POP JUMP JUMPDEST PUSH1 0x0 PUSH2 0x55D5 DUP3 PUSH2 0x56DF JUMP JUMPDEST SWAP2 POP PUSH2 0x55E0 DUP4 PUSH2 0x56DF JUMP JUMPDEST SWAP3 POP DUP3 PUSH32 0xFFFFFFFFFFFFFFFFFFFFFFFFFFFFFFFFFFFFFFFFFFFFFFFFFFFFFFFFFFFFFFFF SUB DUP3 GT ISZERO PUSH2 0x5615 JUMPI PUSH2 0x5614 PUSH2 0x575D JUMP JUMPDEST JUMPDEST DUP3 DUP3 ADD SWAP1 POP SWAP3 SWAP2 POP POP JUMP JUMPDEST PUSH1 0x0 PUSH2 0x562B DUP3 PUSH2 0x56DF JUMP JUMPDEST SWAP2 POP PUSH2 0x5636 DUP4 PUSH2 0x56DF JUMP JUMPDEST SWAP3 POP DUP3 PUSH2 0x5646 JUMPI PUSH2 0x5645 PUSH2 0x578C JUMP JUMPDEST JUMPDEST DUP3 DUP3 DIV SWAP1 POP SWAP3 SWAP2 POP POP JUMP JUMPDEST PUSH1 0x0 PUSH2 0x565C DUP3 PUSH2 0x56DF JUMP JUMPDEST SWAP2 POP PUSH2 0x5667 DUP4 PUSH2 0x56DF JUMP JUMPDEST SWAP3 POP DUP3 DUP3 LT ISZERO PUSH2 0x567A JUMPI PUSH2 0x5679 PUSH2 0x575D JUMP JUMPDEST JUMPDEST DUP3 DUP3 SUB SWAP1 POP SWAP3 SWAP2 POP POP JUMP JUMPDEST PUSH1 0x0 PUSH2 0x5690 DUP3 PUSH2 0x56BF JUMP JUMPDEST SWAP1 POP SWAP2 SWAP1 POP JUMP JUMPDEST PUSH1 0x0 PUSH2 0x56A2 DUP3 PUSH2 0x56BF JUMP JUMPDEST SWAP1 POP SWAP2 SWAP1 POP JUMP JUMPDEST PUSH1 0x0 DUP2 ISZERO ISZERO SWAP1 POP SWAP2 SWAP1 POP JUMP JUMPDEST PUSH1 0x0 DUP2 SWAP1 POP SWAP2 SWAP1 POP JUMP JUMPDEST PUSH1 0x0 PUSH20 0xFFFFFFFFFFFFFFFFFFFFFFFFFFFFFFFFFFFFFFFF DUP3 AND SWAP1 POP SWAP2 SWAP1 POP JUMP JUMPDEST PUSH1 0x0 DUP2 SWAP1 POP SWAP2 SWAP1 POP JUMP JUMPDEST DUP3 DUP2 DUP4 CALLDATACOPY PUSH1 0x0 DUP4 DUP4 ADD MSTORE POP POP POP JUMP JUMPDEST PUSH1 0x0 JUMPDEST DUP4 DUP2 LT ISZERO PUSH2 0x5716 JUMPI DUP1 DUP3 ADD MLOAD DUP2 DUP5 ADD MSTORE PUSH1 0x20 DUP2 ADD SWAP1 POP PUSH2 0x56FB JUMP JUMPDEST DUP4 DUP2 GT ISZERO PUSH2 0x5725 JUMPI PUSH1 0x0 DUP5 DUP5 ADD MSTORE JUMPDEST POP POP POP POP JUMP JUMPDEST PUSH1 0x0 PUSH1 0x2 DUP3 DIV SWAP1 POP PUSH1 0x1 DUP3 AND DUP1 PUSH2 0x5743 JUMPI PUSH1 0x7F DUP3 AND SWAP2 POP JUMPDEST PUSH1 0x20 DUP3 LT DUP2 EQ ISZERO PUSH2 0x5757 JUMPI PUSH2 0x5756 PUSH2 0x57BB JUMP JUMPDEST JUMPDEST POP SWAP2 SWAP1 POP JUMP JUMPDEST PUSH32 0x4E487B7100000000000000000000000000000000000000000000000000000000 PUSH1 0x0 MSTORE PUSH1 0x11 PUSH1 0x4 MSTORE PUSH1 0x24 PUSH1 0x0 REVERT JUMPDEST PUSH32 0x4E487B7100000000000000000000000000000000000000000000000000000000 PUSH1 0x0 MSTORE PUSH1 0x12 PUSH1 0x4 MSTORE PUSH1 0x24 PUSH1 0x0 REVERT JUMPDEST PUSH32 0x4E487B7100000000000000000000000000000000000000000000000000000000 PUSH1 0x0 MSTORE PUSH1 0x22 PUSH1 0x4 MSTORE PUSH1 0x24 PUSH1 0x0 REVERT JUMPDEST PUSH32 0x4E487B7100000000000000000000000000000000000000000000000000000000 PUSH1 0x0 MSTORE PUSH1 0x41 PUSH1 0x4 MSTORE PUSH1 0x24 PUSH1 0x0 REVERT JUMPDEST PUSH1 0x0 PUSH1 0x1F NOT PUSH1 0x1F DUP4 ADD AND SWAP1 POP SWAP2 SWAP1 POP JUMP JUMPDEST PUSH2 0x5833 DUP2 PUSH2 0x5685 JUMP JUMPDEST DUP2 EQ PUSH2 0x583E JUMPI PUSH1 0x0 DUP1 REVERT JUMPDEST POP JUMP JUMPDEST PUSH2 0x584A DUP2 PUSH2 0x5697 JUMP JUMPDEST DUP2 EQ PUSH2 0x5855 JUMPI PUSH1 0x0 DUP1 REVERT JUMPDEST POP JUMP JUMPDEST PUSH2 0x5861 DUP2 PUSH2 0x56B5 JUMP JUMPDEST DUP2 EQ PUSH2 0x586C JUMPI PUSH1 0x0 DUP1 REVERT JUMPDEST POP JUMP JUMPDEST PUSH2 0x5878 DUP2 PUSH2 0x56DF JUMP JUMPDEST DUP2 EQ PUSH2 0x5883 JUMPI PUSH1 0x0 DUP1 REVERT JUMPDEST POP JUMP INVALID LOG2 PUSH5 0x6970667358 0x22 SLT KECCAK256 CODESIZE PUSH16 0x6B565A3558338BC0A488ED185A269629 0xAD 0xE 0xA9 GAS EXTCODECOPY CHAINID CALLVALUE DUP13 CREATE 0xDC 0xFB RETURN PUSH24 0x9664736F6C63430008000033000000000000000000000000 "
        },
        "methodIdentifiers": {
          "Campaigns(uint256)": "4013be10",
          "Funds(uint256)": "eee9b99e",
          "SaarthiTasks(uint256)": "6092a502",
          "UserCnt()": "974cf546",
          "UserTaskIDs(address,uint256)": "6946c5e9",
          "Users(address)": "99b956a0",
          "activeCampaignCnt()": "b063795c",
          "addUser()": "455c928c",
          "approval(address,address)": "e1270b6e",
          "billUser(uint256)": "d6857f15",
          "c_0x45b75de4(bytes32)": "f819d88a",
          "campaignEnabled(address)": "9ff60711",
          "createFund(bytes32,bytes32,address)": "0d3bb50f",
          "createTask(string,uint256)": "04fe2b34",
          "donateToCampaign(address)": "7c6abc82",
          "donateToFund(uint256)": "11cd13ac",
          "fileReport(bytes32,bytes32,string)": "f1fcc8e9",
          "fundCnt()": "cd5e5483",
          "getTaskCount()": "c17a340e",
          "getTasksOfUser()": "df8fc3fd",
          "paused()": "5c975abb",
          "reportCnt()": "e3f2d24f",
          "startCampaign(bytes32)": "c06a260d",
          "stopCampaign()": "16f1bc22",
          "toggleAccessToAddress(address)": "4e1dd1a4",
          "togglePause()": "c4ae3168",
          "totalDonationAmount()": "17849646",
          "totalDonationCnt()": "e1c7dbe3",
          "updateModelForTask(uint256,string,address)": "75a269a5",
          "updateOwner(address)": "880cdc31"
        }
      }
    }
  }
}