{
  "contracts/Saarthi.sol": {
    "SafeMath": {
      "abi": [
        {
          "inputs": [
            {
              "internalType": "bytes32",
              "name": "c__0x4b60dbf9",
              "type": "bytes32"
            }
          ],
          "name": "c_0x4b60dbf9",
          "outputs": [],
          "stateMutability": "pure",
          "type": "function"
        }
      ],
      "evm": {
        "bytecode": {
          "linkReferences": {},
          "object": "60e0610052600b82828239805160001a607314610045577f4e487b7100000000000000000000000000000000000000000000000000000000600052600060045260246000fd5b30600052607381538281f3fe730000000000000000000000000000000000000000301460806040526004361060335760003560e01c8063fe28deaf146038575b600080fd5b604e6004803603810190604a91906066565b6050565b005b50565b6000813590506060816096565b92915050565b600060208284031215607757600080fd5b60006083848285016053565b91505092915050565b6000819050919050565b609d81608c565b811460a757600080fd5b5056fea26469706673582212201f09fb250db65964cb20fcf8820557c71224c169b32d82003eb07dc225f1328664736f6c63430008000033",
          "opcodes": "PUSH1 0xE0 PUSH2 0x52 PUSH1 0xB DUP3 DUP3 DUP3 CODECOPY DUP1 MLOAD PUSH1 0x0 BYTE PUSH1 0x73 EQ PUSH2 0x45 JUMPI PUSH32 0x4E487B7100000000000000000000000000000000000000000000000000000000 PUSH1 0x0 MSTORE PUSH1 0x0 PUSH1 0x4 MSTORE PUSH1 0x24 PUSH1 0x0 REVERT JUMPDEST ADDRESS PUSH1 0x0 MSTORE PUSH1 0x73 DUP2 MSTORE8 DUP3 DUP2 RETURN INVALID PUSH20 0x0 ADDRESS EQ PUSH1 0x80 PUSH1 0x40 MSTORE PUSH1 0x4 CALLDATASIZE LT PUSH1 0x33 JUMPI PUSH1 0x0 CALLDATALOAD PUSH1 0xE0 SHR DUP1 PUSH4 0xFE28DEAF EQ PUSH1 0x38 JUMPI JUMPDEST PUSH1 0x0 DUP1 REVERT JUMPDEST PUSH1 0x4E PUSH1 0x4 DUP1 CALLDATASIZE SUB DUP2 ADD SWAP1 PUSH1 0x4A SWAP2 SWAP1 PUSH1 0x66 JUMP JUMPDEST PUSH1 0x50 JUMP JUMPDEST STOP JUMPDEST POP JUMP JUMPDEST PUSH1 0x0 DUP2 CALLDATALOAD SWAP1 POP PUSH1 0x60 DUP2 PUSH1 0x96 JUMP JUMPDEST SWAP3 SWAP2 POP POP JUMP JUMPDEST PUSH1 0x0 PUSH1 0x20 DUP3 DUP5 SUB SLT ISZERO PUSH1 0x77 JUMPI PUSH1 0x0 DUP1 REVERT JUMPDEST PUSH1 0x0 PUSH1 0x83 DUP5 DUP3 DUP6 ADD PUSH1 0x53 JUMP JUMPDEST SWAP2 POP POP SWAP3 SWAP2 POP POP JUMP JUMPDEST PUSH1 0x0 DUP2 SWAP1 POP SWAP2 SWAP1 POP JUMP JUMPDEST PUSH1 0x9D DUP2 PUSH1 0x8C JUMP JUMPDEST DUP2 EQ PUSH1 0xA7 JUMPI PUSH1 0x0 DUP1 REVERT JUMPDEST POP JUMP INVALID LOG2 PUSH5 0x6970667358 0x22 SLT KECCAK256 0x1F MULMOD 0xFB 0x25 0xD 0xB6 MSIZE PUSH5 0xCB20FCF882 SDIV JUMPI 0xC7 SLT 0x24 0xC1 PUSH10 0xB32D82003EB07DC225F1 ORIGIN DUP7 PUSH5 0x736F6C6343 STOP ADDMOD STOP STOP CALLER "
        },
        "methodIdentifiers": {
          "c_0x4b60dbf9(bytes32)": "fe28deaf"
        }
      }
    }
  }
}