{
  "contracts/SaarthiLogic.sol": {
    "Saarthi": {
      "abi": [
        {
          "anonymous": false,
          "inputs": [
            {
              "indexed": true,
              "internalType": "uint256",
              "name": "taskID",
              "type": "uint256"
            },
            {
              "indexed": false,
              "internalType": "bytes32",
              "name": "_modelHash",
              "type": "bytes32"
            },
            {
              "indexed": false,
              "internalType": "uint256",
              "name": "_time",
              "type": "uint256"
            }
          ],
          "name": "modelUpdated",
          "type": "event"
        },
        {
          "anonymous": false,
          "inputs": [
            {
              "indexed": true,
              "internalType": "address",
              "name": "_from",
              "type": "address"
            },
            {
              "indexed": true,
              "internalType": "address",
              "name": "_to",
              "type": "address"
            },
            {
              "indexed": false,
              "internalType": "bool",
              "name": "_finalState",
              "type": "bool"
            }
          ],
          "name": "newApproval",
          "type": "event"
        },
        {
          "anonymous": false,
          "inputs": [
            {
              "indexed": true,
              "internalType": "address",
              "name": "_campaigner",
              "type": "address"
            },
            {
              "indexed": false,
              "internalType": "bytes32",
              "name": "_campaignData",
              "type": "bytes32"
            },
            {
              "indexed": false,
              "internalType": "uint256",
              "name": "_createdAt",
              "type": "uint256"
            }
          ],
          "name": "newCampaign",
          "type": "event"
        },
        {
          "anonymous": false,
          "inputs": [
            {
              "indexed": true,
              "internalType": "address",
              "name": "_campaigner",
              "type": "address"
            },
            {
              "indexed": true,
              "internalType": "address",
              "name": "_from",
              "type": "address"
            },
            {
              "indexed": false,
              "internalType": "uint256",
              "name": "amount",
              "type": "uint256"
            }
          ],
          "name": "newCampaignDonation",
          "type": "event"
        },
        {
          "anonymous": false,
          "inputs": [
            {
              "indexed": false,
              "internalType": "uint256",
              "name": "_fundIndex",
              "type": "uint256"
            },
            {
              "indexed": true,
              "internalType": "bytes32",
              "name": "_orgName",
              "type": "bytes32"
            },
            {
              "indexed": false,
              "internalType": "bytes32",
              "name": "_fundName",
              "type": "bytes32"
            }
          ],
          "name": "newFund",
          "type": "event"
        },
        {
          "anonymous": false,
          "inputs": [
            {
              "indexed": false,
              "internalType": "uint256",
              "name": "_fundIndex",
              "type": "uint256"
            },
            {
              "indexed": true,
              "internalType": "address",
              "name": "_sender",
              "type": "address"
            },
            {
              "indexed": true,
              "internalType": "address",
              "name": "_receiver",
              "type": "address"
            },
            {
              "indexed": false,
              "internalType": "uint256",
              "name": "_amount",
              "type": "uint256"
            }
          ],
          "name": "newFundDonation",
          "type": "event"
        },
        {
          "anonymous": false,
          "inputs": [
            {
              "indexed": true,
              "internalType": "uint256",
              "name": "_index",
              "type": "uint256"
            },
            {
              "indexed": true,
              "internalType": "address",
              "name": "_reporter",
              "type": "address"
            },
            {
              "indexed": true,
              "internalType": "bytes32",
              "name": "_location",
              "type": "bytes32"
            },
            {
              "indexed": false,
              "internalType": "bytes32",
              "name": "_file",
              "type": "bytes32"
            },
            {
              "indexed": false,
              "internalType": "string",
              "name": "_details",
              "type": "string"
            },
            {
              "indexed": false,
              "internalType": "uint256",
              "name": "_time",
              "type": "uint256"
            }
          ],
          "name": "newReport",
          "type": "event"
        },
        {
          "anonymous": false,
          "inputs": [
            {
              "indexed": true,
              "internalType": "uint256",
              "name": "taskID",
              "type": "uint256"
            },
            {
              "indexed": true,
              "internalType": "address",
              "name": "_user",
              "type": "address"
            },
            {
              "indexed": false,
              "internalType": "bytes32",
              "name": "_modelHash",
              "type": "bytes32"
            },
            {
              "indexed": false,
              "internalType": "uint256",
              "name": "_amt",
              "type": "uint256"
            },
            {
              "indexed": false,
              "internalType": "uint256",
              "name": "_time",
              "type": "uint256"
            }
          ],
          "name": "newTaskCreated",
          "type": "event"
        },
        {
          "inputs": [
            {
              "internalType": "uint256",
              "name": "",
              "type": "uint256"
            }
          ],
          "name": "Campaigns",
          "outputs": [
            {
              "internalType": "address",
              "name": "",
              "type": "address"
            }
          ],
          "stateMutability": "view",
          "type": "function"
        },
        {
          "inputs": [
            {
              "internalType": "uint256",
              "name": "",
              "type": "uint256"
            }
          ],
          "name": "Funds",
          "outputs": [
            {
              "internalType": "address payable",
              "name": "",
              "type": "address"
            }
          ],
          "stateMutability": "view",
          "type": "function"
        },
        {
          "inputs": [
            {
              "internalType": "uint256",
              "name": "",
              "type": "uint256"
            }
          ],
          "name": "SaarthiTasks",
          "outputs": [
            {
              "internalType": "uint256",
              "name": "taskID",
              "type": "uint256"
            },
            {
              "internalType": "uint256",
              "name": "currentRound",
              "type": "uint256"
            },
            {
              "internalType": "uint256",
              "name": "totalRounds",
              "type": "uint256"
            },
            {
              "internalType": "uint256",
              "name": "cost",
              "type": "uint256"
            }
          ],
          "stateMutability": "view",
          "type": "function"
        },
        {
          "inputs": [
            {
              "internalType": "address",
              "name": "",
              "type": "address"
            },
            {
              "internalType": "uint256",
              "name": "",
              "type": "uint256"
            }
          ],
          "name": "UserTaskIDs",
          "outputs": [
            {
              "internalType": "uint256",
              "name": "",
              "type": "uint256"
            }
          ],
          "stateMutability": "view",
          "type": "function"
        },
        {
          "inputs": [],
          "name": "activeCampaignCnt",
          "outputs": [
            {
              "internalType": "uint256",
              "name": "",
              "type": "uint256"
            }
          ],
          "stateMutability": "view",
          "type": "function"
        },
        {
          "inputs": [],
          "name": "admin",
          "outputs": [
            {
              "internalType": "address",
              "name": "",
              "type": "address"
            }
          ],
          "stateMutability": "view",
          "type": "function"
        },
        {
          "inputs": [
            {
              "internalType": "address",
              "name": "",
              "type": "address"
            },
            {
              "internalType": "address",
              "name": "",
              "type": "address"
            }
          ],
          "name": "approval",
          "outputs": [
            {
              "internalType": "bool",
              "name": "",
              "type": "bool"
            }
          ],
          "stateMutability": "view",
          "type": "function"
        },
        {
          "inputs": [
            {
              "internalType": "address",
              "name": "",
              "type": "address"
            }
          ],
          "name": "billAmounts",
          "outputs": [
            {
              "internalType": "uint256",
              "name": "",
              "type": "uint256"
            }
          ],
          "stateMutability": "view",
          "type": "function"
        },
        {
          "inputs": [
            {
              "internalType": "address",
              "name": "_user",
              "type": "address"
            },
            {
              "internalType": "uint256",
              "name": "_amt",
              "type": "uint256"
            }
          ],
          "name": "billUser",
          "outputs": [],
          "stateMutability": "nonpayable",
          "type": "function"
        },
        {
          "inputs": [
            {
              "internalType": "bytes32",
              "name": "c__0x5a755f78",
              "type": "bytes32"
            }
          ],
          "name": "c_0x5a755f78",
          "outputs": [],
          "stateMutability": "pure",
          "type": "function"
        },
        {
          "inputs": [
            {
              "internalType": "bytes32",
              "name": "c__0xd94ba50d",
              "type": "bytes32"
            }
          ],
          "name": "c_0xd94ba50d",
          "outputs": [],
          "stateMutability": "pure",
          "type": "function"
        },
        {
          "inputs": [
            {
              "internalType": "address",
              "name": "",
              "type": "address"
            }
          ],
          "name": "campaignEnabled",
          "outputs": [
            {
              "internalType": "bool",
              "name": "",
              "type": "bool"
            }
          ],
          "stateMutability": "view",
          "type": "function"
        },
        {
          "inputs": [],
          "name": "coordinatorAddress",
          "outputs": [
            {
              "internalType": "address",
              "name": "",
              "type": "address"
            }
          ],
          "stateMutability": "view",
          "type": "function"
        },
        {
          "inputs": [
            {
              "internalType": "bytes32",
              "name": "_orgName",
              "type": "bytes32"
            },
            {
              "internalType": "bytes32",
              "name": "_fundName",
              "type": "bytes32"
            },
            {
              "internalType": "address payable",
              "name": "_orgAdress",
              "type": "address"
            }
          ],
          "name": "createFund",
          "outputs": [],
          "stateMutability": "nonpayable",
          "type": "function"
        },
        {
          "inputs": [
            {
              "internalType": "bytes32",
              "name": "_modelHash",
              "type": "bytes32"
            },
            {
              "internalType": "uint256",
              "name": "_rounds",
              "type": "uint256"
            }
          ],
          "name": "createTask",
          "outputs": [],
          "stateMutability": "payable",
          "type": "function"
        },
        {
          "inputs": [
            {
              "internalType": "address",
              "name": "_user",
              "type": "address"
            }
          ],
          "name": "donateToCampaign",
          "outputs": [],
          "stateMutability": "payable",
          "type": "function"
        },
        {
          "inputs": [
            {
              "internalType": "uint256",
              "name": "_fundIndex",
              "type": "uint256"
            }
          ],
          "name": "donateToFund",
          "outputs": [],
          "stateMutability": "payable",
          "type": "function"
        },
        {
          "inputs": [
            {
              "internalType": "bytes32",
              "name": "_location",
              "type": "bytes32"
            },
            {
              "internalType": "bytes32",
              "name": "_file",
              "type": "bytes32"
            },
            {
              "internalType": "string",
              "name": "_details",
              "type": "string"
            }
          ],
          "name": "fileReport",
          "outputs": [],
          "stateMutability": "nonpayable",
          "type": "function"
        },
        {
          "inputs": [],
          "name": "fundCnt",
          "outputs": [
            {
              "internalType": "uint256",
              "name": "",
              "type": "uint256"
            }
          ],
          "stateMutability": "view",
          "type": "function"
        },
        {
          "inputs": [
            {
              "internalType": "address",
              "name": "",
              "type": "address"
            }
          ],
          "name": "hospitals",
          "outputs": [
            {
              "internalType": "bool",
              "name": "",
              "type": "bool"
            }
          ],
          "stateMutability": "view",
          "type": "function"
        },
        {
          "inputs": [],
          "name": "initialize",
          "outputs": [],
          "stateMutability": "nonpayable",
          "type": "function"
        },
        {
          "inputs": [],
          "name": "nextTaskID",
          "outputs": [
            {
              "internalType": "uint256",
              "name": "",
              "type": "uint256"
            }
          ],
          "stateMutability": "view",
          "type": "function"
        },
        {
          "inputs": [],
          "name": "paused",
          "outputs": [
            {
              "internalType": "bool",
              "name": "",
              "type": "bool"
            }
          ],
          "stateMutability": "view",
          "type": "function"
        },
        {
          "inputs": [],
          "name": "reportCnt",
          "outputs": [
            {
              "internalType": "uint256",
              "name": "",
              "type": "uint256"
            }
          ],
          "stateMutability": "view",
          "type": "function"
        },
        {
          "inputs": [
            {
              "internalType": "bytes32",
              "name": "_campaignData",
              "type": "bytes32"
            }
          ],
          "name": "startCampaign",
          "outputs": [],
          "stateMutability": "nonpayable",
          "type": "function"
        },
        {
          "inputs": [],
          "name": "stopCampaign",
          "outputs": [],
          "stateMutability": "nonpayable",
          "type": "function"
        },
        {
          "inputs": [
            {
              "internalType": "address",
              "name": "_address",
              "type": "address"
            }
          ],
          "name": "toggleAccessToAddress",
          "outputs": [],
          "stateMutability": "nonpayable",
          "type": "function"
        },
        {
          "inputs": [
            {
              "internalType": "address",
              "name": "_address",
              "type": "address"
            }
          ],
          "name": "toggleHospital",
          "outputs": [],
          "stateMutability": "nonpayable",
          "type": "function"
        },
        {
          "inputs": [],
          "name": "togglePause",
          "outputs": [],
          "stateMutability": "nonpayable",
          "type": "function"
        },
        {
          "inputs": [],
          "name": "totalDonationAmount",
          "outputs": [
            {
              "internalType": "uint256",
              "name": "",
              "type": "uint256"
            }
          ],
          "stateMutability": "view",
          "type": "function"
        },
        {
          "inputs": [],
          "name": "totalDonationCnt",
          "outputs": [
            {
              "internalType": "uint256",
              "name": "",
              "type": "uint256"
            }
          ],
          "stateMutability": "view",
          "type": "function"
        },
        {
          "inputs": [
            {
              "internalType": "address",
              "name": "_newAdmin",
              "type": "address"
            }
          ],
          "name": "updateAdmin",
          "outputs": [],
          "stateMutability": "nonpayable",
          "type": "function"
        },
        {
          "inputs": [
            {
              "internalType": "uint256",
              "name": "_taskID",
              "type": "uint256"
            },
            {
              "internalType": "bytes32",
              "name": "_modelHash",
              "type": "bytes32"
            },
            {
              "internalType": "address payable",
              "name": "computer",
              "type": "address"
            }
          ],
          "name": "updateModelForTask",
          "outputs": [],
          "stateMutability": "nonpayable",
          "type": "function"
        },
        {
          "inputs": [],
          "name": "version",
          "outputs": [
            {
              "internalType": "uint256",
              "name": "",
              "type": "uint256"
            }
          ],
          "stateMutability": "view",
          "type": "function"
        }
      ],
      "evm": {
        "bytecode": {
          "linkReferences": {},
          "object": "60806040526000805560016003556000600a556000600c556000600d556000600e55600060105534801561003257600080fd5b50614c9e806100426000396000f3fe6080604052600436106102195760003560e01c80638129fc1c1161011d578063e1270b6e116100b0578063ec2703531161007f578063f093cf8011610064578063f093cf8014610759578063f1fcc8e914610796578063f851a440146107bf57610219565b8063ec270353146106f3578063eee9b99e1461071c57610219565b8063e1270b6e14610637578063e1c7dbe314610674578063e2f273bd1461069f578063e3f2d24f146106c857610219565b8063c06a260d116100ec578063c06a260d1461058f578063c4ae3168146105b8578063c4d8fea7146105cf578063cd5e54831461060c57610219565b80638129fc1c146104e557806382003b31146104fc5780639ff6071114610527578063b063795c1461056457610219565b80634e1dd1a4116101b05780636092a5021161017f5780636fbb5f62116101645780636fbb5f62146104845780637c6abc82146104a05780637d4f6e7e146104bc57610219565b80636092a502146104075780636946c5e91461044757610219565b80634e1dd1a41461035d57806354fd4d50146103865780635af09fe2146103b15780635c975abb146103dc57610219565b806317849646116101ec57806317849646146102a357806322af0c0b146102ce5780634013be10146102f7578063483d67521461033457610219565b8063022decd91461021e5780630d3bb50f1461024757806311cd13ac1461027057806316f1bc221461028c575b600080fd5b34801561022a57600080fd5b506102456004803603810190610240919061423c565b6107ea565b005b34801561025357600080fd5b5061026e600480360381019061026991906142a1565b610ba1565b005b61028a60048036038101906102859190614393565b610f37565b005b34801561029857600080fd5b506102a1611456565b005b3480156102af57600080fd5b506102b86117d5565b6040516102c591906148de565b60405180910390f35b3480156102da57600080fd5b506102f560048036038101906102f091906143bc565b6117db565b005b34801561030357600080fd5b5061031e60048036038101906103199190614393565b611fc4565b60405161032b91906146cf565b60405180910390f35b34801561034057600080fd5b5061035b60048036038101906103569190614278565b612003565b005b34801561036957600080fd5b50610384600480360381019061037f91906141d7565b612006565b005b34801561039257600080fd5b5061039b6122f1565b6040516103a891906148de565b60405180910390f35b3480156103bd57600080fd5b506103c66122f7565b6040516103d391906148de565b60405180910390f35b3480156103e857600080fd5b506103f16122fd565b6040516103fe9190614705565b60405180910390f35b34801561041357600080fd5b5061042e60048036038101906104299190614393565b612310565b60405161043e949392919061494b565b60405180910390f35b34801561045357600080fd5b5061046e6004803603810190610469919061423c565b612340565b60405161047b91906148de565b60405180910390f35b61049e60048036038101906104999190614357565b612371565b005b6104ba60048036038101906104b591906141d7565b612991565b005b3480156104c857600080fd5b506104e360048036038101906104de9190614278565b612dbd565b005b3480156104f157600080fd5b506104fa612dc0565b005b34801561050857600080fd5b50610511613098565b60405161051e91906146cf565b60405180910390f35b34801561053357600080fd5b5061054e600480360381019061054991906141d7565b6130be565b60405161055b9190614705565b60405180910390f35b34801561057057600080fd5b506105796130de565b60405161058691906148de565b60405180910390f35b34801561059b57600080fd5b506105b660048036038101906105b19190614278565b6130e4565b005b3480156105c457600080fd5b506105cd613545565b005b3480156105db57600080fd5b506105f660048036038101906105f191906141d7565b613735565b60405161060391906148de565b60405180910390f35b34801561061857600080fd5b5061062161374d565b60405161062e91906148de565b60405180910390f35b34801561064357600080fd5b5061065e60048036038101906106599190614200565b613753565b60405161066b9190614705565b60405180910390f35b34801561068057600080fd5b50610689613782565b60405161069691906148de565b60405180910390f35b3480156106ab57600080fd5b506106c660048036038101906106c191906141d7565b613788565b005b3480156106d457600080fd5b506106dd613990565b6040516106ea91906148de565b60405180910390f35b3480156106ff57600080fd5b5061071a600480360381019061071591906141d7565b613996565b005b34801561072857600080fd5b50610743600480360381019061073e9190614393565b613d5f565b60405161075091906146ea565b60405180910390f35b34801561076557600080fd5b50610780600480360381019061077b91906141d7565b613d92565b60405161078d9190614705565b60405180910390f35b3480156107a257600080fd5b506107bd60048036038101906107b891906142f0565b613db2565b005b3480156107cb57600080fd5b506107d461405c565b6040516107e191906146cf565b60405180910390f35b6108167f2c10a8da4db64d01d99cc0ca66a76af6ff531131e464501f5f1cba76d298d0a060001b612dbd565b6108427fd60a7a6bdb1f7d12d44bc675456a8e9dd823f3861ad8c2f0e1d9f8b1ccf0245260001b612dbd565b61086e7f58e66b7a34d68a2574970473df79b759c7d2f5774141fbef4ec204eff229e4b160001b612dbd565b61089a7fee6bf20d2fe831473bce6eb1d716e7a2b01b405fbd73f1ac5e166a15784c166760001b612dbd565b60001515600260149054906101000a900460ff161515146108f0576040517f08c379a00000000000000000000000000000000000000000000000000000000081526004016108e79061487e565b60405180910390fd5b61091c7f44a9a81652f32a246cb1980c02a885e7b717554f4c4a0656e8baf44398752c6460001b612dbd565b6109487f482827eed35acd26ebff0c78a86e663ab3ab1159ab3d2054283930724723a09060001b612dbd565b6109747f3b2300ff945c2b6a12653050f6e84b7ac2ba8628f782f5baaf2666703e7eeb2260001b612dbd565b6109a07f20f51c416b9a9cfd0368f54b530c145174db84e67a41848a269f9668b3f0c0ad60001b612dbd565b6109cc7f3aeeab8addcd3e60e2bc9de9b586ad86d9720c19afb53e075c408463fc6e2bd660001b612dbd565b6109f87f6e43f8d0037fd6aad10ca0ed9c25d23cf8a3540b49e3476d37dc960099b0293260001b612dbd565b60011515600660003373ffffffffffffffffffffffffffffffffffffffff1673ffffffffffffffffffffffffffffffffffffffff16815260200190815260200160002060009054906101000a900460ff16151514610a8b576040517f08c379a0000000000000000000000000000000000000000000000000000000008152600401610a829061481e565b60405180910390fd5b610ab77f3fde2b304bf98eeb32b5860944a3777d558a33dfb49ce537b2ef8907084b4e4660001b612dbd565b610ae37fd8ef95f1b40969a6b46386e0cd1a76688c514e2f66cde18e8d88726b081cbe1760001b612dbd565b610b0f7f320a73062f57580320488212a3ef5c4cf069f2108e1b86fa198c758f8b92995e60001b612dbd565b80600760008473ffffffffffffffffffffffffffffffffffffffff1673ffffffffffffffffffffffffffffffffffffffff16815260200190815260200160002054610b5a9190614a0d565b600760008473ffffffffffffffffffffffffffffffffffffffff1673ffffffffffffffffffffffffffffffffffffffff168152602001908152602001600020819055505050565b610bcd7f2c10a8da4db64d01d99cc0ca66a76af6ff531131e464501f5f1cba76d298d0a060001b612dbd565b610bf97fd60a7a6bdb1f7d12d44bc675456a8e9dd823f3861ad8c2f0e1d9f8b1ccf0245260001b612dbd565b610c257f58e66b7a34d68a2574970473df79b759c7d2f5774141fbef4ec204eff229e4b160001b612dbd565b610c517fee6bf20d2fe831473bce6eb1d716e7a2b01b405fbd73f1ac5e166a15784c166760001b612dbd565b60001515600260149054906101000a900460ff16151514610ca7576040517f08c379a0000000000000000000000000000000000000000000000000000000008152600401610c9e9061487e565b60405180910390fd5b610cd37f44a9a81652f32a246cb1980c02a885e7b717554f4c4a0656e8baf44398752c6460001b612dbd565b610cff7f482827eed35acd26ebff0c78a86e663ab3ab1159ab3d2054283930724723a09060001b612dbd565b610d2b7f8ec277065f04151ae832866d3810ba68ca30ce63e553b796398ef9abb5317ca060001b612dbd565b610d577f57995697c3dc42aef29a9162a9fac546a4cad49d96542e3cd7a5ac492d46021f60001b612dbd565b610d837f6482a7e79f0795bc9f7e9bbb5475a86e1e2d3fedf018b52e9e2396d1bc5c42b260001b612dbd565b60006001600c54610d949190614a0d565b9050610dc27ff426143e37ec373dbb2ae4193d7e30e3e2cf93c3ad1e06ace2105172f5d0b1c860001b612dbd565b610dee7fc1cc2d053219e4d997ffd9e7952986053813fc8de79620f074df5c20c661257860001b612dbd565b81600f600083815260200190815260200160002060006101000a81548173ffffffffffffffffffffffffffffffffffffffff021916908373ffffffffffffffffffffffffffffffffffffffff160217905550610e6c7f076fa70b34819bea51dde33224d5048dc202b54799ec22499b54baa6e720525960001b612dbd565b610e987ff4b67e29d88e0897aacfda6af315ee8ea48502eb43d84fb5b7843a12d4151ba060001b612dbd565b80600c81905550610ecb7f1da9c0e1849d26cdad44eb672d910e68dd139ca1e55dd51fc6e04f4db16278d660001b612dbd565b610ef77f15c66be2ae7a633a0cecb1c3b6f57d17f1988462fd6a277abe114e7592782ba960001b612dbd565b837fb99663894dc2a2c66382f63932042aa530244fe0af348b833f4cddea9cfbeb718285604051610f299291906148f9565b60405180910390a250505050565b610f637f2c10a8da4db64d01d99cc0ca66a76af6ff531131e464501f5f1cba76d298d0a060001b612dbd565b610f8f7fd60a7a6bdb1f7d12d44bc675456a8e9dd823f3861ad8c2f0e1d9f8b1ccf0245260001b612dbd565b610fbb7f58e66b7a34d68a2574970473df79b759c7d2f5774141fbef4ec204eff229e4b160001b612dbd565b610fe77fee6bf20d2fe831473bce6eb1d716e7a2b01b405fbd73f1ac5e166a15784c166760001b612dbd565b60001515600260149054906101000a900460ff1615151461103d576040517f08c379a00000000000000000000000000000000000000000000000000000000081526004016110349061487e565b60405180910390fd5b6110697f44a9a81652f32a246cb1980c02a885e7b717554f4c4a0656e8baf44398752c6460001b612dbd565b6110957f482827eed35acd26ebff0c78a86e663ab3ab1159ab3d2054283930724723a09060001b612dbd565b6110c17fcad276b0c5467f2cbefe46140873d4ccffe3d2a3c2f31e12af6933ca747678b560001b612dbd565b6110ed7fa365b5edd6a0c09be4a4f12d0a40f6f2231b23c39761e07d2f0ed7506e800b6160001b612dbd565b6111197f7b16430157a0d0b3ee70879d1b2048f564b7fbcb56b628b48e3daa5010a623b260001b612dbd565b6111457f7cebb1bc77b46ac247053adf510db93bfc4bf9011d4eaf81d3d92784402a97a360001b612dbd565b600c5481111561118a576040517f08c379a00000000000000000000000000000000000000000000000000000000081526004016111819061483e565b60405180910390fd5b6111b67f44575a529f7379cb0b6d837abb75113d9b2df896e884e6b26a6d5d3379a65a2860001b612dbd565b6111e27fddd54921b90d128d8e9772173295fd8b7731a727d65f6d6b118f388b66a5312860001b612dbd565b61120e7fd09a8485a1ac51742f27888af67fd0399a138f560b5360450291791a13730bc260001b612dbd565b34600d5461121c9190614a0d565b600d8190555061124e7fb50ab9890355e983cec94e7fd2832eb1fc7587fcf2783ac4810e6a50c969646260001b612dbd565b61127a7f854170f12af2c81678697f31a9ece4c831e1fcb4fe7cd3d319eccbdc7172487c60001b612dbd565b6001600e546112899190614a0d565b600e819055506112bb7f89a348c320747584114752f9e01158c3caf5c679e05839daf57a3bd745afce2360001b612dbd565b6112e77f9eca7652a821432ff7622657764d46ffa2508ca811b4cbd9988a7f163ef0856760001b612dbd565b600f600082815260200190815260200160002060009054906101000a900473ffffffffffffffffffffffffffffffffffffffff1673ffffffffffffffffffffffffffffffffffffffff166108fc349081150290604051600060405180830381858888f19350505050158015611360573d6000803e3d6000fd5b5061138d7fb87205c1aec7b6c758dc6bc5b2cfd40feea1b4e685f210ebe3b7d2e906668e4060001b612dbd565b6113b97f52d2ff6dd0fddb5e84e6f475ad8c4e7e16cd054decba71592da158b907d6823660001b612dbd565b600f600082815260200190815260200160002060009054906101000a900473ffffffffffffffffffffffffffffffffffffffff1673ffffffffffffffffffffffffffffffffffffffff163373ffffffffffffffffffffffffffffffffffffffff167f2317347462a70f36eb7bac6fb953aca2cd01eb3bcdf5f359babe909811eaed67833460405161144b929190614922565b60405180910390a350565b6114827f2c10a8da4db64d01d99cc0ca66a76af6ff531131e464501f5f1cba76d298d0a060001b612dbd565b6114ae7fd60a7a6bdb1f7d12d44bc675456a8e9dd823f3861ad8c2f0e1d9f8b1ccf0245260001b612dbd565b6114da7f58e66b7a34d68a2574970473df79b759c7d2f5774141fbef4ec204eff229e4b160001b612dbd565b6115067fee6bf20d2fe831473bce6eb1d716e7a2b01b405fbd73f1ac5e166a15784c166760001b612dbd565b60001515600260149054906101000a900460ff1615151461155c576040517f08c379a00000000000000000000000000000000000000000000000000000000081526004016115539061487e565b60405180910390fd5b6115887f44a9a81652f32a246cb1980c02a885e7b717554f4c4a0656e8baf44398752c6460001b612dbd565b6115b47f482827eed35acd26ebff0c78a86e663ab3ab1159ab3d2054283930724723a09060001b612dbd565b6115e07f823aec777c9dfd372a53b1b48c4b8d3f312f1c7ae2c6c657c9c67bf5a37213ab60001b612dbd565b61160c7fb8eadccf24dfa952f685f33d4319026b0a70cfaed37663bd7778dc261716204f60001b612dbd565b6116387f3fd4e04e5117b1aa53a49a86aef38bb26773aeaf400a8eca28c0799149132b2360001b612dbd565b6116647f2d64f8f354ea36d19694283144b8d1e3805e80dada3e65bf487a7164371da45860001b612dbd565b60011515600b60003373ffffffffffffffffffffffffffffffffffffffff1673ffffffffffffffffffffffffffffffffffffffff16815260200190815260200160002060009054906101000a900460ff161515146116f7576040517f08c379a00000000000000000000000000000000000000000000000000000000081526004016116ee906147de565b60405180910390fd5b6117237f12378c183e303754ba4b0f9047775d59a87c60b42466bd24312866827982671460001b612dbd565b61174f7f25db13e3232fe2481d122944d5722014264404471f93dd95b2056b63841b8d4560001b612dbd565b61177b7fd1531c1ae183378e4d023e80734569a014b68585e1c0520c16565cd23b2f8e6860001b612dbd565b6000600b60003373ffffffffffffffffffffffffffffffffffffffff1673ffffffffffffffffffffffffffffffffffffffff16815260200190815260200160002060006101000a81548160ff021916908315150217905550565b600d5481565b6118077f2c10a8da4db64d01d99cc0ca66a76af6ff531131e464501f5f1cba76d298d0a060001b612dbd565b6118337fd60a7a6bdb1f7d12d44bc675456a8e9dd823f3861ad8c2f0e1d9f8b1ccf0245260001b612dbd565b61185f7f58e66b7a34d68a2574970473df79b759c7d2f5774141fbef4ec204eff229e4b160001b612dbd565b61188b7fee6bf20d2fe831473bce6eb1d716e7a2b01b405fbd73f1ac5e166a15784c166760001b612dbd565b60001515600260149054906101000a900460ff161515146118e1576040517f08c379a00000000000000000000000000000000000000000000000000000000081526004016118d89061487e565b60405180910390fd5b61190d7f44a9a81652f32a246cb1980c02a885e7b717554f4c4a0656e8baf44398752c6460001b612dbd565b6119397f482827eed35acd26ebff0c78a86e663ab3ab1159ab3d2054283930724723a09060001b612dbd565b6119657f1c72cf469a5a60c4e25e631e0bb1665aecf7cc1491069910d71c1936c18028a860001b612dbd565b6119917f91f522b4e31aca990a6edb08695af247245c3e925ba492e5cfc041cbb8aa49df60001b612dbd565b6119bd7fa8b693d17d9168516a02f18660b6d196eede195e846caf05dd82a339fe013eee60001b612dbd565b6119e97f567ab75557d01c21e01e50acd79b71c696546da0e650a9237e498a629a920c1c60001b612dbd565b600260009054906101000a900473ffffffffffffffffffffffffffffffffffffffff1673ffffffffffffffffffffffffffffffffffffffff163373ffffffffffffffffffffffffffffffffffffffff1614611a79576040517f08c379a0000000000000000000000000000000000000000000000000000000008152600401611a709061489e565b60405180910390fd5b611aa57f8d7c08000814e20507348ac511d8d00b54cc406abe61accb2cf406953e86691e60001b612dbd565b611ad17f0caf3fd6f78b67dfe9f683d37ea261ab5f2731513b179cf5236409c1963d15f760001b612dbd565b611afd7f36f4ece00d0004594a9d05c3a8aceed9112599e565cf1fc64156a42317fcbb8b60001b612dbd565b611b297f6407fae6f18701b7685927460f10e6ea1ebb1d86b80e45cd830622e200a86dac60001b612dbd565b600354831115611b6e576040517f08c379a0000000000000000000000000000000000000000000000000000000008152600401611b659061485e565b60405180910390fd5b611b9a7f70366277dcf4c39c1cfc8624fed10a02b9d0f1c2f4c8d2b5aaf9835db25298cb60001b612dbd565b611bc67ff3f39720a6066751524ca15dbe085ff30a7e527c30732a39a3253f57720a86a660001b612dbd565b611bf27fbb45acfef6a158cc3ac11cdcc23b528957089bc93f5520681ef28dd66147fe2560001b612dbd565b600060016004600086815260200190815260200160002060010154611c179190614a0d565b9050611c457f67480a047348cdf3c273e9873823ad1bf680c6fd7d9affacf724dec2601ba4fa60001b612dbd565b611c717fab60b80a15530eef71354b3148762a49736b32c60ec2fc912283bbfbfc40916160001b612dbd565b611c9d7fbd1e3fa90c9a049e049da57d42c3d325e46a52e8937001e908cfb7ae15e1049c60001b612dbd565b6004600085815260200190815260200160002060020154811115611cf6576040517f08c379a0000000000000000000000000000000000000000000000000000000008152600401611ced906147be565b60405180910390fd5b611d227f559377b329f04088b1f7d6435c0122fec35602daa797f728fa50914f9d303dc160001b612dbd565b611d4e7f307b99cd90ca4dbba4544a280bab45bab27213618bd0d303d90f0adbf5f427c360001b612dbd565b611d7a7f7baa32f7ac942769cc34efc031d7b92e8a94208030ba16d90f3736a4968503af60001b612dbd565b806004600086815260200190815260200160002060010181905550611dc17fc162ddd6514cd977674e90c79fd99a1365ac19088a5dc8d6a9bd72edce0deaa760001b612dbd565b611ded7f23652d651088b08f5f5bcf185f61fe9ae59150c7fb41e970bb2e327fb2c0882160001b612dbd565b8260046000868152602001908152602001600020600401600183611e119190614a94565b81548110611e48577f4e487b7100000000000000000000000000000000000000000000000000000000600052603260045260246000fd5b9060005260206000200181905550611e827fc9f985855fd93c7b16833cf6cf4d2434fc5769d6ea23799a47fd2d0b65f0a96760001b612dbd565b611eae7faec56adf583223e00e48071aaf0b0b0335a4a7e6bcf218d90aa2d84715c60a7960001b612dbd565b8173ffffffffffffffffffffffffffffffffffffffff166108fc60046000878152602001908152602001600020600201546004600088815260200190815260200160002060030154611f009190614a63565b9081150290604051600060405180830381858888f19350505050158015611f2b573d6000803e3d6000fd5b50611f587f6743f223adabd212d89ebaf8eae371d1a4a95f900921cb0843044e7873a79ab260001b612dbd565b611f847f60f113e5aec0b22df154ead65aea6029d1f125521f9e558c7ecf3287418051c160001b612dbd565b837fe1d58799a6d1cef7a4a5e546e03e11850ef52264511394d1a1f9d8ac73fc5e4c8442604051611fb692919061475e565b60405180910390a250505050565b60098181548110611fd457600080fd5b906000526020600020016000915054906101000a900473ffffffffffffffffffffffffffffffffffffffff1681565b50565b6120327f2096f7316c2fc3298b471083f2e3593395e6b8068596639506a06385439bd77160001b612dbd565b61205e7fb5c6da5e232ee3e9ffbcdbef516b1b3661693d69ab5ae619568e7312fc0b174360001b612dbd565b61208a7ff828ae879820be38d7b5651db8f77205522947887c6f9e8f912a96655d1cb5f060001b612dbd565b600860003373ffffffffffffffffffffffffffffffffffffffff1673ffffffffffffffffffffffffffffffffffffffff16815260200190815260200160002060008273ffffffffffffffffffffffffffffffffffffffff1673ffffffffffffffffffffffffffffffffffffffff16815260200190815260200160002060009054906101000a900460ff1615600860003373ffffffffffffffffffffffffffffffffffffffff1673ffffffffffffffffffffffffffffffffffffffff16815260200190815260200160002060008373ffffffffffffffffffffffffffffffffffffffff1673ffffffffffffffffffffffffffffffffffffffff16815260200190815260200160002060006101000a81548160ff0219169083151502179055506121d47f26b5265b39a977a9a20b3a1e5df1319b72cd7bcbfc66f45a4be0592c3c18422760001b612dbd565b6122007fd79ea959dc358a0897589f9293898b9b4d885cab9bf8f3568386386dcaba4ce560001b612dbd565b8073ffffffffffffffffffffffffffffffffffffffff163373ffffffffffffffffffffffffffffffffffffffff167fad77d1d38ed980518f1c26c8cd8fe0cc39ba4e9092e1b5f69f0bd23ff1de97fb600860003373ffffffffffffffffffffffffffffffffffffffff1673ffffffffffffffffffffffffffffffffffffffff16815260200190815260200160002060008573ffffffffffffffffffffffffffffffffffffffff1673ffffffffffffffffffffffffffffffffffffffff16815260200190815260200160002060009054906101000a900460ff166040516122e69190614705565b60405180910390a350565b60005481565b60035481565b600260149054906101000a900460ff1681565b60046020528060005260406000206000915090508060000154908060010154908060020154908060030154905084565b6005602052816000526040600020818154811061235c57600080fd5b90600052602060002001600091509150505481565b61239d7f2c10a8da4db64d01d99cc0ca66a76af6ff531131e464501f5f1cba76d298d0a060001b612dbd565b6123c97fd60a7a6bdb1f7d12d44bc675456a8e9dd823f3861ad8c2f0e1d9f8b1ccf0245260001b612dbd565b6123f57f58e66b7a34d68a2574970473df79b759c7d2f5774141fbef4ec204eff229e4b160001b612dbd565b6124217fee6bf20d2fe831473bce6eb1d716e7a2b01b405fbd73f1ac5e166a15784c166760001b612dbd565b60001515600260149054906101000a900460ff16151514612477576040517f08c379a000000000000000000000000000000000000000000000000000000000815260040161246e9061487e565b60405180910390fd5b6124a37f44a9a81652f32a246cb1980c02a885e7b717554f4c4a0656e8baf44398752c6460001b612dbd565b6124cf7f482827eed35acd26ebff0c78a86e663ab3ab1159ab3d2054283930724723a09060001b612dbd565b6124fb7f25bceb0000ec0f6cc3ba12e9b960752052e976c2df5d788f37b5da7dac78f1ca60001b612dbd565b6125277ff9242be87869c018f060c6845ef371801c93c15c947910455aa32940d28029b760001b612dbd565b6125537f37b9b08b863ad2d19ed93c126c21428097aae2aff6e33660bfe4599137ed24ef60001b612dbd565b61255b614082565b6125877f92fd2b57115e28088b39a9ffdf4f10212dc0201efa5e981462be29694deff2e160001b612dbd565b6125b37feffd08acf2af4addeb09c1c6be3280088a0c1a6b5ee25ca86204f2098bd39a3260001b612dbd565b6040518060a001604052806003548152602001600181526020018381526020013481526020018367ffffffffffffffff811115612619577f4e487b7100000000000000000000000000000000000000000000000000000000600052604160045260246000fd5b6040519080825280602002602001820160405280156126475781602001602082028036833780820191505090505b5081525090506126797f10ed6cc5a42744d6773dba7086afe3d413c27bbddd280f23e4e549e0d052ca3a60001b612dbd565b6126a57f73b87411d898756ce83276aacb6190ecdfa3966e4a1ba1ea683ed795bd9571ef60001b612dbd565b8281608001516000815181106126e4577f4e487b7100000000000000000000000000000000000000000000000000000000600052603260045260246000fd5b60200260200101818152505061271c7f178660a7d420860aea6c31230b57e48b7f55e0a076a7b57b88ed031bf76aaa5d60001b612dbd565b6127487fa363141c3b512e67d9766dac84344d61593d73da5fcf021c5797e16ccea2f99b60001b612dbd565b806004600060035481526020019081526020016000206000820151816000015560208201518160010155604082015181600201556060820151816003015560808201518160040190805190602001906127a29291906140b1565b509050506127d27f030c337f673faec957511e5619aa4893e60cf78b2515ce92cbb4efdabc62193560001b612dbd565b6127fe7f1bbe933e241edd4d32b78fc1f6ba499a0fa961ad3775bbb88d1ce494ab0983a160001b612dbd565b600560003373ffffffffffffffffffffffffffffffffffffffff1673ffffffffffffffffffffffffffffffffffffffff16815260200190815260200160002060035490806001815401808255809150506001900390600052602060002001600090919091909150556128927f794a5946a0c20463025cc3f64580460c069e89c9dfcc9f7de95e87e08296140460001b612dbd565b6128be7f0a68241e49d96ff49a50663ce6e3e834a3a3df95a58e7c07fbd042891da53f0660001b612dbd565b60016003546128cd9190614a0d565b6003819055506128ff7f1b2e57ecb3cd0813c0e7d6e459060ae0c11ab3bf6ae80cc23371ea0fdfc33b6360001b612dbd565b61292b7fc6ec0ced80f4b9f82fbf7aa2d5163ee71dc18a4ddb85c93019cb323f82414d0f60001b612dbd565b3373ffffffffffffffffffffffffffffffffffffffff1660016003546129519190614a94565b7fc4dd427940f2b7acf9630ef20ca65879526cfc7a3869483461942027043545f785344260405161298493929190614787565b60405180910390a3505050565b6129bd7f2c10a8da4db64d01d99cc0ca66a76af6ff531131e464501f5f1cba76d298d0a060001b612dbd565b6129e97fd60a7a6bdb1f7d12d44bc675456a8e9dd823f3861ad8c2f0e1d9f8b1ccf0245260001b612dbd565b612a157f58e66b7a34d68a2574970473df79b759c7d2f5774141fbef4ec204eff229e4b160001b612dbd565b612a417fee6bf20d2fe831473bce6eb1d716e7a2b01b405fbd73f1ac5e166a15784c166760001b612dbd565b60001515600260149054906101000a900460ff16151514612a97576040517f08c379a0000000000000000000000000000000000000000000000000000000008152600401612a8e9061487e565b60405180910390fd5b612ac37f44a9a81652f32a246cb1980c02a885e7b717554f4c4a0656e8baf44398752c6460001b612dbd565b612aef7f482827eed35acd26ebff0c78a86e663ab3ab1159ab3d2054283930724723a09060001b612dbd565b612b1b7f117062ef6dbdaf620c39fd9bb29c2171e1ec93f178dc56b69959b75f666408fa60001b612dbd565b612b477f1460deadaaa29254f08c399c6eac0123b1f915e3622dd53640a08a7c9fcfb80260001b612dbd565b612b737f7de6a78122c6579da8de5a50608b24ff2600ccc9eb0736f0ec0d66ff6fdfa4da60001b612dbd565b612b9f7fd6ac3d63c8dd93b46d07e2c8832a9edefdefb40f1ad9fbdcdfb43ec75006ea6860001b612dbd565b60011515600b60008373ffffffffffffffffffffffffffffffffffffffff1673ffffffffffffffffffffffffffffffffffffffff16815260200190815260200160002060009054906101000a900460ff16151514612c32576040517f08c379a0000000000000000000000000000000000000000000000000000000008152600401612c29906147de565b60405180910390fd5b612c5e7f332cd9ee8299b1338e37a59115697b21c6465137a328fb663fd35833237ec51260001b612dbd565b612c8a7fd9fae4bf806fc1f49e40c5a106ec6b96eb7874d579976eefa1f47f55e6defca660001b612dbd565b612cb67fff92682983311243261b5bf03ed80a709e6ee4890ee79eed48d3797e5aaea74260001b612dbd565b8073ffffffffffffffffffffffffffffffffffffffff166108fc349081150290604051600060405180830381858888f19350505050158015612cfc573d6000803e3d6000fd5b50612d297f725c3b736548e2a70110790f6d814a53ee8f25df695cf23baaabfcc8048d6e9a60001b612dbd565b612d557f6498aac7b42a92d5c8750d6117d7f3fb3e5b6edb14fa8fe428e79f4699c49df960001b612dbd565b3373ffffffffffffffffffffffffffffffffffffffff168173ffffffffffffffffffffffffffffffffffffffff167f1d3ff44814877759fdcdec2bace42d6e7e7c1b84ca040ba5d3b4ef988ffd908e34604051612db291906148de565b60405180910390a350565b50565b612dec7f1faf3a122deda332494c96fbaa8218c943786f59870da159160767cd7043478060001b612dbd565b612e187f317278a56a3a56ae5dc70544190bd3c696b7dcd86d480000bf32b0218d1dc72f60001b612dbd565b612e447f8bc7777b85cc04497668e94b8a40a4002a0d7e12242dcb8a9c6268cb5b8dea1e60001b612dbd565b612e707f6335ce9312c8fb1cf8338cfd3bb812bff768b88af0ec9c5000b43e7c2b4c9e4660001b612dbd565b60001515600160149054906101000a900460ff16151514612ec6576040517f08c379a0000000000000000000000000000000000000000000000000000000008152600401612ebd906147fe565b60405180910390fd5b612ef27f4ba8be74f8e0430f00257c5846bf9a550d34b0d4546f8661d31c21ab4f46a1c660001b612dbd565b612f1e7f6f8317ae139fd16b67e3a32338de2e8624183cc068b6e9164d16e7566bfca8e560001b612dbd565b612f4a7f941886752758b6c2ace75e8f9f20deb1af008cf23ac8880d970d845b8e96740560001b612dbd565b60018060146101000a81548160ff021916908315150217905550612f907f37e24b96175e5f54031c6472bcb912eba67b25d049642153d281d5c7aa6ea38960001b612dbd565b612fbc7fefebd9a9a01d9ffbd568141bc9d9d4ee12def08d09d06e158026a1e458c396dc60001b612dbd565b33600160006101000a81548173ffffffffffffffffffffffffffffffffffffffff021916908373ffffffffffffffffffffffffffffffffffffffff1602179055506130297fc2f8884a9d4f2a0590eff2d9e4b02be39314b9279604da0ef6dbe1a9f11458e160001b612dbd565b6130557fb298f10074f55bea4cb07d2e6b3a4d36110b004017192b665c2b880f31603d6560001b612dbd565b33600260006101000a81548173ffffffffffffffffffffffffffffffffffffffff021916908373ffffffffffffffffffffffffffffffffffffffff160217905550565b600260009054906101000a900473ffffffffffffffffffffffffffffffffffffffff1681565b600b6020528060005260406000206000915054906101000a900460ff1681565b600a5481565b6131107f2c10a8da4db64d01d99cc0ca66a76af6ff531131e464501f5f1cba76d298d0a060001b612dbd565b61313c7fd60a7a6bdb1f7d12d44bc675456a8e9dd823f3861ad8c2f0e1d9f8b1ccf0245260001b612dbd565b6131687f58e66b7a34d68a2574970473df79b759c7d2f5774141fbef4ec204eff229e4b160001b612dbd565b6131947fee6bf20d2fe831473bce6eb1d716e7a2b01b405fbd73f1ac5e166a15784c166760001b612dbd565b60001515600260149054906101000a900460ff161515146131ea576040517f08c379a00000000000000000000000000000000000000000000000000000000081526004016131e19061487e565b60405180910390fd5b6132167f44a9a81652f32a246cb1980c02a885e7b717554f4c4a0656e8baf44398752c6460001b612dbd565b6132427f482827eed35acd26ebff0c78a86e663ab3ab1159ab3d2054283930724723a09060001b612dbd565b61326e7f35010d5a11340c8aa38cbb2bda0b81d4504562f7261316df6404daf92ff3de0c60001b612dbd565b61329a7ff92df508b16961db40fa38d9008727a83ecfa34d5f0eb4002c74b32cc5f9c4d960001b612dbd565b6132c67f9c0031c968a951f2f1b44cc354c1adc0012d66ae9f628802ed6dd4f777716d8160001b612dbd565b60001515600b60003373ffffffffffffffffffffffffffffffffffffffff1673ffffffffffffffffffffffffffffffffffffffff16815260200190815260200160002060009054906101000a900460ff161515141561346d5761334b7ff3af68d72988d2634c52e1119f0f777cc5e9b3e161c03d949e6ce43a4819f24960001b612dbd565b6133777f79483aa373fddeb61bf3ed88cd07e6afb3a11496ee1ec72208f3a5636c1637a860001b612dbd565b6133a37f0f3f07ad673c228515afa61d3fe3a2a0c5455657f7eacf4715729317755c991a60001b612dbd565b6001600b60003373ffffffffffffffffffffffffffffffffffffffff1673ffffffffffffffffffffffffffffffffffffffff16815260200190815260200160002060006101000a81548160ff0219169083151502179055506134277fb03f973de0257537846855f0fde881a067344258fcdc6d98ffc05e7d5b97f29960001b612dbd565b6134537fceda98d3c715ebd634b21261585e952d9ac234bddd2e5054fb2dbe895af186f660001b612dbd565b6001600a546134629190614a0d565b600a8190555061349a565b6134997f550e4a70f803a1d82127adc256d13b57a27ff8b5fdcf74eb0bf75491fda78a9e60001b612dbd565b5b6134c67f707297efd293ae437c226e9e10a6ca218ce96ed63ae651ea923335b7fff81fcc60001b612dbd565b6134f27feeaabe8abd0a9d7083c814bb25326dd07a38e5c31a315db50f0102dccfe47de660001b612dbd565b3373ffffffffffffffffffffffffffffffffffffffff167f070ebb08109e8151dd49dec1ba08cec18082514f31659837d36c851b908860ce824260405161353a92919061475e565b60405180910390a250565b6135717fc3dea16921d8de1933ddbc59da271727b339b03347a084ffd069f0ff5d642e1960001b612dbd565b61359d7fb7d9d56e52d903c8fd2fd77280f892ab8103a0b2205cb8110c60d3b2019f63f860001b612dbd565b6135c97fc86984b1b8e53e66211a0270b422598de79395a2562ff38539b354c52fb6f04d60001b612dbd565b6135f57f6d4e710fb0c9a29521bf53fd3cebe477c04dfa07dff73d9508a0fa56aa1926cb60001b612dbd565b600160009054906101000a900473ffffffffffffffffffffffffffffffffffffffff1673ffffffffffffffffffffffffffffffffffffffff163373ffffffffffffffffffffffffffffffffffffffff1614613685576040517f08c379a000000000000000000000000000000000000000000000000000000000815260040161367c906148be565b60405180910390fd5b6136b17f31b985be2fbdfcb0a735912088758a5bfcde7204df761df6613283c9bcb92a1e60001b612dbd565b6136dd7f7be5c16d25c389dac3243d1d694854dc5c150ff361ea2c5ef79971f492406e0c60001b612dbd565b6137097f170125157263eb0f540ffb8f373261cff912c45d3a05f39cb75931e22550863e60001b612dbd565b600260149054906101000a900460ff1615600260146101000a81548160ff021916908315150217905550565b60076020528060005260406000206000915090505481565b600c5481565b60086020528160005260406000206020528060005260406000206000915091509054906101000a900460ff1681565b600e5481565b6137b47fd4a18637697be3ce4338046e764b6750bfd19cf0b811f8e444dc3a42782f4e1b60001b612dbd565b6137e07f5e617f52463ed621fc57abb3f1ff180d806dc4b0c6da050099e4f8c4a21bd8fb60001b612dbd565b61380c7f3e0410c0bcc06bef14e12c51fa22a274fe7a1071c1a565f3bb2ac03fa6b4167660001b612dbd565b6138387f993dc4a644b45624ae6ea23f9fcc77334cc6fed6a5b54adf5581de50f42a365960001b612dbd565b600160009054906101000a900473ffffffffffffffffffffffffffffffffffffffff1673ffffffffffffffffffffffffffffffffffffffff163373ffffffffffffffffffffffffffffffffffffffff16146138c8576040517f08c379a00000000000000000000000000000000000000000000000000000000081526004016138bf906148be565b60405180910390fd5b6138f47fcb204c982169b7cd6cdc757116027e65053dedb6f409e700fc101761554e4f1f60001b612dbd565b6139207f1aa5efcaa3a7cc95b81e3d00c17582dc5ab3ac5145aabbe1d755066e98be1daa60001b612dbd565b61394c7ff3b8c5e0fcc201dfd2a339b0591bcfc2a8d0efb3d1c9fe5dae566dd6e5ab73cf60001b612dbd565b80600160006101000a81548173ffffffffffffffffffffffffffffffffffffffff021916908373ffffffffffffffffffffffffffffffffffffffff16021790555050565b60105481565b6139c27f2c10a8da4db64d01d99cc0ca66a76af6ff531131e464501f5f1cba76d298d0a060001b612dbd565b6139ee7fd60a7a6bdb1f7d12d44bc675456a8e9dd823f3861ad8c2f0e1d9f8b1ccf0245260001b612dbd565b613a1a7f58e66b7a34d68a2574970473df79b759c7d2f5774141fbef4ec204eff229e4b160001b612dbd565b613a467fee6bf20d2fe831473bce6eb1d716e7a2b01b405fbd73f1ac5e166a15784c166760001b612dbd565b60001515600260149054906101000a900460ff16151514613a9c576040517f08c379a0000000000000000000000000000000000000000000000000000000008152600401613a939061487e565b60405180910390fd5b613ac87f44a9a81652f32a246cb1980c02a885e7b717554f4c4a0656e8baf44398752c6460001b612dbd565b613af47f482827eed35acd26ebff0c78a86e663ab3ab1159ab3d2054283930724723a09060001b612dbd565b613b207fa7df47b36306bdb1933bc49155e594ef8e2b9fe2cd231284e081a65a652214b160001b612dbd565b613b4c7f744a403c168d930e154f812d77dcac46fe0a5b2da4d12f3d6727267198b4cc2760001b612dbd565b613b787fdf78c09317c6a8950463a736cc0b2fbcbf18ee4a6b501118d0c835b0128982b860001b612dbd565b613ba47fc7929b6f44e2616a64d474a0f8fdd4de91866993a2586973dcfe64e9b785b75860001b612dbd565b600160009054906101000a900473ffffffffffffffffffffffffffffffffffffffff1673ffffffffffffffffffffffffffffffffffffffff163373ffffffffffffffffffffffffffffffffffffffff1614613c34576040517f08c379a0000000000000000000000000000000000000000000000000000000008152600401613c2b906148be565b60405180910390fd5b613c607f6261ab6d2b7232632336a49255556ea152be0c6426c0d5428c4d13dd520ba0a860001b612dbd565b613c8c7f38fa1fe3c37de019bd266468e53a6c1c5558142d586e8775210ffae4f3dacb8460001b612dbd565b613cb87f513dd71d25ee3b37df954fd585b36e4d6b4c4bc870c1e37bc91e7e7e5a3f4ffb60001b612dbd565b600660008273ffffffffffffffffffffffffffffffffffffffff1673ffffffffffffffffffffffffffffffffffffffff16815260200190815260200160002060009054906101000a900460ff1615600660008373ffffffffffffffffffffffffffffffffffffffff1673ffffffffffffffffffffffffffffffffffffffff16815260200190815260200160002060006101000a81548160ff02191690831515021790555050565b600f6020528060005260406000206000915054906101000a900473ffffffffffffffffffffffffffffffffffffffff1681565b60066020528060005260406000206000915054906101000a900460ff1681565b613dde7f2c10a8da4db64d01d99cc0ca66a76af6ff531131e464501f5f1cba76d298d0a060001b612dbd565b613e0a7fd60a7a6bdb1f7d12d44bc675456a8e9dd823f3861ad8c2f0e1d9f8b1ccf0245260001b612dbd565b613e367f58e66b7a34d68a2574970473df79b759c7d2f5774141fbef4ec204eff229e4b160001b612dbd565b613e627fee6bf20d2fe831473bce6eb1d716e7a2b01b405fbd73f1ac5e166a15784c166760001b612dbd565b60001515600260149054906101000a900460ff16151514613eb8576040517f08c379a0000000000000000000000000000000000000000000000000000000008152600401613eaf9061487e565b60405180910390fd5b613ee47f44a9a81652f32a246cb1980c02a885e7b717554f4c4a0656e8baf44398752c6460001b612dbd565b613f107f482827eed35acd26ebff0c78a86e663ab3ab1159ab3d2054283930724723a09060001b612dbd565b613f3c7f7114d800ae2dc009140607fa28d8c9611c15e102535ca990b4d95d1dec2a161760001b612dbd565b613f687f44eff928658353c04535945d7e88b78c31cf2a4eb3fb7595fe1e884bcbbfcf4060001b612dbd565b613f947fba367887562de99f6481541c728423701537f776ec8752d02429c9c81ae5940860001b612dbd565b823373ffffffffffffffffffffffffffffffffffffffff166010547f3e1acfd5f2181de07799d35be451dbddfd093425b11baa4b85098d8f871e90a1858542604051613fe293929190614720565b60405180910390a46140167fda2f444d9d518ec474f2949ad203f26b4ab702a489683150973f66bb8a68577f60001b612dbd565b6140427f330919efa870947e76cc1296112abb295fa7f27b4888a771fcc15097dd35008660001b612dbd565b60016010546140519190614a0d565b601081905550505050565b600160009054906101000a900473ffffffffffffffffffffffffffffffffffffffff1681565b6040518060a0016040528060008152602001600081526020016000815260200160008152602001606081525090565b8280548282559060005260206000209081019282156140ed579160200282015b828111156140ec5782518255916020019190600101906140d1565b5b5090506140fa91906140fe565b5090565b5b808211156141175760008160009055506001016140ff565b5090565b600061412e614129846149c1565b614990565b90508281526020810184848401111561414657600080fd5b614151848285614b2c565b509392505050565b60008135905061416881614c0c565b92915050565b60008135905061417d81614c23565b92915050565b60008135905061419281614c3a565b92915050565b600082601f8301126141a957600080fd5b81356141b984826020860161411b565b91505092915050565b6000813590506141d181614c51565b92915050565b6000602082840312156141e957600080fd5b60006141f784828501614159565b91505092915050565b6000806040838503121561421357600080fd5b600061422185828601614159565b925050602061423285828601614159565b9150509250929050565b6000806040838503121561424f57600080fd5b600061425d85828601614159565b925050602061426e858286016141c2565b9150509250929050565b60006020828403121561428a57600080fd5b600061429884828501614183565b91505092915050565b6000806000606084860312156142b657600080fd5b60006142c486828701614183565b93505060206142d586828701614183565b92505060406142e68682870161416e565b9150509250925092565b60008060006060848603121561430557600080fd5b600061431386828701614183565b935050602061432486828701614183565b925050604084013567ffffffffffffffff81111561434157600080fd5b61434d86828701614198565b9150509250925092565b6000806040838503121561436a57600080fd5b600061437885828601614183565b9250506020614389858286016141c2565b9150509250929050565b6000602082840312156143a557600080fd5b60006143b3848285016141c2565b91505092915050565b6000806000606084860312156143d157600080fd5b60006143df868287016141c2565b93505060206143f086828701614183565b92505060406144018682870161416e565b9150509250925092565b61441481614ada565b82525050565b61442381614ac8565b82525050565b61443281614aec565b82525050565b61444181614af8565b82525050565b6000614452826149f1565b61445c81856149fc565b935061446c818560208601614b3b565b61447581614bfb565b840191505092915050565b600061448d6014836149fc565b91507f416c6c20526f756e647320436f6d706c657465640000000000000000000000006000830152602082019050919050565b60006144cd6017836149fc565b91507f55736572206973206e6f742043616d706169676e696e670000000000000000006000830152602082019050919050565b600061450d6013836149fc565b91507f416c726561647920496e697469616c697a6564000000000000000000000000006000830152602082019050919050565b600061454d6016836149fc565b91507f556e617574686f72697a656420486f7374706974616c000000000000000000006000830152602082019050919050565b600061458d600f836149fc565b91507f496e76616c69642046756e6420494400000000000000000000000000000000006000830152602082019050919050565b60006145cd600f836149fc565b91507f496e76616c6964205461736b20494400000000000000000000000000000000006000830152602082019050919050565b600061460d6012836149fc565b91507f436f6e74726163742069732050617573656400000000000000000000000000006000830152602082019050919050565b600061464d601d836149fc565b91507f596f7520617265206e6f742074686520636f6f7264696e61746f7220210000006000830152602082019050919050565b600061468d600a836149fc565b91507f4f6e6c792041646d696e000000000000000000000000000000000000000000006000830152602082019050919050565b6146c981614b22565b82525050565b60006020820190506146e4600083018461441a565b92915050565b60006020820190506146ff600083018461440b565b92915050565b600060208201905061471a6000830184614429565b92915050565b60006060820190506147356000830186614438565b81810360208301526147478185614447565b905061475660408301846146c0565b949350505050565b60006040820190506147736000830185614438565b61478060208301846146c0565b9392505050565b600060608201905061479c6000830186614438565b6147a960208301856146c0565b6147b660408301846146c0565b949350505050565b600060208201905081810360008301526147d781614480565b9050919050565b600060208201905081810360008301526147f7816144c0565b9050919050565b6000602082019050818103600083015261481781614500565b9050919050565b6000602082019050818103600083015261483781614540565b9050919050565b6000602082019050818103600083015261485781614580565b9050919050565b60006020820190508181036000830152614877816145c0565b9050919050565b6000602082019050818103600083015261489781614600565b9050919050565b600060208201905081810360008301526148b781614640565b9050919050565b600060208201905081810360008301526148d781614680565b9050919050565b60006020820190506148f360008301846146c0565b92915050565b600060408201905061490e60008301856146c0565b61491b6020830184614438565b9392505050565b600060408201905061493760008301856146c0565b61494460208301846146c0565b9392505050565b600060808201905061496060008301876146c0565b61496d60208301866146c0565b61497a60408301856146c0565b61498760608301846146c0565b95945050505050565b6000604051905081810181811067ffffffffffffffff821117156149b7576149b6614bcc565b5b8060405250919050565b600067ffffffffffffffff8211156149dc576149db614bcc565b5b601f19601f8301169050602081019050919050565b600081519050919050565b600082825260208201905092915050565b6000614a1882614b22565b9150614a2383614b22565b9250827fffffffffffffffffffffffffffffffffffffffffffffffffffffffffffffffff03821115614a5857614a57614b6e565b5b828201905092915050565b6000614a6e82614b22565b9150614a7983614b22565b925082614a8957614a88614b9d565b5b828204905092915050565b6000614a9f82614b22565b9150614aaa83614b22565b925082821015614abd57614abc614b6e565b5b828203905092915050565b6000614ad382614b02565b9050919050565b6000614ae582614b02565b9050919050565b60008115159050919050565b6000819050919050565b600073ffffffffffffffffffffffffffffffffffffffff82169050919050565b6000819050919050565b82818337600083830152505050565b60005b83811015614b59578082015181840152602081019050614b3e565b83811115614b68576000848401525b50505050565b7f4e487b7100000000000000000000000000000000000000000000000000000000600052601160045260246000fd5b7f4e487b7100000000000000000000000000000000000000000000000000000000600052601260045260246000fd5b7f4e487b7100000000000000000000000000000000000000000000000000000000600052604160045260246000fd5b6000601f19601f8301169050919050565b614c1581614ac8565b8114614c2057600080fd5b50565b614c2c81614ada565b8114614c3757600080fd5b50565b614c4381614af8565b8114614c4e57600080fd5b50565b614c5a81614b22565b8114614c6557600080fd5b5056fea2646970667358221220bf3a63a48b744ac6a41b8b4acd722cd521131f299d5160028794a3c6bcc9156c64736f6c63430008000033",
          "opcodes": "PUSH1 0x80 PUSH1 0x40 MSTORE PUSH1 0x0 DUP1 SSTORE PUSH1 0x1 PUSH1 0x3 SSTORE PUSH1 0x0 PUSH1 0xA SSTORE PUSH1 0x0 PUSH1 0xC SSTORE PUSH1 0x0 PUSH1 0xD SSTORE PUSH1 0x0 PUSH1 0xE SSTORE PUSH1 0x0 PUSH1 0x10 SSTORE CALLVALUE DUP1 ISZERO PUSH2 0x32 JUMPI PUSH1 0x0 DUP1 REVERT JUMPDEST POP PUSH2 0x4C9E DUP1 PUSH2 0x42 PUSH1 0x0 CODECOPY PUSH1 0x0 RETURN INVALID PUSH1 0x80 PUSH1 0x40 MSTORE PUSH1 0x4 CALLDATASIZE LT PUSH2 0x219 JUMPI PUSH1 0x0 CALLDATALOAD PUSH1 0xE0 SHR DUP1 PUSH4 0x8129FC1C GT PUSH2 0x11D JUMPI DUP1 PUSH4 0xE1270B6E GT PUSH2 0xB0 JUMPI DUP1 PUSH4 0xEC270353 GT PUSH2 0x7F JUMPI DUP1 PUSH4 0xF093CF80 GT PUSH2 0x64 JUMPI DUP1 PUSH4 0xF093CF80 EQ PUSH2 0x759 JUMPI DUP1 PUSH4 0xF1FCC8E9 EQ PUSH2 0x796 JUMPI DUP1 PUSH4 0xF851A440 EQ PUSH2 0x7BF JUMPI PUSH2 0x219 JUMP JUMPDEST DUP1 PUSH4 0xEC270353 EQ PUSH2 0x6F3 JUMPI DUP1 PUSH4 0xEEE9B99E EQ PUSH2 0x71C JUMPI PUSH2 0x219 JUMP JUMPDEST DUP1 PUSH4 0xE1270B6E EQ PUSH2 0x637 JUMPI DUP1 PUSH4 0xE1C7DBE3 EQ PUSH2 0x674 JUMPI DUP1 PUSH4 0xE2F273BD EQ PUSH2 0x69F JUMPI DUP1 PUSH4 0xE3F2D24F EQ PUSH2 0x6C8 JUMPI PUSH2 0x219 JUMP JUMPDEST DUP1 PUSH4 0xC06A260D GT PUSH2 0xEC JUMPI DUP1 PUSH4 0xC06A260D EQ PUSH2 0x58F JUMPI DUP1 PUSH4 0xC4AE3168 EQ PUSH2 0x5B8 JUMPI DUP1 PUSH4 0xC4D8FEA7 EQ PUSH2 0x5CF JUMPI DUP1 PUSH4 0xCD5E5483 EQ PUSH2 0x60C JUMPI PUSH2 0x219 JUMP JUMPDEST DUP1 PUSH4 0x8129FC1C EQ PUSH2 0x4E5 JUMPI DUP1 PUSH4 0x82003B31 EQ PUSH2 0x4FC JUMPI DUP1 PUSH4 0x9FF60711 EQ PUSH2 0x527 JUMPI DUP1 PUSH4 0xB063795C EQ PUSH2 0x564 JUMPI PUSH2 0x219 JUMP JUMPDEST DUP1 PUSH4 0x4E1DD1A4 GT PUSH2 0x1B0 JUMPI DUP1 PUSH4 0x6092A502 GT PUSH2 0x17F JUMPI DUP1 PUSH4 0x6FBB5F62 GT PUSH2 0x164 JUMPI DUP1 PUSH4 0x6FBB5F62 EQ PUSH2 0x484 JUMPI DUP1 PUSH4 0x7C6ABC82 EQ PUSH2 0x4A0 JUMPI DUP1 PUSH4 0x7D4F6E7E EQ PUSH2 0x4BC JUMPI PUSH2 0x219 JUMP JUMPDEST DUP1 PUSH4 0x6092A502 EQ PUSH2 0x407 JUMPI DUP1 PUSH4 0x6946C5E9 EQ PUSH2 0x447 JUMPI PUSH2 0x219 JUMP JUMPDEST DUP1 PUSH4 0x4E1DD1A4 EQ PUSH2 0x35D JUMPI DUP1 PUSH4 0x54FD4D50 EQ PUSH2 0x386 JUMPI DUP1 PUSH4 0x5AF09FE2 EQ PUSH2 0x3B1 JUMPI DUP1 PUSH4 0x5C975ABB EQ PUSH2 0x3DC JUMPI PUSH2 0x219 JUMP JUMPDEST DUP1 PUSH4 0x17849646 GT PUSH2 0x1EC JUMPI DUP1 PUSH4 0x17849646 EQ PUSH2 0x2A3 JUMPI DUP1 PUSH4 0x22AF0C0B EQ PUSH2 0x2CE JUMPI DUP1 PUSH4 0x4013BE10 EQ PUSH2 0x2F7 JUMPI DUP1 PUSH4 0x483D6752 EQ PUSH2 0x334 JUMPI PUSH2 0x219 JUMP JUMPDEST DUP1 PUSH4 0x22DECD9 EQ PUSH2 0x21E JUMPI DUP1 PUSH4 0xD3BB50F EQ PUSH2 0x247 JUMPI DUP1 PUSH4 0x11CD13AC EQ PUSH2 0x270 JUMPI DUP1 PUSH4 0x16F1BC22 EQ PUSH2 0x28C JUMPI JUMPDEST PUSH1 0x0 DUP1 REVERT JUMPDEST CALLVALUE DUP1 ISZERO PUSH2 0x22A JUMPI PUSH1 0x0 DUP1 REVERT JUMPDEST POP PUSH2 0x245 PUSH1 0x4 DUP1 CALLDATASIZE SUB DUP2 ADD SWAP1 PUSH2 0x240 SWAP2 SWAP1 PUSH2 0x423C JUMP JUMPDEST PUSH2 0x7EA JUMP JUMPDEST STOP JUMPDEST CALLVALUE DUP1 ISZERO PUSH2 0x253 JUMPI PUSH1 0x0 DUP1 REVERT JUMPDEST POP PUSH2 0x26E PUSH1 0x4 DUP1 CALLDATASIZE SUB DUP2 ADD SWAP1 PUSH2 0x269 SWAP2 SWAP1 PUSH2 0x42A1 JUMP JUMPDEST PUSH2 0xBA1 JUMP JUMPDEST STOP JUMPDEST PUSH2 0x28A PUSH1 0x4 DUP1 CALLDATASIZE SUB DUP2 ADD SWAP1 PUSH2 0x285 SWAP2 SWAP1 PUSH2 0x4393 JUMP JUMPDEST PUSH2 0xF37 JUMP JUMPDEST STOP JUMPDEST CALLVALUE DUP1 ISZERO PUSH2 0x298 JUMPI PUSH1 0x0 DUP1 REVERT JUMPDEST POP PUSH2 0x2A1 PUSH2 0x1456 JUMP JUMPDEST STOP JUMPDEST CALLVALUE DUP1 ISZERO PUSH2 0x2AF JUMPI PUSH1 0x0 DUP1 REVERT JUMPDEST POP PUSH2 0x2B8 PUSH2 0x17D5 JUMP JUMPDEST PUSH1 0x40 MLOAD PUSH2 0x2C5 SWAP2 SWAP1 PUSH2 0x48DE JUMP JUMPDEST PUSH1 0x40 MLOAD DUP1 SWAP2 SUB SWAP1 RETURN JUMPDEST CALLVALUE DUP1 ISZERO PUSH2 0x2DA JUMPI PUSH1 0x0 DUP1 REVERT JUMPDEST POP PUSH2 0x2F5 PUSH1 0x4 DUP1 CALLDATASIZE SUB DUP2 ADD SWAP1 PUSH2 0x2F0 SWAP2 SWAP1 PUSH2 0x43BC JUMP JUMPDEST PUSH2 0x17DB JUMP JUMPDEST STOP JUMPDEST CALLVALUE DUP1 ISZERO PUSH2 0x303 JUMPI PUSH1 0x0 DUP1 REVERT JUMPDEST POP PUSH2 0x31E PUSH1 0x4 DUP1 CALLDATASIZE SUB DUP2 ADD SWAP1 PUSH2 0x319 SWAP2 SWAP1 PUSH2 0x4393 JUMP JUMPDEST PUSH2 0x1FC4 JUMP JUMPDEST PUSH1 0x40 MLOAD PUSH2 0x32B SWAP2 SWAP1 PUSH2 0x46CF JUMP JUMPDEST PUSH1 0x40 MLOAD DUP1 SWAP2 SUB SWAP1 RETURN JUMPDEST CALLVALUE DUP1 ISZERO PUSH2 0x340 JUMPI PUSH1 0x0 DUP1 REVERT JUMPDEST POP PUSH2 0x35B PUSH1 0x4 DUP1 CALLDATASIZE SUB DUP2 ADD SWAP1 PUSH2 0x356 SWAP2 SWAP1 PUSH2 0x4278 JUMP JUMPDEST PUSH2 0x2003 JUMP JUMPDEST STOP JUMPDEST CALLVALUE DUP1 ISZERO PUSH2 0x369 JUMPI PUSH1 0x0 DUP1 REVERT JUMPDEST POP PUSH2 0x384 PUSH1 0x4 DUP1 CALLDATASIZE SUB DUP2 ADD SWAP1 PUSH2 0x37F SWAP2 SWAP1 PUSH2 0x41D7 JUMP JUMPDEST PUSH2 0x2006 JUMP JUMPDEST STOP JUMPDEST CALLVALUE DUP1 ISZERO PUSH2 0x392 JUMPI PUSH1 0x0 DUP1 REVERT JUMPDEST POP PUSH2 0x39B PUSH2 0x22F1 JUMP JUMPDEST PUSH1 0x40 MLOAD PUSH2 0x3A8 SWAP2 SWAP1 PUSH2 0x48DE JUMP JUMPDEST PUSH1 0x40 MLOAD DUP1 SWAP2 SUB SWAP1 RETURN JUMPDEST CALLVALUE DUP1 ISZERO PUSH2 0x3BD JUMPI PUSH1 0x0 DUP1 REVERT JUMPDEST POP PUSH2 0x3C6 PUSH2 0x22F7 JUMP JUMPDEST PUSH1 0x40 MLOAD PUSH2 0x3D3 SWAP2 SWAP1 PUSH2 0x48DE JUMP JUMPDEST PUSH1 0x40 MLOAD DUP1 SWAP2 SUB SWAP1 RETURN JUMPDEST CALLVALUE DUP1 ISZERO PUSH2 0x3E8 JUMPI PUSH1 0x0 DUP1 REVERT JUMPDEST POP PUSH2 0x3F1 PUSH2 0x22FD JUMP JUMPDEST PUSH1 0x40 MLOAD PUSH2 0x3FE SWAP2 SWAP1 PUSH2 0x4705 JUMP JUMPDEST PUSH1 0x40 MLOAD DUP1 SWAP2 SUB SWAP1 RETURN JUMPDEST CALLVALUE DUP1 ISZERO PUSH2 0x413 JUMPI PUSH1 0x0 DUP1 REVERT JUMPDEST POP PUSH2 0x42E PUSH1 0x4 DUP1 CALLDATASIZE SUB DUP2 ADD SWAP1 PUSH2 0x429 SWAP2 SWAP1 PUSH2 0x4393 JUMP JUMPDEST PUSH2 0x2310 JUMP JUMPDEST PUSH1 0x40 MLOAD PUSH2 0x43E SWAP5 SWAP4 SWAP3 SWAP2 SWAP1 PUSH2 0x494B JUMP JUMPDEST PUSH1 0x40 MLOAD DUP1 SWAP2 SUB SWAP1 RETURN JUMPDEST CALLVALUE DUP1 ISZERO PUSH2 0x453 JUMPI PUSH1 0x0 DUP1 REVERT JUMPDEST POP PUSH2 0x46E PUSH1 0x4 DUP1 CALLDATASIZE SUB DUP2 ADD SWAP1 PUSH2 0x469 SWAP2 SWAP1 PUSH2 0x423C JUMP JUMPDEST PUSH2 0x2340 JUMP JUMPDEST PUSH1 0x40 MLOAD PUSH2 0x47B SWAP2 SWAP1 PUSH2 0x48DE JUMP JUMPDEST PUSH1 0x40 MLOAD DUP1 SWAP2 SUB SWAP1 RETURN JUMPDEST PUSH2 0x49E PUSH1 0x4 DUP1 CALLDATASIZE SUB DUP2 ADD SWAP1 PUSH2 0x499 SWAP2 SWAP1 PUSH2 0x4357 JUMP JUMPDEST PUSH2 0x2371 JUMP JUMPDEST STOP JUMPDEST PUSH2 0x4BA PUSH1 0x4 DUP1 CALLDATASIZE SUB DUP2 ADD SWAP1 PUSH2 0x4B5 SWAP2 SWAP1 PUSH2 0x41D7 JUMP JUMPDEST PUSH2 0x2991 JUMP JUMPDEST STOP JUMPDEST CALLVALUE DUP1 ISZERO PUSH2 0x4C8 JUMPI PUSH1 0x0 DUP1 REVERT JUMPDEST POP PUSH2 0x4E3 PUSH1 0x4 DUP1 CALLDATASIZE SUB DUP2 ADD SWAP1 PUSH2 0x4DE SWAP2 SWAP1 PUSH2 0x4278 JUMP JUMPDEST PUSH2 0x2DBD JUMP JUMPDEST STOP JUMPDEST CALLVALUE DUP1 ISZERO PUSH2 0x4F1 JUMPI PUSH1 0x0 DUP1 REVERT JUMPDEST POP PUSH2 0x4FA PUSH2 0x2DC0 JUMP JUMPDEST STOP JUMPDEST CALLVALUE DUP1 ISZERO PUSH2 0x508 JUMPI PUSH1 0x0 DUP1 REVERT JUMPDEST POP PUSH2 0x511 PUSH2 0x3098 JUMP JUMPDEST PUSH1 0x40 MLOAD PUSH2 0x51E SWAP2 SWAP1 PUSH2 0x46CF JUMP JUMPDEST PUSH1 0x40 MLOAD DUP1 SWAP2 SUB SWAP1 RETURN JUMPDEST CALLVALUE DUP1 ISZERO PUSH2 0x533 JUMPI PUSH1 0x0 DUP1 REVERT JUMPDEST POP PUSH2 0x54E PUSH1 0x4 DUP1 CALLDATASIZE SUB DUP2 ADD SWAP1 PUSH2 0x549 SWAP2 SWAP1 PUSH2 0x41D7 JUMP JUMPDEST PUSH2 0x30BE JUMP JUMPDEST PUSH1 0x40 MLOAD PUSH2 0x55B SWAP2 SWAP1 PUSH2 0x4705 JUMP JUMPDEST PUSH1 0x40 MLOAD DUP1 SWAP2 SUB SWAP1 RETURN JUMPDEST CALLVALUE DUP1 ISZERO PUSH2 0x570 JUMPI PUSH1 0x0 DUP1 REVERT JUMPDEST POP PUSH2 0x579 PUSH2 0x30DE JUMP JUMPDEST PUSH1 0x40 MLOAD PUSH2 0x586 SWAP2 SWAP1 PUSH2 0x48DE JUMP JUMPDEST PUSH1 0x40 MLOAD DUP1 SWAP2 SUB SWAP1 RETURN JUMPDEST CALLVALUE DUP1 ISZERO PUSH2 0x59B JUMPI PUSH1 0x0 DUP1 REVERT JUMPDEST POP PUSH2 0x5B6 PUSH1 0x4 DUP1 CALLDATASIZE SUB DUP2 ADD SWAP1 PUSH2 0x5B1 SWAP2 SWAP1 PUSH2 0x4278 JUMP JUMPDEST PUSH2 0x30E4 JUMP JUMPDEST STOP JUMPDEST CALLVALUE DUP1 ISZERO PUSH2 0x5C4 JUMPI PUSH1 0x0 DUP1 REVERT JUMPDEST POP PUSH2 0x5CD PUSH2 0x3545 JUMP JUMPDEST STOP JUMPDEST CALLVALUE DUP1 ISZERO PUSH2 0x5DB JUMPI PUSH1 0x0 DUP1 REVERT JUMPDEST POP PUSH2 0x5F6 PUSH1 0x4 DUP1 CALLDATASIZE SUB DUP2 ADD SWAP1 PUSH2 0x5F1 SWAP2 SWAP1 PUSH2 0x41D7 JUMP JUMPDEST PUSH2 0x3735 JUMP JUMPDEST PUSH1 0x40 MLOAD PUSH2 0x603 SWAP2 SWAP1 PUSH2 0x48DE JUMP JUMPDEST PUSH1 0x40 MLOAD DUP1 SWAP2 SUB SWAP1 RETURN JUMPDEST CALLVALUE DUP1 ISZERO PUSH2 0x618 JUMPI PUSH1 0x0 DUP1 REVERT JUMPDEST POP PUSH2 0x621 PUSH2 0x374D JUMP JUMPDEST PUSH1 0x40 MLOAD PUSH2 0x62E SWAP2 SWAP1 PUSH2 0x48DE JUMP JUMPDEST PUSH1 0x40 MLOAD DUP1 SWAP2 SUB SWAP1 RETURN JUMPDEST CALLVALUE DUP1 ISZERO PUSH2 0x643 JUMPI PUSH1 0x0 DUP1 REVERT JUMPDEST POP PUSH2 0x65E PUSH1 0x4 DUP1 CALLDATASIZE SUB DUP2 ADD SWAP1 PUSH2 0x659 SWAP2 SWAP1 PUSH2 0x4200 JUMP JUMPDEST PUSH2 0x3753 JUMP JUMPDEST PUSH1 0x40 MLOAD PUSH2 0x66B SWAP2 SWAP1 PUSH2 0x4705 JUMP JUMPDEST PUSH1 0x40 MLOAD DUP1 SWAP2 SUB SWAP1 RETURN JUMPDEST CALLVALUE DUP1 ISZERO PUSH2 0x680 JUMPI PUSH1 0x0 DUP1 REVERT JUMPDEST POP PUSH2 0x689 PUSH2 0x3782 JUMP JUMPDEST PUSH1 0x40 MLOAD PUSH2 0x696 SWAP2 SWAP1 PUSH2 0x48DE JUMP JUMPDEST PUSH1 0x40 MLOAD DUP1 SWAP2 SUB SWAP1 RETURN JUMPDEST CALLVALUE DUP1 ISZERO PUSH2 0x6AB JUMPI PUSH1 0x0 DUP1 REVERT JUMPDEST POP PUSH2 0x6C6 PUSH1 0x4 DUP1 CALLDATASIZE SUB DUP2 ADD SWAP1 PUSH2 0x6C1 SWAP2 SWAP1 PUSH2 0x41D7 JUMP JUMPDEST PUSH2 0x3788 JUMP JUMPDEST STOP JUMPDEST CALLVALUE DUP1 ISZERO PUSH2 0x6D4 JUMPI PUSH1 0x0 DUP1 REVERT JUMPDEST POP PUSH2 0x6DD PUSH2 0x3990 JUMP JUMPDEST PUSH1 0x40 MLOAD PUSH2 0x6EA SWAP2 SWAP1 PUSH2 0x48DE JUMP JUMPDEST PUSH1 0x40 MLOAD DUP1 SWAP2 SUB SWAP1 RETURN JUMPDEST CALLVALUE DUP1 ISZERO PUSH2 0x6FF JUMPI PUSH1 0x0 DUP1 REVERT JUMPDEST POP PUSH2 0x71A PUSH1 0x4 DUP1 CALLDATASIZE SUB DUP2 ADD SWAP1 PUSH2 0x715 SWAP2 SWAP1 PUSH2 0x41D7 JUMP JUMPDEST PUSH2 0x3996 JUMP JUMPDEST STOP JUMPDEST CALLVALUE DUP1 ISZERO PUSH2 0x728 JUMPI PUSH1 0x0 DUP1 REVERT JUMPDEST POP PUSH2 0x743 PUSH1 0x4 DUP1 CALLDATASIZE SUB DUP2 ADD SWAP1 PUSH2 0x73E SWAP2 SWAP1 PUSH2 0x4393 JUMP JUMPDEST PUSH2 0x3D5F JUMP JUMPDEST PUSH1 0x40 MLOAD PUSH2 0x750 SWAP2 SWAP1 PUSH2 0x46EA JUMP JUMPDEST PUSH1 0x40 MLOAD DUP1 SWAP2 SUB SWAP1 RETURN JUMPDEST CALLVALUE DUP1 ISZERO PUSH2 0x765 JUMPI PUSH1 0x0 DUP1 REVERT JUMPDEST POP PUSH2 0x780 PUSH1 0x4 DUP1 CALLDATASIZE SUB DUP2 ADD SWAP1 PUSH2 0x77B SWAP2 SWAP1 PUSH2 0x41D7 JUMP JUMPDEST PUSH2 0x3D92 JUMP JUMPDEST PUSH1 0x40 MLOAD PUSH2 0x78D SWAP2 SWAP1 PUSH2 0x4705 JUMP JUMPDEST PUSH1 0x40 MLOAD DUP1 SWAP2 SUB SWAP1 RETURN JUMPDEST CALLVALUE DUP1 ISZERO PUSH2 0x7A2 JUMPI PUSH1 0x0 DUP1 REVERT JUMPDEST POP PUSH2 0x7BD PUSH1 0x4 DUP1 CALLDATASIZE SUB DUP2 ADD SWAP1 PUSH2 0x7B8 SWAP2 SWAP1 PUSH2 0x42F0 JUMP JUMPDEST PUSH2 0x3DB2 JUMP JUMPDEST STOP JUMPDEST CALLVALUE DUP1 ISZERO PUSH2 0x7CB JUMPI PUSH1 0x0 DUP1 REVERT JUMPDEST POP PUSH2 0x7D4 PUSH2 0x405C JUMP JUMPDEST PUSH1 0x40 MLOAD PUSH2 0x7E1 SWAP2 SWAP1 PUSH2 0x46CF JUMP JUMPDEST PUSH1 0x40 MLOAD DUP1 SWAP2 SUB SWAP1 RETURN JUMPDEST PUSH2 0x816 PUSH32 0x2C10A8DA4DB64D01D99CC0CA66A76AF6FF531131E464501F5F1CBA76D298D0A0 PUSH1 0x0 SHL PUSH2 0x2DBD JUMP JUMPDEST PUSH2 0x842 PUSH32 0xD60A7A6BDB1F7D12D44BC675456A8E9DD823F3861AD8C2F0E1D9F8B1CCF02452 PUSH1 0x0 SHL PUSH2 0x2DBD JUMP JUMPDEST PUSH2 0x86E PUSH32 0x58E66B7A34D68A2574970473DF79B759C7D2F5774141FBEF4EC204EFF229E4B1 PUSH1 0x0 SHL PUSH2 0x2DBD JUMP JUMPDEST PUSH2 0x89A PUSH32 0xEE6BF20D2FE831473BCE6EB1D716E7A2B01B405FBD73F1AC5E166A15784C1667 PUSH1 0x0 SHL PUSH2 0x2DBD JUMP JUMPDEST PUSH1 0x0 ISZERO ISZERO PUSH1 0x2 PUSH1 0x14 SWAP1 SLOAD SWAP1 PUSH2 0x100 EXP SWAP1 DIV PUSH1 0xFF AND ISZERO ISZERO EQ PUSH2 0x8F0 JUMPI PUSH1 0x40 MLOAD PUSH32 0x8C379A000000000000000000000000000000000000000000000000000000000 DUP2 MSTORE PUSH1 0x4 ADD PUSH2 0x8E7 SWAP1 PUSH2 0x487E JUMP JUMPDEST PUSH1 0x40 MLOAD DUP1 SWAP2 SUB SWAP1 REVERT JUMPDEST PUSH2 0x91C PUSH32 0x44A9A81652F32A246CB1980C02A885E7B717554F4C4A0656E8BAF44398752C64 PUSH1 0x0 SHL PUSH2 0x2DBD JUMP JUMPDEST PUSH2 0x948 PUSH32 0x482827EED35ACD26EBFF0C78A86E663AB3AB1159AB3D2054283930724723A090 PUSH1 0x0 SHL PUSH2 0x2DBD JUMP JUMPDEST PUSH2 0x974 PUSH32 0x3B2300FF945C2B6A12653050F6E84B7AC2BA8628F782F5BAAF2666703E7EEB22 PUSH1 0x0 SHL PUSH2 0x2DBD JUMP JUMPDEST PUSH2 0x9A0 PUSH32 0x20F51C416B9A9CFD0368F54B530C145174DB84E67A41848A269F9668B3F0C0AD PUSH1 0x0 SHL PUSH2 0x2DBD JUMP JUMPDEST PUSH2 0x9CC PUSH32 0x3AEEAB8ADDCD3E60E2BC9DE9B586AD86D9720C19AFB53E075C408463FC6E2BD6 PUSH1 0x0 SHL PUSH2 0x2DBD JUMP JUMPDEST PUSH2 0x9F8 PUSH32 0x6E43F8D0037FD6AAD10CA0ED9C25D23CF8A3540B49E3476D37DC960099B02932 PUSH1 0x0 SHL PUSH2 0x2DBD JUMP JUMPDEST PUSH1 0x1 ISZERO ISZERO PUSH1 0x6 PUSH1 0x0 CALLER PUSH20 0xFFFFFFFFFFFFFFFFFFFFFFFFFFFFFFFFFFFFFFFF AND PUSH20 0xFFFFFFFFFFFFFFFFFFFFFFFFFFFFFFFFFFFFFFFF AND DUP2 MSTORE PUSH1 0x20 ADD SWAP1 DUP2 MSTORE PUSH1 0x20 ADD PUSH1 0x0 KECCAK256 PUSH1 0x0 SWAP1 SLOAD SWAP1 PUSH2 0x100 EXP SWAP1 DIV PUSH1 0xFF AND ISZERO ISZERO EQ PUSH2 0xA8B JUMPI PUSH1 0x40 MLOAD PUSH32 0x8C379A000000000000000000000000000000000000000000000000000000000 DUP2 MSTORE PUSH1 0x4 ADD PUSH2 0xA82 SWAP1 PUSH2 0x481E JUMP JUMPDEST PUSH1 0x40 MLOAD DUP1 SWAP2 SUB SWAP1 REVERT JUMPDEST PUSH2 0xAB7 PUSH32 0x3FDE2B304BF98EEB32B5860944A3777D558A33DFB49CE537B2EF8907084B4E46 PUSH1 0x0 SHL PUSH2 0x2DBD JUMP JUMPDEST PUSH2 0xAE3 PUSH32 0xD8EF95F1B40969A6B46386E0CD1A76688C514E2F66CDE18E8D88726B081CBE17 PUSH1 0x0 SHL PUSH2 0x2DBD JUMP JUMPDEST PUSH2 0xB0F PUSH32 0x320A73062F57580320488212A3EF5C4CF069F2108E1B86FA198C758F8B92995E PUSH1 0x0 SHL PUSH2 0x2DBD JUMP JUMPDEST DUP1 PUSH1 0x7 PUSH1 0x0 DUP5 PUSH20 0xFFFFFFFFFFFFFFFFFFFFFFFFFFFFFFFFFFFFFFFF AND PUSH20 0xFFFFFFFFFFFFFFFFFFFFFFFFFFFFFFFFFFFFFFFF AND DUP2 MSTORE PUSH1 0x20 ADD SWAP1 DUP2 MSTORE PUSH1 0x20 ADD PUSH1 0x0 KECCAK256 SLOAD PUSH2 0xB5A SWAP2 SWAP1 PUSH2 0x4A0D JUMP JUMPDEST PUSH1 0x7 PUSH1 0x0 DUP5 PUSH20 0xFFFFFFFFFFFFFFFFFFFFFFFFFFFFFFFFFFFFFFFF AND PUSH20 0xFFFFFFFFFFFFFFFFFFFFFFFFFFFFFFFFFFFFFFFF AND DUP2 MSTORE PUSH1 0x20 ADD SWAP1 DUP2 MSTORE PUSH1 0x20 ADD PUSH1 0x0 KECCAK256 DUP2 SWAP1 SSTORE POP POP POP JUMP JUMPDEST PUSH2 0xBCD PUSH32 0x2C10A8DA4DB64D01D99CC0CA66A76AF6FF531131E464501F5F1CBA76D298D0A0 PUSH1 0x0 SHL PUSH2 0x2DBD JUMP JUMPDEST PUSH2 0xBF9 PUSH32 0xD60A7A6BDB1F7D12D44BC675456A8E9DD823F3861AD8C2F0E1D9F8B1CCF02452 PUSH1 0x0 SHL PUSH2 0x2DBD JUMP JUMPDEST PUSH2 0xC25 PUSH32 0x58E66B7A34D68A2574970473DF79B759C7D2F5774141FBEF4EC204EFF229E4B1 PUSH1 0x0 SHL PUSH2 0x2DBD JUMP JUMPDEST PUSH2 0xC51 PUSH32 0xEE6BF20D2FE831473BCE6EB1D716E7A2B01B405FBD73F1AC5E166A15784C1667 PUSH1 0x0 SHL PUSH2 0x2DBD JUMP JUMPDEST PUSH1 0x0 ISZERO ISZERO PUSH1 0x2 PUSH1 0x14 SWAP1 SLOAD SWAP1 PUSH2 0x100 EXP SWAP1 DIV PUSH1 0xFF AND ISZERO ISZERO EQ PUSH2 0xCA7 JUMPI PUSH1 0x40 MLOAD PUSH32 0x8C379A000000000000000000000000000000000000000000000000000000000 DUP2 MSTORE PUSH1 0x4 ADD PUSH2 0xC9E SWAP1 PUSH2 0x487E JUMP JUMPDEST PUSH1 0x40 MLOAD DUP1 SWAP2 SUB SWAP1 REVERT JUMPDEST PUSH2 0xCD3 PUSH32 0x44A9A81652F32A246CB1980C02A885E7B717554F4C4A0656E8BAF44398752C64 PUSH1 0x0 SHL PUSH2 0x2DBD JUMP JUMPDEST PUSH2 0xCFF PUSH32 0x482827EED35ACD26EBFF0C78A86E663AB3AB1159AB3D2054283930724723A090 PUSH1 0x0 SHL PUSH2 0x2DBD JUMP JUMPDEST PUSH2 0xD2B PUSH32 0x8EC277065F04151AE832866D3810BA68CA30CE63E553B796398EF9ABB5317CA0 PUSH1 0x0 SHL PUSH2 0x2DBD JUMP JUMPDEST PUSH2 0xD57 PUSH32 0x57995697C3DC42AEF29A9162A9FAC546A4CAD49D96542E3CD7A5AC492D46021F PUSH1 0x0 SHL PUSH2 0x2DBD JUMP JUMPDEST PUSH2 0xD83 PUSH32 0x6482A7E79F0795BC9F7E9BBB5475A86E1E2D3FEDF018B52E9E2396D1BC5C42B2 PUSH1 0x0 SHL PUSH2 0x2DBD JUMP JUMPDEST PUSH1 0x0 PUSH1 0x1 PUSH1 0xC SLOAD PUSH2 0xD94 SWAP2 SWAP1 PUSH2 0x4A0D JUMP JUMPDEST SWAP1 POP PUSH2 0xDC2 PUSH32 0xF426143E37EC373DBB2AE4193D7E30E3E2CF93C3AD1E06ACE2105172F5D0B1C8 PUSH1 0x0 SHL PUSH2 0x2DBD JUMP JUMPDEST PUSH2 0xDEE PUSH32 0xC1CC2D053219E4D997FFD9E7952986053813FC8DE79620F074DF5C20C6612578 PUSH1 0x0 SHL PUSH2 0x2DBD JUMP JUMPDEST DUP2 PUSH1 0xF PUSH1 0x0 DUP4 DUP2 MSTORE PUSH1 0x20 ADD SWAP1 DUP2 MSTORE PUSH1 0x20 ADD PUSH1 0x0 KECCAK256 PUSH1 0x0 PUSH2 0x100 EXP DUP2 SLOAD DUP2 PUSH20 0xFFFFFFFFFFFFFFFFFFFFFFFFFFFFFFFFFFFFFFFF MUL NOT AND SWAP1 DUP4 PUSH20 0xFFFFFFFFFFFFFFFFFFFFFFFFFFFFFFFFFFFFFFFF AND MUL OR SWAP1 SSTORE POP PUSH2 0xE6C PUSH32 0x76FA70B34819BEA51DDE33224D5048DC202B54799EC22499B54BAA6E7205259 PUSH1 0x0 SHL PUSH2 0x2DBD JUMP JUMPDEST PUSH2 0xE98 PUSH32 0xF4B67E29D88E0897AACFDA6AF315EE8EA48502EB43D84FB5B7843A12D4151BA0 PUSH1 0x0 SHL PUSH2 0x2DBD JUMP JUMPDEST DUP1 PUSH1 0xC DUP2 SWAP1 SSTORE POP PUSH2 0xECB PUSH32 0x1DA9C0E1849D26CDAD44EB672D910E68DD139CA1E55DD51FC6E04F4DB16278D6 PUSH1 0x0 SHL PUSH2 0x2DBD JUMP JUMPDEST PUSH2 0xEF7 PUSH32 0x15C66BE2AE7A633A0CECB1C3B6F57D17F1988462FD6A277ABE114E7592782BA9 PUSH1 0x0 SHL PUSH2 0x2DBD JUMP JUMPDEST DUP4 PUSH32 0xB99663894DC2A2C66382F63932042AA530244FE0AF348B833F4CDDEA9CFBEB71 DUP3 DUP6 PUSH1 0x40 MLOAD PUSH2 0xF29 SWAP3 SWAP2 SWAP1 PUSH2 0x48F9 JUMP JUMPDEST PUSH1 0x40 MLOAD DUP1 SWAP2 SUB SWAP1 LOG2 POP POP POP POP JUMP JUMPDEST PUSH2 0xF63 PUSH32 0x2C10A8DA4DB64D01D99CC0CA66A76AF6FF531131E464501F5F1CBA76D298D0A0 PUSH1 0x0 SHL PUSH2 0x2DBD JUMP JUMPDEST PUSH2 0xF8F PUSH32 0xD60A7A6BDB1F7D12D44BC675456A8E9DD823F3861AD8C2F0E1D9F8B1CCF02452 PUSH1 0x0 SHL PUSH2 0x2DBD JUMP JUMPDEST PUSH2 0xFBB PUSH32 0x58E66B7A34D68A2574970473DF79B759C7D2F5774141FBEF4EC204EFF229E4B1 PUSH1 0x0 SHL PUSH2 0x2DBD JUMP JUMPDEST PUSH2 0xFE7 PUSH32 0xEE6BF20D2FE831473BCE6EB1D716E7A2B01B405FBD73F1AC5E166A15784C1667 PUSH1 0x0 SHL PUSH2 0x2DBD JUMP JUMPDEST PUSH1 0x0 ISZERO ISZERO PUSH1 0x2 PUSH1 0x14 SWAP1 SLOAD SWAP1 PUSH2 0x100 EXP SWAP1 DIV PUSH1 0xFF AND ISZERO ISZERO EQ PUSH2 0x103D JUMPI PUSH1 0x40 MLOAD PUSH32 0x8C379A000000000000000000000000000000000000000000000000000000000 DUP2 MSTORE PUSH1 0x4 ADD PUSH2 0x1034 SWAP1 PUSH2 0x487E JUMP JUMPDEST PUSH1 0x40 MLOAD DUP1 SWAP2 SUB SWAP1 REVERT JUMPDEST PUSH2 0x1069 PUSH32 0x44A9A81652F32A246CB1980C02A885E7B717554F4C4A0656E8BAF44398752C64 PUSH1 0x0 SHL PUSH2 0x2DBD JUMP JUMPDEST PUSH2 0x1095 PUSH32 0x482827EED35ACD26EBFF0C78A86E663AB3AB1159AB3D2054283930724723A090 PUSH1 0x0 SHL PUSH2 0x2DBD JUMP JUMPDEST PUSH2 0x10C1 PUSH32 0xCAD276B0C5467F2CBEFE46140873D4CCFFE3D2A3C2F31E12AF6933CA747678B5 PUSH1 0x0 SHL PUSH2 0x2DBD JUMP JUMPDEST PUSH2 0x10ED PUSH32 0xA365B5EDD6A0C09BE4A4F12D0A40F6F2231B23C39761E07D2F0ED7506E800B61 PUSH1 0x0 SHL PUSH2 0x2DBD JUMP JUMPDEST PUSH2 0x1119 PUSH32 0x7B16430157A0D0B3EE70879D1B2048F564B7FBCB56B628B48E3DAA5010A623B2 PUSH1 0x0 SHL PUSH2 0x2DBD JUMP JUMPDEST PUSH2 0x1145 PUSH32 0x7CEBB1BC77B46AC247053ADF510DB93BFC4BF9011D4EAF81D3D92784402A97A3 PUSH1 0x0 SHL PUSH2 0x2DBD JUMP JUMPDEST PUSH1 0xC SLOAD DUP2 GT ISZERO PUSH2 0x118A JUMPI PUSH1 0x40 MLOAD PUSH32 0x8C379A000000000000000000000000000000000000000000000000000000000 DUP2 MSTORE PUSH1 0x4 ADD PUSH2 0x1181 SWAP1 PUSH2 0x483E JUMP JUMPDEST PUSH1 0x40 MLOAD DUP1 SWAP2 SUB SWAP1 REVERT JUMPDEST PUSH2 0x11B6 PUSH32 0x44575A529F7379CB0B6D837ABB75113D9B2DF896E884E6B26A6D5D3379A65A28 PUSH1 0x0 SHL PUSH2 0x2DBD JUMP JUMPDEST PUSH2 0x11E2 PUSH32 0xDDD54921B90D128D8E9772173295FD8B7731A727D65F6D6B118F388B66A53128 PUSH1 0x0 SHL PUSH2 0x2DBD JUMP JUMPDEST PUSH2 0x120E PUSH32 0xD09A8485A1AC51742F27888AF67FD0399A138F560B5360450291791A13730BC2 PUSH1 0x0 SHL PUSH2 0x2DBD JUMP JUMPDEST CALLVALUE PUSH1 0xD SLOAD PUSH2 0x121C SWAP2 SWAP1 PUSH2 0x4A0D JUMP JUMPDEST PUSH1 0xD DUP2 SWAP1 SSTORE POP PUSH2 0x124E PUSH32 0xB50AB9890355E983CEC94E7FD2832EB1FC7587FCF2783AC4810E6A50C9696462 PUSH1 0x0 SHL PUSH2 0x2DBD JUMP JUMPDEST PUSH2 0x127A PUSH32 0x854170F12AF2C81678697F31A9ECE4C831E1FCB4FE7CD3D319ECCBDC7172487C PUSH1 0x0 SHL PUSH2 0x2DBD JUMP JUMPDEST PUSH1 0x1 PUSH1 0xE SLOAD PUSH2 0x1289 SWAP2 SWAP1 PUSH2 0x4A0D JUMP JUMPDEST PUSH1 0xE DUP2 SWAP1 SSTORE POP PUSH2 0x12BB PUSH32 0x89A348C320747584114752F9E01158C3CAF5C679E05839DAF57A3BD745AFCE23 PUSH1 0x0 SHL PUSH2 0x2DBD JUMP JUMPDEST PUSH2 0x12E7 PUSH32 0x9ECA7652A821432FF7622657764D46FFA2508CA811B4CBD9988A7F163EF08567 PUSH1 0x0 SHL PUSH2 0x2DBD JUMP JUMPDEST PUSH1 0xF PUSH1 0x0 DUP3 DUP2 MSTORE PUSH1 0x20 ADD SWAP1 DUP2 MSTORE PUSH1 0x20 ADD PUSH1 0x0 KECCAK256 PUSH1 0x0 SWAP1 SLOAD SWAP1 PUSH2 0x100 EXP SWAP1 DIV PUSH20 0xFFFFFFFFFFFFFFFFFFFFFFFFFFFFFFFFFFFFFFFF AND PUSH20 0xFFFFFFFFFFFFFFFFFFFFFFFFFFFFFFFFFFFFFFFF AND PUSH2 0x8FC CALLVALUE SWAP1 DUP2 ISZERO MUL SWAP1 PUSH1 0x40 MLOAD PUSH1 0x0 PUSH1 0x40 MLOAD DUP1 DUP4 SUB DUP2 DUP6 DUP9 DUP9 CALL SWAP4 POP POP POP POP ISZERO DUP1 ISZERO PUSH2 0x1360 JUMPI RETURNDATASIZE PUSH1 0x0 DUP1 RETURNDATACOPY RETURNDATASIZE PUSH1 0x0 REVERT JUMPDEST POP PUSH2 0x138D PUSH32 0xB87205C1AEC7B6C758DC6BC5B2CFD40FEEA1B4E685F210EBE3B7D2E906668E40 PUSH1 0x0 SHL PUSH2 0x2DBD JUMP JUMPDEST PUSH2 0x13B9 PUSH32 0x52D2FF6DD0FDDB5E84E6F475AD8C4E7E16CD054DECBA71592DA158B907D68236 PUSH1 0x0 SHL PUSH2 0x2DBD JUMP JUMPDEST PUSH1 0xF PUSH1 0x0 DUP3 DUP2 MSTORE PUSH1 0x20 ADD SWAP1 DUP2 MSTORE PUSH1 0x20 ADD PUSH1 0x0 KECCAK256 PUSH1 0x0 SWAP1 SLOAD SWAP1 PUSH2 0x100 EXP SWAP1 DIV PUSH20 0xFFFFFFFFFFFFFFFFFFFFFFFFFFFFFFFFFFFFFFFF AND PUSH20 0xFFFFFFFFFFFFFFFFFFFFFFFFFFFFFFFFFFFFFFFF AND CALLER PUSH20 0xFFFFFFFFFFFFFFFFFFFFFFFFFFFFFFFFFFFFFFFF AND PUSH32 0x2317347462A70F36EB7BAC6FB953ACA2CD01EB3BCDF5F359BABE909811EAED67 DUP4 CALLVALUE PUSH1 0x40 MLOAD PUSH2 0x144B SWAP3 SWAP2 SWAP1 PUSH2 0x4922 JUMP JUMPDEST PUSH1 0x40 MLOAD DUP1 SWAP2 SUB SWAP1 LOG3 POP JUMP JUMPDEST PUSH2 0x1482 PUSH32 0x2C10A8DA4DB64D01D99CC0CA66A76AF6FF531131E464501F5F1CBA76D298D0A0 PUSH1 0x0 SHL PUSH2 0x2DBD JUMP JUMPDEST PUSH2 0x14AE PUSH32 0xD60A7A6BDB1F7D12D44BC675456A8E9DD823F3861AD8C2F0E1D9F8B1CCF02452 PUSH1 0x0 SHL PUSH2 0x2DBD JUMP JUMPDEST PUSH2 0x14DA PUSH32 0x58E66B7A34D68A2574970473DF79B759C7D2F5774141FBEF4EC204EFF229E4B1 PUSH1 0x0 SHL PUSH2 0x2DBD JUMP JUMPDEST PUSH2 0x1506 PUSH32 0xEE6BF20D2FE831473BCE6EB1D716E7A2B01B405FBD73F1AC5E166A15784C1667 PUSH1 0x0 SHL PUSH2 0x2DBD JUMP JUMPDEST PUSH1 0x0 ISZERO ISZERO PUSH1 0x2 PUSH1 0x14 SWAP1 SLOAD SWAP1 PUSH2 0x100 EXP SWAP1 DIV PUSH1 0xFF AND ISZERO ISZERO EQ PUSH2 0x155C JUMPI PUSH1 0x40 MLOAD PUSH32 0x8C379A000000000000000000000000000000000000000000000000000000000 DUP2 MSTORE PUSH1 0x4 ADD PUSH2 0x1553 SWAP1 PUSH2 0x487E JUMP JUMPDEST PUSH1 0x40 MLOAD DUP1 SWAP2 SUB SWAP1 REVERT JUMPDEST PUSH2 0x1588 PUSH32 0x44A9A81652F32A246CB1980C02A885E7B717554F4C4A0656E8BAF44398752C64 PUSH1 0x0 SHL PUSH2 0x2DBD JUMP JUMPDEST PUSH2 0x15B4 PUSH32 0x482827EED35ACD26EBFF0C78A86E663AB3AB1159AB3D2054283930724723A090 PUSH1 0x0 SHL PUSH2 0x2DBD JUMP JUMPDEST PUSH2 0x15E0 PUSH32 0x823AEC777C9DFD372A53B1B48C4B8D3F312F1C7AE2C6C657C9C67BF5A37213AB PUSH1 0x0 SHL PUSH2 0x2DBD JUMP JUMPDEST PUSH2 0x160C PUSH32 0xB8EADCCF24DFA952F685F33D4319026B0A70CFAED37663BD7778DC261716204F PUSH1 0x0 SHL PUSH2 0x2DBD JUMP JUMPDEST PUSH2 0x1638 PUSH32 0x3FD4E04E5117B1AA53A49A86AEF38BB26773AEAF400A8ECA28C0799149132B23 PUSH1 0x0 SHL PUSH2 0x2DBD JUMP JUMPDEST PUSH2 0x1664 PUSH32 0x2D64F8F354EA36D19694283144B8D1E3805E80DADA3E65BF487A7164371DA458 PUSH1 0x0 SHL PUSH2 0x2DBD JUMP JUMPDEST PUSH1 0x1 ISZERO ISZERO PUSH1 0xB PUSH1 0x0 CALLER PUSH20 0xFFFFFFFFFFFFFFFFFFFFFFFFFFFFFFFFFFFFFFFF AND PUSH20 0xFFFFFFFFFFFFFFFFFFFFFFFFFFFFFFFFFFFFFFFF AND DUP2 MSTORE PUSH1 0x20 ADD SWAP1 DUP2 MSTORE PUSH1 0x20 ADD PUSH1 0x0 KECCAK256 PUSH1 0x0 SWAP1 SLOAD SWAP1 PUSH2 0x100 EXP SWAP1 DIV PUSH1 0xFF AND ISZERO ISZERO EQ PUSH2 0x16F7 JUMPI PUSH1 0x40 MLOAD PUSH32 0x8C379A000000000000000000000000000000000000000000000000000000000 DUP2 MSTORE PUSH1 0x4 ADD PUSH2 0x16EE SWAP1 PUSH2 0x47DE JUMP JUMPDEST PUSH1 0x40 MLOAD DUP1 SWAP2 SUB SWAP1 REVERT JUMPDEST PUSH2 0x1723 PUSH32 0x12378C183E303754BA4B0F9047775D59A87C60B42466BD243128668279826714 PUSH1 0x0 SHL PUSH2 0x2DBD JUMP JUMPDEST PUSH2 0x174F PUSH32 0x25DB13E3232FE2481D122944D5722014264404471F93DD95B2056B63841B8D45 PUSH1 0x0 SHL PUSH2 0x2DBD JUMP JUMPDEST PUSH2 0x177B PUSH32 0xD1531C1AE183378E4D023E80734569A014B68585E1C0520C16565CD23B2F8E68 PUSH1 0x0 SHL PUSH2 0x2DBD JUMP JUMPDEST PUSH1 0x0 PUSH1 0xB PUSH1 0x0 CALLER PUSH20 0xFFFFFFFFFFFFFFFFFFFFFFFFFFFFFFFFFFFFFFFF AND PUSH20 0xFFFFFFFFFFFFFFFFFFFFFFFFFFFFFFFFFFFFFFFF AND DUP2 MSTORE PUSH1 0x20 ADD SWAP1 DUP2 MSTORE PUSH1 0x20 ADD PUSH1 0x0 KECCAK256 PUSH1 0x0 PUSH2 0x100 EXP DUP2 SLOAD DUP2 PUSH1 0xFF MUL NOT AND SWAP1 DUP4 ISZERO ISZERO MUL OR SWAP1 SSTORE POP JUMP JUMPDEST PUSH1 0xD SLOAD DUP2 JUMP JUMPDEST PUSH2 0x1807 PUSH32 0x2C10A8DA4DB64D01D99CC0CA66A76AF6FF531131E464501F5F1CBA76D298D0A0 PUSH1 0x0 SHL PUSH2 0x2DBD JUMP JUMPDEST PUSH2 0x1833 PUSH32 0xD60A7A6BDB1F7D12D44BC675456A8E9DD823F3861AD8C2F0E1D9F8B1CCF02452 PUSH1 0x0 SHL PUSH2 0x2DBD JUMP JUMPDEST PUSH2 0x185F PUSH32 0x58E66B7A34D68A2574970473DF79B759C7D2F5774141FBEF4EC204EFF229E4B1 PUSH1 0x0 SHL PUSH2 0x2DBD JUMP JUMPDEST PUSH2 0x188B PUSH32 0xEE6BF20D2FE831473BCE6EB1D716E7A2B01B405FBD73F1AC5E166A15784C1667 PUSH1 0x0 SHL PUSH2 0x2DBD JUMP JUMPDEST PUSH1 0x0 ISZERO ISZERO PUSH1 0x2 PUSH1 0x14 SWAP1 SLOAD SWAP1 PUSH2 0x100 EXP SWAP1 DIV PUSH1 0xFF AND ISZERO ISZERO EQ PUSH2 0x18E1 JUMPI PUSH1 0x40 MLOAD PUSH32 0x8C379A000000000000000000000000000000000000000000000000000000000 DUP2 MSTORE PUSH1 0x4 ADD PUSH2 0x18D8 SWAP1 PUSH2 0x487E JUMP JUMPDEST PUSH1 0x40 MLOAD DUP1 SWAP2 SUB SWAP1 REVERT JUMPDEST PUSH2 0x190D PUSH32 0x44A9A81652F32A246CB1980C02A885E7B717554F4C4A0656E8BAF44398752C64 PUSH1 0x0 SHL PUSH2 0x2DBD JUMP JUMPDEST PUSH2 0x1939 PUSH32 0x482827EED35ACD26EBFF0C78A86E663AB3AB1159AB3D2054283930724723A090 PUSH1 0x0 SHL PUSH2 0x2DBD JUMP JUMPDEST PUSH2 0x1965 PUSH32 0x1C72CF469A5A60C4E25E631E0BB1665AECF7CC1491069910D71C1936C18028A8 PUSH1 0x0 SHL PUSH2 0x2DBD JUMP JUMPDEST PUSH2 0x1991 PUSH32 0x91F522B4E31ACA990A6EDB08695AF247245C3E925BA492E5CFC041CBB8AA49DF PUSH1 0x0 SHL PUSH2 0x2DBD JUMP JUMPDEST PUSH2 0x19BD PUSH32 0xA8B693D17D9168516A02F18660B6D196EEDE195E846CAF05DD82A339FE013EEE PUSH1 0x0 SHL PUSH2 0x2DBD JUMP JUMPDEST PUSH2 0x19E9 PUSH32 0x567AB75557D01C21E01E50ACD79B71C696546DA0E650A9237E498A629A920C1C PUSH1 0x0 SHL PUSH2 0x2DBD JUMP JUMPDEST PUSH1 0x2 PUSH1 0x0 SWAP1 SLOAD SWAP1 PUSH2 0x100 EXP SWAP1 DIV PUSH20 0xFFFFFFFFFFFFFFFFFFFFFFFFFFFFFFFFFFFFFFFF AND PUSH20 0xFFFFFFFFFFFFFFFFFFFFFFFFFFFFFFFFFFFFFFFF AND CALLER PUSH20 0xFFFFFFFFFFFFFFFFFFFFFFFFFFFFFFFFFFFFFFFF AND EQ PUSH2 0x1A79 JUMPI PUSH1 0x40 MLOAD PUSH32 0x8C379A000000000000000000000000000000000000000000000000000000000 DUP2 MSTORE PUSH1 0x4 ADD PUSH2 0x1A70 SWAP1 PUSH2 0x489E JUMP JUMPDEST PUSH1 0x40 MLOAD DUP1 SWAP2 SUB SWAP1 REVERT JUMPDEST PUSH2 0x1AA5 PUSH32 0x8D7C08000814E20507348AC511D8D00B54CC406ABE61ACCB2CF406953E86691E PUSH1 0x0 SHL PUSH2 0x2DBD JUMP JUMPDEST PUSH2 0x1AD1 PUSH32 0xCAF3FD6F78B67DFE9F683D37EA261AB5F2731513B179CF5236409C1963D15F7 PUSH1 0x0 SHL PUSH2 0x2DBD JUMP JUMPDEST PUSH2 0x1AFD PUSH32 0x36F4ECE00D0004594A9D05C3A8ACEED9112599E565CF1FC64156A42317FCBB8B PUSH1 0x0 SHL PUSH2 0x2DBD JUMP JUMPDEST PUSH2 0x1B29 PUSH32 0x6407FAE6F18701B7685927460F10E6EA1EBB1D86B80E45CD830622E200A86DAC PUSH1 0x0 SHL PUSH2 0x2DBD JUMP JUMPDEST PUSH1 0x3 SLOAD DUP4 GT ISZERO PUSH2 0x1B6E JUMPI PUSH1 0x40 MLOAD PUSH32 0x8C379A000000000000000000000000000000000000000000000000000000000 DUP2 MSTORE PUSH1 0x4 ADD PUSH2 0x1B65 SWAP1 PUSH2 0x485E JUMP JUMPDEST PUSH1 0x40 MLOAD DUP1 SWAP2 SUB SWAP1 REVERT JUMPDEST PUSH2 0x1B9A PUSH32 0x70366277DCF4C39C1CFC8624FED10A02B9D0F1C2F4C8D2B5AAF9835DB25298CB PUSH1 0x0 SHL PUSH2 0x2DBD JUMP JUMPDEST PUSH2 0x1BC6 PUSH32 0xF3F39720A6066751524CA15DBE085FF30A7E527C30732A39A3253F57720A86A6 PUSH1 0x0 SHL PUSH2 0x2DBD JUMP JUMPDEST PUSH2 0x1BF2 PUSH32 0xBB45ACFEF6A158CC3AC11CDCC23B528957089BC93F5520681EF28DD66147FE25 PUSH1 0x0 SHL PUSH2 0x2DBD JUMP JUMPDEST PUSH1 0x0 PUSH1 0x1 PUSH1 0x4 PUSH1 0x0 DUP7 DUP2 MSTORE PUSH1 0x20 ADD SWAP1 DUP2 MSTORE PUSH1 0x20 ADD PUSH1 0x0 KECCAK256 PUSH1 0x1 ADD SLOAD PUSH2 0x1C17 SWAP2 SWAP1 PUSH2 0x4A0D JUMP JUMPDEST SWAP1 POP PUSH2 0x1C45 PUSH32 0x67480A047348CDF3C273E9873823AD1BF680C6FD7D9AFFACF724DEC2601BA4FA PUSH1 0x0 SHL PUSH2 0x2DBD JUMP JUMPDEST PUSH2 0x1C71 PUSH32 0xAB60B80A15530EEF71354B3148762A49736B32C60EC2FC912283BBFBFC409161 PUSH1 0x0 SHL PUSH2 0x2DBD JUMP JUMPDEST PUSH2 0x1C9D PUSH32 0xBD1E3FA90C9A049E049DA57D42C3D325E46A52E8937001E908CFB7AE15E1049C PUSH1 0x0 SHL PUSH2 0x2DBD JUMP JUMPDEST PUSH1 0x4 PUSH1 0x0 DUP6 DUP2 MSTORE PUSH1 0x20 ADD SWAP1 DUP2 MSTORE PUSH1 0x20 ADD PUSH1 0x0 KECCAK256 PUSH1 0x2 ADD SLOAD DUP2 GT ISZERO PUSH2 0x1CF6 JUMPI PUSH1 0x40 MLOAD PUSH32 0x8C379A000000000000000000000000000000000000000000000000000000000 DUP2 MSTORE PUSH1 0x4 ADD PUSH2 0x1CED SWAP1 PUSH2 0x47BE JUMP JUMPDEST PUSH1 0x40 MLOAD DUP1 SWAP2 SUB SWAP1 REVERT JUMPDEST PUSH2 0x1D22 PUSH32 0x559377B329F04088B1F7D6435C0122FEC35602DAA797F728FA50914F9D303DC1 PUSH1 0x0 SHL PUSH2 0x2DBD JUMP JUMPDEST PUSH2 0x1D4E PUSH32 0x307B99CD90CA4DBBA4544A280BAB45BAB27213618BD0D303D90F0ADBF5F427C3 PUSH1 0x0 SHL PUSH2 0x2DBD JUMP JUMPDEST PUSH2 0x1D7A PUSH32 0x7BAA32F7AC942769CC34EFC031D7B92E8A94208030BA16D90F3736A4968503AF PUSH1 0x0 SHL PUSH2 0x2DBD JUMP JUMPDEST DUP1 PUSH1 0x4 PUSH1 0x0 DUP7 DUP2 MSTORE PUSH1 0x20 ADD SWAP1 DUP2 MSTORE PUSH1 0x20 ADD PUSH1 0x0 KECCAK256 PUSH1 0x1 ADD DUP2 SWAP1 SSTORE POP PUSH2 0x1DC1 PUSH32 0xC162DDD6514CD977674E90C79FD99A1365AC19088A5DC8D6A9BD72EDCE0DEAA7 PUSH1 0x0 SHL PUSH2 0x2DBD JUMP JUMPDEST PUSH2 0x1DED PUSH32 0x23652D651088B08F5F5BCF185F61FE9AE59150C7FB41E970BB2E327FB2C08821 PUSH1 0x0 SHL PUSH2 0x2DBD JUMP JUMPDEST DUP3 PUSH1 0x4 PUSH1 0x0 DUP7 DUP2 MSTORE PUSH1 0x20 ADD SWAP1 DUP2 MSTORE PUSH1 0x20 ADD PUSH1 0x0 KECCAK256 PUSH1 0x4 ADD PUSH1 0x1 DUP4 PUSH2 0x1E11 SWAP2 SWAP1 PUSH2 0x4A94 JUMP JUMPDEST DUP2 SLOAD DUP2 LT PUSH2 0x1E48 JUMPI PUSH32 0x4E487B7100000000000000000000000000000000000000000000000000000000 PUSH1 0x0 MSTORE PUSH1 0x32 PUSH1 0x4 MSTORE PUSH1 0x24 PUSH1 0x0 REVERT JUMPDEST SWAP1 PUSH1 0x0 MSTORE PUSH1 0x20 PUSH1 0x0 KECCAK256 ADD DUP2 SWAP1 SSTORE POP PUSH2 0x1E82 PUSH32 0xC9F985855FD93C7B16833CF6CF4D2434FC5769D6EA23799A47FD2D0B65F0A967 PUSH1 0x0 SHL PUSH2 0x2DBD JUMP JUMPDEST PUSH2 0x1EAE PUSH32 0xAEC56ADF583223E00E48071AAF0B0B0335A4A7E6BCF218D90AA2D84715C60A79 PUSH1 0x0 SHL PUSH2 0x2DBD JUMP JUMPDEST DUP2 PUSH20 0xFFFFFFFFFFFFFFFFFFFFFFFFFFFFFFFFFFFFFFFF AND PUSH2 0x8FC PUSH1 0x4 PUSH1 0x0 DUP8 DUP2 MSTORE PUSH1 0x20 ADD SWAP1 DUP2 MSTORE PUSH1 0x20 ADD PUSH1 0x0 KECCAK256 PUSH1 0x2 ADD SLOAD PUSH1 0x4 PUSH1 0x0 DUP9 DUP2 MSTORE PUSH1 0x20 ADD SWAP1 DUP2 MSTORE PUSH1 0x20 ADD PUSH1 0x0 KECCAK256 PUSH1 0x3 ADD SLOAD PUSH2 0x1F00 SWAP2 SWAP1 PUSH2 0x4A63 JUMP JUMPDEST SWAP1 DUP2 ISZERO MUL SWAP1 PUSH1 0x40 MLOAD PUSH1 0x0 PUSH1 0x40 MLOAD DUP1 DUP4 SUB DUP2 DUP6 DUP9 DUP9 CALL SWAP4 POP POP POP POP ISZERO DUP1 ISZERO PUSH2 0x1F2B JUMPI RETURNDATASIZE PUSH1 0x0 DUP1 RETURNDATACOPY RETURNDATASIZE PUSH1 0x0 REVERT JUMPDEST POP PUSH2 0x1F58 PUSH32 0x6743F223ADABD212D89EBAF8EAE371D1A4A95F900921CB0843044E7873A79AB2 PUSH1 0x0 SHL PUSH2 0x2DBD JUMP JUMPDEST PUSH2 0x1F84 PUSH32 0x60F113E5AEC0B22DF154EAD65AEA6029D1F125521F9E558C7ECF3287418051C1 PUSH1 0x0 SHL PUSH2 0x2DBD JUMP JUMPDEST DUP4 PUSH32 0xE1D58799A6D1CEF7A4A5E546E03E11850EF52264511394D1A1F9D8AC73FC5E4C DUP5 TIMESTAMP PUSH1 0x40 MLOAD PUSH2 0x1FB6 SWAP3 SWAP2 SWAP1 PUSH2 0x475E JUMP JUMPDEST PUSH1 0x40 MLOAD DUP1 SWAP2 SUB SWAP1 LOG2 POP POP POP POP JUMP JUMPDEST PUSH1 0x9 DUP2 DUP2 SLOAD DUP2 LT PUSH2 0x1FD4 JUMPI PUSH1 0x0 DUP1 REVERT JUMPDEST SWAP1 PUSH1 0x0 MSTORE PUSH1 0x20 PUSH1 0x0 KECCAK256 ADD PUSH1 0x0 SWAP2 POP SLOAD SWAP1 PUSH2 0x100 EXP SWAP1 DIV PUSH20 0xFFFFFFFFFFFFFFFFFFFFFFFFFFFFFFFFFFFFFFFF AND DUP2 JUMP JUMPDEST POP JUMP JUMPDEST PUSH2 0x2032 PUSH32 0x2096F7316C2FC3298B471083F2E3593395E6B8068596639506A06385439BD771 PUSH1 0x0 SHL PUSH2 0x2DBD JUMP JUMPDEST PUSH2 0x205E PUSH32 0xB5C6DA5E232EE3E9FFBCDBEF516B1B3661693D69AB5AE619568E7312FC0B1743 PUSH1 0x0 SHL PUSH2 0x2DBD JUMP JUMPDEST PUSH2 0x208A PUSH32 0xF828AE879820BE38D7B5651DB8F77205522947887C6F9E8F912A96655D1CB5F0 PUSH1 0x0 SHL PUSH2 0x2DBD JUMP JUMPDEST PUSH1 0x8 PUSH1 0x0 CALLER PUSH20 0xFFFFFFFFFFFFFFFFFFFFFFFFFFFFFFFFFFFFFFFF AND PUSH20 0xFFFFFFFFFFFFFFFFFFFFFFFFFFFFFFFFFFFFFFFF AND DUP2 MSTORE PUSH1 0x20 ADD SWAP1 DUP2 MSTORE PUSH1 0x20 ADD PUSH1 0x0 KECCAK256 PUSH1 0x0 DUP3 PUSH20 0xFFFFFFFFFFFFFFFFFFFFFFFFFFFFFFFFFFFFFFFF AND PUSH20 0xFFFFFFFFFFFFFFFFFFFFFFFFFFFFFFFFFFFFFFFF AND DUP2 MSTORE PUSH1 0x20 ADD SWAP1 DUP2 MSTORE PUSH1 0x20 ADD PUSH1 0x0 KECCAK256 PUSH1 0x0 SWAP1 SLOAD SWAP1 PUSH2 0x100 EXP SWAP1 DIV PUSH1 0xFF AND ISZERO PUSH1 0x8 PUSH1 0x0 CALLER PUSH20 0xFFFFFFFFFFFFFFFFFFFFFFFFFFFFFFFFFFFFFFFF AND PUSH20 0xFFFFFFFFFFFFFFFFFFFFFFFFFFFFFFFFFFFFFFFF AND DUP2 MSTORE PUSH1 0x20 ADD SWAP1 DUP2 MSTORE PUSH1 0x20 ADD PUSH1 0x0 KECCAK256 PUSH1 0x0 DUP4 PUSH20 0xFFFFFFFFFFFFFFFFFFFFFFFFFFFFFFFFFFFFFFFF AND PUSH20 0xFFFFFFFFFFFFFFFFFFFFFFFFFFFFFFFFFFFFFFFF AND DUP2 MSTORE PUSH1 0x20 ADD SWAP1 DUP2 MSTORE PUSH1 0x20 ADD PUSH1 0x0 KECCAK256 PUSH1 0x0 PUSH2 0x100 EXP DUP2 SLOAD DUP2 PUSH1 0xFF MUL NOT AND SWAP1 DUP4 ISZERO ISZERO MUL OR SWAP1 SSTORE POP PUSH2 0x21D4 PUSH32 0x26B5265B39A977A9A20B3A1E5DF1319B72CD7BCBFC66F45A4BE0592C3C184227 PUSH1 0x0 SHL PUSH2 0x2DBD JUMP JUMPDEST PUSH2 0x2200 PUSH32 0xD79EA959DC358A0897589F9293898B9B4D885CAB9BF8F3568386386DCABA4CE5 PUSH1 0x0 SHL PUSH2 0x2DBD JUMP JUMPDEST DUP1 PUSH20 0xFFFFFFFFFFFFFFFFFFFFFFFFFFFFFFFFFFFFFFFF AND CALLER PUSH20 0xFFFFFFFFFFFFFFFFFFFFFFFFFFFFFFFFFFFFFFFF AND PUSH32 0xAD77D1D38ED980518F1C26C8CD8FE0CC39BA4E9092E1B5F69F0BD23FF1DE97FB PUSH1 0x8 PUSH1 0x0 CALLER PUSH20 0xFFFFFFFFFFFFFFFFFFFFFFFFFFFFFFFFFFFFFFFF AND PUSH20 0xFFFFFFFFFFFFFFFFFFFFFFFFFFFFFFFFFFFFFFFF AND DUP2 MSTORE PUSH1 0x20 ADD SWAP1 DUP2 MSTORE PUSH1 0x20 ADD PUSH1 0x0 KECCAK256 PUSH1 0x0 DUP6 PUSH20 0xFFFFFFFFFFFFFFFFFFFFFFFFFFFFFFFFFFFFFFFF AND PUSH20 0xFFFFFFFFFFFFFFFFFFFFFFFFFFFFFFFFFFFFFFFF AND DUP2 MSTORE PUSH1 0x20 ADD SWAP1 DUP2 MSTORE PUSH1 0x20 ADD PUSH1 0x0 KECCAK256 PUSH1 0x0 SWAP1 SLOAD SWAP1 PUSH2 0x100 EXP SWAP1 DIV PUSH1 0xFF AND PUSH1 0x40 MLOAD PUSH2 0x22E6 SWAP2 SWAP1 PUSH2 0x4705 JUMP JUMPDEST PUSH1 0x40 MLOAD DUP1 SWAP2 SUB SWAP1 LOG3 POP JUMP JUMPDEST PUSH1 0x0 SLOAD DUP2 JUMP JUMPDEST PUSH1 0x3 SLOAD DUP2 JUMP JUMPDEST PUSH1 0x2 PUSH1 0x14 SWAP1 SLOAD SWAP1 PUSH2 0x100 EXP SWAP1 DIV PUSH1 0xFF AND DUP2 JUMP JUMPDEST PUSH1 0x4 PUSH1 0x20 MSTORE DUP1 PUSH1 0x0 MSTORE PUSH1 0x40 PUSH1 0x0 KECCAK256 PUSH1 0x0 SWAP2 POP SWAP1 POP DUP1 PUSH1 0x0 ADD SLOAD SWAP1 DUP1 PUSH1 0x1 ADD SLOAD SWAP1 DUP1 PUSH1 0x2 ADD SLOAD SWAP1 DUP1 PUSH1 0x3 ADD SLOAD SWAP1 POP DUP5 JUMP JUMPDEST PUSH1 0x5 PUSH1 0x20 MSTORE DUP2 PUSH1 0x0 MSTORE PUSH1 0x40 PUSH1 0x0 KECCAK256 DUP2 DUP2 SLOAD DUP2 LT PUSH2 0x235C JUMPI PUSH1 0x0 DUP1 REVERT JUMPDEST SWAP1 PUSH1 0x0 MSTORE PUSH1 0x20 PUSH1 0x0 KECCAK256 ADD PUSH1 0x0 SWAP2 POP SWAP2 POP POP SLOAD DUP2 JUMP JUMPDEST PUSH2 0x239D PUSH32 0x2C10A8DA4DB64D01D99CC0CA66A76AF6FF531131E464501F5F1CBA76D298D0A0 PUSH1 0x0 SHL PUSH2 0x2DBD JUMP JUMPDEST PUSH2 0x23C9 PUSH32 0xD60A7A6BDB1F7D12D44BC675456A8E9DD823F3861AD8C2F0E1D9F8B1CCF02452 PUSH1 0x0 SHL PUSH2 0x2DBD JUMP JUMPDEST PUSH2 0x23F5 PUSH32 0x58E66B7A34D68A2574970473DF79B759C7D2F5774141FBEF4EC204EFF229E4B1 PUSH1 0x0 SHL PUSH2 0x2DBD JUMP JUMPDEST PUSH2 0x2421 PUSH32 0xEE6BF20D2FE831473BCE6EB1D716E7A2B01B405FBD73F1AC5E166A15784C1667 PUSH1 0x0 SHL PUSH2 0x2DBD JUMP JUMPDEST PUSH1 0x0 ISZERO ISZERO PUSH1 0x2 PUSH1 0x14 SWAP1 SLOAD SWAP1 PUSH2 0x100 EXP SWAP1 DIV PUSH1 0xFF AND ISZERO ISZERO EQ PUSH2 0x2477 JUMPI PUSH1 0x40 MLOAD PUSH32 0x8C379A000000000000000000000000000000000000000000000000000000000 DUP2 MSTORE PUSH1 0x4 ADD PUSH2 0x246E SWAP1 PUSH2 0x487E JUMP JUMPDEST PUSH1 0x40 MLOAD DUP1 SWAP2 SUB SWAP1 REVERT JUMPDEST PUSH2 0x24A3 PUSH32 0x44A9A81652F32A246CB1980C02A885E7B717554F4C4A0656E8BAF44398752C64 PUSH1 0x0 SHL PUSH2 0x2DBD JUMP JUMPDEST PUSH2 0x24CF PUSH32 0x482827EED35ACD26EBFF0C78A86E663AB3AB1159AB3D2054283930724723A090 PUSH1 0x0 SHL PUSH2 0x2DBD JUMP JUMPDEST PUSH2 0x24FB PUSH32 0x25BCEB0000EC0F6CC3BA12E9B960752052E976C2DF5D788F37B5DA7DAC78F1CA PUSH1 0x0 SHL PUSH2 0x2DBD JUMP JUMPDEST PUSH2 0x2527 PUSH32 0xF9242BE87869C018F060C6845EF371801C93C15C947910455AA32940D28029B7 PUSH1 0x0 SHL PUSH2 0x2DBD JUMP JUMPDEST PUSH2 0x2553 PUSH32 0x37B9B08B863AD2D19ED93C126C21428097AAE2AFF6E33660BFE4599137ED24EF PUSH1 0x0 SHL PUSH2 0x2DBD JUMP JUMPDEST PUSH2 0x255B PUSH2 0x4082 JUMP JUMPDEST PUSH2 0x2587 PUSH32 0x92FD2B57115E28088B39A9FFDF4F10212DC0201EFA5E981462BE29694DEFF2E1 PUSH1 0x0 SHL PUSH2 0x2DBD JUMP JUMPDEST PUSH2 0x25B3 PUSH32 0xEFFD08ACF2AF4ADDEB09C1C6BE3280088A0C1A6B5EE25CA86204F2098BD39A32 PUSH1 0x0 SHL PUSH2 0x2DBD JUMP JUMPDEST PUSH1 0x40 MLOAD DUP1 PUSH1 0xA0 ADD PUSH1 0x40 MSTORE DUP1 PUSH1 0x3 SLOAD DUP2 MSTORE PUSH1 0x20 ADD PUSH1 0x1 DUP2 MSTORE PUSH1 0x20 ADD DUP4 DUP2 MSTORE PUSH1 0x20 ADD CALLVALUE DUP2 MSTORE PUSH1 0x20 ADD DUP4 PUSH8 0xFFFFFFFFFFFFFFFF DUP2 GT ISZERO PUSH2 0x2619 JUMPI PUSH32 0x4E487B7100000000000000000000000000000000000000000000000000000000 PUSH1 0x0 MSTORE PUSH1 0x41 PUSH1 0x4 MSTORE PUSH1 0x24 PUSH1 0x0 REVERT JUMPDEST PUSH1 0x40 MLOAD SWAP1 DUP1 DUP3 MSTORE DUP1 PUSH1 0x20 MUL PUSH1 0x20 ADD DUP3 ADD PUSH1 0x40 MSTORE DUP1 ISZERO PUSH2 0x2647 JUMPI DUP2 PUSH1 0x20 ADD PUSH1 0x20 DUP3 MUL DUP1 CALLDATASIZE DUP4 CALLDATACOPY DUP1 DUP3 ADD SWAP2 POP POP SWAP1 POP JUMPDEST POP DUP2 MSTORE POP SWAP1 POP PUSH2 0x2679 PUSH32 0x10ED6CC5A42744D6773DBA7086AFE3D413C27BBDDD280F23E4E549E0D052CA3A PUSH1 0x0 SHL PUSH2 0x2DBD JUMP JUMPDEST PUSH2 0x26A5 PUSH32 0x73B87411D898756CE83276AACB6190ECDFA3966E4A1BA1EA683ED795BD9571EF PUSH1 0x0 SHL PUSH2 0x2DBD JUMP JUMPDEST DUP3 DUP2 PUSH1 0x80 ADD MLOAD PUSH1 0x0 DUP2 MLOAD DUP2 LT PUSH2 0x26E4 JUMPI PUSH32 0x4E487B7100000000000000000000000000000000000000000000000000000000 PUSH1 0x0 MSTORE PUSH1 0x32 PUSH1 0x4 MSTORE PUSH1 0x24 PUSH1 0x0 REVERT JUMPDEST PUSH1 0x20 MUL PUSH1 0x20 ADD ADD DUP2 DUP2 MSTORE POP POP PUSH2 0x271C PUSH32 0x178660A7D420860AEA6C31230B57E48B7F55E0A076A7B57B88ED031BF76AAA5D PUSH1 0x0 SHL PUSH2 0x2DBD JUMP JUMPDEST PUSH2 0x2748 PUSH32 0xA363141C3B512E67D9766DAC84344D61593D73DA5FCF021C5797E16CCEA2F99B PUSH1 0x0 SHL PUSH2 0x2DBD JUMP JUMPDEST DUP1 PUSH1 0x4 PUSH1 0x0 PUSH1 0x3 SLOAD DUP2 MSTORE PUSH1 0x20 ADD SWAP1 DUP2 MSTORE PUSH1 0x20 ADD PUSH1 0x0 KECCAK256 PUSH1 0x0 DUP3 ADD MLOAD DUP2 PUSH1 0x0 ADD SSTORE PUSH1 0x20 DUP3 ADD MLOAD DUP2 PUSH1 0x1 ADD SSTORE PUSH1 0x40 DUP3 ADD MLOAD DUP2 PUSH1 0x2 ADD SSTORE PUSH1 0x60 DUP3 ADD MLOAD DUP2 PUSH1 0x3 ADD SSTORE PUSH1 0x80 DUP3 ADD MLOAD DUP2 PUSH1 0x4 ADD SWAP1 DUP1 MLOAD SWAP1 PUSH1 0x20 ADD SWAP1 PUSH2 0x27A2 SWAP3 SWAP2 SWAP1 PUSH2 0x40B1 JUMP JUMPDEST POP SWAP1 POP POP PUSH2 0x27D2 PUSH32 0x30C337F673FAEC957511E5619AA4893E60CF78B2515CE92CBB4EFDABC621935 PUSH1 0x0 SHL PUSH2 0x2DBD JUMP JUMPDEST PUSH2 0x27FE PUSH32 0x1BBE933E241EDD4D32B78FC1F6BA499A0FA961AD3775BBB88D1CE494AB0983A1 PUSH1 0x0 SHL PUSH2 0x2DBD JUMP JUMPDEST PUSH1 0x5 PUSH1 0x0 CALLER PUSH20 0xFFFFFFFFFFFFFFFFFFFFFFFFFFFFFFFFFFFFFFFF AND PUSH20 0xFFFFFFFFFFFFFFFFFFFFFFFFFFFFFFFFFFFFFFFF AND DUP2 MSTORE PUSH1 0x20 ADD SWAP1 DUP2 MSTORE PUSH1 0x20 ADD PUSH1 0x0 KECCAK256 PUSH1 0x3 SLOAD SWAP1 DUP1 PUSH1 0x1 DUP2 SLOAD ADD DUP1 DUP3 SSTORE DUP1 SWAP2 POP POP PUSH1 0x1 SWAP1 SUB SWAP1 PUSH1 0x0 MSTORE PUSH1 0x20 PUSH1 0x0 KECCAK256 ADD PUSH1 0x0 SWAP1 SWAP2 SWAP1 SWAP2 SWAP1 SWAP2 POP SSTORE PUSH2 0x2892 PUSH32 0x794A5946A0C20463025CC3F64580460C069E89C9DFCC9F7DE95E87E082961404 PUSH1 0x0 SHL PUSH2 0x2DBD JUMP JUMPDEST PUSH2 0x28BE PUSH32 0xA68241E49D96FF49A50663CE6E3E834A3A3DF95A58E7C07FBD042891DA53F06 PUSH1 0x0 SHL PUSH2 0x2DBD JUMP JUMPDEST PUSH1 0x1 PUSH1 0x3 SLOAD PUSH2 0x28CD SWAP2 SWAP1 PUSH2 0x4A0D JUMP JUMPDEST PUSH1 0x3 DUP2 SWAP1 SSTORE POP PUSH2 0x28FF PUSH32 0x1B2E57ECB3CD0813C0E7D6E459060AE0C11AB3BF6AE80CC23371EA0FDFC33B63 PUSH1 0x0 SHL PUSH2 0x2DBD JUMP JUMPDEST PUSH2 0x292B PUSH32 0xC6EC0CED80F4B9F82FBF7AA2D5163EE71DC18A4DDB85C93019CB323F82414D0F PUSH1 0x0 SHL PUSH2 0x2DBD JUMP JUMPDEST CALLER PUSH20 0xFFFFFFFFFFFFFFFFFFFFFFFFFFFFFFFFFFFFFFFF AND PUSH1 0x1 PUSH1 0x3 SLOAD PUSH2 0x2951 SWAP2 SWAP1 PUSH2 0x4A94 JUMP JUMPDEST PUSH32 0xC4DD427940F2B7ACF9630EF20CA65879526CFC7A3869483461942027043545F7 DUP6 CALLVALUE TIMESTAMP PUSH1 0x40 MLOAD PUSH2 0x2984 SWAP4 SWAP3 SWAP2 SWAP1 PUSH2 0x4787 JUMP JUMPDEST PUSH1 0x40 MLOAD DUP1 SWAP2 SUB SWAP1 LOG3 POP POP POP JUMP JUMPDEST PUSH2 0x29BD PUSH32 0x2C10A8DA4DB64D01D99CC0CA66A76AF6FF531131E464501F5F1CBA76D298D0A0 PUSH1 0x0 SHL PUSH2 0x2DBD JUMP JUMPDEST PUSH2 0x29E9 PUSH32 0xD60A7A6BDB1F7D12D44BC675456A8E9DD823F3861AD8C2F0E1D9F8B1CCF02452 PUSH1 0x0 SHL PUSH2 0x2DBD JUMP JUMPDEST PUSH2 0x2A15 PUSH32 0x58E66B7A34D68A2574970473DF79B759C7D2F5774141FBEF4EC204EFF229E4B1 PUSH1 0x0 SHL PUSH2 0x2DBD JUMP JUMPDEST PUSH2 0x2A41 PUSH32 0xEE6BF20D2FE831473BCE6EB1D716E7A2B01B405FBD73F1AC5E166A15784C1667 PUSH1 0x0 SHL PUSH2 0x2DBD JUMP JUMPDEST PUSH1 0x0 ISZERO ISZERO PUSH1 0x2 PUSH1 0x14 SWAP1 SLOAD SWAP1 PUSH2 0x100 EXP SWAP1 DIV PUSH1 0xFF AND ISZERO ISZERO EQ PUSH2 0x2A97 JUMPI PUSH1 0x40 MLOAD PUSH32 0x8C379A000000000000000000000000000000000000000000000000000000000 DUP2 MSTORE PUSH1 0x4 ADD PUSH2 0x2A8E SWAP1 PUSH2 0x487E JUMP JUMPDEST PUSH1 0x40 MLOAD DUP1 SWAP2 SUB SWAP1 REVERT JUMPDEST PUSH2 0x2AC3 PUSH32 0x44A9A81652F32A246CB1980C02A885E7B717554F4C4A0656E8BAF44398752C64 PUSH1 0x0 SHL PUSH2 0x2DBD JUMP JUMPDEST PUSH2 0x2AEF PUSH32 0x482827EED35ACD26EBFF0C78A86E663AB3AB1159AB3D2054283930724723A090 PUSH1 0x0 SHL PUSH2 0x2DBD JUMP JUMPDEST PUSH2 0x2B1B PUSH32 0x117062EF6DBDAF620C39FD9BB29C2171E1EC93F178DC56B69959B75F666408FA PUSH1 0x0 SHL PUSH2 0x2DBD JUMP JUMPDEST PUSH2 0x2B47 PUSH32 0x1460DEADAAA29254F08C399C6EAC0123B1F915E3622DD53640A08A7C9FCFB802 PUSH1 0x0 SHL PUSH2 0x2DBD JUMP JUMPDEST PUSH2 0x2B73 PUSH32 0x7DE6A78122C6579DA8DE5A50608B24FF2600CCC9EB0736F0EC0D66FF6FDFA4DA PUSH1 0x0 SHL PUSH2 0x2DBD JUMP JUMPDEST PUSH2 0x2B9F PUSH32 0xD6AC3D63C8DD93B46D07E2C8832A9EDEFDEFB40F1AD9FBDCDFB43EC75006EA68 PUSH1 0x0 SHL PUSH2 0x2DBD JUMP JUMPDEST PUSH1 0x1 ISZERO ISZERO PUSH1 0xB PUSH1 0x0 DUP4 PUSH20 0xFFFFFFFFFFFFFFFFFFFFFFFFFFFFFFFFFFFFFFFF AND PUSH20 0xFFFFFFFFFFFFFFFFFFFFFFFFFFFFFFFFFFFFFFFF AND DUP2 MSTORE PUSH1 0x20 ADD SWAP1 DUP2 MSTORE PUSH1 0x20 ADD PUSH1 0x0 KECCAK256 PUSH1 0x0 SWAP1 SLOAD SWAP1 PUSH2 0x100 EXP SWAP1 DIV PUSH1 0xFF AND ISZERO ISZERO EQ PUSH2 0x2C32 JUMPI PUSH1 0x40 MLOAD PUSH32 0x8C379A000000000000000000000000000000000000000000000000000000000 DUP2 MSTORE PUSH1 0x4 ADD PUSH2 0x2C29 SWAP1 PUSH2 0x47DE JUMP JUMPDEST PUSH1 0x40 MLOAD DUP1 SWAP2 SUB SWAP1 REVERT JUMPDEST PUSH2 0x2C5E PUSH32 0x332CD9EE8299B1338E37A59115697B21C6465137A328FB663FD35833237EC512 PUSH1 0x0 SHL PUSH2 0x2DBD JUMP JUMPDEST PUSH2 0x2C8A PUSH32 0xD9FAE4BF806FC1F49E40C5A106EC6B96EB7874D579976EEFA1F47F55E6DEFCA6 PUSH1 0x0 SHL PUSH2 0x2DBD JUMP JUMPDEST PUSH2 0x2CB6 PUSH32 0xFF92682983311243261B5BF03ED80A709E6EE4890EE79EED48D3797E5AAEA742 PUSH1 0x0 SHL PUSH2 0x2DBD JUMP JUMPDEST DUP1 PUSH20 0xFFFFFFFFFFFFFFFFFFFFFFFFFFFFFFFFFFFFFFFF AND PUSH2 0x8FC CALLVALUE SWAP1 DUP2 ISZERO MUL SWAP1 PUSH1 0x40 MLOAD PUSH1 0x0 PUSH1 0x40 MLOAD DUP1 DUP4 SUB DUP2 DUP6 DUP9 DUP9 CALL SWAP4 POP POP POP POP ISZERO DUP1 ISZERO PUSH2 0x2CFC JUMPI RETURNDATASIZE PUSH1 0x0 DUP1 RETURNDATACOPY RETURNDATASIZE PUSH1 0x0 REVERT JUMPDEST POP PUSH2 0x2D29 PUSH32 0x725C3B736548E2A70110790F6D814A53EE8F25DF695CF23BAAABFCC8048D6E9A PUSH1 0x0 SHL PUSH2 0x2DBD JUMP JUMPDEST PUSH2 0x2D55 PUSH32 0x6498AAC7B42A92D5C8750D6117D7F3FB3E5B6EDB14FA8FE428E79F4699C49DF9 PUSH1 0x0 SHL PUSH2 0x2DBD JUMP JUMPDEST CALLER PUSH20 0xFFFFFFFFFFFFFFFFFFFFFFFFFFFFFFFFFFFFFFFF AND DUP2 PUSH20 0xFFFFFFFFFFFFFFFFFFFFFFFFFFFFFFFFFFFFFFFF AND PUSH32 0x1D3FF44814877759FDCDEC2BACE42D6E7E7C1B84CA040BA5D3B4EF988FFD908E CALLVALUE PUSH1 0x40 MLOAD PUSH2 0x2DB2 SWAP2 SWAP1 PUSH2 0x48DE JUMP JUMPDEST PUSH1 0x40 MLOAD DUP1 SWAP2 SUB SWAP1 LOG3 POP JUMP JUMPDEST POP JUMP JUMPDEST PUSH2 0x2DEC PUSH32 0x1FAF3A122DEDA332494C96FBAA8218C943786F59870DA159160767CD70434780 PUSH1 0x0 SHL PUSH2 0x2DBD JUMP JUMPDEST PUSH2 0x2E18 PUSH32 0x317278A56A3A56AE5DC70544190BD3C696B7DCD86D480000BF32B0218D1DC72F PUSH1 0x0 SHL PUSH2 0x2DBD JUMP JUMPDEST PUSH2 0x2E44 PUSH32 0x8BC7777B85CC04497668E94B8A40A4002A0D7E12242DCB8A9C6268CB5B8DEA1E PUSH1 0x0 SHL PUSH2 0x2DBD JUMP JUMPDEST PUSH2 0x2E70 PUSH32 0x6335CE9312C8FB1CF8338CFD3BB812BFF768B88AF0EC9C5000B43E7C2B4C9E46 PUSH1 0x0 SHL PUSH2 0x2DBD JUMP JUMPDEST PUSH1 0x0 ISZERO ISZERO PUSH1 0x1 PUSH1 0x14 SWAP1 SLOAD SWAP1 PUSH2 0x100 EXP SWAP1 DIV PUSH1 0xFF AND ISZERO ISZERO EQ PUSH2 0x2EC6 JUMPI PUSH1 0x40 MLOAD PUSH32 0x8C379A000000000000000000000000000000000000000000000000000000000 DUP2 MSTORE PUSH1 0x4 ADD PUSH2 0x2EBD SWAP1 PUSH2 0x47FE JUMP JUMPDEST PUSH1 0x40 MLOAD DUP1 SWAP2 SUB SWAP1 REVERT JUMPDEST PUSH2 0x2EF2 PUSH32 0x4BA8BE74F8E0430F00257C5846BF9A550D34B0D4546F8661D31C21AB4F46A1C6 PUSH1 0x0 SHL PUSH2 0x2DBD JUMP JUMPDEST PUSH2 0x2F1E PUSH32 0x6F8317AE139FD16B67E3A32338DE2E8624183CC068B6E9164D16E7566BFCA8E5 PUSH1 0x0 SHL PUSH2 0x2DBD JUMP JUMPDEST PUSH2 0x2F4A PUSH32 0x941886752758B6C2ACE75E8F9F20DEB1AF008CF23AC8880D970D845B8E967405 PUSH1 0x0 SHL PUSH2 0x2DBD JUMP JUMPDEST PUSH1 0x1 DUP1 PUSH1 0x14 PUSH2 0x100 EXP DUP2 SLOAD DUP2 PUSH1 0xFF MUL NOT AND SWAP1 DUP4 ISZERO ISZERO MUL OR SWAP1 SSTORE POP PUSH2 0x2F90 PUSH32 0x37E24B96175E5F54031C6472BCB912EBA67B25D049642153D281D5C7AA6EA389 PUSH1 0x0 SHL PUSH2 0x2DBD JUMP JUMPDEST PUSH2 0x2FBC PUSH32 0xEFEBD9A9A01D9FFBD568141BC9D9D4EE12DEF08D09D06E158026A1E458C396DC PUSH1 0x0 SHL PUSH2 0x2DBD JUMP JUMPDEST CALLER PUSH1 0x1 PUSH1 0x0 PUSH2 0x100 EXP DUP2 SLOAD DUP2 PUSH20 0xFFFFFFFFFFFFFFFFFFFFFFFFFFFFFFFFFFFFFFFF MUL NOT AND SWAP1 DUP4 PUSH20 0xFFFFFFFFFFFFFFFFFFFFFFFFFFFFFFFFFFFFFFFF AND MUL OR SWAP1 SSTORE POP PUSH2 0x3029 PUSH32 0xC2F8884A9D4F2A0590EFF2D9E4B02BE39314B9279604DA0EF6DBE1A9F11458E1 PUSH1 0x0 SHL PUSH2 0x2DBD JUMP JUMPDEST PUSH2 0x3055 PUSH32 0xB298F10074F55BEA4CB07D2E6B3A4D36110B004017192B665C2B880F31603D65 PUSH1 0x0 SHL PUSH2 0x2DBD JUMP JUMPDEST CALLER PUSH1 0x2 PUSH1 0x0 PUSH2 0x100 EXP DUP2 SLOAD DUP2 PUSH20 0xFFFFFFFFFFFFFFFFFFFFFFFFFFFFFFFFFFFFFFFF MUL NOT AND SWAP1 DUP4 PUSH20 0xFFFFFFFFFFFFFFFFFFFFFFFFFFFFFFFFFFFFFFFF AND MUL OR SWAP1 SSTORE POP JUMP JUMPDEST PUSH1 0x2 PUSH1 0x0 SWAP1 SLOAD SWAP1 PUSH2 0x100 EXP SWAP1 DIV PUSH20 0xFFFFFFFFFFFFFFFFFFFFFFFFFFFFFFFFFFFFFFFF AND DUP2 JUMP JUMPDEST PUSH1 0xB PUSH1 0x20 MSTORE DUP1 PUSH1 0x0 MSTORE PUSH1 0x40 PUSH1 0x0 KECCAK256 PUSH1 0x0 SWAP2 POP SLOAD SWAP1 PUSH2 0x100 EXP SWAP1 DIV PUSH1 0xFF AND DUP2 JUMP JUMPDEST PUSH1 0xA SLOAD DUP2 JUMP JUMPDEST PUSH2 0x3110 PUSH32 0x2C10A8DA4DB64D01D99CC0CA66A76AF6FF531131E464501F5F1CBA76D298D0A0 PUSH1 0x0 SHL PUSH2 0x2DBD JUMP JUMPDEST PUSH2 0x313C PUSH32 0xD60A7A6BDB1F7D12D44BC675456A8E9DD823F3861AD8C2F0E1D9F8B1CCF02452 PUSH1 0x0 SHL PUSH2 0x2DBD JUMP JUMPDEST PUSH2 0x3168 PUSH32 0x58E66B7A34D68A2574970473DF79B759C7D2F5774141FBEF4EC204EFF229E4B1 PUSH1 0x0 SHL PUSH2 0x2DBD JUMP JUMPDEST PUSH2 0x3194 PUSH32 0xEE6BF20D2FE831473BCE6EB1D716E7A2B01B405FBD73F1AC5E166A15784C1667 PUSH1 0x0 SHL PUSH2 0x2DBD JUMP JUMPDEST PUSH1 0x0 ISZERO ISZERO PUSH1 0x2 PUSH1 0x14 SWAP1 SLOAD SWAP1 PUSH2 0x100 EXP SWAP1 DIV PUSH1 0xFF AND ISZERO ISZERO EQ PUSH2 0x31EA JUMPI PUSH1 0x40 MLOAD PUSH32 0x8C379A000000000000000000000000000000000000000000000000000000000 DUP2 MSTORE PUSH1 0x4 ADD PUSH2 0x31E1 SWAP1 PUSH2 0x487E JUMP JUMPDEST PUSH1 0x40 MLOAD DUP1 SWAP2 SUB SWAP1 REVERT JUMPDEST PUSH2 0x3216 PUSH32 0x44A9A81652F32A246CB1980C02A885E7B717554F4C4A0656E8BAF44398752C64 PUSH1 0x0 SHL PUSH2 0x2DBD JUMP JUMPDEST PUSH2 0x3242 PUSH32 0x482827EED35ACD26EBFF0C78A86E663AB3AB1159AB3D2054283930724723A090 PUSH1 0x0 SHL PUSH2 0x2DBD JUMP JUMPDEST PUSH2 0x326E PUSH32 0x35010D5A11340C8AA38CBB2BDA0B81D4504562F7261316DF6404DAF92FF3DE0C PUSH1 0x0 SHL PUSH2 0x2DBD JUMP JUMPDEST PUSH2 0x329A PUSH32 0xF92DF508B16961DB40FA38D9008727A83ECFA34D5F0EB4002C74B32CC5F9C4D9 PUSH1 0x0 SHL PUSH2 0x2DBD JUMP JUMPDEST PUSH2 0x32C6 PUSH32 0x9C0031C968A951F2F1B44CC354C1ADC0012D66AE9F628802ED6DD4F777716D81 PUSH1 0x0 SHL PUSH2 0x2DBD JUMP JUMPDEST PUSH1 0x0 ISZERO ISZERO PUSH1 0xB PUSH1 0x0 CALLER PUSH20 0xFFFFFFFFFFFFFFFFFFFFFFFFFFFFFFFFFFFFFFFF AND PUSH20 0xFFFFFFFFFFFFFFFFFFFFFFFFFFFFFFFFFFFFFFFF AND DUP2 MSTORE PUSH1 0x20 ADD SWAP1 DUP2 MSTORE PUSH1 0x20 ADD PUSH1 0x0 KECCAK256 PUSH1 0x0 SWAP1 SLOAD SWAP1 PUSH2 0x100 EXP SWAP1 DIV PUSH1 0xFF AND ISZERO ISZERO EQ ISZERO PUSH2 0x346D JUMPI PUSH2 0x334B PUSH32 0xF3AF68D72988D2634C52E1119F0F777CC5E9B3E161C03D949E6CE43A4819F249 PUSH1 0x0 SHL PUSH2 0x2DBD JUMP JUMPDEST PUSH2 0x3377 PUSH32 0x79483AA373FDDEB61BF3ED88CD07E6AFB3A11496EE1EC72208F3A5636C1637A8 PUSH1 0x0 SHL PUSH2 0x2DBD JUMP JUMPDEST PUSH2 0x33A3 PUSH32 0xF3F07AD673C228515AFA61D3FE3A2A0C5455657F7EACF4715729317755C991A PUSH1 0x0 SHL PUSH2 0x2DBD JUMP JUMPDEST PUSH1 0x1 PUSH1 0xB PUSH1 0x0 CALLER PUSH20 0xFFFFFFFFFFFFFFFFFFFFFFFFFFFFFFFFFFFFFFFF AND PUSH20 0xFFFFFFFFFFFFFFFFFFFFFFFFFFFFFFFFFFFFFFFF AND DUP2 MSTORE PUSH1 0x20 ADD SWAP1 DUP2 MSTORE PUSH1 0x20 ADD PUSH1 0x0 KECCAK256 PUSH1 0x0 PUSH2 0x100 EXP DUP2 SLOAD DUP2 PUSH1 0xFF MUL NOT AND SWAP1 DUP4 ISZERO ISZERO MUL OR SWAP1 SSTORE POP PUSH2 0x3427 PUSH32 0xB03F973DE0257537846855F0FDE881A067344258FCDC6D98FFC05E7D5B97F299 PUSH1 0x0 SHL PUSH2 0x2DBD JUMP JUMPDEST PUSH2 0x3453 PUSH32 0xCEDA98D3C715EBD634B21261585E952D9AC234BDDD2E5054FB2DBE895AF186F6 PUSH1 0x0 SHL PUSH2 0x2DBD JUMP JUMPDEST PUSH1 0x1 PUSH1 0xA SLOAD PUSH2 0x3462 SWAP2 SWAP1 PUSH2 0x4A0D JUMP JUMPDEST PUSH1 0xA DUP2 SWAP1 SSTORE POP PUSH2 0x349A JUMP JUMPDEST PUSH2 0x3499 PUSH32 0x550E4A70F803A1D82127ADC256D13B57A27FF8B5FDCF74EB0BF75491FDA78A9E PUSH1 0x0 SHL PUSH2 0x2DBD JUMP JUMPDEST JUMPDEST PUSH2 0x34C6 PUSH32 0x707297EFD293AE437C226E9E10A6CA218CE96ED63AE651EA923335B7FFF81FCC PUSH1 0x0 SHL PUSH2 0x2DBD JUMP JUMPDEST PUSH2 0x34F2 PUSH32 0xEEAABE8ABD0A9D7083C814BB25326DD07A38E5C31A315DB50F0102DCCFE47DE6 PUSH1 0x0 SHL PUSH2 0x2DBD JUMP JUMPDEST CALLER PUSH20 0xFFFFFFFFFFFFFFFFFFFFFFFFFFFFFFFFFFFFFFFF AND PUSH32 0x70EBB08109E8151DD49DEC1BA08CEC18082514F31659837D36C851B908860CE DUP3 TIMESTAMP PUSH1 0x40 MLOAD PUSH2 0x353A SWAP3 SWAP2 SWAP1 PUSH2 0x475E JUMP JUMPDEST PUSH1 0x40 MLOAD DUP1 SWAP2 SUB SWAP1 LOG2 POP JUMP JUMPDEST PUSH2 0x3571 PUSH32 0xC3DEA16921D8DE1933DDBC59DA271727B339B03347A084FFD069F0FF5D642E19 PUSH1 0x0 SHL PUSH2 0x2DBD JUMP JUMPDEST PUSH2 0x359D PUSH32 0xB7D9D56E52D903C8FD2FD77280F892AB8103A0B2205CB8110C60D3B2019F63F8 PUSH1 0x0 SHL PUSH2 0x2DBD JUMP JUMPDEST PUSH2 0x35C9 PUSH32 0xC86984B1B8E53E66211A0270B422598DE79395A2562FF38539B354C52FB6F04D PUSH1 0x0 SHL PUSH2 0x2DBD JUMP JUMPDEST PUSH2 0x35F5 PUSH32 0x6D4E710FB0C9A29521BF53FD3CEBE477C04DFA07DFF73D9508A0FA56AA1926CB PUSH1 0x0 SHL PUSH2 0x2DBD JUMP JUMPDEST PUSH1 0x1 PUSH1 0x0 SWAP1 SLOAD SWAP1 PUSH2 0x100 EXP SWAP1 DIV PUSH20 0xFFFFFFFFFFFFFFFFFFFFFFFFFFFFFFFFFFFFFFFF AND PUSH20 0xFFFFFFFFFFFFFFFFFFFFFFFFFFFFFFFFFFFFFFFF AND CALLER PUSH20 0xFFFFFFFFFFFFFFFFFFFFFFFFFFFFFFFFFFFFFFFF AND EQ PUSH2 0x3685 JUMPI PUSH1 0x40 MLOAD PUSH32 0x8C379A000000000000000000000000000000000000000000000000000000000 DUP2 MSTORE PUSH1 0x4 ADD PUSH2 0x367C SWAP1 PUSH2 0x48BE JUMP JUMPDEST PUSH1 0x40 MLOAD DUP1 SWAP2 SUB SWAP1 REVERT JUMPDEST PUSH2 0x36B1 PUSH32 0x31B985BE2FBDFCB0A735912088758A5BFCDE7204DF761DF6613283C9BCB92A1E PUSH1 0x0 SHL PUSH2 0x2DBD JUMP JUMPDEST PUSH2 0x36DD PUSH32 0x7BE5C16D25C389DAC3243D1D694854DC5C150FF361EA2C5EF79971F492406E0C PUSH1 0x0 SHL PUSH2 0x2DBD JUMP JUMPDEST PUSH2 0x3709 PUSH32 0x170125157263EB0F540FFB8F373261CFF912C45D3A05F39CB75931E22550863E PUSH1 0x0 SHL PUSH2 0x2DBD JUMP JUMPDEST PUSH1 0x2 PUSH1 0x14 SWAP1 SLOAD SWAP1 PUSH2 0x100 EXP SWAP1 DIV PUSH1 0xFF AND ISZERO PUSH1 0x2 PUSH1 0x14 PUSH2 0x100 EXP DUP2 SLOAD DUP2 PUSH1 0xFF MUL NOT AND SWAP1 DUP4 ISZERO ISZERO MUL OR SWAP1 SSTORE POP JUMP JUMPDEST PUSH1 0x7 PUSH1 0x20 MSTORE DUP1 PUSH1 0x0 MSTORE PUSH1 0x40 PUSH1 0x0 KECCAK256 PUSH1 0x0 SWAP2 POP SWAP1 POP SLOAD DUP2 JUMP JUMPDEST PUSH1 0xC SLOAD DUP2 JUMP JUMPDEST PUSH1 0x8 PUSH1 0x20 MSTORE DUP2 PUSH1 0x0 MSTORE PUSH1 0x40 PUSH1 0x0 KECCAK256 PUSH1 0x20 MSTORE DUP1 PUSH1 0x0 MSTORE PUSH1 0x40 PUSH1 0x0 KECCAK256 PUSH1 0x0 SWAP2 POP SWAP2 POP SWAP1 SLOAD SWAP1 PUSH2 0x100 EXP SWAP1 DIV PUSH1 0xFF AND DUP2 JUMP JUMPDEST PUSH1 0xE SLOAD DUP2 JUMP JUMPDEST PUSH2 0x37B4 PUSH32 0xD4A18637697BE3CE4338046E764B6750BFD19CF0B811F8E444DC3A42782F4E1B PUSH1 0x0 SHL PUSH2 0x2DBD JUMP JUMPDEST PUSH2 0x37E0 PUSH32 0x5E617F52463ED621FC57ABB3F1FF180D806DC4B0C6DA050099E4F8C4A21BD8FB PUSH1 0x0 SHL PUSH2 0x2DBD JUMP JUMPDEST PUSH2 0x380C PUSH32 0x3E0410C0BCC06BEF14E12C51FA22A274FE7A1071C1A565F3BB2AC03FA6B41676 PUSH1 0x0 SHL PUSH2 0x2DBD JUMP JUMPDEST PUSH2 0x3838 PUSH32 0x993DC4A644B45624AE6EA23F9FCC77334CC6FED6A5B54ADF5581DE50F42A3659 PUSH1 0x0 SHL PUSH2 0x2DBD JUMP JUMPDEST PUSH1 0x1 PUSH1 0x0 SWAP1 SLOAD SWAP1 PUSH2 0x100 EXP SWAP1 DIV PUSH20 0xFFFFFFFFFFFFFFFFFFFFFFFFFFFFFFFFFFFFFFFF AND PUSH20 0xFFFFFFFFFFFFFFFFFFFFFFFFFFFFFFFFFFFFFFFF AND CALLER PUSH20 0xFFFFFFFFFFFFFFFFFFFFFFFFFFFFFFFFFFFFFFFF AND EQ PUSH2 0x38C8 JUMPI PUSH1 0x40 MLOAD PUSH32 0x8C379A000000000000000000000000000000000000000000000000000000000 DUP2 MSTORE PUSH1 0x4 ADD PUSH2 0x38BF SWAP1 PUSH2 0x48BE JUMP JUMPDEST PUSH1 0x40 MLOAD DUP1 SWAP2 SUB SWAP1 REVERT JUMPDEST PUSH2 0x38F4 PUSH32 0xCB204C982169B7CD6CDC757116027E65053DEDB6F409E700FC101761554E4F1F PUSH1 0x0 SHL PUSH2 0x2DBD JUMP JUMPDEST PUSH2 0x3920 PUSH32 0x1AA5EFCAA3A7CC95B81E3D00C17582DC5AB3AC5145AABBE1D755066E98BE1DAA PUSH1 0x0 SHL PUSH2 0x2DBD JUMP JUMPDEST PUSH2 0x394C PUSH32 0xF3B8C5E0FCC201DFD2A339B0591BCFC2A8D0EFB3D1C9FE5DAE566DD6E5AB73CF PUSH1 0x0 SHL PUSH2 0x2DBD JUMP JUMPDEST DUP1 PUSH1 0x1 PUSH1 0x0 PUSH2 0x100 EXP DUP2 SLOAD DUP2 PUSH20 0xFFFFFFFFFFFFFFFFFFFFFFFFFFFFFFFFFFFFFFFF MUL NOT AND SWAP1 DUP4 PUSH20 0xFFFFFFFFFFFFFFFFFFFFFFFFFFFFFFFFFFFFFFFF AND MUL OR SWAP1 SSTORE POP POP JUMP JUMPDEST PUSH1 0x10 SLOAD DUP2 JUMP JUMPDEST PUSH2 0x39C2 PUSH32 0x2C10A8DA4DB64D01D99CC0CA66A76AF6FF531131E464501F5F1CBA76D298D0A0 PUSH1 0x0 SHL PUSH2 0x2DBD JUMP JUMPDEST PUSH2 0x39EE PUSH32 0xD60A7A6BDB1F7D12D44BC675456A8E9DD823F3861AD8C2F0E1D9F8B1CCF02452 PUSH1 0x0 SHL PUSH2 0x2DBD JUMP JUMPDEST PUSH2 0x3A1A PUSH32 0x58E66B7A34D68A2574970473DF79B759C7D2F5774141FBEF4EC204EFF229E4B1 PUSH1 0x0 SHL PUSH2 0x2DBD JUMP JUMPDEST PUSH2 0x3A46 PUSH32 0xEE6BF20D2FE831473BCE6EB1D716E7A2B01B405FBD73F1AC5E166A15784C1667 PUSH1 0x0 SHL PUSH2 0x2DBD JUMP JUMPDEST PUSH1 0x0 ISZERO ISZERO PUSH1 0x2 PUSH1 0x14 SWAP1 SLOAD SWAP1 PUSH2 0x100 EXP SWAP1 DIV PUSH1 0xFF AND ISZERO ISZERO EQ PUSH2 0x3A9C JUMPI PUSH1 0x40 MLOAD PUSH32 0x8C379A000000000000000000000000000000000000000000000000000000000 DUP2 MSTORE PUSH1 0x4 ADD PUSH2 0x3A93 SWAP1 PUSH2 0x487E JUMP JUMPDEST PUSH1 0x40 MLOAD DUP1 SWAP2 SUB SWAP1 REVERT JUMPDEST PUSH2 0x3AC8 PUSH32 0x44A9A81652F32A246CB1980C02A885E7B717554F4C4A0656E8BAF44398752C64 PUSH1 0x0 SHL PUSH2 0x2DBD JUMP JUMPDEST PUSH2 0x3AF4 PUSH32 0x482827EED35ACD26EBFF0C78A86E663AB3AB1159AB3D2054283930724723A090 PUSH1 0x0 SHL PUSH2 0x2DBD JUMP JUMPDEST PUSH2 0x3B20 PUSH32 0xA7DF47B36306BDB1933BC49155E594EF8E2B9FE2CD231284E081A65A652214B1 PUSH1 0x0 SHL PUSH2 0x2DBD JUMP JUMPDEST PUSH2 0x3B4C PUSH32 0x744A403C168D930E154F812D77DCAC46FE0A5B2DA4D12F3D6727267198B4CC27 PUSH1 0x0 SHL PUSH2 0x2DBD JUMP JUMPDEST PUSH2 0x3B78 PUSH32 0xDF78C09317C6A8950463A736CC0B2FBCBF18EE4A6B501118D0C835B0128982B8 PUSH1 0x0 SHL PUSH2 0x2DBD JUMP JUMPDEST PUSH2 0x3BA4 PUSH32 0xC7929B6F44E2616A64D474A0F8FDD4DE91866993A2586973DCFE64E9B785B758 PUSH1 0x0 SHL PUSH2 0x2DBD JUMP JUMPDEST PUSH1 0x1 PUSH1 0x0 SWAP1 SLOAD SWAP1 PUSH2 0x100 EXP SWAP1 DIV PUSH20 0xFFFFFFFFFFFFFFFFFFFFFFFFFFFFFFFFFFFFFFFF AND PUSH20 0xFFFFFFFFFFFFFFFFFFFFFFFFFFFFFFFFFFFFFFFF AND CALLER PUSH20 0xFFFFFFFFFFFFFFFFFFFFFFFFFFFFFFFFFFFFFFFF AND EQ PUSH2 0x3C34 JUMPI PUSH1 0x40 MLOAD PUSH32 0x8C379A000000000000000000000000000000000000000000000000000000000 DUP2 MSTORE PUSH1 0x4 ADD PUSH2 0x3C2B SWAP1 PUSH2 0x48BE JUMP JUMPDEST PUSH1 0x40 MLOAD DUP1 SWAP2 SUB SWAP1 REVERT JUMPDEST PUSH2 0x3C60 PUSH32 0x6261AB6D2B7232632336A49255556EA152BE0C6426C0D5428C4D13DD520BA0A8 PUSH1 0x0 SHL PUSH2 0x2DBD JUMP JUMPDEST PUSH2 0x3C8C PUSH32 0x38FA1FE3C37DE019BD266468E53A6C1C5558142D586E8775210FFAE4F3DACB84 PUSH1 0x0 SHL PUSH2 0x2DBD JUMP JUMPDEST PUSH2 0x3CB8 PUSH32 0x513DD71D25EE3B37DF954FD585B36E4D6B4C4BC870C1E37BC91E7E7E5A3F4FFB PUSH1 0x0 SHL PUSH2 0x2DBD JUMP JUMPDEST PUSH1 0x6 PUSH1 0x0 DUP3 PUSH20 0xFFFFFFFFFFFFFFFFFFFFFFFFFFFFFFFFFFFFFFFF AND PUSH20 0xFFFFFFFFFFFFFFFFFFFFFFFFFFFFFFFFFFFFFFFF AND DUP2 MSTORE PUSH1 0x20 ADD SWAP1 DUP2 MSTORE PUSH1 0x20 ADD PUSH1 0x0 KECCAK256 PUSH1 0x0 SWAP1 SLOAD SWAP1 PUSH2 0x100 EXP SWAP1 DIV PUSH1 0xFF AND ISZERO PUSH1 0x6 PUSH1 0x0 DUP4 PUSH20 0xFFFFFFFFFFFFFFFFFFFFFFFFFFFFFFFFFFFFFFFF AND PUSH20 0xFFFFFFFFFFFFFFFFFFFFFFFFFFFFFFFFFFFFFFFF AND DUP2 MSTORE PUSH1 0x20 ADD SWAP1 DUP2 MSTORE PUSH1 0x20 ADD PUSH1 0x0 KECCAK256 PUSH1 0x0 PUSH2 0x100 EXP DUP2 SLOAD DUP2 PUSH1 0xFF MUL NOT AND SWAP1 DUP4 ISZERO ISZERO MUL OR SWAP1 SSTORE POP POP JUMP JUMPDEST PUSH1 0xF PUSH1 0x20 MSTORE DUP1 PUSH1 0x0 MSTORE PUSH1 0x40 PUSH1 0x0 KECCAK256 PUSH1 0x0 SWAP2 POP SLOAD SWAP1 PUSH2 0x100 EXP SWAP1 DIV PUSH20 0xFFFFFFFFFFFFFFFFFFFFFFFFFFFFFFFFFFFFFFFF AND DUP2 JUMP JUMPDEST PUSH1 0x6 PUSH1 0x20 MSTORE DUP1 PUSH1 0x0 MSTORE PUSH1 0x40 PUSH1 0x0 KECCAK256 PUSH1 0x0 SWAP2 POP SLOAD SWAP1 PUSH2 0x100 EXP SWAP1 DIV PUSH1 0xFF AND DUP2 JUMP JUMPDEST PUSH2 0x3DDE PUSH32 0x2C10A8DA4DB64D01D99CC0CA66A76AF6FF531131E464501F5F1CBA76D298D0A0 PUSH1 0x0 SHL PUSH2 0x2DBD JUMP JUMPDEST PUSH2 0x3E0A PUSH32 0xD60A7A6BDB1F7D12D44BC675456A8E9DD823F3861AD8C2F0E1D9F8B1CCF02452 PUSH1 0x0 SHL PUSH2 0x2DBD JUMP JUMPDEST PUSH2 0x3E36 PUSH32 0x58E66B7A34D68A2574970473DF79B759C7D2F5774141FBEF4EC204EFF229E4B1 PUSH1 0x0 SHL PUSH2 0x2DBD JUMP JUMPDEST PUSH2 0x3E62 PUSH32 0xEE6BF20D2FE831473BCE6EB1D716E7A2B01B405FBD73F1AC5E166A15784C1667 PUSH1 0x0 SHL PUSH2 0x2DBD JUMP JUMPDEST PUSH1 0x0 ISZERO ISZERO PUSH1 0x2 PUSH1 0x14 SWAP1 SLOAD SWAP1 PUSH2 0x100 EXP SWAP1 DIV PUSH1 0xFF AND ISZERO ISZERO EQ PUSH2 0x3EB8 JUMPI PUSH1 0x40 MLOAD PUSH32 0x8C379A000000000000000000000000000000000000000000000000000000000 DUP2 MSTORE PUSH1 0x4 ADD PUSH2 0x3EAF SWAP1 PUSH2 0x487E JUMP JUMPDEST PUSH1 0x40 MLOAD DUP1 SWAP2 SUB SWAP1 REVERT JUMPDEST PUSH2 0x3EE4 PUSH32 0x44A9A81652F32A246CB1980C02A885E7B717554F4C4A0656E8BAF44398752C64 PUSH1 0x0 SHL PUSH2 0x2DBD JUMP JUMPDEST PUSH2 0x3F10 PUSH32 0x482827EED35ACD26EBFF0C78A86E663AB3AB1159AB3D2054283930724723A090 PUSH1 0x0 SHL PUSH2 0x2DBD JUMP JUMPDEST PUSH2 0x3F3C PUSH32 0x7114D800AE2DC009140607FA28D8C9611C15E102535CA990B4D95D1DEC2A1617 PUSH1 0x0 SHL PUSH2 0x2DBD JUMP JUMPDEST PUSH2 0x3F68 PUSH32 0x44EFF928658353C04535945D7E88B78C31CF2A4EB3FB7595FE1E884BCBBFCF40 PUSH1 0x0 SHL PUSH2 0x2DBD JUMP JUMPDEST PUSH2 0x3F94 PUSH32 0xBA367887562DE99F6481541C728423701537F776EC8752D02429C9C81AE59408 PUSH1 0x0 SHL PUSH2 0x2DBD JUMP JUMPDEST DUP3 CALLER PUSH20 0xFFFFFFFFFFFFFFFFFFFFFFFFFFFFFFFFFFFFFFFF AND PUSH1 0x10 SLOAD PUSH32 0x3E1ACFD5F2181DE07799D35BE451DBDDFD093425B11BAA4B85098D8F871E90A1 DUP6 DUP6 TIMESTAMP PUSH1 0x40 MLOAD PUSH2 0x3FE2 SWAP4 SWAP3 SWAP2 SWAP1 PUSH2 0x4720 JUMP JUMPDEST PUSH1 0x40 MLOAD DUP1 SWAP2 SUB SWAP1 LOG4 PUSH2 0x4016 PUSH32 0xDA2F444D9D518EC474F2949AD203F26B4AB702A489683150973F66BB8A68577F PUSH1 0x0 SHL PUSH2 0x2DBD JUMP JUMPDEST PUSH2 0x4042 PUSH32 0x330919EFA870947E76CC1296112ABB295FA7F27B4888A771FCC15097DD350086 PUSH1 0x0 SHL PUSH2 0x2DBD JUMP JUMPDEST PUSH1 0x1 PUSH1 0x10 SLOAD PUSH2 0x4051 SWAP2 SWAP1 PUSH2 0x4A0D JUMP JUMPDEST PUSH1 0x10 DUP2 SWAP1 SSTORE POP POP POP POP JUMP JUMPDEST PUSH1 0x1 PUSH1 0x0 SWAP1 SLOAD SWAP1 PUSH2 0x100 EXP SWAP1 DIV PUSH20 0xFFFFFFFFFFFFFFFFFFFFFFFFFFFFFFFFFFFFFFFF AND DUP2 JUMP JUMPDEST PUSH1 0x40 MLOAD DUP1 PUSH1 0xA0 ADD PUSH1 0x40 MSTORE DUP1 PUSH1 0x0 DUP2 MSTORE PUSH1 0x20 ADD PUSH1 0x0 DUP2 MSTORE PUSH1 0x20 ADD PUSH1 0x0 DUP2 MSTORE PUSH1 0x20 ADD PUSH1 0x0 DUP2 MSTORE PUSH1 0x20 ADD PUSH1 0x60 DUP2 MSTORE POP SWAP1 JUMP JUMPDEST DUP3 DUP1 SLOAD DUP3 DUP3 SSTORE SWAP1 PUSH1 0x0 MSTORE PUSH1 0x20 PUSH1 0x0 KECCAK256 SWAP1 DUP2 ADD SWAP3 DUP3 ISZERO PUSH2 0x40ED JUMPI SWAP2 PUSH1 0x20 MUL DUP3 ADD JUMPDEST DUP3 DUP2 GT ISZERO PUSH2 0x40EC JUMPI DUP3 MLOAD DUP3 SSTORE SWAP2 PUSH1 0x20 ADD SWAP2 SWAP1 PUSH1 0x1 ADD SWAP1 PUSH2 0x40D1 JUMP JUMPDEST JUMPDEST POP SWAP1 POP PUSH2 0x40FA SWAP2 SWAP1 PUSH2 0x40FE JUMP JUMPDEST POP SWAP1 JUMP JUMPDEST JUMPDEST DUP1 DUP3 GT ISZERO PUSH2 0x4117 JUMPI PUSH1 0x0 DUP2 PUSH1 0x0 SWAP1 SSTORE POP PUSH1 0x1 ADD PUSH2 0x40FF JUMP JUMPDEST POP SWAP1 JUMP JUMPDEST PUSH1 0x0 PUSH2 0x412E PUSH2 0x4129 DUP5 PUSH2 0x49C1 JUMP JUMPDEST PUSH2 0x4990 JUMP JUMPDEST SWAP1 POP DUP3 DUP2 MSTORE PUSH1 0x20 DUP2 ADD DUP5 DUP5 DUP5 ADD GT ISZERO PUSH2 0x4146 JUMPI PUSH1 0x0 DUP1 REVERT JUMPDEST PUSH2 0x4151 DUP5 DUP3 DUP6 PUSH2 0x4B2C JUMP JUMPDEST POP SWAP4 SWAP3 POP POP POP JUMP JUMPDEST PUSH1 0x0 DUP2 CALLDATALOAD SWAP1 POP PUSH2 0x4168 DUP2 PUSH2 0x4C0C JUMP JUMPDEST SWAP3 SWAP2 POP POP JUMP JUMPDEST PUSH1 0x0 DUP2 CALLDATALOAD SWAP1 POP PUSH2 0x417D DUP2 PUSH2 0x4C23 JUMP JUMPDEST SWAP3 SWAP2 POP POP JUMP JUMPDEST PUSH1 0x0 DUP2 CALLDATALOAD SWAP1 POP PUSH2 0x4192 DUP2 PUSH2 0x4C3A JUMP JUMPDEST SWAP3 SWAP2 POP POP JUMP JUMPDEST PUSH1 0x0 DUP3 PUSH1 0x1F DUP4 ADD SLT PUSH2 0x41A9 JUMPI PUSH1 0x0 DUP1 REVERT JUMPDEST DUP2 CALLDATALOAD PUSH2 0x41B9 DUP5 DUP3 PUSH1 0x20 DUP7 ADD PUSH2 0x411B JUMP JUMPDEST SWAP2 POP POP SWAP3 SWAP2 POP POP JUMP JUMPDEST PUSH1 0x0 DUP2 CALLDATALOAD SWAP1 POP PUSH2 0x41D1 DUP2 PUSH2 0x4C51 JUMP JUMPDEST SWAP3 SWAP2 POP POP JUMP JUMPDEST PUSH1 0x0 PUSH1 0x20 DUP3 DUP5 SUB SLT ISZERO PUSH2 0x41E9 JUMPI PUSH1 0x0 DUP1 REVERT JUMPDEST PUSH1 0x0 PUSH2 0x41F7 DUP5 DUP3 DUP6 ADD PUSH2 0x4159 JUMP JUMPDEST SWAP2 POP POP SWAP3 SWAP2 POP POP JUMP JUMPDEST PUSH1 0x0 DUP1 PUSH1 0x40 DUP4 DUP6 SUB SLT ISZERO PUSH2 0x4213 JUMPI PUSH1 0x0 DUP1 REVERT JUMPDEST PUSH1 0x0 PUSH2 0x4221 DUP6 DUP3 DUP7 ADD PUSH2 0x4159 JUMP JUMPDEST SWAP3 POP POP PUSH1 0x20 PUSH2 0x4232 DUP6 DUP3 DUP7 ADD PUSH2 0x4159 JUMP JUMPDEST SWAP2 POP POP SWAP3 POP SWAP3 SWAP1 POP JUMP JUMPDEST PUSH1 0x0 DUP1 PUSH1 0x40 DUP4 DUP6 SUB SLT ISZERO PUSH2 0x424F JUMPI PUSH1 0x0 DUP1 REVERT JUMPDEST PUSH1 0x0 PUSH2 0x425D DUP6 DUP3 DUP7 ADD PUSH2 0x4159 JUMP JUMPDEST SWAP3 POP POP PUSH1 0x20 PUSH2 0x426E DUP6 DUP3 DUP7 ADD PUSH2 0x41C2 JUMP JUMPDEST SWAP2 POP POP SWAP3 POP SWAP3 SWAP1 POP JUMP JUMPDEST PUSH1 0x0 PUSH1 0x20 DUP3 DUP5 SUB SLT ISZERO PUSH2 0x428A JUMPI PUSH1 0x0 DUP1 REVERT JUMPDEST PUSH1 0x0 PUSH2 0x4298 DUP5 DUP3 DUP6 ADD PUSH2 0x4183 JUMP JUMPDEST SWAP2 POP POP SWAP3 SWAP2 POP POP JUMP JUMPDEST PUSH1 0x0 DUP1 PUSH1 0x0 PUSH1 0x60 DUP5 DUP7 SUB SLT ISZERO PUSH2 0x42B6 JUMPI PUSH1 0x0 DUP1 REVERT JUMPDEST PUSH1 0x0 PUSH2 0x42C4 DUP7 DUP3 DUP8 ADD PUSH2 0x4183 JUMP JUMPDEST SWAP4 POP POP PUSH1 0x20 PUSH2 0x42D5 DUP7 DUP3 DUP8 ADD PUSH2 0x4183 JUMP JUMPDEST SWAP3 POP POP PUSH1 0x40 PUSH2 0x42E6 DUP7 DUP3 DUP8 ADD PUSH2 0x416E JUMP JUMPDEST SWAP2 POP POP SWAP3 POP SWAP3 POP SWAP3 JUMP JUMPDEST PUSH1 0x0 DUP1 PUSH1 0x0 PUSH1 0x60 DUP5 DUP7 SUB SLT ISZERO PUSH2 0x4305 JUMPI PUSH1 0x0 DUP1 REVERT JUMPDEST PUSH1 0x0 PUSH2 0x4313 DUP7 DUP3 DUP8 ADD PUSH2 0x4183 JUMP JUMPDEST SWAP4 POP POP PUSH1 0x20 PUSH2 0x4324 DUP7 DUP3 DUP8 ADD PUSH2 0x4183 JUMP JUMPDEST SWAP3 POP POP PUSH1 0x40 DUP5 ADD CALLDATALOAD PUSH8 0xFFFFFFFFFFFFFFFF DUP2 GT ISZERO PUSH2 0x4341 JUMPI PUSH1 0x0 DUP1 REVERT JUMPDEST PUSH2 0x434D DUP7 DUP3 DUP8 ADD PUSH2 0x4198 JUMP JUMPDEST SWAP2 POP POP SWAP3 POP SWAP3 POP SWAP3 JUMP JUMPDEST PUSH1 0x0 DUP1 PUSH1 0x40 DUP4 DUP6 SUB SLT ISZERO PUSH2 0x436A JUMPI PUSH1 0x0 DUP1 REVERT JUMPDEST PUSH1 0x0 PUSH2 0x4378 DUP6 DUP3 DUP7 ADD PUSH2 0x4183 JUMP JUMPDEST SWAP3 POP POP PUSH1 0x20 PUSH2 0x4389 DUP6 DUP3 DUP7 ADD PUSH2 0x41C2 JUMP JUMPDEST SWAP2 POP POP SWAP3 POP SWAP3 SWAP1 POP JUMP JUMPDEST PUSH1 0x0 PUSH1 0x20 DUP3 DUP5 SUB SLT ISZERO PUSH2 0x43A5 JUMPI PUSH1 0x0 DUP1 REVERT JUMPDEST PUSH1 0x0 PUSH2 0x43B3 DUP5 DUP3 DUP6 ADD PUSH2 0x41C2 JUMP JUMPDEST SWAP2 POP POP SWAP3 SWAP2 POP POP JUMP JUMPDEST PUSH1 0x0 DUP1 PUSH1 0x0 PUSH1 0x60 DUP5 DUP7 SUB SLT ISZERO PUSH2 0x43D1 JUMPI PUSH1 0x0 DUP1 REVERT JUMPDEST PUSH1 0x0 PUSH2 0x43DF DUP7 DUP3 DUP8 ADD PUSH2 0x41C2 JUMP JUMPDEST SWAP4 POP POP PUSH1 0x20 PUSH2 0x43F0 DUP7 DUP3 DUP8 ADD PUSH2 0x4183 JUMP JUMPDEST SWAP3 POP POP PUSH1 0x40 PUSH2 0x4401 DUP7 DUP3 DUP8 ADD PUSH2 0x416E JUMP JUMPDEST SWAP2 POP POP SWAP3 POP SWAP3 POP SWAP3 JUMP JUMPDEST PUSH2 0x4414 DUP2 PUSH2 0x4ADA JUMP JUMPDEST DUP3 MSTORE POP POP JUMP JUMPDEST PUSH2 0x4423 DUP2 PUSH2 0x4AC8 JUMP JUMPDEST DUP3 MSTORE POP POP JUMP JUMPDEST PUSH2 0x4432 DUP2 PUSH2 0x4AEC JUMP JUMPDEST DUP3 MSTORE POP POP JUMP JUMPDEST PUSH2 0x4441 DUP2 PUSH2 0x4AF8 JUMP JUMPDEST DUP3 MSTORE POP POP JUMP JUMPDEST PUSH1 0x0 PUSH2 0x4452 DUP3 PUSH2 0x49F1 JUMP JUMPDEST PUSH2 0x445C DUP2 DUP6 PUSH2 0x49FC JUMP JUMPDEST SWAP4 POP PUSH2 0x446C DUP2 DUP6 PUSH1 0x20 DUP7 ADD PUSH2 0x4B3B JUMP JUMPDEST PUSH2 0x4475 DUP2 PUSH2 0x4BFB JUMP JUMPDEST DUP5 ADD SWAP2 POP POP SWAP3 SWAP2 POP POP JUMP JUMPDEST PUSH1 0x0 PUSH2 0x448D PUSH1 0x14 DUP4 PUSH2 0x49FC JUMP JUMPDEST SWAP2 POP PUSH32 0x416C6C20526F756E647320436F6D706C65746564000000000000000000000000 PUSH1 0x0 DUP4 ADD MSTORE PUSH1 0x20 DUP3 ADD SWAP1 POP SWAP2 SWAP1 POP JUMP JUMPDEST PUSH1 0x0 PUSH2 0x44CD PUSH1 0x17 DUP4 PUSH2 0x49FC JUMP JUMPDEST SWAP2 POP PUSH32 0x55736572206973206E6F742043616D706169676E696E67000000000000000000 PUSH1 0x0 DUP4 ADD MSTORE PUSH1 0x20 DUP3 ADD SWAP1 POP SWAP2 SWAP1 POP JUMP JUMPDEST PUSH1 0x0 PUSH2 0x450D PUSH1 0x13 DUP4 PUSH2 0x49FC JUMP JUMPDEST SWAP2 POP PUSH32 0x416C726561647920496E697469616C697A656400000000000000000000000000 PUSH1 0x0 DUP4 ADD MSTORE PUSH1 0x20 DUP3 ADD SWAP1 POP SWAP2 SWAP1 POP JUMP JUMPDEST PUSH1 0x0 PUSH2 0x454D PUSH1 0x16 DUP4 PUSH2 0x49FC JUMP JUMPDEST SWAP2 POP PUSH32 0x556E617574686F72697A656420486F7374706974616C00000000000000000000 PUSH1 0x0 DUP4 ADD MSTORE PUSH1 0x20 DUP3 ADD SWAP1 POP SWAP2 SWAP1 POP JUMP JUMPDEST PUSH1 0x0 PUSH2 0x458D PUSH1 0xF DUP4 PUSH2 0x49FC JUMP JUMPDEST SWAP2 POP PUSH32 0x496E76616C69642046756E642049440000000000000000000000000000000000 PUSH1 0x0 DUP4 ADD MSTORE PUSH1 0x20 DUP3 ADD SWAP1 POP SWAP2 SWAP1 POP JUMP JUMPDEST PUSH1 0x0 PUSH2 0x45CD PUSH1 0xF DUP4 PUSH2 0x49FC JUMP JUMPDEST SWAP2 POP PUSH32 0x496E76616C6964205461736B2049440000000000000000000000000000000000 PUSH1 0x0 DUP4 ADD MSTORE PUSH1 0x20 DUP3 ADD SWAP1 POP SWAP2 SWAP1 POP JUMP JUMPDEST PUSH1 0x0 PUSH2 0x460D PUSH1 0x12 DUP4 PUSH2 0x49FC JUMP JUMPDEST SWAP2 POP PUSH32 0x436F6E7472616374206973205061757365640000000000000000000000000000 PUSH1 0x0 DUP4 ADD MSTORE PUSH1 0x20 DUP3 ADD SWAP1 POP SWAP2 SWAP1 POP JUMP JUMPDEST PUSH1 0x0 PUSH2 0x464D PUSH1 0x1D DUP4 PUSH2 0x49FC JUMP JUMPDEST SWAP2 POP PUSH32 0x596F7520617265206E6F742074686520636F6F7264696E61746F722021000000 PUSH1 0x0 DUP4 ADD MSTORE PUSH1 0x20 DUP3 ADD SWAP1 POP SWAP2 SWAP1 POP JUMP JUMPDEST PUSH1 0x0 PUSH2 0x468D PUSH1 0xA DUP4 PUSH2 0x49FC JUMP JUMPDEST SWAP2 POP PUSH32 0x4F6E6C792041646D696E00000000000000000000000000000000000000000000 PUSH1 0x0 DUP4 ADD MSTORE PUSH1 0x20 DUP3 ADD SWAP1 POP SWAP2 SWAP1 POP JUMP JUMPDEST PUSH2 0x46C9 DUP2 PUSH2 0x4B22 JUMP JUMPDEST DUP3 MSTORE POP POP JUMP JUMPDEST PUSH1 0x0 PUSH1 0x20 DUP3 ADD SWAP1 POP PUSH2 0x46E4 PUSH1 0x0 DUP4 ADD DUP5 PUSH2 0x441A JUMP JUMPDEST SWAP3 SWAP2 POP POP JUMP JUMPDEST PUSH1 0x0 PUSH1 0x20 DUP3 ADD SWAP1 POP PUSH2 0x46FF PUSH1 0x0 DUP4 ADD DUP5 PUSH2 0x440B JUMP JUMPDEST SWAP3 SWAP2 POP POP JUMP JUMPDEST PUSH1 0x0 PUSH1 0x20 DUP3 ADD SWAP1 POP PUSH2 0x471A PUSH1 0x0 DUP4 ADD DUP5 PUSH2 0x4429 JUMP JUMPDEST SWAP3 SWAP2 POP POP JUMP JUMPDEST PUSH1 0x0 PUSH1 0x60 DUP3 ADD SWAP1 POP PUSH2 0x4735 PUSH1 0x0 DUP4 ADD DUP7 PUSH2 0x4438 JUMP JUMPDEST DUP2 DUP2 SUB PUSH1 0x20 DUP4 ADD MSTORE PUSH2 0x4747 DUP2 DUP6 PUSH2 0x4447 JUMP JUMPDEST SWAP1 POP PUSH2 0x4756 PUSH1 0x40 DUP4 ADD DUP5 PUSH2 0x46C0 JUMP JUMPDEST SWAP5 SWAP4 POP POP POP POP JUMP JUMPDEST PUSH1 0x0 PUSH1 0x40 DUP3 ADD SWAP1 POP PUSH2 0x4773 PUSH1 0x0 DUP4 ADD DUP6 PUSH2 0x4438 JUMP JUMPDEST PUSH2 0x4780 PUSH1 0x20 DUP4 ADD DUP5 PUSH2 0x46C0 JUMP JUMPDEST SWAP4 SWAP3 POP POP POP JUMP JUMPDEST PUSH1 0x0 PUSH1 0x60 DUP3 ADD SWAP1 POP PUSH2 0x479C PUSH1 0x0 DUP4 ADD DUP7 PUSH2 0x4438 JUMP JUMPDEST PUSH2 0x47A9 PUSH1 0x20 DUP4 ADD DUP6 PUSH2 0x46C0 JUMP JUMPDEST PUSH2 0x47B6 PUSH1 0x40 DUP4 ADD DUP5 PUSH2 0x46C0 JUMP JUMPDEST SWAP5 SWAP4 POP POP POP POP JUMP JUMPDEST PUSH1 0x0 PUSH1 0x20 DUP3 ADD SWAP1 POP DUP2 DUP2 SUB PUSH1 0x0 DUP4 ADD MSTORE PUSH2 0x47D7 DUP2 PUSH2 0x4480 JUMP JUMPDEST SWAP1 POP SWAP2 SWAP1 POP JUMP JUMPDEST PUSH1 0x0 PUSH1 0x20 DUP3 ADD SWAP1 POP DUP2 DUP2 SUB PUSH1 0x0 DUP4 ADD MSTORE PUSH2 0x47F7 DUP2 PUSH2 0x44C0 JUMP JUMPDEST SWAP1 POP SWAP2 SWAP1 POP JUMP JUMPDEST PUSH1 0x0 PUSH1 0x20 DUP3 ADD SWAP1 POP DUP2 DUP2 SUB PUSH1 0x0 DUP4 ADD MSTORE PUSH2 0x4817 DUP2 PUSH2 0x4500 JUMP JUMPDEST SWAP1 POP SWAP2 SWAP1 POP JUMP JUMPDEST PUSH1 0x0 PUSH1 0x20 DUP3 ADD SWAP1 POP DUP2 DUP2 SUB PUSH1 0x0 DUP4 ADD MSTORE PUSH2 0x4837 DUP2 PUSH2 0x4540 JUMP JUMPDEST SWAP1 POP SWAP2 SWAP1 POP JUMP JUMPDEST PUSH1 0x0 PUSH1 0x20 DUP3 ADD SWAP1 POP DUP2 DUP2 SUB PUSH1 0x0 DUP4 ADD MSTORE PUSH2 0x4857 DUP2 PUSH2 0x4580 JUMP JUMPDEST SWAP1 POP SWAP2 SWAP1 POP JUMP JUMPDEST PUSH1 0x0 PUSH1 0x20 DUP3 ADD SWAP1 POP DUP2 DUP2 SUB PUSH1 0x0 DUP4 ADD MSTORE PUSH2 0x4877 DUP2 PUSH2 0x45C0 JUMP JUMPDEST SWAP1 POP SWAP2 SWAP1 POP JUMP JUMPDEST PUSH1 0x0 PUSH1 0x20 DUP3 ADD SWAP1 POP DUP2 DUP2 SUB PUSH1 0x0 DUP4 ADD MSTORE PUSH2 0x4897 DUP2 PUSH2 0x4600 JUMP JUMPDEST SWAP1 POP SWAP2 SWAP1 POP JUMP JUMPDEST PUSH1 0x0 PUSH1 0x20 DUP3 ADD SWAP1 POP DUP2 DUP2 SUB PUSH1 0x0 DUP4 ADD MSTORE PUSH2 0x48B7 DUP2 PUSH2 0x4640 JUMP JUMPDEST SWAP1 POP SWAP2 SWAP1 POP JUMP JUMPDEST PUSH1 0x0 PUSH1 0x20 DUP3 ADD SWAP1 POP DUP2 DUP2 SUB PUSH1 0x0 DUP4 ADD MSTORE PUSH2 0x48D7 DUP2 PUSH2 0x4680 JUMP JUMPDEST SWAP1 POP SWAP2 SWAP1 POP JUMP JUMPDEST PUSH1 0x0 PUSH1 0x20 DUP3 ADD SWAP1 POP PUSH2 0x48F3 PUSH1 0x0 DUP4 ADD DUP5 PUSH2 0x46C0 JUMP JUMPDEST SWAP3 SWAP2 POP POP JUMP JUMPDEST PUSH1 0x0 PUSH1 0x40 DUP3 ADD SWAP1 POP PUSH2 0x490E PUSH1 0x0 DUP4 ADD DUP6 PUSH2 0x46C0 JUMP JUMPDEST PUSH2 0x491B PUSH1 0x20 DUP4 ADD DUP5 PUSH2 0x4438 JUMP JUMPDEST SWAP4 SWAP3 POP POP POP JUMP JUMPDEST PUSH1 0x0 PUSH1 0x40 DUP3 ADD SWAP1 POP PUSH2 0x4937 PUSH1 0x0 DUP4 ADD DUP6 PUSH2 0x46C0 JUMP JUMPDEST PUSH2 0x4944 PUSH1 0x20 DUP4 ADD DUP5 PUSH2 0x46C0 JUMP JUMPDEST SWAP4 SWAP3 POP POP POP JUMP JUMPDEST PUSH1 0x0 PUSH1 0x80 DUP3 ADD SWAP1 POP PUSH2 0x4960 PUSH1 0x0 DUP4 ADD DUP8 PUSH2 0x46C0 JUMP JUMPDEST PUSH2 0x496D PUSH1 0x20 DUP4 ADD DUP7 PUSH2 0x46C0 JUMP JUMPDEST PUSH2 0x497A PUSH1 0x40 DUP4 ADD DUP6 PUSH2 0x46C0 JUMP JUMPDEST PUSH2 0x4987 PUSH1 0x60 DUP4 ADD DUP5 PUSH2 0x46C0 JUMP JUMPDEST SWAP6 SWAP5 POP POP POP POP POP JUMP JUMPDEST PUSH1 0x0 PUSH1 0x40 MLOAD SWAP1 POP DUP2 DUP2 ADD DUP2 DUP2 LT PUSH8 0xFFFFFFFFFFFFFFFF DUP3 GT OR ISZERO PUSH2 0x49B7 JUMPI PUSH2 0x49B6 PUSH2 0x4BCC JUMP JUMPDEST JUMPDEST DUP1 PUSH1 0x40 MSTORE POP SWAP2 SWAP1 POP JUMP JUMPDEST PUSH1 0x0 PUSH8 0xFFFFFFFFFFFFFFFF DUP3 GT ISZERO PUSH2 0x49DC JUMPI PUSH2 0x49DB PUSH2 0x4BCC JUMP JUMPDEST JUMPDEST PUSH1 0x1F NOT PUSH1 0x1F DUP4 ADD AND SWAP1 POP PUSH1 0x20 DUP2 ADD SWAP1 POP SWAP2 SWAP1 POP JUMP JUMPDEST PUSH1 0x0 DUP2 MLOAD SWAP1 POP SWAP2 SWAP1 POP JUMP JUMPDEST PUSH1 0x0 DUP3 DUP3 MSTORE PUSH1 0x20 DUP3 ADD SWAP1 POP SWAP3 SWAP2 POP POP JUMP JUMPDEST PUSH1 0x0 PUSH2 0x4A18 DUP3 PUSH2 0x4B22 JUMP JUMPDEST SWAP2 POP PUSH2 0x4A23 DUP4 PUSH2 0x4B22 JUMP JUMPDEST SWAP3 POP DUP3 PUSH32 0xFFFFFFFFFFFFFFFFFFFFFFFFFFFFFFFFFFFFFFFFFFFFFFFFFFFFFFFFFFFFFFFF SUB DUP3 GT ISZERO PUSH2 0x4A58 JUMPI PUSH2 0x4A57 PUSH2 0x4B6E JUMP JUMPDEST JUMPDEST DUP3 DUP3 ADD SWAP1 POP SWAP3 SWAP2 POP POP JUMP JUMPDEST PUSH1 0x0 PUSH2 0x4A6E DUP3 PUSH2 0x4B22 JUMP JUMPDEST SWAP2 POP PUSH2 0x4A79 DUP4 PUSH2 0x4B22 JUMP JUMPDEST SWAP3 POP DUP3 PUSH2 0x4A89 JUMPI PUSH2 0x4A88 PUSH2 0x4B9D JUMP JUMPDEST JUMPDEST DUP3 DUP3 DIV SWAP1 POP SWAP3 SWAP2 POP POP JUMP JUMPDEST PUSH1 0x0 PUSH2 0x4A9F DUP3 PUSH2 0x4B22 JUMP JUMPDEST SWAP2 POP PUSH2 0x4AAA DUP4 PUSH2 0x4B22 JUMP JUMPDEST SWAP3 POP DUP3 DUP3 LT ISZERO PUSH2 0x4ABD JUMPI PUSH2 0x4ABC PUSH2 0x4B6E JUMP JUMPDEST JUMPDEST DUP3 DUP3 SUB SWAP1 POP SWAP3 SWAP2 POP POP JUMP JUMPDEST PUSH1 0x0 PUSH2 0x4AD3 DUP3 PUSH2 0x4B02 JUMP JUMPDEST SWAP1 POP SWAP2 SWAP1 POP JUMP JUMPDEST PUSH1 0x0 PUSH2 0x4AE5 DUP3 PUSH2 0x4B02 JUMP JUMPDEST SWAP1 POP SWAP2 SWAP1 POP JUMP JUMPDEST PUSH1 0x0 DUP2 ISZERO ISZERO SWAP1 POP SWAP2 SWAP1 POP JUMP JUMPDEST PUSH1 0x0 DUP2 SWAP1 POP SWAP2 SWAP1 POP JUMP JUMPDEST PUSH1 0x0 PUSH20 0xFFFFFFFFFFFFFFFFFFFFFFFFFFFFFFFFFFFFFFFF DUP3 AND SWAP1 POP SWAP2 SWAP1 POP JUMP JUMPDEST PUSH1 0x0 DUP2 SWAP1 POP SWAP2 SWAP1 POP JUMP JUMPDEST DUP3 DUP2 DUP4 CALLDATACOPY PUSH1 0x0 DUP4 DUP4 ADD MSTORE POP POP POP JUMP JUMPDEST PUSH1 0x0 JUMPDEST DUP4 DUP2 LT ISZERO PUSH2 0x4B59 JUMPI DUP1 DUP3 ADD MLOAD DUP2 DUP5 ADD MSTORE PUSH1 0x20 DUP2 ADD SWAP1 POP PUSH2 0x4B3E JUMP JUMPDEST DUP4 DUP2 GT ISZERO PUSH2 0x4B68 JUMPI PUSH1 0x0 DUP5 DUP5 ADD MSTORE JUMPDEST POP POP POP POP JUMP JUMPDEST PUSH32 0x4E487B7100000000000000000000000000000000000000000000000000000000 PUSH1 0x0 MSTORE PUSH1 0x11 PUSH1 0x4 MSTORE PUSH1 0x24 PUSH1 0x0 REVERT JUMPDEST PUSH32 0x4E487B7100000000000000000000000000000000000000000000000000000000 PUSH1 0x0 MSTORE PUSH1 0x12 PUSH1 0x4 MSTORE PUSH1 0x24 PUSH1 0x0 REVERT JUMPDEST PUSH32 0x4E487B7100000000000000000000000000000000000000000000000000000000 PUSH1 0x0 MSTORE PUSH1 0x41 PUSH1 0x4 MSTORE PUSH1 0x24 PUSH1 0x0 REVERT JUMPDEST PUSH1 0x0 PUSH1 0x1F NOT PUSH1 0x1F DUP4 ADD AND SWAP1 POP SWAP2 SWAP1 POP JUMP JUMPDEST PUSH2 0x4C15 DUP2 PUSH2 0x4AC8 JUMP JUMPDEST DUP2 EQ PUSH2 0x4C20 JUMPI PUSH1 0x0 DUP1 REVERT JUMPDEST POP JUMP JUMPDEST PUSH2 0x4C2C DUP2 PUSH2 0x4ADA JUMP JUMPDEST DUP2 EQ PUSH2 0x4C37 JUMPI PUSH1 0x0 DUP1 REVERT JUMPDEST POP JUMP JUMPDEST PUSH2 0x4C43 DUP2 PUSH2 0x4AF8 JUMP JUMPDEST DUP2 EQ PUSH2 0x4C4E JUMPI PUSH1 0x0 DUP1 REVERT JUMPDEST POP JUMP JUMPDEST PUSH2 0x4C5A DUP2 PUSH2 0x4B22 JUMP JUMPDEST DUP2 EQ PUSH2 0x4C65 JUMPI PUSH1 0x0 DUP1 REVERT JUMPDEST POP JUMP INVALID LOG2 PUSH5 0x6970667358 0x22 SLT KECCAK256 0xBF GASPRICE PUSH4 0xA48B744A 0xC6 LOG4 SHL DUP12 0x4A 0xCD PUSH19 0x2CD521131F299D5160028794A3C6BCC9156C64 PUSH20 0x6F6C634300080000330000000000000000000000 "
        },
        "methodIdentifiers": {
          "Campaigns(uint256)": "4013be10",
          "Funds(uint256)": "eee9b99e",
          "SaarthiTasks(uint256)": "6092a502",
          "UserTaskIDs(address,uint256)": "6946c5e9",
          "activeCampaignCnt()": "b063795c",
          "admin()": "f851a440",
          "approval(address,address)": "e1270b6e",
          "billAmounts(address)": "c4d8fea7",
          "billUser(address,uint256)": "022decd9",
          "c_0x5a755f78(bytes32)": "7d4f6e7e",
          "c_0xd94ba50d(bytes32)": "483d6752",
          "campaignEnabled(address)": "9ff60711",
          "coordinatorAddress()": "82003b31",
          "createFund(bytes32,bytes32,address)": "0d3bb50f",
          "createTask(bytes32,uint256)": "6fbb5f62",
          "donateToCampaign(address)": "7c6abc82",
          "donateToFund(uint256)": "11cd13ac",
          "fileReport(bytes32,bytes32,string)": "f1fcc8e9",
          "fundCnt()": "cd5e5483",
          "hospitals(address)": "f093cf80",
          "initialize()": "8129fc1c",
          "nextTaskID()": "5af09fe2",
          "paused()": "5c975abb",
          "reportCnt()": "e3f2d24f",
          "startCampaign(bytes32)": "c06a260d",
          "stopCampaign()": "16f1bc22",
          "toggleAccessToAddress(address)": "4e1dd1a4",
          "toggleHospital(address)": "ec270353",
          "togglePause()": "c4ae3168",
          "totalDonationAmount()": "17849646",
          "totalDonationCnt()": "e1c7dbe3",
          "updateAdmin(address)": "e2f273bd",
          "updateModelForTask(uint256,bytes32,address)": "22af0c0b",
          "version()": "54fd4d50"
        }
      }
    }
  }
}