{
  "contracts/SaarthiStorage.sol": {
    "SaarthiStorage": {
      "abi": [
        {
          "anonymous": false,
          "inputs": [
            {
              "indexed": true,
              "internalType": "uint256",
              "name": "taskID",
              "type": "uint256"
            },
            {
              "indexed": false,
              "internalType": "bytes32",
              "name": "_modelHash",
              "type": "bytes32"
            },
            {
              "indexed": false,
              "internalType": "uint256",
              "name": "_time",
              "type": "uint256"
            }
          ],
          "name": "modelUpdated",
          "type": "event"
        },
        {
          "anonymous": false,
          "inputs": [
            {
              "indexed": true,
              "internalType": "address",
              "name": "_from",
              "type": "address"
            },
            {
              "indexed": true,
              "internalType": "address",
              "name": "_to",
              "type": "address"
            },
            {
              "indexed": false,
              "internalType": "bool",
              "name": "_finalState",
              "type": "bool"
            }
          ],
          "name": "newApproval",
          "type": "event"
        },
        {
          "anonymous": false,
          "inputs": [
            {
              "indexed": true,
              "internalType": "address",
              "name": "_campaigner",
              "type": "address"
            },
            {
              "indexed": false,
              "internalType": "bytes32",
              "name": "_campaignData",
              "type": "bytes32"
            },
            {
              "indexed": false,
              "internalType": "uint256",
              "name": "_createdAt",
              "type": "uint256"
            }
          ],
          "name": "newCampaign",
          "type": "event"
        },
        {
          "anonymous": false,
          "inputs": [
            {
              "indexed": true,
              "internalType": "address",
              "name": "_campaigner",
              "type": "address"
            },
            {
              "indexed": true,
              "internalType": "address",
              "name": "_from",
              "type": "address"
            },
            {
              "indexed": false,
              "internalType": "uint256",
              "name": "amount",
              "type": "uint256"
            }
          ],
          "name": "newCampaignDonation",
          "type": "event"
        },
        {
          "anonymous": false,
          "inputs": [
            {
              "indexed": false,
              "internalType": "uint256",
              "name": "_fundIndex",
              "type": "uint256"
            },
            {
              "indexed": true,
              "internalType": "bytes32",
              "name": "_orgName",
              "type": "bytes32"
            },
            {
              "indexed": false,
              "internalType": "bytes32",
              "name": "_fundName",
              "type": "bytes32"
            }
          ],
          "name": "newFund",
          "type": "event"
        },
        {
          "anonymous": false,
          "inputs": [
            {
              "indexed": false,
              "internalType": "uint256",
              "name": "_fundIndex",
              "type": "uint256"
            },
            {
              "indexed": true,
              "internalType": "address",
              "name": "_sender",
              "type": "address"
            },
            {
              "indexed": true,
              "internalType": "address",
              "name": "_receiver",
              "type": "address"
            },
            {
              "indexed": false,
              "internalType": "uint256",
              "name": "_amount",
              "type": "uint256"
            }
          ],
          "name": "newFundDonation",
          "type": "event"
        },
        {
          "anonymous": false,
          "inputs": [
            {
              "indexed": true,
              "internalType": "uint256",
              "name": "_index",
              "type": "uint256"
            },
            {
              "indexed": true,
              "internalType": "address",
              "name": "_reporter",
              "type": "address"
            },
            {
              "indexed": true,
              "internalType": "bytes32",
              "name": "_location",
              "type": "bytes32"
            },
            {
              "indexed": false,
              "internalType": "bytes32",
              "name": "_file",
              "type": "bytes32"
            },
            {
              "indexed": false,
              "internalType": "string",
              "name": "_details",
              "type": "string"
            },
            {
              "indexed": false,
              "internalType": "uint256",
              "name": "_time",
              "type": "uint256"
            }
          ],
          "name": "newReport",
          "type": "event"
        },
        {
          "anonymous": false,
          "inputs": [
            {
              "indexed": true,
              "internalType": "uint256",
              "name": "taskID",
              "type": "uint256"
            },
            {
              "indexed": true,
              "internalType": "address",
              "name": "_user",
              "type": "address"
            },
            {
              "indexed": false,
              "internalType": "bytes32",
              "name": "_modelHash",
              "type": "bytes32"
            },
            {
              "indexed": false,
              "internalType": "uint256",
              "name": "_amt",
              "type": "uint256"
            },
            {
              "indexed": false,
              "internalType": "uint256",
              "name": "_time",
              "type": "uint256"
            }
          ],
          "name": "newTaskCreated",
          "type": "event"
        },
        {
          "inputs": [
            {
              "internalType": "uint256",
              "name": "",
              "type": "uint256"
            }
          ],
          "name": "Campaigns",
          "outputs": [
            {
              "internalType": "address",
              "name": "",
              "type": "address"
            }
          ],
          "stateMutability": "view",
          "type": "function"
        },
        {
          "inputs": [
            {
              "internalType": "uint256",
              "name": "",
              "type": "uint256"
            }
          ],
          "name": "Funds",
          "outputs": [
            {
              "internalType": "address payable",
              "name": "",
              "type": "address"
            }
          ],
          "stateMutability": "view",
          "type": "function"
        },
        {
          "inputs": [
            {
              "internalType": "uint256",
              "name": "",
              "type": "uint256"
            }
          ],
          "name": "SaarthiTasks",
          "outputs": [
            {
              "internalType": "uint256",
              "name": "taskID",
              "type": "uint256"
            },
            {
              "internalType": "uint256",
              "name": "currentRound",
              "type": "uint256"
            },
            {
              "internalType": "uint256",
              "name": "totalRounds",
              "type": "uint256"
            },
            {
              "internalType": "uint256",
              "name": "cost",
              "type": "uint256"
            }
          ],
          "stateMutability": "view",
          "type": "function"
        },
        {
          "inputs": [
            {
              "internalType": "address",
              "name": "",
              "type": "address"
            },
            {
              "internalType": "uint256",
              "name": "",
              "type": "uint256"
            }
          ],
          "name": "UserTaskIDs",
          "outputs": [
            {
              "internalType": "uint256",
              "name": "",
              "type": "uint256"
            }
          ],
          "stateMutability": "view",
          "type": "function"
        },
        {
          "inputs": [],
          "name": "activeCampaignCnt",
          "outputs": [
            {
              "internalType": "uint256",
              "name": "",
              "type": "uint256"
            }
          ],
          "stateMutability": "view",
          "type": "function"
        },
        {
          "inputs": [],
          "name": "admin",
          "outputs": [
            {
              "internalType": "address",
              "name": "",
              "type": "address"
            }
          ],
          "stateMutability": "view",
          "type": "function"
        },
        {
          "inputs": [
            {
              "internalType": "address",
              "name": "",
              "type": "address"
            },
            {
              "internalType": "address",
              "name": "",
              "type": "address"
            }
          ],
          "name": "approval",
          "outputs": [
            {
              "internalType": "bool",
              "name": "",
              "type": "bool"
            }
          ],
          "stateMutability": "view",
          "type": "function"
        },
        {
          "inputs": [
            {
              "internalType": "address",
              "name": "",
              "type": "address"
            }
          ],
          "name": "billAmounts",
          "outputs": [
            {
              "internalType": "uint256",
              "name": "",
              "type": "uint256"
            }
          ],
          "stateMutability": "view",
          "type": "function"
        },
        {
          "inputs": [
            {
              "internalType": "address",
              "name": "",
              "type": "address"
            }
          ],
          "name": "campaignEnabled",
          "outputs": [
            {
              "internalType": "bool",
              "name": "",
              "type": "bool"
            }
          ],
          "stateMutability": "view",
          "type": "function"
        },
        {
          "inputs": [],
          "name": "coordinatorAddress",
          "outputs": [
            {
              "internalType": "address",
              "name": "",
              "type": "address"
            }
          ],
          "stateMutability": "view",
          "type": "function"
        },
        {
          "inputs": [],
          "name": "fundCnt",
          "outputs": [
            {
              "internalType": "uint256",
              "name": "",
              "type": "uint256"
            }
          ],
          "stateMutability": "view",
          "type": "function"
        },
        {
          "inputs": [
            {
              "internalType": "address",
              "name": "",
              "type": "address"
            }
          ],
          "name": "hospitals",
          "outputs": [
            {
              "internalType": "bool",
              "name": "",
              "type": "bool"
            }
          ],
          "stateMutability": "view",
          "type": "function"
        },
        {
          "inputs": [],
          "name": "nextTaskID",
          "outputs": [
            {
              "internalType": "uint256",
              "name": "",
              "type": "uint256"
            }
          ],
          "stateMutability": "view",
          "type": "function"
        },
        {
          "inputs": [],
          "name": "paused",
          "outputs": [
            {
              "internalType": "bool",
              "name": "",
              "type": "bool"
            }
          ],
          "stateMutability": "view",
          "type": "function"
        },
        {
          "inputs": [],
          "name": "reportCnt",
          "outputs": [
            {
              "internalType": "uint256",
              "name": "",
              "type": "uint256"
            }
          ],
          "stateMutability": "view",
          "type": "function"
        },
        {
          "inputs": [],
          "name": "totalDonationAmount",
          "outputs": [
            {
              "internalType": "uint256",
              "name": "",
              "type": "uint256"
            }
          ],
          "stateMutability": "view",
          "type": "function"
        },
        {
          "inputs": [],
          "name": "totalDonationCnt",
          "outputs": [
            {
              "internalType": "uint256",
              "name": "",
              "type": "uint256"
            }
          ],
          "stateMutability": "view",
          "type": "function"
        },
        {
          "inputs": [],
          "name": "version",
          "outputs": [
            {
              "internalType": "uint256",
              "name": "",
              "type": "uint256"
            }
          ],
          "stateMutability": "view",
          "type": "function"
        }
      ],
      "evm": {
        "bytecode": {
          "linkReferences": {},
          "object": "60806040526000805560016003556000600a556000600c556000600d556000600e55600060105534801561003257600080fd5b5061053c806100426000396000f3fe608060405234801561001057600080fd5b50600436106101365760003560e01c8063b063795c116100b2578063e1c7dbe311610081578063eee9b99e11610066578063eee9b99e14610235578063f093cf8014610248578063f851a4401461025b57610136565b8063e1c7dbe314610225578063e3f2d24f1461022d57610136565b8063b063795c146101ef578063c4d8fea7146101f7578063cd5e54831461020a578063e1270b6e1461021257610136565b80635c975abb116101095780636946c5e9116100ee5780636946c5e9146101c157806382003b31146101d45780639ff60711146101dc57610136565b80635c975abb146101895780636092a5021461019e57610136565b8063178496461461013b5780634013be101461015957806354fd4d50146101795780635af09fe214610181575b600080fd5b610143610263565b60405161015091906104e2565b60405180910390f35b61016c61016736600461049e565b610269565b60405161015091906104b6565b6101436102a0565b6101436102a6565b6101916102ac565b60405161015091906104d7565b6101b16101ac36600461049e565b6102cd565b60405161015094939291906104eb565b6101436101cf366004610475565b6102f4565b61016c610325565b6101916101ea366004610422565b610341565b610143610356565b610143610205366004610422565b61035c565b61014361036e565b610191610220366004610443565b610374565b610143610394565b61014361039a565b61016c61024336600461049e565b6103a0565b610191610256366004610422565b6103c8565b61016c6103dd565b600d5481565b6009818154811061027957600080fd5b60009182526020909120015473ffffffffffffffffffffffffffffffffffffffff16905081565b60005481565b60035481565b60025474010000000000000000000000000000000000000000900460ff1681565b60046020526000908152604090208054600182015460028301546003909301549192909184565b6005602052816000526040600020818154811061031057600080fd5b90600052602060002001600091509150505481565b60025473ffffffffffffffffffffffffffffffffffffffff1681565b600b6020526000908152604090205460ff1681565b600a5481565b60076020526000908152604090205481565b600c5481565b600860209081526000928352604080842090915290825290205460ff1681565b600e5481565b60105481565b600f6020526000908152604090205473ffffffffffffffffffffffffffffffffffffffff1681565b60066020526000908152604090205460ff1681565b60015473ffffffffffffffffffffffffffffffffffffffff1681565b803573ffffffffffffffffffffffffffffffffffffffff8116811461041d57600080fd5b919050565b600060208284031215610433578081fd5b61043c826103f9565b9392505050565b60008060408385031215610455578081fd5b61045e836103f9565b915061046c602084016103f9565b90509250929050565b60008060408385031215610487578182fd5b610490836103f9565b946020939093013593505050565b6000602082840312156104af578081fd5b5035919050565b73ffffffffffffffffffffffffffffffffffffffff91909116815260200190565b901515815260200190565b90815260200190565b9384526020840192909252604083015260608201526080019056fea26469706673582212206eaa57a4006b51f85347227ca79aa8d7a7f2e04cc1dbc39976c11aca01541dda64736f6c63430008000033",
          "opcodes": "PUSH1 0x80 PUSH1 0x40 MSTORE PUSH1 0x0 DUP1 SSTORE PUSH1 0x1 PUSH1 0x3 SSTORE PUSH1 0x0 PUSH1 0xA SSTORE PUSH1 0x0 PUSH1 0xC SSTORE PUSH1 0x0 PUSH1 0xD SSTORE PUSH1 0x0 PUSH1 0xE SSTORE PUSH1 0x0 PUSH1 0x10 SSTORE CALLVALUE DUP1 ISZERO PUSH2 0x32 JUMPI PUSH1 0x0 DUP1 REVERT JUMPDEST POP PUSH2 0x53C DUP1 PUSH2 0x42 PUSH1 0x0 CODECOPY PUSH1 0x0 RETURN INVALID PUSH1 0x80 PUSH1 0x40 MSTORE CALLVALUE DUP1 ISZERO PUSH2 0x10 JUMPI PUSH1 0x0 DUP1 REVERT JUMPDEST POP PUSH1 0x4 CALLDATASIZE LT PUSH2 0x136 JUMPI PUSH1 0x0 CALLDATALOAD PUSH1 0xE0 SHR DUP1 PUSH4 0xB063795C GT PUSH2 0xB2 JUMPI DUP1 PUSH4 0xE1C7DBE3 GT PUSH2 0x81 JUMPI DUP1 PUSH4 0xEEE9B99E GT PUSH2 0x66 JUMPI DUP1 PUSH4 0xEEE9B99E EQ PUSH2 0x235 JUMPI DUP1 PUSH4 0xF093CF80 EQ PUSH2 0x248 JUMPI DUP1 PUSH4 0xF851A440 EQ PUSH2 0x25B JUMPI PUSH2 0x136 JUMP JUMPDEST DUP1 PUSH4 0xE1C7DBE3 EQ PUSH2 0x225 JUMPI DUP1 PUSH4 0xE3F2D24F EQ PUSH2 0x22D JUMPI PUSH2 0x136 JUMP JUMPDEST DUP1 PUSH4 0xB063795C EQ PUSH2 0x1EF JUMPI DUP1 PUSH4 0xC4D8FEA7 EQ PUSH2 0x1F7 JUMPI DUP1 PUSH4 0xCD5E5483 EQ PUSH2 0x20A JUMPI DUP1 PUSH4 0xE1270B6E EQ PUSH2 0x212 JUMPI PUSH2 0x136 JUMP JUMPDEST DUP1 PUSH4 0x5C975ABB GT PUSH2 0x109 JUMPI DUP1 PUSH4 0x6946C5E9 GT PUSH2 0xEE JUMPI DUP1 PUSH4 0x6946C5E9 EQ PUSH2 0x1C1 JUMPI DUP1 PUSH4 0x82003B31 EQ PUSH2 0x1D4 JUMPI DUP1 PUSH4 0x9FF60711 EQ PUSH2 0x1DC JUMPI PUSH2 0x136 JUMP JUMPDEST DUP1 PUSH4 0x5C975ABB EQ PUSH2 0x189 JUMPI DUP1 PUSH4 0x6092A502 EQ PUSH2 0x19E JUMPI PUSH2 0x136 JUMP JUMPDEST DUP1 PUSH4 0x17849646 EQ PUSH2 0x13B JUMPI DUP1 PUSH4 0x4013BE10 EQ PUSH2 0x159 JUMPI DUP1 PUSH4 0x54FD4D50 EQ PUSH2 0x179 JUMPI DUP1 PUSH4 0x5AF09FE2 EQ PUSH2 0x181 JUMPI JUMPDEST PUSH1 0x0 DUP1 REVERT JUMPDEST PUSH2 0x143 PUSH2 0x263 JUMP JUMPDEST PUSH1 0x40 MLOAD PUSH2 0x150 SWAP2 SWAP1 PUSH2 0x4E2 JUMP JUMPDEST PUSH1 0x40 MLOAD DUP1 SWAP2 SUB SWAP1 RETURN JUMPDEST PUSH2 0x16C PUSH2 0x167 CALLDATASIZE PUSH1 0x4 PUSH2 0x49E JUMP JUMPDEST PUSH2 0x269 JUMP JUMPDEST PUSH1 0x40 MLOAD PUSH2 0x150 SWAP2 SWAP1 PUSH2 0x4B6 JUMP JUMPDEST PUSH2 0x143 PUSH2 0x2A0 JUMP JUMPDEST PUSH2 0x143 PUSH2 0x2A6 JUMP JUMPDEST PUSH2 0x191 PUSH2 0x2AC JUMP JUMPDEST PUSH1 0x40 MLOAD PUSH2 0x150 SWAP2 SWAP1 PUSH2 0x4D7 JUMP JUMPDEST PUSH2 0x1B1 PUSH2 0x1AC CALLDATASIZE PUSH1 0x4 PUSH2 0x49E JUMP JUMPDEST PUSH2 0x2CD JUMP JUMPDEST PUSH1 0x40 MLOAD PUSH2 0x150 SWAP5 SWAP4 SWAP3 SWAP2 SWAP1 PUSH2 0x4EB JUMP JUMPDEST PUSH2 0x143 PUSH2 0x1CF CALLDATASIZE PUSH1 0x4 PUSH2 0x475 JUMP JUMPDEST PUSH2 0x2F4 JUMP JUMPDEST PUSH2 0x16C PUSH2 0x325 JUMP JUMPDEST PUSH2 0x191 PUSH2 0x1EA CALLDATASIZE PUSH1 0x4 PUSH2 0x422 JUMP JUMPDEST PUSH2 0x341 JUMP JUMPDEST PUSH2 0x143 PUSH2 0x356 JUMP JUMPDEST PUSH2 0x143 PUSH2 0x205 CALLDATASIZE PUSH1 0x4 PUSH2 0x422 JUMP JUMPDEST PUSH2 0x35C JUMP JUMPDEST PUSH2 0x143 PUSH2 0x36E JUMP JUMPDEST PUSH2 0x191 PUSH2 0x220 CALLDATASIZE PUSH1 0x4 PUSH2 0x443 JUMP JUMPDEST PUSH2 0x374 JUMP JUMPDEST PUSH2 0x143 PUSH2 0x394 JUMP JUMPDEST PUSH2 0x143 PUSH2 0x39A JUMP JUMPDEST PUSH2 0x16C PUSH2 0x243 CALLDATASIZE PUSH1 0x4 PUSH2 0x49E JUMP JUMPDEST PUSH2 0x3A0 JUMP JUMPDEST PUSH2 0x191 PUSH2 0x256 CALLDATASIZE PUSH1 0x4 PUSH2 0x422 JUMP JUMPDEST PUSH2 0x3C8 JUMP JUMPDEST PUSH2 0x16C PUSH2 0x3DD JUMP JUMPDEST PUSH1 0xD SLOAD DUP2 JUMP JUMPDEST PUSH1 0x9 DUP2 DUP2 SLOAD DUP2 LT PUSH2 0x279 JUMPI PUSH1 0x0 DUP1 REVERT JUMPDEST PUSH1 0x0 SWAP2 DUP3 MSTORE PUSH1 0x20 SWAP1 SWAP2 KECCAK256 ADD SLOAD PUSH20 0xFFFFFFFFFFFFFFFFFFFFFFFFFFFFFFFFFFFFFFFF AND SWAP1 POP DUP2 JUMP JUMPDEST PUSH1 0x0 SLOAD DUP2 JUMP JUMPDEST PUSH1 0x3 SLOAD DUP2 JUMP JUMPDEST PUSH1 0x2 SLOAD PUSH21 0x10000000000000000000000000000000000000000 SWAP1 DIV PUSH1 0xFF AND DUP2 JUMP JUMPDEST PUSH1 0x4 PUSH1 0x20 MSTORE PUSH1 0x0 SWAP1 DUP2 MSTORE PUSH1 0x40 SWAP1 KECCAK256 DUP1 SLOAD PUSH1 0x1 DUP3 ADD SLOAD PUSH1 0x2 DUP4 ADD SLOAD PUSH1 0x3 SWAP1 SWAP4 ADD SLOAD SWAP2 SWAP3 SWAP1 SWAP2 DUP5 JUMP JUMPDEST PUSH1 0x5 PUSH1 0x20 MSTORE DUP2 PUSH1 0x0 MSTORE PUSH1 0x40 PUSH1 0x0 KECCAK256 DUP2 DUP2 SLOAD DUP2 LT PUSH2 0x310 JUMPI PUSH1 0x0 DUP1 REVERT JUMPDEST SWAP1 PUSH1 0x0 MSTORE PUSH1 0x20 PUSH1 0x0 KECCAK256 ADD PUSH1 0x0 SWAP2 POP SWAP2 POP POP SLOAD DUP2 JUMP JUMPDEST PUSH1 0x2 SLOAD PUSH20 0xFFFFFFFFFFFFFFFFFFFFFFFFFFFFFFFFFFFFFFFF AND DUP2 JUMP JUMPDEST PUSH1 0xB PUSH1 0x20 MSTORE PUSH1 0x0 SWAP1 DUP2 MSTORE PUSH1 0x40 SWAP1 KECCAK256 SLOAD PUSH1 0xFF AND DUP2 JUMP JUMPDEST PUSH1 0xA SLOAD DUP2 JUMP JUMPDEST PUSH1 0x7 PUSH1 0x20 MSTORE PUSH1 0x0 SWAP1 DUP2 MSTORE PUSH1 0x40 SWAP1 KECCAK256 SLOAD DUP2 JUMP JUMPDEST PUSH1 0xC SLOAD DUP2 JUMP JUMPDEST PUSH1 0x8 PUSH1 0x20 SWAP1 DUP2 MSTORE PUSH1 0x0 SWAP3 DUP4 MSTORE PUSH1 0x40 DUP1 DUP5 KECCAK256 SWAP1 SWAP2 MSTORE SWAP1 DUP3 MSTORE SWAP1 KECCAK256 SLOAD PUSH1 0xFF AND DUP2 JUMP JUMPDEST PUSH1 0xE SLOAD DUP2 JUMP JUMPDEST PUSH1 0x10 SLOAD DUP2 JUMP JUMPDEST PUSH1 0xF PUSH1 0x20 MSTORE PUSH1 0x0 SWAP1 DUP2 MSTORE PUSH1 0x40 SWAP1 KECCAK256 SLOAD PUSH20 0xFFFFFFFFFFFFFFFFFFFFFFFFFFFFFFFFFFFFFFFF AND DUP2 JUMP JUMPDEST PUSH1 0x6 PUSH1 0x20 MSTORE PUSH1 0x0 SWAP1 DUP2 MSTORE PUSH1 0x40 SWAP1 KECCAK256 SLOAD PUSH1 0xFF AND DUP2 JUMP JUMPDEST PUSH1 0x1 SLOAD PUSH20 0xFFFFFFFFFFFFFFFFFFFFFFFFFFFFFFFFFFFFFFFF AND DUP2 JUMP JUMPDEST DUP1 CALLDATALOAD PUSH20 0xFFFFFFFFFFFFFFFFFFFFFFFFFFFFFFFFFFFFFFFF DUP2 AND DUP2 EQ PUSH2 0x41D JUMPI PUSH1 0x0 DUP1 REVERT JUMPDEST SWAP2 SWAP1 POP JUMP JUMPDEST PUSH1 0x0 PUSH1 0x20 DUP3 DUP5 SUB SLT ISZERO PUSH2 0x433 JUMPI DUP1 DUP2 REVERT JUMPDEST PUSH2 0x43C DUP3 PUSH2 0x3F9 JUMP JUMPDEST SWAP4 SWAP3 POP POP POP JUMP JUMPDEST PUSH1 0x0 DUP1 PUSH1 0x40 DUP4 DUP6 SUB SLT ISZERO PUSH2 0x455 JUMPI DUP1 DUP2 REVERT JUMPDEST PUSH2 0x45E DUP4 PUSH2 0x3F9 JUMP JUMPDEST SWAP2 POP PUSH2 0x46C PUSH1 0x20 DUP5 ADD PUSH2 0x3F9 JUMP JUMPDEST SWAP1 POP SWAP3 POP SWAP3 SWAP1 POP JUMP JUMPDEST PUSH1 0x0 DUP1 PUSH1 0x40 DUP4 DUP6 SUB SLT ISZERO PUSH2 0x487 JUMPI DUP2 DUP3 REVERT JUMPDEST PUSH2 0x490 DUP4 PUSH2 0x3F9 JUMP JUMPDEST SWAP5 PUSH1 0x20 SWAP4 SWAP1 SWAP4 ADD CALLDATALOAD SWAP4 POP POP POP JUMP JUMPDEST PUSH1 0x0 PUSH1 0x20 DUP3 DUP5 SUB SLT ISZERO PUSH2 0x4AF JUMPI DUP1 DUP2 REVERT JUMPDEST POP CALLDATALOAD SWAP2 SWAP1 POP JUMP JUMPDEST PUSH20 0xFFFFFFFFFFFFFFFFFFFFFFFFFFFFFFFFFFFFFFFF SWAP2 SWAP1 SWAP2 AND DUP2 MSTORE PUSH1 0x20 ADD SWAP1 JUMP JUMPDEST SWAP1 ISZERO ISZERO DUP2 MSTORE PUSH1 0x20 ADD SWAP1 JUMP JUMPDEST SWAP1 DUP2 MSTORE PUSH1 0x20 ADD SWAP1 JUMP JUMPDEST SWAP4 DUP5 MSTORE PUSH1 0x20 DUP5 ADD SWAP3 SWAP1 SWAP3 MSTORE PUSH1 0x40 DUP4 ADD MSTORE PUSH1 0x60 DUP3 ADD MSTORE PUSH1 0x80 ADD SWAP1 JUMP INVALID LOG2 PUSH5 0x6970667358 0x22 SLT KECCAK256 PUSH15 0xAA57A4006B51F85347227CA79AA8D7 0xA7 CALLCODE 0xE0 0x4C 0xC1 0xDB 0xC3 SWAP10 PUSH23 0xC11ACA01541DDA64736F6C634300080000330000000000 "
        },
        "methodIdentifiers": {
          "Campaigns(uint256)": "4013be10",
          "Funds(uint256)": "eee9b99e",
          "SaarthiTasks(uint256)": "6092a502",
          "UserTaskIDs(address,uint256)": "6946c5e9",
          "activeCampaignCnt()": "b063795c",
          "admin()": "f851a440",
          "approval(address,address)": "e1270b6e",
          "billAmounts(address)": "c4d8fea7",
          "campaignEnabled(address)": "9ff60711",
          "coordinatorAddress()": "82003b31",
          "fundCnt()": "cd5e5483",
          "hospitals(address)": "f093cf80",
          "nextTaskID()": "5af09fe2",
          "paused()": "5c975abb",
          "reportCnt()": "e3f2d24f",
          "totalDonationAmount()": "17849646",
          "totalDonationCnt()": "e1c7dbe3",
          "version()": "54fd4d50"
        }
      }
    }
  }
}