{
  "_format": "hh-sol-artifact-1",
  "contractName": "Saarthi",
  "sourceName": "contracts/SaarthiLogic.sol",
  "abi": [
    {
      "anonymous": false,
      "inputs": [
        {
          "indexed": true,
          "internalType": "uint256",
          "name": "taskID",
          "type": "uint256"
        },
        {
          "indexed": false,
          "internalType": "bytes32",
          "name": "_modelHash",
          "type": "bytes32"
        },
        {
          "indexed": false,
          "internalType": "uint256",
          "name": "_time",
          "type": "uint256"
        }
      ],
      "name": "modelUpdated",
      "type": "event"
    },
    {
      "anonymous": false,
      "inputs": [
        {
          "indexed": true,
          "internalType": "address",
          "name": "_from",
          "type": "address"
        },
        {
          "indexed": true,
          "internalType": "address",
          "name": "_to",
          "type": "address"
        },
        {
          "indexed": false,
          "internalType": "bool",
          "name": "_finalState",
          "type": "bool"
        }
      ],
      "name": "newApproval",
      "type": "event"
    },
    {
      "anonymous": false,
      "inputs": [
        {
          "indexed": true,
          "internalType": "address",
          "name": "_campaigner",
          "type": "address"
        },
        {
          "indexed": false,
          "internalType": "bytes32",
          "name": "_campaignData",
          "type": "bytes32"
        },
        {
          "indexed": false,
          "internalType": "uint256",
          "name": "_createdAt",
          "type": "uint256"
        }
      ],
      "name": "newCampaign",
      "type": "event"
    },
    {
      "anonymous": false,
      "inputs": [
        {
          "indexed": true,
          "internalType": "address",
          "name": "_campaigner",
          "type": "address"
        },
        {
          "indexed": true,
          "internalType": "address",
          "name": "_from",
          "type": "address"
        },
        {
          "indexed": false,
          "internalType": "uint256",
          "name": "amount",
          "type": "uint256"
        }
      ],
      "name": "newCampaignDonation",
      "type": "event"
    },
    {
      "anonymous": false,
      "inputs": [
        {
          "indexed": false,
          "internalType": "uint256",
          "name": "_fundIndex",
          "type": "uint256"
        },
        {
          "indexed": true,
          "internalType": "bytes32",
          "name": "_orgName",
          "type": "bytes32"
        },
        {
          "indexed": false,
          "internalType": "bytes32",
          "name": "_fundName",
          "type": "bytes32"
        }
      ],
      "name": "newFund",
      "type": "event"
    },
    {
      "anonymous": false,
      "inputs": [
        {
          "indexed": false,
          "internalType": "uint256",
          "name": "_fundIndex",
          "type": "uint256"
        },
        {
          "indexed": true,
          "internalType": "address",
          "name": "_sender",
          "type": "address"
        },
        {
          "indexed": true,
          "internalType": "address",
          "name": "_receiver",
          "type": "address"
        },
        {
          "indexed": false,
          "internalType": "uint256",
          "name": "_amount",
          "type": "uint256"
        }
      ],
      "name": "newFundDonation",
      "type": "event"
    },
    {
      "anonymous": false,
      "inputs": [
        {
          "indexed": true,
          "internalType": "uint256",
          "name": "_index",
          "type": "uint256"
        },
        {
          "indexed": true,
          "internalType": "address",
          "name": "_reporter",
          "type": "address"
        },
        {
          "indexed": true,
          "internalType": "bytes32",
          "name": "_location",
          "type": "bytes32"
        },
        {
          "indexed": false,
          "internalType": "bytes32",
          "name": "_file",
          "type": "bytes32"
        },
        {
          "indexed": false,
          "internalType": "string",
          "name": "_details",
          "type": "string"
        },
        {
          "indexed": false,
          "internalType": "uint256",
          "name": "_time",
          "type": "uint256"
        }
      ],
      "name": "newReport",
      "type": "event"
    },
    {
      "anonymous": false,
      "inputs": [
        {
          "indexed": true,
          "internalType": "uint256",
          "name": "taskID",
          "type": "uint256"
        },
        {
          "indexed": true,
          "internalType": "address",
          "name": "_user",
          "type": "address"
        },
        {
          "indexed": false,
          "internalType": "bytes32",
          "name": "_modelHash",
          "type": "bytes32"
        },
        {
          "indexed": false,
          "internalType": "uint256",
          "name": "_amt",
          "type": "uint256"
        },
        {
          "indexed": false,
          "internalType": "uint256",
          "name": "_time",
          "type": "uint256"
        }
      ],
      "name": "newTaskCreated",
      "type": "event"
    },
    {
      "inputs": [
        {
          "internalType": "uint256",
          "name": "",
          "type": "uint256"
        }
      ],
      "name": "Campaigns",
      "outputs": [
        {
          "internalType": "address",
          "name": "",
          "type": "address"
        }
      ],
      "stateMutability": "view",
      "type": "function"
    },
    {
      "inputs": [
        {
          "internalType": "uint256",
          "name": "",
          "type": "uint256"
        }
      ],
      "name": "Funds",
      "outputs": [
        {
          "internalType": "address payable",
          "name": "",
          "type": "address"
        }
      ],
      "stateMutability": "view",
      "type": "function"
    },
    {
      "inputs": [
        {
          "internalType": "uint256",
          "name": "",
          "type": "uint256"
        }
      ],
      "name": "SaarthiTasks",
      "outputs": [
        {
          "internalType": "uint256",
          "name": "taskID",
          "type": "uint256"
        },
        {
          "internalType": "uint256",
          "name": "currentRound",
          "type": "uint256"
        },
        {
          "internalType": "uint256",
          "name": "totalRounds",
          "type": "uint256"
        },
        {
          "internalType": "uint256",
          "name": "cost",
          "type": "uint256"
        }
      ],
      "stateMutability": "view",
      "type": "function"
    },
    {
      "inputs": [
        {
          "internalType": "address",
          "name": "",
          "type": "address"
        },
        {
          "internalType": "uint256",
          "name": "",
          "type": "uint256"
        }
      ],
      "name": "UserTaskIDs",
      "outputs": [
        {
          "internalType": "uint256",
          "name": "",
          "type": "uint256"
        }
      ],
      "stateMutability": "view",
      "type": "function"
    },
    {
      "inputs": [],
      "name": "activeCampaignCnt",
      "outputs": [
        {
          "internalType": "uint256",
          "name": "",
          "type": "uint256"
        }
      ],
      "stateMutability": "view",
      "type": "function"
    },
    {
      "inputs": [],
      "name": "admin",
      "outputs": [
        {
          "internalType": "address",
          "name": "",
          "type": "address"
        }
      ],
      "stateMutability": "view",
      "type": "function"
    },
    {
      "inputs": [
        {
          "internalType": "address",
          "name": "",
          "type": "address"
        },
        {
          "internalType": "address",
          "name": "",
          "type": "address"
        }
      ],
      "name": "approval",
      "outputs": [
        {
          "internalType": "bool",
          "name": "",
          "type": "bool"
        }
      ],
      "stateMutability": "view",
      "type": "function"
    },
    {
      "inputs": [
        {
          "internalType": "address",
          "name": "",
          "type": "address"
        }
      ],
      "name": "billAmounts",
      "outputs": [
        {
          "internalType": "uint256",
          "name": "",
          "type": "uint256"
        }
      ],
      "stateMutability": "view",
      "type": "function"
    },
    {
      "inputs": [
        {
          "internalType": "address",
          "name": "_user",
          "type": "address"
        },
        {
          "internalType": "uint256",
          "name": "_amt",
          "type": "uint256"
        }
      ],
      "name": "billUser",
      "outputs": [],
      "stateMutability": "nonpayable",
      "type": "function"
    },
    {
      "inputs": [
        {
          "internalType": "address",
          "name": "",
          "type": "address"
        }
      ],
      "name": "campaignEnabled",
      "outputs": [
        {
          "internalType": "bool",
          "name": "",
          "type": "bool"
        }
      ],
      "stateMutability": "view",
      "type": "function"
    },
    {
      "inputs": [],
      "name": "coordinatorAddress",
      "outputs": [
        {
          "internalType": "address",
          "name": "",
          "type": "address"
        }
      ],
      "stateMutability": "view",
      "type": "function"
    },
    {
      "inputs": [
        {
          "internalType": "bytes32",
          "name": "_orgName",
          "type": "bytes32"
        },
        {
          "internalType": "bytes32",
          "name": "_fundName",
          "type": "bytes32"
        },
        {
          "internalType": "address payable",
          "name": "_orgAdress",
          "type": "address"
        }
      ],
      "name": "createFund",
      "outputs": [],
      "stateMutability": "nonpayable",
      "type": "function"
    },
    {
      "inputs": [
        {
          "internalType": "bytes32",
          "name": "_modelHash",
          "type": "bytes32"
        },
        {
          "internalType": "uint256",
          "name": "_rounds",
          "type": "uint256"
        }
      ],
      "name": "createTask",
      "outputs": [],
      "stateMutability": "payable",
      "type": "function"
    },
    {
      "inputs": [
        {
          "internalType": "address",
          "name": "_user",
          "type": "address"
        }
      ],
      "name": "donateToCampaign",
      "outputs": [],
      "stateMutability": "payable",
      "type": "function"
    },
    {
      "inputs": [
        {
          "internalType": "uint256",
          "name": "_fundIndex",
          "type": "uint256"
        }
      ],
      "name": "donateToFund",
      "outputs": [],
      "stateMutability": "payable",
      "type": "function"
    },
    {
      "inputs": [
        {
          "internalType": "bytes32",
          "name": "_location",
          "type": "bytes32"
        },
        {
          "internalType": "bytes32",
          "name": "_file",
          "type": "bytes32"
        },
        {
          "internalType": "string",
          "name": "_details",
          "type": "string"
        }
      ],
      "name": "fileReport",
      "outputs": [],
      "stateMutability": "nonpayable",
      "type": "function"
    },
    {
      "inputs": [],
      "name": "fundCnt",
      "outputs": [
        {
          "internalType": "uint256",
          "name": "",
          "type": "uint256"
        }
      ],
      "stateMutability": "view",
      "type": "function"
    },
    {
      "inputs": [
        {
          "internalType": "address",
          "name": "",
          "type": "address"
        }
      ],
      "name": "hospitals",
      "outputs": [
        {
          "internalType": "bool",
          "name": "",
          "type": "bool"
        }
      ],
      "stateMutability": "view",
      "type": "function"
    },
    {
      "inputs": [],
      "name": "initialize",
      "outputs": [],
      "stateMutability": "nonpayable",
      "type": "function"
    },
    {
      "inputs": [],
      "name": "nextTaskID",
      "outputs": [
        {
          "internalType": "uint256",
          "name": "",
          "type": "uint256"
        }
      ],
      "stateMutability": "view",
      "type": "function"
    },
    {
      "inputs": [],
      "name": "paused",
      "outputs": [
        {
          "internalType": "bool",
          "name": "",
          "type": "bool"
        }
      ],
      "stateMutability": "view",
      "type": "function"
    },
    {
      "inputs": [],
      "name": "reportCnt",
      "outputs": [
        {
          "internalType": "uint256",
          "name": "",
          "type": "uint256"
        }
      ],
      "stateMutability": "view",
      "type": "function"
    },
    {
      "inputs": [
        {
          "internalType": "bytes32",
          "name": "_campaignData",
          "type": "bytes32"
        }
      ],
      "name": "startCampaign",
      "outputs": [],
      "stateMutability": "nonpayable",
      "type": "function"
    },
    {
      "inputs": [],
      "name": "stopCampaign",
      "outputs": [],
      "stateMutability": "nonpayable",
      "type": "function"
    },
    {
      "inputs": [
        {
          "internalType": "address",
          "name": "_address",
          "type": "address"
        }
      ],
      "name": "toggleAccessToAddress",
      "outputs": [],
      "stateMutability": "nonpayable",
      "type": "function"
    },
    {
      "inputs": [
        {
          "internalType": "address",
          "name": "_address",
          "type": "address"
        }
      ],
      "name": "toggleHospital",
      "outputs": [],
      "stateMutability": "nonpayable",
      "type": "function"
    },
    {
      "inputs": [],
      "name": "togglePause",
      "outputs": [],
      "stateMutability": "nonpayable",
      "type": "function"
    },
    {
      "inputs": [],
      "name": "totalDonationAmount",
      "outputs": [
        {
          "internalType": "uint256",
          "name": "",
          "type": "uint256"
        }
      ],
      "stateMutability": "view",
      "type": "function"
    },
    {
      "inputs": [],
      "name": "totalDonationCnt",
      "outputs": [
        {
          "internalType": "uint256",
          "name": "",
          "type": "uint256"
        }
      ],
      "stateMutability": "view",
      "type": "function"
    },
    {
      "inputs": [
        {
          "internalType": "address",
          "name": "_newAdmin",
          "type": "address"
        }
      ],
      "name": "updateAdmin",
      "outputs": [],
      "stateMutability": "nonpayable",
      "type": "function"
    },
    {
      "inputs": [
        {
          "internalType": "uint256",
          "name": "_taskID",
          "type": "uint256"
        },
        {
          "internalType": "bytes32",
          "name": "_modelHash",
          "type": "bytes32"
        },
        {
          "internalType": "address payable",
          "name": "computer",
          "type": "address"
        }
      ],
      "name": "updateModelForTask",
      "outputs": [],
      "stateMutability": "nonpayable",
      "type": "function"
    },
    {
      "inputs": [],
      "name": "version",
      "outputs": [
        {
          "internalType": "uint256",
          "name": "",
          "type": "uint256"
        }
      ],
      "stateMutability": "view",
      "type": "function"
    }
  ],
  "bytecode": "0x60806040526000805560016003556000600a556000600c556000600d556000600e55600060105534801561003257600080fd5b50611cfc806100426000396000f3fe6080604052600436106101e35760003560e01c806382003b3111610102578063e1c7dbe311610095578063eee9b99e11610064578063eee9b99e146104ff578063f093cf801461051f578063f1fcc8e91461053f578063f851a4401461055f576101e3565b8063e1c7dbe314610495578063e2f273bd146104aa578063e3f2d24f146104ca578063ec270353146104df576101e3565b8063c4ae3168116100d1578063c4ae31681461042b578063c4d8fea714610440578063cd5e548314610460578063e1270b6e14610475576101e3565b806382003b31146103c15780639ff60711146103d6578063b063795c146103f6578063c06a260d1461040b576101e3565b806354fd4d501161017a5780636946c5e9116101495780636946c5e9146103665780636fbb5f62146103865780637c6abc82146103995780638129fc1c146103ac576101e3565b806354fd4d50146102ea5780635af09fe2146102ff5780635c975abb146103145780636092a50214610336576101e3565b806317849646116101b6578063178496461461025257806322af0c0b1461027d5780634013be101461029d5780634e1dd1a4146102ca576101e3565b8063022decd9146101e85780630d3bb50f1461020a57806311cd13ac1461022a57806316f1bc221461023d575b600080fd5b3480156101f457600080fd5b50610208610203366004611773565b610574565b005b34801561021657600080fd5b506102086102253660046117b6565b61067e565b61020861023836600461179e565b61077a565b34801561024957600080fd5b506102086108e8565b34801561025e57600080fd5b506102676109c2565b6040516102749190611bb7565b60405180910390f35b34801561028957600080fd5b506102086102983660046118e3565b6109c8565b3480156102a957600080fd5b506102bd6102b836600461179e565b610c1f565b60405161027491906118f7565b3480156102d657600080fd5b506102086102e5366004611718565b610c56565b3480156102f657600080fd5b50610267610cec565b34801561030b57600080fd5b50610267610cf2565b34801561032057600080fd5b50610329610cf8565b6040516102749190611918565b34801561034257600080fd5b5061035661035136600461179e565b610d19565b6040516102749493929190611bc0565b34801561037257600080fd5b50610267610381366004611773565b610d40565b6102086103943660046118c2565b610d71565b6102086103a7366004611718565b610f95565b3480156103b857600080fd5b506102086110ee565b3480156103cd57600080fd5b506102bd6111ba565b3480156103e257600080fd5b506103296103f1366004611718565b6111d6565b34801561040257600080fd5b506102676111eb565b34801561041757600080fd5b5061020861042636600461179e565b6111f1565b34801561043757600080fd5b506102086112fb565b34801561044c57600080fd5b5061026761045b366004611718565b611399565b34801561046c57600080fd5b506102676113ab565b34801561048157600080fd5b5061032961049036600461173b565b6113b1565b3480156104a157600080fd5b506102676113d1565b3480156104b657600080fd5b506102086104c5366004611718565b6113d7565b3480156104d657600080fd5b5061026761146f565b3480156104eb57600080fd5b506102086104fa366004611718565b611475565b34801561050b57600080fd5b506102bd61051a36600461179e565b61156f565b34801561052b57600080fd5b5061032961053a366004611718565b611597565b34801561054b57600080fd5b5061020861055a3660046117ee565b6115ac565b34801561056b57600080fd5b506102bd61166d565b60025474010000000000000000000000000000000000000000900460ff16156105d2576040517f08c379a00000000000000000000000000000000000000000000000000000000081526004016105c990611b12565b60405180910390fd5b3360009081526006602052604090205460ff161515600114610620576040517f08c379a00000000000000000000000000000000000000000000000000000000081526004016105c990611a6d565b73ffffffffffffffffffffffffffffffffffffffff8216600090815260076020526040902054610651908290611bdb565b73ffffffffffffffffffffffffffffffffffffffff90921660009081526007602052604090209190915550565b60025474010000000000000000000000000000000000000000900460ff16156106d3576040517f08c379a00000000000000000000000000000000000000000000000000000000081526004016105c990611b12565b6000600c5460016106e49190611bdb565b6000818152600f60205260409081902080547fffffffffffffffffffffffff00000000000000000000000000000000000000001673ffffffffffffffffffffffffffffffffffffffff8616179055600c8290555190915084907fb99663894dc2a2c66382f63932042aa530244fe0af348b833f4cddea9cfbeb719061076c90849087906119a4565b60405180910390a250505050565b60025474010000000000000000000000000000000000000000900460ff16156107cf576040517f08c379a00000000000000000000000000000000000000000000000000000000081526004016105c990611b12565b600c5481111561080b576040517f08c379a00000000000000000000000000000000000000000000000000000000081526004016105c990611aa4565b34600d546108199190611bdb565b600d55600e5461082a906001611bdb565b600e556000818152600f602052604080822054905173ffffffffffffffffffffffffffffffffffffffff909116913480156108fc02929091818181858888f1935050505015801561087f573d6000803e3d6000fd5b506000818152600f60205260409081902054905173ffffffffffffffffffffffffffffffffffffffff9091169033907f2317347462a70f36eb7bac6fb953aca2cd01eb3bcdf5f359babe909811eaed67906108dd90859034906119a4565b60405180910390a350565b60025474010000000000000000000000000000000000000000900460ff161561093d576040517f08c379a00000000000000000000000000000000000000000000000000000000081526004016105c990611b12565b336000908152600b602052604090205460ff16151560011461098b576040517f08c379a00000000000000000000000000000000000000000000000000000000081526004016105c9906119ff565b336000908152600b6020526040902080547fffffffffffffffffffffffffffffffffffffffffffffffffffffffffffffff00169055565b600d5481565b60025474010000000000000000000000000000000000000000900460ff1615610a1d576040517f08c379a00000000000000000000000000000000000000000000000000000000081526004016105c990611b12565b60025473ffffffffffffffffffffffffffffffffffffffff163314610a6e576040517f08c379a00000000000000000000000000000000000000000000000000000000081526004016105c990611b49565b600354831115610aaa576040517f08c379a00000000000000000000000000000000000000000000000000000000081526004016105c990611adb565b6000838152600460205260408120600190810154610ac791611bdb565b600085815260046020526040902060020154909150811115610b15576040517f08c379a00000000000000000000000000000000000000000000000000000000081526004016105c9906119c8565b6000848152600460208190526040909120600180820184905585929190910190610b3f9084611c2c565b81548110610b76577f4e487b7100000000000000000000000000000000000000000000000000000000600052603260045260246000fd5b6000918252602080832090910192909255858152600490915260409020600281015460039091015473ffffffffffffffffffffffffffffffffffffffff8416916108fc91610bc49190611bf3565b6040518115909202916000818181858888f19350505050158015610bec573d6000803e3d6000fd5b50837fe1d58799a6d1cef7a4a5e546e03e11850ef52264511394d1a1f9d8ac73fc5e4c844260405161076c9291906119a4565b60098181548110610c2f57600080fd5b60009182526020909120015473ffffffffffffffffffffffffffffffffffffffff16905081565b33600081815260086020908152604080832073ffffffffffffffffffffffffffffffffffffffff861680855292529182902080547fffffffffffffffffffffffffffffffffffffffffffffffffffffffffffffff00811660ff91821615179182905592519193927fad77d1d38ed980518f1c26c8cd8fe0cc39ba4e9092e1b5f69f0bd23ff1de97fb926108dd9290911690611918565b60005481565b60035481565b60025474010000000000000000000000000000000000000000900460ff1681565b60046020526000908152604090208054600182015460028301546003909301549192909184565b60056020528160005260406000208181548110610d5c57600080fd5b90600052602060002001600091509150505481565b60025474010000000000000000000000000000000000000000900460ff1615610dc6576040517f08c379a00000000000000000000000000000000000000000000000000000000081526004016105c990611b12565b610dce611689565b6040518060a001604052806003548152602001600181526020018381526020013481526020018367ffffffffffffffff811115610e34577f4e487b7100000000000000000000000000000000000000000000000000000000600052604160045260246000fd5b604051908082528060200260200182016040528015610e5d578160200160208202803683370190505b508152509050828160800151600081518110610ea2577f4e487b7100000000000000000000000000000000000000000000000000000000600052603260045260246000fd5b60200260200101818152505080600460006003548152602001908152602001600020600082015181600001556020820151816001015560408201518160020155606082015181600301556080820151816004019080519060200190610f089291906116b8565b5050336000908152600560209081526040822060038054825460018181018555938652939094209092019290925554610f42925090611bdb565b60038190553390610f5590600190611c2c565b7fc4dd427940f2b7acf9630ef20ca65879526cfc7a3869483461942027043545f7853442604051610f88939291906119b2565b60405180910390a3505050565b60025474010000000000000000000000000000000000000000900460ff1615610fea576040517f08c379a00000000000000000000000000000000000000000000000000000000081526004016105c990611b12565b73ffffffffffffffffffffffffffffffffffffffff81166000908152600b602052604090205460ff16151560011461104e576040517f08c379a00000000000000000000000000000000000000000000000000000000081526004016105c9906119ff565b60405173ffffffffffffffffffffffffffffffffffffffff8216903480156108fc02916000818181858888f19350505050158015611090573d6000803e3d6000fd5b503373ffffffffffffffffffffffffffffffffffffffff168173ffffffffffffffffffffffffffffffffffffffff167f1d3ff44814877759fdcdec2bace42d6e7e7c1b84ca040ba5d3b4ef988ffd908e346040516108dd9190611bb7565b60015474010000000000000000000000000000000000000000900460ff1615611143576040517f08c379a00000000000000000000000000000000000000000000000000000000081526004016105c990611a36565b600180547fffffffffffffffffffffffff00000000000000000000000000000000000000007fffffffffffffffffffffff00ffffffffffffffffffffffffffffffffffffffff9091167401000000000000000000000000000000000000000017811633908117909255600280549091169091179055565b60025473ffffffffffffffffffffffffffffffffffffffff1681565b600b6020526000908152604090205460ff1681565b600a5481565b60025474010000000000000000000000000000000000000000900460ff1615611246576040517f08c379a00000000000000000000000000000000000000000000000000000000081526004016105c990611b12565b336000908152600b602052604090205460ff166112a857336000908152600b6020526040902080547fffffffffffffffffffffffffffffffffffffffffffffffffffffffffffffff00166001908117909155600a546112a491611bdb565b600a555b3373ffffffffffffffffffffffffffffffffffffffff167f070ebb08109e8151dd49dec1ba08cec18082514f31659837d36c851b908860ce82426040516112f09291906119a4565b60405180910390a250565b60015473ffffffffffffffffffffffffffffffffffffffff16331461134c576040517f08c379a00000000000000000000000000000000000000000000000000000000081526004016105c990611b80565b600280547fffffffffffffffffffffff00ffffffffffffffffffffffffffffffffffffffff8116740100000000000000000000000000000000000000009182900460ff1615909102179055565b60076020526000908152604090205481565b600c5481565b600860209081526000928352604080842090915290825290205460ff1681565b600e5481565b60015473ffffffffffffffffffffffffffffffffffffffff163314611428576040517f08c379a00000000000000000000000000000000000000000000000000000000081526004016105c990611b80565b600180547fffffffffffffffffffffffff00000000000000000000000000000000000000001673ffffffffffffffffffffffffffffffffffffffff92909216919091179055565b60105481565b60025474010000000000000000000000000000000000000000900460ff16156114ca576040517f08c379a00000000000000000000000000000000000000000000000000000000081526004016105c990611b12565b60015473ffffffffffffffffffffffffffffffffffffffff16331461151b576040517f08c379a00000000000000000000000000000000000000000000000000000000081526004016105c990611b80565b73ffffffffffffffffffffffffffffffffffffffff16600090815260066020526040902080547fffffffffffffffffffffffffffffffffffffffffffffffffffffffffffffff00811660ff90911615179055565b600f6020526000908152604090205473ffffffffffffffffffffffffffffffffffffffff1681565b60066020526000908152604090205460ff1681565b60025474010000000000000000000000000000000000000000900460ff1615611601576040517f08c379a00000000000000000000000000000000000000000000000000000000081526004016105c990611b12565b823373ffffffffffffffffffffffffffffffffffffffff166010547f3e1acfd5f2181de07799d35be451dbddfd093425b11baa4b85098d8f871e90a185854260405161164f93929190611923565b60405180910390a4601054611665906001611bdb565b601055505050565b60015473ffffffffffffffffffffffffffffffffffffffff1681565b6040518060a0016040528060008152602001600081526020016000815260200160008152602001606081525090565b8280548282559060005260206000209081019282156116f3579160200282015b828111156116f35782518255916020019190600101906116d8565b506116ff929150611703565b5090565b5b808211156116ff5760008155600101611704565b600060208284031215611729578081fd5b813561173481611ca1565b9392505050565b6000806040838503121561174d578081fd5b823561175881611ca1565b9150602083013561176881611ca1565b809150509250929050565b60008060408385031215611785578182fd5b823561179081611ca1565b946020939093013593505050565b6000602082840312156117af578081fd5b5035919050565b6000806000606084860312156117ca578081fd5b833592506020840135915060408401356117e381611ca1565b809150509250925092565b600080600060608486031215611802578283fd5b833592506020808501359250604085013567ffffffffffffffff80821115611828578384fd5b818701915087601f83011261183b578384fd5b81358181111561184d5761184d611c72565b604051847fffffffffffffffffffffffffffffffffffffffffffffffffffffffffffffffe0601f840116820101818110848211171561188e5761188e611c72565b60405281815283820185018a10156118a4578586fd5b81858501868301378585838301015280955050505050509250925092565b600080604083850312156118d4578182fd5b50508035926020909101359150565b6000806000606084860312156117ca578283fd5b73ffffffffffffffffffffffffffffffffffffffff91909116815260200190565b901515815260200190565b600084825260206060818401528451806060850152825b818110156119565786810183015185820160800152820161193a565b818111156119675783608083870101525b5060408401949094525050601f919091017fffffffffffffffffffffffffffffffffffffffffffffffffffffffffffffffe0160160800192915050565b918252602082015260400190565b9283526020830191909152604082015260600190565b60208082526014908201527f416c6c20526f756e647320436f6d706c65746564000000000000000000000000604082015260600190565b60208082526017908201527f55736572206973206e6f742043616d706169676e696e67000000000000000000604082015260600190565b60208082526013908201527f416c726561647920496e697469616c697a656400000000000000000000000000604082015260600190565b60208082526016908201527f556e617574686f72697a656420486f7374706974616c00000000000000000000604082015260600190565b6020808252600f908201527f496e76616c69642046756e642049440000000000000000000000000000000000604082015260600190565b6020808252600f908201527f496e76616c6964205461736b2049440000000000000000000000000000000000604082015260600190565b60208082526012908201527f436f6e7472616374206973205061757365640000000000000000000000000000604082015260600190565b6020808252601d908201527f596f7520617265206e6f742074686520636f6f7264696e61746f722021000000604082015260600190565b6020808252600a908201527f4f6e6c792041646d696e00000000000000000000000000000000000000000000604082015260600190565b90815260200190565b93845260208401929092526040830152606082015260800190565b60008219821115611bee57611bee611c43565b500190565b600082611c27577f4e487b710000000000000000000000000000000000000000000000000000000081526012600452602481fd5b500490565b600082821015611c3e57611c3e611c43565b500390565b7f4e487b7100000000000000000000000000000000000000000000000000000000600052601160045260246000fd5b7f4e487b7100000000000000000000000000000000000000000000000000000000600052604160045260246000fd5b73ffffffffffffffffffffffffffffffffffffffff81168114611cc357600080fd5b5056fea26469706673582212208386f25834011ac478c3f30b18a0b4527f740d619aa9acc7987204505e68a24564736f6c63430008000033",
  "linkReferences": {},
  "deployedLinkReferences": {}
}