{
  "_format": "hh-sol-artifact-1",
  "contractName": "Saarthi",
  "sourceName": "contracts/SaarthiLogic.sol",
  "abi": [
    {
      "anonymous": false,
      "inputs": [
        {
          "indexed": true,
          "internalType": "uint256",
          "name": "taskID",
          "type": "uint256"
        },
        {
          "indexed": false,
          "internalType": "bytes32",
          "name": "_modelHash",
          "type": "bytes32"
        },
        {
          "indexed": false,
          "internalType": "uint256",
          "name": "_time",
          "type": "uint256"
        }
      ],
      "name": "modelUpdated",
      "type": "event"
    },
    {
      "anonymous": false,
      "inputs": [
        {
          "indexed": true,
          "internalType": "address",
          "name": "_from",
          "type": "address"
        },
        {
          "indexed": true,
          "internalType": "address",
          "name": "_to",
          "type": "address"
        },
        {
          "indexed": false,
          "internalType": "bool",
          "name": "_finalState",
          "type": "bool"
        }
      ],
      "name": "newApproval",
      "type": "event"
    },
    {
      "anonymous": false,
      "inputs": [
        {
          "indexed": true,
          "internalType": "address",
          "name": "_campaigner",
          "type": "address"
        },
        {
          "indexed": false,
          "internalType": "bytes32",
          "name": "_campaignData",
          "type": "bytes32"
        },
        {
          "indexed": false,
          "internalType": "uint256",
          "name": "_createdAt",
          "type": "uint256"
        }
      ],
      "name": "newCampaign",
      "type": "event"
    },
    {
      "anonymous": false,
      "inputs": [
        {
          "indexed": true,
          "internalType": "address",
          "name": "_campaigner",
          "type": "address"
        },
        {
          "indexed": true,
          "internalType": "address",
          "name": "_from",
          "type": "address"
        },
        {
          "indexed": false,
          "internalType": "uint256",
          "name": "amount",
          "type": "uint256"
        }
      ],
      "name": "newCampaignDonation",
      "type": "event"
    },
    {
      "anonymous": false,
      "inputs": [
        {
          "indexed": false,
          "internalType": "uint256",
          "name": "_fundIndex",
          "type": "uint256"
        },
        {
          "indexed": true,
          "internalType": "bytes32",
          "name": "_orgName",
          "type": "bytes32"
        },
        {
          "indexed": false,
          "internalType": "bytes32",
          "name": "_fundName",
          "type": "bytes32"
        }
      ],
      "name": "newFund",
      "type": "event"
    },
    {
      "anonymous": false,
      "inputs": [
        {
          "indexed": false,
          "internalType": "uint256",
          "name": "_fundIndex",
          "type": "uint256"
        },
        {
          "indexed": true,
          "internalType": "address",
          "name": "_sender",
          "type": "address"
        },
        {
          "indexed": true,
          "internalType": "address",
          "name": "_receiver",
          "type": "address"
        },
        {
          "indexed": false,
          "internalType": "uint256",
          "name": "_amount",
          "type": "uint256"
        }
      ],
      "name": "newFundDonation",
      "type": "event"
    },
    {
      "anonymous": false,
      "inputs": [
        {
          "indexed": true,
          "internalType": "uint256",
          "name": "_index",
          "type": "uint256"
        },
        {
          "indexed": true,
          "internalType": "address",
          "name": "_reporter",
          "type": "address"
        },
        {
          "indexed": true,
          "internalType": "bytes32",
          "name": "_location",
          "type": "bytes32"
        },
        {
          "indexed": false,
          "internalType": "bytes32",
          "name": "_file",
          "type": "bytes32"
        },
        {
          "indexed": false,
          "internalType": "string",
          "name": "_details",
          "type": "string"
        },
        {
          "indexed": false,
          "internalType": "uint256",
          "name": "_time",
          "type": "uint256"
        }
      ],
      "name": "newReport",
      "type": "event"
    },
    {
      "anonymous": false,
      "inputs": [
        {
          "indexed": true,
          "internalType": "uint256",
          "name": "taskID",
          "type": "uint256"
        },
        {
          "indexed": true,
          "internalType": "address",
          "name": "_user",
          "type": "address"
        },
        {
          "indexed": false,
          "internalType": "bytes32",
          "name": "_modelHash",
          "type": "bytes32"
        },
        {
          "indexed": false,
          "internalType": "uint256",
          "name": "_amt",
          "type": "uint256"
        },
        {
          "indexed": false,
          "internalType": "uint256",
          "name": "_time",
          "type": "uint256"
        }
      ],
      "name": "newTaskCreated",
      "type": "event"
    },
    {
      "inputs": [
        {
          "internalType": "uint256",
          "name": "",
          "type": "uint256"
        }
      ],
      "name": "Campaigns",
      "outputs": [
        {
          "internalType": "address",
          "name": "",
          "type": "address"
        }
      ],
      "stateMutability": "view",
      "type": "function"
    },
    {
      "inputs": [
        {
          "internalType": "uint256",
          "name": "",
          "type": "uint256"
        }
      ],
      "name": "Funds",
      "outputs": [
        {
          "internalType": "address payable",
          "name": "",
          "type": "address"
        }
      ],
      "stateMutability": "view",
      "type": "function"
    },
    {
      "inputs": [
        {
          "internalType": "uint256",
          "name": "",
          "type": "uint256"
        }
      ],
      "name": "SaarthiTasks",
      "outputs": [
        {
          "internalType": "uint256",
          "name": "taskID",
          "type": "uint256"
        },
        {
          "internalType": "uint256",
          "name": "currentRound",
          "type": "uint256"
        },
        {
          "internalType": "uint256",
          "name": "totalRounds",
          "type": "uint256"
        },
        {
          "internalType": "uint256",
          "name": "cost",
          "type": "uint256"
        }
      ],
      "stateMutability": "view",
      "type": "function"
    },
    {
      "inputs": [
        {
          "internalType": "address",
          "name": "",
          "type": "address"
        },
        {
          "internalType": "uint256",
          "name": "",
          "type": "uint256"
        }
      ],
      "name": "UserTaskIDs",
      "outputs": [
        {
          "internalType": "uint256",
          "name": "",
          "type": "uint256"
        }
      ],
      "stateMutability": "view",
      "type": "function"
    },
    {
      "inputs": [],
      "name": "activeCampaignCnt",
      "outputs": [
        {
          "internalType": "uint256",
          "name": "",
          "type": "uint256"
        }
      ],
      "stateMutability": "view",
      "type": "function"
    },
    {
      "inputs": [],
      "name": "admin",
      "outputs": [
        {
          "internalType": "address",
          "name": "",
          "type": "address"
        }
      ],
      "stateMutability": "view",
      "type": "function"
    },
    {
      "inputs": [
        {
          "internalType": "address",
          "name": "",
          "type": "address"
        },
        {
          "internalType": "address",
          "name": "",
          "type": "address"
        }
      ],
      "name": "approval",
      "outputs": [
        {
          "internalType": "bool",
          "name": "",
          "type": "bool"
        }
      ],
      "stateMutability": "view",
      "type": "function"
    },
    {
      "inputs": [
        {
          "internalType": "address",
          "name": "",
          "type": "address"
        }
      ],
      "name": "billAmounts",
      "outputs": [
        {
          "internalType": "uint256",
          "name": "",
          "type": "uint256"
        }
      ],
      "stateMutability": "view",
      "type": "function"
    },
    {
      "inputs": [
        {
          "internalType": "address",
          "name": "_user",
          "type": "address"
        },
        {
          "internalType": "uint256",
          "name": "_amt",
          "type": "uint256"
        }
      ],
      "name": "billUser",
      "outputs": [],
      "stateMutability": "nonpayable",
      "type": "function"
    },
    {
      "inputs": [
        {
          "internalType": "bytes32",
          "name": "c__0x5a755f78",
          "type": "bytes32"
        }
      ],
      "name": "c_0x5a755f78",
      "outputs": [],
      "stateMutability": "pure",
      "type": "function"
    },
    {
      "inputs": [
        {
          "internalType": "bytes32",
          "name": "c__0xd94ba50d",
          "type": "bytes32"
        }
      ],
      "name": "c_0xd94ba50d",
      "outputs": [],
      "stateMutability": "pure",
      "type": "function"
    },
    {
      "inputs": [
        {
          "internalType": "address",
          "name": "",
          "type": "address"
        }
      ],
      "name": "campaignEnabled",
      "outputs": [
        {
          "internalType": "bool",
          "name": "",
          "type": "bool"
        }
      ],
      "stateMutability": "view",
      "type": "function"
    },
    {
      "inputs": [],
      "name": "coordinatorAddress",
      "outputs": [
        {
          "internalType": "address",
          "name": "",
          "type": "address"
        }
      ],
      "stateMutability": "view",
      "type": "function"
    },
    {
      "inputs": [
        {
          "internalType": "bytes32",
          "name": "_orgName",
          "type": "bytes32"
        },
        {
          "internalType": "bytes32",
          "name": "_fundName",
          "type": "bytes32"
        },
        {
          "internalType": "address payable",
          "name": "_orgAdress",
          "type": "address"
        }
      ],
      "name": "createFund",
      "outputs": [],
      "stateMutability": "nonpayable",
      "type": "function"
    },
    {
      "inputs": [
        {
          "internalType": "bytes32",
          "name": "_modelHash",
          "type": "bytes32"
        },
        {
          "internalType": "uint256",
          "name": "_rounds",
          "type": "uint256"
        }
      ],
      "name": "createTask",
      "outputs": [],
      "stateMutability": "payable",
      "type": "function"
    },
    {
      "inputs": [
        {
          "internalType": "address",
          "name": "_user",
          "type": "address"
        }
      ],
      "name": "donateToCampaign",
      "outputs": [],
      "stateMutability": "payable",
      "type": "function"
    },
    {
      "inputs": [
        {
          "internalType": "uint256",
          "name": "_fundIndex",
          "type": "uint256"
        }
      ],
      "name": "donateToFund",
      "outputs": [],
      "stateMutability": "payable",
      "type": "function"
    },
    {
      "inputs": [
        {
          "internalType": "bytes32",
          "name": "_location",
          "type": "bytes32"
        },
        {
          "internalType": "bytes32",
          "name": "_file",
          "type": "bytes32"
        },
        {
          "internalType": "string",
          "name": "_details",
          "type": "string"
        }
      ],
      "name": "fileReport",
      "outputs": [],
      "stateMutability": "nonpayable",
      "type": "function"
    },
    {
      "inputs": [],
      "name": "fundCnt",
      "outputs": [
        {
          "internalType": "uint256",
          "name": "",
          "type": "uint256"
        }
      ],
      "stateMutability": "view",
      "type": "function"
    },
    {
      "inputs": [
        {
          "internalType": "address",
          "name": "",
          "type": "address"
        }
      ],
      "name": "hospitals",
      "outputs": [
        {
          "internalType": "bool",
          "name": "",
          "type": "bool"
        }
      ],
      "stateMutability": "view",
      "type": "function"
    },
    {
      "inputs": [],
      "name": "initialize",
      "outputs": [],
      "stateMutability": "nonpayable",
      "type": "function"
    },
    {
      "inputs": [],
      "name": "nextTaskID",
      "outputs": [
        {
          "internalType": "uint256",
          "name": "",
          "type": "uint256"
        }
      ],
      "stateMutability": "view",
      "type": "function"
    },
    {
      "inputs": [],
      "name": "paused",
      "outputs": [
        {
          "internalType": "bool",
          "name": "",
          "type": "bool"
        }
      ],
      "stateMutability": "view",
      "type": "function"
    },
    {
      "inputs": [],
      "name": "reportCnt",
      "outputs": [
        {
          "internalType": "uint256",
          "name": "",
          "type": "uint256"
        }
      ],
      "stateMutability": "view",
      "type": "function"
    },
    {
      "inputs": [
        {
          "internalType": "bytes32",
          "name": "_campaignData",
          "type": "bytes32"
        }
      ],
      "name": "startCampaign",
      "outputs": [],
      "stateMutability": "nonpayable",
      "type": "function"
    },
    {
      "inputs": [],
      "name": "stopCampaign",
      "outputs": [],
      "stateMutability": "nonpayable",
      "type": "function"
    },
    {
      "inputs": [
        {
          "internalType": "address",
          "name": "_address",
          "type": "address"
        }
      ],
      "name": "toggleAccessToAddress",
      "outputs": [],
      "stateMutability": "nonpayable",
      "type": "function"
    },
    {
      "inputs": [
        {
          "internalType": "address",
          "name": "_address",
          "type": "address"
        }
      ],
      "name": "toggleHospital",
      "outputs": [],
      "stateMutability": "nonpayable",
      "type": "function"
    },
    {
      "inputs": [],
      "name": "togglePause",
      "outputs": [],
      "stateMutability": "nonpayable",
      "type": "function"
    },
    {
      "inputs": [],
      "name": "totalDonationAmount",
      "outputs": [
        {
          "internalType": "uint256",
          "name": "",
          "type": "uint256"
        }
      ],
      "stateMutability": "view",
      "type": "function"
    },
    {
      "inputs": [],
      "name": "totalDonationCnt",
      "outputs": [
        {
          "internalType": "uint256",
          "name": "",
          "type": "uint256"
        }
      ],
      "stateMutability": "view",
      "type": "function"
    },
    {
      "inputs": [
        {
          "internalType": "address",
          "name": "_newAdmin",
          "type": "address"
        }
      ],
      "name": "updateAdmin",
      "outputs": [],
      "stateMutability": "nonpayable",
      "type": "function"
    },
    {
      "inputs": [
        {
          "internalType": "uint256",
          "name": "_taskID",
          "type": "uint256"
        },
        {
          "internalType": "bytes32",
          "name": "_modelHash",
          "type": "bytes32"
        },
        {
          "internalType": "address payable",
          "name": "computer",
          "type": "address"
        }
      ],
      "name": "updateModelForTask",
      "outputs": [],
      "stateMutability": "nonpayable",
      "type": "function"
    },
    {
      "inputs": [],
      "name": "version",
      "outputs": [
        {
          "internalType": "uint256",
          "name": "",
          "type": "uint256"
        }
      ],
      "stateMutability": "view",
      "type": "function"
    }
  ],
  "bytecode": "0x60806040526000805560016003556000600a556000600c556000600d556000600e55600060105534801561003257600080fd5b50614c9e806100426000396000f3fe6080604052600436106102195760003560e01c80638129fc1c1161011d578063e1270b6e116100b0578063ec2703531161007f578063f093cf8011610064578063f093cf8014610759578063f1fcc8e914610796578063f851a440146107bf57610219565b8063ec270353146106f3578063eee9b99e1461071c57610219565b8063e1270b6e14610637578063e1c7dbe314610674578063e2f273bd1461069f578063e3f2d24f146106c857610219565b8063c06a260d116100ec578063c06a260d1461058f578063c4ae3168146105b8578063c4d8fea7146105cf578063cd5e54831461060c57610219565b80638129fc1c146104e557806382003b31146104fc5780639ff6071114610527578063b063795c1461056457610219565b80634e1dd1a4116101b05780636092a5021161017f5780636fbb5f62116101645780636fbb5f62146104845780637c6abc82146104a05780637d4f6e7e146104bc57610219565b80636092a502146104075780636946c5e91461044757610219565b80634e1dd1a41461035d57806354fd4d50146103865780635af09fe2146103b15780635c975abb146103dc57610219565b806317849646116101ec57806317849646146102a357806322af0c0b146102ce5780634013be10146102f7578063483d67521461033457610219565b8063022decd91461021e5780630d3bb50f1461024757806311cd13ac1461027057806316f1bc221461028c575b600080fd5b34801561022a57600080fd5b506102456004803603810190610240919061423c565b6107ea565b005b34801561025357600080fd5b5061026e600480360381019061026991906142a1565b610ba1565b005b61028a60048036038101906102859190614393565b610f37565b005b34801561029857600080fd5b506102a1611456565b005b3480156102af57600080fd5b506102b86117d5565b6040516102c591906148de565b60405180910390f35b3480156102da57600080fd5b506102f560048036038101906102f091906143bc565b6117db565b005b34801561030357600080fd5b5061031e60048036038101906103199190614393565b611fc4565b60405161032b91906146cf565b60405180910390f35b34801561034057600080fd5b5061035b60048036038101906103569190614278565b612003565b005b34801561036957600080fd5b50610384600480360381019061037f91906141d7565b612006565b005b34801561039257600080fd5b5061039b6122f1565b6040516103a891906148de565b60405180910390f35b3480156103bd57600080fd5b506103c66122f7565b6040516103d391906148de565b60405180910390f35b3480156103e857600080fd5b506103f16122fd565b6040516103fe9190614705565b60405180910390f35b34801561041357600080fd5b5061042e60048036038101906104299190614393565b612310565b60405161043e949392919061494b565b60405180910390f35b34801561045357600080fd5b5061046e6004803603810190610469919061423c565b612340565b60405161047b91906148de565b60405180910390f35b61049e60048036038101906104999190614357565b612371565b005b6104ba60048036038101906104b591906141d7565b612991565b005b3480156104c857600080fd5b506104e360048036038101906104de9190614278565b612dbd565b005b3480156104f157600080fd5b506104fa612dc0565b005b34801561050857600080fd5b50610511613098565b60405161051e91906146cf565b60405180910390f35b34801561053357600080fd5b5061054e600480360381019061054991906141d7565b6130be565b60405161055b9190614705565b60405180910390f35b34801561057057600080fd5b506105796130de565b60405161058691906148de565b60405180910390f35b34801561059b57600080fd5b506105b660048036038101906105b19190614278565b6130e4565b005b3480156105c457600080fd5b506105cd613545565b005b3480156105db57600080fd5b506105f660048036038101906105f191906141d7565b613735565b60405161060391906148de565b60405180910390f35b34801561061857600080fd5b5061062161374d565b60405161062e91906148de565b60405180910390f35b34801561064357600080fd5b5061065e60048036038101906106599190614200565b613753565b60405161066b9190614705565b60405180910390f35b34801561068057600080fd5b50610689613782565b60405161069691906148de565b60405180910390f35b3480156106ab57600080fd5b506106c660048036038101906106c191906141d7565b613788565b005b3480156106d457600080fd5b506106dd613990565b6040516106ea91906148de565b60405180910390f35b3480156106ff57600080fd5b5061071a600480360381019061071591906141d7565b613996565b005b34801561072857600080fd5b50610743600480360381019061073e9190614393565b613d5f565b60405161075091906146ea565b60405180910390f35b34801561076557600080fd5b50610780600480360381019061077b91906141d7565b613d92565b60405161078d9190614705565b60405180910390f35b3480156107a257600080fd5b506107bd60048036038101906107b891906142f0565b613db2565b005b3480156107cb57600080fd5b506107d461405c565b6040516107e191906146cf565b60405180910390f35b6108167f2c10a8da4db64d01d99cc0ca66a76af6ff531131e464501f5f1cba76d298d0a060001b612dbd565b6108427fd60a7a6bdb1f7d12d44bc675456a8e9dd823f3861ad8c2f0e1d9f8b1ccf0245260001b612dbd565b61086e7f58e66b7a34d68a2574970473df79b759c7d2f5774141fbef4ec204eff229e4b160001b612dbd565b61089a7fee6bf20d2fe831473bce6eb1d716e7a2b01b405fbd73f1ac5e166a15784c166760001b612dbd565b60001515600260149054906101000a900460ff161515146108f0576040517f08c379a00000000000000000000000000000000000000000000000000000000081526004016108e79061487e565b60405180910390fd5b61091c7f44a9a81652f32a246cb1980c02a885e7b717554f4c4a0656e8baf44398752c6460001b612dbd565b6109487f482827eed35acd26ebff0c78a86e663ab3ab1159ab3d2054283930724723a09060001b612dbd565b6109747f3b2300ff945c2b6a12653050f6e84b7ac2ba8628f782f5baaf2666703e7eeb2260001b612dbd565b6109a07f20f51c416b9a9cfd0368f54b530c145174db84e67a41848a269f9668b3f0c0ad60001b612dbd565b6109cc7f3aeeab8addcd3e60e2bc9de9b586ad86d9720c19afb53e075c408463fc6e2bd660001b612dbd565b6109f87f6e43f8d0037fd6aad10ca0ed9c25d23cf8a3540b49e3476d37dc960099b0293260001b612dbd565b60011515600660003373ffffffffffffffffffffffffffffffffffffffff1673ffffffffffffffffffffffffffffffffffffffff16815260200190815260200160002060009054906101000a900460ff16151514610a8b576040517f08c379a0000000000000000000000000000000000000000000000000000000008152600401610a829061481e565b60405180910390fd5b610ab77f3fde2b304bf98eeb32b5860944a3777d558a33dfb49ce537b2ef8907084b4e4660001b612dbd565b610ae37fd8ef95f1b40969a6b46386e0cd1a76688c514e2f66cde18e8d88726b081cbe1760001b612dbd565b610b0f7f320a73062f57580320488212a3ef5c4cf069f2108e1b86fa198c758f8b92995e60001b612dbd565b80600760008473ffffffffffffffffffffffffffffffffffffffff1673ffffffffffffffffffffffffffffffffffffffff16815260200190815260200160002054610b5a9190614a0d565b600760008473ffffffffffffffffffffffffffffffffffffffff1673ffffffffffffffffffffffffffffffffffffffff168152602001908152602001600020819055505050565b610bcd7f2c10a8da4db64d01d99cc0ca66a76af6ff531131e464501f5f1cba76d298d0a060001b612dbd565b610bf97fd60a7a6bdb1f7d12d44bc675456a8e9dd823f3861ad8c2f0e1d9f8b1ccf0245260001b612dbd565b610c257f58e66b7a34d68a2574970473df79b759c7d2f5774141fbef4ec204eff229e4b160001b612dbd565b610c517fee6bf20d2fe831473bce6eb1d716e7a2b01b405fbd73f1ac5e166a15784c166760001b612dbd565b60001515600260149054906101000a900460ff16151514610ca7576040517f08c379a0000000000000000000000000000000000000000000000000000000008152600401610c9e9061487e565b60405180910390fd5b610cd37f44a9a81652f32a246cb1980c02a885e7b717554f4c4a0656e8baf44398752c6460001b612dbd565b610cff7f482827eed35acd26ebff0c78a86e663ab3ab1159ab3d2054283930724723a09060001b612dbd565b610d2b7f8ec277065f04151ae832866d3810ba68ca30ce63e553b796398ef9abb5317ca060001b612dbd565b610d577f57995697c3dc42aef29a9162a9fac546a4cad49d96542e3cd7a5ac492d46021f60001b612dbd565b610d837f6482a7e79f0795bc9f7e9bbb5475a86e1e2d3fedf018b52e9e2396d1bc5c42b260001b612dbd565b60006001600c54610d949190614a0d565b9050610dc27ff426143e37ec373dbb2ae4193d7e30e3e2cf93c3ad1e06ace2105172f5d0b1c860001b612dbd565b610dee7fc1cc2d053219e4d997ffd9e7952986053813fc8de79620f074df5c20c661257860001b612dbd565b81600f600083815260200190815260200160002060006101000a81548173ffffffffffffffffffffffffffffffffffffffff021916908373ffffffffffffffffffffffffffffffffffffffff160217905550610e6c7f076fa70b34819bea51dde33224d5048dc202b54799ec22499b54baa6e720525960001b612dbd565b610e987ff4b67e29d88e0897aacfda6af315ee8ea48502eb43d84fb5b7843a12d4151ba060001b612dbd565b80600c81905550610ecb7f1da9c0e1849d26cdad44eb672d910e68dd139ca1e55dd51fc6e04f4db16278d660001b612dbd565b610ef77f15c66be2ae7a633a0cecb1c3b6f57d17f1988462fd6a277abe114e7592782ba960001b612dbd565b837fb99663894dc2a2c66382f63932042aa530244fe0af348b833f4cddea9cfbeb718285604051610f299291906148f9565b60405180910390a250505050565b610f637f2c10a8da4db64d01d99cc0ca66a76af6ff531131e464501f5f1cba76d298d0a060001b612dbd565b610f8f7fd60a7a6bdb1f7d12d44bc675456a8e9dd823f3861ad8c2f0e1d9f8b1ccf0245260001b612dbd565b610fbb7f58e66b7a34d68a2574970473df79b759c7d2f5774141fbef4ec204eff229e4b160001b612dbd565b610fe77fee6bf20d2fe831473bce6eb1d716e7a2b01b405fbd73f1ac5e166a15784c166760001b612dbd565b60001515600260149054906101000a900460ff1615151461103d576040517f08c379a00000000000000000000000000000000000000000000000000000000081526004016110349061487e565b60405180910390fd5b6110697f44a9a81652f32a246cb1980c02a885e7b717554f4c4a0656e8baf44398752c6460001b612dbd565b6110957f482827eed35acd26ebff0c78a86e663ab3ab1159ab3d2054283930724723a09060001b612dbd565b6110c17fcad276b0c5467f2cbefe46140873d4ccffe3d2a3c2f31e12af6933ca747678b560001b612dbd565b6110ed7fa365b5edd6a0c09be4a4f12d0a40f6f2231b23c39761e07d2f0ed7506e800b6160001b612dbd565b6111197f7b16430157a0d0b3ee70879d1b2048f564b7fbcb56b628b48e3daa5010a623b260001b612dbd565b6111457f7cebb1bc77b46ac247053adf510db93bfc4bf9011d4eaf81d3d92784402a97a360001b612dbd565b600c5481111561118a576040517f08c379a00000000000000000000000000000000000000000000000000000000081526004016111819061483e565b60405180910390fd5b6111b67f44575a529f7379cb0b6d837abb75113d9b2df896e884e6b26a6d5d3379a65a2860001b612dbd565b6111e27fddd54921b90d128d8e9772173295fd8b7731a727d65f6d6b118f388b66a5312860001b612dbd565b61120e7fd09a8485a1ac51742f27888af67fd0399a138f560b5360450291791a13730bc260001b612dbd565b34600d5461121c9190614a0d565b600d8190555061124e7fb50ab9890355e983cec94e7fd2832eb1fc7587fcf2783ac4810e6a50c969646260001b612dbd565b61127a7f854170f12af2c81678697f31a9ece4c831e1fcb4fe7cd3d319eccbdc7172487c60001b612dbd565b6001600e546112899190614a0d565b600e819055506112bb7f89a348c320747584114752f9e01158c3caf5c679e05839daf57a3bd745afce2360001b612dbd565b6112e77f9eca7652a821432ff7622657764d46ffa2508ca811b4cbd9988a7f163ef0856760001b612dbd565b600f600082815260200190815260200160002060009054906101000a900473ffffffffffffffffffffffffffffffffffffffff1673ffffffffffffffffffffffffffffffffffffffff166108fc349081150290604051600060405180830381858888f19350505050158015611360573d6000803e3d6000fd5b5061138d7fb87205c1aec7b6c758dc6bc5b2cfd40feea1b4e685f210ebe3b7d2e906668e4060001b612dbd565b6113b97f52d2ff6dd0fddb5e84e6f475ad8c4e7e16cd054decba71592da158b907d6823660001b612dbd565b600f600082815260200190815260200160002060009054906101000a900473ffffffffffffffffffffffffffffffffffffffff1673ffffffffffffffffffffffffffffffffffffffff163373ffffffffffffffffffffffffffffffffffffffff167f2317347462a70f36eb7bac6fb953aca2cd01eb3bcdf5f359babe909811eaed67833460405161144b929190614922565b60405180910390a350565b6114827f2c10a8da4db64d01d99cc0ca66a76af6ff531131e464501f5f1cba76d298d0a060001b612dbd565b6114ae7fd60a7a6bdb1f7d12d44bc675456a8e9dd823f3861ad8c2f0e1d9f8b1ccf0245260001b612dbd565b6114da7f58e66b7a34d68a2574970473df79b759c7d2f5774141fbef4ec204eff229e4b160001b612dbd565b6115067fee6bf20d2fe831473bce6eb1d716e7a2b01b405fbd73f1ac5e166a15784c166760001b612dbd565b60001515600260149054906101000a900460ff1615151461155c576040517f08c379a00000000000000000000000000000000000000000000000000000000081526004016115539061487e565b60405180910390fd5b6115887f44a9a81652f32a246cb1980c02a885e7b717554f4c4a0656e8baf44398752c6460001b612dbd565b6115b47f482827eed35acd26ebff0c78a86e663ab3ab1159ab3d2054283930724723a09060001b612dbd565b6115e07f823aec777c9dfd372a53b1b48c4b8d3f312f1c7ae2c6c657c9c67bf5a37213ab60001b612dbd565b61160c7fb8eadccf24dfa952f685f33d4319026b0a70cfaed37663bd7778dc261716204f60001b612dbd565b6116387f3fd4e04e5117b1aa53a49a86aef38bb26773aeaf400a8eca28c0799149132b2360001b612dbd565b6116647f2d64f8f354ea36d19694283144b8d1e3805e80dada3e65bf487a7164371da45860001b612dbd565b60011515600b60003373ffffffffffffffffffffffffffffffffffffffff1673ffffffffffffffffffffffffffffffffffffffff16815260200190815260200160002060009054906101000a900460ff161515146116f7576040517f08c379a00000000000000000000000000000000000000000000000000000000081526004016116ee906147de565b60405180910390fd5b6117237f12378c183e303754ba4b0f9047775d59a87c60b42466bd24312866827982671460001b612dbd565b61174f7f25db13e3232fe2481d122944d5722014264404471f93dd95b2056b63841b8d4560001b612dbd565b61177b7fd1531c1ae183378e4d023e80734569a014b68585e1c0520c16565cd23b2f8e6860001b612dbd565b6000600b60003373ffffffffffffffffffffffffffffffffffffffff1673ffffffffffffffffffffffffffffffffffffffff16815260200190815260200160002060006101000a81548160ff021916908315150217905550565b600d5481565b6118077f2c10a8da4db64d01d99cc0ca66a76af6ff531131e464501f5f1cba76d298d0a060001b612dbd565b6118337fd60a7a6bdb1f7d12d44bc675456a8e9dd823f3861ad8c2f0e1d9f8b1ccf0245260001b612dbd565b61185f7f58e66b7a34d68a2574970473df79b759c7d2f5774141fbef4ec204eff229e4b160001b612dbd565b61188b7fee6bf20d2fe831473bce6eb1d716e7a2b01b405fbd73f1ac5e166a15784c166760001b612dbd565b60001515600260149054906101000a900460ff161515146118e1576040517f08c379a00000000000000000000000000000000000000000000000000000000081526004016118d89061487e565b60405180910390fd5b61190d7f44a9a81652f32a246cb1980c02a885e7b717554f4c4a0656e8baf44398752c6460001b612dbd565b6119397f482827eed35acd26ebff0c78a86e663ab3ab1159ab3d2054283930724723a09060001b612dbd565b6119657f1c72cf469a5a60c4e25e631e0bb1665aecf7cc1491069910d71c1936c18028a860001b612dbd565b6119917f91f522b4e31aca990a6edb08695af247245c3e925ba492e5cfc041cbb8aa49df60001b612dbd565b6119bd7fa8b693d17d9168516a02f18660b6d196eede195e846caf05dd82a339fe013eee60001b612dbd565b6119e97f567ab75557d01c21e01e50acd79b71c696546da0e650a9237e498a629a920c1c60001b612dbd565b600260009054906101000a900473ffffffffffffffffffffffffffffffffffffffff1673ffffffffffffffffffffffffffffffffffffffff163373ffffffffffffffffffffffffffffffffffffffff1614611a79576040517f08c379a0000000000000000000000000000000000000000000000000000000008152600401611a709061489e565b60405180910390fd5b611aa57f8d7c08000814e20507348ac511d8d00b54cc406abe61accb2cf406953e86691e60001b612dbd565b611ad17f0caf3fd6f78b67dfe9f683d37ea261ab5f2731513b179cf5236409c1963d15f760001b612dbd565b611afd7f36f4ece00d0004594a9d05c3a8aceed9112599e565cf1fc64156a42317fcbb8b60001b612dbd565b611b297f6407fae6f18701b7685927460f10e6ea1ebb1d86b80e45cd830622e200a86dac60001b612dbd565b600354831115611b6e576040517f08c379a0000000000000000000000000000000000000000000000000000000008152600401611b659061485e565b60405180910390fd5b611b9a7f70366277dcf4c39c1cfc8624fed10a02b9d0f1c2f4c8d2b5aaf9835db25298cb60001b612dbd565b611bc67ff3f39720a6066751524ca15dbe085ff30a7e527c30732a39a3253f57720a86a660001b612dbd565b611bf27fbb45acfef6a158cc3ac11cdcc23b528957089bc93f5520681ef28dd66147fe2560001b612dbd565b600060016004600086815260200190815260200160002060010154611c179190614a0d565b9050611c457f67480a047348cdf3c273e9873823ad1bf680c6fd7d9affacf724dec2601ba4fa60001b612dbd565b611c717fab60b80a15530eef71354b3148762a49736b32c60ec2fc912283bbfbfc40916160001b612dbd565b611c9d7fbd1e3fa90c9a049e049da57d42c3d325e46a52e8937001e908cfb7ae15e1049c60001b612dbd565b6004600085815260200190815260200160002060020154811115611cf6576040517f08c379a0000000000000000000000000000000000000000000000000000000008152600401611ced906147be565b60405180910390fd5b611d227f559377b329f04088b1f7d6435c0122fec35602daa797f728fa50914f9d303dc160001b612dbd565b611d4e7f307b99cd90ca4dbba4544a280bab45bab27213618bd0d303d90f0adbf5f427c360001b612dbd565b611d7a7f7baa32f7ac942769cc34efc031d7b92e8a94208030ba16d90f3736a4968503af60001b612dbd565b806004600086815260200190815260200160002060010181905550611dc17fc162ddd6514cd977674e90c79fd99a1365ac19088a5dc8d6a9bd72edce0deaa760001b612dbd565b611ded7f23652d651088b08f5f5bcf185f61fe9ae59150c7fb41e970bb2e327fb2c0882160001b612dbd565b8260046000868152602001908152602001600020600401600183611e119190614a94565b81548110611e48577f4e487b7100000000000000000000000000000000000000000000000000000000600052603260045260246000fd5b9060005260206000200181905550611e827fc9f985855fd93c7b16833cf6cf4d2434fc5769d6ea23799a47fd2d0b65f0a96760001b612dbd565b611eae7faec56adf583223e00e48071aaf0b0b0335a4a7e6bcf218d90aa2d84715c60a7960001b612dbd565b8173ffffffffffffffffffffffffffffffffffffffff166108fc60046000878152602001908152602001600020600201546004600088815260200190815260200160002060030154611f009190614a63565b9081150290604051600060405180830381858888f19350505050158015611f2b573d6000803e3d6000fd5b50611f587f6743f223adabd212d89ebaf8eae371d1a4a95f900921cb0843044e7873a79ab260001b612dbd565b611f847f60f113e5aec0b22df154ead65aea6029d1f125521f9e558c7ecf3287418051c160001b612dbd565b837fe1d58799a6d1cef7a4a5e546e03e11850ef52264511394d1a1f9d8ac73fc5e4c8442604051611fb692919061475e565b60405180910390a250505050565b60098181548110611fd457600080fd5b906000526020600020016000915054906101000a900473ffffffffffffffffffffffffffffffffffffffff1681565b50565b6120327f2096f7316c2fc3298b471083f2e3593395e6b8068596639506a06385439bd77160001b612dbd565b61205e7fb5c6da5e232ee3e9ffbcdbef516b1b3661693d69ab5ae619568e7312fc0b174360001b612dbd565b61208a7ff828ae879820be38d7b5651db8f77205522947887c6f9e8f912a96655d1cb5f060001b612dbd565b600860003373ffffffffffffffffffffffffffffffffffffffff1673ffffffffffffffffffffffffffffffffffffffff16815260200190815260200160002060008273ffffffffffffffffffffffffffffffffffffffff1673ffffffffffffffffffffffffffffffffffffffff16815260200190815260200160002060009054906101000a900460ff1615600860003373ffffffffffffffffffffffffffffffffffffffff1673ffffffffffffffffffffffffffffffffffffffff16815260200190815260200160002060008373ffffffffffffffffffffffffffffffffffffffff1673ffffffffffffffffffffffffffffffffffffffff16815260200190815260200160002060006101000a81548160ff0219169083151502179055506121d47f26b5265b39a977a9a20b3a1e5df1319b72cd7bcbfc66f45a4be0592c3c18422760001b612dbd565b6122007fd79ea959dc358a0897589f9293898b9b4d885cab9bf8f3568386386dcaba4ce560001b612dbd565b8073ffffffffffffffffffffffffffffffffffffffff163373ffffffffffffffffffffffffffffffffffffffff167fad77d1d38ed980518f1c26c8cd8fe0cc39ba4e9092e1b5f69f0bd23ff1de97fb600860003373ffffffffffffffffffffffffffffffffffffffff1673ffffffffffffffffffffffffffffffffffffffff16815260200190815260200160002060008573ffffffffffffffffffffffffffffffffffffffff1673ffffffffffffffffffffffffffffffffffffffff16815260200190815260200160002060009054906101000a900460ff166040516122e69190614705565b60405180910390a350565b60005481565b60035481565b600260149054906101000a900460ff1681565b60046020528060005260406000206000915090508060000154908060010154908060020154908060030154905084565b6005602052816000526040600020818154811061235c57600080fd5b90600052602060002001600091509150505481565b61239d7f2c10a8da4db64d01d99cc0ca66a76af6ff531131e464501f5f1cba76d298d0a060001b612dbd565b6123c97fd60a7a6bdb1f7d12d44bc675456a8e9dd823f3861ad8c2f0e1d9f8b1ccf0245260001b612dbd565b6123f57f58e66b7a34d68a2574970473df79b759c7d2f5774141fbef4ec204eff229e4b160001b612dbd565b6124217fee6bf20d2fe831473bce6eb1d716e7a2b01b405fbd73f1ac5e166a15784c166760001b612dbd565b60001515600260149054906101000a900460ff16151514612477576040517f08c379a000000000000000000000000000000000000000000000000000000000815260040161246e9061487e565b60405180910390fd5b6124a37f44a9a81652f32a246cb1980c02a885e7b717554f4c4a0656e8baf44398752c6460001b612dbd565b6124cf7f482827eed35acd26ebff0c78a86e663ab3ab1159ab3d2054283930724723a09060001b612dbd565b6124fb7f25bceb0000ec0f6cc3ba12e9b960752052e976c2df5d788f37b5da7dac78f1ca60001b612dbd565b6125277ff9242be87869c018f060c6845ef371801c93c15c947910455aa32940d28029b760001b612dbd565b6125537f37b9b08b863ad2d19ed93c126c21428097aae2aff6e33660bfe4599137ed24ef60001b612dbd565b61255b614082565b6125877f92fd2b57115e28088b39a9ffdf4f10212dc0201efa5e981462be29694deff2e160001b612dbd565b6125b37feffd08acf2af4addeb09c1c6be3280088a0c1a6b5ee25ca86204f2098bd39a3260001b612dbd565b6040518060a001604052806003548152602001600181526020018381526020013481526020018367ffffffffffffffff811115612619577f4e487b7100000000000000000000000000000000000000000000000000000000600052604160045260246000fd5b6040519080825280602002602001820160405280156126475781602001602082028036833780820191505090505b5081525090506126797f10ed6cc5a42744d6773dba7086afe3d413c27bbddd280f23e4e549e0d052ca3a60001b612dbd565b6126a57f73b87411d898756ce83276aacb6190ecdfa3966e4a1ba1ea683ed795bd9571ef60001b612dbd565b8281608001516000815181106126e4577f4e487b7100000000000000000000000000000000000000000000000000000000600052603260045260246000fd5b60200260200101818152505061271c7f178660a7d420860aea6c31230b57e48b7f55e0a076a7b57b88ed031bf76aaa5d60001b612dbd565b6127487fa363141c3b512e67d9766dac84344d61593d73da5fcf021c5797e16ccea2f99b60001b612dbd565b806004600060035481526020019081526020016000206000820151816000015560208201518160010155604082015181600201556060820151816003015560808201518160040190805190602001906127a29291906140b1565b509050506127d27f030c337f673faec957511e5619aa4893e60cf78b2515ce92cbb4efdabc62193560001b612dbd565b6127fe7f1bbe933e241edd4d32b78fc1f6ba499a0fa961ad3775bbb88d1ce494ab0983a160001b612dbd565b600560003373ffffffffffffffffffffffffffffffffffffffff1673ffffffffffffffffffffffffffffffffffffffff16815260200190815260200160002060035490806001815401808255809150506001900390600052602060002001600090919091909150556128927f794a5946a0c20463025cc3f64580460c069e89c9dfcc9f7de95e87e08296140460001b612dbd565b6128be7f0a68241e49d96ff49a50663ce6e3e834a3a3df95a58e7c07fbd042891da53f0660001b612dbd565b60016003546128cd9190614a0d565b6003819055506128ff7f1b2e57ecb3cd0813c0e7d6e459060ae0c11ab3bf6ae80cc23371ea0fdfc33b6360001b612dbd565b61292b7fc6ec0ced80f4b9f82fbf7aa2d5163ee71dc18a4ddb85c93019cb323f82414d0f60001b612dbd565b3373ffffffffffffffffffffffffffffffffffffffff1660016003546129519190614a94565b7fc4dd427940f2b7acf9630ef20ca65879526cfc7a3869483461942027043545f785344260405161298493929190614787565b60405180910390a3505050565b6129bd7f2c10a8da4db64d01d99cc0ca66a76af6ff531131e464501f5f1cba76d298d0a060001b612dbd565b6129e97fd60a7a6bdb1f7d12d44bc675456a8e9dd823f3861ad8c2f0e1d9f8b1ccf0245260001b612dbd565b612a157f58e66b7a34d68a2574970473df79b759c7d2f5774141fbef4ec204eff229e4b160001b612dbd565b612a417fee6bf20d2fe831473bce6eb1d716e7a2b01b405fbd73f1ac5e166a15784c166760001b612dbd565b60001515600260149054906101000a900460ff16151514612a97576040517f08c379a0000000000000000000000000000000000000000000000000000000008152600401612a8e9061487e565b60405180910390fd5b612ac37f44a9a81652f32a246cb1980c02a885e7b717554f4c4a0656e8baf44398752c6460001b612dbd565b612aef7f482827eed35acd26ebff0c78a86e663ab3ab1159ab3d2054283930724723a09060001b612dbd565b612b1b7f117062ef6dbdaf620c39fd9bb29c2171e1ec93f178dc56b69959b75f666408fa60001b612dbd565b612b477f1460deadaaa29254f08c399c6eac0123b1f915e3622dd53640a08a7c9fcfb80260001b612dbd565b612b737f7de6a78122c6579da8de5a50608b24ff2600ccc9eb0736f0ec0d66ff6fdfa4da60001b612dbd565b612b9f7fd6ac3d63c8dd93b46d07e2c8832a9edefdefb40f1ad9fbdcdfb43ec75006ea6860001b612dbd565b60011515600b60008373ffffffffffffffffffffffffffffffffffffffff1673ffffffffffffffffffffffffffffffffffffffff16815260200190815260200160002060009054906101000a900460ff16151514612c32576040517f08c379a0000000000000000000000000000000000000000000000000000000008152600401612c29906147de565b60405180910390fd5b612c5e7f332cd9ee8299b1338e37a59115697b21c6465137a328fb663fd35833237ec51260001b612dbd565b612c8a7fd9fae4bf806fc1f49e40c5a106ec6b96eb7874d579976eefa1f47f55e6defca660001b612dbd565b612cb67fff92682983311243261b5bf03ed80a709e6ee4890ee79eed48d3797e5aaea74260001b612dbd565b8073ffffffffffffffffffffffffffffffffffffffff166108fc349081150290604051600060405180830381858888f19350505050158015612cfc573d6000803e3d6000fd5b50612d297f725c3b736548e2a70110790f6d814a53ee8f25df695cf23baaabfcc8048d6e9a60001b612dbd565b612d557f6498aac7b42a92d5c8750d6117d7f3fb3e5b6edb14fa8fe428e79f4699c49df960001b612dbd565b3373ffffffffffffffffffffffffffffffffffffffff168173ffffffffffffffffffffffffffffffffffffffff167f1d3ff44814877759fdcdec2bace42d6e7e7c1b84ca040ba5d3b4ef988ffd908e34604051612db291906148de565b60405180910390a350565b50565b612dec7f1faf3a122deda332494c96fbaa8218c943786f59870da159160767cd7043478060001b612dbd565b612e187f317278a56a3a56ae5dc70544190bd3c696b7dcd86d480000bf32b0218d1dc72f60001b612dbd565b612e447f8bc7777b85cc04497668e94b8a40a4002a0d7e12242dcb8a9c6268cb5b8dea1e60001b612dbd565b612e707f6335ce9312c8fb1cf8338cfd3bb812bff768b88af0ec9c5000b43e7c2b4c9e4660001b612dbd565b60001515600160149054906101000a900460ff16151514612ec6576040517f08c379a0000000000000000000000000000000000000000000000000000000008152600401612ebd906147fe565b60405180910390fd5b612ef27f4ba8be74f8e0430f00257c5846bf9a550d34b0d4546f8661d31c21ab4f46a1c660001b612dbd565b612f1e7f6f8317ae139fd16b67e3a32338de2e8624183cc068b6e9164d16e7566bfca8e560001b612dbd565b612f4a7f941886752758b6c2ace75e8f9f20deb1af008cf23ac8880d970d845b8e96740560001b612dbd565b60018060146101000a81548160ff021916908315150217905550612f907f37e24b96175e5f54031c6472bcb912eba67b25d049642153d281d5c7aa6ea38960001b612dbd565b612fbc7fefebd9a9a01d9ffbd568141bc9d9d4ee12def08d09d06e158026a1e458c396dc60001b612dbd565b33600160006101000a81548173ffffffffffffffffffffffffffffffffffffffff021916908373ffffffffffffffffffffffffffffffffffffffff1602179055506130297fc2f8884a9d4f2a0590eff2d9e4b02be39314b9279604da0ef6dbe1a9f11458e160001b612dbd565b6130557fb298f10074f55bea4cb07d2e6b3a4d36110b004017192b665c2b880f31603d6560001b612dbd565b33600260006101000a81548173ffffffffffffffffffffffffffffffffffffffff021916908373ffffffffffffffffffffffffffffffffffffffff160217905550565b600260009054906101000a900473ffffffffffffffffffffffffffffffffffffffff1681565b600b6020528060005260406000206000915054906101000a900460ff1681565b600a5481565b6131107f2c10a8da4db64d01d99cc0ca66a76af6ff531131e464501f5f1cba76d298d0a060001b612dbd565b61313c7fd60a7a6bdb1f7d12d44bc675456a8e9dd823f3861ad8c2f0e1d9f8b1ccf0245260001b612dbd565b6131687f58e66b7a34d68a2574970473df79b759c7d2f5774141fbef4ec204eff229e4b160001b612dbd565b6131947fee6bf20d2fe831473bce6eb1d716e7a2b01b405fbd73f1ac5e166a15784c166760001b612dbd565b60001515600260149054906101000a900460ff161515146131ea576040517f08c379a00000000000000000000000000000000000000000000000000000000081526004016131e19061487e565b60405180910390fd5b6132167f44a9a81652f32a246cb1980c02a885e7b717554f4c4a0656e8baf44398752c6460001b612dbd565b6132427f482827eed35acd26ebff0c78a86e663ab3ab1159ab3d2054283930724723a09060001b612dbd565b61326e7f35010d5a11340c8aa38cbb2bda0b81d4504562f7261316df6404daf92ff3de0c60001b612dbd565b61329a7ff92df508b16961db40fa38d9008727a83ecfa34d5f0eb4002c74b32cc5f9c4d960001b612dbd565b6132c67f9c0031c968a951f2f1b44cc354c1adc0012d66ae9f628802ed6dd4f777716d8160001b612dbd565b60001515600b60003373ffffffffffffffffffffffffffffffffffffffff1673ffffffffffffffffffffffffffffffffffffffff16815260200190815260200160002060009054906101000a900460ff161515141561346d5761334b7ff3af68d72988d2634c52e1119f0f777cc5e9b3e161c03d949e6ce43a4819f24960001b612dbd565b6133777f79483aa373fddeb61bf3ed88cd07e6afb3a11496ee1ec72208f3a5636c1637a860001b612dbd565b6133a37f0f3f07ad673c228515afa61d3fe3a2a0c5455657f7eacf4715729317755c991a60001b612dbd565b6001600b60003373ffffffffffffffffffffffffffffffffffffffff1673ffffffffffffffffffffffffffffffffffffffff16815260200190815260200160002060006101000a81548160ff0219169083151502179055506134277fb03f973de0257537846855f0fde881a067344258fcdc6d98ffc05e7d5b97f29960001b612dbd565b6134537fceda98d3c715ebd634b21261585e952d9ac234bddd2e5054fb2dbe895af186f660001b612dbd565b6001600a546134629190614a0d565b600a8190555061349a565b6134997f550e4a70f803a1d82127adc256d13b57a27ff8b5fdcf74eb0bf75491fda78a9e60001b612dbd565b5b6134c67f707297efd293ae437c226e9e10a6ca218ce96ed63ae651ea923335b7fff81fcc60001b612dbd565b6134f27feeaabe8abd0a9d7083c814bb25326dd07a38e5c31a315db50f0102dccfe47de660001b612dbd565b3373ffffffffffffffffffffffffffffffffffffffff167f070ebb08109e8151dd49dec1ba08cec18082514f31659837d36c851b908860ce824260405161353a92919061475e565b60405180910390a250565b6135717fc3dea16921d8de1933ddbc59da271727b339b03347a084ffd069f0ff5d642e1960001b612dbd565b61359d7fb7d9d56e52d903c8fd2fd77280f892ab8103a0b2205cb8110c60d3b2019f63f860001b612dbd565b6135c97fc86984b1b8e53e66211a0270b422598de79395a2562ff38539b354c52fb6f04d60001b612dbd565b6135f57f6d4e710fb0c9a29521bf53fd3cebe477c04dfa07dff73d9508a0fa56aa1926cb60001b612dbd565b600160009054906101000a900473ffffffffffffffffffffffffffffffffffffffff1673ffffffffffffffffffffffffffffffffffffffff163373ffffffffffffffffffffffffffffffffffffffff1614613685576040517f08c379a000000000000000000000000000000000000000000000000000000000815260040161367c906148be565b60405180910390fd5b6136b17f31b985be2fbdfcb0a735912088758a5bfcde7204df761df6613283c9bcb92a1e60001b612dbd565b6136dd7f7be5c16d25c389dac3243d1d694854dc5c150ff361ea2c5ef79971f492406e0c60001b612dbd565b6137097f170125157263eb0f540ffb8f373261cff912c45d3a05f39cb75931e22550863e60001b612dbd565b600260149054906101000a900460ff1615600260146101000a81548160ff021916908315150217905550565b60076020528060005260406000206000915090505481565b600c5481565b60086020528160005260406000206020528060005260406000206000915091509054906101000a900460ff1681565b600e5481565b6137b47fd4a18637697be3ce4338046e764b6750bfd19cf0b811f8e444dc3a42782f4e1b60001b612dbd565b6137e07f5e617f52463ed621fc57abb3f1ff180d806dc4b0c6da050099e4f8c4a21bd8fb60001b612dbd565b61380c7f3e0410c0bcc06bef14e12c51fa22a274fe7a1071c1a565f3bb2ac03fa6b4167660001b612dbd565b6138387f993dc4a644b45624ae6ea23f9fcc77334cc6fed6a5b54adf5581de50f42a365960001b612dbd565b600160009054906101000a900473ffffffffffffffffffffffffffffffffffffffff1673ffffffffffffffffffffffffffffffffffffffff163373ffffffffffffffffffffffffffffffffffffffff16146138c8576040517f08c379a00000000000000000000000000000000000000000000000000000000081526004016138bf906148be565b60405180910390fd5b6138f47fcb204c982169b7cd6cdc757116027e65053dedb6f409e700fc101761554e4f1f60001b612dbd565b6139207f1aa5efcaa3a7cc95b81e3d00c17582dc5ab3ac5145aabbe1d755066e98be1daa60001b612dbd565b61394c7ff3b8c5e0fcc201dfd2a339b0591bcfc2a8d0efb3d1c9fe5dae566dd6e5ab73cf60001b612dbd565b80600160006101000a81548173ffffffffffffffffffffffffffffffffffffffff021916908373ffffffffffffffffffffffffffffffffffffffff16021790555050565b60105481565b6139c27f2c10a8da4db64d01d99cc0ca66a76af6ff531131e464501f5f1cba76d298d0a060001b612dbd565b6139ee7fd60a7a6bdb1f7d12d44bc675456a8e9dd823f3861ad8c2f0e1d9f8b1ccf0245260001b612dbd565b613a1a7f58e66b7a34d68a2574970473df79b759c7d2f5774141fbef4ec204eff229e4b160001b612dbd565b613a467fee6bf20d2fe831473bce6eb1d716e7a2b01b405fbd73f1ac5e166a15784c166760001b612dbd565b60001515600260149054906101000a900460ff16151514613a9c576040517f08c379a0000000000000000000000000000000000000000000000000000000008152600401613a939061487e565b60405180910390fd5b613ac87f44a9a81652f32a246cb1980c02a885e7b717554f4c4a0656e8baf44398752c6460001b612dbd565b613af47f482827eed35acd26ebff0c78a86e663ab3ab1159ab3d2054283930724723a09060001b612dbd565b613b207fa7df47b36306bdb1933bc49155e594ef8e2b9fe2cd231284e081a65a652214b160001b612dbd565b613b4c7f744a403c168d930e154f812d77dcac46fe0a5b2da4d12f3d6727267198b4cc2760001b612dbd565b613b787fdf78c09317c6a8950463a736cc0b2fbcbf18ee4a6b501118d0c835b0128982b860001b612dbd565b613ba47fc7929b6f44e2616a64d474a0f8fdd4de91866993a2586973dcfe64e9b785b75860001b612dbd565b600160009054906101000a900473ffffffffffffffffffffffffffffffffffffffff1673ffffffffffffffffffffffffffffffffffffffff163373ffffffffffffffffffffffffffffffffffffffff1614613c34576040517f08c379a0000000000000000000000000000000000000000000000000000000008152600401613c2b906148be565b60405180910390fd5b613c607f6261ab6d2b7232632336a49255556ea152be0c6426c0d5428c4d13dd520ba0a860001b612dbd565b613c8c7f38fa1fe3c37de019bd266468e53a6c1c5558142d586e8775210ffae4f3dacb8460001b612dbd565b613cb87f513dd71d25ee3b37df954fd585b36e4d6b4c4bc870c1e37bc91e7e7e5a3f4ffb60001b612dbd565b600660008273ffffffffffffffffffffffffffffffffffffffff1673ffffffffffffffffffffffffffffffffffffffff16815260200190815260200160002060009054906101000a900460ff1615600660008373ffffffffffffffffffffffffffffffffffffffff1673ffffffffffffffffffffffffffffffffffffffff16815260200190815260200160002060006101000a81548160ff02191690831515021790555050565b600f6020528060005260406000206000915054906101000a900473ffffffffffffffffffffffffffffffffffffffff1681565b60066020528060005260406000206000915054906101000a900460ff1681565b613dde7f2c10a8da4db64d01d99cc0ca66a76af6ff531131e464501f5f1cba76d298d0a060001b612dbd565b613e0a7fd60a7a6bdb1f7d12d44bc675456a8e9dd823f3861ad8c2f0e1d9f8b1ccf0245260001b612dbd565b613e367f58e66b7a34d68a2574970473df79b759c7d2f5774141fbef4ec204eff229e4b160001b612dbd565b613e627fee6bf20d2fe831473bce6eb1d716e7a2b01b405fbd73f1ac5e166a15784c166760001b612dbd565b60001515600260149054906101000a900460ff16151514613eb8576040517f08c379a0000000000000000000000000000000000000000000000000000000008152600401613eaf9061487e565b60405180910390fd5b613ee47f44a9a81652f32a246cb1980c02a885e7b717554f4c4a0656e8baf44398752c6460001b612dbd565b613f107f482827eed35acd26ebff0c78a86e663ab3ab1159ab3d2054283930724723a09060001b612dbd565b613f3c7f7114d800ae2dc009140607fa28d8c9611c15e102535ca990b4d95d1dec2a161760001b612dbd565b613f687f44eff928658353c04535945d7e88b78c31cf2a4eb3fb7595fe1e884bcbbfcf4060001b612dbd565b613f947fba367887562de99f6481541c728423701537f776ec8752d02429c9c81ae5940860001b612dbd565b823373ffffffffffffffffffffffffffffffffffffffff166010547f3e1acfd5f2181de07799d35be451dbddfd093425b11baa4b85098d8f871e90a1858542604051613fe293929190614720565b60405180910390a46140167fda2f444d9d518ec474f2949ad203f26b4ab702a489683150973f66bb8a68577f60001b612dbd565b6140427f330919efa870947e76cc1296112abb295fa7f27b4888a771fcc15097dd35008660001b612dbd565b60016010546140519190614a0d565b601081905550505050565b600160009054906101000a900473ffffffffffffffffffffffffffffffffffffffff1681565b6040518060a0016040528060008152602001600081526020016000815260200160008152602001606081525090565b8280548282559060005260206000209081019282156140ed579160200282015b828111156140ec5782518255916020019190600101906140d1565b5b5090506140fa91906140fe565b5090565b5b808211156141175760008160009055506001016140ff565b5090565b600061412e614129846149c1565b614990565b90508281526020810184848401111561414657600080fd5b614151848285614b2c565b509392505050565b60008135905061416881614c0c565b92915050565b60008135905061417d81614c23565b92915050565b60008135905061419281614c3a565b92915050565b600082601f8301126141a957600080fd5b81356141b984826020860161411b565b91505092915050565b6000813590506141d181614c51565b92915050565b6000602082840312156141e957600080fd5b60006141f784828501614159565b91505092915050565b6000806040838503121561421357600080fd5b600061422185828601614159565b925050602061423285828601614159565b9150509250929050565b6000806040838503121561424f57600080fd5b600061425d85828601614159565b925050602061426e858286016141c2565b9150509250929050565b60006020828403121561428a57600080fd5b600061429884828501614183565b91505092915050565b6000806000606084860312156142b657600080fd5b60006142c486828701614183565b93505060206142d586828701614183565b92505060406142e68682870161416e565b9150509250925092565b60008060006060848603121561430557600080fd5b600061431386828701614183565b935050602061432486828701614183565b925050604084013567ffffffffffffffff81111561434157600080fd5b61434d86828701614198565b9150509250925092565b6000806040838503121561436a57600080fd5b600061437885828601614183565b9250506020614389858286016141c2565b9150509250929050565b6000602082840312156143a557600080fd5b60006143b3848285016141c2565b91505092915050565b6000806000606084860312156143d157600080fd5b60006143df868287016141c2565b93505060206143f086828701614183565b92505060406144018682870161416e565b9150509250925092565b61441481614ada565b82525050565b61442381614ac8565b82525050565b61443281614aec565b82525050565b61444181614af8565b82525050565b6000614452826149f1565b61445c81856149fc565b935061446c818560208601614b3b565b61447581614bfb565b840191505092915050565b600061448d6014836149fc565b91507f416c6c20526f756e647320436f6d706c657465640000000000000000000000006000830152602082019050919050565b60006144cd6017836149fc565b91507f55736572206973206e6f742043616d706169676e696e670000000000000000006000830152602082019050919050565b600061450d6013836149fc565b91507f416c726561647920496e697469616c697a6564000000000000000000000000006000830152602082019050919050565b600061454d6016836149fc565b91507f556e617574686f72697a656420486f7374706974616c000000000000000000006000830152602082019050919050565b600061458d600f836149fc565b91507f496e76616c69642046756e6420494400000000000000000000000000000000006000830152602082019050919050565b60006145cd600f836149fc565b91507f496e76616c6964205461736b20494400000000000000000000000000000000006000830152602082019050919050565b600061460d6012836149fc565b91507f436f6e74726163742069732050617573656400000000000000000000000000006000830152602082019050919050565b600061464d601d836149fc565b91507f596f7520617265206e6f742074686520636f6f7264696e61746f7220210000006000830152602082019050919050565b600061468d600a836149fc565b91507f4f6e6c792041646d696e000000000000000000000000000000000000000000006000830152602082019050919050565b6146c981614b22565b82525050565b60006020820190506146e4600083018461441a565b92915050565b60006020820190506146ff600083018461440b565b92915050565b600060208201905061471a6000830184614429565b92915050565b60006060820190506147356000830186614438565b81810360208301526147478185614447565b905061475660408301846146c0565b949350505050565b60006040820190506147736000830185614438565b61478060208301846146c0565b9392505050565b600060608201905061479c6000830186614438565b6147a960208301856146c0565b6147b660408301846146c0565b949350505050565b600060208201905081810360008301526147d781614480565b9050919050565b600060208201905081810360008301526147f7816144c0565b9050919050565b6000602082019050818103600083015261481781614500565b9050919050565b6000602082019050818103600083015261483781614540565b9050919050565b6000602082019050818103600083015261485781614580565b9050919050565b60006020820190508181036000830152614877816145c0565b9050919050565b6000602082019050818103600083015261489781614600565b9050919050565b600060208201905081810360008301526148b781614640565b9050919050565b600060208201905081810360008301526148d781614680565b9050919050565b60006020820190506148f360008301846146c0565b92915050565b600060408201905061490e60008301856146c0565b61491b6020830184614438565b9392505050565b600060408201905061493760008301856146c0565b61494460208301846146c0565b9392505050565b600060808201905061496060008301876146c0565b61496d60208301866146c0565b61497a60408301856146c0565b61498760608301846146c0565b95945050505050565b6000604051905081810181811067ffffffffffffffff821117156149b7576149b6614bcc565b5b8060405250919050565b600067ffffffffffffffff8211156149dc576149db614bcc565b5b601f19601f8301169050602081019050919050565b600081519050919050565b600082825260208201905092915050565b6000614a1882614b22565b9150614a2383614b22565b9250827fffffffffffffffffffffffffffffffffffffffffffffffffffffffffffffffff03821115614a5857614a57614b6e565b5b828201905092915050565b6000614a6e82614b22565b9150614a7983614b22565b925082614a8957614a88614b9d565b5b828204905092915050565b6000614a9f82614b22565b9150614aaa83614b22565b925082821015614abd57614abc614b6e565b5b828203905092915050565b6000614ad382614b02565b9050919050565b6000614ae582614b02565b9050919050565b60008115159050919050565b6000819050919050565b600073ffffffffffffffffffffffffffffffffffffffff82169050919050565b6000819050919050565b82818337600083830152505050565b60005b83811015614b59578082015181840152602081019050614b3e565b83811115614b68576000848401525b50505050565b7f4e487b7100000000000000000000000000000000000000000000000000000000600052601160045260246000fd5b7f4e487b7100000000000000000000000000000000000000000000000000000000600052601260045260246000fd5b7f4e487b7100000000000000000000000000000000000000000000000000000000600052604160045260246000fd5b6000601f19601f8301169050919050565b614c1581614ac8565b8114614c2057600080fd5b50565b614c2c81614ada565b8114614c3757600080fd5b50565b614c4381614af8565b8114614c4e57600080fd5b50565b614c5a81614b22565b8114614c6557600080fd5b5056fea2646970667358221220bf3a63a48b744ac6a41b8b4acd722cd521131f299d5160028794a3c6bcc9156c64736f6c63430008000033",
  "linkReferences": {},
  "deployedLinkReferences": {}
}