{
  "_format": "hh-sol-artifact-1",
  "contractName": "Saarthi",
  "sourceName": "contracts/SaarthiLogic.sol",
  "abi": [
    {
      "inputs": [],
      "stateMutability": "nonpayable",
      "type": "constructor"
    },
    {
      "anonymous": false,
      "inputs": [
        {
          "indexed": true,
          "internalType": "uint256",
          "name": "taskID",
          "type": "uint256"
        },
        {
          "indexed": false,
          "internalType": "bytes32",
          "name": "_modelHash",
          "type": "bytes32"
        },
        {
          "indexed": false,
          "internalType": "uint256",
          "name": "_time",
          "type": "uint256"
        }
      ],
      "name": "modelUpdated",
      "type": "event"
    },
    {
      "anonymous": false,
      "inputs": [
        {
          "indexed": true,
          "internalType": "address",
          "name": "_from",
          "type": "address"
        },
        {
          "indexed": true,
          "internalType": "address",
          "name": "_to",
          "type": "address"
        },
        {
          "indexed": false,
          "internalType": "bool",
          "name": "_finalState",
          "type": "bool"
        }
      ],
      "name": "newApproval",
      "type": "event"
    },
    {
      "anonymous": false,
      "inputs": [
        {
          "indexed": true,
          "internalType": "address",
          "name": "_campaigner",
          "type": "address"
        },
        {
          "indexed": false,
          "internalType": "bytes32",
          "name": "_campaignData",
          "type": "bytes32"
        },
        {
          "indexed": false,
          "internalType": "uint256",
          "name": "_createdAt",
          "type": "uint256"
        }
      ],
      "name": "newCampaign",
      "type": "event"
    },
    {
      "anonymous": false,
      "inputs": [
        {
          "indexed": true,
          "internalType": "address",
          "name": "_campaigner",
          "type": "address"
        },
        {
          "indexed": true,
          "internalType": "address",
          "name": "_from",
          "type": "address"
        },
        {
          "indexed": false,
          "internalType": "uint256",
          "name": "amount",
          "type": "uint256"
        }
      ],
      "name": "newCampaignDonation",
      "type": "event"
    },
    {
      "anonymous": false,
      "inputs": [
        {
          "indexed": false,
          "internalType": "uint256",
          "name": "_fundIndex",
          "type": "uint256"
        },
        {
          "indexed": true,
          "internalType": "bytes32",
          "name": "_orgName",
          "type": "bytes32"
        },
        {
          "indexed": false,
          "internalType": "bytes32",
          "name": "_fundName",
          "type": "bytes32"
        }
      ],
      "name": "newFund",
      "type": "event"
    },
    {
      "anonymous": false,
      "inputs": [
        {
          "indexed": false,
          "internalType": "uint256",
          "name": "_fundIndex",
          "type": "uint256"
        },
        {
          "indexed": true,
          "internalType": "address",
          "name": "_sender",
          "type": "address"
        },
        {
          "indexed": true,
          "internalType": "address",
          "name": "_receiver",
          "type": "address"
        },
        {
          "indexed": false,
          "internalType": "uint256",
          "name": "_amount",
          "type": "uint256"
        }
      ],
      "name": "newFundDonation",
      "type": "event"
    },
    {
      "anonymous": false,
      "inputs": [
        {
          "indexed": true,
          "internalType": "uint256",
          "name": "_index",
          "type": "uint256"
        },
        {
          "indexed": true,
          "internalType": "address",
          "name": "_reporter",
          "type": "address"
        },
        {
          "indexed": true,
          "internalType": "bytes32",
          "name": "_location",
          "type": "bytes32"
        },
        {
          "indexed": false,
          "internalType": "bytes32",
          "name": "_file",
          "type": "bytes32"
        },
        {
          "indexed": false,
          "internalType": "string",
          "name": "_details",
          "type": "string"
        },
        {
          "indexed": false,
          "internalType": "uint256",
          "name": "_time",
          "type": "uint256"
        }
      ],
      "name": "newReport",
      "type": "event"
    },
    {
      "anonymous": false,
      "inputs": [
        {
          "indexed": true,
          "internalType": "uint256",
          "name": "taskID",
          "type": "uint256"
        },
        {
          "indexed": true,
          "internalType": "address",
          "name": "_user",
          "type": "address"
        },
        {
          "indexed": false,
          "internalType": "bytes32",
          "name": "_modelHash",
          "type": "bytes32"
        },
        {
          "indexed": false,
          "internalType": "uint256",
          "name": "_amt",
          "type": "uint256"
        },
        {
          "indexed": false,
          "internalType": "uint256",
          "name": "_time",
          "type": "uint256"
        }
      ],
      "name": "newTaskCreated",
      "type": "event"
    },
    {
      "inputs": [
        {
          "internalType": "uint256",
          "name": "",
          "type": "uint256"
        }
      ],
      "name": "Campaigns",
      "outputs": [
        {
          "internalType": "address",
          "name": "",
          "type": "address"
        }
      ],
      "stateMutability": "view",
      "type": "function"
    },
    {
      "inputs": [
        {
          "internalType": "uint256",
          "name": "",
          "type": "uint256"
        }
      ],
      "name": "Funds",
      "outputs": [
        {
          "internalType": "address payable",
          "name": "",
          "type": "address"
        }
      ],
      "stateMutability": "view",
      "type": "function"
    },
    {
      "inputs": [
        {
          "internalType": "uint256",
          "name": "",
          "type": "uint256"
        }
      ],
      "name": "SaarthiTasks",
      "outputs": [
        {
          "internalType": "uint256",
          "name": "taskID",
          "type": "uint256"
        },
        {
          "internalType": "uint256",
          "name": "currentRound",
          "type": "uint256"
        },
        {
          "internalType": "uint256",
          "name": "totalRounds",
          "type": "uint256"
        },
        {
          "internalType": "uint256",
          "name": "cost",
          "type": "uint256"
        }
      ],
      "stateMutability": "view",
      "type": "function"
    },
    {
      "inputs": [
        {
          "internalType": "address",
          "name": "",
          "type": "address"
        },
        {
          "internalType": "uint256",
          "name": "",
          "type": "uint256"
        }
      ],
      "name": "UserTaskIDs",
      "outputs": [
        {
          "internalType": "uint256",
          "name": "",
          "type": "uint256"
        }
      ],
      "stateMutability": "view",
      "type": "function"
    },
    {
      "inputs": [],
      "name": "activeCampaignCnt",
      "outputs": [
        {
          "internalType": "uint256",
          "name": "",
          "type": "uint256"
        }
      ],
      "stateMutability": "view",
      "type": "function"
    },
    {
      "inputs": [
        {
          "internalType": "address",
          "name": "",
          "type": "address"
        },
        {
          "internalType": "address",
          "name": "",
          "type": "address"
        }
      ],
      "name": "approval",
      "outputs": [
        {
          "internalType": "bool",
          "name": "",
          "type": "bool"
        }
      ],
      "stateMutability": "view",
      "type": "function"
    },
    {
      "inputs": [
        {
          "internalType": "address",
          "name": "",
          "type": "address"
        }
      ],
      "name": "billAmounts",
      "outputs": [
        {
          "internalType": "uint256",
          "name": "",
          "type": "uint256"
        }
      ],
      "stateMutability": "view",
      "type": "function"
    },
    {
      "inputs": [
        {
          "internalType": "address",
          "name": "_user",
          "type": "address"
        },
        {
          "internalType": "uint256",
          "name": "_amt",
          "type": "uint256"
        }
      ],
      "name": "billUser",
      "outputs": [],
      "stateMutability": "nonpayable",
      "type": "function"
    },
    {
      "inputs": [
        {
          "internalType": "bytes32",
          "name": "c__0x5a755f78",
          "type": "bytes32"
        }
      ],
      "name": "c_0x5a755f78",
      "outputs": [],
      "stateMutability": "pure",
      "type": "function"
    },
    {
      "inputs": [
        {
          "internalType": "bytes32",
          "name": "c__0xd94ba50d",
          "type": "bytes32"
        }
      ],
      "name": "c_0xd94ba50d",
      "outputs": [],
      "stateMutability": "pure",
      "type": "function"
    },
    {
      "inputs": [
        {
          "internalType": "address",
          "name": "",
          "type": "address"
        }
      ],
      "name": "campaignEnabled",
      "outputs": [
        {
          "internalType": "bool",
          "name": "",
          "type": "bool"
        }
      ],
      "stateMutability": "view",
      "type": "function"
    },
    {
      "inputs": [],
      "name": "coordinatorAddress",
      "outputs": [
        {
          "internalType": "address",
          "name": "",
          "type": "address"
        }
      ],
      "stateMutability": "view",
      "type": "function"
    },
    {
      "inputs": [
        {
          "internalType": "bytes32",
          "name": "_orgName",
          "type": "bytes32"
        },
        {
          "internalType": "bytes32",
          "name": "_fundName",
          "type": "bytes32"
        },
        {
          "internalType": "address payable",
          "name": "_orgAdress",
          "type": "address"
        }
      ],
      "name": "createFund",
      "outputs": [],
      "stateMutability": "nonpayable",
      "type": "function"
    },
    {
      "inputs": [
        {
          "internalType": "bytes32",
          "name": "_modelHash",
          "type": "bytes32"
        },
        {
          "internalType": "uint256",
          "name": "_rounds",
          "type": "uint256"
        }
      ],
      "name": "createTask",
      "outputs": [],
      "stateMutability": "payable",
      "type": "function"
    },
    {
      "inputs": [
        {
          "internalType": "address",
          "name": "_user",
          "type": "address"
        }
      ],
      "name": "donateToCampaign",
      "outputs": [],
      "stateMutability": "payable",
      "type": "function"
    },
    {
      "inputs": [
        {
          "internalType": "uint256",
          "name": "_fundIndex",
          "type": "uint256"
        }
      ],
      "name": "donateToFund",
      "outputs": [],
      "stateMutability": "payable",
      "type": "function"
    },
    {
      "inputs": [
        {
          "internalType": "bytes32",
          "name": "_location",
          "type": "bytes32"
        },
        {
          "internalType": "bytes32",
          "name": "_file",
          "type": "bytes32"
        },
        {
          "internalType": "string",
          "name": "_details",
          "type": "string"
        }
      ],
      "name": "fileReport",
      "outputs": [],
      "stateMutability": "nonpayable",
      "type": "function"
    },
    {
      "inputs": [],
      "name": "fundCnt",
      "outputs": [
        {
          "internalType": "uint256",
          "name": "",
          "type": "uint256"
        }
      ],
      "stateMutability": "view",
      "type": "function"
    },
    {
      "inputs": [
        {
          "internalType": "address",
          "name": "",
          "type": "address"
        }
      ],
      "name": "hospitals",
      "outputs": [
        {
          "internalType": "bool",
          "name": "",
          "type": "bool"
        }
      ],
      "stateMutability": "view",
      "type": "function"
    },
    {
      "inputs": [],
      "name": "nextTaskID",
      "outputs": [
        {
          "internalType": "uint256",
          "name": "",
          "type": "uint256"
        }
      ],
      "stateMutability": "view",
      "type": "function"
    },
    {
      "inputs": [],
      "name": "owner",
      "outputs": [
        {
          "internalType": "address",
          "name": "",
          "type": "address"
        }
      ],
      "stateMutability": "view",
      "type": "function"
    },
    {
      "inputs": [],
      "name": "paused",
      "outputs": [
        {
          "internalType": "bool",
          "name": "",
          "type": "bool"
        }
      ],
      "stateMutability": "view",
      "type": "function"
    },
    {
      "inputs": [],
      "name": "reportCnt",
      "outputs": [
        {
          "internalType": "uint256",
          "name": "",
          "type": "uint256"
        }
      ],
      "stateMutability": "view",
      "type": "function"
    },
    {
      "inputs": [
        {
          "internalType": "bytes32",
          "name": "_campaignData",
          "type": "bytes32"
        }
      ],
      "name": "startCampaign",
      "outputs": [],
      "stateMutability": "nonpayable",
      "type": "function"
    },
    {
      "inputs": [],
      "name": "stopCampaign",
      "outputs": [],
      "stateMutability": "nonpayable",
      "type": "function"
    },
    {
      "inputs": [
        {
          "internalType": "address",
          "name": "_address",
          "type": "address"
        }
      ],
      "name": "toggleAccessToAddress",
      "outputs": [],
      "stateMutability": "nonpayable",
      "type": "function"
    },
    {
      "inputs": [
        {
          "internalType": "address",
          "name": "_address",
          "type": "address"
        }
      ],
      "name": "toggleHospital",
      "outputs": [],
      "stateMutability": "nonpayable",
      "type": "function"
    },
    {
      "inputs": [],
      "name": "togglePause",
      "outputs": [],
      "stateMutability": "nonpayable",
      "type": "function"
    },
    {
      "inputs": [],
      "name": "totalDonationAmount",
      "outputs": [
        {
          "internalType": "uint256",
          "name": "",
          "type": "uint256"
        }
      ],
      "stateMutability": "view",
      "type": "function"
    },
    {
      "inputs": [],
      "name": "totalDonationCnt",
      "outputs": [
        {
          "internalType": "uint256",
          "name": "",
          "type": "uint256"
        }
      ],
      "stateMutability": "view",
      "type": "function"
    },
    {
      "inputs": [
        {
          "internalType": "uint256",
          "name": "_taskID",
          "type": "uint256"
        },
        {
          "internalType": "bytes32",
          "name": "_modelHash",
          "type": "bytes32"
        },
        {
          "internalType": "address payable",
          "name": "computer",
          "type": "address"
        }
      ],
      "name": "updateModelForTask",
      "outputs": [],
      "stateMutability": "nonpayable",
      "type": "function"
    },
    {
      "inputs": [
        {
          "internalType": "address",
          "name": "_newOwner",
          "type": "address"
        }
      ],
      "name": "updateOwner",
      "outputs": [],
      "stateMutability": "nonpayable",
      "type": "function"
    }
  ],
  "bytecode": "0x60806040526000600160146101000a81548160ff021916908315150217905550600160025560006009556000600b556000600c556000600d556000600f553480156200004a57600080fd5b506200007f7fc86984b1b8e53e66211a0270b422598de79395a2562ff38539b354c52fb6f04d60001b620001d660201b60201c565b620000b37f6d4e710fb0c9a29521bf53fd3cebe477c04dfa07dff73d9508a0fa56aa1926cb60001b620001d660201b60201c565b620000e77f31b985be2fbdfcb0a735912088758a5bfcde7204df761df6613283c9bcb92a1e60001b620001d660201b60201c565b336000806101000a81548173ffffffffffffffffffffffffffffffffffffffff021916908373ffffffffffffffffffffffffffffffffffffffff1602179055506200015b7f7be5c16d25c389dac3243d1d694854dc5c150ff361ea2c5ef79971f492406e0c60001b620001d660201b60201c565b6200018f7f170125157263eb0f540ffb8f373261cff912c45d3a05f39cb75931e22550863e60001b620001d660201b60201c565b33600160006101000a81548173ffffffffffffffffffffffffffffffffffffffff021916908373ffffffffffffffffffffffffffffffffffffffff160217905550620001d9565b50565b6148de80620001e96000396000f3fe6080604052600436106101e35760003560e01c806382003b3111610102578063cd5e548311610095578063ec27035311610064578063ec270353146106a6578063eee9b99e146106cf578063f093cf801461070c578063f1fcc8e914610749576101e3565b8063cd5e5483146105e8578063e1270b6e14610613578063e1c7dbe314610650578063e3f2d24f1461067b576101e3565b8063b063795c116100d1578063b063795c14610540578063c06a260d1461056b578063c4ae316814610594578063c4d8fea7146105ab576101e3565b806382003b3114610484578063880cdc31146104af5780638da5cb5b146104d85780639ff6071114610503576101e3565b80634e1dd1a41161017a5780636946c5e9116101495780636946c5e9146103e65780636fbb5f62146104235780637c6abc821461043f5780637d4f6e7e1461045b576101e3565b80634e1dd1a4146103275780635af09fe2146103505780635c975abb1461037b5780636092a502146103a6576101e3565b806317849646116101b6578063178496461461026d57806322af0c0b146102985780634013be10146102c1578063483d6752146102fe576101e3565b8063022decd9146101e85780630d3bb50f1461021157806311cd13ac1461023a57806316f1bc2214610256575b600080fd5b3480156101f457600080fd5b5061020f600480360381019061020a9190613edc565b610772565b005b34801561021d57600080fd5b5061023860048036038101906102339190613f41565b610b29565b005b610254600480360381019061024f9190614033565b610ebf565b005b34801561026257600080fd5b5061026b6113dd565b005b34801561027957600080fd5b5061028261175c565b60405161028f919061451e565b60405180910390f35b3480156102a457600080fd5b506102bf60048036038101906102ba919061405c565b611762565b005b3480156102cd57600080fd5b506102e860048036038101906102e39190614033565b611f4b565b6040516102f5919061432f565b60405180910390f35b34801561030a57600080fd5b5061032560048036038101906103209190613f18565b611f8a565b005b34801561033357600080fd5b5061034e60048036038101906103499190613e77565b611f8d565b005b34801561035c57600080fd5b50610365612278565b604051610372919061451e565b60405180910390f35b34801561038757600080fd5b5061039061227e565b60405161039d9190614365565b60405180910390f35b3480156103b257600080fd5b506103cd60048036038101906103c89190614033565b612291565b6040516103dd949392919061458b565b60405180910390f35b3480156103f257600080fd5b5061040d60048036038101906104089190613edc565b6122c1565b60405161041a919061451e565b60405180910390f35b61043d60048036038101906104389190613ff7565b6122f2565b005b61045960048036038101906104549190613e77565b612912565b005b34801561046757600080fd5b50610482600480360381019061047d9190613f18565b612d3e565b005b34801561049057600080fd5b50610499612d41565b6040516104a6919061432f565b60405180910390f35b3480156104bb57600080fd5b506104d660048036038101906104d19190613e77565b612d67565b005b3480156104e457600080fd5b506104ed612f6c565b6040516104fa919061432f565b60405180910390f35b34801561050f57600080fd5b5061052a60048036038101906105259190613e77565b612f90565b6040516105379190614365565b60405180910390f35b34801561054c57600080fd5b50610555612fb0565b604051610562919061451e565b60405180910390f35b34801561057757600080fd5b50610592600480360381019061058d9190613f18565b612fb6565b005b3480156105a057600080fd5b506105a9613417565b005b3480156105b757600080fd5b506105d260048036038101906105cd9190613e77565b613605565b6040516105df919061451e565b60405180910390f35b3480156105f457600080fd5b506105fd61361d565b60405161060a919061451e565b60405180910390f35b34801561061f57600080fd5b5061063a60048036038101906106359190613ea0565b613623565b6040516106479190614365565b60405180910390f35b34801561065c57600080fd5b50610665613652565b604051610672919061451e565b60405180910390f35b34801561068757600080fd5b50610690613658565b60405161069d919061451e565b60405180910390f35b3480156106b257600080fd5b506106cd60048036038101906106c89190613e77565b61365e565b005b3480156106db57600080fd5b506106f660048036038101906106f19190614033565b613a25565b604051610703919061434a565b60405180910390f35b34801561071857600080fd5b50610733600480360381019061072e9190613e77565b613a58565b6040516107409190614365565b60405180910390f35b34801561075557600080fd5b50610770600480360381019061076b9190613f90565b613a78565b005b61079e7f25bceb0000ec0f6cc3ba12e9b960752052e976c2df5d788f37b5da7dac78f1ca60001b612d3e565b6107ca7ff9242be87869c018f060c6845ef371801c93c15c947910455aa32940d28029b760001b612d3e565b6107f67f37b9b08b863ad2d19ed93c126c21428097aae2aff6e33660bfe4599137ed24ef60001b612d3e565b6108227f92fd2b57115e28088b39a9ffdf4f10212dc0201efa5e981462be29694deff2e160001b612d3e565b60001515600160149054906101000a900460ff16151514610878576040517f08c379a000000000000000000000000000000000000000000000000000000000815260040161086f906144be565b60405180910390fd5b6108a47feffd08acf2af4addeb09c1c6be3280088a0c1a6b5ee25ca86204f2098bd39a3260001b612d3e565b6108d07f10ed6cc5a42744d6773dba7086afe3d413c27bbddd280f23e4e549e0d052ca3a60001b612d3e565b6108fc7f550e4a70f803a1d82127adc256d13b57a27ff8b5fdcf74eb0bf75491fda78a9e60001b612d3e565b6109287f707297efd293ae437c226e9e10a6ca218ce96ed63ae651ea923335b7fff81fcc60001b612d3e565b6109547feeaabe8abd0a9d7083c814bb25326dd07a38e5c31a315db50f0102dccfe47de660001b612d3e565b6109807f117062ef6dbdaf620c39fd9bb29c2171e1ec93f178dc56b69959b75f666408fa60001b612d3e565b60011515600560003373ffffffffffffffffffffffffffffffffffffffff1673ffffffffffffffffffffffffffffffffffffffff16815260200190815260200160002060009054906101000a900460ff16151514610a13576040517f08c379a0000000000000000000000000000000000000000000000000000000008152600401610a0a9061445e565b60405180910390fd5b610a3f7f1460deadaaa29254f08c399c6eac0123b1f915e3622dd53640a08a7c9fcfb80260001b612d3e565b610a6b7f7de6a78122c6579da8de5a50608b24ff2600ccc9eb0736f0ec0d66ff6fdfa4da60001b612d3e565b610a977fd6ac3d63c8dd93b46d07e2c8832a9edefdefb40f1ad9fbdcdfb43ec75006ea6860001b612d3e565b80600660008473ffffffffffffffffffffffffffffffffffffffff1673ffffffffffffffffffffffffffffffffffffffff16815260200190815260200160002054610ae2919061464d565b600660008473ffffffffffffffffffffffffffffffffffffffff1673ffffffffffffffffffffffffffffffffffffffff168152602001908152602001600020819055505050565b610b557f25bceb0000ec0f6cc3ba12e9b960752052e976c2df5d788f37b5da7dac78f1ca60001b612d3e565b610b817ff9242be87869c018f060c6845ef371801c93c15c947910455aa32940d28029b760001b612d3e565b610bad7f37b9b08b863ad2d19ed93c126c21428097aae2aff6e33660bfe4599137ed24ef60001b612d3e565b610bd97f92fd2b57115e28088b39a9ffdf4f10212dc0201efa5e981462be29694deff2e160001b612d3e565b60001515600160149054906101000a900460ff16151514610c2f576040517f08c379a0000000000000000000000000000000000000000000000000000000008152600401610c26906144be565b60405180910390fd5b610c5b7feffd08acf2af4addeb09c1c6be3280088a0c1a6b5ee25ca86204f2098bd39a3260001b612d3e565b610c877f10ed6cc5a42744d6773dba7086afe3d413c27bbddd280f23e4e549e0d052ca3a60001b612d3e565b610cb37fb87205c1aec7b6c758dc6bc5b2cfd40feea1b4e685f210ebe3b7d2e906668e4060001b612d3e565b610cdf7f52d2ff6dd0fddb5e84e6f475ad8c4e7e16cd054decba71592da158b907d6823660001b612d3e565b610d0b7f7114d800ae2dc009140607fa28d8c9611c15e102535ca990b4d95d1dec2a161760001b612d3e565b60006001600b54610d1c919061464d565b9050610d4a7f44eff928658353c04535945d7e88b78c31cf2a4eb3fb7595fe1e884bcbbfcf4060001b612d3e565b610d767fba367887562de99f6481541c728423701537f776ec8752d02429c9c81ae5940860001b612d3e565b81600e600083815260200190815260200160002060006101000a81548173ffffffffffffffffffffffffffffffffffffffff021916908373ffffffffffffffffffffffffffffffffffffffff160217905550610df47fda2f444d9d518ec474f2949ad203f26b4ab702a489683150973f66bb8a68577f60001b612d3e565b610e207f330919efa870947e76cc1296112abb295fa7f27b4888a771fcc15097dd35008660001b612d3e565b80600b81905550610e537f4bcf61ec1ff091226f665746865548fb2f2700dd17a0f765f45452543d6c17da60001b612d3e565b610e7f7f0e789b83ca8826b0ff47436b05317c00532f76d340944e756e1c4040338b7b2a60001b612d3e565b837fb99663894dc2a2c66382f63932042aa530244fe0af348b833f4cddea9cfbeb718285604051610eb1929190614539565b60405180910390a250505050565b610eeb7f25bceb0000ec0f6cc3ba12e9b960752052e976c2df5d788f37b5da7dac78f1ca60001b612d3e565b610f177ff9242be87869c018f060c6845ef371801c93c15c947910455aa32940d28029b760001b612d3e565b610f437f37b9b08b863ad2d19ed93c126c21428097aae2aff6e33660bfe4599137ed24ef60001b612d3e565b610f6f7f92fd2b57115e28088b39a9ffdf4f10212dc0201efa5e981462be29694deff2e160001b612d3e565b60001515600160149054906101000a900460ff16151514610fc5576040517f08c379a0000000000000000000000000000000000000000000000000000000008152600401610fbc906144be565b60405180910390fd5b610ff17feffd08acf2af4addeb09c1c6be3280088a0c1a6b5ee25ca86204f2098bd39a3260001b612d3e565b61101d7f10ed6cc5a42744d6773dba7086afe3d413c27bbddd280f23e4e549e0d052ca3a60001b612d3e565b6110497f8961bfeff3ab83dd46f0e157ac781e643ae326effd36c28a9ba575392ccc4aca60001b612d3e565b6110757fb7864230e5a1289a94d6ab24fae76290160eb9af516f0bf1e5f90aeec0a65cd160001b612d3e565b6110a17f321c69070ed0a0fb3b919728cc86e3456b0719b8bac5aea0a259a24f330017ac60001b612d3e565b6110cd7fef0fc60f8b7413d5fd3e1202a2b1644b02ba6d0929866dfff6c1177cb8e9481360001b612d3e565b600b54811115611112576040517f08c379a00000000000000000000000000000000000000000000000000000000081526004016111099061447e565b60405180910390fd5b61113e7f8f4bf2af1c7e476fc9c68f3281de079645a52373723d419804dc596eb05464a460001b612d3e565b61116a7f86f8072cc0b4c2e00c5de41bf37593553f402b39c64a66aa01c9c7cf41bdb53c60001b612d3e565b6111967fc793c3a0c1f37fabbc9a2ce2cf8c59a29949edc0aae3eefa286a07a1c9ba710a60001b612d3e565b34600c546111a4919061464d565b600c819055506111d67f65514153c57fbbe0c394816483ba8668667488d1c6fb4059e36c1a22bb32b44d60001b612d3e565b6112027f6a992ddb19afd88d8c6b485cdf05fcd9c37f86c00c5d0c117e155463efed009a60001b612d3e565b6001600d54611211919061464d565b600d819055506112437fc65bb986c0e0194fff5a701c40436b729c170798641914a8090aaac9f28e823e60001b612d3e565b61126e7e2ad6b26d2f6965486a50ead82ac64634fe01d9e1625f5e32478d32b9b2015f60001b612d3e565b600e600082815260200190815260200160002060009054906101000a900473ffffffffffffffffffffffffffffffffffffffff1673ffffffffffffffffffffffffffffffffffffffff166108fc349081150290604051600060405180830381858888f193505050501580156112e7573d6000803e3d6000fd5b506113147fce6852dfcecb651a0e0adf5a761d6b0860ee9c197a6498da2a3cc115abd8b24f60001b612d3e565b6113407fb55415af75bd12ec289543e68e0af15ff6a1381e3c8c2d706257bd61760d586e60001b612d3e565b600e600082815260200190815260200160002060009054906101000a900473ffffffffffffffffffffffffffffffffffffffff1673ffffffffffffffffffffffffffffffffffffffff163373ffffffffffffffffffffffffffffffffffffffff167f2317347462a70f36eb7bac6fb953aca2cd01eb3bcdf5f359babe909811eaed6783346040516113d2929190614562565b60405180910390a350565b6114097f25bceb0000ec0f6cc3ba12e9b960752052e976c2df5d788f37b5da7dac78f1ca60001b612d3e565b6114357ff9242be87869c018f060c6845ef371801c93c15c947910455aa32940d28029b760001b612d3e565b6114617f37b9b08b863ad2d19ed93c126c21428097aae2aff6e33660bfe4599137ed24ef60001b612d3e565b61148d7f92fd2b57115e28088b39a9ffdf4f10212dc0201efa5e981462be29694deff2e160001b612d3e565b60001515600160149054906101000a900460ff161515146114e3576040517f08c379a00000000000000000000000000000000000000000000000000000000081526004016114da906144be565b60405180910390fd5b61150f7feffd08acf2af4addeb09c1c6be3280088a0c1a6b5ee25ca86204f2098bd39a3260001b612d3e565b61153b7f10ed6cc5a42744d6773dba7086afe3d413c27bbddd280f23e4e549e0d052ca3a60001b612d3e565b6115677f44575a529f7379cb0b6d837abb75113d9b2df896e884e6b26a6d5d3379a65a2860001b612d3e565b6115937fddd54921b90d128d8e9772173295fd8b7731a727d65f6d6b118f388b66a5312860001b612d3e565b6115bf7fd09a8485a1ac51742f27888af67fd0399a138f560b5360450291791a13730bc260001b612d3e565b6115eb7fb50ab9890355e983cec94e7fd2832eb1fc7587fcf2783ac4810e6a50c969646260001b612d3e565b60011515600a60003373ffffffffffffffffffffffffffffffffffffffff1673ffffffffffffffffffffffffffffffffffffffff16815260200190815260200160002060009054906101000a900460ff1615151461167e576040517f08c379a00000000000000000000000000000000000000000000000000000000081526004016116759061443e565b60405180910390fd5b6116aa7f854170f12af2c81678697f31a9ece4c831e1fcb4fe7cd3d319eccbdc7172487c60001b612d3e565b6116d67f89a348c320747584114752f9e01158c3caf5c679e05839daf57a3bd745afce2360001b612d3e565b6117027f9eca7652a821432ff7622657764d46ffa2508ca811b4cbd9988a7f163ef0856760001b612d3e565b6000600a60003373ffffffffffffffffffffffffffffffffffffffff1673ffffffffffffffffffffffffffffffffffffffff16815260200190815260200160002060006101000a81548160ff021916908315150217905550565b600c5481565b61178e7f25bceb0000ec0f6cc3ba12e9b960752052e976c2df5d788f37b5da7dac78f1ca60001b612d3e565b6117ba7ff9242be87869c018f060c6845ef371801c93c15c947910455aa32940d28029b760001b612d3e565b6117e67f37b9b08b863ad2d19ed93c126c21428097aae2aff6e33660bfe4599137ed24ef60001b612d3e565b6118127f92fd2b57115e28088b39a9ffdf4f10212dc0201efa5e981462be29694deff2e160001b612d3e565b60001515600160149054906101000a900460ff16151514611868576040517f08c379a000000000000000000000000000000000000000000000000000000000815260040161185f906144be565b60405180910390fd5b6118947feffd08acf2af4addeb09c1c6be3280088a0c1a6b5ee25ca86204f2098bd39a3260001b612d3e565b6118c07f10ed6cc5a42744d6773dba7086afe3d413c27bbddd280f23e4e549e0d052ca3a60001b612d3e565b6118ec7faec56adf583223e00e48071aaf0b0b0335a4a7e6bcf218d90aa2d84715c60a7960001b612d3e565b6119187f6743f223adabd212d89ebaf8eae371d1a4a95f900921cb0843044e7873a79ab260001b612d3e565b6119447f60f113e5aec0b22df154ead65aea6029d1f125521f9e558c7ecf3287418051c160001b612d3e565b6119707fa7df47b36306bdb1933bc49155e594ef8e2b9fe2cd231284e081a65a652214b160001b612d3e565b600160009054906101000a900473ffffffffffffffffffffffffffffffffffffffff1673ffffffffffffffffffffffffffffffffffffffff163373ffffffffffffffffffffffffffffffffffffffff1614611a00576040517f08c379a00000000000000000000000000000000000000000000000000000000081526004016119f7906144de565b60405180910390fd5b611a2c7f744a403c168d930e154f812d77dcac46fe0a5b2da4d12f3d6727267198b4cc2760001b612d3e565b611a587fdf78c09317c6a8950463a736cc0b2fbcbf18ee4a6b501118d0c835b0128982b860001b612d3e565b611a847fc7929b6f44e2616a64d474a0f8fdd4de91866993a2586973dcfe64e9b785b75860001b612d3e565b611ab07f6261ab6d2b7232632336a49255556ea152be0c6426c0d5428c4d13dd520ba0a860001b612d3e565b600254831115611af5576040517f08c379a0000000000000000000000000000000000000000000000000000000008152600401611aec9061449e565b60405180910390fd5b611b217f38fa1fe3c37de019bd266468e53a6c1c5558142d586e8775210ffae4f3dacb8460001b612d3e565b611b4d7f513dd71d25ee3b37df954fd585b36e4d6b4c4bc870c1e37bc91e7e7e5a3f4ffb60001b612d3e565b611b797f3b2300ff945c2b6a12653050f6e84b7ac2ba8628f782f5baaf2666703e7eeb2260001b612d3e565b600060016003600086815260200190815260200160002060010154611b9e919061464d565b9050611bcc7f20f51c416b9a9cfd0368f54b530c145174db84e67a41848a269f9668b3f0c0ad60001b612d3e565b611bf87f3aeeab8addcd3e60e2bc9de9b586ad86d9720c19afb53e075c408463fc6e2bd660001b612d3e565b611c247f6e43f8d0037fd6aad10ca0ed9c25d23cf8a3540b49e3476d37dc960099b0293260001b612d3e565b6003600085815260200190815260200160002060020154811115611c7d576040517f08c379a0000000000000000000000000000000000000000000000000000000008152600401611c749061441e565b60405180910390fd5b611ca97f3fde2b304bf98eeb32b5860944a3777d558a33dfb49ce537b2ef8907084b4e4660001b612d3e565b611cd57fd8ef95f1b40969a6b46386e0cd1a76688c514e2f66cde18e8d88726b081cbe1760001b612d3e565b611d017f320a73062f57580320488212a3ef5c4cf069f2108e1b86fa198c758f8b92995e60001b612d3e565b806003600086815260200190815260200160002060010181905550611d487f2096f7316c2fc3298b471083f2e3593395e6b8068596639506a06385439bd77160001b612d3e565b611d747fb5c6da5e232ee3e9ffbcdbef516b1b3661693d69ab5ae619568e7312fc0b174360001b612d3e565b8260036000868152602001908152602001600020600401600183611d9891906146d4565b81548110611dcf577f4e487b7100000000000000000000000000000000000000000000000000000000600052603260045260246000fd5b9060005260206000200181905550611e097ff828ae879820be38d7b5651db8f77205522947887c6f9e8f912a96655d1cb5f060001b612d3e565b611e357f26b5265b39a977a9a20b3a1e5df1319b72cd7bcbfc66f45a4be0592c3c18422760001b612d3e565b8173ffffffffffffffffffffffffffffffffffffffff166108fc60036000878152602001908152602001600020600201546003600088815260200190815260200160002060030154611e8791906146a3565b9081150290604051600060405180830381858888f19350505050158015611eb2573d6000803e3d6000fd5b50611edf7fd79ea959dc358a0897589f9293898b9b4d885cab9bf8f3568386386dcaba4ce560001b612d3e565b611f0b7f35010d5a11340c8aa38cbb2bda0b81d4504562f7261316df6404daf92ff3de0c60001b612d3e565b837fe1d58799a6d1cef7a4a5e546e03e11850ef52264511394d1a1f9d8ac73fc5e4c8442604051611f3d9291906143be565b60405180910390a250505050565b60088181548110611f5b57600080fd5b906000526020600020016000915054906101000a900473ffffffffffffffffffffffffffffffffffffffff1681565b50565b611fb97f332cd9ee8299b1338e37a59115697b21c6465137a328fb663fd35833237ec51260001b612d3e565b611fe57fd9fae4bf806fc1f49e40c5a106ec6b96eb7874d579976eefa1f47f55e6defca660001b612d3e565b6120117fff92682983311243261b5bf03ed80a709e6ee4890ee79eed48d3797e5aaea74260001b612d3e565b600760003373ffffffffffffffffffffffffffffffffffffffff1673ffffffffffffffffffffffffffffffffffffffff16815260200190815260200160002060008273ffffffffffffffffffffffffffffffffffffffff1673ffffffffffffffffffffffffffffffffffffffff16815260200190815260200160002060009054906101000a900460ff1615600760003373ffffffffffffffffffffffffffffffffffffffff1673ffffffffffffffffffffffffffffffffffffffff16815260200190815260200160002060008373ffffffffffffffffffffffffffffffffffffffff1673ffffffffffffffffffffffffffffffffffffffff16815260200190815260200160002060006101000a81548160ff02191690831515021790555061215b7f725c3b736548e2a70110790f6d814a53ee8f25df695cf23baaabfcc8048d6e9a60001b612d3e565b6121877f6498aac7b42a92d5c8750d6117d7f3fb3e5b6edb14fa8fe428e79f4699c49df960001b612d3e565b8073ffffffffffffffffffffffffffffffffffffffff163373ffffffffffffffffffffffffffffffffffffffff167fad77d1d38ed980518f1c26c8cd8fe0cc39ba4e9092e1b5f69f0bd23ff1de97fb600760003373ffffffffffffffffffffffffffffffffffffffff1673ffffffffffffffffffffffffffffffffffffffff16815260200190815260200160002060008573ffffffffffffffffffffffffffffffffffffffff1673ffffffffffffffffffffffffffffffffffffffff16815260200190815260200160002060009054906101000a900460ff1660405161226d9190614365565b60405180910390a350565b60025481565b600160149054906101000a900460ff1681565b60036020528060005260406000206000915090508060000154908060010154908060020154908060030154905084565b600460205281600052604060002081815481106122dd57600080fd5b90600052602060002001600091509150505481565b61231e7f25bceb0000ec0f6cc3ba12e9b960752052e976c2df5d788f37b5da7dac78f1ca60001b612d3e565b61234a7ff9242be87869c018f060c6845ef371801c93c15c947910455aa32940d28029b760001b612d3e565b6123767f37b9b08b863ad2d19ed93c126c21428097aae2aff6e33660bfe4599137ed24ef60001b612d3e565b6123a27f92fd2b57115e28088b39a9ffdf4f10212dc0201efa5e981462be29694deff2e160001b612d3e565b60001515600160149054906101000a900460ff161515146123f8576040517f08c379a00000000000000000000000000000000000000000000000000000000081526004016123ef906144be565b60405180910390fd5b6124247feffd08acf2af4addeb09c1c6be3280088a0c1a6b5ee25ca86204f2098bd39a3260001b612d3e565b6124507f10ed6cc5a42744d6773dba7086afe3d413c27bbddd280f23e4e549e0d052ca3a60001b612d3e565b61247c7f0caf3fd6f78b67dfe9f683d37ea261ab5f2731513b179cf5236409c1963d15f760001b612d3e565b6124a87f36f4ece00d0004594a9d05c3a8aceed9112599e565cf1fc64156a42317fcbb8b60001b612d3e565b6124d47f6407fae6f18701b7685927460f10e6ea1ebb1d86b80e45cd830622e200a86dac60001b612d3e565b6124dc613d22565b6125087f70366277dcf4c39c1cfc8624fed10a02b9d0f1c2f4c8d2b5aaf9835db25298cb60001b612d3e565b6125347ff3f39720a6066751524ca15dbe085ff30a7e527c30732a39a3253f57720a86a660001b612d3e565b6040518060a001604052806002548152602001600181526020018381526020013481526020018367ffffffffffffffff81111561259a577f4e487b7100000000000000000000000000000000000000000000000000000000600052604160045260246000fd5b6040519080825280602002602001820160405280156125c85781602001602082028036833780820191505090505b5081525090506125fa7fbb45acfef6a158cc3ac11cdcc23b528957089bc93f5520681ef28dd66147fe2560001b612d3e565b6126267f67480a047348cdf3c273e9873823ad1bf680c6fd7d9affacf724dec2601ba4fa60001b612d3e565b828160800151600081518110612665577f4e487b7100000000000000000000000000000000000000000000000000000000600052603260045260246000fd5b60200260200101818152505061269d7fab60b80a15530eef71354b3148762a49736b32c60ec2fc912283bbfbfc40916160001b612d3e565b6126c97fbd1e3fa90c9a049e049da57d42c3d325e46a52e8937001e908cfb7ae15e1049c60001b612d3e565b80600360006002548152602001908152602001600020600082015181600001556020820151816001015560408201518160020155606082015181600301556080820151816004019080519060200190612723929190613d51565b509050506127537f559377b329f04088b1f7d6435c0122fec35602daa797f728fa50914f9d303dc160001b612d3e565b61277f7f307b99cd90ca4dbba4544a280bab45bab27213618bd0d303d90f0adbf5f427c360001b612d3e565b600460003373ffffffffffffffffffffffffffffffffffffffff1673ffffffffffffffffffffffffffffffffffffffff16815260200190815260200160002060025490806001815401808255809150506001900390600052602060002001600090919091909150556128137f7baa32f7ac942769cc34efc031d7b92e8a94208030ba16d90f3736a4968503af60001b612d3e565b61283f7fc162ddd6514cd977674e90c79fd99a1365ac19088a5dc8d6a9bd72edce0deaa760001b612d3e565b600160025461284e919061464d565b6002819055506128807f23652d651088b08f5f5bcf185f61fe9ae59150c7fb41e970bb2e327fb2c0882160001b612d3e565b6128ac7fc9f985855fd93c7b16833cf6cf4d2434fc5769d6ea23799a47fd2d0b65f0a96760001b612d3e565b3373ffffffffffffffffffffffffffffffffffffffff1660016002546128d291906146d4565b7fc4dd427940f2b7acf9630ef20ca65879526cfc7a3869483461942027043545f7853442604051612905939291906143e7565b60405180910390a3505050565b61293e7f25bceb0000ec0f6cc3ba12e9b960752052e976c2df5d788f37b5da7dac78f1ca60001b612d3e565b61296a7ff9242be87869c018f060c6845ef371801c93c15c947910455aa32940d28029b760001b612d3e565b6129967f37b9b08b863ad2d19ed93c126c21428097aae2aff6e33660bfe4599137ed24ef60001b612d3e565b6129c27f92fd2b57115e28088b39a9ffdf4f10212dc0201efa5e981462be29694deff2e160001b612d3e565b60001515600160149054906101000a900460ff16151514612a18576040517f08c379a0000000000000000000000000000000000000000000000000000000008152600401612a0f906144be565b60405180910390fd5b612a447feffd08acf2af4addeb09c1c6be3280088a0c1a6b5ee25ca86204f2098bd39a3260001b612d3e565b612a707f10ed6cc5a42744d6773dba7086afe3d413c27bbddd280f23e4e549e0d052ca3a60001b612d3e565b612a9c7fc1cc2d053219e4d997ffd9e7952986053813fc8de79620f074df5c20c661257860001b612d3e565b612ac87f076fa70b34819bea51dde33224d5048dc202b54799ec22499b54baa6e720525960001b612d3e565b612af47ff4b67e29d88e0897aacfda6af315ee8ea48502eb43d84fb5b7843a12d4151ba060001b612d3e565b612b207f1da9c0e1849d26cdad44eb672d910e68dd139ca1e55dd51fc6e04f4db16278d660001b612d3e565b60011515600a60008373ffffffffffffffffffffffffffffffffffffffff1673ffffffffffffffffffffffffffffffffffffffff16815260200190815260200160002060009054906101000a900460ff16151514612bb3576040517f08c379a0000000000000000000000000000000000000000000000000000000008152600401612baa9061443e565b60405180910390fd5b612bdf7f15c66be2ae7a633a0cecb1c3b6f57d17f1988462fd6a277abe114e7592782ba960001b612d3e565b612c0b7fcad276b0c5467f2cbefe46140873d4ccffe3d2a3c2f31e12af6933ca747678b560001b612d3e565b612c377fa365b5edd6a0c09be4a4f12d0a40f6f2231b23c39761e07d2f0ed7506e800b6160001b612d3e565b8073ffffffffffffffffffffffffffffffffffffffff166108fc349081150290604051600060405180830381858888f19350505050158015612c7d573d6000803e3d6000fd5b50612caa7f7b16430157a0d0b3ee70879d1b2048f564b7fbcb56b628b48e3daa5010a623b260001b612d3e565b612cd67f7cebb1bc77b46ac247053adf510db93bfc4bf9011d4eaf81d3d92784402a97a360001b612d3e565b3373ffffffffffffffffffffffffffffffffffffffff168173ffffffffffffffffffffffffffffffffffffffff167f1d3ff44814877759fdcdec2bace42d6e7e7c1b84ca040ba5d3b4ef988ffd908e34604051612d33919061451e565b60405180910390a350565b50565b600160009054906101000a900473ffffffffffffffffffffffffffffffffffffffff1681565b612d937f73b87411d898756ce83276aacb6190ecdfa3966e4a1ba1ea683ed795bd9571ef60001b612d3e565b612dbf7f178660a7d420860aea6c31230b57e48b7f55e0a076a7b57b88ed031bf76aaa5d60001b612d3e565b612deb7fa363141c3b512e67d9766dac84344d61593d73da5fcf021c5797e16ccea2f99b60001b612d3e565b612e177f030c337f673faec957511e5619aa4893e60cf78b2515ce92cbb4efdabc62193560001b612d3e565b60008054906101000a900473ffffffffffffffffffffffffffffffffffffffff1673ffffffffffffffffffffffffffffffffffffffff163373ffffffffffffffffffffffffffffffffffffffff1614612ea5576040517f08c379a0000000000000000000000000000000000000000000000000000000008152600401612e9c906144fe565b60405180910390fd5b612ed17f1bbe933e241edd4d32b78fc1f6ba499a0fa961ad3775bbb88d1ce494ab0983a160001b612d3e565b612efd7f794a5946a0c20463025cc3f64580460c069e89c9dfcc9f7de95e87e08296140460001b612d3e565b612f297f0a68241e49d96ff49a50663ce6e3e834a3a3df95a58e7c07fbd042891da53f0660001b612d3e565b806000806101000a81548173ffffffffffffffffffffffffffffffffffffffff021916908373ffffffffffffffffffffffffffffffffffffffff16021790555050565b60008054906101000a900473ffffffffffffffffffffffffffffffffffffffff1681565b600a6020528060005260406000206000915054906101000a900460ff1681565b60095481565b612fe27f25bceb0000ec0f6cc3ba12e9b960752052e976c2df5d788f37b5da7dac78f1ca60001b612d3e565b61300e7ff9242be87869c018f060c6845ef371801c93c15c947910455aa32940d28029b760001b612d3e565b61303a7f37b9b08b863ad2d19ed93c126c21428097aae2aff6e33660bfe4599137ed24ef60001b612d3e565b6130667f92fd2b57115e28088b39a9ffdf4f10212dc0201efa5e981462be29694deff2e160001b612d3e565b60001515600160149054906101000a900460ff161515146130bc576040517f08c379a00000000000000000000000000000000000000000000000000000000081526004016130b3906144be565b60405180910390fd5b6130e87feffd08acf2af4addeb09c1c6be3280088a0c1a6b5ee25ca86204f2098bd39a3260001b612d3e565b6131147f10ed6cc5a42744d6773dba7086afe3d413c27bbddd280f23e4e549e0d052ca3a60001b612d3e565b6131407f823aec777c9dfd372a53b1b48c4b8d3f312f1c7ae2c6c657c9c67bf5a37213ab60001b612d3e565b61316c7fb8eadccf24dfa952f685f33d4319026b0a70cfaed37663bd7778dc261716204f60001b612d3e565b6131987f3fd4e04e5117b1aa53a49a86aef38bb26773aeaf400a8eca28c0799149132b2360001b612d3e565b60001515600a60003373ffffffffffffffffffffffffffffffffffffffff1673ffffffffffffffffffffffffffffffffffffffff16815260200190815260200160002060009054906101000a900460ff161515141561333f5761321d7f2d64f8f354ea36d19694283144b8d1e3805e80dada3e65bf487a7164371da45860001b612d3e565b6132497f12378c183e303754ba4b0f9047775d59a87c60b42466bd24312866827982671460001b612d3e565b6132757f25db13e3232fe2481d122944d5722014264404471f93dd95b2056b63841b8d4560001b612d3e565b6001600a60003373ffffffffffffffffffffffffffffffffffffffff1673ffffffffffffffffffffffffffffffffffffffff16815260200190815260200160002060006101000a81548160ff0219169083151502179055506132f97fd1531c1ae183378e4d023e80734569a014b68585e1c0520c16565cd23b2f8e6860001b612d3e565b6133257f8ec277065f04151ae832866d3810ba68ca30ce63e553b796398ef9abb5317ca060001b612d3e565b6001600954613334919061464d565b60098190555061336c565b61336b7f57995697c3dc42aef29a9162a9fac546a4cad49d96542e3cd7a5ac492d46021f60001b612d3e565b5b6133987f6482a7e79f0795bc9f7e9bbb5475a86e1e2d3fedf018b52e9e2396d1bc5c42b260001b612d3e565b6133c47ff426143e37ec373dbb2ae4193d7e30e3e2cf93c3ad1e06ace2105172f5d0b1c860001b612d3e565b3373ffffffffffffffffffffffffffffffffffffffff167f070ebb08109e8151dd49dec1ba08cec18082514f31659837d36c851b908860ce824260405161340c9291906143be565b60405180910390a250565b6134437f1b2e57ecb3cd0813c0e7d6e459060ae0c11ab3bf6ae80cc23371ea0fdfc33b6360001b612d3e565b61346f7fc6ec0ced80f4b9f82fbf7aa2d5163ee71dc18a4ddb85c93019cb323f82414d0f60001b612d3e565b61349b7f1c72cf469a5a60c4e25e631e0bb1665aecf7cc1491069910d71c1936c18028a860001b612d3e565b6134c77f91f522b4e31aca990a6edb08695af247245c3e925ba492e5cfc041cbb8aa49df60001b612d3e565b60008054906101000a900473ffffffffffffffffffffffffffffffffffffffff1673ffffffffffffffffffffffffffffffffffffffff163373ffffffffffffffffffffffffffffffffffffffff1614613555576040517f08c379a000000000000000000000000000000000000000000000000000000000815260040161354c906144fe565b60405180910390fd5b6135817fa8b693d17d9168516a02f18660b6d196eede195e846caf05dd82a339fe013eee60001b612d3e565b6135ad7f567ab75557d01c21e01e50acd79b71c696546da0e650a9237e498a629a920c1c60001b612d3e565b6135d97f8d7c08000814e20507348ac511d8d00b54cc406abe61accb2cf406953e86691e60001b612d3e565b600160149054906101000a900460ff1615600160146101000a81548160ff021916908315150217905550565b60066020528060005260406000206000915090505481565b600b5481565b60076020528160005260406000206020528060005260406000206000915091509054906101000a900460ff1681565b600d5481565b600f5481565b61368a7f25bceb0000ec0f6cc3ba12e9b960752052e976c2df5d788f37b5da7dac78f1ca60001b612d3e565b6136b67ff9242be87869c018f060c6845ef371801c93c15c947910455aa32940d28029b760001b612d3e565b6136e27f37b9b08b863ad2d19ed93c126c21428097aae2aff6e33660bfe4599137ed24ef60001b612d3e565b61370e7f92fd2b57115e28088b39a9ffdf4f10212dc0201efa5e981462be29694deff2e160001b612d3e565b60001515600160149054906101000a900460ff16151514613764576040517f08c379a000000000000000000000000000000000000000000000000000000000815260040161375b906144be565b60405180910390fd5b6137907feffd08acf2af4addeb09c1c6be3280088a0c1a6b5ee25ca86204f2098bd39a3260001b612d3e565b6137bc7f10ed6cc5a42744d6773dba7086afe3d413c27bbddd280f23e4e549e0d052ca3a60001b612d3e565b6137e87ff92df508b16961db40fa38d9008727a83ecfa34d5f0eb4002c74b32cc5f9c4d960001b612d3e565b6138147f9c0031c968a951f2f1b44cc354c1adc0012d66ae9f628802ed6dd4f777716d8160001b612d3e565b6138407ff3af68d72988d2634c52e1119f0f777cc5e9b3e161c03d949e6ce43a4819f24960001b612d3e565b61386c7f79483aa373fddeb61bf3ed88cd07e6afb3a11496ee1ec72208f3a5636c1637a860001b612d3e565b60008054906101000a900473ffffffffffffffffffffffffffffffffffffffff1673ffffffffffffffffffffffffffffffffffffffff163373ffffffffffffffffffffffffffffffffffffffff16146138fa576040517f08c379a00000000000000000000000000000000000000000000000000000000081526004016138f1906144fe565b60405180910390fd5b6139267f0f3f07ad673c228515afa61d3fe3a2a0c5455657f7eacf4715729317755c991a60001b612d3e565b6139527fb03f973de0257537846855f0fde881a067344258fcdc6d98ffc05e7d5b97f29960001b612d3e565b61397e7fceda98d3c715ebd634b21261585e952d9ac234bddd2e5054fb2dbe895af186f660001b612d3e565b600560008273ffffffffffffffffffffffffffffffffffffffff1673ffffffffffffffffffffffffffffffffffffffff16815260200190815260200160002060009054906101000a900460ff1615600560008373ffffffffffffffffffffffffffffffffffffffff1673ffffffffffffffffffffffffffffffffffffffff16815260200190815260200160002060006101000a81548160ff02191690831515021790555050565b600e6020528060005260406000206000915054906101000a900473ffffffffffffffffffffffffffffffffffffffff1681565b60056020528060005260406000206000915054906101000a900460ff1681565b613aa47f25bceb0000ec0f6cc3ba12e9b960752052e976c2df5d788f37b5da7dac78f1ca60001b612d3e565b613ad07ff9242be87869c018f060c6845ef371801c93c15c947910455aa32940d28029b760001b612d3e565b613afc7f37b9b08b863ad2d19ed93c126c21428097aae2aff6e33660bfe4599137ed24ef60001b612d3e565b613b287f92fd2b57115e28088b39a9ffdf4f10212dc0201efa5e981462be29694deff2e160001b612d3e565b60001515600160149054906101000a900460ff16151514613b7e576040517f08c379a0000000000000000000000000000000000000000000000000000000008152600401613b75906144be565b60405180910390fd5b613baa7feffd08acf2af4addeb09c1c6be3280088a0c1a6b5ee25ca86204f2098bd39a3260001b612d3e565b613bd67f10ed6cc5a42744d6773dba7086afe3d413c27bbddd280f23e4e549e0d052ca3a60001b612d3e565b613c027f71707749359c43111496f7ff3fa0ecbaaa43094b86276d5efb835ea1e34c168a60001b612d3e565b613c2e7f81c58cbb21b661bd3bf801ecc912b4152f3e006accc1c755f1adbaad67fec25160001b612d3e565b613c5a7fbb6f0fcd0394961b052216de9e2b8326cbc6f747a04881fd1f3ec572d86c16bb60001b612d3e565b823373ffffffffffffffffffffffffffffffffffffffff16600f547f3e1acfd5f2181de07799d35be451dbddfd093425b11baa4b85098d8f871e90a1858542604051613ca893929190614380565b60405180910390a4613cdc7f867a492174116cd63de825e10278c66179d71383530ab923ec5a1ddd7c28a97860001b612d3e565b613d087f224f301a2bbb6135da473d840e81984e45b6e054be3b4b1f0a237da34cb049d860001b612d3e565b6001600f54613d17919061464d565b600f81905550505050565b6040518060a0016040528060008152602001600081526020016000815260200160008152602001606081525090565b828054828255906000526020600020908101928215613d8d579160200282015b82811115613d8c578251825591602001919060010190613d71565b5b509050613d9a9190613d9e565b5090565b5b80821115613db7576000816000905550600101613d9f565b5090565b6000613dce613dc984614601565b6145d0565b905082815260208101848484011115613de657600080fd5b613df184828561476c565b509392505050565b600081359050613e088161484c565b92915050565b600081359050613e1d81614863565b92915050565b600081359050613e328161487a565b92915050565b600082601f830112613e4957600080fd5b8135613e59848260208601613dbb565b91505092915050565b600081359050613e7181614891565b92915050565b600060208284031215613e8957600080fd5b6000613e9784828501613df9565b91505092915050565b60008060408385031215613eb357600080fd5b6000613ec185828601613df9565b9250506020613ed285828601613df9565b9150509250929050565b60008060408385031215613eef57600080fd5b6000613efd85828601613df9565b9250506020613f0e85828601613e62565b9150509250929050565b600060208284031215613f2a57600080fd5b6000613f3884828501613e23565b91505092915050565b600080600060608486031215613f5657600080fd5b6000613f6486828701613e23565b9350506020613f7586828701613e23565b9250506040613f8686828701613e0e565b9150509250925092565b600080600060608486031215613fa557600080fd5b6000613fb386828701613e23565b9350506020613fc486828701613e23565b925050604084013567ffffffffffffffff811115613fe157600080fd5b613fed86828701613e38565b9150509250925092565b6000806040838503121561400a57600080fd5b600061401885828601613e23565b925050602061402985828601613e62565b9150509250929050565b60006020828403121561404557600080fd5b600061405384828501613e62565b91505092915050565b60008060006060848603121561407157600080fd5b600061407f86828701613e62565b935050602061409086828701613e23565b92505060406140a186828701613e0e565b9150509250925092565b6140b48161471a565b82525050565b6140c381614708565b82525050565b6140d28161472c565b82525050565b6140e181614738565b82525050565b60006140f282614631565b6140fc818561463c565b935061410c81856020860161477b565b6141158161483b565b840191505092915050565b600061412d60148361463c565b91507f416c6c20526f756e647320436f6d706c657465640000000000000000000000006000830152602082019050919050565b600061416d60178361463c565b91507f55736572206973206e6f742043616d706169676e696e670000000000000000006000830152602082019050919050565b60006141ad60168361463c565b91507f556e617574686f72697a656420486f7374706974616c000000000000000000006000830152602082019050919050565b60006141ed600f8361463c565b91507f496e76616c69642046756e6420494400000000000000000000000000000000006000830152602082019050919050565b600061422d600f8361463c565b91507f496e76616c6964205461736b20494400000000000000000000000000000000006000830152602082019050919050565b600061426d60128361463c565b91507f436f6e74726163742069732050617573656400000000000000000000000000006000830152602082019050919050565b60006142ad601d8361463c565b91507f596f7520617265206e6f742074686520636f6f7264696e61746f7220210000006000830152602082019050919050565b60006142ed600a8361463c565b91507f4f6e6c79204f776e6572000000000000000000000000000000000000000000006000830152602082019050919050565b61432981614762565b82525050565b600060208201905061434460008301846140ba565b92915050565b600060208201905061435f60008301846140ab565b92915050565b600060208201905061437a60008301846140c9565b92915050565b600060608201905061439560008301866140d8565b81810360208301526143a781856140e7565b90506143b66040830184614320565b949350505050565b60006040820190506143d360008301856140d8565b6143e06020830184614320565b9392505050565b60006060820190506143fc60008301866140d8565b6144096020830185614320565b6144166040830184614320565b949350505050565b6000602082019050818103600083015261443781614120565b9050919050565b6000602082019050818103600083015261445781614160565b9050919050565b60006020820190508181036000830152614477816141a0565b9050919050565b60006020820190508181036000830152614497816141e0565b9050919050565b600060208201905081810360008301526144b781614220565b9050919050565b600060208201905081810360008301526144d781614260565b9050919050565b600060208201905081810360008301526144f7816142a0565b9050919050565b60006020820190508181036000830152614517816142e0565b9050919050565b60006020820190506145336000830184614320565b92915050565b600060408201905061454e6000830185614320565b61455b60208301846140d8565b9392505050565b60006040820190506145776000830185614320565b6145846020830184614320565b9392505050565b60006080820190506145a06000830187614320565b6145ad6020830186614320565b6145ba6040830185614320565b6145c76060830184614320565b95945050505050565b6000604051905081810181811067ffffffffffffffff821117156145f7576145f661480c565b5b8060405250919050565b600067ffffffffffffffff82111561461c5761461b61480c565b5b601f19601f8301169050602081019050919050565b600081519050919050565b600082825260208201905092915050565b600061465882614762565b915061466383614762565b9250827fffffffffffffffffffffffffffffffffffffffffffffffffffffffffffffffff03821115614698576146976147ae565b5b828201905092915050565b60006146ae82614762565b91506146b983614762565b9250826146c9576146c86147dd565b5b828204905092915050565b60006146df82614762565b91506146ea83614762565b9250828210156146fd576146fc6147ae565b5b828203905092915050565b600061471382614742565b9050919050565b600061472582614742565b9050919050565b60008115159050919050565b6000819050919050565b600073ffffffffffffffffffffffffffffffffffffffff82169050919050565b6000819050919050565b82818337600083830152505050565b60005b8381101561479957808201518184015260208101905061477e565b838111156147a8576000848401525b50505050565b7f4e487b7100000000000000000000000000000000000000000000000000000000600052601160045260246000fd5b7f4e487b7100000000000000000000000000000000000000000000000000000000600052601260045260246000fd5b7f4e487b7100000000000000000000000000000000000000000000000000000000600052604160045260246000fd5b6000601f19601f8301169050919050565b61485581614708565b811461486057600080fd5b50565b61486c8161471a565b811461487757600080fd5b50565b61488381614738565b811461488e57600080fd5b50565b61489a81614762565b81146148a557600080fd5b5056fea2646970667358221220a29771909b8387d1593cb551f5fe143171e3aace7081c6690dfb20497f4d5c1264736f6c63430008000033",
  "linkReferences": {},
  "deployedLinkReferences": {}
}