{
  "_format": "hh-sol-artifact-1",
  "contractName": "Proxy",
  "sourceName": "contracts/Registry.sol",
  "abi": [
    {
      "inputs": [],
      "stateMutability": "nonpayable",
      "type": "constructor"
    },
    {
      "anonymous": false,
      "inputs": [
        {
          "indexed": true,
          "internalType": "uint256",
          "name": "taskID",
          "type": "uint256"
        },
        {
          "indexed": false,
          "internalType": "bytes32",
          "name": "_modelHash",
          "type": "bytes32"
        },
        {
          "indexed": false,
          "internalType": "uint256",
          "name": "_time",
          "type": "uint256"
        }
      ],
      "name": "modelUpdated",
      "type": "event"
    },
    {
      "anonymous": false,
      "inputs": [
        {
          "indexed": true,
          "internalType": "address",
          "name": "_from",
          "type": "address"
        },
        {
          "indexed": true,
          "internalType": "address",
          "name": "_to",
          "type": "address"
        },
        {
          "indexed": false,
          "internalType": "bool",
          "name": "_finalState",
          "type": "bool"
        }
      ],
      "name": "newApproval",
      "type": "event"
    },
    {
      "anonymous": false,
      "inputs": [
        {
          "indexed": true,
          "internalType": "address",
          "name": "_campaigner",
          "type": "address"
        },
        {
          "indexed": false,
          "internalType": "bytes32",
          "name": "_campaignData",
          "type": "bytes32"
        },
        {
          "indexed": false,
          "internalType": "uint256",
          "name": "_createdAt",
          "type": "uint256"
        }
      ],
      "name": "newCampaign",
      "type": "event"
    },
    {
      "anonymous": false,
      "inputs": [
        {
          "indexed": true,
          "internalType": "address",
          "name": "_campaigner",
          "type": "address"
        },
        {
          "indexed": true,
          "internalType": "address",
          "name": "_from",
          "type": "address"
        },
        {
          "indexed": false,
          "internalType": "uint256",
          "name": "amount",
          "type": "uint256"
        }
      ],
      "name": "newCampaignDonation",
      "type": "event"
    },
    {
      "anonymous": false,
      "inputs": [
        {
          "indexed": false,
          "internalType": "uint256",
          "name": "_fundIndex",
          "type": "uint256"
        },
        {
          "indexed": true,
          "internalType": "bytes32",
          "name": "_orgName",
          "type": "bytes32"
        },
        {
          "indexed": false,
          "internalType": "bytes32",
          "name": "_fundName",
          "type": "bytes32"
        }
      ],
      "name": "newFund",
      "type": "event"
    },
    {
      "anonymous": false,
      "inputs": [
        {
          "indexed": false,
          "internalType": "uint256",
          "name": "_fundIndex",
          "type": "uint256"
        },
        {
          "indexed": true,
          "internalType": "address",
          "name": "_sender",
          "type": "address"
        },
        {
          "indexed": true,
          "internalType": "address",
          "name": "_receiver",
          "type": "address"
        },
        {
          "indexed": false,
          "internalType": "uint256",
          "name": "_amount",
          "type": "uint256"
        }
      ],
      "name": "newFundDonation",
      "type": "event"
    },
    {
      "anonymous": false,
      "inputs": [
        {
          "indexed": true,
          "internalType": "uint256",
          "name": "_index",
          "type": "uint256"
        },
        {
          "indexed": true,
          "internalType": "address",
          "name": "_reporter",
          "type": "address"
        },
        {
          "indexed": true,
          "internalType": "bytes32",
          "name": "_location",
          "type": "bytes32"
        },
        {
          "indexed": false,
          "internalType": "bytes32",
          "name": "_file",
          "type": "bytes32"
        },
        {
          "indexed": false,
          "internalType": "string",
          "name": "_details",
          "type": "string"
        },
        {
          "indexed": false,
          "internalType": "uint256",
          "name": "_time",
          "type": "uint256"
        }
      ],
      "name": "newReport",
      "type": "event"
    },
    {
      "anonymous": false,
      "inputs": [
        {
          "indexed": true,
          "internalType": "uint256",
          "name": "taskID",
          "type": "uint256"
        },
        {
          "indexed": true,
          "internalType": "address",
          "name": "_user",
          "type": "address"
        },
        {
          "indexed": false,
          "internalType": "bytes32",
          "name": "_modelHash",
          "type": "bytes32"
        },
        {
          "indexed": false,
          "internalType": "uint256",
          "name": "_amt",
          "type": "uint256"
        },
        {
          "indexed": false,
          "internalType": "uint256",
          "name": "_time",
          "type": "uint256"
        }
      ],
      "name": "newTaskCreated",
      "type": "event"
    },
    {
      "stateMutability": "payable",
      "type": "fallback"
    },
    {
      "inputs": [
        {
          "internalType": "uint256",
          "name": "",
          "type": "uint256"
        }
      ],
      "name": "Campaigns",
      "outputs": [
        {
          "internalType": "address",
          "name": "",
          "type": "address"
        }
      ],
      "stateMutability": "view",
      "type": "function"
    },
    {
      "inputs": [
        {
          "internalType": "uint256",
          "name": "",
          "type": "uint256"
        }
      ],
      "name": "Funds",
      "outputs": [
        {
          "internalType": "address payable",
          "name": "",
          "type": "address"
        }
      ],
      "stateMutability": "view",
      "type": "function"
    },
    {
      "inputs": [
        {
          "internalType": "uint256",
          "name": "",
          "type": "uint256"
        }
      ],
      "name": "SaarthiTasks",
      "outputs": [
        {
          "internalType": "uint256",
          "name": "taskID",
          "type": "uint256"
        },
        {
          "internalType": "uint256",
          "name": "currentRound",
          "type": "uint256"
        },
        {
          "internalType": "uint256",
          "name": "totalRounds",
          "type": "uint256"
        },
        {
          "internalType": "uint256",
          "name": "cost",
          "type": "uint256"
        }
      ],
      "stateMutability": "view",
      "type": "function"
    },
    {
      "inputs": [
        {
          "internalType": "address",
          "name": "",
          "type": "address"
        },
        {
          "internalType": "uint256",
          "name": "",
          "type": "uint256"
        }
      ],
      "name": "UserTaskIDs",
      "outputs": [
        {
          "internalType": "uint256",
          "name": "",
          "type": "uint256"
        }
      ],
      "stateMutability": "view",
      "type": "function"
    },
    {
      "inputs": [],
      "name": "_handle",
      "outputs": [],
      "stateMutability": "payable",
      "type": "function"
    },
    {
      "inputs": [],
      "name": "activeCampaignCnt",
      "outputs": [
        {
          "internalType": "uint256",
          "name": "",
          "type": "uint256"
        }
      ],
      "stateMutability": "view",
      "type": "function"
    },
    {
      "inputs": [],
      "name": "admin",
      "outputs": [
        {
          "internalType": "address",
          "name": "",
          "type": "address"
        }
      ],
      "stateMutability": "view",
      "type": "function"
    },
    {
      "inputs": [
        {
          "internalType": "address",
          "name": "",
          "type": "address"
        },
        {
          "internalType": "address",
          "name": "",
          "type": "address"
        }
      ],
      "name": "approval",
      "outputs": [
        {
          "internalType": "bool",
          "name": "",
          "type": "bool"
        }
      ],
      "stateMutability": "view",
      "type": "function"
    },
    {
      "inputs": [
        {
          "internalType": "address",
          "name": "",
          "type": "address"
        }
      ],
      "name": "billAmounts",
      "outputs": [
        {
          "internalType": "uint256",
          "name": "",
          "type": "uint256"
        }
      ],
      "stateMutability": "view",
      "type": "function"
    },
    {
      "inputs": [
        {
          "internalType": "address",
          "name": "",
          "type": "address"
        }
      ],
      "name": "campaignEnabled",
      "outputs": [
        {
          "internalType": "bool",
          "name": "",
          "type": "bool"
        }
      ],
      "stateMutability": "view",
      "type": "function"
    },
    {
      "inputs": [],
      "name": "coordinatorAddress",
      "outputs": [
        {
          "internalType": "address",
          "name": "",
          "type": "address"
        }
      ],
      "stateMutability": "view",
      "type": "function"
    },
    {
      "inputs": [],
      "name": "fundCnt",
      "outputs": [
        {
          "internalType": "uint256",
          "name": "",
          "type": "uint256"
        }
      ],
      "stateMutability": "view",
      "type": "function"
    },
    {
      "inputs": [
        {
          "internalType": "address",
          "name": "",
          "type": "address"
        }
      ],
      "name": "hospitals",
      "outputs": [
        {
          "internalType": "bool",
          "name": "",
          "type": "bool"
        }
      ],
      "stateMutability": "view",
      "type": "function"
    },
    {
      "inputs": [],
      "name": "implementation",
      "outputs": [
        {
          "internalType": "address",
          "name": "",
          "type": "address"
        }
      ],
      "stateMutability": "view",
      "type": "function"
    },
    {
      "inputs": [],
      "name": "nextTaskID",
      "outputs": [
        {
          "internalType": "uint256",
          "name": "",
          "type": "uint256"
        }
      ],
      "stateMutability": "view",
      "type": "function"
    },
    {
      "inputs": [],
      "name": "owner",
      "outputs": [
        {
          "internalType": "address",
          "name": "",
          "type": "address"
        }
      ],
      "stateMutability": "view",
      "type": "function"
    },
    {
      "inputs": [],
      "name": "paused",
      "outputs": [
        {
          "internalType": "bool",
          "name": "",
          "type": "bool"
        }
      ],
      "stateMutability": "view",
      "type": "function"
    },
    {
      "inputs": [],
      "name": "reportCnt",
      "outputs": [
        {
          "internalType": "uint256",
          "name": "",
          "type": "uint256"
        }
      ],
      "stateMutability": "view",
      "type": "function"
    },
    {
      "inputs": [],
      "name": "totalDonationAmount",
      "outputs": [
        {
          "internalType": "uint256",
          "name": "",
          "type": "uint256"
        }
      ],
      "stateMutability": "view",
      "type": "function"
    },
    {
      "inputs": [],
      "name": "totalDonationCnt",
      "outputs": [
        {
          "internalType": "uint256",
          "name": "",
          "type": "uint256"
        }
      ],
      "stateMutability": "view",
      "type": "function"
    },
    {
      "inputs": [
        {
          "internalType": "address",
          "name": "_c",
          "type": "address"
        }
      ],
      "name": "upgradeTo",
      "outputs": [
        {
          "internalType": "bool",
          "name": "success",
          "type": "bool"
        }
      ],
      "stateMutability": "nonpayable",
      "type": "function"
    },
    {
      "inputs": [],
      "name": "version",
      "outputs": [
        {
          "internalType": "uint256",
          "name": "",
          "type": "uint256"
        }
      ],
      "stateMutability": "view",
      "type": "function"
    },
    {
      "stateMutability": "payable",
      "type": "receive"
    }
  ],
  "bytecode": "0x60806040526000805560016003556000600a556000600c556000600d556000600e55600060105534801561003257600080fd5b50601180546001600160a01b031916331790556107f7806100546000396000f3fe6080604052600436106101795760003560e01c80639ff60711116100cb578063e1270b6e1161007f578063eee9b99e11610059578063eee9b99e14610397578063f093cf80146103b7578063f851a440146103d757610188565b8063e1270b6e1461034d578063e1c7dbe31461036d578063e3f2d24f1461038257610188565b8063b86f3c83116100b0578063b86f3c8314610188578063c4d8fea714610318578063cd5e54831461033857610188565b80639ff60711146102e3578063b063795c1461030357610188565b80635c60da1b1161012d5780636946c5e9116101075780636946c5e91461029957806382003b31146102b95780638da5cb5b146102ce57610188565b80635c60da1b1461023f5780635c975abb146102545780636092a5021461026957610188565b80634013be101161015e5780634013be10146101e857806354fd4d50146102155780635af09fe21461022a57610188565b806317849646146101905780633659cfe6146101bb57610188565b36610188576101866103ec565b005b6101866103ec565b34801561019c57600080fd5b506101a561042d565b6040516101b29190610760565b60405180910390f35b3480156101c757600080fd5b506101db6101d63660046106a0565b610433565b6040516101b29190610755565b3480156101f457600080fd5b5061020861020336600461071c565b6104b4565b6040516101b29190610734565b34801561022157600080fd5b506101a56104eb565b34801561023657600080fd5b506101a56104f1565b34801561024b57600080fd5b506102086104f7565b34801561026057600080fd5b506101db610513565b34801561027557600080fd5b5061028961028436600461071c565b610534565b6040516101b29493929190610769565b3480156102a557600080fd5b506101a56102b43660046106f3565b61055b565b3480156102c557600080fd5b5061020861058c565b3480156102da57600080fd5b506102086105a8565b3480156102ef57600080fd5b506101db6102fe3660046106a0565b6105c4565b34801561030f57600080fd5b506101a56105d9565b34801561032457600080fd5b506101a56103333660046106a0565b6105df565b34801561034457600080fd5b506101a56105f1565b34801561035957600080fd5b506101db6103683660046106c1565b6105f7565b34801561037957600080fd5b506101a5610617565b34801561038e57600080fd5b506101a561061d565b3480156103a357600080fd5b506102086103b236600461071c565b610623565b3480156103c357600080fd5b506101db6103d23660046106a0565b61064b565b3480156103e357600080fd5b50610208610660565b60125460405173ffffffffffffffffffffffffffffffffffffffff9091169036600082376000803683855af43d806000843e818015610429578184f35b8184fd5b600d5481565b60115460009073ffffffffffffffffffffffffffffffffffffffff16331461045a57600080fd5b601280547fffffffffffffffffffffffff00000000000000000000000000000000000000001673ffffffffffffffffffffffffffffffffffffffff84161790556000546104a8906001610784565b6000555060015b919050565b600981815481106104c457600080fd5b60009182526020909120015473ffffffffffffffffffffffffffffffffffffffff16905081565b60005481565b60035481565b60125473ffffffffffffffffffffffffffffffffffffffff1681565b60025474010000000000000000000000000000000000000000900460ff1681565b60046020526000908152604090208054600182015460028301546003909301549192909184565b6005602052816000526040600020818154811061057757600080fd5b90600052602060002001600091509150505481565b60025473ffffffffffffffffffffffffffffffffffffffff1681565b60115473ffffffffffffffffffffffffffffffffffffffff1681565b600b6020526000908152604090205460ff1681565b600a5481565b60076020526000908152604090205481565b600c5481565b600860209081526000928352604080842090915290825290205460ff1681565b600e5481565b60105481565b600f6020526000908152604090205473ffffffffffffffffffffffffffffffffffffffff1681565b60066020526000908152604090205460ff1681565b60015473ffffffffffffffffffffffffffffffffffffffff1681565b803573ffffffffffffffffffffffffffffffffffffffff811681146104af57600080fd5b6000602082840312156106b1578081fd5b6106ba8261067c565b9392505050565b600080604083850312156106d3578081fd5b6106dc8361067c565b91506106ea6020840161067c565b90509250929050565b60008060408385031215610705578182fd5b61070e8361067c565b946020939093013593505050565b60006020828403121561072d578081fd5b5035919050565b73ffffffffffffffffffffffffffffffffffffffff91909116815260200190565b901515815260200190565b90815260200190565b93845260208401929092526040830152606082015260800190565b600082198211156107bc577f4e487b710000000000000000000000000000000000000000000000000000000081526011600452602481fd5b50019056fea2646970667358221220eaa21d452cd8c5c7286a91f06cf8ecb0c3e64b8d0f3936ad0077154bc6e8444764736f6c63430008000033",
  "linkReferences": {},
  "deployedLinkReferences": {}
}