{
  "_format": "hh-sol-artifact-1",
  "contractName": "Saarthi",
  "sourceName": "contracts/Saarthi.sol",
  "abi": [
    {
      "inputs": [],
      "stateMutability": "nonpayable",
      "type": "constructor"
    },
    {
      "anonymous": false,
      "inputs": [
        {
          "indexed": true,
          "internalType": "uint256",
          "name": "taskID",
          "type": "uint256"
        },
        {
          "indexed": false,
          "internalType": "bytes32",
          "name": "_modelHash",
          "type": "bytes32"
        },
        {
          "indexed": false,
          "internalType": "uint256",
          "name": "_time",
          "type": "uint256"
        }
      ],
      "name": "modelUpdated",
      "type": "event"
    },
    {
      "anonymous": false,
      "inputs": [
        {
          "indexed": true,
          "internalType": "address",
          "name": "_from",
          "type": "address"
        },
        {
          "indexed": true,
          "internalType": "address",
          "name": "_to",
          "type": "address"
        },
        {
          "indexed": false,
          "internalType": "bool",
          "name": "_finalState",
          "type": "bool"
        }
      ],
      "name": "newApproval",
      "type": "event"
    },
    {
      "anonymous": false,
      "inputs": [
        {
          "indexed": true,
          "internalType": "address",
          "name": "_campaigner",
          "type": "address"
        },
        {
          "indexed": false,
          "internalType": "bytes32",
          "name": "_campaignData",
          "type": "bytes32"
        },
        {
          "indexed": false,
          "internalType": "uint256",
          "name": "_createdAt",
          "type": "uint256"
        }
      ],
      "name": "newCampaign",
      "type": "event"
    },
    {
      "anonymous": false,
      "inputs": [
        {
          "indexed": true,
          "internalType": "address",
          "name": "_campaigner",
          "type": "address"
        },
        {
          "indexed": true,
          "internalType": "address",
          "name": "_from",
          "type": "address"
        },
        {
          "indexed": false,
          "internalType": "uint256",
          "name": "amount",
          "type": "uint256"
        }
      ],
      "name": "newCampaignDonation",
      "type": "event"
    },
    {
      "anonymous": false,
      "inputs": [
        {
          "indexed": false,
          "internalType": "uint256",
          "name": "_fundIndex",
          "type": "uint256"
        },
        {
          "indexed": true,
          "internalType": "bytes32",
          "name": "_orgName",
          "type": "bytes32"
        },
        {
          "indexed": false,
          "internalType": "bytes32",
          "name": "_fundName",
          "type": "bytes32"
        }
      ],
      "name": "newFund",
      "type": "event"
    },
    {
      "anonymous": false,
      "inputs": [
        {
          "indexed": false,
          "internalType": "uint256",
          "name": "_fundIndex",
          "type": "uint256"
        },
        {
          "indexed": true,
          "internalType": "address",
          "name": "_sender",
          "type": "address"
        },
        {
          "indexed": true,
          "internalType": "address",
          "name": "_receiver",
          "type": "address"
        },
        {
          "indexed": false,
          "internalType": "uint256",
          "name": "_amount",
          "type": "uint256"
        }
      ],
      "name": "newFundDonation",
      "type": "event"
    },
    {
      "anonymous": false,
      "inputs": [
        {
          "indexed": true,
          "internalType": "uint256",
          "name": "_index",
          "type": "uint256"
        },
        {
          "indexed": true,
          "internalType": "address",
          "name": "_reporter",
          "type": "address"
        },
        {
          "indexed": true,
          "internalType": "bytes32",
          "name": "_location",
          "type": "bytes32"
        },
        {
          "indexed": false,
          "internalType": "bytes32",
          "name": "_file",
          "type": "bytes32"
        },
        {
          "indexed": false,
          "internalType": "string",
          "name": "_details",
          "type": "string"
        },
        {
          "indexed": false,
          "internalType": "uint256",
          "name": "_time",
          "type": "uint256"
        }
      ],
      "name": "newReport",
      "type": "event"
    },
    {
      "anonymous": false,
      "inputs": [
        {
          "indexed": true,
          "internalType": "uint256",
          "name": "taskID",
          "type": "uint256"
        },
        {
          "indexed": true,
          "internalType": "address",
          "name": "_user",
          "type": "address"
        },
        {
          "indexed": false,
          "internalType": "bytes32",
          "name": "_modelHash",
          "type": "bytes32"
        },
        {
          "indexed": false,
          "internalType": "uint256",
          "name": "_amt",
          "type": "uint256"
        },
        {
          "indexed": false,
          "internalType": "uint256",
          "name": "_time",
          "type": "uint256"
        }
      ],
      "name": "newTaskCreated",
      "type": "event"
    },
    {
      "inputs": [
        {
          "internalType": "uint256",
          "name": "",
          "type": "uint256"
        }
      ],
      "name": "Campaigns",
      "outputs": [
        {
          "internalType": "address",
          "name": "",
          "type": "address"
        }
      ],
      "stateMutability": "view",
      "type": "function"
    },
    {
      "inputs": [
        {
          "internalType": "uint256",
          "name": "",
          "type": "uint256"
        }
      ],
      "name": "Funds",
      "outputs": [
        {
          "internalType": "address payable",
          "name": "",
          "type": "address"
        }
      ],
      "stateMutability": "view",
      "type": "function"
    },
    {
      "inputs": [
        {
          "internalType": "uint256",
          "name": "",
          "type": "uint256"
        }
      ],
      "name": "SaarthiTasks",
      "outputs": [
        {
          "internalType": "uint256",
          "name": "taskID",
          "type": "uint256"
        },
        {
          "internalType": "uint256",
          "name": "currentRound",
          "type": "uint256"
        },
        {
          "internalType": "uint256",
          "name": "totalRounds",
          "type": "uint256"
        },
        {
          "internalType": "uint256",
          "name": "cost",
          "type": "uint256"
        }
      ],
      "stateMutability": "view",
      "type": "function"
    },
    {
      "inputs": [
        {
          "internalType": "address",
          "name": "",
          "type": "address"
        },
        {
          "internalType": "uint256",
          "name": "",
          "type": "uint256"
        }
      ],
      "name": "UserTaskIDs",
      "outputs": [
        {
          "internalType": "uint256",
          "name": "",
          "type": "uint256"
        }
      ],
      "stateMutability": "view",
      "type": "function"
    },
    {
      "inputs": [],
      "name": "activeCampaignCnt",
      "outputs": [
        {
          "internalType": "uint256",
          "name": "",
          "type": "uint256"
        }
      ],
      "stateMutability": "view",
      "type": "function"
    },
    {
      "inputs": [
        {
          "internalType": "address",
          "name": "",
          "type": "address"
        },
        {
          "internalType": "address",
          "name": "",
          "type": "address"
        }
      ],
      "name": "approval",
      "outputs": [
        {
          "internalType": "bool",
          "name": "",
          "type": "bool"
        }
      ],
      "stateMutability": "view",
      "type": "function"
    },
    {
      "inputs": [
        {
          "internalType": "address",
          "name": "",
          "type": "address"
        }
      ],
      "name": "billAmounts",
      "outputs": [
        {
          "internalType": "uint256",
          "name": "",
          "type": "uint256"
        }
      ],
      "stateMutability": "view",
      "type": "function"
    },
    {
      "inputs": [
        {
          "internalType": "address",
          "name": "_user",
          "type": "address"
        },
        {
          "internalType": "uint256",
          "name": "_amt",
          "type": "uint256"
        }
      ],
      "name": "billUser",
      "outputs": [],
      "stateMutability": "nonpayable",
      "type": "function"
    },
    {
      "inputs": [
        {
          "internalType": "address",
          "name": "",
          "type": "address"
        }
      ],
      "name": "campaignEnabled",
      "outputs": [
        {
          "internalType": "bool",
          "name": "",
          "type": "bool"
        }
      ],
      "stateMutability": "view",
      "type": "function"
    },
    {
      "inputs": [],
      "name": "coordinatorAddress",
      "outputs": [
        {
          "internalType": "address",
          "name": "",
          "type": "address"
        }
      ],
      "stateMutability": "view",
      "type": "function"
    },
    {
      "inputs": [
        {
          "internalType": "bytes32",
          "name": "_orgName",
          "type": "bytes32"
        },
        {
          "internalType": "bytes32",
          "name": "_fundName",
          "type": "bytes32"
        },
        {
          "internalType": "address payable",
          "name": "_orgAdress",
          "type": "address"
        }
      ],
      "name": "createFund",
      "outputs": [],
      "stateMutability": "nonpayable",
      "type": "function"
    },
    {
      "inputs": [
        {
          "internalType": "bytes32",
          "name": "_modelHash",
          "type": "bytes32"
        },
        {
          "internalType": "uint256",
          "name": "_rounds",
          "type": "uint256"
        }
      ],
      "name": "createTask",
      "outputs": [],
      "stateMutability": "payable",
      "type": "function"
    },
    {
      "inputs": [
        {
          "internalType": "address",
          "name": "_user",
          "type": "address"
        }
      ],
      "name": "donateToCampaign",
      "outputs": [],
      "stateMutability": "payable",
      "type": "function"
    },
    {
      "inputs": [
        {
          "internalType": "uint256",
          "name": "_fundIndex",
          "type": "uint256"
        }
      ],
      "name": "donateToFund",
      "outputs": [],
      "stateMutability": "payable",
      "type": "function"
    },
    {
      "inputs": [
        {
          "internalType": "bytes32",
          "name": "_location",
          "type": "bytes32"
        },
        {
          "internalType": "bytes32",
          "name": "_file",
          "type": "bytes32"
        },
        {
          "internalType": "string",
          "name": "_details",
          "type": "string"
        }
      ],
      "name": "fileReport",
      "outputs": [],
      "stateMutability": "nonpayable",
      "type": "function"
    },
    {
      "inputs": [],
      "name": "fundCnt",
      "outputs": [
        {
          "internalType": "uint256",
          "name": "",
          "type": "uint256"
        }
      ],
      "stateMutability": "view",
      "type": "function"
    },
    {
      "inputs": [
        {
          "internalType": "address",
          "name": "",
          "type": "address"
        }
      ],
      "name": "hospitals",
      "outputs": [
        {
          "internalType": "bool",
          "name": "",
          "type": "bool"
        }
      ],
      "stateMutability": "view",
      "type": "function"
    },
    {
      "inputs": [],
      "name": "nextTaskID",
      "outputs": [
        {
          "internalType": "uint256",
          "name": "",
          "type": "uint256"
        }
      ],
      "stateMutability": "view",
      "type": "function"
    },
    {
      "inputs": [],
      "name": "owner",
      "outputs": [
        {
          "internalType": "address",
          "name": "",
          "type": "address"
        }
      ],
      "stateMutability": "view",
      "type": "function"
    },
    {
      "inputs": [],
      "name": "paused",
      "outputs": [
        {
          "internalType": "bool",
          "name": "",
          "type": "bool"
        }
      ],
      "stateMutability": "view",
      "type": "function"
    },
    {
      "inputs": [],
      "name": "reportCnt",
      "outputs": [
        {
          "internalType": "uint256",
          "name": "",
          "type": "uint256"
        }
      ],
      "stateMutability": "view",
      "type": "function"
    },
    {
      "inputs": [
        {
          "internalType": "bytes32",
          "name": "_campaignData",
          "type": "bytes32"
        }
      ],
      "name": "startCampaign",
      "outputs": [],
      "stateMutability": "nonpayable",
      "type": "function"
    },
    {
      "inputs": [],
      "name": "stopCampaign",
      "outputs": [],
      "stateMutability": "nonpayable",
      "type": "function"
    },
    {
      "inputs": [
        {
          "internalType": "address",
          "name": "_address",
          "type": "address"
        }
      ],
      "name": "toggleAccessToAddress",
      "outputs": [],
      "stateMutability": "nonpayable",
      "type": "function"
    },
    {
      "inputs": [
        {
          "internalType": "address",
          "name": "_address",
          "type": "address"
        }
      ],
      "name": "toggleHospital",
      "outputs": [],
      "stateMutability": "nonpayable",
      "type": "function"
    },
    {
      "inputs": [],
      "name": "togglePause",
      "outputs": [],
      "stateMutability": "nonpayable",
      "type": "function"
    },
    {
      "inputs": [],
      "name": "totalDonationAmount",
      "outputs": [
        {
          "internalType": "uint256",
          "name": "",
          "type": "uint256"
        }
      ],
      "stateMutability": "view",
      "type": "function"
    },
    {
      "inputs": [],
      "name": "totalDonationCnt",
      "outputs": [
        {
          "internalType": "uint256",
          "name": "",
          "type": "uint256"
        }
      ],
      "stateMutability": "view",
      "type": "function"
    },
    {
      "inputs": [
        {
          "internalType": "uint256",
          "name": "_taskID",
          "type": "uint256"
        },
        {
          "internalType": "bytes32",
          "name": "_modelHash",
          "type": "bytes32"
        },
        {
          "internalType": "address payable",
          "name": "computer",
          "type": "address"
        }
      ],
      "name": "updateModelForTask",
      "outputs": [],
      "stateMutability": "nonpayable",
      "type": "function"
    },
    {
      "inputs": [
        {
          "internalType": "address",
          "name": "_newOwner",
          "type": "address"
        }
      ],
      "name": "updateOwner",
      "outputs": [],
      "stateMutability": "nonpayable",
      "type": "function"
    }
  ],
  "bytecode": "0x60806040526001805460ff60a01b1916815560025560006009819055600b819055600c819055600d819055600f5534801561003957600080fd5b5060008054336001600160a01b03199182168117835560018054909216179055611baf90819061006990396000f3fe6080604052600436106101cd5760003560e01c8063880cdc31116100f7578063cd5e548311610095578063ec27035311610064578063ec270353146104b4578063eee9b99e146104d4578063f093cf80146104f4578063f1fcc8e914610514576101cd565b8063cd5e548314610455578063e1270b6e1461046a578063e1c7dbe31461048a578063e3f2d24f1461049f576101cd565b8063b063795c116100d1578063b063795c146103eb578063c06a260d14610400578063c4ae316814610420578063c4d8fea714610435576101cd565b8063880cdc31146103965780638da5cb5b146103b65780639ff60711146103cb576101cd565b80634e1dd1a41161016f5780636946c5e91161013e5780636946c5e91461033b5780636fbb5f621461035b5780637c6abc821461036e57806382003b3114610381576101cd565b80634e1dd1a4146102b45780635af09fe2146102d45780635c975abb146102e95780636092a5021461030b576101cd565b806316f1bc22116101ab57806316f1bc2214610227578063178496461461023c57806322af0c0b146102675780634013be1014610287576101cd565b8063022decd9146101d25780630d3bb50f146101f457806311cd13ac14610214575b600080fd5b3480156101de57600080fd5b506101f26101ed36600461165d565b610534565b005b34801561020057600080fd5b506101f261020f3660046116a0565b61063e565b6101f2610222366004611688565b61073a565b34801561023357600080fd5b506101f26108a8565b34801561024857600080fd5b50610251610982565b60405161025e9190611a6a565b60405180910390f35b34801561027357600080fd5b506101f26102823660046117cd565b610988565b34801561029357600080fd5b506102a76102a2366004611688565b610bd9565b60405161025e91906117e1565b3480156102c057600080fd5b506101f26102cf366004611602565b610c10565b3480156102e057600080fd5b50610251610ca6565b3480156102f557600080fd5b506102fe610cac565b60405161025e9190611802565b34801561031757600080fd5b5061032b610326366004611688565b610ccd565b60405161025e9493929190611a73565b34801561034757600080fd5b5061025161035636600461165d565b610cf6565b6101f26103693660046117ac565b610d27565b6101f261037c366004611602565b610f4b565b34801561038d57600080fd5b506102a76110a4565b3480156103a257600080fd5b506101f26103b1366004611602565b6110c0565b3480156103c257600080fd5b506102a7611158565b3480156103d757600080fd5b506102fe6103e6366004611602565b611174565b3480156103f757600080fd5b50610251611189565b34801561040c57600080fd5b506101f261041b366004611688565b61118f565b34801561042c57600080fd5b506101f2611299565b34801561044157600080fd5b50610251610450366004611602565b611337565b34801561046157600080fd5b50610251611349565b34801561047657600080fd5b506102fe610485366004611625565b61134f565b34801561049657600080fd5b5061025161136f565b3480156104ab57600080fd5b50610251611375565b3480156104c057600080fd5b506101f26104cf366004611602565b61137b565b3480156104e057600080fd5b506102a76104ef366004611688565b611475565b34801561050057600080fd5b506102fe61050f366004611602565b61149d565b34801561052057600080fd5b506101f261052f3660046116d8565b6114b2565b60015474010000000000000000000000000000000000000000900460ff1615610592576040517f08c379a0000000000000000000000000000000000000000000000000000000008152600401610589906119c5565b60405180910390fd5b3360009081526005602052604090205460ff1615156001146105e0576040517f08c379a000000000000000000000000000000000000000000000000000000000815260040161058990611920565b73ffffffffffffffffffffffffffffffffffffffff8216600090815260066020526040902054610611908290611a8e565b73ffffffffffffffffffffffffffffffffffffffff90921660009081526006602052604090209190915550565b60015474010000000000000000000000000000000000000000900460ff1615610693576040517f08c379a0000000000000000000000000000000000000000000000000000000008152600401610589906119c5565b6000600b5460016106a49190611a8e565b6000818152600e60205260409081902080547fffffffffffffffffffffffff00000000000000000000000000000000000000001673ffffffffffffffffffffffffffffffffffffffff8616179055600b8290555190915084907fb99663894dc2a2c66382f63932042aa530244fe0af348b833f4cddea9cfbeb719061072c908490879061188e565b60405180910390a250505050565b60015474010000000000000000000000000000000000000000900460ff161561078f576040517f08c379a0000000000000000000000000000000000000000000000000000000008152600401610589906119c5565b600b548111156107cb576040517f08c379a000000000000000000000000000000000000000000000000000000000815260040161058990611957565b34600c546107d99190611a8e565b600c55600d546107ea906001611a8e565b600d556000818152600e602052604080822054905173ffffffffffffffffffffffffffffffffffffffff909116913480156108fc02929091818181858888f1935050505015801561083f573d6000803e3d6000fd5b506000818152600e60205260409081902054905173ffffffffffffffffffffffffffffffffffffffff9091169033907f2317347462a70f36eb7bac6fb953aca2cd01eb3bcdf5f359babe909811eaed679061089d908590349061188e565b60405180910390a350565b60015474010000000000000000000000000000000000000000900460ff16156108fd576040517f08c379a0000000000000000000000000000000000000000000000000000000008152600401610589906119c5565b336000908152600a602052604090205460ff16151560011461094b576040517f08c379a0000000000000000000000000000000000000000000000000000000008152600401610589906118e9565b336000908152600a6020526040902080547fffffffffffffffffffffffffffffffffffffffffffffffffffffffffffffff00169055565b600c5481565b60015474010000000000000000000000000000000000000000900460ff16156109dd576040517f08c379a0000000000000000000000000000000000000000000000000000000008152600401610589906119c5565b60015473ffffffffffffffffffffffffffffffffffffffff163314610a2e576040517f08c379a0000000000000000000000000000000000000000000000000000000008152600401610589906119fc565b600254831115610a6a576040517f08c379a00000000000000000000000000000000000000000000000000000000081526004016105899061198e565b6000838152600360205260408120600190810154610a8791611a8e565b600085815260036020526040902060020154909150811115610ad5576040517f08c379a0000000000000000000000000000000000000000000000000000000008152600401610589906118b2565b60008481526003602052604090206001808201839055849160040190610afb9084611adf565b81548110610b32577f4e487b7100000000000000000000000000000000000000000000000000000000600052603260045260246000fd5b600091825260208083209091019290925585815260039182905260409020600281015491015473ffffffffffffffffffffffffffffffffffffffff8416916108fc91610b7e9190611aa6565b6040518115909202916000818181858888f19350505050158015610ba6573d6000803e3d6000fd5b50837fe1d58799a6d1cef7a4a5e546e03e11850ef52264511394d1a1f9d8ac73fc5e4c844260405161072c92919061188e565b60088181548110610be957600080fd5b60009182526020909120015473ffffffffffffffffffffffffffffffffffffffff16905081565b33600081815260076020908152604080832073ffffffffffffffffffffffffffffffffffffffff861680855292529182902080547fffffffffffffffffffffffffffffffffffffffffffffffffffffffffffffff00811660ff91821615179182905592519193927fad77d1d38ed980518f1c26c8cd8fe0cc39ba4e9092e1b5f69f0bd23ff1de97fb9261089d9290911690611802565b60025481565b60015474010000000000000000000000000000000000000000900460ff1681565b600360208190526000918252604090912080546001820154600283015492909301549092919084565b60046020528160005260406000208181548110610d1257600080fd5b90600052602060002001600091509150505481565b60015474010000000000000000000000000000000000000000900460ff1615610d7c576040517f08c379a0000000000000000000000000000000000000000000000000000000008152600401610589906119c5565b610d84611573565b6040518060a001604052806002548152602001600181526020018381526020013481526020018367ffffffffffffffff811115610dea577f4e487b7100000000000000000000000000000000000000000000000000000000600052604160045260246000fd5b604051908082528060200260200182016040528015610e13578160200160208202803683370190505b508152509050828160800151600081518110610e58577f4e487b7100000000000000000000000000000000000000000000000000000000600052603260045260246000fd5b60200260200101818152505080600360006002548152602001908152602001600020600082015181600001556020820151816001015560408201518160020155606082015181600301556080820151816004019080519060200190610ebe9291906115a2565b5050336000908152600460209081526040822060028054825460018181018555938652939094209092019290925554610ef8925090611a8e565b60028190553390610f0b90600190611adf565b7fc4dd427940f2b7acf9630ef20ca65879526cfc7a3869483461942027043545f7853442604051610f3e9392919061189c565b60405180910390a3505050565b60015474010000000000000000000000000000000000000000900460ff1615610fa0576040517f08c379a0000000000000000000000000000000000000000000000000000000008152600401610589906119c5565b73ffffffffffffffffffffffffffffffffffffffff81166000908152600a602052604090205460ff161515600114611004576040517f08c379a0000000000000000000000000000000000000000000000000000000008152600401610589906118e9565b60405173ffffffffffffffffffffffffffffffffffffffff8216903480156108fc02916000818181858888f19350505050158015611046573d6000803e3d6000fd5b503373ffffffffffffffffffffffffffffffffffffffff168173ffffffffffffffffffffffffffffffffffffffff167f1d3ff44814877759fdcdec2bace42d6e7e7c1b84ca040ba5d3b4ef988ffd908e3460405161089d9190611a6a565b60015473ffffffffffffffffffffffffffffffffffffffff1681565b60005473ffffffffffffffffffffffffffffffffffffffff163314611111576040517f08c379a000000000000000000000000000000000000000000000000000000000815260040161058990611a33565b600080547fffffffffffffffffffffffff00000000000000000000000000000000000000001673ffffffffffffffffffffffffffffffffffffffff92909216919091179055565b60005473ffffffffffffffffffffffffffffffffffffffff1681565b600a6020526000908152604090205460ff1681565b60095481565b60015474010000000000000000000000000000000000000000900460ff16156111e4576040517f08c379a0000000000000000000000000000000000000000000000000000000008152600401610589906119c5565b336000908152600a602052604090205460ff1661124657336000908152600a6020526040902080547fffffffffffffffffffffffffffffffffffffffffffffffffffffffffffffff0016600190811790915560095461124291611a8e565b6009555b3373ffffffffffffffffffffffffffffffffffffffff167f070ebb08109e8151dd49dec1ba08cec18082514f31659837d36c851b908860ce824260405161128e92919061188e565b60405180910390a250565b60005473ffffffffffffffffffffffffffffffffffffffff1633146112ea576040517f08c379a000000000000000000000000000000000000000000000000000000000815260040161058990611a33565b600180547fffffffffffffffffffffff00ffffffffffffffffffffffffffffffffffffffff8116740100000000000000000000000000000000000000009182900460ff1615909102179055565b60066020526000908152604090205481565b600b5481565b600760209081526000928352604080842090915290825290205460ff1681565b600d5481565b600f5481565b60015474010000000000000000000000000000000000000000900460ff16156113d0576040517f08c379a0000000000000000000000000000000000000000000000000000000008152600401610589906119c5565b60005473ffffffffffffffffffffffffffffffffffffffff163314611421576040517f08c379a000000000000000000000000000000000000000000000000000000000815260040161058990611a33565b73ffffffffffffffffffffffffffffffffffffffff16600090815260056020526040902080547fffffffffffffffffffffffffffffffffffffffffffffffffffffffffffffff00811660ff90911615179055565b600e6020526000908152604090205473ffffffffffffffffffffffffffffffffffffffff1681565b60056020526000908152604090205460ff1681565b60015474010000000000000000000000000000000000000000900460ff1615611507576040517f08c379a0000000000000000000000000000000000000000000000000000000008152600401610589906119c5565b823373ffffffffffffffffffffffffffffffffffffffff16600f547f3e1acfd5f2181de07799d35be451dbddfd093425b11baa4b85098d8f871e90a18585426040516115559392919061180d565b60405180910390a4600f5461156b906001611a8e565b600f55505050565b6040518060a0016040528060008152602001600081526020016000815260200160008152602001606081525090565b8280548282559060005260206000209081019282156115dd579160200282015b828111156115dd5782518255916020019190600101906115c2565b506115e99291506115ed565b5090565b5b808211156115e957600081556001016115ee565b600060208284031215611613578081fd5b813561161e81611b54565b9392505050565b60008060408385031215611637578081fd5b823561164281611b54565b9150602083013561165281611b54565b809150509250929050565b6000806040838503121561166f578182fd5b823561167a81611b54565b946020939093013593505050565b600060208284031215611699578081fd5b5035919050565b6000806000606084860312156116b4578081fd5b833592506020840135915060408401356116cd81611b54565b809150509250925092565b6000806000606084860312156116ec578283fd5b833592506020808501359250604085013567ffffffffffffffff80821115611712578384fd5b818701915087601f830112611725578384fd5b81358181111561173757611737611b25565b604051847fffffffffffffffffffffffffffffffffffffffffffffffffffffffffffffffe0601f840116820101818110848211171561177857611778611b25565b60405281815283820185018a101561178e578586fd5b81858501868301378585838301015280955050505050509250925092565b600080604083850312156117be578182fd5b50508035926020909101359150565b6000806000606084860312156116b4578283fd5b73ffffffffffffffffffffffffffffffffffffffff91909116815260200190565b901515815260200190565b600084825260206060818401528451806060850152825b8181101561184057868101830151858201608001528201611824565b818111156118515783608083870101525b5060408401949094525050601f919091017fffffffffffffffffffffffffffffffffffffffffffffffffffffffffffffffe0160160800192915050565b918252602082015260400190565b9283526020830191909152604082015260600190565b60208082526014908201527f416c6c20526f756e647320436f6d706c65746564000000000000000000000000604082015260600190565b60208082526017908201527f55736572206973206e6f742043616d706169676e696e67000000000000000000604082015260600190565b60208082526016908201527f556e617574686f72697a656420486f7374706974616c00000000000000000000604082015260600190565b6020808252600f908201527f496e76616c69642046756e642049440000000000000000000000000000000000604082015260600190565b6020808252600f908201527f496e76616c6964205461736b2049440000000000000000000000000000000000604082015260600190565b60208082526012908201527f436f6e7472616374206973205061757365640000000000000000000000000000604082015260600190565b6020808252601d908201527f596f7520617265206e6f742074686520636f6f7264696e61746f722021000000604082015260600190565b6020808252600a908201527f4f6e6c79204f776e657200000000000000000000000000000000000000000000604082015260600190565b90815260200190565b93845260208401929092526040830152606082015260800190565b60008219821115611aa157611aa1611af6565b500190565b600082611ada577f4e487b710000000000000000000000000000000000000000000000000000000081526012600452602481fd5b500490565b600082821015611af157611af1611af6565b500390565b7f4e487b7100000000000000000000000000000000000000000000000000000000600052601160045260246000fd5b7f4e487b7100000000000000000000000000000000000000000000000000000000600052604160045260246000fd5b73ffffffffffffffffffffffffffffffffffffffff81168114611b7657600080fd5b5056fea2646970667358221220a627a22d688c4f4ef0e6cc93006123de33bf2c032566e6f7a3c19fac1a44e7f464736f6c63430008000033",
  "linkReferences": {},
  "deployedLinkReferences": {}
}