{
  "_format": "hh-sol-artifact-1",
  "contractName": "Saarthi",
  "sourceName": "contracts/Saarthi.sol",
  "abi": [
    {
      "inputs": [],
      "stateMutability": "nonpayable",
      "type": "constructor"
    },
    {
      "anonymous": false,
      "inputs": [
        {
          "indexed": true,
          "internalType": "uint256",
          "name": "taskID",
          "type": "uint256"
        },
        {
          "indexed": false,
          "internalType": "string",
          "name": "_modelHash",
          "type": "string"
        },
        {
          "indexed": false,
          "internalType": "uint256",
          "name": "_time",
          "type": "uint256"
        }
      ],
      "name": "modelUpdated",
      "type": "event"
    },
    {
      "anonymous": false,
      "inputs": [
        {
          "indexed": true,
          "internalType": "address",
          "name": "_from",
          "type": "address"
        },
        {
          "indexed": true,
          "internalType": "address",
          "name": "_to",
          "type": "address"
        },
        {
          "indexed": false,
          "internalType": "bool",
          "name": "_finalState",
          "type": "bool"
        }
      ],
      "name": "newApproval",
      "type": "event"
    },
    {
      "anonymous": false,
      "inputs": [
        {
          "indexed": true,
          "internalType": "address",
          "name": "_campaigner",
          "type": "address"
        },
        {
          "indexed": false,
          "internalType": "bytes32",
          "name": "_campaignData",
          "type": "bytes32"
        },
        {
          "indexed": false,
          "internalType": "uint256",
          "name": "_createdAt",
          "type": "uint256"
        }
      ],
      "name": "newCampaign",
      "type": "event"
    },
    {
      "anonymous": false,
      "inputs": [
        {
          "indexed": true,
          "internalType": "address",
          "name": "_campaigner",
          "type": "address"
        },
        {
          "indexed": true,
          "internalType": "address",
          "name": "_from",
          "type": "address"
        },
        {
          "indexed": false,
          "internalType": "uint256",
          "name": "amount",
          "type": "uint256"
        }
      ],
      "name": "newCampaignDonation",
      "type": "event"
    },
    {
      "anonymous": false,
      "inputs": [
        {
          "indexed": false,
          "internalType": "uint256",
          "name": "_fundIndex",
          "type": "uint256"
        },
        {
          "indexed": true,
          "internalType": "bytes32",
          "name": "_orgName",
          "type": "bytes32"
        },
        {
          "indexed": false,
          "internalType": "bytes32",
          "name": "_fundName",
          "type": "bytes32"
        }
      ],
      "name": "newFund",
      "type": "event"
    },
    {
      "anonymous": false,
      "inputs": [
        {
          "indexed": false,
          "internalType": "uint256",
          "name": "_fundIndex",
          "type": "uint256"
        },
        {
          "indexed": true,
          "internalType": "address",
          "name": "_sender",
          "type": "address"
        },
        {
          "indexed": true,
          "internalType": "address",
          "name": "_receiver",
          "type": "address"
        },
        {
          "indexed": false,
          "internalType": "uint256",
          "name": "_amount",
          "type": "uint256"
        }
      ],
      "name": "newFundDonation",
      "type": "event"
    },
    {
      "anonymous": false,
      "inputs": [
        {
          "indexed": true,
          "internalType": "uint256",
          "name": "_index",
          "type": "uint256"
        },
        {
          "indexed": true,
          "internalType": "address",
          "name": "_reporter",
          "type": "address"
        },
        {
          "indexed": true,
          "internalType": "bytes32",
          "name": "_location",
          "type": "bytes32"
        },
        {
          "indexed": false,
          "internalType": "bytes32",
          "name": "_file",
          "type": "bytes32"
        },
        {
          "indexed": false,
          "internalType": "string",
          "name": "_details",
          "type": "string"
        },
        {
          "indexed": false,
          "internalType": "uint256",
          "name": "_time",
          "type": "uint256"
        }
      ],
      "name": "newReport",
      "type": "event"
    },
    {
      "anonymous": false,
      "inputs": [
        {
          "indexed": true,
          "internalType": "uint256",
          "name": "taskID",
          "type": "uint256"
        },
        {
          "indexed": true,
          "internalType": "address",
          "name": "_user",
          "type": "address"
        },
        {
          "indexed": false,
          "internalType": "string",
          "name": "_modelHash",
          "type": "string"
        },
        {
          "indexed": false,
          "internalType": "uint256",
          "name": "_amt",
          "type": "uint256"
        },
        {
          "indexed": false,
          "internalType": "uint256",
          "name": "_time",
          "type": "uint256"
        }
      ],
      "name": "newTaskCreated",
      "type": "event"
    },
    {
      "inputs": [
        {
          "internalType": "uint256",
          "name": "",
          "type": "uint256"
        }
      ],
      "name": "Campaigns",
      "outputs": [
        {
          "internalType": "address",
          "name": "",
          "type": "address"
        }
      ],
      "stateMutability": "view",
      "type": "function"
    },
    {
      "inputs": [
        {
          "internalType": "uint256",
          "name": "",
          "type": "uint256"
        }
      ],
      "name": "Funds",
      "outputs": [
        {
          "internalType": "address payable",
          "name": "",
          "type": "address"
        }
      ],
      "stateMutability": "view",
      "type": "function"
    },
    {
      "inputs": [
        {
          "internalType": "uint256",
          "name": "",
          "type": "uint256"
        }
      ],
      "name": "SaarthiTasks",
      "outputs": [
        {
          "internalType": "uint256",
          "name": "taskID",
          "type": "uint256"
        },
        {
          "internalType": "uint256",
          "name": "currentRound",
          "type": "uint256"
        },
        {
          "internalType": "uint256",
          "name": "totalRounds",
          "type": "uint256"
        },
        {
          "internalType": "uint256",
          "name": "cost",
          "type": "uint256"
        }
      ],
      "stateMutability": "view",
      "type": "function"
    },
    {
      "inputs": [],
      "name": "UserCnt",
      "outputs": [
        {
          "internalType": "uint256",
          "name": "",
          "type": "uint256"
        }
      ],
      "stateMutability": "view",
      "type": "function"
    },
    {
      "inputs": [
        {
          "internalType": "address",
          "name": "",
          "type": "address"
        },
        {
          "internalType": "uint256",
          "name": "",
          "type": "uint256"
        }
      ],
      "name": "UserTaskIDs",
      "outputs": [
        {
          "internalType": "uint256",
          "name": "",
          "type": "uint256"
        }
      ],
      "stateMutability": "view",
      "type": "function"
    },
    {
      "inputs": [
        {
          "internalType": "address",
          "name": "",
          "type": "address"
        }
      ],
      "name": "Users",
      "outputs": [
        {
          "internalType": "address payable",
          "name": "userAddress",
          "type": "address"
        },
        {
          "internalType": "uint256",
          "name": "billAmount",
          "type": "uint256"
        }
      ],
      "stateMutability": "view",
      "type": "function"
    },
    {
      "inputs": [],
      "name": "activeCampaignCnt",
      "outputs": [
        {
          "internalType": "uint256",
          "name": "",
          "type": "uint256"
        }
      ],
      "stateMutability": "view",
      "type": "function"
    },
    {
      "inputs": [],
      "name": "addUser",
      "outputs": [],
      "stateMutability": "nonpayable",
      "type": "function"
    },
    {
      "inputs": [
        {
          "internalType": "address",
          "name": "",
          "type": "address"
        },
        {
          "internalType": "address",
          "name": "",
          "type": "address"
        }
      ],
      "name": "approval",
      "outputs": [
        {
          "internalType": "bool",
          "name": "",
          "type": "bool"
        }
      ],
      "stateMutability": "view",
      "type": "function"
    },
    {
      "inputs": [
        {
          "internalType": "uint256",
          "name": "_amt",
          "type": "uint256"
        }
      ],
      "name": "billUser",
      "outputs": [],
      "stateMutability": "nonpayable",
      "type": "function"
    },
    {
      "inputs": [
        {
          "internalType": "address",
          "name": "",
          "type": "address"
        }
      ],
      "name": "campaignEnabled",
      "outputs": [
        {
          "internalType": "bool",
          "name": "",
          "type": "bool"
        }
      ],
      "stateMutability": "view",
      "type": "function"
    },
    {
      "inputs": [
        {
          "internalType": "bytes32",
          "name": "_orgName",
          "type": "bytes32"
        },
        {
          "internalType": "bytes32",
          "name": "_fundName",
          "type": "bytes32"
        },
        {
          "internalType": "address payable",
          "name": "_orgAdress",
          "type": "address"
        }
      ],
      "name": "createFund",
      "outputs": [],
      "stateMutability": "nonpayable",
      "type": "function"
    },
    {
      "inputs": [
        {
          "internalType": "string",
          "name": "_modelHash",
          "type": "string"
        },
        {
          "internalType": "uint256",
          "name": "_rounds",
          "type": "uint256"
        }
      ],
      "name": "createTask",
      "outputs": [],
      "stateMutability": "payable",
      "type": "function"
    },
    {
      "inputs": [
        {
          "internalType": "address",
          "name": "_user",
          "type": "address"
        }
      ],
      "name": "donateToCampaign",
      "outputs": [],
      "stateMutability": "payable",
      "type": "function"
    },
    {
      "inputs": [
        {
          "internalType": "uint256",
          "name": "_fundIndex",
          "type": "uint256"
        }
      ],
      "name": "donateToFund",
      "outputs": [],
      "stateMutability": "payable",
      "type": "function"
    },
    {
      "inputs": [
        {
          "internalType": "bytes32",
          "name": "_location",
          "type": "bytes32"
        },
        {
          "internalType": "bytes32",
          "name": "_file",
          "type": "bytes32"
        },
        {
          "internalType": "string",
          "name": "_details",
          "type": "string"
        }
      ],
      "name": "fileReport",
      "outputs": [],
      "stateMutability": "nonpayable",
      "type": "function"
    },
    {
      "inputs": [],
      "name": "fundCnt",
      "outputs": [
        {
          "internalType": "uint256",
          "name": "",
          "type": "uint256"
        }
      ],
      "stateMutability": "view",
      "type": "function"
    },
    {
      "inputs": [],
      "name": "getTaskCount",
      "outputs": [
        {
          "internalType": "uint256",
          "name": "",
          "type": "uint256"
        }
      ],
      "stateMutability": "view",
      "type": "function"
    },
    {
      "inputs": [],
      "name": "getTasksOfUser",
      "outputs": [
        {
          "internalType": "uint256[]",
          "name": "",
          "type": "uint256[]"
        }
      ],
      "stateMutability": "view",
      "type": "function"
    },
    {
      "inputs": [],
      "name": "paused",
      "outputs": [
        {
          "internalType": "bool",
          "name": "",
          "type": "bool"
        }
      ],
      "stateMutability": "view",
      "type": "function"
    },
    {
      "inputs": [],
      "name": "reportCnt",
      "outputs": [
        {
          "internalType": "uint256",
          "name": "",
          "type": "uint256"
        }
      ],
      "stateMutability": "view",
      "type": "function"
    },
    {
      "inputs": [
        {
          "internalType": "bytes32",
          "name": "_campaignData",
          "type": "bytes32"
        }
      ],
      "name": "startCampaign",
      "outputs": [],
      "stateMutability": "nonpayable",
      "type": "function"
    },
    {
      "inputs": [],
      "name": "stopCampaign",
      "outputs": [],
      "stateMutability": "nonpayable",
      "type": "function"
    },
    {
      "inputs": [
        {
          "internalType": "address",
          "name": "_address",
          "type": "address"
        }
      ],
      "name": "toggleAccessToAddress",
      "outputs": [],
      "stateMutability": "nonpayable",
      "type": "function"
    },
    {
      "inputs": [],
      "name": "togglePause",
      "outputs": [],
      "stateMutability": "nonpayable",
      "type": "function"
    },
    {
      "inputs": [],
      "name": "totalDonationAmount",
      "outputs": [
        {
          "internalType": "uint256",
          "name": "",
          "type": "uint256"
        }
      ],
      "stateMutability": "view",
      "type": "function"
    },
    {
      "inputs": [],
      "name": "totalDonationCnt",
      "outputs": [
        {
          "internalType": "uint256",
          "name": "",
          "type": "uint256"
        }
      ],
      "stateMutability": "view",
      "type": "function"
    },
    {
      "inputs": [
        {
          "internalType": "uint256",
          "name": "_taskID",
          "type": "uint256"
        },
        {
          "internalType": "string",
          "name": "_modelHash",
          "type": "string"
        },
        {
          "internalType": "address payable",
          "name": "computer",
          "type": "address"
        }
      ],
      "name": "updateModelForTask",
      "outputs": [],
      "stateMutability": "nonpayable",
      "type": "function"
    },
    {
      "inputs": [
        {
          "internalType": "address",
          "name": "_newOwner",
          "type": "address"
        }
      ],
      "name": "updateOwner",
      "outputs": [],
      "stateMutability": "nonpayable",
      "type": "function"
    }
  ],
  "bytecode": "0x60806040526001805460ff60a01b196001600160a01b031990911673beb71662ff9c08afef3866f85a6591d4aebe6e4e17168155600255600060068190556009819055600b819055600c819055600d819055600f5534801561006057600080fd5b50600080546001600160a01b031916331790556120fe806100826000396000f3fe6080604052600436106101c25760003560e01c8063974cf546116100f7578063cd5e548311610095578063e1c7dbe311610064578063e1c7dbe3146104af578063e3f2d24f146104c4578063eee9b99e146104d9578063f1fcc8e9146104f9576101c2565b8063cd5e548314610438578063d6857f151461044d578063df8fc3fd1461046d578063e1270b6e1461048f576101c2565b8063b063795c116100d1578063b063795c146103d9578063c06a260d146103ee578063c17a340e1461040e578063c4ae316814610423576101c2565b8063974cf5461461037657806399b956a01461038b5780639ff60711146103b9576101c2565b80634e1dd1a4116101645780636946c5e91161013e5780636946c5e91461030357806375a269a5146103235780637c6abc8214610343578063880cdc3114610356576101c2565b80634e1dd1a4146102915780635c975abb146102b15780636092a502146102d3576101c2565b806316f1bc22116101a057806316f1bc221461020f57806317849646146102245780634013be101461024f578063455c928c1461027c576101c2565b806304fe2b34146101c75780630d3bb50f146101dc57806311cd13ac146101fc575b600080fd5b6101da6101d5366004611ac4565b610519565b005b3480156101e857600080fd5b506101da6101f7366004611a3e565b610781565b6101da61020a366004611a26565b61087d565b34801561021b57600080fd5b506101da6109eb565b34801561023057600080fd5b50610239610ac5565b6040516102469190611f68565b60405180910390f35b34801561025b57600080fd5b5061026f61026a366004611a26565b610acb565b6040516102469190611bbe565b34801561028857600080fd5b506101da610b02565b34801561029d57600080fd5b506101da6102ac3660046119a7565b610c34565b3480156102bd57600080fd5b506102c6610cca565b6040516102469190611c49565b3480156102df57600080fd5b506102f36102ee366004611a26565b610ceb565b6040516102469493929190611f71565b34801561030f57600080fd5b5061023961031e3660046119fb565b610d14565b34801561032f57600080fd5b506101da61033e366004611b07565b610d45565b6101da6103513660046119a7565b610fa7565b34801561036257600080fd5b506101da6103713660046119a7565b611112565b34801561038257600080fd5b506102396111aa565b34801561039757600080fd5b506103ab6103a63660046119a7565b6111b0565b604051610246929190611bdf565b3480156103c557600080fd5b506102c66103d43660046119a7565b6111e2565b3480156103e557600080fd5b506102396111f7565b3480156103fa57600080fd5b506101da610409366004611a26565b6111fd565b34801561041a57600080fd5b50610239611307565b34801561042f57600080fd5b506101da61131d565b34801561044457600080fd5b506102396113bb565b34801561045957600080fd5b506101da610468366004611a26565b6113c1565b34801561047957600080fd5b506104826114a5565b6040516102469190611c05565b34801561049b57600080fd5b506102c66104aa3660046119c3565b611506565b3480156104bb57600080fd5b50610239611526565b3480156104d057600080fd5b5061023961152c565b3480156104e557600080fd5b5061026f6104f4366004611a26565b611532565b34801561050557600080fd5b506101da610514366004611a76565b61155a565b60015474010000000000000000000000000000000000000000900460ff1615610577576040517f08c379a000000000000000000000000000000000000000000000000000000000815260040161056e90611ec3565b60405180910390fd5b600a81106105b1576040517f08c379a000000000000000000000000000000000000000000000000000000000815260040161056e90611dc1565b346105ba61178b565b6040518060a001604052806002548152602001600181526020018481526020018381526020018467ffffffffffffffff811115610620577f4e487b7100000000000000000000000000000000000000000000000000000000600052604160045260246000fd5b60405190808252806020026020018201604052801561065357816020015b606081526020019060019003908161063e5790505b508152509050838160800151600081518110610698577f4e487b7100000000000000000000000000000000000000000000000000000000600052603260045260246000fd5b6020026020010181905250806003600060025481526020019081526020016000206000820151816000015560208201518160010155604082015181600201556060820151816003015560808201518160040190805190602001906106fd9291906117ba565b505033600081815260046020908152604080832060028054825460018101845592865293909420019190915590549051919250907fceb55fb99742a0d2305c686897f79e89483a9725c0f5493808c9a4787f2a875a9061076290889087904290611cc0565b60405180910390a360025461077890600161161b565b60025550505050565b60015474010000000000000000000000000000000000000000900460ff16156107d6576040517f08c379a000000000000000000000000000000000000000000000000000000000815260040161056e90611ec3565b6000600b5460016107e79190611f8c565b6000818152600e60205260409081902080547fffffffffffffffffffffffff00000000000000000000000000000000000000001673ffffffffffffffffffffffffffffffffffffffff8616179055600b8290555190915084907fb99663894dc2a2c66382f63932042aa530244fe0af348b833f4cddea9cfbeb719061086f9084908790611c7d565b60405180910390a250505050565b60015474010000000000000000000000000000000000000000900460ff16156108d2576040517f08c379a000000000000000000000000000000000000000000000000000000000815260040161056e90611ec3565b600b5481111561090e576040517f08c379a000000000000000000000000000000000000000000000000000000000815260040161056e90611e1e565b34600c5461091c9190611f8c565b600c55600d5461092d906001611f8c565b600d556000818152600e602052604080822054905173ffffffffffffffffffffffffffffffffffffffff909116913480156108fc02929091818181858888f19350505050158015610982573d6000803e3d6000fd5b506000818152600e60205260409081902054905173ffffffffffffffffffffffffffffffffffffffff9091169033907f2317347462a70f36eb7bac6fb953aca2cd01eb3bcdf5f359babe909811eaed67906109e09085903490611c7d565b60405180910390a350565b60015474010000000000000000000000000000000000000000900460ff1615610a40576040517f08c379a000000000000000000000000000000000000000000000000000000000815260040161056e90611ec3565b336000908152600a602052604090205460ff161515600114610a8e576040517f08c379a000000000000000000000000000000000000000000000000000000000815260040161056e90611d8a565b336000908152600a6020526040902080547fffffffffffffffffffffffffffffffffffffffffffffffffffffffffffffff00169055565b600c5481565b60088181548110610adb57600080fd5b60009182526020909120015473ffffffffffffffffffffffffffffffffffffffff16905081565b60015474010000000000000000000000000000000000000000900460ff1615610b57576040517f08c379a000000000000000000000000000000000000000000000000000000000815260040161056e90611ec3565b3360009081526005602052604090205473ffffffffffffffffffffffffffffffffffffffff1615610bb4576040517f08c379a000000000000000000000000000000000000000000000000000000000815260040161056e90611e8c565b60408051808201825233808252600060208084018281529282526005905292909220815181547fffffffffffffffffffffffff00000000000000000000000000000000000000001673ffffffffffffffffffffffffffffffffffffffff90911617815591516001928301556006549091610c2e919061161b565b60065550565b33600081815260076020908152604080832073ffffffffffffffffffffffffffffffffffffffff861680855292529182902080547fffffffffffffffffffffffffffffffffffffffffffffffffffffffffffffff00811660ff91821615179182905592519193927fad77d1d38ed980518f1c26c8cd8fe0cc39ba4e9092e1b5f69f0bd23ff1de97fb926109e09290911690611c49565b60015474010000000000000000000000000000000000000000900460ff1681565b600360208190526000918252604090912080546001820154600283015492909301549092919084565b60046020528160005260406000208181548110610d3057600080fd5b90600052602060002001600091509150505481565b60015474010000000000000000000000000000000000000000900460ff1615610d9a576040517f08c379a000000000000000000000000000000000000000000000000000000000815260040161056e90611ec3565b60015473ffffffffffffffffffffffffffffffffffffffff163314610deb576040517f08c379a000000000000000000000000000000000000000000000000000000000815260040161056e90611efa565b600254831115610e27576040517f08c379a000000000000000000000000000000000000000000000000000000000815260040161056e90611e55565b6000838152600360205260408120600190810154610e449161161b565b600085815260036020526040902060020154909150811115610e92576040517f08c379a000000000000000000000000000000000000000000000000000000000815260040161056e90611ce5565b60008481526003602052604090206001808201839055849160040190610eb990849061166b565b81548110610ef0577f4e487b7100000000000000000000000000000000000000000000000000000000600052603260045260246000fd5b906000526020600020019080519060200190610f0d929190611817565b506000848152600360208190526040909120600281015491015473ffffffffffffffffffffffffffffffffffffffff8416916108fc91610f4c916116ad565b6040518115909202916000818181858888f19350505050158015610f74573d6000803e3d6000fd5b50837fb8b9b7420ce876fd147a9284d5eed5f709fc3faafb9e8cdf3c6ece72e002e8c7844260405161086f929190611c9e565b60015474010000000000000000000000000000000000000000900460ff1615610ffc576040517f08c379a000000000000000000000000000000000000000000000000000000000815260040161056e90611ec3565b73ffffffffffffffffffffffffffffffffffffffff81166000908152600a602052604090205460ff161515600114611060576040517f08c379a000000000000000000000000000000000000000000000000000000000815260040161056e90611d8a565b3360009081526005602052604080822054905173ffffffffffffffffffffffffffffffffffffffff91909116913480156108fc02929091818181858888f193505050501580156110b4573d6000803e3d6000fd5b503373ffffffffffffffffffffffffffffffffffffffff168173ffffffffffffffffffffffffffffffffffffffff167f1d3ff44814877759fdcdec2bace42d6e7e7c1b84ca040ba5d3b4ef988ffd908e346040516109e09190611f68565b60005473ffffffffffffffffffffffffffffffffffffffff163314611163576040517f08c379a000000000000000000000000000000000000000000000000000000000815260040161056e90611f31565b600080547fffffffffffffffffffffffff00000000000000000000000000000000000000001673ffffffffffffffffffffffffffffffffffffffff92909216919091179055565b60065481565b6005602052600090815260409020805460019091015473ffffffffffffffffffffffffffffffffffffffff9091169082565b600a6020526000908152604090205460ff1681565b60095481565b60015474010000000000000000000000000000000000000000900460ff1615611252576040517f08c379a000000000000000000000000000000000000000000000000000000000815260040161056e90611ec3565b336000908152600a602052604090205460ff166112b457336000908152600a6020526040902080547fffffffffffffffffffffffffffffffffffffffffffffffffffffffffffffff001660019081179091556009546112b091611f8c565b6009555b3373ffffffffffffffffffffffffffffffffffffffff167f070ebb08109e8151dd49dec1ba08cec18082514f31659837d36c851b908860ce82426040516112fc929190611c7d565b60405180910390a250565b60025460009061131890600161166b565b905090565b60005473ffffffffffffffffffffffffffffffffffffffff16331461136e576040517f08c379a000000000000000000000000000000000000000000000000000000000815260040161056e90611f31565b600180547fffffffffffffffffffffff00ffffffffffffffffffffffffffffffffffffffff8116740100000000000000000000000000000000000000009182900460ff1615909102179055565b600b5481565b60015474010000000000000000000000000000000000000000900460ff1615611416576040517f08c379a000000000000000000000000000000000000000000000000000000000815260040161056e90611ec3565b3360009081526005602052604090205473ffffffffffffffffffffffffffffffffffffffff16611472576040517f08c379a000000000000000000000000000000000000000000000000000000000815260040161056e90611d53565b3360009081526005602052604090206001015461148f908261161b565b3360009081526005602052604090206001015550565b336000908152600460209081526040918290208054835181840281018401909452808452606093928301828280156114fc57602002820191906000526020600020905b8154815260200190600101908083116114e8575b5050505050905090565b600760209081526000928352604080842090915290825290205460ff1681565b600d5481565b600f5481565b600e6020526000908152604090205473ffffffffffffffffffffffffffffffffffffffff1681565b60015474010000000000000000000000000000000000000000900460ff16156115af576040517f08c379a000000000000000000000000000000000000000000000000000000000815260040161056e90611ec3565b823373ffffffffffffffffffffffffffffffffffffffff16600f547f3e1acfd5f2181de07799d35be451dbddfd093425b11baa4b85098d8f871e90a18585426040516115fd93929190611c54565b60405180910390a4600f54611613906001611f8c565b600f55505050565b6000806116288385611f8c565b905083811015611664576040517f08c379a000000000000000000000000000000000000000000000000000000000815260040161056e90611d1c565b9392505050565b600061166483836040518060400160405280601e81526020017f536166654d6174683a207375627472616374696f6e206f766572666c6f7700008152506116ef565b600061166483836040518060400160405280601a81526020017f536166654d6174683a206469766973696f6e206279207a65726f000000000000815250611743565b6000818484111561172d576040517f08c379a000000000000000000000000000000000000000000000000000000000815260040161056e9190611c8b565b50600061173a8486611fdd565b95945050505050565b6000818361177e576040517f08c379a000000000000000000000000000000000000000000000000000000000815260040161056e9190611c8b565b50600061173a8486611fa4565b6040518060a0016040528060008152602001600081526020016000815260200160008152602001606081525090565b828054828255906000526020600020908101928215611807579160200282015b8281111561180757825180516117f7918491602090910190611817565b50916020019190600101906117da565b50611813929150611897565b5090565b82805461182390611ff4565b90600052602060002090601f016020900481019282611845576000855561188b565b82601f1061185e57805160ff191683800117855561188b565b8280016001018555821561188b579182015b8281111561188b578251825591602001919060010190611870565b506118139291506118b4565b808211156118135760006118ab82826118c9565b50600101611897565b5b8082111561181357600081556001016118b5565b5080546118d590611ff4565b6000825580601f106118e75750611905565b601f01602090049060005260206000209081019061190591906118b4565b50565b600082601f830112611918578081fd5b813567ffffffffffffffff8082111561193357611933612077565b60405160207fffffffffffffffffffffffffffffffffffffffffffffffffffffffffffffffe0601f850116820101818110838211171561197557611975612077565b60405282815284830160200186101561198c578384fd5b82602086016020830137918201602001929092529392505050565b6000602082840312156119b8578081fd5b8135611664816120a6565b600080604083850312156119d5578081fd5b82356119e0816120a6565b915060208301356119f0816120a6565b809150509250929050565b60008060408385031215611a0d578182fd5b8235611a18816120a6565b946020939093013593505050565b600060208284031215611a37578081fd5b5035919050565b600080600060608486031215611a52578081fd5b83359250602084013591506040840135611a6b816120a6565b809150509250925092565b600080600060608486031215611a8a578283fd5b8335925060208401359150604084013567ffffffffffffffff811115611aae578182fd5b611aba86828701611908565b9150509250925092565b60008060408385031215611ad6578182fd5b823567ffffffffffffffff811115611aec578283fd5b611af885828601611908565b95602094909401359450505050565b600080600060608486031215611b1b578283fd5b83359250602084013567ffffffffffffffff811115611b38578283fd5b611b4486828701611908565b9250506040840135611a6b816120a6565b60008151808452815b81811015611b7a57602081850181015186830182015201611b5e565b81811115611b8b5782602083870101525b50601f017fffffffffffffffffffffffffffffffffffffffffffffffffffffffffffffffe0169290920160200192915050565b73ffffffffffffffffffffffffffffffffffffffff91909116815260200190565b73ffffffffffffffffffffffffffffffffffffffff929092168252602082015260400190565b6020808252825182820181905260009190848201906040850190845b81811015611c3d57835183529284019291840191600101611c21565b50909695505050505050565b901515815260200190565b600084825260606020830152611c6d6060830185611b55565b9050826040830152949350505050565b918252602082015260400190565b6000602082526116646020830184611b55565b600060408252611cb16040830185611b55565b90508260208301529392505050565b600060608252611cd36060830186611b55565b60208301949094525060400152919050565b60208082526014908201527f416c6c20526f756e647320436f6d706c65746564000000000000000000000000604082015260600190565b6020808252601b908201527f536166654d6174683a206164646974696f6e206f766572666c6f770000000000604082015260600190565b6020808252600c908201527f496e76616c696420557365720000000000000000000000000000000000000000604082015260600190565b60208082526017908201527f55736572206973206e6f742043616d706169676e696e67000000000000000000604082015260600190565b60208082526027908201527f4e756d626572206f6620526f756e64732073686f756c64206265206c6573732060408201527f7468616e20313000000000000000000000000000000000000000000000000000606082015260800190565b6020808252600f908201527f496e76616c69642046756e642049440000000000000000000000000000000000604082015260600190565b6020808252600f908201527f496e76616c6964205461736b2049440000000000000000000000000000000000604082015260600190565b60208082526017908201527f5573657220416c72656164792052656769737465726564000000000000000000604082015260600190565b60208082526012908201527f436f6e7472616374206973205061757365640000000000000000000000000000604082015260600190565b6020808252601d908201527f596f7520617265206e6f742074686520636f6f7264696e61746f722021000000604082015260600190565b6020808252600a908201527f4f6e6c79204f776e657200000000000000000000000000000000000000000000604082015260600190565b90815260200190565b93845260208401929092526040830152606082015260800190565b60008219821115611f9f57611f9f612048565b500190565b600082611fd8577f4e487b710000000000000000000000000000000000000000000000000000000081526012600452602481fd5b500490565b600082821015611fef57611fef612048565b500390565b60028104600182168061200857607f821691505b60208210811415612042577f4e487b7100000000000000000000000000000000000000000000000000000000600052602260045260246000fd5b50919050565b7f4e487b7100000000000000000000000000000000000000000000000000000000600052601160045260246000fd5b7f4e487b7100000000000000000000000000000000000000000000000000000000600052604160045260246000fd5b73ffffffffffffffffffffffffffffffffffffffff8116811461190557600080fdfea2646970667358221220d88e6a16e3d143b1d329f982cce6efb8e803ccca9840216007e0dc419d19e06364736f6c63430008000033",
  "linkReferences": {},
  "deployedLinkReferences": {}
}