{
  "_format": "hh-sol-artifact-1",
  "contractName": "Saarthi",
  "sourceName": "contracts/Saarthi.sol",
  "abi": [
    {
      "inputs": [],
      "stateMutability": "nonpayable",
      "type": "constructor"
    },
    {
      "anonymous": false,
      "inputs": [
        {
          "indexed": true,
          "internalType": "address",
          "name": "sender",
          "type": "address"
        },
        {
          "indexed": true,
          "internalType": "address",
          "name": "receiver",
          "type": "address"
        },
        {
          "indexed": false,
          "internalType": "uint256",
          "name": "amount",
          "type": "uint256"
        }
      ],
      "name": "donatationToCampaign",
      "type": "event"
    },
    {
      "anonymous": false,
      "inputs": [
        {
          "indexed": true,
          "internalType": "uint256",
          "name": "taskID",
          "type": "uint256"
        },
        {
          "indexed": false,
          "internalType": "string",
          "name": "_modelHash",
          "type": "string"
        },
        {
          "indexed": false,
          "internalType": "uint256",
          "name": "_time",
          "type": "uint256"
        }
      ],
      "name": "modelUpdated",
      "type": "event"
    },
    {
      "anonymous": false,
      "inputs": [
        {
          "indexed": false,
          "internalType": "uint256",
          "name": "_fundIndex",
          "type": "uint256"
        },
        {
          "indexed": true,
          "internalType": "bytes32",
          "name": "_orgName",
          "type": "bytes32"
        },
        {
          "indexed": false,
          "internalType": "bytes32",
          "name": "_fundName",
          "type": "bytes32"
        }
      ],
      "name": "newFund",
      "type": "event"
    },
    {
      "anonymous": false,
      "inputs": [
        {
          "indexed": false,
          "internalType": "uint256",
          "name": "_fundIndex",
          "type": "uint256"
        },
        {
          "indexed": true,
          "internalType": "address",
          "name": "_sender",
          "type": "address"
        },
        {
          "indexed": true,
          "internalType": "address",
          "name": "_receiver",
          "type": "address"
        },
        {
          "indexed": false,
          "internalType": "uint256",
          "name": "_amount",
          "type": "uint256"
        }
      ],
      "name": "newFundDonation",
      "type": "event"
    },
    {
      "anonymous": false,
      "inputs": [
        {
          "indexed": true,
          "internalType": "uint256",
          "name": "_index",
          "type": "uint256"
        },
        {
          "indexed": true,
          "internalType": "address",
          "name": "_reporter",
          "type": "address"
        },
        {
          "indexed": true,
          "internalType": "bytes32",
          "name": "_location",
          "type": "bytes32"
        },
        {
          "indexed": false,
          "internalType": "bytes32",
          "name": "_file",
          "type": "bytes32"
        },
        {
          "indexed": false,
          "internalType": "string",
          "name": "_details",
          "type": "string"
        },
        {
          "indexed": false,
          "internalType": "uint256",
          "name": "_time",
          "type": "uint256"
        }
      ],
      "name": "newReport",
      "type": "event"
    },
    {
      "anonymous": false,
      "inputs": [
        {
          "indexed": true,
          "internalType": "uint256",
          "name": "taskID",
          "type": "uint256"
        },
        {
          "indexed": true,
          "internalType": "address",
          "name": "_user",
          "type": "address"
        },
        {
          "indexed": false,
          "internalType": "string",
          "name": "_modelHash",
          "type": "string"
        },
        {
          "indexed": false,
          "internalType": "uint256",
          "name": "_amt",
          "type": "uint256"
        },
        {
          "indexed": false,
          "internalType": "uint256",
          "name": "_time",
          "type": "uint256"
        }
      ],
      "name": "newTaskCreated",
      "type": "event"
    },
    {
      "inputs": [
        {
          "internalType": "uint256",
          "name": "",
          "type": "uint256"
        }
      ],
      "name": "Campaigns",
      "outputs": [
        {
          "internalType": "address",
          "name": "",
          "type": "address"
        }
      ],
      "stateMutability": "view",
      "type": "function"
    },
    {
      "inputs": [
        {
          "internalType": "uint256",
          "name": "",
          "type": "uint256"
        }
      ],
      "name": "Funds",
      "outputs": [
        {
          "internalType": "address payable",
          "name": "",
          "type": "address"
        }
      ],
      "stateMutability": "view",
      "type": "function"
    },
    {
      "inputs": [
        {
          "internalType": "uint256",
          "name": "",
          "type": "uint256"
        }
      ],
      "name": "SaarthiTasks",
      "outputs": [
        {
          "internalType": "uint256",
          "name": "taskID",
          "type": "uint256"
        },
        {
          "internalType": "uint256",
          "name": "currentRound",
          "type": "uint256"
        },
        {
          "internalType": "uint256",
          "name": "totalRounds",
          "type": "uint256"
        },
        {
          "internalType": "uint256",
          "name": "cost",
          "type": "uint256"
        }
      ],
      "stateMutability": "view",
      "type": "function"
    },
    {
      "inputs": [],
      "name": "UserCnt",
      "outputs": [
        {
          "internalType": "uint256",
          "name": "",
          "type": "uint256"
        }
      ],
      "stateMutability": "view",
      "type": "function"
    },
    {
      "inputs": [
        {
          "internalType": "address",
          "name": "",
          "type": "address"
        },
        {
          "internalType": "uint256",
          "name": "",
          "type": "uint256"
        }
      ],
      "name": "UserTaskIDs",
      "outputs": [
        {
          "internalType": "uint256",
          "name": "",
          "type": "uint256"
        }
      ],
      "stateMutability": "view",
      "type": "function"
    },
    {
      "inputs": [
        {
          "internalType": "address",
          "name": "",
          "type": "address"
        }
      ],
      "name": "Users",
      "outputs": [
        {
          "internalType": "address payable",
          "name": "userAddress",
          "type": "address"
        },
        {
          "internalType": "uint256",
          "name": "recordHistoryCnt",
          "type": "uint256"
        },
        {
          "internalType": "uint256",
          "name": "billAmount",
          "type": "uint256"
        },
        {
          "internalType": "uint256",
          "name": "donationCnt",
          "type": "uint256"
        },
        {
          "internalType": "bool",
          "name": "hasCampaign",
          "type": "bool"
        },
        {
          "internalType": "string",
          "name": "campaignData",
          "type": "string"
        },
        {
          "internalType": "bool",
          "name": "hasAllowedResearch",
          "type": "bool"
        }
      ],
      "stateMutability": "view",
      "type": "function"
    },
    {
      "inputs": [
        {
          "internalType": "string",
          "name": "_recordHash",
          "type": "string"
        }
      ],
      "name": "addRecord",
      "outputs": [],
      "stateMutability": "nonpayable",
      "type": "function"
    },
    {
      "inputs": [],
      "name": "addUser",
      "outputs": [],
      "stateMutability": "nonpayable",
      "type": "function"
    },
    {
      "inputs": [],
      "name": "allowAccessToResearch",
      "outputs": [],
      "stateMutability": "nonpayable",
      "type": "function"
    },
    {
      "inputs": [
        {
          "internalType": "address",
          "name": "_address",
          "type": "address"
        }
      ],
      "name": "allowAccessToUser",
      "outputs": [],
      "stateMutability": "nonpayable",
      "type": "function"
    },
    {
      "inputs": [
        {
          "internalType": "uint256",
          "name": "_amt",
          "type": "uint256"
        }
      ],
      "name": "billUser",
      "outputs": [],
      "stateMutability": "nonpayable",
      "type": "function"
    },
    {
      "inputs": [],
      "name": "campaignCnt",
      "outputs": [
        {
          "internalType": "uint256",
          "name": "",
          "type": "uint256"
        }
      ],
      "stateMutability": "view",
      "type": "function"
    },
    {
      "inputs": [
        {
          "internalType": "string",
          "name": "_campaignData",
          "type": "string"
        }
      ],
      "name": "createCampaign",
      "outputs": [],
      "stateMutability": "nonpayable",
      "type": "function"
    },
    {
      "inputs": [
        {
          "internalType": "bytes32",
          "name": "_orgName",
          "type": "bytes32"
        },
        {
          "internalType": "bytes32",
          "name": "_fundName",
          "type": "bytes32"
        },
        {
          "internalType": "address payable",
          "name": "_orgAdress",
          "type": "address"
        }
      ],
      "name": "createFund",
      "outputs": [],
      "stateMutability": "nonpayable",
      "type": "function"
    },
    {
      "inputs": [
        {
          "internalType": "string",
          "name": "_modelHash",
          "type": "string"
        },
        {
          "internalType": "uint256",
          "name": "_rounds",
          "type": "uint256"
        }
      ],
      "name": "createTask",
      "outputs": [],
      "stateMutability": "payable",
      "type": "function"
    },
    {
      "inputs": [
        {
          "internalType": "uint256",
          "name": "_fundIndex",
          "type": "uint256"
        }
      ],
      "name": "donateToFund",
      "outputs": [],
      "stateMutability": "payable",
      "type": "function"
    },
    {
      "inputs": [
        {
          "internalType": "address",
          "name": "_user",
          "type": "address"
        }
      ],
      "name": "donateToUser",
      "outputs": [],
      "stateMutability": "payable",
      "type": "function"
    },
    {
      "inputs": [
        {
          "internalType": "bytes32",
          "name": "_location",
          "type": "bytes32"
        },
        {
          "internalType": "bytes32",
          "name": "_file",
          "type": "bytes32"
        },
        {
          "internalType": "string",
          "name": "_details",
          "type": "string"
        }
      ],
      "name": "fileReport",
      "outputs": [],
      "stateMutability": "nonpayable",
      "type": "function"
    },
    {
      "inputs": [],
      "name": "fundCnt",
      "outputs": [
        {
          "internalType": "uint256",
          "name": "",
          "type": "uint256"
        }
      ],
      "stateMutability": "view",
      "type": "function"
    },
    {
      "inputs": [],
      "name": "getAccessors",
      "outputs": [
        {
          "internalType": "address[]",
          "name": "",
          "type": "address[]"
        }
      ],
      "stateMutability": "view",
      "type": "function"
    },
    {
      "inputs": [
        {
          "internalType": "address",
          "name": "_user",
          "type": "address"
        }
      ],
      "name": "getDonationAddresses",
      "outputs": [
        {
          "internalType": "address[]",
          "name": "donationAddresses",
          "type": "address[]"
        }
      ],
      "stateMutability": "view",
      "type": "function"
    },
    {
      "inputs": [
        {
          "internalType": "address",
          "name": "_user",
          "type": "address"
        }
      ],
      "name": "getDonationAmounts",
      "outputs": [
        {
          "internalType": "uint256[]",
          "name": "donationAmounts",
          "type": "uint256[]"
        }
      ],
      "stateMutability": "view",
      "type": "function"
    },
    {
      "inputs": [
        {
          "internalType": "address",
          "name": "_user",
          "type": "address"
        },
        {
          "internalType": "uint256",
          "name": "_index",
          "type": "uint256"
        }
      ],
      "name": "getRecord",
      "outputs": [
        {
          "internalType": "string",
          "name": "records",
          "type": "string"
        }
      ],
      "stateMutability": "view",
      "type": "function"
    },
    {
      "inputs": [],
      "name": "getTaskCount",
      "outputs": [
        {
          "internalType": "uint256",
          "name": "",
          "type": "uint256"
        }
      ],
      "stateMutability": "view",
      "type": "function"
    },
    {
      "inputs": [],
      "name": "getTasksOfUser",
      "outputs": [
        {
          "internalType": "uint256[]",
          "name": "",
          "type": "uint256[]"
        }
      ],
      "stateMutability": "view",
      "type": "function"
    },
    {
      "inputs": [],
      "name": "paused",
      "outputs": [
        {
          "internalType": "bool",
          "name": "",
          "type": "bool"
        }
      ],
      "stateMutability": "view",
      "type": "function"
    },
    {
      "inputs": [],
      "name": "reportCnt",
      "outputs": [
        {
          "internalType": "uint256",
          "name": "",
          "type": "uint256"
        }
      ],
      "stateMutability": "view",
      "type": "function"
    },
    {
      "inputs": [],
      "name": "revokeAccessToResearch",
      "outputs": [],
      "stateMutability": "nonpayable",
      "type": "function"
    },
    {
      "inputs": [],
      "name": "stopCampaign",
      "outputs": [],
      "stateMutability": "nonpayable",
      "type": "function"
    },
    {
      "inputs": [],
      "name": "togglePause",
      "outputs": [],
      "stateMutability": "nonpayable",
      "type": "function"
    },
    {
      "inputs": [],
      "name": "totalDonationAmount",
      "outputs": [
        {
          "internalType": "uint256",
          "name": "",
          "type": "uint256"
        }
      ],
      "stateMutability": "view",
      "type": "function"
    },
    {
      "inputs": [],
      "name": "totalDonationCnt",
      "outputs": [
        {
          "internalType": "uint256",
          "name": "",
          "type": "uint256"
        }
      ],
      "stateMutability": "view",
      "type": "function"
    },
    {
      "inputs": [
        {
          "internalType": "uint256",
          "name": "_taskID",
          "type": "uint256"
        },
        {
          "internalType": "string",
          "name": "_modelHash",
          "type": "string"
        },
        {
          "internalType": "address payable",
          "name": "computer",
          "type": "address"
        }
      ],
      "name": "updateModelForTask",
      "outputs": [],
      "stateMutability": "nonpayable",
      "type": "function"
    },
    {
      "inputs": [
        {
          "internalType": "address",
          "name": "_newOwner",
          "type": "address"
        }
      ],
      "name": "updateOwner",
      "outputs": [],
      "stateMutability": "nonpayable",
      "type": "function"
    }
  ],
  "bytecode": "0x60806040526001805460ff60a01b196001600160a01b031990911673beb71662ff9c08afef3866f85a6591d4aebe6e4e17168155600255600060068190556009819055600a819055600b819055600c819055600e5534801561006057600080fd5b50600080546001600160a01b03191633179055612f05806100826000396000f3fe6080604052600436106102195760003560e01c8063974cf5461161011d578063d81aa8c4116100b0578063eee9b99e1161007f578063f1fcc8e911610064578063f1fcc8e9146105b9578063f8659d00146105d9578063fdbf9ff1146105ee57610219565b8063eee9b99e14610579578063f1b95b6d1461059957610219565b8063d81aa8c41461050d578063df8fc3fd1461052d578063e1c7dbe31461054f578063e3f2d24f1461056457610219565b8063c4ae3168116100ec578063c4ae316814610496578063cd5e5483146104ab578063cdb8acf0146104c0578063d6857f15146104ed57610219565b8063974cf5461461042457806399b956a0146104395780639defe7511461046c578063c17a340e1461048157610219565b8063455c928c116101b05780636946c5e91161017f57806375a269a51161016457806375a269a5146103c4578063880cdc31146103e457806390da79d41461040457610219565b80636946c5e9146103845780636a652072146103a457610219565b8063455c928c1461030a5780635c975abb1461031f5780636092a5021461034157806360b6a3701461037157610219565b806316f1bc22116101ec57806316f1bc221461029157806317849646146102a657806318e94d88146102c85780634013be10146102dd57610219565b806304fe2b341461021e5780630d3bb50f1461023357806311cd13ac146102535780631403a13114610266575b600080fd5b61023161022c3660046127f5565b61060e565b005b34801561023f57600080fd5b5061023161024e366004612734565b610876565b610231610261366004612838565b610972565b34801561027257600080fd5b5061027b610ae0565b6040516102889190612987565b60405180910390f35b34801561029d57600080fd5b50610231610bb8565b3480156102b257600080fd5b506102bb610d6c565b6040516102889190612d61565b3480156102d457600080fd5b50610231610d72565b3480156102e957600080fd5b506102fd6102f8366004612838565b610e0b565b6040516102889190612907565b34801561031657600080fd5b50610231610e42565b34801561032b57600080fd5b506103346110db565b6040516102889190612a19565b34801561034d57600080fd5b5061036161035c366004612838565b6110fc565b6040516102889493929190612d78565b61023161037f3660046126ed565b611125565b34801561039057600080fd5b506102bb61039f366004612709565b611332565b3480156103b057600080fd5b506102316103bf3660046126ed565b611363565b3480156103d057600080fd5b506102316103df366004612850565b611426565b3480156103f057600080fd5b506102316103ff3660046126ed565b611688565b34801561041057600080fd5b5061027b61041f3660046126ed565b611720565b34801561043057600080fd5b506102bb611812565b34801561044557600080fd5b506104596104543660046126ed565b611818565b6040516102889796959493929190612928565b34801561047857600080fd5b506102316118fe565b34801561048d57600080fd5b506102bb611994565b3480156104a257600080fd5b506102316119aa565b3480156104b757600080fd5b506102bb611a48565b3480156104cc57600080fd5b506104e06104db366004612709565b611a4e565b6040516102889190612a4d565b3480156104f957600080fd5b50610231610508366004612838565b611ccc565b34801561051957600080fd5b506102316105283660046127ba565b611db0565b34801561053957600080fd5b50610542611e9a565b60405161028891906129e1565b34801561055b57600080fd5b506102bb611efa565b34801561057057600080fd5b506102bb611f00565b34801561058557600080fd5b506102fd610594366004612838565b611f06565b3480156105a557600080fd5b506105426105b43660046126ed565b611f2e565b3480156105c557600080fd5b506102316105d436600461276c565b612008565b3480156105e557600080fd5b506102bb6120c9565b3480156105fa57600080fd5b506102316106093660046127ba565b6120cf565b60015474010000000000000000000000000000000000000000900460ff161561066c576040517f08c379a000000000000000000000000000000000000000000000000000000000815260040161066390612cbc565b60405180910390fd5b600a81106106a6576040517f08c379a000000000000000000000000000000000000000000000000000000000815260040161066390612bba565b346106af61241d565b6040518060a001604052806002548152602001600181526020018481526020018381526020018467ffffffffffffffff811115610715577f4e487b7100000000000000000000000000000000000000000000000000000000600052604160045260246000fd5b60405190808252806020026020018201604052801561074857816020015b60608152602001906001900390816107335790505b50815250905083816080015160008151811061078d577f4e487b7100000000000000000000000000000000000000000000000000000000600052603260045260246000fd5b6020026020010181905250806003600060025481526020019081526020016000206000820151816000015560208201518160010155604082015181600201556060820151816003015560808201518160040190805190602001906107f292919061244c565b505033600081815260046020908152604080832060028054825460018101845592865293909420019190915590549051919250907fceb55fb99742a0d2305c686897f79e89483a9725c0f5493808c9a4787f2a875a9061085790889087904290612a82565b60405180910390a360025461086d9060016122ad565b60025550505050565b60015474010000000000000000000000000000000000000000900460ff16156108cb576040517f08c379a000000000000000000000000000000000000000000000000000000000815260040161066390612cbc565b6000600a5460016108dc9190612d93565b6000818152600d60205260409081902080547fffffffffffffffffffffffff00000000000000000000000000000000000000001673ffffffffffffffffffffffffffffffffffffffff8616179055600a8290555190915084907fb99663894dc2a2c66382f63932042aa530244fe0af348b833f4cddea9cfbeb71906109649084908790612d6a565b60405180910390a250505050565b60015474010000000000000000000000000000000000000000900460ff16156109c7576040517f08c379a000000000000000000000000000000000000000000000000000000000815260040161066390612cbc565b600a54811115610a03576040517f08c379a000000000000000000000000000000000000000000000000000000000815260040161066390612c17565b34600b54610a119190612d93565b600b55600c54610a22906001612d93565b600c556000818152600d602052604080822054905173ffffffffffffffffffffffffffffffffffffffff909116913480156108fc02929091818181858888f19350505050158015610a77573d6000803e3d6000fd5b506000818152600d60205260409081902054905173ffffffffffffffffffffffffffffffffffffffff9091169033907f2317347462a70f36eb7bac6fb953aca2cd01eb3bcdf5f359babe909811eaed6790610ad59085903490612d6a565b60405180910390a350565b3360009081526005602052604090205460609073ffffffffffffffffffffffffffffffffffffffff16610b3f576040517f08c379a000000000000000000000000000000000000000000000000000000000815260040161066390612b83565b3360009081526005602090815260409182902060010180548351818402810184019094528084529091830182828015610bae57602002820191906000526020600020905b815473ffffffffffffffffffffffffffffffffffffffff168152600190910190602001808311610b83575b5050505050905090565b60015474010000000000000000000000000000000000000000900460ff1615610c0d576040517f08c379a000000000000000000000000000000000000000000000000000000000815260040161066390612cbc565b3360009081526005602052604090205473ffffffffffffffffffffffffffffffffffffffff16610c69576040517f08c379a000000000000000000000000000000000000000000000000000000000815260040161066390612b83565b3360009081526005602052604090206008015460ff161515600114610cba576040517f08c379a000000000000000000000000000000000000000000000000000000000815260040161066390612b4c565b336000908152600560209081526040808320600890810180547fffffffffffffffffffffffffffffffffffffffffffffffffffffffffffffff00169055909152902054600780549091908110610d39577f4e487b7100000000000000000000000000000000000000000000000000000000600052603260045260246000fd5b600091825260209091200180547fffffffffffffffffffffffff0000000000000000000000000000000000000000169055565b600b5481565b3360009081526005602052604090205473ffffffffffffffffffffffffffffffffffffffff16610dce576040517f08c379a000000000000000000000000000000000000000000000000000000000815260040161066390612b83565b336000908152600560205260409020600a0180547fffffffffffffffffffffffffffffffffffffffffffffffffffffffffffffff00166001179055565b60078181548110610e1b57600080fd5b60009182526020909120015473ffffffffffffffffffffffffffffffffffffffff16905081565b60015474010000000000000000000000000000000000000000900460ff1615610e97576040517f08c379a000000000000000000000000000000000000000000000000000000000815260040161066390612cbc565b3360009081526005602052604090205473ffffffffffffffffffffffffffffffffffffffff1615610ef4576040517f08c379a000000000000000000000000000000000000000000000000000000000815260040161066390612c85565b6040805161016081018252338082526060602080840182815260008587018190528386018490526080860181905260a0860181905260c0860184905260e086018490526101008601819052610120860184905261014086018190529384526005825294909220835181547fffffffffffffffffffffffff00000000000000000000000000000000000000001673ffffffffffffffffffffffffffffffffffffffff9091161781559351805191948594859485948594929384939092610fc1926001850192909101906124a9565b506040820151600282015560608201518051610fe791600384019160209091019061244c565b506080820151600482015560a0820151600582015560c082015180516110179160068401916020909101906124a9565b5060e0820151805161103391600784019160209091019061252f565b506101008201516008820180547fffffffffffffffffffffffffffffffffffffffffffffffffffffffffffffff0016911515919091179055610120820151805161108791600984019160209091019061256a565b506101409190910151600a90910180547fffffffffffffffffffffffffffffffffffffffffffffffffffffffffffffff00169115159190911790556006546110d09060016122ad565b600655505050505050565b60015474010000000000000000000000000000000000000000900460ff1681565b600360208190526000918252604090912080546001820154600283015492909301549092919084565b60015474010000000000000000000000000000000000000000900460ff161561117a576040517f08c379a000000000000000000000000000000000000000000000000000000000815260040161066390612cbc565b73ffffffffffffffffffffffffffffffffffffffff818116600090815260056020526040902054166111d8576040517f08c379a000000000000000000000000000000000000000000000000000000000815260040161066390612b83565b73ffffffffffffffffffffffffffffffffffffffff811660009081526005602081905260409091200154349061120f9060016122ad565b73ffffffffffffffffffffffffffffffffffffffff80841660009081526005602081815260408084209092019490945533808352818320600681018054600181810183559186528786200180547fffffffffffffffffffffffff0000000000000000000000000000000000000000168417905560078201805491820181558552958420909501869055825292549251929091169183156108fc0291849190818181858888f193505050501580156112ca573d6000803e3d6000fd5b50336000818152600560205260409081902054905173ffffffffffffffffffffffffffffffffffffffff90911691907f4ff506b3374358c3c7af62afc6a28d4d0d352dd81ebd0f6ee2a89641c362aae090611326908590612d61565b60405180910390a35050565b6004602052816000526040600020818154811061134e57600080fd5b90600052602060002001600091509150505481565b3360009081526005602052604090205473ffffffffffffffffffffffffffffffffffffffff166113bf576040517f08c379a000000000000000000000000000000000000000000000000000000000815260040161066390612b83565b3360009081526005602090815260408220600190810180549182018155835291200180547fffffffffffffffffffffffff00000000000000000000000000000000000000001673ffffffffffffffffffffffffffffffffffffffff92909216919091179055565b60015474010000000000000000000000000000000000000000900460ff161561147b576040517f08c379a000000000000000000000000000000000000000000000000000000000815260040161066390612cbc565b60015473ffffffffffffffffffffffffffffffffffffffff1633146114cc576040517f08c379a000000000000000000000000000000000000000000000000000000000815260040161066390612cf3565b600254831115611508576040517f08c379a000000000000000000000000000000000000000000000000000000000815260040161066390612c4e565b6000838152600360205260408120600190810154611525916122ad565b600085815260036020526040902060020154909150811115611573576040517f08c379a000000000000000000000000000000000000000000000000000000000815260040161066390612aa7565b6000848152600360205260409020600180820183905584916004019061159a9084906122fd565b815481106115d1577f4e487b7100000000000000000000000000000000000000000000000000000000600052603260045260246000fd5b9060005260206000200190805190602001906115ee92919061256a565b506000848152600360208190526040909120600281015491015473ffffffffffffffffffffffffffffffffffffffff8416916108fc9161162d9161233f565b6040518115909202916000818181858888f19350505050158015611655573d6000803e3d6000fd5b50837fb8b9b7420ce876fd147a9284d5eed5f709fc3faafb9e8cdf3c6ece72e002e8c78442604051610964929190612a60565b60005473ffffffffffffffffffffffffffffffffffffffff1633146116d9576040517f08c379a000000000000000000000000000000000000000000000000000000000815260040161066390612d2a565b600080547fffffffffffffffffffffffff00000000000000000000000000000000000000001673ffffffffffffffffffffffffffffffffffffffff92909216919091179055565b73ffffffffffffffffffffffffffffffffffffffff81811660009081526005602052604090205460609116611781576040517f08c379a000000000000000000000000000000000000000000000000000000000815260040161066390612b83565b73ffffffffffffffffffffffffffffffffffffffff82166000908152600560209081526040918290206006018054835181840281018401909452808452909183018282801561180657602002820191906000526020600020905b815473ffffffffffffffffffffffffffffffffffffffff1681526001909101906020018083116117db575b50505050509050919050565b60065481565b600560208190526000918252604090912080546002820154600483015493830154600884015460098501805473ffffffffffffffffffffffffffffffffffffffff9095169693959394929360ff9092169261187290612dfb565b80601f016020809104026020016040519081016040528092919081815260200182805461189e90612dfb565b80156118eb5780601f106118c0576101008083540402835291602001916118eb565b820191906000526020600020905b8154815290600101906020018083116118ce57829003601f168201915b505050600a909301549192505060ff1687565b3360009081526005602052604090205473ffffffffffffffffffffffffffffffffffffffff1661195a576040517f08c379a000000000000000000000000000000000000000000000000000000000815260040161066390612b83565b336000908152600560205260409020600a0180547fffffffffffffffffffffffffffffffffffffffffffffffffffffffffffffff00169055565b6002546000906119a59060016122fd565b905090565b60005473ffffffffffffffffffffffffffffffffffffffff1633146119fb576040517f08c379a000000000000000000000000000000000000000000000000000000000815260040161066390612d2a565b600180547fffffffffffffffffffffff00ffffffffffffffffffffffffffffffffffffffff8116740100000000000000000000000000000000000000009182900460ff1615909102179055565b600a5481565b73ffffffffffffffffffffffffffffffffffffffff82811660009081526005602052604090205460609116611a8557506060611cc6565b6000805b73ffffffffffffffffffffffffffffffffffffffff8516600090815260056020526040902060010154811015611b605773ffffffffffffffffffffffffffffffffffffffff85166000908152600560205260409020600101805433919083908110611b1d577f4e487b7100000000000000000000000000000000000000000000000000000000600052603260045260246000fd5b60009182526020909120015473ffffffffffffffffffffffffffffffffffffffff161415611b4e5760019150611b60565b611b598160016122ad565b9050611a89565b5073ffffffffffffffffffffffffffffffffffffffff84811660009081526005602052604090205416331480611b9857506001811515145b611bce576040517f08c379a000000000000000000000000000000000000000000000000000000000815260040161066390612b15565b73ffffffffffffffffffffffffffffffffffffffff84166000908152600560205260409020600301805484908110611c2f577f4e487b7100000000000000000000000000000000000000000000000000000000600052603260045260246000fd5b906000526020600020018054611c4490612dfb565b80601f0160208091040260200160405190810160405280929190818152602001828054611c7090612dfb565b8015611cbd5780601f10611c9257610100808354040283529160200191611cbd565b820191906000526020600020905b815481529060010190602001808311611ca057829003601f168201915b50505050509150505b92915050565b60015474010000000000000000000000000000000000000000900460ff1615611d21576040517f08c379a000000000000000000000000000000000000000000000000000000000815260040161066390612cbc565b3360009081526005602052604090205473ffffffffffffffffffffffffffffffffffffffff16611d7d576040517f08c379a000000000000000000000000000000000000000000000000000000000815260040161066390612b83565b33600090815260056020526040902060040154611d9a90826122ad565b3360009081526005602052604090206004015550565b60015474010000000000000000000000000000000000000000900460ff1615611e05576040517f08c379a000000000000000000000000000000000000000000000000000000000815260040161066390612cbc565b3360009081526005602052604090205473ffffffffffffffffffffffffffffffffffffffff16611e3757611e37610e42565b33600090815260056020526040902060020154611e559060016122ad565b3360009081526005602090815260408220600281019390935560039092018054600181018255908252908290208351611e969391909201919084019061256a565b5050565b33600090815260046020908152604091829020805483518184028101840190945280845260609392830182828015610bae57602002820191906000526020600020905b815481526020019060010190808311611edd575050505050905090565b600c5481565b600e5481565b600d6020526000908152604090205473ffffffffffffffffffffffffffffffffffffffff1681565b73ffffffffffffffffffffffffffffffffffffffff81811660009081526005602052604090205460609116611f8f576040517f08c379a000000000000000000000000000000000000000000000000000000000815260040161066390612b83565b73ffffffffffffffffffffffffffffffffffffffff82166000908152600560209081526040918290206007018054835181840281018401909452808452909183018282801561180657602002820191906000526020600020905b815481526020019060010190808311611fe95750505050509050919050565b60015474010000000000000000000000000000000000000000900460ff161561205d576040517f08c379a000000000000000000000000000000000000000000000000000000000815260040161066390612cbc565b823373ffffffffffffffffffffffffffffffffffffffff16600e547f3e1acfd5f2181de07799d35be451dbddfd093425b11baa4b85098d8f871e90a18585426040516120ab93929190612a24565b60405180910390a4600e546120c1906001612d93565b600e55505050565b60095481565b60015474010000000000000000000000000000000000000000900460ff1615612124576040517f08c379a000000000000000000000000000000000000000000000000000000000815260040161066390612cbc565b3360009081526005602052604090205473ffffffffffffffffffffffffffffffffffffffff16612180576040517f08c379a000000000000000000000000000000000000000000000000000000000815260040161066390612b83565b3360009081526005602052604090206008015460ff16156121cd576040517f08c379a000000000000000000000000000000000000000000000000000000000815260040161066390612b4c565b6007805460018181019092557fa66cc928b5edb82af9bd49922954155ab7b0942694bea4ce44661d9a8736c6880180547fffffffffffffffffffffffff00000000000000000000000000000000000000001633908117909155600954600091825260086020526040909120819055612244916122ad565b6009908155336000908152600560209081526040909120835161226e93919091019184019061256a565b505033600090815260056020526040902060080180547fffffffffffffffffffffffffffffffffffffffffffffffffffffffffffffff00166001179055565b6000806122ba8385612d93565b9050838110156122f6576040517f08c379a000000000000000000000000000000000000000000000000000000000815260040161066390612ade565b9392505050565b60006122f683836040518060400160405280601e81526020017f536166654d6174683a207375627472616374696f6e206f766572666c6f770000815250612381565b60006122f683836040518060400160405280601a81526020017f536166654d6174683a206469766973696f6e206279207a65726f0000000000008152506123d5565b600081848411156123bf576040517f08c379a00000000000000000000000000000000000000000000000000000000081526004016106639190612a4d565b5060006123cc8486612de4565b95945050505050565b60008183612410576040517f08c379a00000000000000000000000000000000000000000000000000000000081526004016106639190612a4d565b5060006123cc8486612dab565b6040518060a0016040528060008152602001600081526020016000815260200160008152602001606081525090565b828054828255906000526020600020908101928215612499579160200282015b82811115612499578251805161248991849160209091019061256a565b509160200191906001019061246c565b506124a59291506125dd565b5090565b828054828255906000526020600020908101928215612523579160200282015b8281111561252357825182547fffffffffffffffffffffffff00000000000000000000000000000000000000001673ffffffffffffffffffffffffffffffffffffffff9091161782556020909201916001909101906124c9565b506124a59291506125fa565b828054828255906000526020600020908101928215612523579160200282015b8281111561252357825182559160200191906001019061254f565b82805461257690612dfb565b90600052602060002090601f0160209004810192826125985760008555612523565b82601f106125b157805160ff1916838001178555612523565b82800160010185558215612523579182018281111561252357825182559160200191906001019061254f565b808211156124a55760006125f1828261260f565b506001016125dd565b5b808211156124a557600081556001016125fb565b50805461261b90612dfb565b6000825580601f1061262d575061264b565b601f01602090049060005260206000209081019061264b91906125fa565b50565b600082601f83011261265e578081fd5b813567ffffffffffffffff8082111561267957612679612e7e565b60405160207fffffffffffffffffffffffffffffffffffffffffffffffffffffffffffffffe0601f85011682010181811083821117156126bb576126bb612e7e565b6040528281528483016020018610156126d2578384fd5b82602086016020830137918201602001929092529392505050565b6000602082840312156126fe578081fd5b81356122f681612ead565b6000806040838503121561271b578081fd5b823561272681612ead565b946020939093013593505050565b600080600060608486031215612748578081fd5b8335925060208401359150604084013561276181612ead565b809150509250925092565b600080600060608486031215612780578283fd5b8335925060208401359150604084013567ffffffffffffffff8111156127a4578182fd5b6127b08682870161264e565b9150509250925092565b6000602082840312156127cb578081fd5b813567ffffffffffffffff8111156127e1578182fd5b6127ed8482850161264e565b949350505050565b60008060408385031215612807578182fd5b823567ffffffffffffffff81111561281d578283fd5b6128298582860161264e565b95602094909401359450505050565b600060208284031215612849578081fd5b5035919050565b600080600060608486031215612864578283fd5b83359250602084013567ffffffffffffffff811115612881578283fd5b61288d8682870161264e565b925050604084013561276181612ead565b60008151808452815b818110156128c3576020818501810151868301820152016128a7565b818111156128d45782602083870101525b50601f017fffffffffffffffffffffffffffffffffffffffffffffffffffffffffffffffe0169290920160200192915050565b73ffffffffffffffffffffffffffffffffffffffff91909116815260200190565b600073ffffffffffffffffffffffffffffffffffffffff89168252876020830152866040830152856060830152841515608083015260e060a083015261297160e083018561289e565b905082151560c083015298975050505050505050565b6020808252825182820181905260009190848201906040850190845b818110156129d557835173ffffffffffffffffffffffffffffffffffffffff16835292840192918401916001016129a3565b50909695505050505050565b6020808252825182820181905260009190848201906040850190845b818110156129d5578351835292840192918401916001016129fd565b901515815260200190565b600084825260606020830152612a3d606083018561289e565b9050826040830152949350505050565b6000602082526122f6602083018461289e565b600060408252612a73604083018561289e565b90508260208301529392505050565b600060608252612a95606083018661289e565b60208301949094525060400152919050565b60208082526014908201527f416c6c20526f756e647320436f6d706c65746564000000000000000000000000604082015260600190565b6020808252601b908201527f536166654d6174683a206164646974696f6e206f766572666c6f770000000000604082015260600190565b60208082526015908201527f43616e6e6f7420416363657373205265636f7264730000000000000000000000604082015260600190565b6020808252601b908201527f5573657220697320616c72656164792043616d706169676e696e670000000000604082015260600190565b6020808252600c908201527f496e76616c696420557365720000000000000000000000000000000000000000604082015260600190565b60208082526027908201527f4e756d626572206f6620526f756e64732073686f756c64206265206c6573732060408201527f7468616e20313000000000000000000000000000000000000000000000000000606082015260800190565b6020808252600f908201527f496e76616c69642046756e642049440000000000000000000000000000000000604082015260600190565b6020808252600f908201527f496e76616c6964205461736b2049440000000000000000000000000000000000604082015260600190565b60208082526017908201527f5573657220416c72656164792052656769737465726564000000000000000000604082015260600190565b60208082526012908201527f436f6e7472616374206973205061757365640000000000000000000000000000604082015260600190565b6020808252601d908201527f596f7520617265206e6f742074686520636f6f7264696e61746f722021000000604082015260600190565b6020808252600a908201527f4f6e6c79204f776e657200000000000000000000000000000000000000000000604082015260600190565b90815260200190565b918252602082015260400190565b93845260208401929092526040830152606082015260800190565b60008219821115612da657612da6612e4f565b500190565b600082612ddf577f4e487b710000000000000000000000000000000000000000000000000000000081526012600452602481fd5b500490565b600082821015612df657612df6612e4f565b500390565b600281046001821680612e0f57607f821691505b60208210811415612e49577f4e487b7100000000000000000000000000000000000000000000000000000000600052602260045260246000fd5b50919050565b7f4e487b7100000000000000000000000000000000000000000000000000000000600052601160045260246000fd5b7f4e487b7100000000000000000000000000000000000000000000000000000000600052604160045260246000fd5b73ffffffffffffffffffffffffffffffffffffffff8116811461264b57600080fdfea2646970667358221220c314cde127a1610acd0260598fbd60768c3f6cdc6e14ed7159bf122654029c8264736f6c63430008000033",
  "linkReferences": {},
  "deployedLinkReferences": {}
}