{
  "_format": "hh-sol-artifact-1",
  "contractName": "Saarthi",
  "sourceName": "contracts/Saarthi.sol",
  "abi": [
    {
      "inputs": [],
      "stateMutability": "nonpayable",
      "type": "constructor"
    },
    {
      "anonymous": false,
      "inputs": [
        {
          "indexed": true,
          "internalType": "uint256",
          "name": "taskID",
          "type": "uint256"
        },
        {
          "indexed": false,
          "internalType": "string",
          "name": "_modelHash",
          "type": "string"
        },
        {
          "indexed": false,
          "internalType": "uint256",
          "name": "_time",
          "type": "uint256"
        }
      ],
      "name": "modelUpdated",
      "type": "event"
    },
    {
      "anonymous": false,
      "inputs": [
        {
          "indexed": true,
          "internalType": "address",
          "name": "_from",
          "type": "address"
        },
        {
          "indexed": true,
          "internalType": "address",
          "name": "_to",
          "type": "address"
        },
        {
          "indexed": false,
          "internalType": "bool",
          "name": "_finalState",
          "type": "bool"
        }
      ],
      "name": "newApproval",
      "type": "event"
    },
    {
      "anonymous": false,
      "inputs": [
        {
          "indexed": true,
          "internalType": "address",
          "name": "_campaigner",
          "type": "address"
        },
        {
          "indexed": false,
          "internalType": "bytes32",
          "name": "_campaignData",
          "type": "bytes32"
        },
        {
          "indexed": false,
          "internalType": "uint256",
          "name": "_createdAt",
          "type": "uint256"
        }
      ],
      "name": "newCampaign",
      "type": "event"
    },
    {
      "anonymous": false,
      "inputs": [
        {
          "indexed": true,
          "internalType": "address",
          "name": "_campaigner",
          "type": "address"
        },
        {
          "indexed": true,
          "internalType": "address",
          "name": "_from",
          "type": "address"
        },
        {
          "indexed": false,
          "internalType": "uint256",
          "name": "amount",
          "type": "uint256"
        }
      ],
      "name": "newCampaignDonation",
      "type": "event"
    },
    {
      "anonymous": false,
      "inputs": [
        {
          "indexed": false,
          "internalType": "uint256",
          "name": "_fundIndex",
          "type": "uint256"
        },
        {
          "indexed": true,
          "internalType": "bytes32",
          "name": "_orgName",
          "type": "bytes32"
        },
        {
          "indexed": false,
          "internalType": "bytes32",
          "name": "_fundName",
          "type": "bytes32"
        }
      ],
      "name": "newFund",
      "type": "event"
    },
    {
      "anonymous": false,
      "inputs": [
        {
          "indexed": false,
          "internalType": "uint256",
          "name": "_fundIndex",
          "type": "uint256"
        },
        {
          "indexed": true,
          "internalType": "address",
          "name": "_sender",
          "type": "address"
        },
        {
          "indexed": true,
          "internalType": "address",
          "name": "_receiver",
          "type": "address"
        },
        {
          "indexed": false,
          "internalType": "uint256",
          "name": "_amount",
          "type": "uint256"
        }
      ],
      "name": "newFundDonation",
      "type": "event"
    },
    {
      "anonymous": false,
      "inputs": [
        {
          "indexed": true,
          "internalType": "uint256",
          "name": "_index",
          "type": "uint256"
        },
        {
          "indexed": true,
          "internalType": "address",
          "name": "_reporter",
          "type": "address"
        },
        {
          "indexed": true,
          "internalType": "bytes32",
          "name": "_location",
          "type": "bytes32"
        },
        {
          "indexed": false,
          "internalType": "bytes32",
          "name": "_file",
          "type": "bytes32"
        },
        {
          "indexed": false,
          "internalType": "string",
          "name": "_details",
          "type": "string"
        },
        {
          "indexed": false,
          "internalType": "uint256",
          "name": "_time",
          "type": "uint256"
        }
      ],
      "name": "newReport",
      "type": "event"
    },
    {
      "anonymous": false,
      "inputs": [
        {
          "indexed": true,
          "internalType": "uint256",
          "name": "taskID",
          "type": "uint256"
        },
        {
          "indexed": true,
          "internalType": "address",
          "name": "_user",
          "type": "address"
        },
        {
          "indexed": false,
          "internalType": "string",
          "name": "_modelHash",
          "type": "string"
        },
        {
          "indexed": false,
          "internalType": "uint256",
          "name": "_amt",
          "type": "uint256"
        },
        {
          "indexed": false,
          "internalType": "uint256",
          "name": "_time",
          "type": "uint256"
        }
      ],
      "name": "newTaskCreated",
      "type": "event"
    },
    {
      "inputs": [
        {
          "internalType": "uint256",
          "name": "",
          "type": "uint256"
        }
      ],
      "name": "Campaigns",
      "outputs": [
        {
          "internalType": "address",
          "name": "",
          "type": "address"
        }
      ],
      "stateMutability": "view",
      "type": "function"
    },
    {
      "inputs": [
        {
          "internalType": "uint256",
          "name": "",
          "type": "uint256"
        }
      ],
      "name": "Funds",
      "outputs": [
        {
          "internalType": "address payable",
          "name": "",
          "type": "address"
        }
      ],
      "stateMutability": "view",
      "type": "function"
    },
    {
      "inputs": [
        {
          "internalType": "uint256",
          "name": "",
          "type": "uint256"
        }
      ],
      "name": "SaarthiTasks",
      "outputs": [
        {
          "internalType": "uint256",
          "name": "taskID",
          "type": "uint256"
        },
        {
          "internalType": "uint256",
          "name": "currentRound",
          "type": "uint256"
        },
        {
          "internalType": "uint256",
          "name": "totalRounds",
          "type": "uint256"
        },
        {
          "internalType": "uint256",
          "name": "cost",
          "type": "uint256"
        }
      ],
      "stateMutability": "view",
      "type": "function"
    },
    {
      "inputs": [],
      "name": "UserCnt",
      "outputs": [
        {
          "internalType": "uint256",
          "name": "",
          "type": "uint256"
        }
      ],
      "stateMutability": "view",
      "type": "function"
    },
    {
      "inputs": [
        {
          "internalType": "address",
          "name": "",
          "type": "address"
        },
        {
          "internalType": "uint256",
          "name": "",
          "type": "uint256"
        }
      ],
      "name": "UserTaskIDs",
      "outputs": [
        {
          "internalType": "uint256",
          "name": "",
          "type": "uint256"
        }
      ],
      "stateMutability": "view",
      "type": "function"
    },
    {
      "inputs": [
        {
          "internalType": "address",
          "name": "",
          "type": "address"
        }
      ],
      "name": "Users",
      "outputs": [
        {
          "internalType": "address payable",
          "name": "userAddress",
          "type": "address"
        },
        {
          "internalType": "uint256",
          "name": "billAmount",
          "type": "uint256"
        }
      ],
      "stateMutability": "view",
      "type": "function"
    },
    {
      "inputs": [],
      "name": "activeCampaignCnt",
      "outputs": [
        {
          "internalType": "uint256",
          "name": "",
          "type": "uint256"
        }
      ],
      "stateMutability": "view",
      "type": "function"
    },
    {
      "inputs": [],
      "name": "addUser",
      "outputs": [],
      "stateMutability": "nonpayable",
      "type": "function"
    },
    {
      "inputs": [
        {
          "internalType": "address",
          "name": "",
          "type": "address"
        },
        {
          "internalType": "address",
          "name": "",
          "type": "address"
        }
      ],
      "name": "approval",
      "outputs": [
        {
          "internalType": "bool",
          "name": "",
          "type": "bool"
        }
      ],
      "stateMutability": "view",
      "type": "function"
    },
    {
      "inputs": [
        {
          "internalType": "uint256",
          "name": "_amt",
          "type": "uint256"
        }
      ],
      "name": "billUser",
      "outputs": [],
      "stateMutability": "nonpayable",
      "type": "function"
    },
    {
      "inputs": [
        {
          "internalType": "bytes32",
          "name": "c__0x45b75de4",
          "type": "bytes32"
        }
      ],
      "name": "c_0x45b75de4",
      "outputs": [],
      "stateMutability": "pure",
      "type": "function"
    },
    {
      "inputs": [
        {
          "internalType": "address",
          "name": "",
          "type": "address"
        }
      ],
      "name": "campaignEnabled",
      "outputs": [
        {
          "internalType": "bool",
          "name": "",
          "type": "bool"
        }
      ],
      "stateMutability": "view",
      "type": "function"
    },
    {
      "inputs": [
        {
          "internalType": "bytes32",
          "name": "_orgName",
          "type": "bytes32"
        },
        {
          "internalType": "bytes32",
          "name": "_fundName",
          "type": "bytes32"
        },
        {
          "internalType": "address payable",
          "name": "_orgAdress",
          "type": "address"
        }
      ],
      "name": "createFund",
      "outputs": [],
      "stateMutability": "nonpayable",
      "type": "function"
    },
    {
      "inputs": [
        {
          "internalType": "string",
          "name": "_modelHash",
          "type": "string"
        },
        {
          "internalType": "uint256",
          "name": "_rounds",
          "type": "uint256"
        }
      ],
      "name": "createTask",
      "outputs": [],
      "stateMutability": "payable",
      "type": "function"
    },
    {
      "inputs": [
        {
          "internalType": "address",
          "name": "_user",
          "type": "address"
        }
      ],
      "name": "donateToCampaign",
      "outputs": [],
      "stateMutability": "payable",
      "type": "function"
    },
    {
      "inputs": [
        {
          "internalType": "uint256",
          "name": "_fundIndex",
          "type": "uint256"
        }
      ],
      "name": "donateToFund",
      "outputs": [],
      "stateMutability": "payable",
      "type": "function"
    },
    {
      "inputs": [
        {
          "internalType": "bytes32",
          "name": "_location",
          "type": "bytes32"
        },
        {
          "internalType": "bytes32",
          "name": "_file",
          "type": "bytes32"
        },
        {
          "internalType": "string",
          "name": "_details",
          "type": "string"
        }
      ],
      "name": "fileReport",
      "outputs": [],
      "stateMutability": "nonpayable",
      "type": "function"
    },
    {
      "inputs": [],
      "name": "fundCnt",
      "outputs": [
        {
          "internalType": "uint256",
          "name": "",
          "type": "uint256"
        }
      ],
      "stateMutability": "view",
      "type": "function"
    },
    {
      "inputs": [],
      "name": "getTaskCount",
      "outputs": [
        {
          "internalType": "uint256",
          "name": "",
          "type": "uint256"
        }
      ],
      "stateMutability": "view",
      "type": "function"
    },
    {
      "inputs": [],
      "name": "getTasksOfUser",
      "outputs": [
        {
          "internalType": "uint256[]",
          "name": "",
          "type": "uint256[]"
        }
      ],
      "stateMutability": "view",
      "type": "function"
    },
    {
      "inputs": [],
      "name": "paused",
      "outputs": [
        {
          "internalType": "bool",
          "name": "",
          "type": "bool"
        }
      ],
      "stateMutability": "view",
      "type": "function"
    },
    {
      "inputs": [],
      "name": "reportCnt",
      "outputs": [
        {
          "internalType": "uint256",
          "name": "",
          "type": "uint256"
        }
      ],
      "stateMutability": "view",
      "type": "function"
    },
    {
      "inputs": [
        {
          "internalType": "bytes32",
          "name": "_campaignData",
          "type": "bytes32"
        }
      ],
      "name": "startCampaign",
      "outputs": [],
      "stateMutability": "nonpayable",
      "type": "function"
    },
    {
      "inputs": [],
      "name": "stopCampaign",
      "outputs": [],
      "stateMutability": "nonpayable",
      "type": "function"
    },
    {
      "inputs": [
        {
          "internalType": "address",
          "name": "_address",
          "type": "address"
        }
      ],
      "name": "toggleAccessToAddress",
      "outputs": [],
      "stateMutability": "nonpayable",
      "type": "function"
    },
    {
      "inputs": [],
      "name": "togglePause",
      "outputs": [],
      "stateMutability": "nonpayable",
      "type": "function"
    },
    {
      "inputs": [],
      "name": "totalDonationAmount",
      "outputs": [
        {
          "internalType": "uint256",
          "name": "",
          "type": "uint256"
        }
      ],
      "stateMutability": "view",
      "type": "function"
    },
    {
      "inputs": [],
      "name": "totalDonationCnt",
      "outputs": [
        {
          "internalType": "uint256",
          "name": "",
          "type": "uint256"
        }
      ],
      "stateMutability": "view",
      "type": "function"
    },
    {
      "inputs": [
        {
          "internalType": "uint256",
          "name": "_taskID",
          "type": "uint256"
        },
        {
          "internalType": "string",
          "name": "_modelHash",
          "type": "string"
        },
        {
          "internalType": "address payable",
          "name": "computer",
          "type": "address"
        }
      ],
      "name": "updateModelForTask",
      "outputs": [],
      "stateMutability": "nonpayable",
      "type": "function"
    },
    {
      "inputs": [
        {
          "internalType": "address",
          "name": "_newOwner",
          "type": "address"
        }
      ],
      "name": "updateOwner",
      "outputs": [],
      "stateMutability": "nonpayable",
      "type": "function"
    }
  ],
  "bytecode": "0x608060405273beb71662ff9c08afef3866f85a6591d4aebe6e4e600160006101000a81548173ffffffffffffffffffffffffffffffffffffffff021916908373ffffffffffffffffffffffffffffffffffffffff1602179055506000600160146101000a81548160ff0219169083151502179055506001600255600060065560006009556000600b556000600c556000600d556000600f55348015620000a457600080fd5b50620000d97f351148545eec8ed71e6eabd40d456a1efe35c81319a7803d48b6f788f3f9588a60001b6200018760201b60201c565b6200010d7fbd49278397d4cd90c4ff13165067722146d6a66b33698c5c2054a787bbbb579f60001b6200018760201b60201c565b620001417fc07c4a25027e9a0929799bf6e3033c90f8db400b66e3e91aa36ef239b3d53c6460001b6200018760201b60201c565b336000806101000a81548173ffffffffffffffffffffffffffffffffffffffff021916908373ffffffffffffffffffffffffffffffffffffffff1602179055506200018a565b50565b6158bc806200019a6000396000f3fe6080604052600436106101cd5760003560e01c806399b956a0116100f7578063d6857f1511610095578063e3f2d24f11610064578063e3f2d24f1461062b578063eee9b99e14610656578063f1fcc8e914610693578063f819d88a146106bc576101cd565b8063d6857f151461056f578063df8fc3fd14610598578063e1270b6e146105c3578063e1c7dbe314610600576101cd565b8063c06a260d116100d1578063c06a260d146104d9578063c17a340e14610502578063c4ae31681461052d578063cd5e548314610544576101cd565b806399b956a0146104335780639ff6071114610471578063b063795c146104ae576101cd565b80634e1dd1a41161016f57806375a269a51161013e57806375a269a51461039a5780637c6abc82146103c3578063880cdc31146103df578063974cf54614610408576101cd565b80634e1dd1a4146102c95780635c975abb146102f25780636092a5021461031d5780636946c5e91461035d576101cd565b806316f1bc22116101ab57806316f1bc2214610233578063178496461461024a5780634013be1014610275578063455c928c146102b2576101cd565b806304fe2b34146101d25780630d3bb50f146101ee57806311cd13ac14610217575b600080fd5b6101ec60048036038101906101e79190614c9c565b6106e5565b005b3480156101fa57600080fd5b5061021560048036038101906102109190614be6565b610e55565b005b610231600480360381019061022c9190614cf0565b6111eb565b005b34801561023f57600080fd5b5061024861170a565b005b34801561025657600080fd5b5061025f611a89565b60405161026c9190615462565b60405180910390f35b34801561028157600080fd5b5061029c60048036038101906102979190614cf0565b611a8f565b6040516102a9919061516f565b60405180910390f35b3480156102be57600080fd5b506102c7611ace565b005b3480156102d557600080fd5b506102f060048036038101906102eb9190614b1c565b611fc4565b005b3480156102fe57600080fd5b506103076122af565b60405161031491906151f0565b60405180910390f35b34801561032957600080fd5b50610344600480360381019061033f9190614cf0565b6122c2565b60405161035494939291906154cf565b60405180910390f35b34801561036957600080fd5b50610384600480360381019061037f9190614b81565b6122f2565b6040516103919190615462565b60405180910390f35b3480156103a657600080fd5b506103c160048036038101906103bc9190614d19565b612323565b005b6103dd60048036038101906103d89190614b1c565b612b31565b005b3480156103eb57600080fd5b5061040660048036038101906104019190614b1c565b612fbf565b005b34801561041457600080fd5b5061041d6131c4565b60405161042a9190615462565b60405180910390f35b34801561043f57600080fd5b5061045a60048036038101906104559190614b1c565b6131ca565b6040516104689291906151a5565b60405180910390f35b34801561047d57600080fd5b5061049860048036038101906104939190614b1c565b61320e565b6040516104a591906151f0565b60405180910390f35b3480156104ba57600080fd5b506104c361322e565b6040516104d09190615462565b60405180910390f35b3480156104e557600080fd5b5061050060048036038101906104fb9190614bbd565b613234565b005b34801561050e57600080fd5b50610517613695565b6040516105249190615462565b60405180910390f35b34801561053957600080fd5b50610542613736565b005b34801561055057600080fd5b50610559613924565b6040516105669190615462565b60405180910390f35b34801561057b57600080fd5b5061059660048036038101906105919190614cf0565b61392a565b005b3480156105a457600080fd5b506105ad613d2c565b6040516105ba91906151ce565b60405180910390f35b3480156105cf57600080fd5b506105ea60048036038101906105e59190614b45565b613e45565b6040516105f791906151f0565b60405180910390f35b34801561060c57600080fd5b50610615613e74565b6040516106229190615462565b60405180910390f35b34801561063757600080fd5b50610640613e7a565b60405161064d9190615462565b60405180910390f35b34801561066257600080fd5b5061067d60048036038101906106789190614cf0565b613e80565b60405161068a919061518a565b60405180910390f35b34801561069f57600080fd5b506106ba60048036038101906106b59190614c35565b613eb3565b005b3480156106c857600080fd5b506106e360048036038101906106de9190614bbd565b61415d565b005b6107117fc71f195b146e0b4ea55644e46f58d5fc06416efd624b761f5d11b9fe63ff174d60001b61415d565b61073d7ffb3d9b9aed05128ab75fdbadeb1e8b79c2f4228afdad39231d0058241945880c60001b61415d565b6107697fa72e17ceb34f7ce02f2c2e6d5ce17b97fe2ba669cbc5f6f1943a9690a92d7e3260001b61415d565b6107957f53c4bf237e5a22b55c98de33b05a209ef38536da15e7b03f927f0ca548a20c3860001b61415d565b60001515600160149054906101000a900460ff161515146107eb576040517f08c379a00000000000000000000000000000000000000000000000000000000081526004016107e290615402565b60405180910390fd5b6108177f268f2c1e10f709c9ac1a4d344641c89e7e1e6b000443ae380e606ea8d91cff0160001b61415d565b6108437f790450d6aa1298d299fb2a250f89418fc335666b0ffa263278877692c9cd84ef60001b61415d565b61086f7f267b680800bfff5b5fe6f94455f17bd5159c6a7bc23553d41d8997c53e73e71260001b61415d565b61089b7f0312673af3c021e0986d49634a04db17fb1630f55126497c16852c3bb05fbacc60001b61415d565b6108c77fd0f37709ae85fb67e9dd78b6e5ac6808fa19c9f6b2a903cba1af63390bd3ed9c60001b61415d565b6108f37f64e3d7f5b2c644a8a221fd90585f8cb60dba87eb8782b3703ded3fc5aa94fb7e60001b61415d565b600a8110610936576040517f08c379a000000000000000000000000000000000000000000000000000000000815260040161092d90615382565b60405180910390fd5b6109627ff6df036e17e1e1b7ccc27fe0f65ce06ac883be7ef0e408b7f0ea34d41149aa1a60001b61415d565b61098e7fe0423c28e980c32cdfaa9c8608448570e60172042276d26bb7ae78865fd104f760001b61415d565b6109ba7f4b5fdfef9445c386c20ce288808122f07c8dd585a9f6e8b03f5f5444ec922dfe60001b61415d565b60003490506109eb7fa113121580226ef9580cf693346293383fa8fdc5d19b5836b1e817ffb28ea02360001b61415d565b610a177fc09528265bb049e56a60f675aa96a87ac4824f75319d798ec12707c53e99835b60001b61415d565b610a1f6148ca565b610a4b7f3ebe39eaaaa21223096ddd348f48591a44ec0e9f7f79b75eb57065eee8b01b9560001b61415d565b610a777f5176396825a81a13f6691020ad56e04e47812afffaf19c7203db81aafc11e36e60001b61415d565b6040518060a001604052806002548152602001600181526020018481526020018381526020018467ffffffffffffffff811115610add577f4e487b7100000000000000000000000000000000000000000000000000000000600052604160045260246000fd5b604051908082528060200260200182016040528015610b1057816020015b6060815260200190600190039081610afb5790505b508152509050610b427f506ca2feabaed101084df40cc14d8c8eca67090ec907a58248ba5d4bc2dccb8960001b61415d565b610b6e7f908cff76bb3182a4f2bef38c4ad871922327012bfeafab89fce0dc6d41f34d8c60001b61415d565b838160800151600081518110610bad577f4e487b7100000000000000000000000000000000000000000000000000000000600052603260045260246000fd5b6020026020010181905250610be47f9450348719cd1bfda4806a9bfde516f7d450a5c3deac228a6e99c7f66dce278660001b61415d565b610c107f8ed4675a215a81cef45a214cb9282791912d13bceff3f9a8de6235d6de5add1960001b61415d565b80600360006002548152602001908152602001600020600082015181600001556020820151816001015560408201518160020155606082015181600301556080820151816004019080519060200190610c6a9291906148f9565b50905050610c9a7febd934e72cc1964f5e7f94a5b07879566148d19050f6c68dcc73df75e25563ab60001b61415d565b610cc67f9dbf6e85ef32325055c96b5c27910ff72e9a2ce7e64ac1815644d307271ee56e60001b61415d565b600460003373ffffffffffffffffffffffffffffffffffffffff1673ffffffffffffffffffffffffffffffffffffffff1681526020019081526020016000206002549080600181540180825580915050600190039060005260206000200160009091909190915055610d5a7fdf28b0f54dd1ca9e11ad454dfa9d8f41e7c66a73e54b38cba7f93c681721b67e60001b61415d565b610d867f6a6551005aab060a3684f2f981155dc6899477a811ddff767c4c4bc7e713cf2960001b61415d565b3373ffffffffffffffffffffffffffffffffffffffff166002547fceb55fb99742a0d2305c686897f79e89483a9725c0f5493808c9a4787f2a875a868542604051610dd3939291906152c4565b60405180910390a3610e077f2f689551beaa90fbbc25fc528d0fb4d53773cf416ed2b863128a23f051b31e6f60001b61415d565b610e337fc9fbc0a3295a79f9879db01a9dd47579ffb820a355e72805cb826907b88142dc60001b61415d565b610e49600160025461416090919063ffffffff16565b60028190555050505050565b610e817fc71f195b146e0b4ea55644e46f58d5fc06416efd624b761f5d11b9fe63ff174d60001b61415d565b610ead7ffb3d9b9aed05128ab75fdbadeb1e8b79c2f4228afdad39231d0058241945880c60001b61415d565b610ed97fa72e17ceb34f7ce02f2c2e6d5ce17b97fe2ba669cbc5f6f1943a9690a92d7e3260001b61415d565b610f057f53c4bf237e5a22b55c98de33b05a209ef38536da15e7b03f927f0ca548a20c3860001b61415d565b60001515600160149054906101000a900460ff16151514610f5b576040517f08c379a0000000000000000000000000000000000000000000000000000000008152600401610f5290615402565b60405180910390fd5b610f877f268f2c1e10f709c9ac1a4d344641c89e7e1e6b000443ae380e606ea8d91cff0160001b61415d565b610fb37f790450d6aa1298d299fb2a250f89418fc335666b0ffa263278877692c9cd84ef60001b61415d565b610fdf7f7956248bdcc80c0286fb37f42a52df0a73c538ad1bef7454125f46e87fe55b2260001b61415d565b61100b7f8d6295d57a0945cffaaaeca2d276477a87b72591612799e1ed277dbec0c04abe60001b61415d565b6110377f596b8bb235069f6510d957c61d653c8a7047b4c2f839f81ae27c5df74e1969f060001b61415d565b60006001600b5461104891906155ca565b90506110767f338ce0a691d96627eb75917dc70896c0381041351dcc21da02d15559d499002060001b61415d565b6110a27f146518baf36f407501be27c16605a9c57fb72d2039d192b6d1f8aeed46ebffed60001b61415d565b81600e600083815260200190815260200160002060006101000a81548173ffffffffffffffffffffffffffffffffffffffff021916908373ffffffffffffffffffffffffffffffffffffffff1602179055506111207f075e18aafe576863c00037b08a73b26df156f9ccc8a26836435a7fececa0860560001b61415d565b61114c7f17ecbe84297ddd637a4a0b0c11edc019acc48115647f9bce44beb05737d9963d60001b61415d565b80600b8190555061117f7f9da2e85d2780696654bfb6fb986b94afcf7bf054b901d90825fca8b4a108f44760001b61415d565b6111ab7f245f6f7ec6ad7ef51f8f1f1005ce79cd94785ea3054c252d7768b8a6904c9a8660001b61415d565b837fb99663894dc2a2c66382f63932042aa530244fe0af348b833f4cddea9cfbeb7182856040516111dd92919061547d565b60405180910390a250505050565b6112177fc71f195b146e0b4ea55644e46f58d5fc06416efd624b761f5d11b9fe63ff174d60001b61415d565b6112437ffb3d9b9aed05128ab75fdbadeb1e8b79c2f4228afdad39231d0058241945880c60001b61415d565b61126f7fa72e17ceb34f7ce02f2c2e6d5ce17b97fe2ba669cbc5f6f1943a9690a92d7e3260001b61415d565b61129b7f53c4bf237e5a22b55c98de33b05a209ef38536da15e7b03f927f0ca548a20c3860001b61415d565b60001515600160149054906101000a900460ff161515146112f1576040517f08c379a00000000000000000000000000000000000000000000000000000000081526004016112e890615402565b60405180910390fd5b61131d7f268f2c1e10f709c9ac1a4d344641c89e7e1e6b000443ae380e606ea8d91cff0160001b61415d565b6113497f790450d6aa1298d299fb2a250f89418fc335666b0ffa263278877692c9cd84ef60001b61415d565b6113757f03a044d0c06654562b1876887887bc8159556895ec7d54a976896be63b21433b60001b61415d565b6113a17fdaa7b6d52f2f08d030bf3049cc63cd357f37931bb0678801fac96d56e49f343260001b61415d565b6113cd7f284b5fd88f2382328607880db900eaf51c03a874cfbf5da52cb72814a617bcdb60001b61415d565b6113f97f1b140688d17bca23ef53d321c11d52a0114c95594b893a76dbc022f34bb81c4660001b61415d565b600b5481111561143e576040517f08c379a0000000000000000000000000000000000000000000000000000000008152600401611435906153a2565b60405180910390fd5b61146a7f5bd603ea7567a274f4909535343200366c204edbcea7324a2234d5afba3c4fcc60001b61415d565b6114967ff347a8156a442153ae395546cf3ef5964357ca70352e8181054e5543dcff6d6860001b61415d565b6114c27f9184fbf70bca49c397d6b0c30280a2b35a1234e6db0892ba0f6d21c3c906ebda60001b61415d565b34600c546114d091906155ca565b600c819055506115027f87ceea1a5aacd009ee3051fc015b7f0f1c83e3c689b69b30d73d3a8d11df1e9660001b61415d565b61152e7f494e895c9a01e4a87f79f47c872bc44c93f1b9e9cf8bc3684e681c24b17a72b760001b61415d565b6001600d5461153d91906155ca565b600d8190555061156f7f45146c14678961bfba1baf0c0d1201a4146b59db04ea394ed825fe813e94deaa60001b61415d565b61159b7f14c8000fb69aa7df615e5d1549ad38af7446d769e0f1e5d9002fe109eba25a7660001b61415d565b600e600082815260200190815260200160002060009054906101000a900473ffffffffffffffffffffffffffffffffffffffff1673ffffffffffffffffffffffffffffffffffffffff166108fc349081150290604051600060405180830381858888f19350505050158015611614573d6000803e3d6000fd5b506116417f7b2dab6e6055508de1fccad943f96a0a8014507adab780b9161c393c5ef732aa60001b61415d565b61166d7fe3fa295495ab2128e71578f5a8a141621482aad80afa89a59fec38693e0a933260001b61415d565b600e600082815260200190815260200160002060009054906101000a900473ffffffffffffffffffffffffffffffffffffffff1673ffffffffffffffffffffffffffffffffffffffff163373ffffffffffffffffffffffffffffffffffffffff167f2317347462a70f36eb7bac6fb953aca2cd01eb3bcdf5f359babe909811eaed6783346040516116ff9291906154a6565b60405180910390a350565b6117367fc71f195b146e0b4ea55644e46f58d5fc06416efd624b761f5d11b9fe63ff174d60001b61415d565b6117627ffb3d9b9aed05128ab75fdbadeb1e8b79c2f4228afdad39231d0058241945880c60001b61415d565b61178e7fa72e17ceb34f7ce02f2c2e6d5ce17b97fe2ba669cbc5f6f1943a9690a92d7e3260001b61415d565b6117ba7f53c4bf237e5a22b55c98de33b05a209ef38536da15e7b03f927f0ca548a20c3860001b61415d565b60001515600160149054906101000a900460ff16151514611810576040517f08c379a000000000000000000000000000000000000000000000000000000000815260040161180790615402565b60405180910390fd5b61183c7f268f2c1e10f709c9ac1a4d344641c89e7e1e6b000443ae380e606ea8d91cff0160001b61415d565b6118687f790450d6aa1298d299fb2a250f89418fc335666b0ffa263278877692c9cd84ef60001b61415d565b6118947febf56a36298d859367a24d367ed16c571f26a64fa1edc689a80e2bfe5eb87fb560001b61415d565b6118c07fe0b3bacb52e8ef23ae33fad1c81d962e07758d1e708402d929ec1441a7c41d6d60001b61415d565b6118ec7fc9b57e5e6dc77b050857626fb07b9785d40e5c768fefc4928c77c03f2155e1b560001b61415d565b6119187fb8cf42bc2f5b6d48744c9c321d44544142a94a1c677044dacab053f5d83f123e60001b61415d565b60011515600a60003373ffffffffffffffffffffffffffffffffffffffff1673ffffffffffffffffffffffffffffffffffffffff16815260200190815260200160002060009054906101000a900460ff161515146119ab576040517f08c379a00000000000000000000000000000000000000000000000000000000081526004016119a290615362565b60405180910390fd5b6119d77f2382a1b4230db00b66ff8d9ab9c6bd09072489cee079970522afad059dab976060001b61415d565b611a037f5227590e610ef959b968837663e88fe489fa58baeabb33cac0e3dcfcd5c2cc8660001b61415d565b611a2f7ff50f1dcb8158963f4a6905d46a792f559c567d51e0d340892c039c0f65c04c5c60001b61415d565b6000600a60003373ffffffffffffffffffffffffffffffffffffffff1673ffffffffffffffffffffffffffffffffffffffff16815260200190815260200160002060006101000a81548160ff021916908315150217905550565b600c5481565b60088181548110611a9f57600080fd5b906000526020600020016000915054906101000a900473ffffffffffffffffffffffffffffffffffffffff1681565b611afa7fc71f195b146e0b4ea55644e46f58d5fc06416efd624b761f5d11b9fe63ff174d60001b61415d565b611b267ffb3d9b9aed05128ab75fdbadeb1e8b79c2f4228afdad39231d0058241945880c60001b61415d565b611b527fa72e17ceb34f7ce02f2c2e6d5ce17b97fe2ba669cbc5f6f1943a9690a92d7e3260001b61415d565b611b7e7f53c4bf237e5a22b55c98de33b05a209ef38536da15e7b03f927f0ca548a20c3860001b61415d565b60001515600160149054906101000a900460ff16151514611bd4576040517f08c379a0000000000000000000000000000000000000000000000000000000008152600401611bcb90615402565b60405180910390fd5b611c007f268f2c1e10f709c9ac1a4d344641c89e7e1e6b000443ae380e606ea8d91cff0160001b61415d565b611c2c7f790450d6aa1298d299fb2a250f89418fc335666b0ffa263278877692c9cd84ef60001b61415d565b611c587f25582ba627805aedc55a3a6d9f0c02fe054899c5daee60dada145e17f922c34660001b61415d565b611c847f482b108bbe890af997b9e0873b576b107148169ab57f3360d4f8501562ef72c160001b61415d565b611cb07f0e6f16cd767bf2ec6f228434ec4045400a58e1998c49cac9dbb5d18dab2d456160001b61415d565b611cdc7f205fa39a1037141ca04ed454d7016cdc5db68ae49ac1b35bad2e577616b9650360001b61415d565b600073ffffffffffffffffffffffffffffffffffffffff16600560003373ffffffffffffffffffffffffffffffffffffffff1673ffffffffffffffffffffffffffffffffffffffff16815260200190815260200160002060000160009054906101000a900473ffffffffffffffffffffffffffffffffffffffff1673ffffffffffffffffffffffffffffffffffffffff1614611dad576040517f08c379a0000000000000000000000000000000000000000000000000000000008152600401611da4906153e2565b60405180910390fd5b611dd97fb2a0a7c82ba4392bcc94b9dba37bdae0b3dcfafbb6e37bbdda76c1c4acdf11ab60001b61415d565b611e057f245f789c8d15cbe5b17279d76edd7d9d04811d4de8b531b952ab7198fbb70e6d60001b61415d565b611e317f3cb702236bcfcddb131636dbde437cd7c0a8b86d5c27e2f55159bea67ae4ef7060001b61415d565b600060405180604001604052803373ffffffffffffffffffffffffffffffffffffffff16815260200160008152509050611e8d7fa09822104d853c16e67c3dcf43a8ef3e4d06ba2866a79483332a8a10efcdf21a60001b61415d565b611eb97fe3508fc9a3bc3b715ab4d25858301031420c7b740bce657b8ba0e0f8e7e7f1d260001b61415d565b80600560003373ffffffffffffffffffffffffffffffffffffffff1673ffffffffffffffffffffffffffffffffffffffff16815260200190815260200160002060008201518160000160006101000a81548173ffffffffffffffffffffffffffffffffffffffff021916908373ffffffffffffffffffffffffffffffffffffffff16021790555060208201518160010155905050611f797f99bab1ca48017e0b3612d64e651634e37e5f70a4ab3c21b4e3a81f9e01902f4c60001b61415d565b611fa57fa970eff358020bab5a5b0437aff0748545ba216af61e39da6e76dcbce911520f60001b61415d565b611fbb600160065461416090919063ffffffff16565b60068190555050565b611ff07f61a13786217982c88a501c936643e3ac4b386eebc0535fe48bd536045f140efe60001b61415d565b61201c7f75477101b0d1d35c773f51106c03bc06574132a73542ecb25d33cc55e52c544f60001b61415d565b6120487f6071302b2a8ccc3d58a69f8fe7922fb7b0d01985ae4c053ede62dcb4e058f7c360001b61415d565b600760003373ffffffffffffffffffffffffffffffffffffffff1673ffffffffffffffffffffffffffffffffffffffff16815260200190815260200160002060008273ffffffffffffffffffffffffffffffffffffffff1673ffffffffffffffffffffffffffffffffffffffff16815260200190815260200160002060009054906101000a900460ff1615600760003373ffffffffffffffffffffffffffffffffffffffff1673ffffffffffffffffffffffffffffffffffffffff16815260200190815260200160002060008373ffffffffffffffffffffffffffffffffffffffff1673ffffffffffffffffffffffffffffffffffffffff16815260200190815260200160002060006101000a81548160ff0219169083151502179055506121927ffdbbda053875e912f898c2033dc8b8e1e5a8a041500e2376c9c7f8bf3be60d8060001b61415d565b6121be7f1a814a99a2cd17a5bd6a03ef6475b2b039a2fd3fe23c9baad88629e5a81aa78160001b61415d565b8073ffffffffffffffffffffffffffffffffffffffff163373ffffffffffffffffffffffffffffffffffffffff167fad77d1d38ed980518f1c26c8cd8fe0cc39ba4e9092e1b5f69f0bd23ff1de97fb600760003373ffffffffffffffffffffffffffffffffffffffff1673ffffffffffffffffffffffffffffffffffffffff16815260200190815260200160002060008573ffffffffffffffffffffffffffffffffffffffff1673ffffffffffffffffffffffffffffffffffffffff16815260200190815260200160002060009054906101000a900460ff166040516122a491906151f0565b60405180910390a350565b600160149054906101000a900460ff1681565b60036020528060005260406000206000915090508060000154908060010154908060020154908060030154905084565b6004602052816000526040600020818154811061230e57600080fd5b90600052602060002001600091509150505481565b61234f7fc71f195b146e0b4ea55644e46f58d5fc06416efd624b761f5d11b9fe63ff174d60001b61415d565b61237b7ffb3d9b9aed05128ab75fdbadeb1e8b79c2f4228afdad39231d0058241945880c60001b61415d565b6123a77fa72e17ceb34f7ce02f2c2e6d5ce17b97fe2ba669cbc5f6f1943a9690a92d7e3260001b61415d565b6123d37f53c4bf237e5a22b55c98de33b05a209ef38536da15e7b03f927f0ca548a20c3860001b61415d565b60001515600160149054906101000a900460ff16151514612429576040517f08c379a000000000000000000000000000000000000000000000000000000000815260040161242090615402565b60405180910390fd5b6124557f268f2c1e10f709c9ac1a4d344641c89e7e1e6b000443ae380e606ea8d91cff0160001b61415d565b6124817f790450d6aa1298d299fb2a250f89418fc335666b0ffa263278877692c9cd84ef60001b61415d565b6124ad7f1371d1076b9b1e60ae9eb08ecb1e8495de1fec883498b29ec8771a7eb2f727ec60001b61415d565b6124d97f2f06c43f04f932d26f063c8a8794fa6309ae9e7c6840cb023411f45b83544ace60001b61415d565b6125057fb247728a9de89f23937117ec692a63f6bb9fc5610c7bc357c10dac348c0d0b9260001b61415d565b6125317f153c5d6685a1137c4ccd3c28107eaac4d097e459fed44e6afb7cacf7eafa10d860001b61415d565b600160009054906101000a900473ffffffffffffffffffffffffffffffffffffffff1673ffffffffffffffffffffffffffffffffffffffff163373ffffffffffffffffffffffffffffffffffffffff16146125c1576040517f08c379a00000000000000000000000000000000000000000000000000000000081526004016125b890615422565b60405180910390fd5b6125ed7f3efaaad9b26819f03b547685cf602ea71c70d85d06f6f687955a944bdd9674c360001b61415d565b6126197f2726c645549d562ab056ad44b6db50011e6fbd8e3f35d7de5867e2546961cf8860001b61415d565b6126457fb12be0ac61572e0ce39cb9070223785b3434962a57ffe0dc10581df021f1bf5c60001b61415d565b6126717f14e21cb0cf653a95e255b79e967e23866db07fb960db42848cc0daf40462121c60001b61415d565b6002548311156126b6576040517f08c379a00000000000000000000000000000000000000000000000000000000081526004016126ad906153c2565b60405180910390fd5b6126e27f8923f462e764a838261f2207f1a170463365da748c29f639e9162c3d7cd3338d60001b61415d565b61270e7f2f46e1e9267bee9898dbe4dc6b8a50d2d751434a578b6f5d4d1f1f8ceebc8f3660001b61415d565b61273a7fda710d8446a33e7d0f99d893efc6df63cb02207598d53355f4a38b6151ffa36660001b61415d565b60006127666001600360008781526020019081526020016000206001015461416090919063ffffffff16565b90506127947f32609f8aa7b29995f0b6d72241ebf1c757607f9afc410016061edaf18e16b0a660001b61415d565b6127c07f74094790ffedb54bb7924177d2fdbe0eb049e862bad598c412658bed8660172460001b61415d565b6127ec7fc1502852cf29d07628589acf0aad50c29d5526627327ae55d3e488d7bd0112d860001b61415d565b6003600085815260200190815260200160002060020154811115612845576040517f08c379a000000000000000000000000000000000000000000000000000000000815260040161283c90615302565b60405180910390fd5b6128717f684ca994a5f639fb5e7c38a2da1821169329c58d0f8abc315458a4ca457c016360001b61415d565b61289d7f6e97a0663889d32d1a9b3da52116ddc4c96c2b01f1136efa8ae9b6a140518af860001b61415d565b6128c97fab542b2b744deaf013231f498034359384741b906f8aebd533f0d16c5926c6ee60001b61415d565b8060036000868152602001908152602001600020600101819055506129107f13b5f38f60efaf09022c1aa201f8b084418ad2c397df5cb87c35be2e5add198160001b61415d565b61293c7fe1318c1c25fd5c7a5166aa558bd4021b018d5f416ec2f0e6592ff0dbca9875fc60001b61415d565b826003600086815260200190815260200160002060040161296760018461434b90919063ffffffff16565b8154811061299e577f4e487b7100000000000000000000000000000000000000000000000000000000600052603260045260246000fd5b9060005260206000200190805190602001906129bb929190614959565b506129e87f0f0c2cf026ef0539a66d25d49c836d4aa44a6b578d60497d21bdbe2a8f8c0d3a60001b61415d565b612a147f3466cb0c889771c198fcd42e640646889b0dd5508b7a0bca719c458dead56fcd60001b61415d565b8173ffffffffffffffffffffffffffffffffffffffff166108fc612a6d6003600088815260200190815260200160002060020154600360008981526020019081526020016000206003015461441990919063ffffffff16565b9081150290604051600060405180830381858888f19350505050158015612a98573d6000803e3d6000fd5b50612ac57f4fa8d0dfa506ec8887c1bb800dd5b8db9605adb6e299d2325e594f72f2a0ce1a60001b61415d565b612af17f900b499cefad2e4779865327ca8462b08792345ae75b40fd92f90d37f1abffc760001b61415d565b837fb8b9b7420ce876fd147a9284d5eed5f709fc3faafb9e8cdf3c6ece72e002e8c78442604051612b23929190615294565b60405180910390a250505050565b612b5d7fc71f195b146e0b4ea55644e46f58d5fc06416efd624b761f5d11b9fe63ff174d60001b61415d565b612b897ffb3d9b9aed05128ab75fdbadeb1e8b79c2f4228afdad39231d0058241945880c60001b61415d565b612bb57fa72e17ceb34f7ce02f2c2e6d5ce17b97fe2ba669cbc5f6f1943a9690a92d7e3260001b61415d565b612be17f53c4bf237e5a22b55c98de33b05a209ef38536da15e7b03f927f0ca548a20c3860001b61415d565b60001515600160149054906101000a900460ff16151514612c37576040517f08c379a0000000000000000000000000000000000000000000000000000000008152600401612c2e90615402565b60405180910390fd5b612c637f268f2c1e10f709c9ac1a4d344641c89e7e1e6b000443ae380e606ea8d91cff0160001b61415d565b612c8f7f790450d6aa1298d299fb2a250f89418fc335666b0ffa263278877692c9cd84ef60001b61415d565b612cbb7f2181d09900d58dc62529e6b2eb3b3acf033550de3caf700d7bdb81c2c974b24a60001b61415d565b612ce77fcb1bad3df8116447e0e90d081d01a284a3d79afec4452d1fd854803394fa5c6960001b61415d565b612d137f391b3138f561933aaceb12c1f39e842e09dddb38fc678aa95bbbefac4c0bd07760001b61415d565b612d3f7f07ccc9c27d5e27d451e7076248ec317913cbc28eacc1ff2177167464d3a5993860001b61415d565b60011515600a60008373ffffffffffffffffffffffffffffffffffffffff1673ffffffffffffffffffffffffffffffffffffffff16815260200190815260200160002060009054906101000a900460ff16151514612dd2576040517f08c379a0000000000000000000000000000000000000000000000000000000008152600401612dc990615362565b60405180910390fd5b612dfe7fa17a2405735831e36f38ddadb81e6ecf068db410344cb57e536ae14821a2809660001b61415d565b612e2a7f318af0ed1a7c8ea345be3892941a902623a72ba80480729a0f37dfda6591afd060001b61415d565b612e567f15275d64a3c6d837216c9200a326693f355d86b5944603521ff0b56c6e1fac0460001b61415d565b600560003373ffffffffffffffffffffffffffffffffffffffff1673ffffffffffffffffffffffffffffffffffffffff16815260200190815260200160002060000160009054906101000a900473ffffffffffffffffffffffffffffffffffffffff1673ffffffffffffffffffffffffffffffffffffffff166108fc349081150290604051600060405180830381858888f19350505050158015612efe573d6000803e3d6000fd5b50612f2b7fd7fa872ea526eff1a59ee8b3585038ca149f347fe8c479402bc3c5f9959006cf60001b61415d565b612f577f72f97ed46b211ea7d8be0573561555660921894de4ac27391c0fa5e712e34be960001b61415d565b3373ffffffffffffffffffffffffffffffffffffffff168173ffffffffffffffffffffffffffffffffffffffff167f1d3ff44814877759fdcdec2bace42d6e7e7c1b84ca040ba5d3b4ef988ffd908e34604051612fb49190615462565b60405180910390a350565b612feb7f0fee3e5de9495bb74d9c5958178104516b9d1bcc792b3bb98600249caa81d70860001b61415d565b6130177f5903c40f8b294cc86f9cfd6f514045c38b95288364ebde207b8091549bdc7d4c60001b61415d565b6130437ffaa00da45e366c9e8331926740019d8a652b39976954162c68a0d4b32a35928860001b61415d565b61306f7ff55fb2e6ee54e7e14ad70e3ffbee732cde80fc7158c13301ffebd9cef3967e1a60001b61415d565b60008054906101000a900473ffffffffffffffffffffffffffffffffffffffff1673ffffffffffffffffffffffffffffffffffffffff163373ffffffffffffffffffffffffffffffffffffffff16146130fd576040517f08c379a00000000000000000000000000000000000000000000000000000000081526004016130f490615442565b60405180910390fd5b6131297fd40f7952e63acb9b8f42166db3b4d3b6b19a79b2effb733944da172dc74b35ea60001b61415d565b6131557fc300045696be0c95e5103e1f1eed4fbdc1a2579679cef3e531b18e87abce05d260001b61415d565b6131817fb8eef1f4cde30854d084b0504cf5120c0149a577ebf732e0b74fbe1a48b7b9a760001b61415d565b806000806101000a81548173ffffffffffffffffffffffffffffffffffffffff021916908373ffffffffffffffffffffffffffffffffffffffff16021790555050565b60065481565b60056020528060005260406000206000915090508060000160009054906101000a900473ffffffffffffffffffffffffffffffffffffffff16908060010154905082565b600a6020528060005260406000206000915054906101000a900460ff1681565b60095481565b6132607fc71f195b146e0b4ea55644e46f58d5fc06416efd624b761f5d11b9fe63ff174d60001b61415d565b61328c7ffb3d9b9aed05128ab75fdbadeb1e8b79c2f4228afdad39231d0058241945880c60001b61415d565b6132b87fa72e17ceb34f7ce02f2c2e6d5ce17b97fe2ba669cbc5f6f1943a9690a92d7e3260001b61415d565b6132e47f53c4bf237e5a22b55c98de33b05a209ef38536da15e7b03f927f0ca548a20c3860001b61415d565b60001515600160149054906101000a900460ff1615151461333a576040517f08c379a000000000000000000000000000000000000000000000000000000000815260040161333190615402565b60405180910390fd5b6133667f268f2c1e10f709c9ac1a4d344641c89e7e1e6b000443ae380e606ea8d91cff0160001b61415d565b6133927f790450d6aa1298d299fb2a250f89418fc335666b0ffa263278877692c9cd84ef60001b61415d565b6133be7f8419d955cf417bf7d42193c589580130ef55beb1fbfbca67398141b896c6653260001b61415d565b6133ea7faa45742862f510ef09632f6b6d62f48e3b4bd9188e05fadf01c8cca1a1cce13d60001b61415d565b6134167f6d1ac415865119095b559cb9a0ae456bcdabd26d80cce1b472e98a5d0bd6440260001b61415d565b60001515600a60003373ffffffffffffffffffffffffffffffffffffffff1673ffffffffffffffffffffffffffffffffffffffff16815260200190815260200160002060009054906101000a900460ff16151514156135bd5761349b7f97ad15f85e8fdab41edcf799a2446973506c31f01a7837ae9b9515b1028c52f960001b61415d565b6134c77f529b5c3a556d6a2fc0262597dc861d7ab57cd8f6dbdf2ac370ff9f645b21ccba60001b61415d565b6134f37f37dcbf08b2640f199c5a0ffbba9346fd136a1aa199760df5013b9052dd14ed1160001b61415d565b6001600a60003373ffffffffffffffffffffffffffffffffffffffff1673ffffffffffffffffffffffffffffffffffffffff16815260200190815260200160002060006101000a81548160ff0219169083151502179055506135777f157d1acd1eed00778c7429b0617de70b6abffe87ec9ff53391c1e963f5ff54b760001b61415d565b6135a37ff8b3fb0058864120677cca0424dab8b9c2922cae142f4bb5684911a97c0b69ca60001b61415d565b60016009546135b291906155ca565b6009819055506135ea565b6135e97f6aeb4c264bebe60f1253aa01b9dd79d51424071ab257b7749c3f2cd5e0a42d3a60001b61415d565b5b6136167feb3dd82a6e0ddd2030e1ad75f0a5a6dfa8e94b80a9bb986911e065f773434bfc60001b61415d565b6136427fd8f76a59bc805f3970cd3115fba0cb54ad172547a8af2c6cbc8fc99c6c0a7cae60001b61415d565b3373ffffffffffffffffffffffffffffffffffffffff167f070ebb08109e8151dd49dec1ba08cec18082514f31659837d36c851b908860ce824260405161368a929190615249565b60405180910390a250565b60006136c37fd83473adaf58935b598bd2198376b2375125ef326cb9e70975d3aad1e3278abd60001b61415d565b6136ef7fb79c8aed8a8dfc570575d534b9ef68cecafd4e55d3a6889750a02bd55ae17f8860001b61415d565b61371b7f9176d896f46b3049a20442bd32522701b77402a65cc1b740014cfdf24da9925e60001b61415d565b613731600160025461434b90919063ffffffff16565b905090565b6137627f8e381a2146a8e9d281e81c8a26de2ee9cda812b387ab8e20cb8c2f0459ae791160001b61415d565b61378e7f0a8302e7efb75282e8970e4c21e31e0f8786b9b1a5e3bf86fb7cbc8a366abb7f60001b61415d565b6137ba7fe2f7d537aacfb828b028d402e22cedfd3c34c877075f397f27f98d90333c77b360001b61415d565b6137e67f38e8fe15f18d453b0885191849c88e55790286d073131058117dfa01f57ae28060001b61415d565b60008054906101000a900473ffffffffffffffffffffffffffffffffffffffff1673ffffffffffffffffffffffffffffffffffffffff163373ffffffffffffffffffffffffffffffffffffffff1614613874576040517f08c379a000000000000000000000000000000000000000000000000000000000815260040161386b90615442565b60405180910390fd5b6138a07ff21cbb9bed72b9426862f7c9124c69b76bbb852f05c676e63225cb10aa41a7ba60001b61415d565b6138cc7f24e8a29091ae93c8252500093d5cc574300a771350d349ccfb4b8bb29ddf244b60001b61415d565b6138f87f900adc877284a8ad8b0eca708d5eefce074e7131e02720d1004d0d1cc75c632e60001b61415d565b600160149054906101000a900460ff1615600160146101000a81548160ff021916908315150217905550565b600b5481565b6139567fc71f195b146e0b4ea55644e46f58d5fc06416efd624b761f5d11b9fe63ff174d60001b61415d565b6139827ffb3d9b9aed05128ab75fdbadeb1e8b79c2f4228afdad39231d0058241945880c60001b61415d565b6139ae7fa72e17ceb34f7ce02f2c2e6d5ce17b97fe2ba669cbc5f6f1943a9690a92d7e3260001b61415d565b6139da7f53c4bf237e5a22b55c98de33b05a209ef38536da15e7b03f927f0ca548a20c3860001b61415d565b60001515600160149054906101000a900460ff16151514613a30576040517f08c379a0000000000000000000000000000000000000000000000000000000008152600401613a2790615402565b60405180910390fd5b613a5c7f268f2c1e10f709c9ac1a4d344641c89e7e1e6b000443ae380e606ea8d91cff0160001b61415d565b613a887f790450d6aa1298d299fb2a250f89418fc335666b0ffa263278877692c9cd84ef60001b61415d565b613ab47f7884c0536b6de464cd2df5114ca1e7fa44811b9411ec8cf0530c5d1f0ba39aea60001b61415d565b613ae07f75e12f58ab3aded0c8d4f3c9b1f9b475bb4628afbf6684203cec2da39e6b3b1560001b61415d565b613b0c7f9668363c521a760c76e5a87a0313707804771db8307ef5eefc8a47b1924ecd7b60001b61415d565b613b387fdf7e18476e5ea5aac99ca3c7bccc54fedb531e56fd039ff6cc69f2954d13e73660001b61415d565b600073ffffffffffffffffffffffffffffffffffffffff16600560003373ffffffffffffffffffffffffffffffffffffffff1673ffffffffffffffffffffffffffffffffffffffff16815260200190815260200160002060000160009054906101000a900473ffffffffffffffffffffffffffffffffffffffff1673ffffffffffffffffffffffffffffffffffffffff161415613c0a576040517f08c379a0000000000000000000000000000000000000000000000000000000008152600401613c0190615342565b60405180910390fd5b613c367fc03e87bb2099c16cc807d36447d1135ddda75c6bb707ed393cc0e25a42a228f060001b61415d565b613c627f3c65e6088aaae5b7ebca52a1b70a3d3260efb1a82a7afb46c98a02abf5666d2e60001b61415d565b613c8e7f594ee1b618b56b08296406302a2c071f09774c7982baf38cdffc1bc8a22cf6e160001b61415d565b613ce381600560003373ffffffffffffffffffffffffffffffffffffffff1673ffffffffffffffffffffffffffffffffffffffff1681526020019081526020016000206001015461416090919063ffffffff16565b600560003373ffffffffffffffffffffffffffffffffffffffff1673ffffffffffffffffffffffffffffffffffffffff1681526020019081526020016000206001018190555050565b6060613d5a7f36ea9ac53f155d2c839353aa8fc3f78bb317035daa41f061e646c19fff0ebcd660001b61415d565b613d867f3c37a9d6680f7dd04d404287737b71a8a008b273f5d9354424507b56045fbceb60001b61415d565b613db27fed125bf2a5ab857fdbcbabf4859328b26bbf20e8705ab804b399d3fb89bcb22260001b61415d565b600460003373ffffffffffffffffffffffffffffffffffffffff1673ffffffffffffffffffffffffffffffffffffffff168152602001908152602001600020805480602002602001604051908101604052809291908181526020018280548015613e3b57602002820191906000526020600020905b815481526020019060010190808311613e27575b5050505050905090565b60076020528160005260406000206020528060005260406000206000915091509054906101000a900460ff1681565b600d5481565b600f5481565b600e6020528060005260406000206000915054906101000a900473ffffffffffffffffffffffffffffffffffffffff1681565b613edf7fc71f195b146e0b4ea55644e46f58d5fc06416efd624b761f5d11b9fe63ff174d60001b61415d565b613f0b7ffb3d9b9aed05128ab75fdbadeb1e8b79c2f4228afdad39231d0058241945880c60001b61415d565b613f377fa72e17ceb34f7ce02f2c2e6d5ce17b97fe2ba669cbc5f6f1943a9690a92d7e3260001b61415d565b613f637f53c4bf237e5a22b55c98de33b05a209ef38536da15e7b03f927f0ca548a20c3860001b61415d565b60001515600160149054906101000a900460ff16151514613fb9576040517f08c379a0000000000000000000000000000000000000000000000000000000008152600401613fb090615402565b60405180910390fd5b613fe57f268f2c1e10f709c9ac1a4d344641c89e7e1e6b000443ae380e606ea8d91cff0160001b61415d565b6140117f790450d6aa1298d299fb2a250f89418fc335666b0ffa263278877692c9cd84ef60001b61415d565b61403d7f9f9ee82fe2419f7be8fe8f36b38dfd6d865412ebba96dadefce1488a8439844560001b61415d565b6140697fb0ca1bc4965b6f0807b7a2a325888204b8a1cc92bc2302c1fc8dbe9f8ea1783260001b61415d565b6140957f8ddc76987c5469c8ec8ded69bab3ce886bce590168f8ed74530e52254d44c68e60001b61415d565b823373ffffffffffffffffffffffffffffffffffffffff16600f547f3e1acfd5f2181de07799d35be451dbddfd093425b11baa4b85098d8f871e90a18585426040516140e39392919061520b565b60405180910390a46141177f4d959a2c1c785d572dd66855cbb5107b34015f72d9e1bd5a91b74e6eb573486560001b61415d565b6141437f0186d09906748b581b28df7ff9b33f0862204198c386ef367836df19d4c143ac60001b61415d565b6001600f5461415291906155ca565b600f81905550505050565b50565b600061418e7f218d62709b17e0ca0baed46495b428ebb8c198fa71f0312dbd02d9c007ef082e60001b6144e7565b6141ba7f1ed4d68beeb0abe30ae339330f3a5beb5bd83af99cb57c10ee65afd99ef90afa60001b6144e7565b6141e67fd34cae2bb4447a295976f225d447c691ec9ae876f38eff24d44892bd2a6843b760001b6144e7565b600082846141f491906155ca565b90506142227fa0175b8e9ecc81d48e6903e0c2203f1b037214b9d5482f4ad8bb9167ca63fe0460001b6144e7565b61424e7fa84f6e76d1624dab407577e5687d350f536070e0c67299ab82909214ee4c410d60001b6144e7565b61427a7f2953137a1acfe4407c68f225209162d1722ff40a5cbf0c975466f2e55c0deadd60001b6144e7565b838110156142bd576040517f08c379a00000000000000000000000000000000000000000000000000000000081526004016142b490615322565b60405180910390fd5b6142e97fc329ec6690583048b5cf461ae60426bd75a154f5d4aff34992c7fe6fbf5b410f60001b6144e7565b6143157f2d2be2dd26f59bf0b9c72e77d9087e92064ba727bb44f1ec697eae1ae0c32cea60001b6144e7565b6143417ff416ba67bd2c03d862ffc1b6332e62792cd9adc60443f62b4849c232d48152a760001b6144e7565b8091505092915050565b60006143797fe543c8e9ac153123df5f8785b44b8d1cebf62d3fc2a9f81c9dd5044ef7bf085460001b6144e7565b6143a57f61e824cb769e46211713df43a418324a89195cde8de699dba1262c4a993abdf760001b6144e7565b6143d17feca73675ff668d5114b02b759f83882f46494b51d09a28c0a95a4c033a6de52160001b6144e7565b61441183836040518060400160405280601e81526020017f536166654d6174683a207375627472616374696f6e206f766572666c6f7700008152506144ea565b905092915050565b60006144477fdbcc488ce83b5cbe7ec265983e225560b0d6767c5b55ae11aa479b306c73429d60001b6144e7565b6144737fdab171532eccd6151d071a03980d706a318a03d9df46c68bd53b23dfe0c395e860001b6144e7565b61449f7f01ae0f236aa2d0a3c94267859c671590856aa048cca797a53a8161aede9b138f60001b6144e7565b6144df83836040518060400160405280601a81526020017f536166654d6174683a206469766973696f6e206279207a65726f0000000000008152506146da565b905092915050565b50565b60006145187f1fbdee388bc94f7ea907cf86ed65659c4c0861b2f93ff35121373fbfb52d274c60001b6144e7565b6145447f1c9c8bce1f025f339bc1810ab2e3f83aab56bee51ce9509f4817c83ba73e3dd660001b6144e7565b6145707ff21b6312534b469447b32ba6f6dd02e5cfb9598f9162e54db5c209b522660b3d60001b6144e7565b61459c7fb6e8615a86e461dc7e295e53342fd6227f30932a37a41a0642c11b06f732cc8360001b6144e7565b8383111582906145e2576040517f08c379a00000000000000000000000000000000000000000000000000000000081526004016145d99190615272565b60405180910390fd5b5061460f7f60d2adb5fcf0a3d7bb239756df863a358684808efbbd094c875c474bf3182a6060001b6144e7565b61463b7f1ebc1335fc499d6cfe42183ce8c517294d1483b3eac6f023b43cd75afdc10fb460001b6144e7565b6146677f6013dec7bf92022588b386694c0fee4112cc6d9b9e752e5446c5d20c9ee19b5260001b6144e7565b600083856146759190615651565b90506146a37f2c5ff1ab89506049aa8c305b2e51bd302a6c341949b2ebeda9884a4b960f378860001b6144e7565b6146cf7fa0384b50a5d38e95ca16054e41fbc6a2b6a512051d479c02ce27a0cc70020aae60001b6144e7565b809150509392505050565b60006147087f10f0fc3b7fedc8cd8e35a9ad986a3106fc26556afd4b144e55e0335caeecae7a60001b6144e7565b6147347f3cbaf572a64fcabffe35bd89e41d1be291ec7cf1b22daef09230cf69b78cb5f860001b6144e7565b6147607fb19eaebbdd4e4003785eac5e00496f77f66114f1fe39dc76d1900b416fc2687960001b6144e7565b61478c7f3f1327f74afbc11ffc308eca19c96a62eced0c36708fec2e8a91e78b4a9437f160001b6144e7565b6000831182906147d2576040517f08c379a00000000000000000000000000000000000000000000000000000000081526004016147c99190615272565b60405180910390fd5b506147ff7f9709ea1cdebe77d02d2f74da0f0d3b784143dfa4f54d4efdb2c23e2fc3029b6360001b6144e7565b61482b7ffab9f000f1aab485df335837e7f839051ce6aa81445d7360a3c0848dea130eae60001b6144e7565b6148577f8b59ac7bd7cec3f5df0a4633161683d3e6dad43a0186693cd37272305933ea7460001b6144e7565b600083856148659190615620565b90506148937f5a5ca35639b76839f03e74809694bfc0735bfa5e9b1f9b13a4e52334acb47ee860001b6144e7565b6148bf7fe3d972f88e54e0121e68bfb67f0055bb6892665767a8ff4b7889c3a2a46da62e60001b6144e7565b809150509392505050565b6040518060a0016040528060008152602001600081526020016000815260200160008152602001606081525090565b828054828255906000526020600020908101928215614948579160200282015b82811115614947578251829080519060200190614937929190614959565b5091602001919060010190614919565b5b50905061495591906149df565b5090565b8280546149659061572b565b90600052602060002090601f01602090048101928261498757600085556149ce565b82601f106149a057805160ff19168380011785556149ce565b828001600101855582156149ce579182015b828111156149cd5782518255916020019190600101906149b2565b5b5090506149db9190614a03565b5090565b5b808211156149ff57600081816149f69190614a20565b506001016149e0565b5090565b5b80821115614a1c576000816000905550600101614a04565b5090565b508054614a2c9061572b565b6000825580601f10614a3e5750614a5d565b601f016020900490600052602060002090810190614a5c9190614a03565b5b50565b6000614a73614a6e84615545565b615514565b905082815260208101848484011115614a8b57600080fd5b614a968482856156e9565b509392505050565b600081359050614aad8161582a565b92915050565b600081359050614ac281615841565b92915050565b600081359050614ad781615858565b92915050565b600082601f830112614aee57600080fd5b8135614afe848260208601614a60565b91505092915050565b600081359050614b168161586f565b92915050565b600060208284031215614b2e57600080fd5b6000614b3c84828501614a9e565b91505092915050565b60008060408385031215614b5857600080fd5b6000614b6685828601614a9e565b9250506020614b7785828601614a9e565b9150509250929050565b60008060408385031215614b9457600080fd5b6000614ba285828601614a9e565b9250506020614bb385828601614b07565b9150509250929050565b600060208284031215614bcf57600080fd5b6000614bdd84828501614ac8565b91505092915050565b600080600060608486031215614bfb57600080fd5b6000614c0986828701614ac8565b9350506020614c1a86828701614ac8565b9250506040614c2b86828701614ab3565b9150509250925092565b600080600060608486031215614c4a57600080fd5b6000614c5886828701614ac8565b9350506020614c6986828701614ac8565b925050604084013567ffffffffffffffff811115614c8657600080fd5b614c9286828701614add565b9150509250925092565b60008060408385031215614caf57600080fd5b600083013567ffffffffffffffff811115614cc957600080fd5b614cd585828601614add565b9250506020614ce685828601614b07565b9150509250929050565b600060208284031215614d0257600080fd5b6000614d1084828501614b07565b91505092915050565b600080600060608486031215614d2e57600080fd5b6000614d3c86828701614b07565b935050602084013567ffffffffffffffff811115614d5957600080fd5b614d6586828701614add565b9250506040614d7686828701614ab3565b9150509250925092565b6000614d8c8383615151565b60208301905092915050565b614da181615697565b82525050565b614db081615685565b82525050565b6000614dc182615585565b614dcb81856155a8565b9350614dd683615575565b8060005b83811015614e07578151614dee8882614d80565b9750614df98361559b565b925050600181019050614dda565b5085935050505092915050565b614e1d816156a9565b82525050565b614e2c816156b5565b82525050565b6000614e3d82615590565b614e4781856155b9565b9350614e578185602086016156f8565b614e6081615819565b840191505092915050565b6000614e786014836155b9565b91507f416c6c20526f756e647320436f6d706c657465640000000000000000000000006000830152602082019050919050565b6000614eb8601b836155b9565b91507f536166654d6174683a206164646974696f6e206f766572666c6f7700000000006000830152602082019050919050565b6000614ef8600c836155b9565b91507f496e76616c6964205573657200000000000000000000000000000000000000006000830152602082019050919050565b6000614f386017836155b9565b91507f55736572206973206e6f742043616d706169676e696e670000000000000000006000830152602082019050919050565b6000614f786027836155b9565b91507f4e756d626572206f6620526f756e64732073686f756c64206265206c6573732060008301527f7468616e203130000000000000000000000000000000000000000000000000006020830152604082019050919050565b6000614fde600f836155b9565b91507f496e76616c69642046756e6420494400000000000000000000000000000000006000830152602082019050919050565b600061501e600f836155b9565b91507f496e76616c6964205461736b20494400000000000000000000000000000000006000830152602082019050919050565b600061505e6017836155b9565b91507f5573657220416c726561647920526567697374657265640000000000000000006000830152602082019050919050565b600061509e6012836155b9565b91507f436f6e74726163742069732050617573656400000000000000000000000000006000830152602082019050919050565b60006150de601d836155b9565b91507f596f7520617265206e6f742074686520636f6f7264696e61746f7220210000006000830152602082019050919050565b600061511e600a836155b9565b91507f4f6e6c79204f776e6572000000000000000000000000000000000000000000006000830152602082019050919050565b61515a816156df565b82525050565b615169816156df565b82525050565b60006020820190506151846000830184614da7565b92915050565b600060208201905061519f6000830184614d98565b92915050565b60006040820190506151ba6000830185614d98565b6151c76020830184615160565b9392505050565b600060208201905081810360008301526151e88184614db6565b905092915050565b60006020820190506152056000830184614e14565b92915050565b60006060820190506152206000830186614e23565b81810360208301526152328185614e32565b90506152416040830184615160565b949350505050565b600060408201905061525e6000830185614e23565b61526b6020830184615160565b9392505050565b6000602082019050818103600083015261528c8184614e32565b905092915050565b600060408201905081810360008301526152ae8185614e32565b90506152bd6020830184615160565b9392505050565b600060608201905081810360008301526152de8186614e32565b90506152ed6020830185615160565b6152fa6040830184615160565b949350505050565b6000602082019050818103600083015261531b81614e6b565b9050919050565b6000602082019050818103600083015261533b81614eab565b9050919050565b6000602082019050818103600083015261535b81614eeb565b9050919050565b6000602082019050818103600083015261537b81614f2b565b9050919050565b6000602082019050818103600083015261539b81614f6b565b9050919050565b600060208201905081810360008301526153bb81614fd1565b9050919050565b600060208201905081810360008301526153db81615011565b9050919050565b600060208201905081810360008301526153fb81615051565b9050919050565b6000602082019050818103600083015261541b81615091565b9050919050565b6000602082019050818103600083015261543b816150d1565b9050919050565b6000602082019050818103600083015261545b81615111565b9050919050565b60006020820190506154776000830184615160565b92915050565b60006040820190506154926000830185615160565b61549f6020830184614e23565b9392505050565b60006040820190506154bb6000830185615160565b6154c86020830184615160565b9392505050565b60006080820190506154e46000830187615160565b6154f16020830186615160565b6154fe6040830185615160565b61550b6060830184615160565b95945050505050565b6000604051905081810181811067ffffffffffffffff8211171561553b5761553a6157ea565b5b8060405250919050565b600067ffffffffffffffff8211156155605761555f6157ea565b5b601f19601f8301169050602081019050919050565b6000819050602082019050919050565b600081519050919050565b600081519050919050565b6000602082019050919050565b600082825260208201905092915050565b600082825260208201905092915050565b60006155d5826156df565b91506155e0836156df565b9250827fffffffffffffffffffffffffffffffffffffffffffffffffffffffffffffffff038211156156155761561461575d565b5b828201905092915050565b600061562b826156df565b9150615636836156df565b9250826156465761564561578c565b5b828204905092915050565b600061565c826156df565b9150615667836156df565b92508282101561567a5761567961575d565b5b828203905092915050565b6000615690826156bf565b9050919050565b60006156a2826156bf565b9050919050565b60008115159050919050565b6000819050919050565b600073ffffffffffffffffffffffffffffffffffffffff82169050919050565b6000819050919050565b82818337600083830152505050565b60005b838110156157165780820151818401526020810190506156fb565b83811115615725576000848401525b50505050565b6000600282049050600182168061574357607f821691505b60208210811415615757576157566157bb565b5b50919050565b7f4e487b7100000000000000000000000000000000000000000000000000000000600052601160045260246000fd5b7f4e487b7100000000000000000000000000000000000000000000000000000000600052601260045260246000fd5b7f4e487b7100000000000000000000000000000000000000000000000000000000600052602260045260246000fd5b7f4e487b7100000000000000000000000000000000000000000000000000000000600052604160045260246000fd5b6000601f19601f8301169050919050565b61583381615685565b811461583e57600080fd5b50565b61584a81615697565b811461585557600080fd5b50565b615861816156b5565b811461586c57600080fd5b50565b615878816156df565b811461588357600080fd5b5056fea2646970667358221220386f6b565a3558338bc0a488ed185a269629ad0ea95a3c46348cf0dcfbf3779664736f6c63430008000033",
  "linkReferences": {},
  "deployedLinkReferences": {}
}