{
  "_format": "hh-sol-artifact-1",
  "contractName": "SafeMath",
  "sourceName": "contracts/Saarthi.sol",
  "abi": [
    {
      "inputs": [
        {
          "internalType": "bytes32",
          "name": "c__0x4b60dbf9",
          "type": "bytes32"
        }
      ],
      "name": "c_0x4b60dbf9",
      "outputs": [],
      "stateMutability": "pure",
      "type": "function"
    }
  ],
  "bytecode": "0x60e0610052600b82828239805160001a607314610045577f4e487b7100000000000000000000000000000000000000000000000000000000600052600060045260246000fd5b30600052607381538281f3fe730000000000000000000000000000000000000000301460806040526004361060335760003560e01c8063fe28deaf146038575b600080fd5b604e6004803603810190604a91906066565b6050565b005b50565b6000813590506060816096565b92915050565b600060208284031215607757600080fd5b60006083848285016053565b91505092915050565b6000819050919050565b609d81608c565b811460a757600080fd5b5056fea26469706673582212201f09fb250db65964cb20fcf8820557c71224c169b32d82003eb07dc225f1328664736f6c63430008000033",
  "linkReferences": {},
  "deployedLinkReferences": {}
}