{
  "_format": "hh-sol-artifact-1",
  "contractName": "SaarthiStorage",
  "sourceName": "contracts/SaarthiStorage.sol",
  "abi": [
    {
      "anonymous": false,
      "inputs": [
        {
          "indexed": true,
          "internalType": "uint256",
          "name": "taskID",
          "type": "uint256"
        },
        {
          "indexed": false,
          "internalType": "bytes32",
          "name": "_modelHash",
          "type": "bytes32"
        },
        {
          "indexed": false,
          "internalType": "uint256",
          "name": "_time",
          "type": "uint256"
        }
      ],
      "name": "modelUpdated",
      "type": "event"
    },
    {
      "anonymous": false,
      "inputs": [
        {
          "indexed": true,
          "internalType": "address",
          "name": "_from",
          "type": "address"
        },
        {
          "indexed": true,
          "internalType": "address",
          "name": "_to",
          "type": "address"
        },
        {
          "indexed": false,
          "internalType": "bool",
          "name": "_finalState",
          "type": "bool"
        }
      ],
      "name": "newApproval",
      "type": "event"
    },
    {
      "anonymous": false,
      "inputs": [
        {
          "indexed": true,
          "internalType": "address",
          "name": "_campaigner",
          "type": "address"
        },
        {
          "indexed": false,
          "internalType": "bytes32",
          "name": "_campaignData",
          "type": "bytes32"
        },
        {
          "indexed": false,
          "internalType": "uint256",
          "name": "_createdAt",
          "type": "uint256"
        }
      ],
      "name": "newCampaign",
      "type": "event"
    },
    {
      "anonymous": false,
      "inputs": [
        {
          "indexed": true,
          "internalType": "address",
          "name": "_campaigner",
          "type": "address"
        },
        {
          "indexed": true,
          "internalType": "address",
          "name": "_from",
          "type": "address"
        },
        {
          "indexed": false,
          "internalType": "uint256",
          "name": "amount",
          "type": "uint256"
        }
      ],
      "name": "newCampaignDonation",
      "type": "event"
    },
    {
      "anonymous": false,
      "inputs": [
        {
          "indexed": false,
          "internalType": "uint256",
          "name": "_fundIndex",
          "type": "uint256"
        },
        {
          "indexed": true,
          "internalType": "bytes32",
          "name": "_orgName",
          "type": "bytes32"
        },
        {
          "indexed": false,
          "internalType": "bytes32",
          "name": "_fundName",
          "type": "bytes32"
        }
      ],
      "name": "newFund",
      "type": "event"
    },
    {
      "anonymous": false,
      "inputs": [
        {
          "indexed": false,
          "internalType": "uint256",
          "name": "_fundIndex",
          "type": "uint256"
        },
        {
          "indexed": true,
          "internalType": "address",
          "name": "_sender",
          "type": "address"
        },
        {
          "indexed": true,
          "internalType": "address",
          "name": "_receiver",
          "type": "address"
        },
        {
          "indexed": false,
          "internalType": "uint256",
          "name": "_amount",
          "type": "uint256"
        }
      ],
      "name": "newFundDonation",
      "type": "event"
    },
    {
      "anonymous": false,
      "inputs": [
        {
          "indexed": true,
          "internalType": "uint256",
          "name": "_index",
          "type": "uint256"
        },
        {
          "indexed": true,
          "internalType": "address",
          "name": "_reporter",
          "type": "address"
        },
        {
          "indexed": true,
          "internalType": "bytes32",
          "name": "_location",
          "type": "bytes32"
        },
        {
          "indexed": false,
          "internalType": "bytes32",
          "name": "_file",
          "type": "bytes32"
        },
        {
          "indexed": false,
          "internalType": "string",
          "name": "_details",
          "type": "string"
        },
        {
          "indexed": false,
          "internalType": "uint256",
          "name": "_time",
          "type": "uint256"
        }
      ],
      "name": "newReport",
      "type": "event"
    },
    {
      "anonymous": false,
      "inputs": [
        {
          "indexed": true,
          "internalType": "uint256",
          "name": "taskID",
          "type": "uint256"
        },
        {
          "indexed": true,
          "internalType": "address",
          "name": "_user",
          "type": "address"
        },
        {
          "indexed": false,
          "internalType": "bytes32",
          "name": "_modelHash",
          "type": "bytes32"
        },
        {
          "indexed": false,
          "internalType": "uint256",
          "name": "_amt",
          "type": "uint256"
        },
        {
          "indexed": false,
          "internalType": "uint256",
          "name": "_time",
          "type": "uint256"
        }
      ],
      "name": "newTaskCreated",
      "type": "event"
    },
    {
      "inputs": [
        {
          "internalType": "uint256",
          "name": "",
          "type": "uint256"
        }
      ],
      "name": "Campaigns",
      "outputs": [
        {
          "internalType": "address",
          "name": "",
          "type": "address"
        }
      ],
      "stateMutability": "view",
      "type": "function"
    },
    {
      "inputs": [
        {
          "internalType": "uint256",
          "name": "",
          "type": "uint256"
        }
      ],
      "name": "Funds",
      "outputs": [
        {
          "internalType": "address payable",
          "name": "",
          "type": "address"
        }
      ],
      "stateMutability": "view",
      "type": "function"
    },
    {
      "inputs": [
        {
          "internalType": "uint256",
          "name": "",
          "type": "uint256"
        }
      ],
      "name": "SaarthiTasks",
      "outputs": [
        {
          "internalType": "uint256",
          "name": "taskID",
          "type": "uint256"
        },
        {
          "internalType": "uint256",
          "name": "currentRound",
          "type": "uint256"
        },
        {
          "internalType": "uint256",
          "name": "totalRounds",
          "type": "uint256"
        },
        {
          "internalType": "uint256",
          "name": "cost",
          "type": "uint256"
        }
      ],
      "stateMutability": "view",
      "type": "function"
    },
    {
      "inputs": [
        {
          "internalType": "address",
          "name": "",
          "type": "address"
        },
        {
          "internalType": "uint256",
          "name": "",
          "type": "uint256"
        }
      ],
      "name": "UserTaskIDs",
      "outputs": [
        {
          "internalType": "uint256",
          "name": "",
          "type": "uint256"
        }
      ],
      "stateMutability": "view",
      "type": "function"
    },
    {
      "inputs": [],
      "name": "activeCampaignCnt",
      "outputs": [
        {
          "internalType": "uint256",
          "name": "",
          "type": "uint256"
        }
      ],
      "stateMutability": "view",
      "type": "function"
    },
    {
      "inputs": [
        {
          "internalType": "address",
          "name": "",
          "type": "address"
        },
        {
          "internalType": "address",
          "name": "",
          "type": "address"
        }
      ],
      "name": "approval",
      "outputs": [
        {
          "internalType": "bool",
          "name": "",
          "type": "bool"
        }
      ],
      "stateMutability": "view",
      "type": "function"
    },
    {
      "inputs": [
        {
          "internalType": "address",
          "name": "",
          "type": "address"
        }
      ],
      "name": "billAmounts",
      "outputs": [
        {
          "internalType": "uint256",
          "name": "",
          "type": "uint256"
        }
      ],
      "stateMutability": "view",
      "type": "function"
    },
    {
      "inputs": [
        {
          "internalType": "bytes32",
          "name": "c__0xd94ba50d",
          "type": "bytes32"
        }
      ],
      "name": "c_0xd94ba50d",
      "outputs": [],
      "stateMutability": "pure",
      "type": "function"
    },
    {
      "inputs": [
        {
          "internalType": "address",
          "name": "",
          "type": "address"
        }
      ],
      "name": "campaignEnabled",
      "outputs": [
        {
          "internalType": "bool",
          "name": "",
          "type": "bool"
        }
      ],
      "stateMutability": "view",
      "type": "function"
    },
    {
      "inputs": [],
      "name": "coordinatorAddress",
      "outputs": [
        {
          "internalType": "address",
          "name": "",
          "type": "address"
        }
      ],
      "stateMutability": "view",
      "type": "function"
    },
    {
      "inputs": [],
      "name": "fundCnt",
      "outputs": [
        {
          "internalType": "uint256",
          "name": "",
          "type": "uint256"
        }
      ],
      "stateMutability": "view",
      "type": "function"
    },
    {
      "inputs": [
        {
          "internalType": "address",
          "name": "",
          "type": "address"
        }
      ],
      "name": "hospitals",
      "outputs": [
        {
          "internalType": "bool",
          "name": "",
          "type": "bool"
        }
      ],
      "stateMutability": "view",
      "type": "function"
    },
    {
      "inputs": [],
      "name": "nextTaskID",
      "outputs": [
        {
          "internalType": "uint256",
          "name": "",
          "type": "uint256"
        }
      ],
      "stateMutability": "view",
      "type": "function"
    },
    {
      "inputs": [],
      "name": "owner",
      "outputs": [
        {
          "internalType": "address",
          "name": "",
          "type": "address"
        }
      ],
      "stateMutability": "view",
      "type": "function"
    },
    {
      "inputs": [],
      "name": "paused",
      "outputs": [
        {
          "internalType": "bool",
          "name": "",
          "type": "bool"
        }
      ],
      "stateMutability": "view",
      "type": "function"
    },
    {
      "inputs": [],
      "name": "reportCnt",
      "outputs": [
        {
          "internalType": "uint256",
          "name": "",
          "type": "uint256"
        }
      ],
      "stateMutability": "view",
      "type": "function"
    },
    {
      "inputs": [],
      "name": "totalDonationAmount",
      "outputs": [
        {
          "internalType": "uint256",
          "name": "",
          "type": "uint256"
        }
      ],
      "stateMutability": "view",
      "type": "function"
    },
    {
      "inputs": [],
      "name": "totalDonationCnt",
      "outputs": [
        {
          "internalType": "uint256",
          "name": "",
          "type": "uint256"
        }
      ],
      "stateMutability": "view",
      "type": "function"
    }
  ],
  "bytecode": "0x60806040526000600160146101000a81548160ff021916908315150217905550600160025560006009556000600b556000600c556000600d556000600f5534801561004957600080fd5b506108c4806100596000396000f3fe608060405234801561001057600080fd5b50600436106101365760003560e01c80639ff60711116100b2578063e1270b6e11610081578063e3f2d24f11610066578063e3f2d24f1461036a578063eee9b99e14610388578063f093cf80146103b857610136565b8063e1270b6e1461031c578063e1c7dbe31461034c57610136565b80639ff6071114610280578063b063795c146102b0578063c4d8fea7146102ce578063cd5e5483146102fe57610136565b80635c975abb116101095780636946c5e9116100ee5780636946c5e91461021457806382003b31146102445780638da5cb5b1461026257610136565b80635c975abb146101c35780636092a502146101e157610136565b8063178496461461013b5780634013be1014610159578063483d6752146101895780635af09fe2146101a5575b600080fd5b6101436103e8565b6040516101509190610785565b60405180910390f35b610173600480360381019061016e91906106cf565b6103ee565b6040516101809190610734565b60405180910390f35b6101a3600480360381019061019e91906106a6565b61042d565b005b6101ad610430565b6040516101ba9190610785565b60405180910390f35b6101cb610436565b6040516101d8919061076a565b60405180910390f35b6101fb60048036038101906101f691906106cf565b610449565b60405161020b94939291906107a0565b60405180910390f35b61022e6004803603810190610229919061066a565b610479565b60405161023b9190610785565b60405180910390f35b61024c6104aa565b6040516102599190610734565b60405180910390f35b61026a6104d0565b6040516102779190610734565b60405180910390f35b61029a60048036038101906102959190610605565b6104f4565b6040516102a7919061076a565b60405180910390f35b6102b8610514565b6040516102c59190610785565b60405180910390f35b6102e860048036038101906102e39190610605565b61051a565b6040516102f59190610785565b60405180910390f35b610306610532565b6040516103139190610785565b60405180910390f35b6103366004803603810190610331919061062e565b610538565b604051610343919061076a565b60405180910390f35b610354610567565b6040516103619190610785565b60405180910390f35b61037261056d565b60405161037f9190610785565b60405180910390f35b6103a2600480360381019061039d91906106cf565b610573565b6040516103af919061074f565b60405180910390f35b6103d260048036038101906103cd9190610605565b6105a6565b6040516103df919061076a565b60405180910390f35b600c5481565b600881815481106103fe57600080fd5b906000526020600020016000915054906101000a900473ffffffffffffffffffffffffffffffffffffffff1681565b50565b60025481565b600160149054906101000a900460ff1681565b60036020528060005260406000206000915090508060000154908060010154908060020154908060030154905084565b6004602052816000526040600020818154811061049557600080fd5b90600052602060002001600091509150505481565b600160009054906101000a900473ffffffffffffffffffffffffffffffffffffffff1681565b60008054906101000a900473ffffffffffffffffffffffffffffffffffffffff1681565b600a6020528060005260406000206000915054906101000a900460ff1681565b60095481565b60066020528060005260406000206000915090505481565b600b5481565b60076020528160005260406000206020528060005260406000206000915091509054906101000a900460ff1681565b600d5481565b600f5481565b600e6020528060005260406000206000915054906101000a900473ffffffffffffffffffffffffffffffffffffffff1681565b60056020528060005260406000206000915054906101000a900460ff1681565b6000813590506105d581610849565b92915050565b6000813590506105ea81610860565b92915050565b6000813590506105ff81610877565b92915050565b60006020828403121561061757600080fd5b6000610625848285016105c6565b91505092915050565b6000806040838503121561064157600080fd5b600061064f858286016105c6565b9250506020610660858286016105c6565b9150509250929050565b6000806040838503121561067d57600080fd5b600061068b858286016105c6565b925050602061069c858286016105f0565b9150509250929050565b6000602082840312156106b857600080fd5b60006106c6848285016105db565b91505092915050565b6000602082840312156106e157600080fd5b60006106ef848285016105f0565b91505092915050565b610701816107f7565b82525050565b610710816107e5565b82525050565b61071f81610809565b82525050565b61072e8161083f565b82525050565b60006020820190506107496000830184610707565b92915050565b600060208201905061076460008301846106f8565b92915050565b600060208201905061077f6000830184610716565b92915050565b600060208201905061079a6000830184610725565b92915050565b60006080820190506107b56000830187610725565b6107c26020830186610725565b6107cf6040830185610725565b6107dc6060830184610725565b95945050505050565b60006107f08261081f565b9050919050565b60006108028261081f565b9050919050565b60008115159050919050565b6000819050919050565b600073ffffffffffffffffffffffffffffffffffffffff82169050919050565b6000819050919050565b610852816107e5565b811461085d57600080fd5b50565b61086981610815565b811461087457600080fd5b50565b6108808161083f565b811461088b57600080fd5b5056fea2646970667358221220c90a29742785aa6a86395eaa209860db84b33f7f1ecb036b3d6c593721e578cb64736f6c63430008000033",
  "linkReferences": {},
  "deployedLinkReferences": {}
}